{"contracts/VaultMetadata.sol":{"VaultMetadata":{"abi":[{"inputs":[{"internalType":"uint256","name":"tokenId","type":"uint256"},{"internalType":"string","name":"purpose","type":"string"},{"internalType":"uint256","name":"balance","type":"uint256"},{"internalType":"uint256","name":"unlockTimestamp","type":"uint256"},{"internalType":"uint256","name":"lastUpdated","type":"uint256"}],"name":"generateTokenURI","outputs":[{"internalType":"string","name":"","type":"string"}],"stateMutability":"pure","type":"function"}],"evm":{"bytecode":{"linkReferences":{},"object":"6080806040523461001657611537908161001c8239f35b600080fdfe60406080815260048036101561001457600080fd5b600091823560e01c634fba954a1461002b57600080fd5b346111955760a036600319011261119557602492833567ffffffffffffffff94858211611195573660238301121561119557818501359461006b866111ed565b90610078865192836111cb565b8682523683888601011161119157846020888199868387019801883784010152604435829860148451116110c3575b50620f4240916100c8612710848404946100c08661138a565b94060461138a565b8135926100d48461138a565b9860643597620151808904620afa6c81018091116110b15762023ab180820491818302908315928483041483171561109f5761014897969594939291610119916114cd565b9161013661012b6105b48504856114cd565b618eac85049061122c565b61016d98899162023ab08604906114cd565b049161019080830292830414171561108d57610164908261122c565b96818102908104820361108d5781606461018961019193610197969560021c9061122c565b9104906114cd565b906114cd565b918260050260058104840361105857600281018091116110585760999004928360990260998104850361107b576002810180911161107b579060056101dd9204906114cd565b926001840180941161105857600a811015611069576003810180911161105857965b600288111561102a575b505050928c9d928d9c9d9261021f8f979661138a565b956102299061138a565b926102339061138a565b928751938491868084018a819b51928391019161024f92611209565b830190602f60f81b918289820152815191828a6021840192019161027292611209565b0190602182015281519182886022840192019161028e92611209565b01036002810184526022016102a390846111cb565b86519c8d978589017f3c73766720786d6c6e733d22687474703a2f2f7777772e77332e6f72672f3230905288017f30302f73766722207072657365727665417370656374526174696f3d22784d699052606088017f6e594d696e206d656574222076696577426f783d223020302035303020353030905261111f60f11b908160808a015260828901651e3232b3399f60d11b9052608889017f3c6c696e6561724772616469656e742069643d22636172644772616422207831905260a889017f3d223025222079313d223025222078323d2231303025222079323d223130302590528160c88a015260ca89017f3c73746f70206f66667365743d22302522207374796c653d2273746f702d636f905260ea89017f6c6f723a233145314234423b73746f702d6f7061636974793a3122202f3e0000905261010889017f3c73746f70206f66667365743d223130302522207374796c653d2273746f702d905261012889017f636f6c6f723a233138313831423b73746f702d6f7061636974793a3122202f3e90526101488901701e17b634b732b0b923b930b234b2b73a1f60791b905261015989017f3c66696c7465722069643d22676c6f772220783d222d3230252220793d222d32905261017989017f3025222077696474683d223134302522206865696768743d2231343025223e00905261019889017f3c6665476175737369616e426c757220696e3d22536f7572636547726170686990526101b889017f632220737464446576696174696f6e3d22323522202f3e00000000000000000090526101cf8901681e17b334b63a32b91f60b91b90526101d88901661e17b232b3399f60c91b90526101df89017f3c726563742077696474683d2235303022206865696768743d2235303022206690526f34b6361e9111981c981c98211110179f60811b6101ff8a015261020f89017f3c656c6c697073652063783d22343030222063793d22313530222072783d2231905261022f89017f3530222072793d22313030222066696c6c3d222345363230353822206f706163905261024f89017f6974793d22302e3135222066696c7465723d2275726c2823676c6f772922202f905261026f8901601f60f91b905261027089017f3c656c6c697073652063783d22313030222063793d22343030222072783d2231905261029089017f3030222072793d223830222066696c6c3d222345363230353822206f7061636990526102b089017f74793d22302e31222066696c7465723d2275726c2823676c6f772922202f3e0090527f3c7265637420783d2236302220793d223730222077696474683d223338302220806102cf8b01526102ef8a017f6865696768743d22333730222072783d223430222066696c6c3d2275726c2823905261030f8a017f63617264477261642922207374726f6b653d22776869746522207374726f6b6590527016b7b830b1b4ba3c9e911817189110179f60791b61032f8b01526103408a015261036089017f6865696768743d22333730222072783d223430222066696c6c3d227768697465905272111037b830b1b4ba3c9e91181718199110179f60691b6103808a015261039389017f3c7465787420783d223130302220793d22313138222066696c6c3d227768697490527f652220666f6e742d66616d696c793d2256657264616e612c2073616e732d736592836103b38b01526103d38a017f7269662220666f6e742d73697a653d2233302220666f6e742d7765696768743d90526103f38a017f2239303022206c65747465722d73706163696e673d2231223e53415649515545905289661e17ba32bc3a1f60c91b809981958261041385015261041a84017f3c7465787420783d223130302220793d22313336222066696c6c3d227768697490528761043a85015261045a84017f7269662220666f6e742d73697a653d2231302220666f6e742d7765696768743d905261047a84017f22626f6c6422206f7061636974793d22302e3622206c65747465722d73706163905261049a84017f696e673d2232223e50524f54454354494e4720594f5552204655545552453c2f90526104ba8401643a32bc3a1f60d91b90526104bf84017f3c7465787420783d223130302220793d22323030222066696c6c3d227768697490526104df84017f652220666f6e742d66616d696c793d2247656f726769612c207365726966222090526104ff84017f666f6e742d73697a653d2233322220666f6e742d7765696768743d22626f6c64905261051f840152805190818b61052180960192019161092b92611209565b8c01918201527f3c7465787420783d223130302220793d22323632222066696c6c3d227768697461052882015261054881018590527f7269662220666f6e742d73697a653d22313122206f7061636974793d22302e356105688201527f2220666f6e742d7765696768743d22626f6c64223e43555252454e5420434f4d6105888201526d26a4aa26a2a72a1e17ba32bc3a1f60911b6105a88201527f3c7465787420783d223130302220793d22333035222066696c6c3d22234536326105b68201527f3035382220666f6e742d66616d696c793d2256657264616e612c2073616e732d6105d68201527f73657269662220666f6e742d73697a653d2233382220666f6e742d77656967686105f6820152673a1e911c9818111f60c11b610616820152815161061e92909190610a67908390858401908c01611209565b01908101601760f91b905284519061061f958289888401920191610a8a92611209565b019384016c102aa9a22a181e17ba32bc3a1f60991b905261062c84017f3c7265637420783d2238302220793d22333535222077696474683d2233343022905261064c84017f206865696768743d2231222066696c6c3d22776869746522206f7061636974799052681e911817189110179f60b91b61066c85015261067584017f3c7465787420783d223130302220793d22333832222066696c6c3d22776869749052826106958501527f7269662220666f6e742d73697a653d2231322220666f6e742d7765696768743d93846106b58201526106d581017f22626f6c6422206f7061636974793d22302e36223e4e465420230000000000009052815191826106ef98898401920191610b9b92611209565b01948501526106f684017f3c7465787420783d223338302220793d22333832222066696c6c3d2277686974905261071684015261073683015261075682017f22626f6c6422206f7061636974793d22302e362220746578742d616e63686f7290526f01e9132b732111f26a0aa2aa922a99d160851b61077683015251906107869382858301610c2992611209565b019182015261078d8101651e17b9bb339f60d11b9052036107738101875261079301610c5590876111cb565b610c5e9061138a565b92875194610c6b86611199565b8886527f4142434445464748494a4b4c4d4e4f505152535455565758595a6162636465669687898801527f6768696a6b6c6d6e6f707172737475767778797a303132333435363738392b2f96878b820152610cc591611281565b92610ccf9061138a565b91610cd99061138a565b92610ce560843561138a565b948a51998a978189017f7b226e616d65223a202253617669717565205661756c742023000000000000009052805190818360398c01920191610d2692611209565b6201116160ed1b6039918a019182018190527f226465736372697074696f6e223a202241207072656d69756d20736176696e67603c8301526b039903b30bab63a103337b9160a51b605c8301528351909491610d86826068830189611209565b0190630171116160e51b6068830152606c82017f22696d616765223a2022646174613a696d6167652f7376672b786d6c3b6261739052608c820163194d8d0b60e21b90528051809360908401920191610dde92611209565b019160908301526e2261747472696275746573223a205b60881b609383015260a282017f7b2274726169745f74797065223a2022476f616c222c202276616c7565223a209052601160f91b60c283015251918260c38301610e3e92611209565b0190630113e96160e51b908160c384015260c783017f7b2274726169745f74797065223a202242616c616e6365222c202276616c7565905263111d101160e11b928360e7820152815191828d60eb8401920191610e9a92611209565b019060eb82015260ef81017f7b2274726169745f74797065223a20224d61747572697479222c202264697370905261010f81017f6c61795f74797065223a202264617465222c202276616c7565223a2000000000905282519061012b93828c868401920191610f0892611209565b019182016203e96160ed1b905261012e82017f7b2274726169745f74797065223a202256657273696f6e222c202276616c7565905261014e82015281519061015292828a858401920191610f5b92611209565b019061227d60f01b908201526101548101615d7d60f01b9052036101368101845261015601610f8a90846111cb565b835191610f9683611199565b8483528583015283820152610faa91611281565b9181519081818101947f646174613a6170706c69636174696f6e2f6a736f6e3b6261736536342c00000086528051908184603d8501920191610feb92611209565b810103601d81018352603d0161100190836111cb565b82519384928284525180928401528184840161101c92611209565b601f01601f19168101030190f35b6001879497018094116110485750919491508390508261021f610209565b634e487b7160e01b825260119052fd5b50634e487b7160e01b815260118752fd5b600819810190811161105857966101ff565b5050634e487b7160e01b815260118752fd5b634e487b7160e01b8552601189528385fd5b634e487b7160e01b8652601189528486fd5b50634e487b7160e01b82526011855290fd5b87519199508188019081118282101761117f579088918852600c8082528282019083368337885b8181106111305750506111299160239161110e8b5195869351928391850190611209565b81016217171760e91b8c8201520360038101845201826111cb565b97386100a7565b92935090916001600160f81b031961114882886114da565b5116891a61115682866114da565b53600019811461116d57600101908a9392916110ea565b634e487b7160e01b8952601185528689fd5b634e487b7160e01b8752604183528487fd5b8480fd5b8280fd5b6060810190811067ffffffffffffffff8211176111b557604052565b634e487b7160e01b600052604160045260246000fd5b90601f8019910116810190811067ffffffffffffffff8211176111b557604052565b67ffffffffffffffff81116111b557601f01601f191660200190565b60005b83811061121c5750506000910152565b818101518382015260200161120c565b9190820180921161123957565b634e487b7160e01b600052601160045260246000fd5b90611259826111ed565b61126660405191826111cb565b8281528092611277601f19916111ed565b0190602036910137565b805115611364578051600291828201809211611239576003918290046001600160fe1b0381168103611239576112ba908495941b61124f565b936020850193829183518401906020820192835194600085525b838110611313575050505052510680600114611300576002146112f5575090565b603d90600019015390565b50603d9081600019820153600119015390565b87600491999293949901918251600190603f9082828260121c16880101518453828282600c1c16880101518385015382828260061c16880101518885015316850101518982015301979291906112d4565b50506040516020810181811067ffffffffffffffff8211176111b5576040526000815290565b806000917a184f03e93ff9f4daa797ed6e38ed64bf6a1f010000000000000000808210156114bf575b506d04ee2d6d415b85acef8100000000808310156114b0575b50662386f26fc10000808310156114a1575b506305f5e10080831015611492575b5061271080831015611483575b506064821015611473575b600a80921015611469575b60019081602161142182870161124f565b95860101905b611433575b5050505090565b600019019083906f181899199a1a9b1b9c1cb0b131b232b360811b8282061a83530491821561146457919082611427565b61142c565b9160010191611410565b9190606460029104910191611405565b600491939204910191386113fa565b600891939204910191386113ed565b601091939204910191386113de565b602091939204910191386113cc565b6040935081049150386113b3565b9190820391821161123957565b9081518110156114eb570160200190565b634e487b7160e01b600052603260045260246000fdfea2646970667358221220b215ab0c64077d89984bb452a77f993ab1c66ee77cdc43f72cf73bb919aa9f9964736f6c63430008140033","opcodes":"PUSH1 0x80 DUP1 PUSH1 0x40 MSTORE CALLVALUE PUSH2 0x16 JUMPI PUSH2 0x1537 SWAP1 DUP2 PUSH2 0x1C DUP3 CODECOPY RETURN JUMPDEST PUSH1 0x0 DUP1 REVERT INVALID PUSH1 0x40 PUSH1 0x80 DUP2 MSTORE PUSH1 0x4 DUP1 CALLDATASIZE LT ISZERO PUSH2 0x14 JUMPI PUSH1 0x0 DUP1 REVERT JUMPDEST PUSH1 0x0 SWAP2 DUP3 CALLDATALOAD PUSH1 0xE0 SHR PUSH4 0x4FBA954A EQ PUSH2 0x2B JUMPI PUSH1 0x0 DUP1 REVERT JUMPDEST CALLVALUE PUSH2 0x1195 JUMPI PUSH1 0xA0 CALLDATASIZE PUSH1 0x3 NOT ADD SLT PUSH2 0x1195 JUMPI PUSH1 0x24 SWAP3 DUP4 CALLDATALOAD PUSH8 0xFFFFFFFFFFFFFFFF SWAP5 DUP6 DUP3 GT PUSH2 0x1195 JUMPI CALLDATASIZE PUSH1 0x23 DUP4 ADD SLT ISZERO PUSH2 0x1195 JUMPI DUP2 DUP6 ADD CALLDATALOAD SWAP5 PUSH2 0x6B DUP7 PUSH2 0x11ED JUMP JUMPDEST SWAP1 PUSH2 0x78 DUP7 MLOAD SWAP3 DUP4 PUSH2 0x11CB JUMP JUMPDEST DUP7 DUP3 MSTORE CALLDATASIZE DUP4 DUP9 DUP7 ADD ADD GT PUSH2 0x1191 JUMPI DUP5 PUSH1 0x20 DUP9 DUP2 SWAP10 DUP7 DUP4 DUP8 ADD SWAP9 ADD DUP9 CALLDATACOPY DUP5 ADD ADD MSTORE PUSH1 0x44 CALLDATALOAD DUP3 SWAP9 PUSH1 0x14 DUP5 MLOAD GT PUSH2 0x10C3 JUMPI JUMPDEST POP PUSH3 0xF4240 SWAP2 PUSH2 0xC8 PUSH2 0x2710 DUP5 DUP5 DIV SWAP5 PUSH2 0xC0 DUP7 PUSH2 0x138A JUMP JUMPDEST SWAP5 MOD DIV PUSH2 0x138A JUMP JUMPDEST DUP2 CALLDATALOAD SWAP3 PUSH2 0xD4 DUP5 PUSH2 0x138A JUMP JUMPDEST SWAP9 PUSH1 0x64 CALLDATALOAD SWAP8 PUSH3 0x15180 DUP10 DIV PUSH3 0xAFA6C DUP2 ADD DUP1 SWAP2 GT PUSH2 0x10B1 JUMPI PUSH3 0x23AB1 DUP1 DUP3 DIV SWAP2 DUP2 DUP4 MUL SWAP1 DUP4 ISZERO SWAP3 DUP5 DUP4 DIV EQ DUP4 OR ISZERO PUSH2 0x109F JUMPI PUSH2 0x148 SWAP8 SWAP7 SWAP6 SWAP5 SWAP4 SWAP3 SWAP2 PUSH2 0x119 SWAP2 PUSH2 0x14CD JUMP JUMPDEST SWAP2 PUSH2 0x136 PUSH2 0x12B PUSH2 0x5B4 DUP6 DIV DUP6 PUSH2 0x14CD JUMP JUMPDEST PUSH2 0x8EAC DUP6 DIV SWAP1 PUSH2 0x122C JUMP JUMPDEST PUSH2 0x16D SWAP9 DUP10 SWAP2 PUSH3 0x23AB0 DUP7 DIV SWAP1 PUSH2 0x14CD JUMP JUMPDEST DIV SWAP2 PUSH2 0x190 DUP1 DUP4 MUL SWAP3 DUP4 DIV EQ OR ISZERO PUSH2 0x108D JUMPI PUSH2 0x164 SWAP1 DUP3 PUSH2 0x122C JUMP JUMPDEST SWAP7 DUP2 DUP2 MUL SWAP1 DUP2 DIV DUP3 SUB PUSH2 0x108D JUMPI DUP2 PUSH1 0x64 PUSH2 0x189 PUSH2 0x191 SWAP4 PUSH2 0x197 SWAP7 SWAP6 PUSH1 0x2 SHR SWAP1 PUSH2 0x122C JUMP JUMPDEST SWAP2 DIV SWAP1 PUSH2 0x14CD JUMP JUMPDEST SWAP1 PUSH2 0x14CD JUMP JUMPDEST SWAP2 DUP3 PUSH1 0x5 MUL PUSH1 0x5 DUP2 DIV DUP5 SUB PUSH2 0x1058 JUMPI PUSH1 0x2 DUP2 ADD DUP1 SWAP2 GT PUSH2 0x1058 JUMPI PUSH1 0x99 SWAP1 DIV SWAP3 DUP4 PUSH1 0x99 MUL PUSH1 0x99 DUP2 DIV DUP6 SUB PUSH2 0x107B JUMPI PUSH1 0x2 DUP2 ADD DUP1 SWAP2 GT PUSH2 0x107B JUMPI SWAP1 PUSH1 0x5 PUSH2 0x1DD SWAP3 DIV SWAP1 PUSH2 0x14CD JUMP JUMPDEST SWAP3 PUSH1 0x1 DUP5 ADD DUP1 SWAP5 GT PUSH2 0x1058 JUMPI PUSH1 0xA DUP2 LT ISZERO PUSH2 0x1069 JUMPI PUSH1 0x3 DUP2 ADD DUP1 SWAP2 GT PUSH2 0x1058 JUMPI SWAP7 JUMPDEST PUSH1 0x2 DUP9 GT ISZERO PUSH2 0x102A JUMPI JUMPDEST POP POP POP SWAP3 DUP13 SWAP14 SWAP3 DUP14 SWAP13 SWAP14 SWAP3 PUSH2 0x21F DUP16 SWAP8 SWAP7 PUSH2 0x138A JUMP JUMPDEST SWAP6 PUSH2 0x229 SWAP1 PUSH2 0x138A JUMP JUMPDEST SWAP3 PUSH2 0x233 SWAP1 PUSH2 0x138A JUMP JUMPDEST SWAP3 DUP8 MLOAD SWAP4 DUP5 SWAP2 DUP7 DUP1 DUP5 ADD DUP11 DUP2 SWAP12 MLOAD SWAP3 DUP4 SWAP2 ADD SWAP2 PUSH2 0x24F SWAP3 PUSH2 0x1209 JUMP JUMPDEST DUP4 ADD SWAP1 PUSH1 0x2F PUSH1 0xF8 SHL SWAP2 DUP3 DUP10 DUP3 ADD MSTORE DUP2 MLOAD SWAP2 DUP3 DUP11 PUSH1 0x21 DUP5 ADD SWAP3 ADD SWAP2 PUSH2 0x272 SWAP3 PUSH2 0x1209 JUMP JUMPDEST ADD SWAP1 PUSH1 0x21 DUP3 ADD MSTORE DUP2 MLOAD SWAP2 DUP3 DUP9 PUSH1 0x22 DUP5 ADD SWAP3 ADD SWAP2 PUSH2 0x28E SWAP3 PUSH2 0x1209 JUMP JUMPDEST ADD SUB PUSH1 0x2 DUP2 ADD DUP5 MSTORE PUSH1 0x22 ADD PUSH2 0x2A3 SWAP1 DUP5 PUSH2 0x11CB JUMP JUMPDEST DUP7 MLOAD SWAP13 DUP14 SWAP8 DUP6 DUP10 ADD PUSH32 0x3C73766720786D6C6E733D22687474703A2F2F7777772E77332E6F72672F3230 SWAP1 MSTORE DUP9 ADD PUSH32 0x30302F73766722207072657365727665417370656374526174696F3D22784D69 SWAP1 MSTORE PUSH1 0x60 DUP9 ADD PUSH32 0x6E594D696E206D656574222076696577426F783D223020302035303020353030 SWAP1 MSTORE PUSH2 0x111F PUSH1 0xF1 SHL SWAP1 DUP2 PUSH1 0x80 DUP11 ADD MSTORE PUSH1 0x82 DUP10 ADD PUSH6 0x1E3232B3399F PUSH1 0xD1 SHL SWAP1 MSTORE PUSH1 0x88 DUP10 ADD PUSH32 0x3C6C696E6561724772616469656E742069643D22636172644772616422207831 SWAP1 MSTORE PUSH1 0xA8 DUP10 ADD PUSH32 0x3D223025222079313D223025222078323D2231303025222079323D2231303025 SWAP1 MSTORE DUP2 PUSH1 0xC8 DUP11 ADD MSTORE PUSH1 0xCA DUP10 ADD PUSH32 0x3C73746F70206F66667365743D22302522207374796C653D2273746F702D636F SWAP1 MSTORE PUSH1 0xEA DUP10 ADD PUSH32 0x6C6F723A233145314234423B73746F702D6F7061636974793A3122202F3E0000 SWAP1 MSTORE PUSH2 0x108 DUP10 ADD PUSH32 0x3C73746F70206F66667365743D223130302522207374796C653D2273746F702D SWAP1 MSTORE PUSH2 0x128 DUP10 ADD PUSH32 0x636F6C6F723A233138313831423B73746F702D6F7061636974793A3122202F3E SWAP1 MSTORE PUSH2 0x148 DUP10 ADD PUSH17 0x1E17B634B732B0B923B930B234B2B73A1F PUSH1 0x79 SHL SWAP1 MSTORE PUSH2 0x159 DUP10 ADD PUSH32 0x3C66696C7465722069643D22676C6F772220783D222D3230252220793D222D32 SWAP1 MSTORE PUSH2 0x179 DUP10 ADD PUSH32 0x3025222077696474683D223134302522206865696768743D2231343025223E00 SWAP1 MSTORE PUSH2 0x198 DUP10 ADD PUSH32 0x3C6665476175737369616E426C757220696E3D22536F75726365477261706869 SWAP1 MSTORE PUSH2 0x1B8 DUP10 ADD PUSH32 0x632220737464446576696174696F6E3D22323522202F3E000000000000000000 SWAP1 MSTORE PUSH2 0x1CF DUP10 ADD PUSH9 0x1E17B334B63A32B91F PUSH1 0xB9 SHL SWAP1 MSTORE PUSH2 0x1D8 DUP10 ADD PUSH7 0x1E17B232B3399F PUSH1 0xC9 SHL SWAP1 MSTORE PUSH2 0x1DF DUP10 ADD PUSH32 0x3C726563742077696474683D2235303022206865696768743D22353030222066 SWAP1 MSTORE PUSH16 0x34B6361E9111981C981C98211110179F PUSH1 0x81 SHL PUSH2 0x1FF DUP11 ADD MSTORE PUSH2 0x20F DUP10 ADD PUSH32 0x3C656C6C697073652063783D22343030222063793D22313530222072783D2231 SWAP1 MSTORE PUSH2 0x22F DUP10 ADD PUSH32 0x3530222072793D22313030222066696C6C3D222345363230353822206F706163 SWAP1 MSTORE PUSH2 0x24F DUP10 ADD PUSH32 0x6974793D22302E3135222066696C7465723D2275726C2823676C6F772922202F SWAP1 MSTORE PUSH2 0x26F DUP10 ADD PUSH1 0x1F PUSH1 0xF9 SHL SWAP1 MSTORE PUSH2 0x270 DUP10 ADD PUSH32 0x3C656C6C697073652063783D22313030222063793D22343030222072783D2231 SWAP1 MSTORE PUSH2 0x290 DUP10 ADD PUSH32 0x3030222072793D223830222066696C6C3D222345363230353822206F70616369 SWAP1 MSTORE PUSH2 0x2B0 DUP10 ADD PUSH32 0x74793D22302E31222066696C7465723D2275726C2823676C6F772922202F3E00 SWAP1 MSTORE PUSH32 0x3C7265637420783D2236302220793D223730222077696474683D223338302220 DUP1 PUSH2 0x2CF DUP12 ADD MSTORE PUSH2 0x2EF DUP11 ADD PUSH32 0x6865696768743D22333730222072783D223430222066696C6C3D2275726C2823 SWAP1 MSTORE PUSH2 0x30F DUP11 ADD PUSH32 0x63617264477261642922207374726F6B653D22776869746522207374726F6B65 SWAP1 MSTORE PUSH17 0x16B7B830B1B4BA3C9E911817189110179F PUSH1 0x79 SHL PUSH2 0x32F DUP12 ADD MSTORE PUSH2 0x340 DUP11 ADD MSTORE PUSH2 0x360 DUP10 ADD PUSH32 0x6865696768743D22333730222072783D223430222066696C6C3D227768697465 SWAP1 MSTORE PUSH19 0x111037B830B1B4BA3C9E91181718199110179F PUSH1 0x69 SHL PUSH2 0x380 DUP11 ADD MSTORE PUSH2 0x393 DUP10 ADD PUSH32 0x3C7465787420783D223130302220793D22313138222066696C6C3D2277686974 SWAP1 MSTORE PUSH32 0x652220666F6E742D66616D696C793D2256657264616E612C2073616E732D7365 SWAP3 DUP4 PUSH2 0x3B3 DUP12 ADD MSTORE PUSH2 0x3D3 DUP11 ADD PUSH32 0x7269662220666F6E742D73697A653D2233302220666F6E742D7765696768743D SWAP1 MSTORE PUSH2 0x3F3 DUP11 ADD PUSH32 0x2239303022206C65747465722D73706163696E673D2231223E53415649515545 SWAP1 MSTORE DUP10 PUSH7 0x1E17BA32BC3A1F PUSH1 0xC9 SHL DUP1 SWAP10 DUP2 SWAP6 DUP3 PUSH2 0x413 DUP6 ADD MSTORE PUSH2 0x41A DUP5 ADD PUSH32 0x3C7465787420783D223130302220793D22313336222066696C6C3D2277686974 SWAP1 MSTORE DUP8 PUSH2 0x43A DUP6 ADD MSTORE PUSH2 0x45A DUP5 ADD PUSH32 0x7269662220666F6E742D73697A653D2231302220666F6E742D7765696768743D SWAP1 MSTORE PUSH2 0x47A DUP5 ADD PUSH32 0x22626F6C6422206F7061636974793D22302E3622206C65747465722D73706163 SWAP1 MSTORE PUSH2 0x49A DUP5 ADD PUSH32 0x696E673D2232223E50524F54454354494E4720594F5552204655545552453C2F SWAP1 MSTORE PUSH2 0x4BA DUP5 ADD PUSH5 0x3A32BC3A1F PUSH1 0xD9 SHL SWAP1 MSTORE PUSH2 0x4BF DUP5 ADD PUSH32 0x3C7465787420783D223130302220793D22323030222066696C6C3D2277686974 SWAP1 MSTORE PUSH2 0x4DF DUP5 ADD PUSH32 0x652220666F6E742D66616D696C793D2247656F726769612C2073657269662220 SWAP1 MSTORE PUSH2 0x4FF DUP5 ADD PUSH32 0x666F6E742D73697A653D2233322220666F6E742D7765696768743D22626F6C64 SWAP1 MSTORE PUSH2 0x51F DUP5 ADD MSTORE DUP1 MLOAD SWAP1 DUP2 DUP12 PUSH2 0x521 DUP1 SWAP7 ADD SWAP3 ADD SWAP2 PUSH2 0x92B SWAP3 PUSH2 0x1209 JUMP JUMPDEST DUP13 ADD SWAP2 DUP3 ADD MSTORE PUSH32 0x3C7465787420783D223130302220793D22323632222066696C6C3D2277686974 PUSH2 0x528 DUP3 ADD MSTORE PUSH2 0x548 DUP2 ADD DUP6 SWAP1 MSTORE PUSH32 0x7269662220666F6E742D73697A653D22313122206F7061636974793D22302E35 PUSH2 0x568 DUP3 ADD MSTORE PUSH32 0x2220666F6E742D7765696768743D22626F6C64223E43555252454E5420434F4D PUSH2 0x588 DUP3 ADD MSTORE PUSH14 0x26A4AA26A2A72A1E17BA32BC3A1F PUSH1 0x91 SHL PUSH2 0x5A8 DUP3 ADD MSTORE PUSH32 0x3C7465787420783D223130302220793D22333035222066696C6C3D2223453632 PUSH2 0x5B6 DUP3 ADD MSTORE PUSH32 0x3035382220666F6E742D66616D696C793D2256657264616E612C2073616E732D PUSH2 0x5D6 DUP3 ADD MSTORE PUSH32 0x73657269662220666F6E742D73697A653D2233382220666F6E742D7765696768 PUSH2 0x5F6 DUP3 ADD MSTORE PUSH8 0x3A1E911C9818111F PUSH1 0xC1 SHL PUSH2 0x616 DUP3 ADD MSTORE DUP2 MLOAD PUSH2 0x61E SWAP3 SWAP1 SWAP2 SWAP1 PUSH2 0xA67 SWAP1 DUP4 SWAP1 DUP6 DUP5 ADD SWAP1 DUP13 ADD PUSH2 0x1209 JUMP JUMPDEST ADD SWAP1 DUP2 ADD PUSH1 0x17 PUSH1 0xF9 SHL SWAP1 MSTORE DUP5 MLOAD SWAP1 PUSH2 0x61F SWAP6 DUP3 DUP10 DUP9 DUP5 ADD SWAP3 ADD SWAP2 PUSH2 0xA8A SWAP3 PUSH2 0x1209 JUMP JUMPDEST ADD SWAP4 DUP5 ADD PUSH13 0x102AA9A22A181E17BA32BC3A1F PUSH1 0x99 SHL SWAP1 MSTORE PUSH2 0x62C DUP5 ADD PUSH32 0x3C7265637420783D2238302220793D22333535222077696474683D2233343022 SWAP1 MSTORE PUSH2 0x64C DUP5 ADD PUSH32 0x206865696768743D2231222066696C6C3D22776869746522206F706163697479 SWAP1 MSTORE PUSH9 0x1E911817189110179F PUSH1 0xB9 SHL PUSH2 0x66C DUP6 ADD MSTORE PUSH2 0x675 DUP5 ADD PUSH32 0x3C7465787420783D223130302220793D22333832222066696C6C3D2277686974 SWAP1 MSTORE DUP3 PUSH2 0x695 DUP6 ADD MSTORE PUSH32 0x7269662220666F6E742D73697A653D2231322220666F6E742D7765696768743D SWAP4 DUP5 PUSH2 0x6B5 DUP3 ADD MSTORE PUSH2 0x6D5 DUP2 ADD PUSH32 0x22626F6C6422206F7061636974793D22302E36223E4E46542023000000000000 SWAP1 MSTORE DUP2 MLOAD SWAP2 DUP3 PUSH2 0x6EF SWAP9 DUP10 DUP5 ADD SWAP3 ADD SWAP2 PUSH2 0xB9B SWAP3 PUSH2 0x1209 JUMP JUMPDEST ADD SWAP5 DUP6 ADD MSTORE PUSH2 0x6F6 DUP5 ADD PUSH32 0x3C7465787420783D223338302220793D22333832222066696C6C3D2277686974 SWAP1 MSTORE PUSH2 0x716 DUP5 ADD MSTORE PUSH2 0x736 DUP4 ADD MSTORE PUSH2 0x756 DUP3 ADD PUSH32 0x22626F6C6422206F7061636974793D22302E362220746578742D616E63686F72 SWAP1 MSTORE PUSH16 0x1E9132B732111F26A0AA2AA922A99D1 PUSH1 0x85 SHL PUSH2 0x776 DUP4 ADD MSTORE MLOAD SWAP1 PUSH2 0x786 SWAP4 DUP3 DUP6 DUP4 ADD PUSH2 0xC29 SWAP3 PUSH2 0x1209 JUMP JUMPDEST ADD SWAP2 DUP3 ADD MSTORE PUSH2 0x78D DUP2 ADD PUSH6 0x1E17B9BB339F PUSH1 0xD1 SHL SWAP1 MSTORE SUB PUSH2 0x773 DUP2 ADD DUP8 MSTORE PUSH2 0x793 ADD PUSH2 0xC55 SWAP1 DUP8 PUSH2 0x11CB JUMP JUMPDEST PUSH2 0xC5E SWAP1 PUSH2 0x138A JUMP JUMPDEST SWAP3 DUP8 MLOAD SWAP5 PUSH2 0xC6B DUP7 PUSH2 0x1199 JUMP JUMPDEST DUP9 DUP7 MSTORE PUSH32 0x4142434445464748494A4B4C4D4E4F505152535455565758595A616263646566 SWAP7 DUP8 DUP10 DUP9 ADD MSTORE PUSH32 0x6768696A6B6C6D6E6F707172737475767778797A303132333435363738392B2F SWAP7 DUP8 DUP12 DUP3 ADD MSTORE PUSH2 0xCC5 SWAP2 PUSH2 0x1281 JUMP JUMPDEST SWAP3 PUSH2 0xCCF SWAP1 PUSH2 0x138A JUMP JUMPDEST SWAP2 PUSH2 0xCD9 SWAP1 PUSH2 0x138A JUMP JUMPDEST SWAP3 PUSH2 0xCE5 PUSH1 0x84 CALLDATALOAD PUSH2 0x138A JUMP JUMPDEST SWAP5 DUP11 MLOAD SWAP10 DUP11 SWAP8 DUP2 DUP10 ADD PUSH32 0x7B226E616D65223A202253617669717565205661756C74202300000000000000 SWAP1 MSTORE DUP1 MLOAD SWAP1 DUP2 DUP4 PUSH1 0x39 DUP13 ADD SWAP3 ADD SWAP2 PUSH2 0xD26 SWAP3 PUSH2 0x1209 JUMP JUMPDEST PUSH3 0x11161 PUSH1 0xED SHL PUSH1 0x39 SWAP2 DUP11 ADD SWAP2 DUP3 ADD DUP2 SWAP1 MSTORE PUSH32 0x226465736372697074696F6E223A202241207072656D69756D20736176696E67 PUSH1 0x3C DUP4 ADD MSTORE PUSH12 0x39903B30BAB63A103337B91 PUSH1 0xA5 SHL PUSH1 0x5C DUP4 ADD MSTORE DUP4 MLOAD SWAP1 SWAP5 SWAP2 PUSH2 0xD86 DUP3 PUSH1 0x68 DUP4 ADD DUP10 PUSH2 0x1209 JUMP JUMPDEST ADD SWAP1 PUSH4 0x1711161 PUSH1 0xE5 SHL PUSH1 0x68 DUP4 ADD MSTORE PUSH1 0x6C DUP3 ADD PUSH32 0x22696D616765223A2022646174613A696D6167652F7376672B786D6C3B626173 SWAP1 MSTORE PUSH1 0x8C DUP3 ADD PUSH4 0x194D8D0B PUSH1 0xE2 SHL SWAP1 MSTORE DUP1 MLOAD DUP1 SWAP4 PUSH1 0x90 DUP5 ADD SWAP3 ADD SWAP2 PUSH2 0xDDE SWAP3 PUSH2 0x1209 JUMP JUMPDEST ADD SWAP2 PUSH1 0x90 DUP4 ADD MSTORE PUSH15 0x2261747472696275746573223A205B PUSH1 0x88 SHL PUSH1 0x93 DUP4 ADD MSTORE PUSH1 0xA2 DUP3 ADD PUSH32 0x7B2274726169745F74797065223A2022476F616C222C202276616C7565223A20 SWAP1 MSTORE PUSH1 0x11 PUSH1 0xF9 SHL PUSH1 0xC2 DUP4 ADD MSTORE MLOAD SWAP2 DUP3 PUSH1 0xC3 DUP4 ADD PUSH2 0xE3E SWAP3 PUSH2 0x1209 JUMP JUMPDEST ADD SWAP1 PUSH4 0x113E961 PUSH1 0xE5 SHL SWAP1 DUP2 PUSH1 0xC3 DUP5 ADD MSTORE PUSH1 0xC7 DUP4 ADD PUSH32 0x7B2274726169745F74797065223A202242616C616E6365222C202276616C7565 SWAP1 MSTORE PUSH4 0x111D1011 PUSH1 0xE1 SHL SWAP3 DUP4 PUSH1 0xE7 DUP3 ADD MSTORE DUP2 MLOAD SWAP2 DUP3 DUP14 PUSH1 0xEB DUP5 ADD SWAP3 ADD SWAP2 PUSH2 0xE9A SWAP3 PUSH2 0x1209 JUMP JUMPDEST ADD SWAP1 PUSH1 0xEB DUP3 ADD MSTORE PUSH1 0xEF DUP2 ADD PUSH32 0x7B2274726169745F74797065223A20224D61747572697479222C202264697370 SWAP1 MSTORE PUSH2 0x10F DUP2 ADD PUSH32 0x6C61795F74797065223A202264617465222C202276616C7565223A2000000000 SWAP1 MSTORE DUP3 MLOAD SWAP1 PUSH2 0x12B SWAP4 DUP3 DUP13 DUP7 DUP5 ADD SWAP3 ADD SWAP2 PUSH2 0xF08 SWAP3 PUSH2 0x1209 JUMP JUMPDEST ADD SWAP2 DUP3 ADD PUSH3 0x3E961 PUSH1 0xED SHL SWAP1 MSTORE PUSH2 0x12E DUP3 ADD PUSH32 0x7B2274726169745F74797065223A202256657273696F6E222C202276616C7565 SWAP1 MSTORE PUSH2 0x14E DUP3 ADD MSTORE DUP2 MLOAD SWAP1 PUSH2 0x152 SWAP3 DUP3 DUP11 DUP6 DUP5 ADD SWAP3 ADD SWAP2 PUSH2 0xF5B SWAP3 PUSH2 0x1209 JUMP JUMPDEST ADD SWAP1 PUSH2 0x227D PUSH1 0xF0 SHL SWAP1 DUP3 ADD MSTORE PUSH2 0x154 DUP2 ADD PUSH2 0x5D7D PUSH1 0xF0 SHL SWAP1 MSTORE SUB PUSH2 0x136 DUP2 ADD DUP5 MSTORE PUSH2 0x156 ADD PUSH2 0xF8A SWAP1 DUP5 PUSH2 0x11CB JUMP JUMPDEST DUP4 MLOAD SWAP2 PUSH2 0xF96 DUP4 PUSH2 0x1199 JUMP JUMPDEST DUP5 DUP4 MSTORE DUP6 DUP4 ADD MSTORE DUP4 DUP3 ADD MSTORE PUSH2 0xFAA SWAP2 PUSH2 0x1281 JUMP JUMPDEST SWAP2 DUP2 MLOAD SWAP1 DUP2 DUP2 DUP2 ADD SWAP5 PUSH32 0x646174613A6170706C69636174696F6E2F6A736F6E3B6261736536342C000000 DUP7 MSTORE DUP1 MLOAD SWAP1 DUP2 DUP5 PUSH1 0x3D DUP6 ADD SWAP3 ADD SWAP2 PUSH2 0xFEB SWAP3 PUSH2 0x1209 JUMP JUMPDEST DUP2 ADD SUB PUSH1 0x1D DUP2 ADD DUP4 MSTORE PUSH1 0x3D ADD PUSH2 0x1001 SWAP1 DUP4 PUSH2 0x11CB JUMP JUMPDEST DUP3 MLOAD SWAP4 DUP5 SWAP3 DUP3 DUP5 MSTORE MLOAD DUP1 SWAP3 DUP5 ADD MSTORE DUP2 DUP5 DUP5 ADD PUSH2 0x101C SWAP3 PUSH2 0x1209 JUMP JUMPDEST PUSH1 0x1F ADD PUSH1 0x1F NOT AND DUP2 ADD SUB ADD SWAP1 RETURN JUMPDEST PUSH1 0x1 DUP8 SWAP5 SWAP8 ADD DUP1 SWAP5 GT PUSH2 0x1048 JUMPI POP SWAP2 SWAP5 SWAP2 POP DUP4 SWAP1 POP DUP3 PUSH2 0x21F PUSH2 0x209 JUMP JUMPDEST PUSH4 0x4E487B71 PUSH1 0xE0 SHL DUP3 MSTORE PUSH1 0x11 SWAP1 MSTORE REVERT JUMPDEST POP PUSH4 0x4E487B71 PUSH1 0xE0 SHL DUP2 MSTORE PUSH1 0x11 DUP8 MSTORE REVERT JUMPDEST PUSH1 0x8 NOT DUP2 ADD SWAP1 DUP2 GT PUSH2 0x1058 JUMPI SWAP7 PUSH2 0x1FF JUMP JUMPDEST POP POP PUSH4 0x4E487B71 PUSH1 0xE0 SHL DUP2 MSTORE PUSH1 0x11 DUP8 MSTORE REVERT JUMPDEST PUSH4 0x4E487B71 PUSH1 0xE0 SHL DUP6 MSTORE PUSH1 0x11 DUP10 MSTORE DUP4 DUP6 REVERT JUMPDEST PUSH4 0x4E487B71 PUSH1 0xE0 SHL DUP7 MSTORE PUSH1 0x11 DUP10 MSTORE DUP5 DUP7 REVERT JUMPDEST POP PUSH4 0x4E487B71 PUSH1 0xE0 SHL DUP3 MSTORE PUSH1 0x11 DUP6 MSTORE SWAP1 REVERT JUMPDEST DUP8 MLOAD SWAP2 SWAP10 POP DUP2 DUP9 ADD SWAP1 DUP2 GT DUP3 DUP3 LT OR PUSH2 0x117F JUMPI SWAP1 DUP9 SWAP2 DUP9 MSTORE PUSH1 0xC DUP1 DUP3 MSTORE DUP3 DUP3 ADD SWAP1 DUP4 CALLDATASIZE DUP4 CALLDATACOPY DUP9 JUMPDEST DUP2 DUP2 LT PUSH2 0x1130 JUMPI POP POP PUSH2 0x1129 SWAP2 PUSH1 0x23 SWAP2 PUSH2 0x110E DUP12 MLOAD SWAP6 DUP7 SWAP4 MLOAD SWAP3 DUP4 SWAP2 DUP6 ADD SWAP1 PUSH2 0x1209 JUMP JUMPDEST DUP2 ADD PUSH3 0x171717 PUSH1 0xE9 SHL DUP13 DUP3 ADD MSTORE SUB PUSH1 0x3 DUP2 ADD DUP5 MSTORE ADD DUP3 PUSH2 0x11CB JUMP JUMPDEST SWAP8 CODESIZE PUSH2 0xA7 JUMP JUMPDEST SWAP3 SWAP4 POP SWAP1 SWAP2 PUSH1 0x1 PUSH1 0x1 PUSH1 0xF8 SHL SUB NOT PUSH2 0x1148 DUP3 DUP9 PUSH2 0x14DA JUMP JUMPDEST MLOAD AND DUP10 BYTE PUSH2 0x1156 DUP3 DUP7 PUSH2 0x14DA JUMP JUMPDEST MSTORE8 PUSH1 0x0 NOT DUP2 EQ PUSH2 0x116D JUMPI PUSH1 0x1 ADD SWAP1 DUP11 SWAP4 SWAP3 SWAP2 PUSH2 0x10EA JUMP JUMPDEST PUSH4 0x4E487B71 PUSH1 0xE0 SHL DUP10 MSTORE PUSH1 0x11 DUP6 MSTORE DUP7 DUP10 REVERT JUMPDEST PUSH4 0x4E487B71 PUSH1 0xE0 SHL DUP8 MSTORE PUSH1 0x41 DUP4 MSTORE DUP5 DUP8 REVERT JUMPDEST DUP5 DUP1 REVERT JUMPDEST DUP3 DUP1 REVERT JUMPDEST PUSH1 0x60 DUP2 ADD SWAP1 DUP2 LT PUSH8 0xFFFFFFFFFFFFFFFF DUP3 GT OR PUSH2 0x11B5 JUMPI PUSH1 0x40 MSTORE JUMP JUMPDEST PUSH4 0x4E487B71 PUSH1 0xE0 SHL PUSH1 0x0 MSTORE PUSH1 0x41 PUSH1 0x4 MSTORE PUSH1 0x24 PUSH1 0x0 REVERT JUMPDEST SWAP1 PUSH1 0x1F DUP1 NOT SWAP2 ADD AND DUP2 ADD SWAP1 DUP2 LT PUSH8 0xFFFFFFFFFFFFFFFF DUP3 GT OR PUSH2 0x11B5 JUMPI PUSH1 0x40 MSTORE JUMP JUMPDEST PUSH8 0xFFFFFFFFFFFFFFFF DUP2 GT PUSH2 0x11B5 JUMPI PUSH1 0x1F ADD PUSH1 0x1F NOT AND PUSH1 0x20 ADD SWAP1 JUMP JUMPDEST PUSH1 0x0 JUMPDEST DUP4 DUP2 LT PUSH2 0x121C JUMPI POP POP PUSH1 0x0 SWAP2 ADD MSTORE JUMP JUMPDEST DUP2 DUP2 ADD MLOAD DUP4 DUP3 ADD MSTORE PUSH1 0x20 ADD PUSH2 0x120C JUMP JUMPDEST SWAP2 SWAP1 DUP3 ADD DUP1 SWAP3 GT PUSH2 0x1239 JUMPI JUMP JUMPDEST PUSH4 0x4E487B71 PUSH1 0xE0 SHL PUSH1 0x0 MSTORE PUSH1 0x11 PUSH1 0x4 MSTORE PUSH1 0x24 PUSH1 0x0 REVERT JUMPDEST SWAP1 PUSH2 0x1259 DUP3 PUSH2 0x11ED JUMP JUMPDEST PUSH2 0x1266 PUSH1 0x40 MLOAD SWAP2 DUP3 PUSH2 0x11CB JUMP JUMPDEST DUP3 DUP2 MSTORE DUP1 SWAP3 PUSH2 0x1277 PUSH1 0x1F NOT SWAP2 PUSH2 0x11ED JUMP JUMPDEST ADD SWAP1 PUSH1 0x20 CALLDATASIZE SWAP2 ADD CALLDATACOPY JUMP JUMPDEST DUP1 MLOAD ISZERO PUSH2 0x1364 JUMPI DUP1 MLOAD PUSH1 0x2 SWAP2 DUP3 DUP3 ADD DUP1 SWAP3 GT PUSH2 0x1239 JUMPI PUSH1 0x3 SWAP2 DUP3 SWAP1 DIV PUSH1 0x1 PUSH1 0x1 PUSH1 0xFE SHL SUB DUP2 AND DUP2 SUB PUSH2 0x1239 JUMPI PUSH2 0x12BA SWAP1 DUP5 SWAP6 SWAP5 SHL PUSH2 0x124F JUMP JUMPDEST SWAP4 PUSH1 0x20 DUP6 ADD SWAP4 DUP3 SWAP2 DUP4 MLOAD DUP5 ADD SWAP1 PUSH1 0x20 DUP3 ADD SWAP3 DUP4 MLOAD SWAP5 PUSH1 0x0 DUP6 MSTORE JUMPDEST DUP4 DUP2 LT PUSH2 0x1313 JUMPI POP POP POP POP MSTORE MLOAD MOD DUP1 PUSH1 0x1 EQ PUSH2 0x1300 JUMPI PUSH1 0x2 EQ PUSH2 0x12F5 JUMPI POP SWAP1 JUMP JUMPDEST PUSH1 0x3D SWAP1 PUSH1 0x0 NOT ADD MSTORE8 SWAP1 JUMP JUMPDEST POP PUSH1 0x3D SWAP1 DUP2 PUSH1 0x0 NOT DUP3 ADD MSTORE8 PUSH1 0x1 NOT ADD MSTORE8 SWAP1 JUMP JUMPDEST DUP8 PUSH1 0x4 SWAP2 SWAP10 SWAP3 SWAP4 SWAP5 SWAP10 ADD SWAP2 DUP3 MLOAD PUSH1 0x1 SWAP1 PUSH1 0x3F SWAP1 DUP3 DUP3 DUP3 PUSH1 0x12 SHR AND DUP9 ADD ADD MLOAD DUP5 MSTORE8 DUP3 DUP3 DUP3 PUSH1 0xC SHR AND DUP9 ADD ADD MLOAD DUP4 DUP6 ADD MSTORE8 DUP3 DUP3 DUP3 PUSH1 0x6 SHR AND DUP9 ADD ADD MLOAD DUP9 DUP6 ADD MSTORE8 AND DUP6 ADD ADD MLOAD DUP10 DUP3 ADD MSTORE8 ADD SWAP8 SWAP3 SWAP2 SWAP1 PUSH2 0x12D4 JUMP JUMPDEST POP POP PUSH1 0x40 MLOAD PUSH1 0x20 DUP2 ADD DUP2 DUP2 LT PUSH8 0xFFFFFFFFFFFFFFFF DUP3 GT OR PUSH2 0x11B5 JUMPI PUSH1 0x40 MSTORE PUSH1 0x0 DUP2 MSTORE SWAP1 JUMP JUMPDEST DUP1 PUSH1 0x0 SWAP2 PUSH27 0x184F03E93FF9F4DAA797ED6E38ED64BF6A1F010000000000000000 DUP1 DUP3 LT ISZERO PUSH2 0x14BF JUMPI JUMPDEST POP PUSH14 0x4EE2D6D415B85ACEF8100000000 DUP1 DUP4 LT ISZERO PUSH2 0x14B0 JUMPI JUMPDEST POP PUSH7 0x2386F26FC10000 DUP1 DUP4 LT ISZERO PUSH2 0x14A1 JUMPI JUMPDEST POP PUSH4 0x5F5E100 DUP1 DUP4 LT ISZERO PUSH2 0x1492 JUMPI JUMPDEST POP PUSH2 0x2710 DUP1 DUP4 LT ISZERO PUSH2 0x1483 JUMPI JUMPDEST POP PUSH1 0x64 DUP3 LT ISZERO PUSH2 0x1473 JUMPI JUMPDEST PUSH1 0xA DUP1 SWAP3 LT ISZERO PUSH2 0x1469 JUMPI JUMPDEST PUSH1 0x1 SWAP1 DUP2 PUSH1 0x21 PUSH2 0x1421 DUP3 DUP8 ADD PUSH2 0x124F JUMP JUMPDEST SWAP6 DUP7 ADD ADD SWAP1 JUMPDEST PUSH2 0x1433 JUMPI JUMPDEST POP POP POP POP SWAP1 JUMP JUMPDEST PUSH1 0x0 NOT ADD SWAP1 DUP4 SWAP1 PUSH16 0x181899199A1A9B1B9C1CB0B131B232B3 PUSH1 0x81 SHL DUP3 DUP3 MOD BYTE DUP4 MSTORE8 DIV SWAP2 DUP3 ISZERO PUSH2 0x1464 JUMPI SWAP2 SWAP1 DUP3 PUSH2 0x1427 JUMP JUMPDEST PUSH2 0x142C JUMP JUMPDEST SWAP2 PUSH1 0x1 ADD SWAP2 PUSH2 0x1410 JUMP JUMPDEST SWAP2 SWAP1 PUSH1 0x64 PUSH1 0x2 SWAP2 DIV SWAP2 ADD SWAP2 PUSH2 0x1405 JUMP JUMPDEST PUSH1 0x4 SWAP2 SWAP4 SWAP3 DIV SWAP2 ADD SWAP2 CODESIZE PUSH2 0x13FA JUMP JUMPDEST PUSH1 0x8 SWAP2 SWAP4 SWAP3 DIV SWAP2 ADD SWAP2 CODESIZE PUSH2 0x13ED JUMP JUMPDEST PUSH1 0x10 SWAP2 SWAP4 SWAP3 DIV SWAP2 ADD SWAP2 CODESIZE PUSH2 0x13DE JUMP JUMPDEST PUSH1 0x20 SWAP2 SWAP4 SWAP3 DIV SWAP2 ADD SWAP2 CODESIZE PUSH2 0x13CC JUMP JUMPDEST PUSH1 0x40 SWAP4 POP DUP2 DIV SWAP2 POP CODESIZE PUSH2 0x13B3 JUMP JUMPDEST SWAP2 SWAP1 DUP3 SUB SWAP2 DUP3 GT PUSH2 0x1239 JUMPI JUMP JUMPDEST SWAP1 DUP2 MLOAD DUP2 LT ISZERO PUSH2 0x14EB JUMPI ADD PUSH1 0x20 ADD SWAP1 JUMP JUMPDEST PUSH4 0x4E487B71 PUSH1 0xE0 SHL PUSH1 0x0 MSTORE PUSH1 0x32 PUSH1 0x4 MSTORE PUSH1 0x24 PUSH1 0x0 REVERT INVALID LOG2 PUSH5 0x6970667358 0x22 SLT KECCAK256 0xB2 ISZERO 0xAB 0xC PUSH5 0x77D89984B 0xB4 MSTORE 0xA7 PUSH32 0x993AB1C66EE77CDC43F72CF73BB919AA9F9964736F6C63430008140033000000 "},"methodIdentifiers":{"generateTokenURI(uint256,string,uint256,uint256,uint256)":"4fba954a"}}}}}