{"contracts/VaultFactory.sol":{"VaultFactory":{"abi":[{"inputs":[{"internalType":"address","name":"_usdtToken","type":"address"},{"internalType":"address","name":"_protocolTreasury","type":"address"},{"internalType":"address","name":"_metadata","type":"address"}],"stateMutability":"nonpayable","type":"constructor"},{"inputs":[{"internalType":"uint256","name":"numerator","type":"uint256"},{"internalType":"uint256","name":"denominator","type":"uint256"}],"name":"ERC2981InvalidDefaultRoyalty","type":"error"},{"inputs":[{"internalType":"address","name":"receiver","type":"address"}],"name":"ERC2981InvalidDefaultRoyaltyReceiver","type":"error"},{"inputs":[{"internalType":"uint256","name":"tokenId","type":"uint256"},{"internalType":"uint256","name":"numerator","type":"uint256"},{"internalType":"uint256","name":"denominator","type":"uint256"}],"name":"ERC2981InvalidTokenRoyalty","type":"error"},{"inputs":[{"internalType":"uint256","name":"tokenId","type":"uint256"},{"internalType":"address","name":"receiver","type":"address"}],"name":"ERC2981InvalidTokenRoyaltyReceiver","type":"error"},{"inputs":[{"internalType":"address","name":"sender","type":"address"},{"internalType":"uint256","name":"tokenId","type":"uint256"},{"internalType":"address","name":"owner","type":"address"}],"name":"ERC721IncorrectOwner","type":"error"},{"inputs":[{"internalType":"address","name":"operator","type":"address"},{"internalType":"uint256","name":"tokenId","type":"uint256"}],"name":"ERC721InsufficientApproval","type":"error"},{"inputs":[{"internalType":"address","name":"approver","type":"address"}],"name":"ERC721InvalidApprover","type":"error"},{"inputs":[{"internalType":"address","name":"operator","type":"address"}],"name":"ERC721InvalidOperator","type":"error"},{"inputs":[{"internalType":"address","name":"owner","type":"address"}],"name":"ERC721InvalidOwner","type":"error"},{"inputs":[{"internalType":"address","name":"receiver","type":"address"}],"name":"ERC721InvalidReceiver","type":"error"},{"inputs":[{"internalType":"address","name":"sender","type":"address"}],"name":"ERC721InvalidSender","type":"error"},{"inputs":[{"internalType":"uint256","name":"tokenId","type":"uint256"}],"name":"ERC721NonexistentToken","type":"error"},{"inputs":[{"internalType":"address","name":"owner","type":"address"}],"name":"OwnableInvalidOwner","type":"error"},{"inputs":[{"internalType":"address","name":"account","type":"address"}],"name":"OwnableUnauthorizedAccount","type":"error"},{"inputs":[{"internalType":"address","name":"token","type":"address"}],"name":"SafeERC20FailedOperation","type":"error"},{"anonymous":false,"inputs":[{"indexed":true,"internalType":"address","name":"owner","type":"address"},{"indexed":true,"internalType":"address","name":"approved","type":"address"},{"indexed":true,"internalType":"uint256","name":"tokenId","type":"uint256"}],"name":"Approval","type":"event"},{"anonymous":false,"inputs":[{"indexed":true,"internalType":"address","name":"owner","type":"address"},{"indexed":true,"internalType":"address","name":"operator","type":"address"},{"indexed":false,"internalType":"bool","name":"approved","type":"bool"}],"name":"ApprovalForAll","type":"event"},{"anonymous":false,"inputs":[{"indexed":true,"internalType":"address","name":"previousOwner","type":"address"},{"indexed":true,"internalType":"address","name":"newOwner","type":"address"}],"name":"OwnershipTransferred","type":"event"},{"anonymous":false,"inputs":[{"indexed":true,"internalType":"address","name":"vaultAddress","type":"address"},{"indexed":true,"internalType":"address","name":"owner","type":"address"},{"indexed":true,"internalType":"uint256","name":"tokenId","type":"uint256"},{"indexed":false,"internalType":"string","name":"purpose","type":"string"},{"indexed":false,"internalType":"uint256","name":"unlockTime","type":"uint256"}],"name":"PersonalVaultCreated","type":"event"},{"anonymous":false,"inputs":[{"indexed":true,"internalType":"address","name":"from","type":"address"},{"indexed":true,"internalType":"address","name":"to","type":"address"},{"indexed":true,"internalType":"uint256","name":"tokenId","type":"uint256"}],"name":"Transfer","type":"event"},{"inputs":[{"internalType":"uint256","name":"","type":"uint256"}],"name":"allVaults","outputs":[{"internalType":"address","name":"","type":"address"}],"stateMutability":"view","type":"function"},{"inputs":[{"internalType":"address","name":"to","type":"address"},{"internalType":"uint256","name":"tokenId","type":"uint256"}],"name":"approve","outputs":[],"stateMutability":"nonpayable","type":"function"},{"inputs":[{"internalType":"address","name":"owner","type":"address"}],"name":"balanceOf","outputs":[{"internalType":"uint256","name":"","type":"uint256"}],"stateMutability":"view","type":"function"},{"inputs":[{"internalType":"uint256","name":"tokenId","type":"uint256"}],"name":"burnVaultNFT","outputs":[],"stateMutability":"nonpayable","type":"function"},{"inputs":[{"internalType":"string","name":"_purpose","type":"string"},{"internalType":"uint256","name":"_unlockTimestamp","type":"uint256"},{"internalType":"uint256","name":"_penaltyBps","type":"uint256"},{"internalType":"uint256","name":"_initialDeposit","type":"uint256"},{"internalType":"address","name":"_beneficiary","type":"address"}],"name":"createPersonalVault","outputs":[{"internalType":"address","name":"","type":"address"}],"stateMutability":"nonpayable","type":"function"},{"inputs":[{"internalType":"address","name":"_vault","type":"address"},{"internalType":"uint256","name":"_amount","type":"uint256"}],"name":"executeAutoDeposit","outputs":[],"stateMutability":"nonpayable","type":"function"},{"inputs":[],"name":"getAllVaults","outputs":[{"internalType":"address[]","name":"","type":"address[]"}],"stateMutability":"view","type":"function"},{"inputs":[{"internalType":"uint256","name":"tokenId","type":"uint256"}],"name":"getApproved","outputs":[{"internalType":"address","name":"","type":"address"}],"stateMutability":"view","type":"function"},{"inputs":[{"internalType":"address","name":"_user","type":"address"}],"name":"getUserVaults","outputs":[{"internalType":"address[]","name":"","type":"address[]"}],"stateMutability":"view","type":"function"},{"inputs":[{"internalType":"address","name":"owner","type":"address"},{"internalType":"address","name":"operator","type":"address"}],"name":"isApprovedForAll","outputs":[{"internalType":"bool","name":"","type":"bool"}],"stateMutability":"view","type":"function"},{"inputs":[{"internalType":"address","name":"","type":"address"}],"name":"isVault","outputs":[{"internalType":"bool","name":"","type":"bool"}],"stateMutability":"view","type":"function"},{"inputs":[{"internalType":"uint256","name":"","type":"uint256"}],"name":"lastUpdate","outputs":[{"internalType":"uint256","name":"","type":"uint256"}],"stateMutability":"view","type":"function"},{"inputs":[],"name":"metadataGenerator","outputs":[{"internalType":"address","name":"","type":"address"}],"stateMutability":"view","type":"function"},{"inputs":[],"name":"name","outputs":[{"internalType":"string","name":"","type":"string"}],"stateMutability":"view","type":"function"},{"inputs":[{"internalType":"uint256","name":"_tokenId","type":"uint256"}],"name":"notifyUpdate","outputs":[],"stateMutability":"nonpayable","type":"function"},{"inputs":[],"name":"owner","outputs":[{"internalType":"address","name":"","type":"address"}],"stateMutability":"view","type":"function"},{"inputs":[{"internalType":"uint256","name":"tokenId","type":"uint256"}],"name":"ownerOf","outputs":[{"internalType":"address","name":"","type":"address"}],"stateMutability":"view","type":"function"},{"inputs":[],"name":"protocolTreasury","outputs":[{"internalType":"address","name":"","type":"address"}],"stateMutability":"view","type":"function"},{"inputs":[],"name":"renounceOwnership","outputs":[],"stateMutability":"nonpayable","type":"function"},{"inputs":[{"internalType":"uint256","name":"tokenId","type":"uint256"},{"internalType":"uint256","name":"salePrice","type":"uint256"}],"name":"royaltyInfo","outputs":[{"internalType":"address","name":"receiver","type":"address"},{"internalType":"uint256","name":"amount","type":"uint256"}],"stateMutability":"view","type":"function"},{"inputs":[{"internalType":"address","name":"from","type":"address"},{"internalType":"address","name":"to","type":"address"},{"internalType":"uint256","name":"tokenId","type":"uint256"}],"name":"safeTransferFrom","outputs":[],"stateMutability":"nonpayable","type":"function"},{"inputs":[{"internalType":"address","name":"from","type":"address"},{"internalType":"address","name":"to","type":"address"},{"internalType":"uint256","name":"tokenId","type":"uint256"},{"internalType":"bytes","name":"data","type":"bytes"}],"name":"safeTransferFrom","outputs":[],"stateMutability":"nonpayable","type":"function"},{"inputs":[{"internalType":"address","name":"operator","type":"address"},{"internalType":"bool","name":"approved","type":"bool"}],"name":"setApprovalForAll","outputs":[],"stateMutability":"nonpayable","type":"function"},{"inputs":[{"internalType":"bytes4","name":"interfaceId","type":"bytes4"}],"name":"supportsInterface","outputs":[{"internalType":"bool","name":"","type":"bool"}],"stateMutability":"view","type":"function"},{"inputs":[],"name":"symbol","outputs":[{"internalType":"string","name":"","type":"string"}],"stateMutability":"view","type":"function"},{"inputs":[{"internalType":"uint256","name":"tokenId","type":"uint256"}],"name":"tokenURI","outputs":[{"internalType":"string","name":"","type":"string"}],"stateMutability":"view","type":"function"},{"inputs":[{"internalType":"address","name":"from","type":"address"},{"internalType":"address","name":"to","type":"address"},{"internalType":"uint256","name":"tokenId","type":"uint256"}],"name":"transferFrom","outputs":[],"stateMutability":"nonpayable","type":"function"},{"inputs":[{"internalType":"address","name":"newOwner","type":"address"}],"name":"transferOwnership","outputs":[],"stateMutability":"nonpayable","type":"function"},{"inputs":[{"internalType":"address","name":"_vault","type":"address"}],"name":"triggerBeneficiaryClaim","outputs":[],"stateMutability":"nonpayable","type":"function"},{"inputs":[{"internalType":"address","name":"_newMetadata","type":"address"}],"name":"updateMetadataGenerator","outputs":[],"stateMutability":"nonpayable","type":"function"},{"inputs":[],"name":"usdtToken","outputs":[{"internalType":"address","name":"","type":"address"}],"stateMutability":"view","type":"function"},{"inputs":[{"internalType":"address","name":"","type":"address"},{"internalType":"uint256","name":"","type":"uint256"}],"name":"userVaults","outputs":[{"internalType":"address","name":"","type":"address"}],"stateMutability":"view","type":"function"},{"inputs":[{"internalType":"uint256","name":"","type":"uint256"}],"name":"vaultAddress","outputs":[{"internalType":"address","name":"","type":"address"}],"stateMutability":"view","type":"function"}],"evm":{"bytecode":{"linkReferences":{},"object":"60a0346200050257601f1962003da638819003601f81810184168501946001600160401b0393919290918287108588111762000259578160609284926040998a528339810103126200050257620000568162000527565b9060209262000074876200006c86850162000527565b930162000527565b956200007f62000507565b91601383527f5361766971756520536176696e6773204e46540000000000000000000000000086840152620000b362000507565b926005845264534156495160d81b87850152805188811162000259576002546001928382811c92168015620004f7575b8a8310146200040d578185849311620004a0575b5089908583116001146200043a576000926200042e575b5050600019600383901b1c191690821b176002555b835191888311620002595760039485548381811c9116801562000423575b8a8210146200040d57828111620003c2575b50889184116001146200035d578394509083929160009462000351575b50501b9160001990841b1c19161790555b33156200033957600880546001600160a01b031980821633908117909355885190936001600160a01b0393909284167f8be0079c531659141344cd1fd0a4f28419497f9722a3daafe3b4186f6b6457e0600080a382851615620002f757508116958615620002b357169182156200026f5760805284816009541617600955600a541617600a5583518481019281841090841117620002595791845282825260fa910152607d60a11b176000555161386990816200053d82396080518181816105ea01528181610ea7015281816110f9015261145a0152f35b634e487b7160e01b600052604160045260246000fd5b865162461bcd60e51b815260048101859052601860248201527f496e76616c6964206d65746164617461206164647265737300000000000000006044820152606490fd5b875162461bcd60e51b815260048101869052601860248201527f496e76616c6964207472656173757279206164647265737300000000000000006044820152606490fd5b62461bcd60e51b815260048101869052601460248201527f496e76616c6964205553445420616464726573730000000000000000000000006044820152606490fd5b8551631e4fbdf760e01b815260006004820152602490fd5b01519250388062000170565b91938316918560005283896000209360005b8b88838310620003aa575050501062000391575b505050811b01905562000181565b015160001983861b60f8161c1916905538808062000383565b8686015188559096019594850194879350016200036f565b86600052896000208380870160051c8201928c881062000403575b0160051c019084905b828110620003f657505062000153565b60008155018490620003e6565b92508192620003dd565b634e487b7160e01b600052602260045260246000fd5b90607f169062000141565b0151905038806200010e565b90868594169160026000528b6000209260005b8d8282106200048957505084116200046f575b505050811b0160025562000123565b015160001960f88460031b161c1916905538808062000460565b83850151865588979095019493840193016200044d565b9091506002600052896000208580850160051c8201928c8610620004ed575b918691869594930160051c01915b828110620004dd575050620000f7565b60008155859450869101620004cd565b92508192620004bf565b91607f1691620000e3565b600080fd5b60408051919082016001600160401b038111838210176200025957604052565b51906001600160a01b0382168203620005025756fe60808060405260043610156200001457600080fd5b600090813560e01c90816301ffc9a714620019ac5750806306fdde0314620018dd578063081812fc146200189c578063095ea7b314620017ae5780630bc5dec41462001782578063194f5d9f14620017135780631a598ccc146200168e57806323b872dd14620016715780632a55205a14620015c857806339d4ce89146200159d57806342842e0e14620015675780634626836514620013d757806349f411b71462000e005780634be4e91f1462000dcb578063572687b61462000d555780635c6e0e271462000aba5780636352211e1462000a85578063652b9b411462000a4257806370a0823114620009e5578063715018a61462000983578063803db96d14620009585780638da5cb5b146200092d5780639094a91e14620008ce57806395d89b4114620007b057806397331bf9146200072a5780639c841fef14620006c8578063a22cb4651462000619578063a98ad46c14620005d2578063b88d4fde1462000550578063c87b56dd1462000332578063e7f3c69c146200029c578063e985e9c514620002425763f2fde38b14620001ae57600080fd5b346200023f5760203660031901126200023f57620001cb62001a88565b620001d562001bfb565b6001600160a01b039081169081156200022657600854826001600160601b0360a01b821617600855167f8be0079c531659141344cd1fd0a4f28419497f9722a3daafe3b4186f6b6457e0600080a380f35b604051631e4fbdf760e01b815260048101849052602490fd5b80fd5b50346200023f5760403660031901126200023f576200026062001a88565b60406200026c62001a9f565b9260018060a01b0380931681526007602052209116600052602052602060ff604060002054166040519015158152f35b50346200023f576020806003193601126200032e576001600160a01b039182620002c562001a88565b168152600f82526040812092604051908193808654938481520195845280842093915b8383106200031457620003108662000303818a038262001b20565b6040519182918262001bb5565b0390f35b8454811687529581019560019485019490920191620002e8565b5080fd5b50346200023f576020806003193601126200032e57600435620003558162001ef9565b50808352600d825260408084205490516370740aab60e01b81526001600160a01b03918216929185918281600481885afa9081156200054557839162000527575b506040516278744560e21b8152938685600481895afa948515620004e15787908596620004ec575b5060405163aa082a9d60e01b81529596869060049082905afa948515620004e15784956200049e575b50839495816200042c9552600e8852604086205493600a541693604051978896879586956327dd4aa560e11b8752600487015260a0602487015260a486019062001a61565b9260448501526064840152608483015203915afa9283156200049257809362000468575b50506200031060405192828493845283019062001a61565b620004899293503d8091833e62000480818362001b20565b81019062002181565b90388062000450565b604051903d90823e3d90fd5b87809296508195503d8311620004d9575b620004bb818362001b20565b81010312620004d45786936200042c93519493620003e7565b600080fd5b503d620004af565b6040513d86823e3d90fd5b945090945083813d83116200051f575b62000508818362001b20565b81010312620004d4576004938688945195620003be565b503d620004fc565b6200053e91503d8085833e62000480818362001b20565b3862000396565b6040513d85823e3d90fd5b50346200023f5760803660031901126200023f576200056e62001a88565b6200057862001a9f565b906044356064359267ffffffffffffffff8411620005ce5736602385011215620005ce57620005b6620005cb94369060248160040135910162001b60565b92620005c483838362001c28565b3362001f35565b80f35b8480fd5b50346200023f57806003193601126200023f576040517f00000000000000000000000000000000000000000000000000000000000000006001600160a01b03168152602090f35b50346200023f5760403660031901126200023f576200063762001a88565b60243590811515809203620006c4576001600160a01b0316908115620006ab5733835260076020526040832082600052602052604060002060ff1981541660ff83161790556040519081527f17307eab39ab6107e8899845ad3d59bd9653f200f220920489ca2b5937696c3160203392a380f35b604051630b61174360e31b815260048101839052602490fd5b8280fd5b50346200023f5760403660031901126200023f57620006e662001a88565b6001600160a01b039081168252600f60205260408220805460243593908410156200023f57506020926200071a9162001b9c565b9190546040519260031b1c168152f35b50346200023f57806003193601126200023f57604051600b80548083529083526020808301937f0175b7a638427703f0dbe7bb9bbf987a2551717b34e79f33b5b1008d1fa01db992915b8282106200078f576200031085620003038189038262001b20565b83546001600160a01b03168652948501946001938401939091019062000774565b50346200023f57806003193601126200023f57604051908060035491600183811c92818516948515620008c3575b6020958686108114620008af578588528794939291879082156200088b5750506001146200082d575b5050620008179250038362001b20565b6200031060405192828493845283019062001a61565b90859250600382527fc2575a0e9e593c00f959f8c92f12db2869c3395a3b0502d05e2516446f71f85b5b85831062000872575050620008179350820101388062000807565b8054838901850152879450869390920191810162000857565b92509350506200081794915060ff191682840152151560051b820101388062000807565b634e487b7160e01b83526022600452602483fd5b93607f1693620007de565b50346200023f5760203660031901126200023f57600435600b548110156200032e57600b6000527f0175b7a638427703f0dbe7bb9bbf987a2551717b34e79f33b5b1008d1fa01db901546040516001600160a01b039091168152602090f35b50346200023f57806003193601126200023f576008546040516001600160a01b039091168152602090f35b50346200023f57806003193601126200023f576009546040516001600160a01b039091168152602090f35b50346200023f57806003193601126200023f57620009a062001bfb565b600880546001600160a01b031981169091556000906001600160a01b03167f8be0079c531659141344cd1fd0a4f28419497f9722a3daafe3b4186f6b6457e08280a380f35b50346200023f5760203660031901126200023f576001600160a01b0362000a0b62001a88565b16801562000a29578160409160209352600583522054604051908152f35b6040516322718ad960e21b815260048101839052602490fd5b50346200023f5760203660031901126200023f5760209060ff906040906001600160a01b0362000a7162001a88565b168152600c84522054166040519015158152f35b50346200023f5760203660031901126200023f57602062000aa860043562001ef9565b6040516001600160a01b039091168152f35b50346200023f576020806003193601126200032e57600435808352600d825260408320546001600160a01b0392908316913383900362000d1057806000526004825283604060002054169283158015958662000cdc575b83600052600485526040600020956001600160601b0360a01b96878154169055846000827fddf252ad1be2c89b69c2b068fc378daa952ba7f163c4a11628f55a4df523b3ef8280a4600d865281604060002054169762000bb9575b505090919293945062000ba05790600d92918552600c82526040852060ff1981541690558452526040822090815416905580f35b604051637e27328960e01b815260048101839052602490fd5b600052600f855260406000209060005b82548082101562000ccc5782908a62000be3848762001b9c565b939054600394851b1c161462000c0657505062000c009062002098565b62000bc9565b909293949596979899506000199384820191821162000cb65762000c619362000c3462000c42938862001b9c565b9054911b1c16918562001b9c565b90919082549060031b9160018060a01b03809116831b921b1916179055565b8154801562000ca057019062000c9162000c7c838362001b9c565b81549060018060a01b039060031b1b19169055565b555b9084939291388062000b6c565b634e487b7160e01b600052603160045260246000fd5b634e487b7160e01b600052601160045260246000fd5b5050505090919293945062000c93565b60008481526006602052604080822080546001600160a01b0319169055878252600587529020805460001901905562000b11565b60405162461bcd60e51b815260048101839052601b60248201527f4f6e6c79207661756c742063616e206275726e20697473204e465400000000006044820152606490fd5b50346200023f5760203660031901126200023f57600435808252600d60205260408220546001600160a01b0316330362000d99578152600e60205242604082205580f35b60405162461bcd60e51b815260206004820152600a60248201526913db9b1e481d985d5b1d60b21b6044820152606490fd5b50346200023f5760203660031901126200023f576020906004358152600d8252604060018060a01b0391205416604051908152f35b50346200023f5760a03660031901126200023f5767ffffffffffffffff906004358281116200032e57366023820112156200032e5762000e4b90369060248160040135910162001b60565b6084356001600160a01b0381169190829003620004d4576010549162000e718362002098565b6010556009546040516001600160a01b039190911695909161164680840192831184841017620013c35790839291620021ee84397f00000000000000000000000000000000000000000000000000000000000000006001600160a01b0316825260e06020830181905260c09062000eeb9084018762001a61565b92876040820152602435998a6060830152604435608083015260a08201520152039084f09283156200049257600b54600160401b811015620013ad576001810180600b558110156200139757600b6000527f0175b7a638427703f0dbe7bb9bbf987a2551717b34e79f33b5b1008d1fa01db90180546001600160a01b0386166001600160a01b03199182168117909255848352600d602090815260408085208054841685179055928452600c9052818320805460ff191660011790559051919062000fb68362001b03565b81835233156200137e576000858152600460205260409020546001600160a01b0316908162001346575b33600052600560205260406000206001815401905585600052600460205260406000209033908254161790558433827fddf252ad1be2c89b69c2b068fc378daa952ba7f163c4a11628f55a4df523b3ef600080a4600d6020526040600020546001600160a01b03168162001269575b620010689033600052600f6020526040600020620020a8565b620012515750333b62001126575b5060209360643580620010e4575b506200109c6040519260408452604084019062001a61565b90858301527fe4f1945b022cc1d9d36482c2ee2225ba599106deebb0863a97248011337cd36b33928060018060a01b038716930390a46040516001600160a01b039091168152f35b6200111f906001600160a01b038681169033907f000000000000000000000000000000000000000000000000000000000000000016620020d1565b3862001084565b6040516020818062001162630a85bd0160e11b958683523360048401526000602484015288604484015260806064840152608483019062001a61565b03816000335af1809160009162001207575b5090620011d7573d15620011cf573d6200118e8162001b43565b906200119e604051928362001b20565b81523d6000602083013e5b80519081620011ca57604051633250574960e11b8152336004820152602490fd5b602001fd5b6060620011a9565b6001600160e01b03191603620011ef57602062001076565b604051633250574960e11b8152336004820152602490fd5b6020813d60201162001248575b81620012236020938362001b20565b810103126200032e5751906001600160e01b0319821682036200023f57503862001174565b3d915062001214565b602490604051906339e3563760e11b82526004820152fd5b95949392919080600052600f602052604060002060005b81548082101562001332578962001298838562001b9c565b905460039291831b1c6001600160a01b031614620012c3575050620012bd9062002098565b62001280565b909394959697989992916000199485810190811162000cb6576200130792620012f162000c42928662001b9c565b9054911b1c6001600160a01b0316918462001b9c565b805492831562000ca057620010689301906200132862000c7c838362001b9c565b555b90506200104f565b50505090919293949562001068906200132a565b600086815260066020526040902080546001600160a01b03191690558160005260056020526040600020600019815401905562000fe0565b604051633250574960e11b815260048101839052602490fd5b634e487b7160e01b600052603260045260246000fd5b634e487b7160e01b600052604160045260246000fd5b634e487b7160e01b87526041600452602487fd5b50346200023f5760403660031901126200023f57620013f562001a88565b906024356200140362001bfb565b60018060a01b039081841691828452602094600c865260ff604086205416156200152d57948495604051638da5cb5b60e01b81528281600481895afa908115620015225785938892620014d8575b505062001480937f000000000000000000000000000000000000000000000000000000000000000016620020d1565b813b15620014d4578291602483926040519485938492635cdd100960e01b845260048401525af18015620014c957620014b65750f35b620014c19062001aee565b6200023f5780f35b6040513d84823e3d90fd5b5050fd5b819394508092503d83116200151a575b620014f4818362001b20565b8101031262001516575190828216820362001516578391620014803862001451565b8580fd5b503d620014e8565b6040513d89823e3d90fd5b60405162461bcd60e51b8152600481018790526012602482015271139bdd0818481cde5cdd195b481d985d5b1d60721b6044820152606490fd5b50346200023f57620005cb6200157d3662001ab6565b90604051926200158d8462001b03565b858452620005c483838362001c28565b50346200023f57806003193601126200023f57600a546040516001600160a01b039091168152602090f35b50346200023f5760403660031901126200023f576024356004358252600160205260408220549160018060a01b038084169360a01c90841562001657575b506001600160601b031691828102928184041490151715620016435750604080516001600160a01b03939093168352612710909104602083015290f35b634e487b7160e01b81526011600452602490fd5b8254908116945060a01c90506001600160601b0362001606565b50346200023f57620005cb620016873662001ab6565b9162001c28565b50346200023f5760203660031901126200023f57620016ac62001a88565b620016b662001bfb565b6001600160a01b03168015620016dc576001600160601b0360a01b600a541617600a5580f35b60405162461bcd60e51b815260206004820152600f60248201526e496e76616c6964206164647265737360881b6044820152606490fd5b50346200023f5760203660031901126200023f57806200173262001a88565b6200173c62001bfb565b6001600160a01b0316803b156200177f57819060046040518094819363178ea6ad60e01b83525af18015620014c95762001774575080f35b620005cb9062001aee565b50fd5b50346200023f5760203660031901126200023f5760406020916004358152600e83522054604051908152f35b50346200023f5760403660031901126200023f57620017cc62001a88565b602435620017da8162001ef9565b3315158062001888575b806200185c575b62001844576001600160a01b039283169282918491167f8c5be1e5ebec7d5bd14f71427d1e84f3dd0314c0f7b2291e5b200ac8c7c3b9258680a4825260066020526040822080546001600160a01b031916909117905580f35b60405163a9fbf51f60e01b8152336004820152602490fd5b506001600160a01b038116845260076020908152604080862033875290915284205460ff1615620017eb565b506001600160a01b038116331415620017e4565b50346200023f5760203660031901126200023f57602090600435620018c18162001ef9565b50815260068252604060018060a01b0391205416604051908152f35b50346200023f57806003193601126200023f57604051908060025491600183811c92818516948515620019a1575b6020958686108114620008af578588528794939291879082156200088b57505060011462001943575050620008179250038362001b20565b90859250600282527f405787fa12a823e0f2b7631cc41b3ba8828b3321ca811111fa75cd3aa3bb5ace5b85831062001988575050620008179350820101388062000807565b805483890185015287945086939092019181016200196d565b93607f16936200190b565b9050346200032e5760203660031901126200032e5760043563ffffffff60e01b8116809103620006c457602092506380ac58cd60e01b811490811562001a2a575b8115620019fc575b5015158152f35b63152a902d60e11b81149150811562001a18575b5038620019f5565b6301ffc9a760e01b1490503862001a10565b635b5e139f60e01b81149150620019ed565b60005b83811062001a505750506000910152565b818101518382015260200162001a3f565b9060209162001a7c8151809281855285808601910162001a3c565b601f01601f1916010190565b600435906001600160a01b0382168203620004d457565b602435906001600160a01b0382168203620004d457565b6060906003190112620004d4576001600160a01b03906004358281168103620004d457916024359081168103620004d4579060443590565b67ffffffffffffffff8111620013ad57604052565b6020810190811067ffffffffffffffff821117620013ad57604052565b90601f8019910116810190811067ffffffffffffffff821117620013ad57604052565b67ffffffffffffffff8111620013ad57601f01601f191660200190565b92919262001b6e8262001b43565b9162001b7e604051938462001b20565b829481845281830111620004d4578281602093846000960137010152565b8054821015620013975760005260206000200190600090565b6020908160408183019282815285518094520193019160005b82811062001bdd575050505090565b83516001600160a01b03168552938101939281019260010162001bce565b6008546001600160a01b0316330362001c1057565b60405163118cdaa760e01b8152336004820152602490fd5b6001600160a01b0391821692831562001ee057600091818352600493602091858352604092828487205416953315158062001e46575b50861515918262001e12575b898252600581528582208054600190810190915587835289825286832080546001600160a01b0319168c1790559987818a7fddf252ad1be2c89b69c2b068fc378daa952ba7f163c4a11628f55a4df523b3ef8680a4600d82528587842054169362001d1c575b869798999a508291600f9162001cec96979894525220620020a8565b169081840362001cfd575050505050565b516364283d7b60e01b8152938401526024830152604482015260649150fd5b888352600f8252868320838c5b62001d37575b505062001cd0565b81548082101562001e0b57888762001d50848662001b9c565b929054600393841b1c161462001d7457505062001d6d9062002098565b8c62001d29565b9092939495969798999a9b9c9d506000199283810190811162001df8578a62001da8939262000c3462000c42938862001b9c565b8154801562001de55792600f928a959262001cec989795019062001dd162000c7c838362001b9c565b55918c9b9a99508193949897965062001d2f565b634e487b7160e01b865260318d52602486fd5b634e487b7160e01b885260118f52602488fd5b5062001d2f565b600087815260066020526040902080546001600160a01b031916905587825260058152858220805460001901905562001c6a565b8062001e9b575b1562001e5a573862001c5e565b8588868962001e7857916024925191637e27328960e01b8352820152fd5b5163177e802f60e01b815233918101918252602082019290925281906040010390fd5b50338714801562001ec3575b8062001e4d575085815260068252338486832054161462001e4d565b5086815260078252848120338252825260ff858220541662001ea7565b604051633250574960e11b815260006004820152602490fd5b6000818152600460205260409020546001600160a01b031690811562001f1d575090565b60249060405190637e27328960e01b82526004820152fd5b90939192833b62001f48575b5050505050565b604051630a85bd0160e11b8082526001600160a01b03938416600483015295831660248201526044810191909152608060648201529492169260209291859062001f9790608483019062001a61565b039483816000978189895af18691816200204d575b5062002015575050503d6000146200200b573d62001fca8162001b43565b9062001fda604051928362001b20565b81528093823d92013e5b825192836200200657604051633250574960e11b815260048101849052602490fd5b019050fd5b6060925062001fe4565b919450915063ffffffff60e01b1603620020355750388080808062001f41565b60249060405190633250574960e11b82526004820152fd5b9091508481813d831162002090575b62002068818362001b20565b810103126200208c57516001600160e01b0319811681036200208c57903862001fac565b8680fd5b503d6200205c565b600019811462000cb65760010190565b90815491600160401b831015620013ad578262000c42916001620020cf9501815562001b9c565b565b6040516323b872dd60e01b602082019081526001600160a01b039384166024830152938316604482015260648082019590955293845292909160a082019067ffffffffffffffff821183831017620013ad57602092600092604052519082865af11562002175576000513d6200216b57508082163b155b62002151575050565b604051635274afe760e01b81529116600482015260249150fd5b6001141562002148565b6040513d6000823e3d90fd5b602081830312620004d45780519067ffffffffffffffff8211620004d4570181601f82011215620004d4578051620021b98162001b43565b92620021c9604051948562001b20565b81845260208284010111620004d457620021ea916020808501910162001a3c565b9056fe60e060405234620004675762001646803803806200001d816200046c565b928339810160e0828203126200046757620000388262000492565b602083015190916001600160401b03918281116200046757840181601f820112156200046757805183811162000451576200007d601f8201601f19166020016200046c565b928184526020828401011162000467576200009f9160208085019101620004a7565b6040840151606085015190608086015192620000cc60c0620000c460a08a0162000492565b980162000492565b946001600055336080528260a05281519081116200045157600154600181811c9116801562000446575b60208210146200043057601f8111620003ca575b506020601f82116001146200034b5790806000805160206200162683398151915293926000916200033f575b508160011b916000199060031b1c1916176001555b60408051809260208252620001708151809281602086015260208686019101620004a7565b601f01601f19168101030190a26001600160a01b039384168015620002fa5742821115620002b5576127108311620002705760c0526002556003558160018060a01b03199316836004541617600455169060055416176005556040516111599081620004cd82396080518181816045015281816102380152818161032d01528181610446015281816106fc0152818161094b01528181610bc10152610f76015260a051818181608f01528181610281015281816104870152818161077d0152818161098c01528181610b7901528181610cb90152610f41015260c0518181816101a9015281816104020152818161087b01528181610c230152610e5f0152f35b60405162461bcd60e51b815260206004820152601460248201527f496e76616c696420626173697320706f696e74730000000000000000000000006044820152606490fd5b60405162461bcd60e51b815260206004820152601d60248201527f556e6c6f636b2074696d65206d75737420626520696e206675747572650000006044820152606490fd5b60405162461bcd60e51b815260206004820152601560248201527f496e76616c696420746f6b656e206164647265737300000000000000000000006044820152606490fd5b90508201513862000136565b600160005260206000209060005b601f1984168110620003b157509160019160008051602062001626833981519152949382601f1981161062000397575b5050811b016001556200014b565b84015160001960f88460031b161c19169055388062000389565b9091602060018192858801518155019301910162000359565b60016000527fb10e2d527612073b26eecdfd717e6a320cf44b4afac2b0732d9fcbe2b7fa0cf6601f830160051c81016020841062000428575b601f830160051c820181106200041b5750506200010a565b6000815560010162000403565b508062000403565b634e487b7160e01b600052602260045260246000fd5b90607f1690620000f6565b634e487b7160e01b600052604160045260246000fd5b600080fd5b6040519190601f01601f191682016001600160401b038111838210176200045157604052565b51906001600160a01b03821682036200046757565b60005b838110620004bb5750506000910152565b8181015183820152602001620004aa56fe60806040818152600491823610156100dc575b50361561001e57600080fd5b3461002557005b8051348152426020820152600080516020611104833981519152823392a27f00000000000000000000000000000000000000000000000000000000000000006001600160a01b031691823b156100d7576000926024849284519586938492632b9343db60e11b84527f0000000000000000000000000000000000000000000000000000000000000000908401525af19081156100cd57506100c257005b6100cb90610ee6565b005b513d6000823e3d90fd5b600080fd5b600090813560e01c90816301e1d11414610e3457508063178ea6ad14610b9c57806317d70f7c14610b6157806338af3eed14610b385780633ccfd60b1461082c5780635cdd1009146106d357806361d027b3146106a757806370740aab146105655780638da5cb5b14610537578063aa082a9d14610518578063b6b55f2514610379578063c1a287e21461035c578063c45a015514610318578063d0e30db0146101fb578063ecfad9fd146101dc5763fc0c546a036100125790346101d857816003193601126101d857517f00000000000000000000000000000000000000000000000000000000000000006001600160a01b03168152602090f35b5080fd5b5090346101d857816003193601126101d8576020906003549051908152f35b5082816003193601126101d857610210610ff4565b34156102e05782829351348152426020820152600080516020611104833981519152823392a27f00000000000000000000000000000000000000000000000000000000000000006001600160a01b031691823b156102db5783926024849284519586938492632b9343db60e11b84527f0000000000000000000000000000000000000000000000000000000000000000908401525af19081156102d257506102bb575b506001905580f35b6102c490610ee6565b6102cf5780826102b3565b80fd5b513d84823e3d90fd5b505050fd5b606490602084519162461bcd60e51b835282015260126024820152710416d6f756e74206d757374206265203e20360741b6044820152fd5b5090346101d857816003193601126101d857517f00000000000000000000000000000000000000000000000000000000000000006001600160a01b03168152602090f35b5090346101d857816003193601126101d8576020905161012c8152f35b5082346101d85760203660031901126101d857803592610397610f32565b6001600160a01b03906103ad9082163314611017565b6103b5610ff4565b84156104d55781516323b872dd60e01b6020820152336024820152306044820152606480820187905281529460a0860167ffffffffffffffff8111878210176104c05785966104269185527f0000000000000000000000000000000000000000000000000000000000000000611055565b8251908152426020820152600080516020611104833981519152833392a27f00000000000000000000000000000000000000000000000000000000000000001691823b156102db5783926024849284519586938492632b9343db60e11b84527f0000000000000000000000000000000000000000000000000000000000000000908401525af19081156102d257506102bb57506001905580f35b604185634e487b7160e01b6000525260246000fd5b815162461bcd60e51b8152602081850152601d60248201527f416d6f756e74206d7573742062652067726561746572207468616e20300000006044820152606490fd5b5090346101d857816003193601126101d8576020906002549051908152f35b5090346101d857816003193601126101d857602090610554610f32565b90516001600160a01b039091168152f35b50346102cf57806003193601126102cf5781519080600180549081811c91818116801561069d575b602098898510821461068a5750918391899593889586529081600014610669575060011461060e575b50506105c89250959392950382610f10565b82519382859384528251928382860152825b8481106105f857505050828201840152601f01601f19168101030190f35b81810183015188820188015287955082016105da565b8086527fb10e2d527612073b26eecdfd717e6a320cf44b4afac2b0732d9fcbe2b7fa0cf69492508591905b8183106106515750889450508201016105c8386105b6565b85548884018501529485019487945091830191610639565b9150506105c894925060ff191682840152151560051b8201018692386105b6565b634e487b7160e01b875260229052602486fd5b92607f169261058d565b5091346106cf57826003193601126106cf575490516001600160a01b03909116815260209150f35b8280fd5b5090346101d85760203660031901126101d8578235906106f1610ff4565b6001600160a01b03937f0000000000000000000000000000000000000000000000000000000000000000851692338490036107fa5780156107ca57600080516020611104833981519152838697610746610f32565b82519485524260208601521692a261075c610f32565b50823b156102db5783926024849284519586938492632b9343db60e11b84527f0000000000000000000000000000000000000000000000000000000000000000908401525af19081156102d257506107b657506001905580f35b6107bf90610ee6565b6102cf5780386102b3565b506020606492519162461bcd60e51b8352820152600a6024820152690416d6f756e74203e20360b41b6044820152fd5b506020606492519162461bcd60e51b8352820152600c60248201526b4f6e6c7920466163746f727960a01b6044820152fd5b5082346101d857816003193601126101d857610846610f32565b6001600160a01b03939061085d9085163314611017565b610865610ff4565b80516370a0823160e01b815230838201529360207f000000000000000000000000000000000000000000000000000000000000000081876024818685165afa968715610b2e578697610aff575b508615610ac55760025442106109c55786916108f287987f779c86999fb727ca861d0288aa11ed4104347721c571e4f0da5172afb607d8859333906110b1565b8451838152428282015260608682015260086060820152674d4154555249545960c01b60808201527f62116a798bb58cc967874bea4d771de2f9aeec6c64189ff2e5a551072f3106f960a03392a284519283523392a25b7f00000000000000000000000000000000000000000000000000000000000000001691823b156102db5783926024849284519586938492635c6e0e2760e01b84527f0000000000000000000000000000000000000000000000000000000000000000908401525af19081156102d257506102bb57506001905580f35b906003548088029088820403610ab25761271090049081880392888411610a9f578383899a81610a8c575b03610a7a575b505084518381524282820152606086820152600a606082015269115054931657d156125560b21b60808201527f62116a798bb58cc967874bea4d771de2f9aeec6c64189ff2e5a551072f3106f960a03392a284519283528201527f1670585e36568ede58d159518ce92cad99f75ad41c7d8281df3dd4eaa0c855d0833392a2610949565b610a859133906110b1565b88836109f6565b610a9a82898c5416866110b1565b6109f0565b634e487b7160e01b885260118752602488fd5b634e487b7160e01b875260118652602487fd5b835162461bcd60e51b815280860183905260146024820152734e6f2066756e647320746f20776974686472617760601b6044820152606490fd5b9096508181813d8311610b27575b610b178183610f10565b810103126100d7575195876108b2565b503d610b0d565b84513d88823e3d90fd5b5090346101d857816003193601126101d85760055490516001600160a01b039091168152602090f35b5090346101d857816003193601126101d857602090517f00000000000000000000000000000000000000000000000000000000000000008152f35b5090346101d857816003193601126101d857610bb6610ff4565b6001600160a01b03927f0000000000000000000000000000000000000000000000000000000000000000841633819003610dfc5784600554168015610dc45760025461012c8101809111610db157421115610d765783516370a0823160e01b8152308482015260209690917f000000000000000000000000000000000000000000000000000000000000000088846024818685165afa938415610d6c578894610d39575b508315610d025791610c9084899a937f735e2ef7d759ed5edc5b5cfd70bd63f00eddd61e652119b1825287362957ad59956110b1565b60055416928651908152a2803b156102db576024849284519586938492635c6e0e2760e01b84527f0000000000000000000000000000000000000000000000000000000000000000908401525af19081156102d25750610cf3575b506001815580f35b610cfc90610ee6565b38610ceb565b865162461bcd60e51b81528087018a905260116024820152704e6f2066756e647320746f20636c61696d60781b6044820152606490fd5b9093508881813d8311610d65575b610d518183610f10565b81010312610d6157519238610c5a565b8780fd5b503d610d47565b87513d8a823e3d90fd5b835162461bcd60e51b8152602081850152601560248201527423b930b1b2903832b934b7b2103737ba1037bb32b960591b6044820152606490fd5b634e487b7160e01b865260118452602486fd5b835162461bcd60e51b81526020818501526012602482015271139bc818995b99599a58da585c9e481cd95d60721b6044820152606490fd5b506020606492519162461bcd60e51b8352820152601260248201527127b7363c903330b1ba37b93c9030b236b4b760711b6044820152fd5b9050828434610ee25783600319360112610ee2576370a0823160e01b835230908301526020826024817f00000000000000000000000000000000000000000000000000000000000000006001600160a01b03165afa918215610ed8578392610ea1575b6020838351908152f35b9091506020813d8211610ed0575b81610ebc60209383610f10565b810103126106cf5760209250519083610e97565b3d9150610eaf565b81513d85823e3d90fd5b8380fd5b67ffffffffffffffff8111610efa57604052565b634e487b7160e01b600052604160045260246000fd5b90601f8019910116810190811067ffffffffffffffff821117610efa57604052565b6040516331a9108f60e11b81527f000000000000000000000000000000000000000000000000000000000000000060048201526001600160a01b03906020816024817f000000000000000000000000000000000000000000000000000000000000000086165afa908115610fe857600091610fae575b50905090565b6020813d8211610fe0575b81610fc660209383610f10565b810103126101d8575191821682036102cf57508038610fa8565b3d9150610fb9565b6040513d6000823e3d90fd5b600260005414611005576002600055565b604051633ee5aeb560e01b8152600490fd5b1561101e57565b60405162461bcd60e51b815260206004820152600f60248201526e2737ba103b30bab63a1037bbb732b960891b6044820152606490fd5b906000602091828151910182855af115610fe8576000513d6110a857506001600160a01b0381163b155b6110865750565b604051635274afe760e01b81526001600160a01b039091166004820152602490fd5b6001141561107f565b60405163a9059cbb60e01b60208201526001600160a01b039092166024830152604480830193909352918152608081019167ffffffffffffffff831182841017610efa5761110192604052611055565b56fe73a19dd210f1a7f902193214c0ee91dd35ee5b4d920cba8d519eca65a7b488caa2646970667358221220319bfb9d6b0a7b7e531d2a6d8ae9e59e8d48e079a47c7b449ee5e9bf43c2484064736f6c63430008140033ec48e1201c49ef81c247fd0daa503bbd0deadd1faf3aa161f60cd504debfe6caa2646970667358221220c6cc66158d07e270981b5fe320c1554e43421123c51dbec2daeff3ae40ed974464736f6c63430008140033","opcodes":"PUSH1 0xA0 CALLVALUE PUSH3 0x502 JUMPI PUSH1 0x1F NOT PUSH3 0x3DA6 CODESIZE DUP2 SWAP1 SUB PUSH1 0x1F DUP2 DUP2 ADD DUP5 AND DUP6 ADD SWAP5 PUSH1 0x1 PUSH1 0x1 PUSH1 0x40 SHL SUB SWAP4 SWAP2 SWAP3 SWAP1 SWAP2 DUP3 DUP8 LT DUP6 DUP9 GT OR PUSH3 0x259 JUMPI DUP2 PUSH1 0x60 SWAP3 DUP5 SWAP3 PUSH1 0x40 SWAP10 DUP11 MSTORE DUP4 CODECOPY DUP2 ADD SUB SLT PUSH3 0x502 JUMPI PUSH3 0x56 DUP2 PUSH3 0x527 JUMP JUMPDEST SWAP1 PUSH1 0x20 SWAP3 PUSH3 0x74 DUP8 PUSH3 0x6C DUP7 DUP6 ADD PUSH3 0x527 JUMP JUMPDEST SWAP4 ADD PUSH3 0x527 JUMP JUMPDEST SWAP6 PUSH3 0x7F PUSH3 0x507 JUMP JUMPDEST SWAP2 PUSH1 0x13 DUP4 MSTORE PUSH32 0x5361766971756520536176696E6773204E465400000000000000000000000000 DUP7 DUP5 ADD MSTORE PUSH3 0xB3 PUSH3 0x507 JUMP JUMPDEST SWAP3 PUSH1 0x5 DUP5 MSTORE PUSH5 0x5341564951 PUSH1 0xD8 SHL DUP8 DUP6 ADD MSTORE DUP1 MLOAD DUP9 DUP2 GT PUSH3 0x259 JUMPI PUSH1 0x2 SLOAD PUSH1 0x1 SWAP3 DUP4 DUP3 DUP2 SHR SWAP3 AND DUP1 ISZERO PUSH3 0x4F7 JUMPI JUMPDEST DUP11 DUP4 LT EQ PUSH3 0x40D JUMPI DUP2 DUP6 DUP5 SWAP4 GT PUSH3 0x4A0 JUMPI JUMPDEST POP DUP10 SWAP1 DUP6 DUP4 GT PUSH1 0x1 EQ PUSH3 0x43A JUMPI PUSH1 0x0 SWAP3 PUSH3 0x42E JUMPI JUMPDEST POP POP PUSH1 0x0 NOT PUSH1 0x3 DUP4 SWAP1 SHL SHR NOT AND SWAP1 DUP3 SHL OR PUSH1 0x2 SSTORE JUMPDEST DUP4 MLOAD SWAP2 DUP9 DUP4 GT PUSH3 0x259 JUMPI PUSH1 0x3 SWAP5 DUP6 SLOAD DUP4 DUP2 DUP2 SHR SWAP2 AND DUP1 ISZERO PUSH3 0x423 JUMPI JUMPDEST DUP11 DUP3 LT EQ PUSH3 0x40D JUMPI DUP3 DUP2 GT PUSH3 0x3C2 JUMPI JUMPDEST POP DUP9 SWAP2 DUP5 GT PUSH1 0x1 EQ PUSH3 0x35D JUMPI DUP4 SWAP5 POP SWAP1 DUP4 SWAP3 SWAP2 PUSH1 0x0 SWAP5 PUSH3 0x351 JUMPI JUMPDEST POP POP SHL SWAP2 PUSH1 0x0 NOT SWAP1 DUP5 SHL SHR NOT AND OR SWAP1 SSTORE JUMPDEST CALLER ISZERO PUSH3 0x339 JUMPI PUSH1 0x8 DUP1 SLOAD PUSH1 0x1 PUSH1 0x1 PUSH1 0xA0 SHL SUB NOT DUP1 DUP3 AND CALLER SWAP1 DUP2 OR SWAP1 SWAP4 SSTORE DUP9 MLOAD SWAP1 SWAP4 PUSH1 0x1 PUSH1 0x1 PUSH1 0xA0 SHL SUB SWAP4 SWAP1 SWAP3 DUP5 AND PUSH32 0x8BE0079C531659141344CD1FD0A4F28419497F9722A3DAAFE3B4186F6B6457E0 PUSH1 0x0 DUP1 LOG3 DUP3 DUP6 AND ISZERO PUSH3 0x2F7 JUMPI POP DUP2 AND SWAP6 DUP7 ISZERO PUSH3 0x2B3 JUMPI AND SWAP2 DUP3 ISZERO PUSH3 0x26F JUMPI PUSH1 0x80 MSTORE DUP5 DUP2 PUSH1 0x9 SLOAD AND OR PUSH1 0x9 SSTORE PUSH1 0xA SLOAD AND OR PUSH1 0xA SSTORE DUP4 MLOAD DUP5 DUP2 ADD SWAP3 DUP2 DUP5 LT SWAP1 DUP5 GT OR PUSH3 0x259 JUMPI SWAP2 DUP5 MSTORE DUP3 DUP3 MSTORE PUSH1 0xFA SWAP2 ADD MSTORE PUSH1 0x7D PUSH1 0xA1 SHL OR PUSH1 0x0 SSTORE MLOAD PUSH2 0x3869 SWAP1 DUP2 PUSH3 0x53D DUP3 CODECOPY PUSH1 0x80 MLOAD DUP2 DUP2 DUP2 PUSH2 0x5EA ADD MSTORE DUP2 DUP2 PUSH2 0xEA7 ADD MSTORE DUP2 DUP2 PUSH2 0x10F9 ADD MSTORE PUSH2 0x145A ADD MSTORE RETURN JUMPDEST PUSH4 0x4E487B71 PUSH1 0xE0 SHL PUSH1 0x0 MSTORE PUSH1 0x41 PUSH1 0x4 MSTORE PUSH1 0x24 PUSH1 0x0 REVERT JUMPDEST DUP7 MLOAD PUSH3 0x461BCD PUSH1 0xE5 SHL DUP2 MSTORE PUSH1 0x4 DUP2 ADD DUP6 SWAP1 MSTORE PUSH1 0x18 PUSH1 0x24 DUP3 ADD MSTORE PUSH32 0x496E76616C6964206D6574616461746120616464726573730000000000000000 PUSH1 0x44 DUP3 ADD MSTORE PUSH1 0x64 SWAP1 REVERT JUMPDEST DUP8 MLOAD PUSH3 0x461BCD PUSH1 0xE5 SHL DUP2 MSTORE PUSH1 0x4 DUP2 ADD DUP7 SWAP1 MSTORE PUSH1 0x18 PUSH1 0x24 DUP3 ADD MSTORE PUSH32 0x496E76616C696420747265617375727920616464726573730000000000000000 PUSH1 0x44 DUP3 ADD MSTORE PUSH1 0x64 SWAP1 REVERT JUMPDEST PUSH3 0x461BCD PUSH1 0xE5 SHL DUP2 MSTORE PUSH1 0x4 DUP2 ADD DUP7 SWAP1 MSTORE PUSH1 0x14 PUSH1 0x24 DUP3 ADD MSTORE PUSH32 0x496E76616C696420555344542061646472657373000000000000000000000000 PUSH1 0x44 DUP3 ADD MSTORE PUSH1 0x64 SWAP1 REVERT JUMPDEST DUP6 MLOAD PUSH4 0x1E4FBDF7 PUSH1 0xE0 SHL DUP2 MSTORE PUSH1 0x0 PUSH1 0x4 DUP3 ADD MSTORE PUSH1 0x24 SWAP1 REVERT JUMPDEST ADD MLOAD SWAP3 POP CODESIZE DUP1 PUSH3 0x170 JUMP JUMPDEST SWAP2 SWAP4 DUP4 AND SWAP2 DUP6 PUSH1 0x0 MSTORE DUP4 DUP10 PUSH1 0x0 KECCAK256 SWAP4 PUSH1 0x0 JUMPDEST DUP12 DUP9 DUP4 DUP4 LT PUSH3 0x3AA JUMPI POP POP POP LT PUSH3 0x391 JUMPI JUMPDEST POP POP POP DUP2 SHL ADD SWAP1 SSTORE PUSH3 0x181 JUMP JUMPDEST ADD MLOAD PUSH1 0x0 NOT DUP4 DUP7 SHL PUSH1 0xF8 AND SHR NOT AND SWAP1 SSTORE CODESIZE DUP1 DUP1 PUSH3 0x383 JUMP JUMPDEST DUP7 DUP7 ADD MLOAD DUP9 SSTORE SWAP1 SWAP7 ADD SWAP6 SWAP5 DUP6 ADD SWAP5 DUP8 SWAP4 POP ADD PUSH3 0x36F JUMP JUMPDEST DUP7 PUSH1 0x0 MSTORE DUP10 PUSH1 0x0 KECCAK256 DUP4 DUP1 DUP8 ADD PUSH1 0x5 SHR DUP3 ADD SWAP3 DUP13 DUP9 LT PUSH3 0x403 JUMPI JUMPDEST ADD PUSH1 0x5 SHR ADD SWAP1 DUP5 SWAP1 JUMPDEST DUP3 DUP2 LT PUSH3 0x3F6 JUMPI POP POP PUSH3 0x153 JUMP JUMPDEST PUSH1 0x0 DUP2 SSTORE ADD DUP5 SWAP1 PUSH3 0x3E6 JUMP JUMPDEST SWAP3 POP DUP2 SWAP3 PUSH3 0x3DD JUMP JUMPDEST PUSH4 0x4E487B71 PUSH1 0xE0 SHL PUSH1 0x0 MSTORE PUSH1 0x22 PUSH1 0x4 MSTORE PUSH1 0x24 PUSH1 0x0 REVERT JUMPDEST SWAP1 PUSH1 0x7F AND SWAP1 PUSH3 0x141 JUMP JUMPDEST ADD MLOAD SWAP1 POP CODESIZE DUP1 PUSH3 0x10E JUMP JUMPDEST SWAP1 DUP7 DUP6 SWAP5 AND SWAP2 PUSH1 0x2 PUSH1 0x0 MSTORE DUP12 PUSH1 0x0 KECCAK256 SWAP3 PUSH1 0x0 JUMPDEST DUP14 DUP3 DUP3 LT PUSH3 0x489 JUMPI POP POP DUP5 GT PUSH3 0x46F JUMPI JUMPDEST POP POP POP DUP2 SHL ADD PUSH1 0x2 SSTORE PUSH3 0x123 JUMP JUMPDEST ADD MLOAD PUSH1 0x0 NOT PUSH1 0xF8 DUP5 PUSH1 0x3 SHL AND SHR NOT AND SWAP1 SSTORE CODESIZE DUP1 DUP1 PUSH3 0x460 JUMP JUMPDEST DUP4 DUP6 ADD MLOAD DUP7 SSTORE DUP9 SWAP8 SWAP1 SWAP6 ADD SWAP5 SWAP4 DUP5 ADD SWAP4 ADD PUSH3 0x44D JUMP JUMPDEST SWAP1 SWAP2 POP PUSH1 0x2 PUSH1 0x0 MSTORE DUP10 PUSH1 0x0 KECCAK256 DUP6 DUP1 DUP6 ADD PUSH1 0x5 SHR DUP3 ADD SWAP3 DUP13 DUP7 LT PUSH3 0x4ED JUMPI JUMPDEST SWAP2 DUP7 SWAP2 DUP7 SWAP6 SWAP5 SWAP4 ADD PUSH1 0x5 SHR ADD SWAP2 JUMPDEST DUP3 DUP2 LT PUSH3 0x4DD JUMPI POP POP PUSH3 0xF7 JUMP JUMPDEST PUSH1 0x0 DUP2 SSTORE DUP6 SWAP5 POP DUP7 SWAP2 ADD PUSH3 0x4CD JUMP JUMPDEST SWAP3 POP DUP2 SWAP3 PUSH3 0x4BF JUMP JUMPDEST SWAP2 PUSH1 0x7F AND SWAP2 PUSH3 0xE3 JUMP JUMPDEST PUSH1 0x0 DUP1 REVERT JUMPDEST PUSH1 0x40 DUP1 MLOAD SWAP2 SWAP1 DUP3 ADD PUSH1 0x1 PUSH1 0x1 PUSH1 0x40 SHL SUB DUP2 GT DUP4 DUP3 LT OR PUSH3 0x259 JUMPI PUSH1 0x40 MSTORE JUMP JUMPDEST MLOAD SWAP1 PUSH1 0x1 PUSH1 0x1 PUSH1 0xA0 SHL SUB DUP3 AND DUP3 SUB PUSH3 0x502 JUMPI JUMP INVALID PUSH1 0x80 DUP1 PUSH1 0x40 MSTORE PUSH1 0x4 CALLDATASIZE LT ISZERO PUSH3 0x14 JUMPI PUSH1 0x0 DUP1 REVERT JUMPDEST PUSH1 0x0 SWAP1 DUP2 CALLDATALOAD PUSH1 0xE0 SHR SWAP1 DUP2 PUSH4 0x1FFC9A7 EQ PUSH3 0x19AC JUMPI POP DUP1 PUSH4 0x6FDDE03 EQ PUSH3 0x18DD JUMPI DUP1 PUSH4 0x81812FC EQ PUSH3 0x189C JUMPI DUP1 PUSH4 0x95EA7B3 EQ PUSH3 0x17AE JUMPI DUP1 PUSH4 0xBC5DEC4 EQ PUSH3 0x1782 JUMPI DUP1 PUSH4 0x194F5D9F EQ PUSH3 0x1713 JUMPI DUP1 PUSH4 0x1A598CCC EQ PUSH3 0x168E JUMPI DUP1 PUSH4 0x23B872DD EQ PUSH3 0x1671 JUMPI DUP1 PUSH4 0x2A55205A EQ PUSH3 0x15C8 JUMPI DUP1 PUSH4 0x39D4CE89 EQ PUSH3 0x159D JUMPI DUP1 PUSH4 0x42842E0E EQ PUSH3 0x1567 JUMPI DUP1 PUSH4 0x46268365 EQ PUSH3 0x13D7 JUMPI DUP1 PUSH4 0x49F411B7 EQ PUSH3 0xE00 JUMPI DUP1 PUSH4 0x4BE4E91F EQ PUSH3 0xDCB JUMPI DUP1 PUSH4 0x572687B6 EQ PUSH3 0xD55 JUMPI DUP1 PUSH4 0x5C6E0E27 EQ PUSH3 0xABA JUMPI DUP1 PUSH4 0x6352211E EQ PUSH3 0xA85 JUMPI DUP1 PUSH4 0x652B9B41 EQ PUSH3 0xA42 JUMPI DUP1 PUSH4 0x70A08231 EQ PUSH3 0x9E5 JUMPI DUP1 PUSH4 0x715018A6 EQ PUSH3 0x983 JUMPI DUP1 PUSH4 0x803DB96D EQ PUSH3 0x958 JUMPI DUP1 PUSH4 0x8DA5CB5B EQ PUSH3 0x92D JUMPI DUP1 PUSH4 0x9094A91E EQ PUSH3 0x8CE JUMPI DUP1 PUSH4 0x95D89B41 EQ PUSH3 0x7B0 JUMPI DUP1 PUSH4 0x97331BF9 EQ PUSH3 0x72A JUMPI DUP1 PUSH4 0x9C841FEF EQ PUSH3 0x6C8 JUMPI DUP1 PUSH4 0xA22CB465 EQ PUSH3 0x619 JUMPI DUP1 PUSH4 0xA98AD46C EQ PUSH3 0x5D2 JUMPI DUP1 PUSH4 0xB88D4FDE EQ PUSH3 0x550 JUMPI DUP1 PUSH4 0xC87B56DD EQ PUSH3 0x332 JUMPI DUP1 PUSH4 0xE7F3C69C EQ PUSH3 0x29C JUMPI DUP1 PUSH4 0xE985E9C5 EQ PUSH3 0x242 JUMPI PUSH4 0xF2FDE38B EQ PUSH3 0x1AE JUMPI PUSH1 0x0 DUP1 REVERT JUMPDEST CALLVALUE PUSH3 0x23F JUMPI PUSH1 0x20 CALLDATASIZE PUSH1 0x3 NOT ADD SLT PUSH3 0x23F JUMPI PUSH3 0x1CB PUSH3 0x1A88 JUMP JUMPDEST PUSH3 0x1D5 PUSH3 0x1BFB JUMP JUMPDEST PUSH1 0x1 PUSH1 0x1 PUSH1 0xA0 SHL SUB SWAP1 DUP2 AND SWAP1 DUP2 ISZERO PUSH3 0x226 JUMPI PUSH1 0x8 SLOAD DUP3 PUSH1 0x1 PUSH1 0x1 PUSH1 0x60 SHL SUB PUSH1 0xA0 SHL DUP3 AND OR PUSH1 0x8 SSTORE AND PUSH32 0x8BE0079C531659141344CD1FD0A4F28419497F9722A3DAAFE3B4186F6B6457E0 PUSH1 0x0 DUP1 LOG3 DUP1 RETURN JUMPDEST PUSH1 0x40 MLOAD PUSH4 0x1E4FBDF7 PUSH1 0xE0 SHL DUP2 MSTORE PUSH1 0x4 DUP2 ADD DUP5 SWAP1 MSTORE PUSH1 0x24 SWAP1 REVERT JUMPDEST DUP1 REVERT JUMPDEST POP CALLVALUE PUSH3 0x23F JUMPI PUSH1 0x40 CALLDATASIZE PUSH1 0x3 NOT ADD SLT PUSH3 0x23F JUMPI PUSH3 0x260 PUSH3 0x1A88 JUMP JUMPDEST PUSH1 0x40 PUSH3 0x26C PUSH3 0x1A9F JUMP JUMPDEST SWAP3 PUSH1 0x1 DUP1 PUSH1 0xA0 SHL SUB DUP1 SWAP4 AND DUP2 MSTORE PUSH1 0x7 PUSH1 0x20 MSTORE KECCAK256 SWAP2 AND PUSH1 0x0 MSTORE PUSH1 0x20 MSTORE PUSH1 0x20 PUSH1 0xFF PUSH1 0x40 PUSH1 0x0 KECCAK256 SLOAD AND PUSH1 0x40 MLOAD SWAP1 ISZERO ISZERO DUP2 MSTORE RETURN JUMPDEST POP CALLVALUE PUSH3 0x23F JUMPI PUSH1 0x20 DUP1 PUSH1 0x3 NOT CALLDATASIZE ADD SLT PUSH3 0x32E JUMPI PUSH1 0x1 PUSH1 0x1 PUSH1 0xA0 SHL SUB SWAP2 DUP3 PUSH3 0x2C5 PUSH3 0x1A88 JUMP JUMPDEST AND DUP2 MSTORE PUSH1 0xF DUP3 MSTORE PUSH1 0x40 DUP2 KECCAK256 SWAP3 PUSH1 0x40 MLOAD SWAP1 DUP2 SWAP4 DUP1 DUP7 SLOAD SWAP4 DUP5 DUP2 MSTORE ADD SWAP6 DUP5 MSTORE DUP1 DUP5 KECCAK256 SWAP4 SWAP2 JUMPDEST DUP4 DUP4 LT PUSH3 0x314 JUMPI PUSH3 0x310 DUP7 PUSH3 0x303 DUP2 DUP11 SUB DUP3 PUSH3 0x1B20 JUMP JUMPDEST PUSH1 0x40 MLOAD SWAP2 DUP3 SWAP2 DUP3 PUSH3 0x1BB5 JUMP JUMPDEST SUB SWAP1 RETURN JUMPDEST DUP5 SLOAD DUP2 AND DUP8 MSTORE SWAP6 DUP2 ADD SWAP6 PUSH1 0x1 SWAP5 DUP6 ADD SWAP5 SWAP1 SWAP3 ADD SWAP2 PUSH3 0x2E8 JUMP JUMPDEST POP DUP1 REVERT JUMPDEST POP CALLVALUE PUSH3 0x23F JUMPI PUSH1 0x20 DUP1 PUSH1 0x3 NOT CALLDATASIZE ADD SLT PUSH3 0x32E JUMPI PUSH1 0x4 CALLDATALOAD PUSH3 0x355 DUP2 PUSH3 0x1EF9 JUMP JUMPDEST POP DUP1 DUP4 MSTORE PUSH1 0xD DUP3 MSTORE PUSH1 0x40 DUP1 DUP5 KECCAK256 SLOAD SWAP1 MLOAD PUSH4 0x70740AAB PUSH1 0xE0 SHL DUP2 MSTORE PUSH1 0x1 PUSH1 0x1 PUSH1 0xA0 SHL SUB SWAP2 DUP3 AND SWAP3 SWAP2 DUP6 SWAP2 DUP3 DUP2 PUSH1 0x4 DUP2 DUP9 GAS STATICCALL SWAP1 DUP2 ISZERO PUSH3 0x545 JUMPI DUP4 SWAP2 PUSH3 0x527 JUMPI JUMPDEST POP PUSH1 0x40 MLOAD PUSH3 0x787445 PUSH1 0xE2 SHL DUP2 MSTORE SWAP4 DUP7 DUP6 PUSH1 0x4 DUP2 DUP10 GAS STATICCALL SWAP5 DUP6 ISZERO PUSH3 0x4E1 JUMPI DUP8 SWAP1 DUP6 SWAP7 PUSH3 0x4EC JUMPI JUMPDEST POP PUSH1 0x40 MLOAD PUSH4 0xAA082A9D PUSH1 0xE0 SHL DUP2 MSTORE SWAP6 SWAP7 DUP7 SWAP1 PUSH1 0x4 SWAP1 DUP3 SWAP1 GAS STATICCALL SWAP5 DUP6 ISZERO PUSH3 0x4E1 JUMPI DUP5 SWAP6 PUSH3 0x49E JUMPI JUMPDEST POP DUP4 SWAP5 SWAP6 DUP2 PUSH3 0x42C SWAP6 MSTORE PUSH1 0xE DUP9 MSTORE PUSH1 0x40 DUP7 KECCAK256 SLOAD SWAP4 PUSH1 0xA SLOAD AND SWAP4 PUSH1 0x40 MLOAD SWAP8 DUP9 SWAP7 DUP8 SWAP6 DUP7 SWAP6 PUSH4 0x27DD4AA5 PUSH1 0xE1 SHL DUP8 MSTORE PUSH1 0x4 DUP8 ADD MSTORE PUSH1 0xA0 PUSH1 0x24 DUP8 ADD MSTORE PUSH1 0xA4 DUP7 ADD SWAP1 PUSH3 0x1A61 JUMP JUMPDEST SWAP3 PUSH1 0x44 DUP6 ADD MSTORE PUSH1 0x64 DUP5 ADD MSTORE PUSH1 0x84 DUP4 ADD MSTORE SUB SWAP2 GAS STATICCALL SWAP3 DUP4 ISZERO PUSH3 0x492 JUMPI DUP1 SWAP4 PUSH3 0x468 JUMPI JUMPDEST POP POP PUSH3 0x310 PUSH1 0x40 MLOAD SWAP3 DUP3 DUP5 SWAP4 DUP5 MSTORE DUP4 ADD SWAP1 PUSH3 0x1A61 JUMP JUMPDEST PUSH3 0x489 SWAP3 SWAP4 POP RETURNDATASIZE DUP1 SWAP2 DUP4 RETURNDATACOPY PUSH3 0x480 DUP2 DUP4 PUSH3 0x1B20 JUMP JUMPDEST DUP2 ADD SWAP1 PUSH3 0x2181 JUMP JUMPDEST SWAP1 CODESIZE DUP1 PUSH3 0x450 JUMP JUMPDEST PUSH1 0x40 MLOAD SWAP1 RETURNDATASIZE SWAP1 DUP3 RETURNDATACOPY RETURNDATASIZE SWAP1 REVERT JUMPDEST DUP8 DUP1 SWAP3 SWAP7 POP DUP2 SWAP6 POP RETURNDATASIZE DUP4 GT PUSH3 0x4D9 JUMPI JUMPDEST PUSH3 0x4BB DUP2 DUP4 PUSH3 0x1B20 JUMP JUMPDEST DUP2 ADD SUB SLT PUSH3 0x4D4 JUMPI DUP7 SWAP4 PUSH3 0x42C SWAP4 MLOAD SWAP5 SWAP4 PUSH3 0x3E7 JUMP JUMPDEST PUSH1 0x0 DUP1 REVERT JUMPDEST POP RETURNDATASIZE PUSH3 0x4AF JUMP JUMPDEST PUSH1 0x40 MLOAD RETURNDATASIZE DUP7 DUP3 RETURNDATACOPY RETURNDATASIZE SWAP1 REVERT JUMPDEST SWAP5 POP SWAP1 SWAP5 POP DUP4 DUP2 RETURNDATASIZE DUP4 GT PUSH3 0x51F JUMPI JUMPDEST PUSH3 0x508 DUP2 DUP4 PUSH3 0x1B20 JUMP JUMPDEST DUP2 ADD SUB SLT PUSH3 0x4D4 JUMPI PUSH1 0x4 SWAP4 DUP7 DUP9 SWAP5 MLOAD SWAP6 PUSH3 0x3BE JUMP JUMPDEST POP RETURNDATASIZE PUSH3 0x4FC JUMP JUMPDEST PUSH3 0x53E SWAP2 POP RETURNDATASIZE DUP1 DUP6 DUP4 RETURNDATACOPY PUSH3 0x480 DUP2 DUP4 PUSH3 0x1B20 JUMP JUMPDEST CODESIZE PUSH3 0x396 JUMP JUMPDEST PUSH1 0x40 MLOAD RETURNDATASIZE DUP6 DUP3 RETURNDATACOPY RETURNDATASIZE SWAP1 REVERT JUMPDEST POP CALLVALUE PUSH3 0x23F JUMPI PUSH1 0x80 CALLDATASIZE PUSH1 0x3 NOT ADD SLT PUSH3 0x23F JUMPI PUSH3 0x56E PUSH3 0x1A88 JUMP JUMPDEST PUSH3 0x578 PUSH3 0x1A9F JUMP JUMPDEST SWAP1 PUSH1 0x44 CALLDATALOAD PUSH1 0x64 CALLDATALOAD SWAP3 PUSH8 0xFFFFFFFFFFFFFFFF DUP5 GT PUSH3 0x5CE JUMPI CALLDATASIZE PUSH1 0x23 DUP6 ADD SLT ISZERO PUSH3 0x5CE JUMPI PUSH3 0x5B6 PUSH3 0x5CB SWAP5 CALLDATASIZE SWAP1 PUSH1 0x24 DUP2 PUSH1 0x4 ADD CALLDATALOAD SWAP2 ADD PUSH3 0x1B60 JUMP JUMPDEST SWAP3 PUSH3 0x5C4 DUP4 DUP4 DUP4 PUSH3 0x1C28 JUMP JUMPDEST CALLER PUSH3 0x1F35 JUMP JUMPDEST DUP1 RETURN JUMPDEST DUP5 DUP1 REVERT JUMPDEST POP CALLVALUE PUSH3 0x23F JUMPI DUP1 PUSH1 0x3 NOT CALLDATASIZE ADD SLT PUSH3 0x23F JUMPI PUSH1 0x40 MLOAD PUSH32 0x0 PUSH1 0x1 PUSH1 0x1 PUSH1 0xA0 SHL SUB AND DUP2 MSTORE PUSH1 0x20 SWAP1 RETURN JUMPDEST POP CALLVALUE PUSH3 0x23F JUMPI PUSH1 0x40 CALLDATASIZE PUSH1 0x3 NOT ADD SLT PUSH3 0x23F JUMPI PUSH3 0x637 PUSH3 0x1A88 JUMP JUMPDEST PUSH1 0x24 CALLDATALOAD SWAP1 DUP2 ISZERO ISZERO DUP1 SWAP3 SUB PUSH3 0x6C4 JUMPI PUSH1 0x1 PUSH1 0x1 PUSH1 0xA0 SHL SUB AND SWAP1 DUP2 ISZERO PUSH3 0x6AB JUMPI CALLER DUP4 MSTORE PUSH1 0x7 PUSH1 0x20 MSTORE PUSH1 0x40 DUP4 KECCAK256 DUP3 PUSH1 0x0 MSTORE PUSH1 0x20 MSTORE PUSH1 0x40 PUSH1 0x0 KECCAK256 PUSH1 0xFF NOT DUP2 SLOAD AND PUSH1 0xFF DUP4 AND OR SWAP1 SSTORE PUSH1 0x40 MLOAD SWAP1 DUP2 MSTORE PUSH32 0x17307EAB39AB6107E8899845AD3D59BD9653F200F220920489CA2B5937696C31 PUSH1 0x20 CALLER SWAP3 LOG3 DUP1 RETURN JUMPDEST PUSH1 0x40 MLOAD PUSH4 0xB611743 PUSH1 0xE3 SHL DUP2 MSTORE PUSH1 0x4 DUP2 ADD DUP4 SWAP1 MSTORE PUSH1 0x24 SWAP1 REVERT JUMPDEST DUP3 DUP1 REVERT JUMPDEST POP CALLVALUE PUSH3 0x23F JUMPI PUSH1 0x40 CALLDATASIZE PUSH1 0x3 NOT ADD SLT PUSH3 0x23F JUMPI PUSH3 0x6E6 PUSH3 0x1A88 JUMP JUMPDEST PUSH1 0x1 PUSH1 0x1 PUSH1 0xA0 SHL SUB SWAP1 DUP2 AND DUP3 MSTORE PUSH1 0xF PUSH1 0x20 MSTORE PUSH1 0x40 DUP3 KECCAK256 DUP1 SLOAD PUSH1 0x24 CALLDATALOAD SWAP4 SWAP1 DUP5 LT ISZERO PUSH3 0x23F JUMPI POP PUSH1 0x20 SWAP3 PUSH3 0x71A SWAP2 PUSH3 0x1B9C JUMP JUMPDEST SWAP2 SWAP1 SLOAD PUSH1 0x40 MLOAD SWAP3 PUSH1 0x3 SHL SHR AND DUP2 MSTORE RETURN JUMPDEST POP CALLVALUE PUSH3 0x23F JUMPI DUP1 PUSH1 0x3 NOT CALLDATASIZE ADD SLT PUSH3 0x23F JUMPI PUSH1 0x40 MLOAD PUSH1 0xB DUP1 SLOAD DUP1 DUP4 MSTORE SWAP1 DUP4 MSTORE PUSH1 0x20 DUP1 DUP4 ADD SWAP4 PUSH32 0x175B7A638427703F0DBE7BB9BBF987A2551717B34E79F33B5B1008D1FA01DB9 SWAP3 SWAP2 JUMPDEST DUP3 DUP3 LT PUSH3 0x78F JUMPI PUSH3 0x310 DUP6 PUSH3 0x303 DUP2 DUP10 SUB DUP3 PUSH3 0x1B20 JUMP JUMPDEST DUP4 SLOAD PUSH1 0x1 PUSH1 0x1 PUSH1 0xA0 SHL SUB AND DUP7 MSTORE SWAP5 DUP6 ADD SWAP5 PUSH1 0x1 SWAP4 DUP5 ADD SWAP4 SWAP1 SWAP2 ADD SWAP1 PUSH3 0x774 JUMP JUMPDEST POP CALLVALUE PUSH3 0x23F JUMPI DUP1 PUSH1 0x3 NOT CALLDATASIZE ADD SLT PUSH3 0x23F JUMPI PUSH1 0x40 MLOAD SWAP1 DUP1 PUSH1 0x3 SLOAD SWAP2 PUSH1 0x1 DUP4 DUP2 SHR SWAP3 DUP2 DUP6 AND SWAP5 DUP6 ISZERO PUSH3 0x8C3 JUMPI JUMPDEST PUSH1 0x20 SWAP6 DUP7 DUP7 LT DUP2 EQ PUSH3 0x8AF JUMPI DUP6 DUP9 MSTORE DUP8 SWAP5 SWAP4 SWAP3 SWAP2 DUP8 SWAP1 DUP3 ISZERO PUSH3 0x88B JUMPI POP POP PUSH1 0x1 EQ PUSH3 0x82D JUMPI JUMPDEST POP POP PUSH3 0x817 SWAP3 POP SUB DUP4 PUSH3 0x1B20 JUMP JUMPDEST PUSH3 0x310 PUSH1 0x40 MLOAD SWAP3 DUP3 DUP5 SWAP4 DUP5 MSTORE DUP4 ADD SWAP1 PUSH3 0x1A61 JUMP JUMPDEST SWAP1 DUP6 SWAP3 POP PUSH1 0x3 DUP3 MSTORE PUSH32 0xC2575A0E9E593C00F959F8C92F12DB2869C3395A3B0502D05E2516446F71F85B JUMPDEST DUP6 DUP4 LT PUSH3 0x872 JUMPI POP POP PUSH3 0x817 SWAP4 POP DUP3 ADD ADD CODESIZE DUP1 PUSH3 0x807 JUMP JUMPDEST DUP1 SLOAD DUP4 DUP10 ADD DUP6 ADD MSTORE DUP8 SWAP5 POP DUP7 SWAP4 SWAP1 SWAP3 ADD SWAP2 DUP2 ADD PUSH3 0x857 JUMP JUMPDEST SWAP3 POP SWAP4 POP POP PUSH3 0x817 SWAP5 SWAP2 POP PUSH1 0xFF NOT AND DUP3 DUP5 ADD MSTORE ISZERO ISZERO PUSH1 0x5 SHL DUP3 ADD ADD CODESIZE DUP1 PUSH3 0x807 JUMP JUMPDEST PUSH4 0x4E487B71 PUSH1 0xE0 SHL DUP4 MSTORE PUSH1 0x22 PUSH1 0x4 MSTORE PUSH1 0x24 DUP4 REVERT JUMPDEST SWAP4 PUSH1 0x7F AND SWAP4 PUSH3 0x7DE JUMP JUMPDEST POP CALLVALUE PUSH3 0x23F JUMPI PUSH1 0x20 CALLDATASIZE PUSH1 0x3 NOT ADD SLT PUSH3 0x23F JUMPI PUSH1 0x4 CALLDATALOAD PUSH1 0xB SLOAD DUP2 LT ISZERO PUSH3 0x32E JUMPI PUSH1 0xB PUSH1 0x0 MSTORE PUSH32 0x175B7A638427703F0DBE7BB9BBF987A2551717B34E79F33B5B1008D1FA01DB9 ADD SLOAD PUSH1 0x40 MLOAD PUSH1 0x1 PUSH1 0x1 PUSH1 0xA0 SHL SUB SWAP1 SWAP2 AND DUP2 MSTORE PUSH1 0x20 SWAP1 RETURN JUMPDEST POP CALLVALUE PUSH3 0x23F JUMPI DUP1 PUSH1 0x3 NOT CALLDATASIZE ADD SLT PUSH3 0x23F JUMPI PUSH1 0x8 SLOAD PUSH1 0x40 MLOAD PUSH1 0x1 PUSH1 0x1 PUSH1 0xA0 SHL SUB SWAP1 SWAP2 AND DUP2 MSTORE PUSH1 0x20 SWAP1 RETURN JUMPDEST POP CALLVALUE PUSH3 0x23F JUMPI DUP1 PUSH1 0x3 NOT CALLDATASIZE ADD SLT PUSH3 0x23F JUMPI PUSH1 0x9 SLOAD PUSH1 0x40 MLOAD PUSH1 0x1 PUSH1 0x1 PUSH1 0xA0 SHL SUB SWAP1 SWAP2 AND DUP2 MSTORE PUSH1 0x20 SWAP1 RETURN JUMPDEST POP CALLVALUE PUSH3 0x23F JUMPI DUP1 PUSH1 0x3 NOT CALLDATASIZE ADD SLT PUSH3 0x23F JUMPI PUSH3 0x9A0 PUSH3 0x1BFB JUMP JUMPDEST PUSH1 0x8 DUP1 SLOAD PUSH1 0x1 PUSH1 0x1 PUSH1 0xA0 SHL SUB NOT DUP2 AND SWAP1 SWAP2 SSTORE PUSH1 0x0 SWAP1 PUSH1 0x1 PUSH1 0x1 PUSH1 0xA0 SHL SUB AND PUSH32 0x8BE0079C531659141344CD1FD0A4F28419497F9722A3DAAFE3B4186F6B6457E0 DUP3 DUP1 LOG3 DUP1 RETURN JUMPDEST POP CALLVALUE PUSH3 0x23F JUMPI PUSH1 0x20 CALLDATASIZE PUSH1 0x3 NOT ADD SLT PUSH3 0x23F JUMPI PUSH1 0x1 PUSH1 0x1 PUSH1 0xA0 SHL SUB PUSH3 0xA0B PUSH3 0x1A88 JUMP JUMPDEST AND DUP1 ISZERO PUSH3 0xA29 JUMPI DUP2 PUSH1 0x40 SWAP2 PUSH1 0x20 SWAP4 MSTORE PUSH1 0x5 DUP4 MSTORE KECCAK256 SLOAD PUSH1 0x40 MLOAD SWAP1 DUP2 MSTORE RETURN JUMPDEST PUSH1 0x40 MLOAD PUSH4 0x22718AD9 PUSH1 0xE2 SHL DUP2 MSTORE PUSH1 0x4 DUP2 ADD DUP4 SWAP1 MSTORE PUSH1 0x24 SWAP1 REVERT JUMPDEST POP CALLVALUE PUSH3 0x23F JUMPI PUSH1 0x20 CALLDATASIZE PUSH1 0x3 NOT ADD SLT PUSH3 0x23F JUMPI PUSH1 0x20 SWAP1 PUSH1 0xFF SWAP1 PUSH1 0x40 SWAP1 PUSH1 0x1 PUSH1 0x1 PUSH1 0xA0 SHL SUB PUSH3 0xA71 PUSH3 0x1A88 JUMP JUMPDEST AND DUP2 MSTORE PUSH1 0xC DUP5 MSTORE KECCAK256 SLOAD AND PUSH1 0x40 MLOAD SWAP1 ISZERO ISZERO DUP2 MSTORE RETURN JUMPDEST POP CALLVALUE PUSH3 0x23F JUMPI PUSH1 0x20 CALLDATASIZE PUSH1 0x3 NOT ADD SLT PUSH3 0x23F JUMPI PUSH1 0x20 PUSH3 0xAA8 PUSH1 0x4 CALLDATALOAD PUSH3 0x1EF9 JUMP JUMPDEST PUSH1 0x40 MLOAD PUSH1 0x1 PUSH1 0x1 PUSH1 0xA0 SHL SUB SWAP1 SWAP2 AND DUP2 MSTORE RETURN JUMPDEST POP CALLVALUE PUSH3 0x23F JUMPI PUSH1 0x20 DUP1 PUSH1 0x3 NOT CALLDATASIZE ADD SLT PUSH3 0x32E JUMPI PUSH1 0x4 CALLDATALOAD DUP1 DUP4 MSTORE PUSH1 0xD DUP3 MSTORE PUSH1 0x40 DUP4 KECCAK256 SLOAD PUSH1 0x1 PUSH1 0x1 PUSH1 0xA0 SHL SUB SWAP3 SWAP1 DUP4 AND SWAP2 CALLER DUP4 SWAP1 SUB PUSH3 0xD10 JUMPI DUP1 PUSH1 0x0 MSTORE PUSH1 0x4 DUP3 MSTORE DUP4 PUSH1 0x40 PUSH1 0x0 KECCAK256 SLOAD AND SWAP3 DUP4 ISZERO DUP1 ISZERO SWAP6 DUP7 PUSH3 0xCDC JUMPI JUMPDEST DUP4 PUSH1 0x0 MSTORE PUSH1 0x4 DUP6 MSTORE PUSH1 0x40 PUSH1 0x0 KECCAK256 SWAP6 PUSH1 0x1 PUSH1 0x1 PUSH1 0x60 SHL SUB PUSH1 0xA0 SHL SWAP7 DUP8 DUP2 SLOAD AND SWAP1 SSTORE DUP5 PUSH1 0x0 DUP3 PUSH32 0xDDF252AD1BE2C89B69C2B068FC378DAA952BA7F163C4A11628F55A4DF523B3EF DUP3 DUP1 LOG4 PUSH1 0xD DUP7 MSTORE DUP2 PUSH1 0x40 PUSH1 0x0 KECCAK256 SLOAD AND SWAP8 PUSH3 0xBB9 JUMPI JUMPDEST POP POP SWAP1 SWAP2 SWAP3 SWAP4 SWAP5 POP PUSH3 0xBA0 JUMPI SWAP1 PUSH1 0xD SWAP3 SWAP2 DUP6 MSTORE PUSH1 0xC DUP3 MSTORE PUSH1 0x40 DUP6 KECCAK256 PUSH1 0xFF NOT DUP2 SLOAD AND SWAP1 SSTORE DUP5 MSTORE MSTORE PUSH1 0x40 DUP3 KECCAK256 SWAP1 DUP2 SLOAD AND SWAP1 SSTORE DUP1 RETURN JUMPDEST PUSH1 0x40 MLOAD PUSH4 0x7E273289 PUSH1 0xE0 SHL DUP2 MSTORE PUSH1 0x4 DUP2 ADD DUP4 SWAP1 MSTORE PUSH1 0x24 SWAP1 REVERT JUMPDEST PUSH1 0x0 MSTORE PUSH1 0xF DUP6 MSTORE PUSH1 0x40 PUSH1 0x0 KECCAK256 SWAP1 PUSH1 0x0 JUMPDEST DUP3 SLOAD DUP1 DUP3 LT ISZERO PUSH3 0xCCC JUMPI DUP3 SWAP1 DUP11 PUSH3 0xBE3 DUP5 DUP8 PUSH3 0x1B9C JUMP JUMPDEST SWAP4 SWAP1 SLOAD PUSH1 0x3 SWAP5 DUP6 SHL SHR AND EQ PUSH3 0xC06 JUMPI POP POP PUSH3 0xC00 SWAP1 PUSH3 0x2098 JUMP JUMPDEST PUSH3 0xBC9 JUMP JUMPDEST SWAP1 SWAP3 SWAP4 SWAP5 SWAP6 SWAP7 SWAP8 SWAP9 SWAP10 POP PUSH1 0x0 NOT SWAP4 DUP5 DUP3 ADD SWAP2 DUP3 GT PUSH3 0xCB6 JUMPI PUSH3 0xC61 SWAP4 PUSH3 0xC34 PUSH3 0xC42 SWAP4 DUP9 PUSH3 0x1B9C JUMP JUMPDEST SWAP1 SLOAD SWAP2 SHL SHR AND SWAP2 DUP6 PUSH3 0x1B9C JUMP JUMPDEST SWAP1 SWAP2 SWAP1 DUP3 SLOAD SWAP1 PUSH1 0x3 SHL SWAP2 PUSH1 0x1 DUP1 PUSH1 0xA0 SHL SUB DUP1 SWAP2 AND DUP4 SHL SWAP3 SHL NOT AND OR SWAP1 SSTORE JUMP JUMPDEST DUP2 SLOAD DUP1 ISZERO PUSH3 0xCA0 JUMPI ADD SWAP1 PUSH3 0xC91 PUSH3 0xC7C DUP4 DUP4 PUSH3 0x1B9C JUMP JUMPDEST DUP2 SLOAD SWAP1 PUSH1 0x1 DUP1 PUSH1 0xA0 SHL SUB SWAP1 PUSH1 0x3 SHL SHL NOT AND SWAP1 SSTORE JUMP JUMPDEST SSTORE JUMPDEST SWAP1 DUP5 SWAP4 SWAP3 SWAP2 CODESIZE DUP1 PUSH3 0xB6C JUMP JUMPDEST PUSH4 0x4E487B71 PUSH1 0xE0 SHL PUSH1 0x0 MSTORE PUSH1 0x31 PUSH1 0x4 MSTORE PUSH1 0x24 PUSH1 0x0 REVERT JUMPDEST PUSH4 0x4E487B71 PUSH1 0xE0 SHL PUSH1 0x0 MSTORE PUSH1 0x11 PUSH1 0x4 MSTORE PUSH1 0x24 PUSH1 0x0 REVERT JUMPDEST POP POP POP POP SWAP1 SWAP2 SWAP3 SWAP4 SWAP5 POP PUSH3 0xC93 JUMP JUMPDEST PUSH1 0x0 DUP5 DUP2 MSTORE PUSH1 0x6 PUSH1 0x20 MSTORE PUSH1 0x40 DUP1 DUP3 KECCAK256 DUP1 SLOAD PUSH1 0x1 PUSH1 0x1 PUSH1 0xA0 SHL SUB NOT AND SWAP1 SSTORE DUP8 DUP3 MSTORE PUSH1 0x5 DUP8 MSTORE SWAP1 KECCAK256 DUP1 SLOAD PUSH1 0x0 NOT ADD SWAP1 SSTORE PUSH3 0xB11 JUMP JUMPDEST PUSH1 0x40 MLOAD PUSH3 0x461BCD PUSH1 0xE5 SHL DUP2 MSTORE PUSH1 0x4 DUP2 ADD DUP4 SWAP1 MSTORE PUSH1 0x1B PUSH1 0x24 DUP3 ADD MSTORE PUSH32 0x4F6E6C79207661756C742063616E206275726E20697473204E46540000000000 PUSH1 0x44 DUP3 ADD MSTORE PUSH1 0x64 SWAP1 REVERT JUMPDEST POP CALLVALUE PUSH3 0x23F JUMPI PUSH1 0x20 CALLDATASIZE PUSH1 0x3 NOT ADD SLT PUSH3 0x23F JUMPI PUSH1 0x4 CALLDATALOAD DUP1 DUP3 MSTORE PUSH1 0xD PUSH1 0x20 MSTORE PUSH1 0x40 DUP3 KECCAK256 SLOAD PUSH1 0x1 PUSH1 0x1 PUSH1 0xA0 SHL SUB AND CALLER SUB PUSH3 0xD99 JUMPI DUP2 MSTORE PUSH1 0xE PUSH1 0x20 MSTORE TIMESTAMP PUSH1 0x40 DUP3 KECCAK256 SSTORE DUP1 RETURN JUMPDEST PUSH1 0x40 MLOAD PUSH3 0x461BCD PUSH1 0xE5 SHL DUP2 MSTORE PUSH1 0x20 PUSH1 0x4 DUP3 ADD MSTORE PUSH1 0xA PUSH1 0x24 DUP3 ADD MSTORE PUSH10 0x13DB9B1E481D985D5B1D PUSH1 0xB2 SHL PUSH1 0x44 DUP3 ADD MSTORE PUSH1 0x64 SWAP1 REVERT JUMPDEST POP CALLVALUE PUSH3 0x23F JUMPI PUSH1 0x20 CALLDATASIZE PUSH1 0x3 NOT ADD SLT PUSH3 0x23F JUMPI PUSH1 0x20 SWAP1 PUSH1 0x4 CALLDATALOAD DUP2 MSTORE PUSH1 0xD DUP3 MSTORE PUSH1 0x40 PUSH1 0x1 DUP1 PUSH1 0xA0 SHL SUB SWAP2 KECCAK256 SLOAD AND PUSH1 0x40 MLOAD SWAP1 DUP2 MSTORE RETURN JUMPDEST POP CALLVALUE PUSH3 0x23F JUMPI PUSH1 0xA0 CALLDATASIZE PUSH1 0x3 NOT ADD SLT PUSH3 0x23F JUMPI PUSH8 0xFFFFFFFFFFFFFFFF SWAP1 PUSH1 0x4 CALLDATALOAD DUP3 DUP2 GT PUSH3 0x32E JUMPI CALLDATASIZE PUSH1 0x23 DUP3 ADD SLT ISZERO PUSH3 0x32E JUMPI PUSH3 0xE4B SWAP1 CALLDATASIZE SWAP1 PUSH1 0x24 DUP2 PUSH1 0x4 ADD CALLDATALOAD SWAP2 ADD PUSH3 0x1B60 JUMP JUMPDEST PUSH1 0x84 CALLDATALOAD PUSH1 0x1 PUSH1 0x1 PUSH1 0xA0 SHL SUB DUP2 AND SWAP2 SWAP1 DUP3 SWAP1 SUB PUSH3 0x4D4 JUMPI PUSH1 0x10 SLOAD SWAP2 PUSH3 0xE71 DUP4 PUSH3 0x2098 JUMP JUMPDEST PUSH1 0x10 SSTORE PUSH1 0x9 SLOAD PUSH1 0x40 MLOAD PUSH1 0x1 PUSH1 0x1 PUSH1 0xA0 SHL SUB SWAP2 SWAP1 SWAP2 AND SWAP6 SWAP1 SWAP2 PUSH2 0x1646 DUP1 DUP5 ADD SWAP3 DUP4 GT DUP5 DUP5 LT OR PUSH3 0x13C3 JUMPI SWAP1 DUP4 SWAP3 SWAP2 PUSH3 0x21EE DUP5 CODECOPY PUSH32 0x0 PUSH1 0x1 PUSH1 0x1 PUSH1 0xA0 SHL SUB AND DUP3 MSTORE PUSH1 0xE0 PUSH1 0x20 DUP4 ADD DUP2 SWAP1 MSTORE PUSH1 0xC0 SWAP1 PUSH3 0xEEB SWAP1 DUP5 ADD DUP8 PUSH3 0x1A61 JUMP JUMPDEST SWAP3 DUP8 PUSH1 0x40 DUP3 ADD MSTORE PUSH1 0x24 CALLDATALOAD SWAP10 DUP11 PUSH1 0x60 DUP4 ADD MSTORE PUSH1 0x44 CALLDATALOAD PUSH1 0x80 DUP4 ADD MSTORE PUSH1 0xA0 DUP3 ADD MSTORE ADD MSTORE SUB SWAP1 DUP5 CREATE SWAP3 DUP4 ISZERO PUSH3 0x492 JUMPI PUSH1 0xB SLOAD PUSH1 0x1 PUSH1 0x40 SHL DUP2 LT ISZERO PUSH3 0x13AD JUMPI PUSH1 0x1 DUP2 ADD DUP1 PUSH1 0xB SSTORE DUP2 LT ISZERO PUSH3 0x1397 JUMPI PUSH1 0xB PUSH1 0x0 MSTORE PUSH32 0x175B7A638427703F0DBE7BB9BBF987A2551717B34E79F33B5B1008D1FA01DB9 ADD DUP1 SLOAD PUSH1 0x1 PUSH1 0x1 PUSH1 0xA0 SHL SUB DUP7 AND PUSH1 0x1 PUSH1 0x1 PUSH1 0xA0 SHL SUB NOT SWAP2 DUP3 AND DUP2 OR SWAP1 SWAP3 SSTORE DUP5 DUP4 MSTORE PUSH1 0xD PUSH1 0x20 SWAP1 DUP2 MSTORE PUSH1 0x40 DUP1 DUP6 KECCAK256 DUP1 SLOAD DUP5 AND DUP6 OR SWAP1 SSTORE SWAP3 DUP5 MSTORE PUSH1 0xC SWAP1 MSTORE DUP2 DUP4 KECCAK256 DUP1 SLOAD PUSH1 0xFF NOT AND PUSH1 0x1 OR SWAP1 SSTORE SWAP1 MLOAD SWAP2 SWAP1 PUSH3 0xFB6 DUP4 PUSH3 0x1B03 JUMP JUMPDEST DUP2 DUP4 MSTORE CALLER ISZERO PUSH3 0x137E JUMPI PUSH1 0x0 DUP6 DUP2 MSTORE PUSH1 0x4 PUSH1 0x20 MSTORE PUSH1 0x40 SWAP1 KECCAK256 SLOAD PUSH1 0x1 PUSH1 0x1 PUSH1 0xA0 SHL SUB AND SWAP1 DUP2 PUSH3 0x1346 JUMPI JUMPDEST CALLER PUSH1 0x0 MSTORE PUSH1 0x5 PUSH1 0x20 MSTORE PUSH1 0x40 PUSH1 0x0 KECCAK256 PUSH1 0x1 DUP2 SLOAD ADD SWAP1 SSTORE DUP6 PUSH1 0x0 MSTORE PUSH1 0x4 PUSH1 0x20 MSTORE PUSH1 0x40 PUSH1 0x0 KECCAK256 SWAP1 CALLER SWAP1 DUP3 SLOAD AND OR SWAP1 SSTORE DUP5 CALLER DUP3 PUSH32 0xDDF252AD1BE2C89B69C2B068FC378DAA952BA7F163C4A11628F55A4DF523B3EF PUSH1 0x0 DUP1 LOG4 PUSH1 0xD PUSH1 0x20 MSTORE PUSH1 0x40 PUSH1 0x0 KECCAK256 SLOAD PUSH1 0x1 PUSH1 0x1 PUSH1 0xA0 SHL SUB AND DUP2 PUSH3 0x1269 JUMPI JUMPDEST PUSH3 0x1068 SWAP1 CALLER PUSH1 0x0 MSTORE PUSH1 0xF PUSH1 0x20 MSTORE PUSH1 0x40 PUSH1 0x0 KECCAK256 PUSH3 0x20A8 JUMP JUMPDEST PUSH3 0x1251 JUMPI POP CALLER EXTCODESIZE PUSH3 0x1126 JUMPI JUMPDEST POP PUSH1 0x20 SWAP4 PUSH1 0x64 CALLDATALOAD DUP1 PUSH3 0x10E4 JUMPI JUMPDEST POP PUSH3 0x109C PUSH1 0x40 MLOAD SWAP3 PUSH1 0x40 DUP5 MSTORE PUSH1 0x40 DUP5 ADD SWAP1 PUSH3 0x1A61 JUMP JUMPDEST SWAP1 DUP6 DUP4 ADD MSTORE PUSH32 0xE4F1945B022CC1D9D36482C2EE2225BA599106DEEBB0863A97248011337CD36B CALLER SWAP3 DUP1 PUSH1 0x1 DUP1 PUSH1 0xA0 SHL SUB DUP8 AND SWAP4 SUB SWAP1 LOG4 PUSH1 0x40 MLOAD PUSH1 0x1 PUSH1 0x1 PUSH1 0xA0 SHL SUB SWAP1 SWAP2 AND DUP2 MSTORE RETURN JUMPDEST PUSH3 0x111F SWAP1 PUSH1 0x1 PUSH1 0x1 PUSH1 0xA0 SHL SUB DUP7 DUP2 AND SWAP1 CALLER SWAP1 PUSH32 0x0 AND PUSH3 0x20D1 JUMP JUMPDEST CODESIZE PUSH3 0x1084 JUMP JUMPDEST PUSH1 0x40 MLOAD PUSH1 0x20 DUP2 DUP1 PUSH3 0x1162 PUSH4 0xA85BD01 PUSH1 0xE1 SHL SWAP6 DUP7 DUP4 MSTORE CALLER PUSH1 0x4 DUP5 ADD MSTORE PUSH1 0x0 PUSH1 0x24 DUP5 ADD MSTORE DUP9 PUSH1 0x44 DUP5 ADD MSTORE PUSH1 0x80 PUSH1 0x64 DUP5 ADD MSTORE PUSH1 0x84 DUP4 ADD SWAP1 PUSH3 0x1A61 JUMP JUMPDEST SUB DUP2 PUSH1 0x0 CALLER GAS CALL DUP1 SWAP2 PUSH1 0x0 SWAP2 PUSH3 0x1207 JUMPI JUMPDEST POP SWAP1 PUSH3 0x11D7 JUMPI RETURNDATASIZE ISZERO PUSH3 0x11CF JUMPI RETURNDATASIZE PUSH3 0x118E DUP2 PUSH3 0x1B43 JUMP JUMPDEST SWAP1 PUSH3 0x119E PUSH1 0x40 MLOAD SWAP3 DUP4 PUSH3 0x1B20 JUMP JUMPDEST DUP2 MSTORE RETURNDATASIZE PUSH1 0x0 PUSH1 0x20 DUP4 ADD RETURNDATACOPY JUMPDEST DUP1 MLOAD SWAP1 DUP2 PUSH3 0x11CA JUMPI PUSH1 0x40 MLOAD PUSH4 0x32505749 PUSH1 0xE1 SHL DUP2 MSTORE CALLER PUSH1 0x4 DUP3 ADD MSTORE PUSH1 0x24 SWAP1 REVERT JUMPDEST PUSH1 0x20 ADD REVERT JUMPDEST PUSH1 0x60 PUSH3 0x11A9 JUMP JUMPDEST PUSH1 0x1 PUSH1 0x1 PUSH1 0xE0 SHL SUB NOT AND SUB PUSH3 0x11EF JUMPI PUSH1 0x20 PUSH3 0x1076 JUMP JUMPDEST PUSH1 0x40 MLOAD PUSH4 0x32505749 PUSH1 0xE1 SHL DUP2 MSTORE CALLER PUSH1 0x4 DUP3 ADD MSTORE PUSH1 0x24 SWAP1 REVERT JUMPDEST PUSH1 0x20 DUP2 RETURNDATASIZE PUSH1 0x20 GT PUSH3 0x1248 JUMPI JUMPDEST DUP2 PUSH3 0x1223 PUSH1 0x20 SWAP4 DUP4 PUSH3 0x1B20 JUMP JUMPDEST DUP2 ADD SUB SLT PUSH3 0x32E JUMPI MLOAD SWAP1 PUSH1 0x1 PUSH1 0x1 PUSH1 0xE0 SHL SUB NOT DUP3 AND DUP3 SUB PUSH3 0x23F JUMPI POP CODESIZE PUSH3 0x1174 JUMP JUMPDEST RETURNDATASIZE SWAP2 POP PUSH3 0x1214 JUMP JUMPDEST PUSH1 0x24 SWAP1 PUSH1 0x40 MLOAD SWAP1 PUSH4 0x39E35637 PUSH1 0xE1 SHL DUP3 MSTORE PUSH1 0x4 DUP3 ADD MSTORE REVERT JUMPDEST SWAP6 SWAP5 SWAP4 SWAP3 SWAP2 SWAP1 DUP1 PUSH1 0x0 MSTORE PUSH1 0xF PUSH1 0x20 MSTORE PUSH1 0x40 PUSH1 0x0 KECCAK256 PUSH1 0x0 JUMPDEST DUP2 SLOAD DUP1 DUP3 LT ISZERO PUSH3 0x1332 JUMPI DUP10 PUSH3 0x1298 DUP4 DUP6 PUSH3 0x1B9C JUMP JUMPDEST SWAP1 SLOAD PUSH1 0x3 SWAP3 SWAP2 DUP4 SHL SHR PUSH1 0x1 PUSH1 0x1 PUSH1 0xA0 SHL SUB AND EQ PUSH3 0x12C3 JUMPI POP POP PUSH3 0x12BD SWAP1 PUSH3 0x2098 JUMP JUMPDEST PUSH3 0x1280 JUMP JUMPDEST SWAP1 SWAP4 SWAP5 SWAP6 SWAP7 SWAP8 SWAP9 SWAP10 SWAP3 SWAP2 PUSH1 0x0 NOT SWAP5 DUP6 DUP2 ADD SWAP1 DUP2 GT PUSH3 0xCB6 JUMPI PUSH3 0x1307 SWAP3 PUSH3 0x12F1 PUSH3 0xC42 SWAP3 DUP7 PUSH3 0x1B9C JUMP JUMPDEST SWAP1 SLOAD SWAP2 SHL SHR PUSH1 0x1 PUSH1 0x1 PUSH1 0xA0 SHL SUB AND SWAP2 DUP5 PUSH3 0x1B9C JUMP JUMPDEST DUP1 SLOAD SWAP3 DUP4 ISZERO PUSH3 0xCA0 JUMPI PUSH3 0x1068 SWAP4 ADD SWAP1 PUSH3 0x1328 PUSH3 0xC7C DUP4 DUP4 PUSH3 0x1B9C JUMP JUMPDEST SSTORE JUMPDEST SWAP1 POP PUSH3 0x104F JUMP JUMPDEST POP POP POP SWAP1 SWAP2 SWAP3 SWAP4 SWAP5 SWAP6 PUSH3 0x1068 SWAP1 PUSH3 0x132A JUMP JUMPDEST PUSH1 0x0 DUP7 DUP2 MSTORE PUSH1 0x6 PUSH1 0x20 MSTORE PUSH1 0x40 SWAP1 KECCAK256 DUP1 SLOAD PUSH1 0x1 PUSH1 0x1 PUSH1 0xA0 SHL SUB NOT AND SWAP1 SSTORE DUP2 PUSH1 0x0 MSTORE PUSH1 0x5 PUSH1 0x20 MSTORE PUSH1 0x40 PUSH1 0x0 KECCAK256 PUSH1 0x0 NOT DUP2 SLOAD ADD SWAP1 SSTORE PUSH3 0xFE0 JUMP JUMPDEST PUSH1 0x40 MLOAD PUSH4 0x32505749 PUSH1 0xE1 SHL DUP2 MSTORE PUSH1 0x4 DUP2 ADD DUP4 SWAP1 MSTORE PUSH1 0x24 SWAP1 REVERT JUMPDEST PUSH4 0x4E487B71 PUSH1 0xE0 SHL PUSH1 0x0 MSTORE PUSH1 0x32 PUSH1 0x4 MSTORE PUSH1 0x24 PUSH1 0x0 REVERT JUMPDEST PUSH4 0x4E487B71 PUSH1 0xE0 SHL PUSH1 0x0 MSTORE PUSH1 0x41 PUSH1 0x4 MSTORE PUSH1 0x24 PUSH1 0x0 REVERT JUMPDEST PUSH4 0x4E487B71 PUSH1 0xE0 SHL DUP8 MSTORE PUSH1 0x41 PUSH1 0x4 MSTORE PUSH1 0x24 DUP8 REVERT JUMPDEST POP CALLVALUE PUSH3 0x23F JUMPI PUSH1 0x40 CALLDATASIZE PUSH1 0x3 NOT ADD SLT PUSH3 0x23F JUMPI PUSH3 0x13F5 PUSH3 0x1A88 JUMP JUMPDEST SWAP1 PUSH1 0x24 CALLDATALOAD PUSH3 0x1403 PUSH3 0x1BFB JUMP JUMPDEST PUSH1 0x1 DUP1 PUSH1 0xA0 SHL SUB SWAP1 DUP2 DUP5 AND SWAP2 DUP3 DUP5 MSTORE PUSH1 0x20 SWAP5 PUSH1 0xC DUP7 MSTORE PUSH1 0xFF PUSH1 0x40 DUP7 KECCAK256 SLOAD AND ISZERO PUSH3 0x152D JUMPI SWAP5 DUP5 SWAP6 PUSH1 0x40 MLOAD PUSH4 0x8DA5CB5B PUSH1 0xE0 SHL DUP2 MSTORE DUP3 DUP2 PUSH1 0x4 DUP2 DUP10 GAS STATICCALL SWAP1 DUP2 ISZERO PUSH3 0x1522 JUMPI DUP6 SWAP4 DUP9 SWAP3 PUSH3 0x14D8 JUMPI JUMPDEST POP POP PUSH3 0x1480 SWAP4 PUSH32 0x0 AND PUSH3 0x20D1 JUMP JUMPDEST DUP2 EXTCODESIZE ISZERO PUSH3 0x14D4 JUMPI DUP3 SWAP2 PUSH1 0x24 DUP4 SWAP3 PUSH1 0x40 MLOAD SWAP5 DUP6 SWAP4 DUP5 SWAP3 PUSH4 0x5CDD1009 PUSH1 0xE0 SHL DUP5 MSTORE PUSH1 0x4 DUP5 ADD MSTORE GAS CALL DUP1 ISZERO PUSH3 0x14C9 JUMPI PUSH3 0x14B6 JUMPI POP RETURN JUMPDEST PUSH3 0x14C1 SWAP1 PUSH3 0x1AEE JUMP JUMPDEST PUSH3 0x23F JUMPI DUP1 RETURN JUMPDEST PUSH1 0x40 MLOAD RETURNDATASIZE DUP5 DUP3 RETURNDATACOPY RETURNDATASIZE SWAP1 REVERT JUMPDEST POP POP REVERT JUMPDEST DUP2 SWAP4 SWAP5 POP DUP1 SWAP3 POP RETURNDATASIZE DUP4 GT PUSH3 0x151A JUMPI JUMPDEST PUSH3 0x14F4 DUP2 DUP4 PUSH3 0x1B20 JUMP JUMPDEST DUP2 ADD SUB SLT PUSH3 0x1516 JUMPI MLOAD SWAP1 DUP3 DUP3 AND DUP3 SUB PUSH3 0x1516 JUMPI DUP4 SWAP2 PUSH3 0x1480 CODESIZE PUSH3 0x1451 JUMP JUMPDEST DUP6 DUP1 REVERT JUMPDEST POP RETURNDATASIZE PUSH3 0x14E8 JUMP JUMPDEST PUSH1 0x40 MLOAD RETURNDATASIZE DUP10 DUP3 RETURNDATACOPY RETURNDATASIZE SWAP1 REVERT JUMPDEST PUSH1 0x40 MLOAD PUSH3 0x461BCD PUSH1 0xE5 SHL DUP2 MSTORE PUSH1 0x4 DUP2 ADD DUP8 SWAP1 MSTORE PUSH1 0x12 PUSH1 0x24 DUP3 ADD MSTORE PUSH18 0x139BDD0818481CDE5CDD195B481D985D5B1D PUSH1 0x72 SHL PUSH1 0x44 DUP3 ADD MSTORE PUSH1 0x64 SWAP1 REVERT JUMPDEST POP CALLVALUE PUSH3 0x23F JUMPI PUSH3 0x5CB PUSH3 0x157D CALLDATASIZE PUSH3 0x1AB6 JUMP JUMPDEST SWAP1 PUSH1 0x40 MLOAD SWAP3 PUSH3 0x158D DUP5 PUSH3 0x1B03 JUMP JUMPDEST DUP6 DUP5 MSTORE PUSH3 0x5C4 DUP4 DUP4 DUP4 PUSH3 0x1C28 JUMP JUMPDEST POP CALLVALUE PUSH3 0x23F JUMPI DUP1 PUSH1 0x3 NOT CALLDATASIZE ADD SLT PUSH3 0x23F JUMPI PUSH1 0xA SLOAD PUSH1 0x40 MLOAD PUSH1 0x1 PUSH1 0x1 PUSH1 0xA0 SHL SUB SWAP1 SWAP2 AND DUP2 MSTORE PUSH1 0x20 SWAP1 RETURN JUMPDEST POP CALLVALUE PUSH3 0x23F JUMPI PUSH1 0x40 CALLDATASIZE PUSH1 0x3 NOT ADD SLT PUSH3 0x23F JUMPI PUSH1 0x24 CALLDATALOAD PUSH1 0x4 CALLDATALOAD DUP3 MSTORE PUSH1 0x1 PUSH1 0x20 MSTORE PUSH1 0x40 DUP3 KECCAK256 SLOAD SWAP2 PUSH1 0x1 DUP1 PUSH1 0xA0 SHL SUB DUP1 DUP5 AND SWAP4 PUSH1 0xA0 SHR SWAP1 DUP5 ISZERO PUSH3 0x1657 JUMPI JUMPDEST POP PUSH1 0x1 PUSH1 0x1 PUSH1 0x60 SHL SUB AND SWAP2 DUP3 DUP2 MUL SWAP3 DUP2 DUP5 DIV EQ SWAP1 ISZERO OR ISZERO PUSH3 0x1643 JUMPI POP PUSH1 0x40 DUP1 MLOAD PUSH1 0x1 PUSH1 0x1 PUSH1 0xA0 SHL SUB SWAP4 SWAP1 SWAP4 AND DUP4 MSTORE PUSH2 0x2710 SWAP1 SWAP2 DIV PUSH1 0x20 DUP4 ADD MSTORE SWAP1 RETURN JUMPDEST PUSH4 0x4E487B71 PUSH1 0xE0 SHL DUP2 MSTORE PUSH1 0x11 PUSH1 0x4 MSTORE PUSH1 0x24 SWAP1 REVERT JUMPDEST DUP3 SLOAD SWAP1 DUP2 AND SWAP5 POP PUSH1 0xA0 SHR SWAP1 POP PUSH1 0x1 PUSH1 0x1 PUSH1 0x60 SHL SUB PUSH3 0x1606 JUMP JUMPDEST POP CALLVALUE PUSH3 0x23F JUMPI PUSH3 0x5CB PUSH3 0x1687 CALLDATASIZE PUSH3 0x1AB6 JUMP JUMPDEST SWAP2 PUSH3 0x1C28 JUMP JUMPDEST POP CALLVALUE PUSH3 0x23F JUMPI PUSH1 0x20 CALLDATASIZE PUSH1 0x3 NOT ADD SLT PUSH3 0x23F JUMPI PUSH3 0x16AC PUSH3 0x1A88 JUMP JUMPDEST PUSH3 0x16B6 PUSH3 0x1BFB JUMP JUMPDEST PUSH1 0x1 PUSH1 0x1 PUSH1 0xA0 SHL SUB AND DUP1 ISZERO PUSH3 0x16DC JUMPI PUSH1 0x1 PUSH1 0x1 PUSH1 0x60 SHL SUB PUSH1 0xA0 SHL PUSH1 0xA SLOAD AND OR PUSH1 0xA SSTORE DUP1 RETURN JUMPDEST PUSH1 0x40 MLOAD PUSH3 0x461BCD PUSH1 0xE5 SHL DUP2 MSTORE PUSH1 0x20 PUSH1 0x4 DUP3 ADD MSTORE PUSH1 0xF PUSH1 0x24 DUP3 ADD MSTORE PUSH15 0x496E76616C69642061646472657373 PUSH1 0x88 SHL PUSH1 0x44 DUP3 ADD MSTORE PUSH1 0x64 SWAP1 REVERT JUMPDEST POP CALLVALUE PUSH3 0x23F JUMPI PUSH1 0x20 CALLDATASIZE PUSH1 0x3 NOT ADD SLT PUSH3 0x23F JUMPI DUP1 PUSH3 0x1732 PUSH3 0x1A88 JUMP JUMPDEST PUSH3 0x173C PUSH3 0x1BFB JUMP JUMPDEST PUSH1 0x1 PUSH1 0x1 PUSH1 0xA0 SHL SUB AND DUP1 EXTCODESIZE ISZERO PUSH3 0x177F JUMPI DUP2 SWAP1 PUSH1 0x4 PUSH1 0x40 MLOAD DUP1 SWAP5 DUP2 SWAP4 PUSH4 0x178EA6AD PUSH1 0xE0 SHL DUP4 MSTORE GAS CALL DUP1 ISZERO PUSH3 0x14C9 JUMPI PUSH3 0x1774 JUMPI POP DUP1 RETURN JUMPDEST PUSH3 0x5CB SWAP1 PUSH3 0x1AEE JUMP JUMPDEST POP REVERT JUMPDEST POP CALLVALUE PUSH3 0x23F JUMPI PUSH1 0x20 CALLDATASIZE PUSH1 0x3 NOT ADD SLT PUSH3 0x23F JUMPI PUSH1 0x40 PUSH1 0x20 SWAP2 PUSH1 0x4 CALLDATALOAD DUP2 MSTORE PUSH1 0xE DUP4 MSTORE KECCAK256 SLOAD PUSH1 0x40 MLOAD SWAP1 DUP2 MSTORE RETURN JUMPDEST POP CALLVALUE PUSH3 0x23F JUMPI PUSH1 0x40 CALLDATASIZE PUSH1 0x3 NOT ADD SLT PUSH3 0x23F JUMPI PUSH3 0x17CC PUSH3 0x1A88 JUMP JUMPDEST PUSH1 0x24 CALLDATALOAD PUSH3 0x17DA DUP2 PUSH3 0x1EF9 JUMP JUMPDEST CALLER ISZERO ISZERO DUP1 PUSH3 0x1888 JUMPI JUMPDEST DUP1 PUSH3 0x185C JUMPI JUMPDEST PUSH3 0x1844 JUMPI PUSH1 0x1 PUSH1 0x1 PUSH1 0xA0 SHL SUB SWAP3 DUP4 AND SWAP3 DUP3 SWAP2 DUP5 SWAP2 AND PUSH32 0x8C5BE1E5EBEC7D5BD14F71427D1E84F3DD0314C0F7B2291E5B200AC8C7C3B925 DUP7 DUP1 LOG4 DUP3 MSTORE PUSH1 0x6 PUSH1 0x20 MSTORE PUSH1 0x40 DUP3 KECCAK256 DUP1 SLOAD PUSH1 0x1 PUSH1 0x1 PUSH1 0xA0 SHL SUB NOT AND SWAP1 SWAP2 OR SWAP1 SSTORE DUP1 RETURN JUMPDEST PUSH1 0x40 MLOAD PUSH4 0xA9FBF51F PUSH1 0xE0 SHL DUP2 MSTORE CALLER PUSH1 0x4 DUP3 ADD MSTORE PUSH1 0x24 SWAP1 REVERT JUMPDEST POP PUSH1 0x1 PUSH1 0x1 PUSH1 0xA0 SHL SUB DUP2 AND DUP5 MSTORE PUSH1 0x7 PUSH1 0x20 SWAP1 DUP2 MSTORE PUSH1 0x40 DUP1 DUP7 KECCAK256 CALLER DUP8 MSTORE SWAP1 SWAP2 MSTORE DUP5 KECCAK256 SLOAD PUSH1 0xFF AND ISZERO PUSH3 0x17EB JUMP JUMPDEST POP PUSH1 0x1 PUSH1 0x1 PUSH1 0xA0 SHL SUB DUP2 AND CALLER EQ ISZERO PUSH3 0x17E4 JUMP JUMPDEST POP CALLVALUE PUSH3 0x23F JUMPI PUSH1 0x20 CALLDATASIZE PUSH1 0x3 NOT ADD SLT PUSH3 0x23F JUMPI PUSH1 0x20 SWAP1 PUSH1 0x4 CALLDATALOAD PUSH3 0x18C1 DUP2 PUSH3 0x1EF9 JUMP JUMPDEST POP DUP2 MSTORE PUSH1 0x6 DUP3 MSTORE PUSH1 0x40 PUSH1 0x1 DUP1 PUSH1 0xA0 SHL SUB SWAP2 KECCAK256 SLOAD AND PUSH1 0x40 MLOAD SWAP1 DUP2 MSTORE RETURN JUMPDEST POP CALLVALUE PUSH3 0x23F JUMPI DUP1 PUSH1 0x3 NOT CALLDATASIZE ADD SLT PUSH3 0x23F JUMPI PUSH1 0x40 MLOAD SWAP1 DUP1 PUSH1 0x2 SLOAD SWAP2 PUSH1 0x1 DUP4 DUP2 SHR SWAP3 DUP2 DUP6 AND SWAP5 DUP6 ISZERO PUSH3 0x19A1 JUMPI JUMPDEST PUSH1 0x20 SWAP6 DUP7 DUP7 LT DUP2 EQ PUSH3 0x8AF JUMPI DUP6 DUP9 MSTORE DUP8 SWAP5 SWAP4 SWAP3 SWAP2 DUP8 SWAP1 DUP3 ISZERO PUSH3 0x88B JUMPI POP POP PUSH1 0x1 EQ PUSH3 0x1943 JUMPI POP POP PUSH3 0x817 SWAP3 POP SUB DUP4 PUSH3 0x1B20 JUMP JUMPDEST SWAP1 DUP6 SWAP3 POP PUSH1 0x2 DUP3 MSTORE PUSH32 0x405787FA12A823E0F2B7631CC41B3BA8828B3321CA811111FA75CD3AA3BB5ACE JUMPDEST DUP6 DUP4 LT PUSH3 0x1988 JUMPI POP POP PUSH3 0x817 SWAP4 POP DUP3 ADD ADD CODESIZE DUP1 PUSH3 0x807 JUMP JUMPDEST DUP1 SLOAD DUP4 DUP10 ADD DUP6 ADD MSTORE DUP8 SWAP5 POP DUP7 SWAP4 SWAP1 SWAP3 ADD SWAP2 DUP2 ADD PUSH3 0x196D JUMP JUMPDEST SWAP4 PUSH1 0x7F AND SWAP4 PUSH3 0x190B JUMP JUMPDEST SWAP1 POP CALLVALUE PUSH3 0x32E JUMPI PUSH1 0x20 CALLDATASIZE PUSH1 0x3 NOT ADD SLT PUSH3 0x32E JUMPI PUSH1 0x4 CALLDATALOAD PUSH4 0xFFFFFFFF PUSH1 0xE0 SHL DUP2 AND DUP1 SWAP2 SUB PUSH3 0x6C4 JUMPI PUSH1 0x20 SWAP3 POP PUSH4 0x80AC58CD PUSH1 0xE0 SHL DUP2 EQ SWAP1 DUP2 ISZERO PUSH3 0x1A2A JUMPI JUMPDEST DUP2 ISZERO PUSH3 0x19FC JUMPI JUMPDEST POP ISZERO ISZERO DUP2 MSTORE RETURN JUMPDEST PUSH4 0x152A902D PUSH1 0xE1 SHL DUP2 EQ SWAP2 POP DUP2 ISZERO PUSH3 0x1A18 JUMPI JUMPDEST POP CODESIZE PUSH3 0x19F5 JUMP JUMPDEST PUSH4 0x1FFC9A7 PUSH1 0xE0 SHL EQ SWAP1 POP CODESIZE PUSH3 0x1A10 JUMP JUMPDEST PUSH4 0x5B5E139F PUSH1 0xE0 SHL DUP2 EQ SWAP2 POP PUSH3 0x19ED JUMP JUMPDEST PUSH1 0x0 JUMPDEST DUP4 DUP2 LT PUSH3 0x1A50 JUMPI POP POP PUSH1 0x0 SWAP2 ADD MSTORE JUMP JUMPDEST DUP2 DUP2 ADD MLOAD DUP4 DUP3 ADD MSTORE PUSH1 0x20 ADD PUSH3 0x1A3F JUMP JUMPDEST SWAP1 PUSH1 0x20 SWAP2 PUSH3 0x1A7C DUP2 MLOAD DUP1 SWAP3 DUP2 DUP6 MSTORE DUP6 DUP1 DUP7 ADD SWAP2 ADD PUSH3 0x1A3C JUMP JUMPDEST PUSH1 0x1F ADD PUSH1 0x1F NOT AND ADD ADD SWAP1 JUMP JUMPDEST PUSH1 0x4 CALLDATALOAD SWAP1 PUSH1 0x1 PUSH1 0x1 PUSH1 0xA0 SHL SUB DUP3 AND DUP3 SUB PUSH3 0x4D4 JUMPI JUMP JUMPDEST PUSH1 0x24 CALLDATALOAD SWAP1 PUSH1 0x1 PUSH1 0x1 PUSH1 0xA0 SHL SUB DUP3 AND DUP3 SUB PUSH3 0x4D4 JUMPI JUMP JUMPDEST PUSH1 0x60 SWAP1 PUSH1 0x3 NOT ADD SLT PUSH3 0x4D4 JUMPI PUSH1 0x1 PUSH1 0x1 PUSH1 0xA0 SHL SUB SWAP1 PUSH1 0x4 CALLDATALOAD DUP3 DUP2 AND DUP2 SUB PUSH3 0x4D4 JUMPI SWAP2 PUSH1 0x24 CALLDATALOAD SWAP1 DUP2 AND DUP2 SUB PUSH3 0x4D4 JUMPI SWAP1 PUSH1 0x44 CALLDATALOAD SWAP1 JUMP JUMPDEST PUSH8 0xFFFFFFFFFFFFFFFF DUP2 GT PUSH3 0x13AD JUMPI PUSH1 0x40 MSTORE JUMP JUMPDEST PUSH1 0x20 DUP2 ADD SWAP1 DUP2 LT PUSH8 0xFFFFFFFFFFFFFFFF DUP3 GT OR PUSH3 0x13AD JUMPI PUSH1 0x40 MSTORE JUMP JUMPDEST SWAP1 PUSH1 0x1F DUP1 NOT SWAP2 ADD AND DUP2 ADD SWAP1 DUP2 LT PUSH8 0xFFFFFFFFFFFFFFFF DUP3 GT OR PUSH3 0x13AD JUMPI PUSH1 0x40 MSTORE JUMP JUMPDEST PUSH8 0xFFFFFFFFFFFFFFFF DUP2 GT PUSH3 0x13AD JUMPI PUSH1 0x1F ADD PUSH1 0x1F NOT AND PUSH1 0x20 ADD SWAP1 JUMP JUMPDEST SWAP3 SWAP2 SWAP3 PUSH3 0x1B6E DUP3 PUSH3 0x1B43 JUMP JUMPDEST SWAP2 PUSH3 0x1B7E PUSH1 0x40 MLOAD SWAP4 DUP5 PUSH3 0x1B20 JUMP JUMPDEST DUP3 SWAP5 DUP2 DUP5 MSTORE DUP2 DUP4 ADD GT PUSH3 0x4D4 JUMPI DUP3 DUP2 PUSH1 0x20 SWAP4 DUP5 PUSH1 0x0 SWAP7 ADD CALLDATACOPY ADD ADD MSTORE JUMP JUMPDEST DUP1 SLOAD DUP3 LT ISZERO PUSH3 0x1397 JUMPI PUSH1 0x0 MSTORE PUSH1 0x20 PUSH1 0x0 KECCAK256 ADD SWAP1 PUSH1 0x0 SWAP1 JUMP JUMPDEST PUSH1 0x20 SWAP1 DUP2 PUSH1 0x40 DUP2 DUP4 ADD SWAP3 DUP3 DUP2 MSTORE DUP6 MLOAD DUP1 SWAP5 MSTORE ADD SWAP4 ADD SWAP2 PUSH1 0x0 JUMPDEST DUP3 DUP2 LT PUSH3 0x1BDD JUMPI POP POP POP POP SWAP1 JUMP JUMPDEST DUP4 MLOAD PUSH1 0x1 PUSH1 0x1 PUSH1 0xA0 SHL SUB AND DUP6 MSTORE SWAP4 DUP2 ADD SWAP4 SWAP3 DUP2 ADD SWAP3 PUSH1 0x1 ADD PUSH3 0x1BCE JUMP JUMPDEST PUSH1 0x8 SLOAD PUSH1 0x1 PUSH1 0x1 PUSH1 0xA0 SHL SUB AND CALLER SUB PUSH3 0x1C10 JUMPI JUMP JUMPDEST PUSH1 0x40 MLOAD PUSH4 0x118CDAA7 PUSH1 0xE0 SHL DUP2 MSTORE CALLER PUSH1 0x4 DUP3 ADD MSTORE PUSH1 0x24 SWAP1 REVERT JUMPDEST PUSH1 0x1 PUSH1 0x1 PUSH1 0xA0 SHL SUB SWAP2 DUP3 AND SWAP3 DUP4 ISZERO PUSH3 0x1EE0 JUMPI PUSH1 0x0 SWAP2 DUP2 DUP4 MSTORE PUSH1 0x4 SWAP4 PUSH1 0x20 SWAP2 DUP6 DUP4 MSTORE PUSH1 0x40 SWAP3 DUP3 DUP5 DUP8 KECCAK256 SLOAD AND SWAP6 CALLER ISZERO ISZERO DUP1 PUSH3 0x1E46 JUMPI JUMPDEST POP DUP7 ISZERO ISZERO SWAP2 DUP3 PUSH3 0x1E12 JUMPI JUMPDEST DUP10 DUP3 MSTORE PUSH1 0x5 DUP2 MSTORE DUP6 DUP3 KECCAK256 DUP1 SLOAD PUSH1 0x1 SWAP1 DUP2 ADD SWAP1 SWAP2 SSTORE DUP8 DUP4 MSTORE DUP10 DUP3 MSTORE DUP7 DUP4 KECCAK256 DUP1 SLOAD PUSH1 0x1 PUSH1 0x1 PUSH1 0xA0 SHL SUB NOT AND DUP13 OR SWAP1 SSTORE SWAP10 DUP8 DUP2 DUP11 PUSH32 0xDDF252AD1BE2C89B69C2B068FC378DAA952BA7F163C4A11628F55A4DF523B3EF DUP7 DUP1 LOG4 PUSH1 0xD DUP3 MSTORE DUP6 DUP8 DUP5 KECCAK256 SLOAD AND SWAP4 PUSH3 0x1D1C JUMPI JUMPDEST DUP7 SWAP8 SWAP9 SWAP10 SWAP11 POP DUP3 SWAP2 PUSH1 0xF SWAP2 PUSH3 0x1CEC SWAP7 SWAP8 SWAP9 SWAP5 MSTORE MSTORE KECCAK256 PUSH3 0x20A8 JUMP JUMPDEST AND SWAP1 DUP2 DUP5 SUB PUSH3 0x1CFD JUMPI POP POP POP POP POP JUMP JUMPDEST MLOAD PUSH4 0x64283D7B PUSH1 0xE0 SHL DUP2 MSTORE SWAP4 DUP5 ADD MSTORE PUSH1 0x24 DUP4 ADD MSTORE PUSH1 0x44 DUP3 ADD MSTORE PUSH1 0x64 SWAP2 POP REVERT JUMPDEST DUP9 DUP4 MSTORE PUSH1 0xF DUP3 MSTORE DUP7 DUP4 KECCAK256 DUP4 DUP13 JUMPDEST PUSH3 0x1D37 JUMPI JUMPDEST POP POP PUSH3 0x1CD0 JUMP JUMPDEST DUP2 SLOAD DUP1 DUP3 LT ISZERO PUSH3 0x1E0B JUMPI DUP9 DUP8 PUSH3 0x1D50 DUP5 DUP7 PUSH3 0x1B9C JUMP JUMPDEST SWAP3 SWAP1 SLOAD PUSH1 0x3 SWAP4 DUP5 SHL SHR AND EQ PUSH3 0x1D74 JUMPI POP POP PUSH3 0x1D6D SWAP1 PUSH3 0x2098 JUMP JUMPDEST DUP13 PUSH3 0x1D29 JUMP JUMPDEST SWAP1 SWAP3 SWAP4 SWAP5 SWAP6 SWAP7 SWAP8 SWAP9 SWAP10 SWAP11 SWAP12 SWAP13 SWAP14 POP PUSH1 0x0 NOT SWAP3 DUP4 DUP2 ADD SWAP1 DUP2 GT PUSH3 0x1DF8 JUMPI DUP11 PUSH3 0x1DA8 SWAP4 SWAP3 PUSH3 0xC34 PUSH3 0xC42 SWAP4 DUP9 PUSH3 0x1B9C JUMP JUMPDEST DUP2 SLOAD DUP1 ISZERO PUSH3 0x1DE5 JUMPI SWAP3 PUSH1 0xF SWAP3 DUP11 SWAP6 SWAP3 PUSH3 0x1CEC SWAP9 SWAP8 SWAP6 ADD SWAP1 PUSH3 0x1DD1 PUSH3 0xC7C DUP4 DUP4 PUSH3 0x1B9C JUMP JUMPDEST SSTORE SWAP2 DUP13 SWAP12 SWAP11 SWAP10 POP DUP2 SWAP4 SWAP5 SWAP9 SWAP8 SWAP7 POP PUSH3 0x1D2F JUMP JUMPDEST PUSH4 0x4E487B71 PUSH1 0xE0 SHL DUP7 MSTORE PUSH1 0x31 DUP14 MSTORE PUSH1 0x24 DUP7 REVERT JUMPDEST PUSH4 0x4E487B71 PUSH1 0xE0 SHL DUP9 MSTORE PUSH1 0x11 DUP16 MSTORE PUSH1 0x24 DUP9 REVERT JUMPDEST POP PUSH3 0x1D2F JUMP JUMPDEST PUSH1 0x0 DUP8 DUP2 MSTORE PUSH1 0x6 PUSH1 0x20 MSTORE PUSH1 0x40 SWAP1 KECCAK256 DUP1 SLOAD PUSH1 0x1 PUSH1 0x1 PUSH1 0xA0 SHL SUB NOT AND SWAP1 SSTORE DUP8 DUP3 MSTORE PUSH1 0x5 DUP2 MSTORE DUP6 DUP3 KECCAK256 DUP1 SLOAD PUSH1 0x0 NOT ADD SWAP1 SSTORE PUSH3 0x1C6A JUMP JUMPDEST DUP1 PUSH3 0x1E9B JUMPI JUMPDEST ISZERO PUSH3 0x1E5A JUMPI CODESIZE PUSH3 0x1C5E JUMP JUMPDEST DUP6 DUP9 DUP7 DUP10 PUSH3 0x1E78 JUMPI SWAP2 PUSH1 0x24 SWAP3 MLOAD SWAP2 PUSH4 0x7E273289 PUSH1 0xE0 SHL DUP4 MSTORE DUP3 ADD MSTORE REVERT JUMPDEST MLOAD PUSH4 0x177E802F PUSH1 0xE0 SHL DUP2 MSTORE CALLER SWAP2 DUP2 ADD SWAP2 DUP3 MSTORE PUSH1 0x20 DUP3 ADD SWAP3 SWAP1 SWAP3 MSTORE DUP2 SWAP1 PUSH1 0x40 ADD SUB SWAP1 REVERT JUMPDEST POP CALLER DUP8 EQ DUP1 ISZERO PUSH3 0x1EC3 JUMPI JUMPDEST DUP1 PUSH3 0x1E4D JUMPI POP DUP6 DUP2 MSTORE PUSH1 0x6 DUP3 MSTORE CALLER DUP5 DUP7 DUP4 KECCAK256 SLOAD AND EQ PUSH3 0x1E4D JUMP JUMPDEST POP DUP7 DUP2 MSTORE PUSH1 0x7 DUP3 MSTORE DUP5 DUP2 KECCAK256 CALLER DUP3 MSTORE DUP3 MSTORE PUSH1 0xFF DUP6 DUP3 KECCAK256 SLOAD AND PUSH3 0x1EA7 JUMP JUMPDEST PUSH1 0x40 MLOAD PUSH4 0x32505749 PUSH1 0xE1 SHL DUP2 MSTORE PUSH1 0x0 PUSH1 0x4 DUP3 ADD MSTORE PUSH1 0x24 SWAP1 REVERT JUMPDEST PUSH1 0x0 DUP2 DUP2 MSTORE PUSH1 0x4 PUSH1 0x20 MSTORE PUSH1 0x40 SWAP1 KECCAK256 SLOAD PUSH1 0x1 PUSH1 0x1 PUSH1 0xA0 SHL SUB AND SWAP1 DUP2 ISZERO PUSH3 0x1F1D JUMPI POP SWAP1 JUMP JUMPDEST PUSH1 0x24 SWAP1 PUSH1 0x40 MLOAD SWAP1 PUSH4 0x7E273289 PUSH1 0xE0 SHL DUP3 MSTORE PUSH1 0x4 DUP3 ADD MSTORE REVERT JUMPDEST SWAP1 SWAP4 SWAP2 SWAP3 DUP4 EXTCODESIZE PUSH3 0x1F48 JUMPI JUMPDEST POP POP POP POP POP JUMP JUMPDEST PUSH1 0x40 MLOAD PUSH4 0xA85BD01 PUSH1 0xE1 SHL DUP1 DUP3 MSTORE PUSH1 0x1 PUSH1 0x1 PUSH1 0xA0 SHL SUB SWAP4 DUP5 AND PUSH1 0x4 DUP4 ADD MSTORE SWAP6 DUP4 AND PUSH1 0x24 DUP3 ADD MSTORE PUSH1 0x44 DUP2 ADD SWAP2 SWAP1 SWAP2 MSTORE PUSH1 0x80 PUSH1 0x64 DUP3 ADD MSTORE SWAP5 SWAP3 AND SWAP3 PUSH1 0x20 SWAP3 SWAP2 DUP6 SWAP1 PUSH3 0x1F97 SWAP1 PUSH1 0x84 DUP4 ADD SWAP1 PUSH3 0x1A61 JUMP JUMPDEST SUB SWAP5 DUP4 DUP2 PUSH1 0x0 SWAP8 DUP2 DUP10 DUP10 GAS CALL DUP7 SWAP2 DUP2 PUSH3 0x204D JUMPI JUMPDEST POP PUSH3 0x2015 JUMPI POP POP POP RETURNDATASIZE PUSH1 0x0 EQ PUSH3 0x200B JUMPI RETURNDATASIZE PUSH3 0x1FCA DUP2 PUSH3 0x1B43 JUMP JUMPDEST SWAP1 PUSH3 0x1FDA PUSH1 0x40 MLOAD SWAP3 DUP4 PUSH3 0x1B20 JUMP JUMPDEST DUP2 MSTORE DUP1 SWAP4 DUP3 RETURNDATASIZE SWAP3 ADD RETURNDATACOPY JUMPDEST DUP3 MLOAD SWAP3 DUP4 PUSH3 0x2006 JUMPI PUSH1 0x40 MLOAD PUSH4 0x32505749 PUSH1 0xE1 SHL DUP2 MSTORE PUSH1 0x4 DUP2 ADD DUP5 SWAP1 MSTORE PUSH1 0x24 SWAP1 REVERT JUMPDEST ADD SWAP1 POP REVERT JUMPDEST PUSH1 0x60 SWAP3 POP PUSH3 0x1FE4 JUMP JUMPDEST SWAP2 SWAP5 POP SWAP2 POP PUSH4 0xFFFFFFFF PUSH1 0xE0 SHL AND SUB PUSH3 0x2035 JUMPI POP CODESIZE DUP1 DUP1 DUP1 DUP1 PUSH3 0x1F41 JUMP JUMPDEST PUSH1 0x24 SWAP1 PUSH1 0x40 MLOAD SWAP1 PUSH4 0x32505749 PUSH1 0xE1 SHL DUP3 MSTORE PUSH1 0x4 DUP3 ADD MSTORE REVERT JUMPDEST SWAP1 SWAP2 POP DUP5 DUP2 DUP2 RETURNDATASIZE DUP4 GT PUSH3 0x2090 JUMPI JUMPDEST PUSH3 0x2068 DUP2 DUP4 PUSH3 0x1B20 JUMP JUMPDEST DUP2 ADD SUB SLT PUSH3 0x208C JUMPI MLOAD PUSH1 0x1 PUSH1 0x1 PUSH1 0xE0 SHL SUB NOT DUP2 AND DUP2 SUB PUSH3 0x208C JUMPI SWAP1 CODESIZE PUSH3 0x1FAC JUMP JUMPDEST DUP7 DUP1 REVERT JUMPDEST POP RETURNDATASIZE PUSH3 0x205C JUMP JUMPDEST PUSH1 0x0 NOT DUP2 EQ PUSH3 0xCB6 JUMPI PUSH1 0x1 ADD SWAP1 JUMP JUMPDEST SWAP1 DUP2 SLOAD SWAP2 PUSH1 0x1 PUSH1 0x40 SHL DUP4 LT ISZERO PUSH3 0x13AD JUMPI DUP3 PUSH3 0xC42 SWAP2 PUSH1 0x1 PUSH3 0x20CF SWAP6 ADD DUP2 SSTORE PUSH3 0x1B9C JUMP JUMPDEST JUMP JUMPDEST PUSH1 0x40 MLOAD PUSH4 0x23B872DD PUSH1 0xE0 SHL PUSH1 0x20 DUP3 ADD SWAP1 DUP2 MSTORE PUSH1 0x1 PUSH1 0x1 PUSH1 0xA0 SHL SUB SWAP4 DUP5 AND PUSH1 0x24 DUP4 ADD MSTORE SWAP4 DUP4 AND PUSH1 0x44 DUP3 ADD MSTORE PUSH1 0x64 DUP1 DUP3 ADD SWAP6 SWAP1 SWAP6 MSTORE SWAP4 DUP5 MSTORE SWAP3 SWAP1 SWAP2 PUSH1 0xA0 DUP3 ADD SWAP1 PUSH8 0xFFFFFFFFFFFFFFFF DUP3 GT DUP4 DUP4 LT OR PUSH3 0x13AD JUMPI PUSH1 0x20 SWAP3 PUSH1 0x0 SWAP3 PUSH1 0x40 MSTORE MLOAD SWAP1 DUP3 DUP7 GAS CALL ISZERO PUSH3 0x2175 JUMPI PUSH1 0x0 MLOAD RETURNDATASIZE PUSH3 0x216B JUMPI POP DUP1 DUP3 AND EXTCODESIZE ISZERO JUMPDEST PUSH3 0x2151 JUMPI POP POP JUMP JUMPDEST PUSH1 0x40 MLOAD PUSH4 0x5274AFE7 PUSH1 0xE0 SHL DUP2 MSTORE SWAP2 AND PUSH1 0x4 DUP3 ADD MSTORE PUSH1 0x24 SWAP2 POP REVERT JUMPDEST PUSH1 0x1 EQ ISZERO PUSH3 0x2148 JUMP JUMPDEST PUSH1 0x40 MLOAD RETURNDATASIZE PUSH1 0x0 DUP3 RETURNDATACOPY RETURNDATASIZE SWAP1 REVERT JUMPDEST PUSH1 0x20 DUP2 DUP4 SUB SLT PUSH3 0x4D4 JUMPI DUP1 MLOAD SWAP1 PUSH8 0xFFFFFFFFFFFFFFFF DUP3 GT PUSH3 0x4D4 JUMPI ADD DUP2 PUSH1 0x1F DUP3 ADD SLT ISZERO PUSH3 0x4D4 JUMPI DUP1 MLOAD PUSH3 0x21B9 DUP2 PUSH3 0x1B43 JUMP JUMPDEST SWAP3 PUSH3 0x21C9 PUSH1 0x40 MLOAD SWAP5 DUP6 PUSH3 0x1B20 JUMP JUMPDEST DUP2 DUP5 MSTORE PUSH1 0x20 DUP3 DUP5 ADD ADD GT PUSH3 0x4D4 JUMPI PUSH3 0x21EA SWAP2 PUSH1 0x20 DUP1 DUP6 ADD SWAP2 ADD PUSH3 0x1A3C JUMP JUMPDEST SWAP1 JUMP INVALID PUSH1 0xE0 PUSH1 0x40 MSTORE CALLVALUE PUSH3 0x467 JUMPI PUSH3 0x1646 DUP1 CODESIZE SUB DUP1 PUSH3 0x1D DUP2 PUSH3 0x46C JUMP JUMPDEST SWAP3 DUP4 CODECOPY DUP2 ADD PUSH1 0xE0 DUP3 DUP3 SUB SLT PUSH3 0x467 JUMPI PUSH3 0x38 DUP3 PUSH3 0x492 JUMP JUMPDEST PUSH1 0x20 DUP4 ADD MLOAD SWAP1 SWAP2 PUSH1 0x1 PUSH1 0x1 PUSH1 0x40 SHL SUB SWAP2 DUP3 DUP2 GT PUSH3 0x467 JUMPI DUP5 ADD DUP2 PUSH1 0x1F DUP3 ADD SLT ISZERO PUSH3 0x467 JUMPI DUP1 MLOAD DUP4 DUP2 GT PUSH3 0x451 JUMPI PUSH3 0x7D PUSH1 0x1F DUP3 ADD PUSH1 0x1F NOT AND PUSH1 0x20 ADD PUSH3 0x46C JUMP JUMPDEST SWAP3 DUP2 DUP5 MSTORE PUSH1 0x20 DUP3 DUP5 ADD ADD GT PUSH3 0x467 JUMPI PUSH3 0x9F SWAP2 PUSH1 0x20 DUP1 DUP6 ADD SWAP2 ADD PUSH3 0x4A7 JUMP JUMPDEST PUSH1 0x40 DUP5 ADD MLOAD PUSH1 0x60 DUP6 ADD MLOAD SWAP1 PUSH1 0x80 DUP7 ADD MLOAD SWAP3 PUSH3 0xCC PUSH1 0xC0 PUSH3 0xC4 PUSH1 0xA0 DUP11 ADD PUSH3 0x492 JUMP JUMPDEST SWAP9 ADD PUSH3 0x492 JUMP JUMPDEST SWAP5 PUSH1 0x1 PUSH1 0x0 SSTORE CALLER PUSH1 0x80 MSTORE DUP3 PUSH1 0xA0 MSTORE DUP2 MLOAD SWAP1 DUP2 GT PUSH3 0x451 JUMPI PUSH1 0x1 SLOAD PUSH1 0x1 DUP2 DUP2 SHR SWAP2 AND DUP1 ISZERO PUSH3 0x446 JUMPI JUMPDEST PUSH1 0x20 DUP3 LT EQ PUSH3 0x430 JUMPI PUSH1 0x1F DUP2 GT PUSH3 0x3CA JUMPI JUMPDEST POP PUSH1 0x20 PUSH1 0x1F DUP3 GT PUSH1 0x1 EQ PUSH3 0x34B JUMPI SWAP1 DUP1 PUSH1 0x0 DUP1 MLOAD PUSH1 0x20 PUSH3 0x1626 DUP4 CODECOPY DUP2 MLOAD SWAP2 MSTORE SWAP4 SWAP3 PUSH1 0x0 SWAP2 PUSH3 0x33F JUMPI JUMPDEST POP DUP2 PUSH1 0x1 SHL SWAP2 PUSH1 0x0 NOT SWAP1 PUSH1 0x3 SHL SHR NOT AND OR PUSH1 0x1 SSTORE JUMPDEST PUSH1 0x40 DUP1 MLOAD DUP1 SWAP3 PUSH1 0x20 DUP3 MSTORE PUSH3 0x170 DUP2 MLOAD DUP1 SWAP3 DUP2 PUSH1 0x20 DUP7 ADD MSTORE PUSH1 0x20 DUP7 DUP7 ADD SWAP2 ADD PUSH3 0x4A7 JUMP JUMPDEST PUSH1 0x1F ADD PUSH1 0x1F NOT AND DUP2 ADD SUB ADD SWAP1 LOG2 PUSH1 0x1 PUSH1 0x1 PUSH1 0xA0 SHL SUB SWAP4 DUP5 AND DUP1 ISZERO PUSH3 0x2FA JUMPI TIMESTAMP DUP3 GT ISZERO PUSH3 0x2B5 JUMPI PUSH2 0x2710 DUP4 GT PUSH3 0x270 JUMPI PUSH1 0xC0 MSTORE PUSH1 0x2 SSTORE PUSH1 0x3 SSTORE DUP2 PUSH1 0x1 DUP1 PUSH1 0xA0 SHL SUB NOT SWAP4 AND DUP4 PUSH1 0x4 SLOAD AND OR PUSH1 0x4 SSTORE AND SWAP1 PUSH1 0x5 SLOAD AND OR PUSH1 0x5 SSTORE PUSH1 0x40 MLOAD PUSH2 0x1159 SWAP1 DUP2 PUSH3 0x4CD DUP3 CODECOPY PUSH1 0x80 MLOAD DUP2 DUP2 DUP2 PUSH1 0x45 ADD MSTORE DUP2 DUP2 PUSH2 0x238 ADD MSTORE DUP2 DUP2 PUSH2 0x32D ADD MSTORE DUP2 DUP2 PUSH2 0x446 ADD MSTORE DUP2 DUP2 PUSH2 0x6FC ADD MSTORE DUP2 DUP2 PUSH2 0x94B ADD MSTORE DUP2 DUP2 PUSH2 0xBC1 ADD MSTORE PUSH2 0xF76 ADD MSTORE PUSH1 0xA0 MLOAD DUP2 DUP2 DUP2 PUSH1 0x8F ADD MSTORE DUP2 DUP2 PUSH2 0x281 ADD MSTORE DUP2 DUP2 PUSH2 0x487 ADD MSTORE DUP2 DUP2 PUSH2 0x77D ADD MSTORE DUP2 DUP2 PUSH2 0x98C ADD MSTORE DUP2 DUP2 PUSH2 0xB79 ADD MSTORE DUP2 DUP2 PUSH2 0xCB9 ADD MSTORE PUSH2 0xF41 ADD MSTORE PUSH1 0xC0 MLOAD DUP2 DUP2 DUP2 PUSH2 0x1A9 ADD MSTORE DUP2 DUP2 PUSH2 0x402 ADD MSTORE DUP2 DUP2 PUSH2 0x87B ADD MSTORE DUP2 DUP2 PUSH2 0xC23 ADD MSTORE PUSH2 0xE5F ADD MSTORE RETURN JUMPDEST PUSH1 0x40 MLOAD PUSH3 0x461BCD PUSH1 0xE5 SHL DUP2 MSTORE PUSH1 0x20 PUSH1 0x4 DUP3 ADD MSTORE PUSH1 0x14 PUSH1 0x24 DUP3 ADD MSTORE PUSH32 0x496E76616C696420626173697320706F696E7473000000000000000000000000 PUSH1 0x44 DUP3 ADD MSTORE PUSH1 0x64 SWAP1 REVERT JUMPDEST PUSH1 0x40 MLOAD PUSH3 0x461BCD PUSH1 0xE5 SHL DUP2 MSTORE PUSH1 0x20 PUSH1 0x4 DUP3 ADD MSTORE PUSH1 0x1D PUSH1 0x24 DUP3 ADD MSTORE PUSH32 0x556E6C6F636B2074696D65206D75737420626520696E20667574757265000000 PUSH1 0x44 DUP3 ADD MSTORE PUSH1 0x64 SWAP1 REVERT JUMPDEST PUSH1 0x40 MLOAD PUSH3 0x461BCD PUSH1 0xE5 SHL DUP2 MSTORE PUSH1 0x20 PUSH1 0x4 DUP3 ADD MSTORE PUSH1 0x15 PUSH1 0x24 DUP3 ADD MSTORE PUSH32 0x496E76616C696420746F6B656E20616464726573730000000000000000000000 PUSH1 0x44 DUP3 ADD MSTORE PUSH1 0x64 SWAP1 REVERT JUMPDEST SWAP1 POP DUP3 ADD MLOAD CODESIZE PUSH3 0x136 JUMP JUMPDEST PUSH1 0x1 PUSH1 0x0 MSTORE PUSH1 0x20 PUSH1 0x0 KECCAK256 SWAP1 PUSH1 0x0 JUMPDEST PUSH1 0x1F NOT DUP5 AND DUP2 LT PUSH3 0x3B1 JUMPI POP SWAP2 PUSH1 0x1 SWAP2 PUSH1 0x0 DUP1 MLOAD PUSH1 0x20 PUSH3 0x1626 DUP4 CODECOPY DUP2 MLOAD SWAP2 MSTORE SWAP5 SWAP4 DUP3 PUSH1 0x1F NOT DUP2 AND LT PUSH3 0x397 JUMPI JUMPDEST POP POP DUP2 SHL ADD PUSH1 0x1 SSTORE PUSH3 0x14B JUMP JUMPDEST DUP5 ADD MLOAD PUSH1 0x0 NOT PUSH1 0xF8 DUP5 PUSH1 0x3 SHL AND SHR NOT AND SWAP1 SSTORE CODESIZE DUP1 PUSH3 0x389 JUMP JUMPDEST SWAP1 SWAP2 PUSH1 0x20 PUSH1 0x1 DUP2 SWAP3 DUP6 DUP9 ADD MLOAD DUP2 SSTORE ADD SWAP4 ADD SWAP2 ADD PUSH3 0x359 JUMP JUMPDEST PUSH1 0x1 PUSH1 0x0 MSTORE PUSH32 0xB10E2D527612073B26EECDFD717E6A320CF44B4AFAC2B0732D9FCBE2B7FA0CF6 PUSH1 0x1F DUP4 ADD PUSH1 0x5 SHR DUP2 ADD PUSH1 0x20 DUP5 LT PUSH3 0x428 JUMPI JUMPDEST PUSH1 0x1F DUP4 ADD PUSH1 0x5 SHR DUP3 ADD DUP2 LT PUSH3 0x41B JUMPI POP POP PUSH3 0x10A JUMP JUMPDEST PUSH1 0x0 DUP2 SSTORE PUSH1 0x1 ADD PUSH3 0x403 JUMP JUMPDEST POP DUP1 PUSH3 0x403 JUMP JUMPDEST PUSH4 0x4E487B71 PUSH1 0xE0 SHL PUSH1 0x0 MSTORE PUSH1 0x22 PUSH1 0x4 MSTORE PUSH1 0x24 PUSH1 0x0 REVERT JUMPDEST SWAP1 PUSH1 0x7F AND SWAP1 PUSH3 0xF6 JUMP JUMPDEST PUSH4 0x4E487B71 PUSH1 0xE0 SHL PUSH1 0x0 MSTORE PUSH1 0x41 PUSH1 0x4 MSTORE PUSH1 0x24 PUSH1 0x0 REVERT JUMPDEST PUSH1 0x0 DUP1 REVERT JUMPDEST PUSH1 0x40 MLOAD SWAP2 SWAP1 PUSH1 0x1F ADD PUSH1 0x1F NOT AND DUP3 ADD PUSH1 0x1 PUSH1 0x1 PUSH1 0x40 SHL SUB DUP2 GT DUP4 DUP3 LT OR PUSH3 0x451 JUMPI PUSH1 0x40 MSTORE JUMP JUMPDEST MLOAD SWAP1 PUSH1 0x1 PUSH1 0x1 PUSH1 0xA0 SHL SUB DUP3 AND DUP3 SUB PUSH3 0x467 JUMPI JUMP JUMPDEST PUSH1 0x0 JUMPDEST DUP4 DUP2 LT PUSH3 0x4BB JUMPI POP POP PUSH1 0x0 SWAP2 ADD MSTORE JUMP JUMPDEST DUP2 DUP2 ADD MLOAD DUP4 DUP3 ADD MSTORE PUSH1 0x20 ADD PUSH3 0x4AA JUMP INVALID PUSH1 0x80 PUSH1 0x40 DUP2 DUP2 MSTORE PUSH1 0x4 SWAP2 DUP3 CALLDATASIZE LT ISZERO PUSH2 0xDC JUMPI JUMPDEST POP CALLDATASIZE ISZERO PUSH2 0x1E JUMPI PUSH1 0x0 DUP1 REVERT JUMPDEST CALLVALUE PUSH2 0x25 JUMPI STOP JUMPDEST DUP1 MLOAD CALLVALUE DUP2 MSTORE TIMESTAMP PUSH1 0x20 DUP3 ADD MSTORE PUSH1 0x0 DUP1 MLOAD PUSH1 0x20 PUSH2 0x1104 DUP4 CODECOPY DUP2 MLOAD SWAP2 MSTORE DUP3 CALLER SWAP3 LOG2 PUSH32 0x0 PUSH1 0x1 PUSH1 0x1 PUSH1 0xA0 SHL SUB AND SWAP2 DUP3 EXTCODESIZE ISZERO PUSH2 0xD7 JUMPI PUSH1 0x0 SWAP3 PUSH1 0x24 DUP5 SWAP3 DUP5 MLOAD SWAP6 DUP7 SWAP4 DUP5 SWAP3 PUSH4 0x2B9343DB PUSH1 0xE1 SHL DUP5 MSTORE PUSH32 0x0 SWAP1 DUP5 ADD MSTORE GAS CALL SWAP1 DUP2 ISZERO PUSH2 0xCD JUMPI POP PUSH2 0xC2 JUMPI STOP JUMPDEST PUSH2 0xCB SWAP1 PUSH2 0xEE6 JUMP JUMPDEST STOP JUMPDEST MLOAD RETURNDATASIZE PUSH1 0x0 DUP3 RETURNDATACOPY RETURNDATASIZE SWAP1 REVERT JUMPDEST PUSH1 0x0 DUP1 REVERT JUMPDEST PUSH1 0x0 SWAP1 DUP2 CALLDATALOAD PUSH1 0xE0 SHR SWAP1 DUP2 PUSH4 0x1E1D114 EQ PUSH2 0xE34 JUMPI POP DUP1 PUSH4 0x178EA6AD EQ PUSH2 0xB9C JUMPI DUP1 PUSH4 0x17D70F7C EQ PUSH2 0xB61 JUMPI DUP1 PUSH4 0x38AF3EED EQ PUSH2 0xB38 JUMPI DUP1 PUSH4 0x3CCFD60B EQ PUSH2 0x82C JUMPI DUP1 PUSH4 0x5CDD1009 EQ PUSH2 0x6D3 JUMPI DUP1 PUSH4 0x61D027B3 EQ PUSH2 0x6A7 JUMPI DUP1 PUSH4 0x70740AAB EQ PUSH2 0x565 JUMPI DUP1 PUSH4 0x8DA5CB5B EQ PUSH2 0x537 JUMPI DUP1 PUSH4 0xAA082A9D EQ PUSH2 0x518 JUMPI DUP1 PUSH4 0xB6B55F25 EQ PUSH2 0x379 JUMPI DUP1 PUSH4 0xC1A287E2 EQ PUSH2 0x35C JUMPI DUP1 PUSH4 0xC45A0155 EQ PUSH2 0x318 JUMPI DUP1 PUSH4 0xD0E30DB0 EQ PUSH2 0x1FB JUMPI DUP1 PUSH4 0xECFAD9FD EQ PUSH2 0x1DC JUMPI PUSH4 0xFC0C546A SUB PUSH2 0x12 JUMPI SWAP1 CALLVALUE PUSH2 0x1D8 JUMPI DUP2 PUSH1 0x3 NOT CALLDATASIZE ADD SLT PUSH2 0x1D8 JUMPI MLOAD PUSH32 0x0 PUSH1 0x1 PUSH1 0x1 PUSH1 0xA0 SHL SUB AND DUP2 MSTORE PUSH1 0x20 SWAP1 RETURN JUMPDEST POP DUP1 REVERT JUMPDEST POP SWAP1 CALLVALUE PUSH2 0x1D8 JUMPI DUP2 PUSH1 0x3 NOT CALLDATASIZE ADD SLT PUSH2 0x1D8 JUMPI PUSH1 0x20 SWAP1 PUSH1 0x3 SLOAD SWAP1 MLOAD SWAP1 DUP2 MSTORE RETURN JUMPDEST POP DUP3 DUP2 PUSH1 0x3 NOT CALLDATASIZE ADD SLT PUSH2 0x1D8 JUMPI PUSH2 0x210 PUSH2 0xFF4 JUMP JUMPDEST CALLVALUE ISZERO PUSH2 0x2E0 JUMPI DUP3 DUP3 SWAP4 MLOAD CALLVALUE DUP2 MSTORE TIMESTAMP PUSH1 0x20 DUP3 ADD MSTORE PUSH1 0x0 DUP1 MLOAD PUSH1 0x20 PUSH2 0x1104 DUP4 CODECOPY DUP2 MLOAD SWAP2 MSTORE DUP3 CALLER SWAP3 LOG2 PUSH32 0x0 PUSH1 0x1 PUSH1 0x1 PUSH1 0xA0 SHL SUB AND SWAP2 DUP3 EXTCODESIZE ISZERO PUSH2 0x2DB JUMPI DUP4 SWAP3 PUSH1 0x24 DUP5 SWAP3 DUP5 MLOAD SWAP6 DUP7 SWAP4 DUP5 SWAP3 PUSH4 0x2B9343DB PUSH1 0xE1 SHL DUP5 MSTORE PUSH32 0x0 SWAP1 DUP5 ADD MSTORE GAS CALL SWAP1 DUP2 ISZERO PUSH2 0x2D2 JUMPI POP PUSH2 0x2BB JUMPI JUMPDEST POP PUSH1 0x1 SWAP1 SSTORE DUP1 RETURN JUMPDEST PUSH2 0x2C4 SWAP1 PUSH2 0xEE6 JUMP JUMPDEST PUSH2 0x2CF JUMPI DUP1 DUP3 PUSH2 0x2B3 JUMP JUMPDEST DUP1 REVERT JUMPDEST MLOAD RETURNDATASIZE DUP5 DUP3 RETURNDATACOPY RETURNDATASIZE SWAP1 REVERT JUMPDEST POP POP POP REVERT JUMPDEST PUSH1 0x64 SWAP1 PUSH1 0x20 DUP5 MLOAD SWAP2 PUSH3 0x461BCD PUSH1 0xE5 SHL DUP4 MSTORE DUP3 ADD MSTORE PUSH1 0x12 PUSH1 0x24 DUP3 ADD MSTORE PUSH18 0x416D6F756E74206D757374206265203E203 PUSH1 0x74 SHL PUSH1 0x44 DUP3 ADD MSTORE REVERT JUMPDEST POP SWAP1 CALLVALUE PUSH2 0x1D8 JUMPI DUP2 PUSH1 0x3 NOT CALLDATASIZE ADD SLT PUSH2 0x1D8 JUMPI MLOAD PUSH32 0x0 PUSH1 0x1 PUSH1 0x1 PUSH1 0xA0 SHL SUB AND DUP2 MSTORE PUSH1 0x20 SWAP1 RETURN JUMPDEST POP SWAP1 CALLVALUE PUSH2 0x1D8 JUMPI DUP2 PUSH1 0x3 NOT CALLDATASIZE ADD SLT PUSH2 0x1D8 JUMPI PUSH1 0x20 SWAP1 MLOAD PUSH2 0x12C DUP2 MSTORE RETURN JUMPDEST POP DUP3 CALLVALUE PUSH2 0x1D8 JUMPI PUSH1 0x20 CALLDATASIZE PUSH1 0x3 NOT ADD SLT PUSH2 0x1D8 JUMPI DUP1 CALLDATALOAD SWAP3 PUSH2 0x397 PUSH2 0xF32 JUMP JUMPDEST PUSH1 0x1 PUSH1 0x1 PUSH1 0xA0 SHL SUB SWAP1 PUSH2 0x3AD SWAP1 DUP3 AND CALLER EQ PUSH2 0x1017 JUMP JUMPDEST PUSH2 0x3B5 PUSH2 0xFF4 JUMP JUMPDEST DUP5 ISZERO PUSH2 0x4D5 JUMPI DUP2 MLOAD PUSH4 0x23B872DD PUSH1 0xE0 SHL PUSH1 0x20 DUP3 ADD MSTORE CALLER PUSH1 0x24 DUP3 ADD MSTORE ADDRESS PUSH1 0x44 DUP3 ADD MSTORE PUSH1 0x64 DUP1 DUP3 ADD DUP8 SWAP1 MSTORE DUP2 MSTORE SWAP5 PUSH1 0xA0 DUP7 ADD PUSH8 0xFFFFFFFFFFFFFFFF DUP2 GT DUP8 DUP3 LT OR PUSH2 0x4C0 JUMPI DUP6 SWAP7 PUSH2 0x426 SWAP2 DUP6 MSTORE PUSH32 0x0 PUSH2 0x1055 JUMP JUMPDEST DUP3 MLOAD SWAP1 DUP2 MSTORE TIMESTAMP PUSH1 0x20 DUP3 ADD MSTORE PUSH1 0x0 DUP1 MLOAD PUSH1 0x20 PUSH2 0x1104 DUP4 CODECOPY DUP2 MLOAD SWAP2 MSTORE DUP4 CALLER SWAP3 LOG2 PUSH32 0x0 AND SWAP2 DUP3 EXTCODESIZE ISZERO PUSH2 0x2DB JUMPI DUP4 SWAP3 PUSH1 0x24 DUP5 SWAP3 DUP5 MLOAD SWAP6 DUP7 SWAP4 DUP5 SWAP3 PUSH4 0x2B9343DB PUSH1 0xE1 SHL DUP5 MSTORE PUSH32 0x0 SWAP1 DUP5 ADD MSTORE GAS CALL SWAP1 DUP2 ISZERO PUSH2 0x2D2 JUMPI POP PUSH2 0x2BB JUMPI POP PUSH1 0x1 SWAP1 SSTORE DUP1 RETURN JUMPDEST PUSH1 0x41 DUP6 PUSH4 0x4E487B71 PUSH1 0xE0 SHL PUSH1 0x0 MSTORE MSTORE PUSH1 0x24 PUSH1 0x0 REVERT JUMPDEST DUP2 MLOAD PUSH3 0x461BCD PUSH1 0xE5 SHL DUP2 MSTORE PUSH1 0x20 DUP2 DUP6 ADD MSTORE PUSH1 0x1D PUSH1 0x24 DUP3 ADD MSTORE PUSH32 0x416D6F756E74206D7573742062652067726561746572207468616E2030000000 PUSH1 0x44 DUP3 ADD MSTORE PUSH1 0x64 SWAP1 REVERT JUMPDEST POP SWAP1 CALLVALUE PUSH2 0x1D8 JUMPI DUP2 PUSH1 0x3 NOT CALLDATASIZE ADD SLT PUSH2 0x1D8 JUMPI PUSH1 0x20 SWAP1 PUSH1 0x2 SLOAD SWAP1 MLOAD SWAP1 DUP2 MSTORE RETURN JUMPDEST POP SWAP1 CALLVALUE PUSH2 0x1D8 JUMPI DUP2 PUSH1 0x3 NOT CALLDATASIZE ADD SLT PUSH2 0x1D8 JUMPI PUSH1 0x20 SWAP1 PUSH2 0x554 PUSH2 0xF32 JUMP JUMPDEST SWAP1 MLOAD PUSH1 0x1 PUSH1 0x1 PUSH1 0xA0 SHL SUB SWAP1 SWAP2 AND DUP2 MSTORE RETURN JUMPDEST POP CALLVALUE PUSH2 0x2CF JUMPI DUP1 PUSH1 0x3 NOT CALLDATASIZE ADD SLT PUSH2 0x2CF JUMPI DUP2 MLOAD SWAP1 DUP1 PUSH1 0x1 DUP1 SLOAD SWAP1 DUP2 DUP2 SHR SWAP2 DUP2 DUP2 AND DUP1 ISZERO PUSH2 0x69D JUMPI JUMPDEST PUSH1 0x20 SWAP9 DUP10 DUP6 LT DUP3 EQ PUSH2 0x68A JUMPI POP SWAP2 DUP4 SWAP2 DUP10 SWAP6 SWAP4 DUP9 SWAP6 DUP7 MSTORE SWAP1 DUP2 PUSH1 0x0 EQ PUSH2 0x669 JUMPI POP PUSH1 0x1 EQ PUSH2 0x60E JUMPI JUMPDEST POP POP PUSH2 0x5C8 SWAP3 POP SWAP6 SWAP4 SWAP3 SWAP6 SUB DUP3 PUSH2 0xF10 JUMP JUMPDEST DUP3 MLOAD SWAP4 DUP3 DUP6 SWAP4 DUP5 MSTORE DUP3 MLOAD SWAP3 DUP4 DUP3 DUP7 ADD MSTORE DUP3 JUMPDEST DUP5 DUP2 LT PUSH2 0x5F8 JUMPI POP POP POP DUP3 DUP3 ADD DUP5 ADD MSTORE PUSH1 0x1F ADD PUSH1 0x1F NOT AND DUP2 ADD SUB ADD SWAP1 RETURN JUMPDEST DUP2 DUP2 ADD DUP4 ADD MLOAD DUP9 DUP3 ADD DUP9 ADD MSTORE DUP8 SWAP6 POP DUP3 ADD PUSH2 0x5DA JUMP JUMPDEST DUP1 DUP7 MSTORE PUSH32 0xB10E2D527612073B26EECDFD717E6A320CF44B4AFAC2B0732D9FCBE2B7FA0CF6 SWAP5 SWAP3 POP DUP6 SWAP2 SWAP1 JUMPDEST DUP2 DUP4 LT PUSH2 0x651 JUMPI POP DUP9 SWAP5 POP POP DUP3 ADD ADD PUSH2 0x5C8 CODESIZE PUSH2 0x5B6 JUMP JUMPDEST DUP6 SLOAD DUP9 DUP5 ADD DUP6 ADD MSTORE SWAP5 DUP6 ADD SWAP5 DUP8 SWAP5 POP SWAP2 DUP4 ADD SWAP2 PUSH2 0x639 JUMP JUMPDEST SWAP2 POP POP PUSH2 0x5C8 SWAP5 SWAP3 POP PUSH1 0xFF NOT AND DUP3 DUP5 ADD MSTORE ISZERO ISZERO PUSH1 0x5 SHL DUP3 ADD ADD DUP7 SWAP3 CODESIZE PUSH2 0x5B6 JUMP JUMPDEST PUSH4 0x4E487B71 PUSH1 0xE0 SHL DUP8 MSTORE PUSH1 0x22 SWAP1 MSTORE PUSH1 0x24 DUP7 REVERT JUMPDEST SWAP3 PUSH1 0x7F AND SWAP3 PUSH2 0x58D JUMP JUMPDEST POP SWAP2 CALLVALUE PUSH2 0x6CF JUMPI DUP3 PUSH1 0x3 NOT CALLDATASIZE ADD SLT PUSH2 0x6CF JUMPI SLOAD SWAP1 MLOAD PUSH1 0x1 PUSH1 0x1 PUSH1 0xA0 SHL SUB SWAP1 SWAP2 AND DUP2 MSTORE PUSH1 0x20 SWAP2 POP RETURN JUMPDEST DUP3 DUP1 REVERT JUMPDEST POP SWAP1 CALLVALUE PUSH2 0x1D8 JUMPI PUSH1 0x20 CALLDATASIZE PUSH1 0x3 NOT ADD SLT PUSH2 0x1D8 JUMPI DUP3 CALLDATALOAD SWAP1 PUSH2 0x6F1 PUSH2 0xFF4 JUMP JUMPDEST PUSH1 0x1 PUSH1 0x1 PUSH1 0xA0 SHL SUB SWAP4 PUSH32 0x0 DUP6 AND SWAP3 CALLER DUP5 SWAP1 SUB PUSH2 0x7FA JUMPI DUP1 ISZERO PUSH2 0x7CA JUMPI PUSH1 0x0 DUP1 MLOAD PUSH1 0x20 PUSH2 0x1104 DUP4 CODECOPY DUP2 MLOAD SWAP2 MSTORE DUP4 DUP7 SWAP8 PUSH2 0x746 PUSH2 0xF32 JUMP JUMPDEST DUP3 MLOAD SWAP5 DUP6 MSTORE TIMESTAMP PUSH1 0x20 DUP7 ADD MSTORE AND SWAP3 LOG2 PUSH2 0x75C PUSH2 0xF32 JUMP JUMPDEST POP DUP3 EXTCODESIZE ISZERO PUSH2 0x2DB JUMPI DUP4 SWAP3 PUSH1 0x24 DUP5 SWAP3 DUP5 MLOAD SWAP6 DUP7 SWAP4 DUP5 SWAP3 PUSH4 0x2B9343DB PUSH1 0xE1 SHL DUP5 MSTORE PUSH32 0x0 SWAP1 DUP5 ADD MSTORE GAS CALL SWAP1 DUP2 ISZERO PUSH2 0x2D2 JUMPI POP PUSH2 0x7B6 JUMPI POP PUSH1 0x1 SWAP1 SSTORE DUP1 RETURN JUMPDEST PUSH2 0x7BF SWAP1 PUSH2 0xEE6 JUMP JUMPDEST PUSH2 0x2CF JUMPI DUP1 CODESIZE PUSH2 0x2B3 JUMP JUMPDEST POP PUSH1 0x20 PUSH1 0x64 SWAP3 MLOAD SWAP2 PUSH3 0x461BCD PUSH1 0xE5 SHL DUP4 MSTORE DUP3 ADD MSTORE PUSH1 0xA PUSH1 0x24 DUP3 ADD MSTORE PUSH10 0x416D6F756E74203E203 PUSH1 0xB4 SHL PUSH1 0x44 DUP3 ADD MSTORE REVERT JUMPDEST POP PUSH1 0x20 PUSH1 0x64 SWAP3 MLOAD SWAP2 PUSH3 0x461BCD PUSH1 0xE5 SHL DUP4 MSTORE DUP3 ADD MSTORE PUSH1 0xC PUSH1 0x24 DUP3 ADD MSTORE PUSH12 0x4F6E6C7920466163746F7279 PUSH1 0xA0 SHL PUSH1 0x44 DUP3 ADD MSTORE REVERT JUMPDEST POP DUP3 CALLVALUE PUSH2 0x1D8 JUMPI DUP2 PUSH1 0x3 NOT CALLDATASIZE ADD SLT PUSH2 0x1D8 JUMPI PUSH2 0x846 PUSH2 0xF32 JUMP JUMPDEST PUSH1 0x1 PUSH1 0x1 PUSH1 0xA0 SHL SUB SWAP4 SWAP1 PUSH2 0x85D SWAP1 DUP6 AND CALLER EQ PUSH2 0x1017 JUMP JUMPDEST PUSH2 0x865 PUSH2 0xFF4 JUMP JUMPDEST DUP1 MLOAD PUSH4 0x70A08231 PUSH1 0xE0 SHL DUP2 MSTORE ADDRESS DUP4 DUP3 ADD MSTORE SWAP4 PUSH1 0x20 PUSH32 0x0 DUP2 DUP8 PUSH1 0x24 DUP2 DUP7 DUP6 AND GAS STATICCALL SWAP7 DUP8 ISZERO PUSH2 0xB2E JUMPI DUP7 SWAP8 PUSH2 0xAFF JUMPI JUMPDEST POP DUP7 ISZERO PUSH2 0xAC5 JUMPI PUSH1 0x2 SLOAD TIMESTAMP LT PUSH2 0x9C5 JUMPI DUP7 SWAP2 PUSH2 0x8F2 DUP8 SWAP9 PUSH32 0x779C86999FB727CA861D0288AA11ED4104347721C571E4F0DA5172AFB607D885 SWAP4 CALLER SWAP1 PUSH2 0x10B1 JUMP JUMPDEST DUP5 MLOAD DUP4 DUP2 MSTORE TIMESTAMP DUP3 DUP3 ADD MSTORE PUSH1 0x60 DUP7 DUP3 ADD MSTORE PUSH1 0x8 PUSH1 0x60 DUP3 ADD MSTORE PUSH8 0x4D41545552495459 PUSH1 0xC0 SHL PUSH1 0x80 DUP3 ADD MSTORE PUSH32 0x62116A798BB58CC967874BEA4D771DE2F9AEEC6C64189FF2E5A551072F3106F9 PUSH1 0xA0 CALLER SWAP3 LOG2 DUP5 MLOAD SWAP3 DUP4 MSTORE CALLER SWAP3 LOG2 JUMPDEST PUSH32 0x0 AND SWAP2 DUP3 EXTCODESIZE ISZERO PUSH2 0x2DB JUMPI DUP4 SWAP3 PUSH1 0x24 DUP5 SWAP3 DUP5 MLOAD SWAP6 DUP7 SWAP4 DUP5 SWAP3 PUSH4 0x5C6E0E27 PUSH1 0xE0 SHL DUP5 MSTORE PUSH32 0x0 SWAP1 DUP5 ADD MSTORE GAS CALL SWAP1 DUP2 ISZERO PUSH2 0x2D2 JUMPI POP PUSH2 0x2BB JUMPI POP PUSH1 0x1 SWAP1 SSTORE DUP1 RETURN JUMPDEST SWAP1 PUSH1 0x3 SLOAD DUP1 DUP9 MUL SWAP1 DUP9 DUP3 DIV SUB PUSH2 0xAB2 JUMPI PUSH2 0x2710 SWAP1 DIV SWAP1 DUP2 DUP9 SUB SWAP3 DUP9 DUP5 GT PUSH2 0xA9F JUMPI DUP4 DUP4 DUP10 SWAP11 DUP2 PUSH2 0xA8C JUMPI JUMPDEST SUB PUSH2 0xA7A JUMPI JUMPDEST POP POP DUP5 MLOAD DUP4 DUP2 MSTORE TIMESTAMP DUP3 DUP3 ADD MSTORE PUSH1 0x60 DUP7 DUP3 ADD MSTORE PUSH1 0xA PUSH1 0x60 DUP3 ADD MSTORE PUSH10 0x115054931657D1561255 PUSH1 0xB2 SHL PUSH1 0x80 DUP3 ADD MSTORE PUSH32 0x62116A798BB58CC967874BEA4D771DE2F9AEEC6C64189FF2E5A551072F3106F9 PUSH1 0xA0 CALLER SWAP3 LOG2 DUP5 MLOAD SWAP3 DUP4 MSTORE DUP3 ADD MSTORE PUSH32 0x1670585E36568EDE58D159518CE92CAD99F75AD41C7D8281DF3DD4EAA0C855D0 DUP4 CALLER SWAP3 LOG2 PUSH2 0x949 JUMP JUMPDEST PUSH2 0xA85 SWAP2 CALLER SWAP1 PUSH2 0x10B1 JUMP JUMPDEST DUP9 DUP4 PUSH2 0x9F6 JUMP JUMPDEST PUSH2 0xA9A DUP3 DUP10 DUP13 SLOAD AND DUP7 PUSH2 0x10B1 JUMP JUMPDEST PUSH2 0x9F0 JUMP JUMPDEST PUSH4 0x4E487B71 PUSH1 0xE0 SHL DUP9 MSTORE PUSH1 0x11 DUP8 MSTORE PUSH1 0x24 DUP9 REVERT JUMPDEST PUSH4 0x4E487B71 PUSH1 0xE0 SHL DUP8 MSTORE PUSH1 0x11 DUP7 MSTORE PUSH1 0x24 DUP8 REVERT JUMPDEST DUP4 MLOAD PUSH3 0x461BCD PUSH1 0xE5 SHL DUP2 MSTORE DUP1 DUP7 ADD DUP4 SWAP1 MSTORE PUSH1 0x14 PUSH1 0x24 DUP3 ADD MSTORE PUSH20 0x4E6F2066756E647320746F207769746864726177 PUSH1 0x60 SHL PUSH1 0x44 DUP3 ADD MSTORE PUSH1 0x64 SWAP1 REVERT JUMPDEST SWAP1 SWAP7 POP DUP2 DUP2 DUP2 RETURNDATASIZE DUP4 GT PUSH2 0xB27 JUMPI JUMPDEST PUSH2 0xB17 DUP2 DUP4 PUSH2 0xF10 JUMP JUMPDEST DUP2 ADD SUB SLT PUSH2 0xD7 JUMPI MLOAD SWAP6 DUP8 PUSH2 0x8B2 JUMP JUMPDEST POP RETURNDATASIZE PUSH2 0xB0D JUMP JUMPDEST DUP5 MLOAD RETURNDATASIZE DUP9 DUP3 RETURNDATACOPY RETURNDATASIZE SWAP1 REVERT JUMPDEST POP SWAP1 CALLVALUE PUSH2 0x1D8 JUMPI DUP2 PUSH1 0x3 NOT CALLDATASIZE ADD SLT PUSH2 0x1D8 JUMPI PUSH1 0x5 SLOAD SWAP1 MLOAD PUSH1 0x1 PUSH1 0x1 PUSH1 0xA0 SHL SUB SWAP1 SWAP2 AND DUP2 MSTORE PUSH1 0x20 SWAP1 RETURN JUMPDEST POP SWAP1 CALLVALUE PUSH2 0x1D8 JUMPI DUP2 PUSH1 0x3 NOT CALLDATASIZE ADD SLT PUSH2 0x1D8 JUMPI PUSH1 0x20 SWAP1 MLOAD PUSH32 0x0 DUP2 MSTORE RETURN JUMPDEST POP SWAP1 CALLVALUE PUSH2 0x1D8 JUMPI DUP2 PUSH1 0x3 NOT CALLDATASIZE ADD SLT PUSH2 0x1D8 JUMPI PUSH2 0xBB6 PUSH2 0xFF4 JUMP JUMPDEST PUSH1 0x1 PUSH1 0x1 PUSH1 0xA0 SHL SUB SWAP3 PUSH32 0x0 DUP5 AND CALLER DUP2 SWAP1 SUB PUSH2 0xDFC JUMPI DUP5 PUSH1 0x5 SLOAD AND DUP1 ISZERO PUSH2 0xDC4 JUMPI PUSH1 0x2 SLOAD PUSH2 0x12C DUP2 ADD DUP1 SWAP2 GT PUSH2 0xDB1 JUMPI TIMESTAMP GT ISZERO PUSH2 0xD76 JUMPI DUP4 MLOAD PUSH4 0x70A08231 PUSH1 0xE0 SHL DUP2 MSTORE ADDRESS DUP5 DUP3 ADD MSTORE PUSH1 0x20 SWAP7 SWAP1 SWAP2 PUSH32 0x0 DUP9 DUP5 PUSH1 0x24 DUP2 DUP7 DUP6 AND GAS STATICCALL SWAP4 DUP5 ISZERO PUSH2 0xD6C JUMPI DUP9 SWAP5 PUSH2 0xD39 JUMPI JUMPDEST POP DUP4 ISZERO PUSH2 0xD02 JUMPI SWAP2 PUSH2 0xC90 DUP5 DUP10 SWAP11 SWAP4 PUSH32 0x735E2EF7D759ED5EDC5B5CFD70BD63F00EDDD61E652119B1825287362957AD59 SWAP6 PUSH2 0x10B1 JUMP JUMPDEST PUSH1 0x5 SLOAD AND SWAP3 DUP7 MLOAD SWAP1 DUP2 MSTORE LOG2 DUP1 EXTCODESIZE ISZERO PUSH2 0x2DB JUMPI PUSH1 0x24 DUP5 SWAP3 DUP5 MLOAD SWAP6 DUP7 SWAP4 DUP5 SWAP3 PUSH4 0x5C6E0E27 PUSH1 0xE0 SHL DUP5 MSTORE PUSH32 0x0 SWAP1 DUP5 ADD MSTORE GAS CALL SWAP1 DUP2 ISZERO PUSH2 0x2D2 JUMPI POP PUSH2 0xCF3 JUMPI JUMPDEST POP PUSH1 0x1 DUP2 SSTORE DUP1 RETURN JUMPDEST PUSH2 0xCFC SWAP1 PUSH2 0xEE6 JUMP JUMPDEST CODESIZE PUSH2 0xCEB JUMP JUMPDEST DUP7 MLOAD PUSH3 0x461BCD PUSH1 0xE5 SHL DUP2 MSTORE DUP1 DUP8 ADD DUP11 SWAP1 MSTORE PUSH1 0x11 PUSH1 0x24 DUP3 ADD MSTORE PUSH17 0x4E6F2066756E647320746F20636C61696D PUSH1 0x78 SHL PUSH1 0x44 DUP3 ADD MSTORE PUSH1 0x64 SWAP1 REVERT JUMPDEST SWAP1 SWAP4 POP DUP9 DUP2 DUP2 RETURNDATASIZE DUP4 GT PUSH2 0xD65 JUMPI JUMPDEST PUSH2 0xD51 DUP2 DUP4 PUSH2 0xF10 JUMP JUMPDEST DUP2 ADD SUB SLT PUSH2 0xD61 JUMPI MLOAD SWAP3 CODESIZE PUSH2 0xC5A JUMP JUMPDEST DUP8 DUP1 REVERT JUMPDEST POP RETURNDATASIZE PUSH2 0xD47 JUMP JUMPDEST DUP8 MLOAD RETURNDATASIZE DUP11 DUP3 RETURNDATACOPY RETURNDATASIZE SWAP1 REVERT JUMPDEST DUP4 MLOAD PUSH3 0x461BCD PUSH1 0xE5 SHL DUP2 MSTORE PUSH1 0x20 DUP2 DUP6 ADD MSTORE PUSH1 0x15 PUSH1 0x24 DUP3 ADD MSTORE PUSH21 0x23B930B1B2903832B934B7B2103737BA1037BB32B9 PUSH1 0x59 SHL PUSH1 0x44 DUP3 ADD MSTORE PUSH1 0x64 SWAP1 REVERT JUMPDEST PUSH4 0x4E487B71 PUSH1 0xE0 SHL DUP7 MSTORE PUSH1 0x11 DUP5 MSTORE PUSH1 0x24 DUP7 REVERT JUMPDEST DUP4 MLOAD PUSH3 0x461BCD PUSH1 0xE5 SHL DUP2 MSTORE PUSH1 0x20 DUP2 DUP6 ADD MSTORE PUSH1 0x12 PUSH1 0x24 DUP3 ADD MSTORE PUSH18 0x139BC818995B99599A58DA585C9E481CD95D PUSH1 0x72 SHL PUSH1 0x44 DUP3 ADD MSTORE PUSH1 0x64 SWAP1 REVERT JUMPDEST POP PUSH1 0x20 PUSH1 0x64 SWAP3 MLOAD SWAP2 PUSH3 0x461BCD PUSH1 0xE5 SHL DUP4 MSTORE DUP3 ADD MSTORE PUSH1 0x12 PUSH1 0x24 DUP3 ADD MSTORE PUSH18 0x27B7363C903330B1BA37B93C9030B236B4B7 PUSH1 0x71 SHL PUSH1 0x44 DUP3 ADD MSTORE REVERT JUMPDEST SWAP1 POP DUP3 DUP5 CALLVALUE PUSH2 0xEE2 JUMPI DUP4 PUSH1 0x3 NOT CALLDATASIZE ADD SLT PUSH2 0xEE2 JUMPI PUSH4 0x70A08231 PUSH1 0xE0 SHL DUP4 MSTORE ADDRESS SWAP1 DUP4 ADD MSTORE PUSH1 0x20 DUP3 PUSH1 0x24 DUP2 PUSH32 0x0 PUSH1 0x1 PUSH1 0x1 PUSH1 0xA0 SHL SUB AND GAS STATICCALL SWAP2 DUP3 ISZERO PUSH2 0xED8 JUMPI DUP4 SWAP3 PUSH2 0xEA1 JUMPI JUMPDEST PUSH1 0x20 DUP4 DUP4 MLOAD SWAP1 DUP2 MSTORE RETURN JUMPDEST SWAP1 SWAP2 POP PUSH1 0x20 DUP2 RETURNDATASIZE DUP3 GT PUSH2 0xED0 JUMPI JUMPDEST DUP2 PUSH2 0xEBC PUSH1 0x20 SWAP4 DUP4 PUSH2 0xF10 JUMP JUMPDEST DUP2 ADD SUB SLT PUSH2 0x6CF JUMPI PUSH1 0x20 SWAP3 POP MLOAD SWAP1 DUP4 PUSH2 0xE97 JUMP JUMPDEST RETURNDATASIZE SWAP2 POP PUSH2 0xEAF JUMP JUMPDEST DUP2 MLOAD RETURNDATASIZE DUP6 DUP3 RETURNDATACOPY RETURNDATASIZE SWAP1 REVERT JUMPDEST DUP4 DUP1 REVERT JUMPDEST PUSH8 0xFFFFFFFFFFFFFFFF DUP2 GT PUSH2 0xEFA JUMPI PUSH1 0x40 MSTORE JUMP JUMPDEST PUSH4 0x4E487B71 PUSH1 0xE0 SHL PUSH1 0x0 MSTORE PUSH1 0x41 PUSH1 0x4 MSTORE PUSH1 0x24 PUSH1 0x0 REVERT JUMPDEST SWAP1 PUSH1 0x1F DUP1 NOT SWAP2 ADD AND DUP2 ADD SWAP1 DUP2 LT PUSH8 0xFFFFFFFFFFFFFFFF DUP3 GT OR PUSH2 0xEFA JUMPI PUSH1 0x40 MSTORE JUMP JUMPDEST PUSH1 0x40 MLOAD PUSH4 0x31A9108F PUSH1 0xE1 SHL DUP2 MSTORE PUSH32 0x0 PUSH1 0x4 DUP3 ADD MSTORE PUSH1 0x1 PUSH1 0x1 PUSH1 0xA0 SHL SUB SWAP1 PUSH1 0x20 DUP2 PUSH1 0x24 DUP2 PUSH32 0x0 DUP7 AND GAS STATICCALL SWAP1 DUP2 ISZERO PUSH2 0xFE8 JUMPI PUSH1 0x0 SWAP2 PUSH2 0xFAE JUMPI JUMPDEST POP SWAP1 POP SWAP1 JUMP JUMPDEST PUSH1 0x20 DUP2 RETURNDATASIZE DUP3 GT PUSH2 0xFE0 JUMPI JUMPDEST DUP2 PUSH2 0xFC6 PUSH1 0x20 SWAP4 DUP4 PUSH2 0xF10 JUMP JUMPDEST DUP2 ADD SUB SLT PUSH2 0x1D8 JUMPI MLOAD SWAP2 DUP3 AND DUP3 SUB PUSH2 0x2CF JUMPI POP DUP1 CODESIZE PUSH2 0xFA8 JUMP JUMPDEST RETURNDATASIZE SWAP2 POP PUSH2 0xFB9 JUMP JUMPDEST PUSH1 0x40 MLOAD RETURNDATASIZE PUSH1 0x0 DUP3 RETURNDATACOPY RETURNDATASIZE SWAP1 REVERT JUMPDEST PUSH1 0x2 PUSH1 0x0 SLOAD EQ PUSH2 0x1005 JUMPI PUSH1 0x2 PUSH1 0x0 SSTORE JUMP JUMPDEST PUSH1 0x40 MLOAD PUSH4 0x3EE5AEB5 PUSH1 0xE0 SHL DUP2 MSTORE PUSH1 0x4 SWAP1 REVERT JUMPDEST ISZERO PUSH2 0x101E JUMPI JUMP JUMPDEST PUSH1 0x40 MLOAD PUSH3 0x461BCD PUSH1 0xE5 SHL DUP2 MSTORE PUSH1 0x20 PUSH1 0x4 DUP3 ADD MSTORE PUSH1 0xF PUSH1 0x24 DUP3 ADD MSTORE PUSH15 0x2737BA103B30BAB63A1037BBB732B9 PUSH1 0x89 SHL PUSH1 0x44 DUP3 ADD MSTORE PUSH1 0x64 SWAP1 REVERT JUMPDEST SWAP1 PUSH1 0x0 PUSH1 0x20 SWAP2 DUP3 DUP2 MLOAD SWAP2 ADD DUP3 DUP6 GAS CALL ISZERO PUSH2 0xFE8 JUMPI PUSH1 0x0 MLOAD RETURNDATASIZE PUSH2 0x10A8 JUMPI POP PUSH1 0x1 PUSH1 0x1 PUSH1 0xA0 SHL SUB DUP2 AND EXTCODESIZE ISZERO JUMPDEST PUSH2 0x1086 JUMPI POP JUMP JUMPDEST PUSH1 0x40 MLOAD PUSH4 0x5274AFE7 PUSH1 0xE0 SHL DUP2 MSTORE PUSH1 0x1 PUSH1 0x1 PUSH1 0xA0 SHL SUB SWAP1 SWAP2 AND PUSH1 0x4 DUP3 ADD MSTORE PUSH1 0x24 SWAP1 REVERT JUMPDEST PUSH1 0x1 EQ ISZERO PUSH2 0x107F JUMP JUMPDEST PUSH1 0x40 MLOAD PUSH4 0xA9059CBB PUSH1 0xE0 SHL PUSH1 0x20 DUP3 ADD MSTORE PUSH1 0x1 PUSH1 0x1 PUSH1 0xA0 SHL SUB SWAP1 SWAP3 AND PUSH1 0x24 DUP4 ADD MSTORE PUSH1 0x44 DUP1 DUP4 ADD SWAP4 SWAP1 SWAP4 MSTORE SWAP2 DUP2 MSTORE PUSH1 0x80 DUP2 ADD SWAP2 PUSH8 0xFFFFFFFFFFFFFFFF DUP4 GT DUP3 DUP5 LT OR PUSH2 0xEFA JUMPI PUSH2 0x1101 SWAP3 PUSH1 0x40 MSTORE PUSH2 0x1055 JUMP JUMPDEST JUMP INVALID PUSH20 0xA19DD210F1A7F902193214C0EE91DD35EE5B4D92 0xC 0xBA DUP14 MLOAD SWAP15 0xCA PUSH6 0xA7B488CAA264 PUSH10 0x70667358221220319BFB SWAP14 PUSH12 0xA7B7E531D2A6D8AE9E59E8D BASEFEE 0xE0 PUSH26 0xA47C7B449EE5E9BF43C2484064736F6C63430008140033EC48E1 KECCAK256 SHR 0x49 0xEF DUP2 0xC2 SELFBALANCE REVERT 0xD 0xAA POP EXTCODESIZE 0xBD 0xD 0xEA 0xDD 0x1F 0xAF GASPRICE LOG1 PUSH2 0xF60C 0xD5 DIV 0xDE 0xBF 0xE6 0xCA LOG2 PUSH5 0x6970667358 0x22 SLT KECCAK256 0xC6 0xCC PUSH7 0x158D07E270981B PUSH0 0xE3 KECCAK256 0xC1 SSTORE 0x4E NUMBER TIMESTAMP GT 0x23 0xC5 SAR 0xBE 0xC2 0xDA 0xEF RETURN 0xAE BLOCKHASH 0xED SWAP8 PREVRANDAO PUSH5 0x736F6C6343 STOP ADDMOD EQ STOP CALLER "},"methodIdentifiers":{"allVaults(uint256)":"9094a91e","approve(address,uint256)":"095ea7b3","balanceOf(address)":"70a08231","burnVaultNFT(uint256)":"5c6e0e27","createPersonalVault(string,uint256,uint256,uint256,address)":"49f411b7","executeAutoDeposit(address,uint256)":"46268365","getAllVaults()":"97331bf9","getApproved(uint256)":"081812fc","getUserVaults(address)":"e7f3c69c","isApprovedForAll(address,address)":"e985e9c5","isVault(address)":"652b9b41","lastUpdate(uint256)":"0bc5dec4","metadataGenerator()":"39d4ce89","name()":"06fdde03","notifyUpdate(uint256)":"572687b6","owner()":"8da5cb5b","ownerOf(uint256)":"6352211e","protocolTreasury()":"803db96d","renounceOwnership()":"715018a6","royaltyInfo(uint256,uint256)":"2a55205a","safeTransferFrom(address,address,uint256)":"42842e0e","safeTransferFrom(address,address,uint256,bytes)":"b88d4fde","setApprovalForAll(address,bool)":"a22cb465","supportsInterface(bytes4)":"01ffc9a7","symbol()":"95d89b41","tokenURI(uint256)":"c87b56dd","transferFrom(address,address,uint256)":"23b872dd","transferOwnership(address)":"f2fde38b","triggerBeneficiaryClaim(address)":"194f5d9f","updateMetadataGenerator(address)":"1a598ccc","usdtToken()":"a98ad46c","userVaults(address,uint256)":"9c841fef","vaultAddress(uint256)":"4be4e91f"}}}}}