{"contracts/PersonalVault.sol":{"PersonalVault":{"abi":[{"inputs":[{"internalType":"address","name":"_token","type":"address"},{"internalType":"string","name":"_purpose","type":"string"},{"internalType":"uint256","name":"_tokenId","type":"uint256"},{"internalType":"uint256","name":"_unlockTimestamp","type":"uint256"},{"internalType":"uint256","name":"_penaltyBps","type":"uint256"},{"internalType":"address","name":"_treasury","type":"address"},{"internalType":"address","name":"_beneficiary","type":"address"}],"stateMutability":"nonpayable","type":"constructor"},{"inputs":[],"name":"ReentrancyGuardReentrantCall","type":"error"},{"inputs":[{"internalType":"address","name":"token","type":"address"}],"name":"SafeERC20FailedOperation","type":"error"},{"anonymous":false,"inputs":[{"indexed":true,"internalType":"address","name":"beneficiary","type":"address"},{"indexed":false,"internalType":"uint256","name":"amount","type":"uint256"}],"name":"BeneficiaryClaimed","type":"event"},{"anonymous":false,"inputs":[{"indexed":true,"internalType":"address","name":"user","type":"address"},{"indexed":false,"internalType":"uint256","name":"amount","type":"uint256"},{"indexed":false,"internalType":"uint256","name":"timestamp","type":"uint256"}],"name":"Deposited","type":"event"},{"anonymous":false,"inputs":[{"indexed":true,"internalType":"address","name":"user","type":"address"},{"indexed":false,"internalType":"uint256","name":"amountWithdraw","type":"uint256"},{"indexed":false,"internalType":"uint256","name":"penaltyPaid","type":"uint256"}],"name":"EarlyWithdrawal","type":"event"},{"anonymous":false,"inputs":[{"indexed":true,"internalType":"address","name":"user","type":"address"},{"indexed":false,"internalType":"uint256","name":"amount","type":"uint256"}],"name":"FullWithdrawal","type":"event"},{"anonymous":false,"inputs":[{"indexed":false,"internalType":"string","name":"purpose","type":"string"},{"indexed":true,"internalType":"uint256","name":"tokenId","type":"uint256"}],"name":"VaultInitialized","type":"event"},{"anonymous":false,"inputs":[{"indexed":true,"internalType":"address","name":"user","type":"address"},{"indexed":false,"internalType":"uint256","name":"amount","type":"uint256"},{"indexed":false,"internalType":"uint256","name":"timestamp","type":"uint256"},{"indexed":false,"internalType":"string","name":"typeOfWithdrawal","type":"string"}],"name":"Withdrawn","type":"event"},{"inputs":[],"name":"GRACE_PERIOD","outputs":[{"internalType":"uint256","name":"","type":"uint256"}],"stateMutability":"view","type":"function"},{"inputs":[],"name":"beneficiary","outputs":[{"internalType":"address","name":"","type":"address"}],"stateMutability":"view","type":"function"},{"inputs":[],"name":"claimByBeneficiary","outputs":[],"stateMutability":"nonpayable","type":"function"},{"inputs":[{"internalType":"uint256","name":"amount","type":"uint256"}],"name":"deposit","outputs":[],"stateMutability":"nonpayable","type":"function"},{"inputs":[],"name":"deposit","outputs":[],"stateMutability":"payable","type":"function"},{"inputs":[{"internalType":"uint256","name":"amount","type":"uint256"}],"name":"depositFromFactory","outputs":[],"stateMutability":"nonpayable","type":"function"},{"inputs":[],"name":"factory","outputs":[{"internalType":"address","name":"","type":"address"}],"stateMutability":"view","type":"function"},{"inputs":[],"name":"owner","outputs":[{"internalType":"address","name":"","type":"address"}],"stateMutability":"view","type":"function"},{"inputs":[],"name":"penaltyBps","outputs":[{"internalType":"uint256","name":"","type":"uint256"}],"stateMutability":"view","type":"function"},{"inputs":[],"name":"purpose","outputs":[{"internalType":"string","name":"","type":"string"}],"stateMutability":"view","type":"function"},{"inputs":[],"name":"token","outputs":[{"internalType":"contract IERC20","name":"","type":"address"}],"stateMutability":"view","type":"function"},{"inputs":[],"name":"tokenId","outputs":[{"internalType":"uint256","name":"","type":"uint256"}],"stateMutability":"view","type":"function"},{"inputs":[],"name":"totalAssets","outputs":[{"internalType":"uint256","name":"","type":"uint256"}],"stateMutability":"view","type":"function"},{"inputs":[],"name":"treasury","outputs":[{"internalType":"address","name":"","type":"address"}],"stateMutability":"view","type":"function"},{"inputs":[],"name":"unlockTimestamp","outputs":[{"internalType":"uint256","name":"","type":"uint256"}],"stateMutability":"view","type":"function"},{"inputs":[],"name":"withdraw","outputs":[],"stateMutability":"nonpayable","type":"function"},{"stateMutability":"payable","type":"receive"}],"evm":{"bytecode":{"linkReferences":{},"object":"60e060405234620004675762001646803803806200001d816200046c565b928339810160e0828203126200046757620000388262000492565b602083015190916001600160401b03918281116200046757840181601f820112156200046757805183811162000451576200007d601f8201601f19166020016200046c565b928184526020828401011162000467576200009f9160208085019101620004a7565b6040840151606085015190608086015192620000cc60c0620000c460a08a0162000492565b980162000492565b946001600055336080528260a05281519081116200045157600154600181811c9116801562000446575b60208210146200043057601f8111620003ca575b506020601f82116001146200034b5790806000805160206200162683398151915293926000916200033f575b508160011b916000199060031b1c1916176001555b60408051809260208252620001708151809281602086015260208686019101620004a7565b601f01601f19168101030190a26001600160a01b039384168015620002fa5742821115620002b5576127108311620002705760c0526002556003558160018060a01b03199316836004541617600455169060055416176005556040516111599081620004cd82396080518181816045015281816102380152818161032d01528181610446015281816106fc0152818161094b01528181610bc10152610f76015260a051818181608f01528181610281015281816104870152818161077d0152818161098c01528181610b7901528181610cb90152610f41015260c0518181816101a9015281816104020152818161087b01528181610c230152610e5f0152f35b60405162461bcd60e51b815260206004820152601460248201527f496e76616c696420626173697320706f696e74730000000000000000000000006044820152606490fd5b60405162461bcd60e51b815260206004820152601d60248201527f556e6c6f636b2074696d65206d75737420626520696e206675747572650000006044820152606490fd5b60405162461bcd60e51b815260206004820152601560248201527f496e76616c696420746f6b656e206164647265737300000000000000000000006044820152606490fd5b90508201513862000136565b600160005260206000209060005b601f1984168110620003b157509160019160008051602062001626833981519152949382601f1981161062000397575b5050811b016001556200014b565b84015160001960f88460031b161c19169055388062000389565b9091602060018192858801518155019301910162000359565b60016000527fb10e2d527612073b26eecdfd717e6a320cf44b4afac2b0732d9fcbe2b7fa0cf6601f830160051c81016020841062000428575b601f830160051c820181106200041b5750506200010a565b6000815560010162000403565b508062000403565b634e487b7160e01b600052602260045260246000fd5b90607f1690620000f6565b634e487b7160e01b600052604160045260246000fd5b600080fd5b6040519190601f01601f191682016001600160401b038111838210176200045157604052565b51906001600160a01b03821682036200046757565b60005b838110620004bb5750506000910152565b8181015183820152602001620004aa56fe60806040818152600491823610156100dc575b50361561001e57600080fd5b3461002557005b8051348152426020820152600080516020611104833981519152823392a27f00000000000000000000000000000000000000000000000000000000000000006001600160a01b031691823b156100d7576000926024849284519586938492632b9343db60e11b84527f0000000000000000000000000000000000000000000000000000000000000000908401525af19081156100cd57506100c257005b6100cb90610ee6565b005b513d6000823e3d90fd5b600080fd5b600090813560e01c90816301e1d11414610e3457508063178ea6ad14610b9c57806317d70f7c14610b6157806338af3eed14610b385780633ccfd60b1461082c5780635cdd1009146106d357806361d027b3146106a757806370740aab146105655780638da5cb5b14610537578063aa082a9d14610518578063b6b55f2514610379578063c1a287e21461035c578063c45a015514610318578063d0e30db0146101fb578063ecfad9fd146101dc5763fc0c546a036100125790346101d857816003193601126101d857517f00000000000000000000000000000000000000000000000000000000000000006001600160a01b03168152602090f35b5080fd5b5090346101d857816003193601126101d8576020906003549051908152f35b5082816003193601126101d857610210610ff4565b34156102e05782829351348152426020820152600080516020611104833981519152823392a27f00000000000000000000000000000000000000000000000000000000000000006001600160a01b031691823b156102db5783926024849284519586938492632b9343db60e11b84527f0000000000000000000000000000000000000000000000000000000000000000908401525af19081156102d257506102bb575b506001905580f35b6102c490610ee6565b6102cf5780826102b3565b80fd5b513d84823e3d90fd5b505050fd5b606490602084519162461bcd60e51b835282015260126024820152710416d6f756e74206d757374206265203e20360741b6044820152fd5b5090346101d857816003193601126101d857517f00000000000000000000000000000000000000000000000000000000000000006001600160a01b03168152602090f35b5090346101d857816003193601126101d8576020905161012c8152f35b5082346101d85760203660031901126101d857803592610397610f32565b6001600160a01b03906103ad9082163314611017565b6103b5610ff4565b84156104d55781516323b872dd60e01b6020820152336024820152306044820152606480820187905281529460a0860167ffffffffffffffff8111878210176104c05785966104269185527f0000000000000000000000000000000000000000000000000000000000000000611055565b8251908152426020820152600080516020611104833981519152833392a27f00000000000000000000000000000000000000000000000000000000000000001691823b156102db5783926024849284519586938492632b9343db60e11b84527f0000000000000000000000000000000000000000000000000000000000000000908401525af19081156102d257506102bb57506001905580f35b604185634e487b7160e01b6000525260246000fd5b815162461bcd60e51b8152602081850152601d60248201527f416d6f756e74206d7573742062652067726561746572207468616e20300000006044820152606490fd5b5090346101d857816003193601126101d8576020906002549051908152f35b5090346101d857816003193601126101d857602090610554610f32565b90516001600160a01b039091168152f35b50346102cf57806003193601126102cf5781519080600180549081811c91818116801561069d575b602098898510821461068a5750918391899593889586529081600014610669575060011461060e575b50506105c89250959392950382610f10565b82519382859384528251928382860152825b8481106105f857505050828201840152601f01601f19168101030190f35b81810183015188820188015287955082016105da565b8086527fb10e2d527612073b26eecdfd717e6a320cf44b4afac2b0732d9fcbe2b7fa0cf69492508591905b8183106106515750889450508201016105c8386105b6565b85548884018501529485019487945091830191610639565b9150506105c894925060ff191682840152151560051b8201018692386105b6565b634e487b7160e01b875260229052602486fd5b92607f169261058d565b5091346106cf57826003193601126106cf575490516001600160a01b03909116815260209150f35b8280fd5b5090346101d85760203660031901126101d8578235906106f1610ff4565b6001600160a01b03937f0000000000000000000000000000000000000000000000000000000000000000851692338490036107fa5780156107ca57600080516020611104833981519152838697610746610f32565b82519485524260208601521692a261075c610f32565b50823b156102db5783926024849284519586938492632b9343db60e11b84527f0000000000000000000000000000000000000000000000000000000000000000908401525af19081156102d257506107b657506001905580f35b6107bf90610ee6565b6102cf5780386102b3565b506020606492519162461bcd60e51b8352820152600a6024820152690416d6f756e74203e20360b41b6044820152fd5b506020606492519162461bcd60e51b8352820152600c60248201526b4f6e6c7920466163746f727960a01b6044820152fd5b5082346101d857816003193601126101d857610846610f32565b6001600160a01b03939061085d9085163314611017565b610865610ff4565b80516370a0823160e01b815230838201529360207f000000000000000000000000000000000000000000000000000000000000000081876024818685165afa968715610b2e578697610aff575b508615610ac55760025442106109c55786916108f287987f779c86999fb727ca861d0288aa11ed4104347721c571e4f0da5172afb607d8859333906110b1565b8451838152428282015260608682015260086060820152674d4154555249545960c01b60808201527f62116a798bb58cc967874bea4d771de2f9aeec6c64189ff2e5a551072f3106f960a03392a284519283523392a25b7f00000000000000000000000000000000000000000000000000000000000000001691823b156102db5783926024849284519586938492635c6e0e2760e01b84527f0000000000000000000000000000000000000000000000000000000000000000908401525af19081156102d257506102bb57506001905580f35b906003548088029088820403610ab25761271090049081880392888411610a9f578383899a81610a8c575b03610a7a575b505084518381524282820152606086820152600a606082015269115054931657d156125560b21b60808201527f62116a798bb58cc967874bea4d771de2f9aeec6c64189ff2e5a551072f3106f960a03392a284519283528201527f1670585e36568ede58d159518ce92cad99f75ad41c7d8281df3dd4eaa0c855d0833392a2610949565b610a859133906110b1565b88836109f6565b610a9a82898c5416866110b1565b6109f0565b634e487b7160e01b885260118752602488fd5b634e487b7160e01b875260118652602487fd5b835162461bcd60e51b815280860183905260146024820152734e6f2066756e647320746f20776974686472617760601b6044820152606490fd5b9096508181813d8311610b27575b610b178183610f10565b810103126100d7575195876108b2565b503d610b0d565b84513d88823e3d90fd5b5090346101d857816003193601126101d85760055490516001600160a01b039091168152602090f35b5090346101d857816003193601126101d857602090517f00000000000000000000000000000000000000000000000000000000000000008152f35b5090346101d857816003193601126101d857610bb6610ff4565b6001600160a01b03927f0000000000000000000000000000000000000000000000000000000000000000841633819003610dfc5784600554168015610dc45760025461012c8101809111610db157421115610d765783516370a0823160e01b8152308482015260209690917f000000000000000000000000000000000000000000000000000000000000000088846024818685165afa938415610d6c578894610d39575b508315610d025791610c9084899a937f735e2ef7d759ed5edc5b5cfd70bd63f00eddd61e652119b1825287362957ad59956110b1565b60055416928651908152a2803b156102db576024849284519586938492635c6e0e2760e01b84527f0000000000000000000000000000000000000000000000000000000000000000908401525af19081156102d25750610cf3575b506001815580f35b610cfc90610ee6565b38610ceb565b865162461bcd60e51b81528087018a905260116024820152704e6f2066756e647320746f20636c61696d60781b6044820152606490fd5b9093508881813d8311610d65575b610d518183610f10565b81010312610d6157519238610c5a565b8780fd5b503d610d47565b87513d8a823e3d90fd5b835162461bcd60e51b8152602081850152601560248201527423b930b1b2903832b934b7b2103737ba1037bb32b960591b6044820152606490fd5b634e487b7160e01b865260118452602486fd5b835162461bcd60e51b81526020818501526012602482015271139bc818995b99599a58da585c9e481cd95d60721b6044820152606490fd5b506020606492519162461bcd60e51b8352820152601260248201527127b7363c903330b1ba37b93c9030b236b4b760711b6044820152fd5b9050828434610ee25783600319360112610ee2576370a0823160e01b835230908301526020826024817f00000000000000000000000000000000000000000000000000000000000000006001600160a01b03165afa918215610ed8578392610ea1575b6020838351908152f35b9091506020813d8211610ed0575b81610ebc60209383610f10565b810103126106cf5760209250519083610e97565b3d9150610eaf565b81513d85823e3d90fd5b8380fd5b67ffffffffffffffff8111610efa57604052565b634e487b7160e01b600052604160045260246000fd5b90601f8019910116810190811067ffffffffffffffff821117610efa57604052565b6040516331a9108f60e11b81527f000000000000000000000000000000000000000000000000000000000000000060048201526001600160a01b03906020816024817f000000000000000000000000000000000000000000000000000000000000000086165afa908115610fe857600091610fae575b50905090565b6020813d8211610fe0575b81610fc660209383610f10565b810103126101d8575191821682036102cf57508038610fa8565b3d9150610fb9565b6040513d6000823e3d90fd5b600260005414611005576002600055565b604051633ee5aeb560e01b8152600490fd5b1561101e57565b60405162461bcd60e51b815260206004820152600f60248201526e2737ba103b30bab63a1037bbb732b960891b6044820152606490fd5b906000602091828151910182855af115610fe8576000513d6110a857506001600160a01b0381163b155b6110865750565b604051635274afe760e01b81526001600160a01b039091166004820152602490fd5b6001141561107f565b60405163a9059cbb60e01b60208201526001600160a01b039092166024830152604480830193909352918152608081019167ffffffffffffffff831182841017610efa5761110192604052611055565b56fe73a19dd210f1a7f902193214c0ee91dd35ee5b4d920cba8d519eca65a7b488caa2646970667358221220319bfb9d6b0a7b7e531d2a6d8ae9e59e8d48e079a47c7b449ee5e9bf43c2484064736f6c63430008140033ec48e1201c49ef81c247fd0daa503bbd0deadd1faf3aa161f60cd504debfe6ca","opcodes":"PUSH1 0xE0 PUSH1 0x40 MSTORE CALLVALUE PUSH3 0x467 JUMPI PUSH3 0x1646 DUP1 CODESIZE SUB DUP1 PUSH3 0x1D DUP2 PUSH3 0x46C JUMP JUMPDEST SWAP3 DUP4 CODECOPY DUP2 ADD PUSH1 0xE0 DUP3 DUP3 SUB SLT PUSH3 0x467 JUMPI PUSH3 0x38 DUP3 PUSH3 0x492 JUMP JUMPDEST PUSH1 0x20 DUP4 ADD MLOAD SWAP1 SWAP2 PUSH1 0x1 PUSH1 0x1 PUSH1 0x40 SHL SUB SWAP2 DUP3 DUP2 GT PUSH3 0x467 JUMPI DUP5 ADD DUP2 PUSH1 0x1F DUP3 ADD SLT ISZERO PUSH3 0x467 JUMPI DUP1 MLOAD DUP4 DUP2 GT PUSH3 0x451 JUMPI PUSH3 0x7D PUSH1 0x1F DUP3 ADD PUSH1 0x1F NOT AND PUSH1 0x20 ADD PUSH3 0x46C JUMP JUMPDEST SWAP3 DUP2 DUP5 MSTORE PUSH1 0x20 DUP3 DUP5 ADD ADD GT PUSH3 0x467 JUMPI PUSH3 0x9F SWAP2 PUSH1 0x20 DUP1 DUP6 ADD SWAP2 ADD PUSH3 0x4A7 JUMP JUMPDEST PUSH1 0x40 DUP5 ADD MLOAD PUSH1 0x60 DUP6 ADD MLOAD SWAP1 PUSH1 0x80 DUP7 ADD MLOAD SWAP3 PUSH3 0xCC PUSH1 0xC0 PUSH3 0xC4 PUSH1 0xA0 DUP11 ADD PUSH3 0x492 JUMP JUMPDEST SWAP9 ADD PUSH3 0x492 JUMP JUMPDEST SWAP5 PUSH1 0x1 PUSH1 0x0 SSTORE CALLER PUSH1 0x80 MSTORE DUP3 PUSH1 0xA0 MSTORE DUP2 MLOAD SWAP1 DUP2 GT PUSH3 0x451 JUMPI PUSH1 0x1 SLOAD PUSH1 0x1 DUP2 DUP2 SHR SWAP2 AND DUP1 ISZERO PUSH3 0x446 JUMPI JUMPDEST PUSH1 0x20 DUP3 LT EQ PUSH3 0x430 JUMPI PUSH1 0x1F DUP2 GT PUSH3 0x3CA JUMPI JUMPDEST POP PUSH1 0x20 PUSH1 0x1F DUP3 GT PUSH1 0x1 EQ PUSH3 0x34B JUMPI SWAP1 DUP1 PUSH1 0x0 DUP1 MLOAD PUSH1 0x20 PUSH3 0x1626 DUP4 CODECOPY DUP2 MLOAD SWAP2 MSTORE SWAP4 SWAP3 PUSH1 0x0 SWAP2 PUSH3 0x33F JUMPI JUMPDEST POP DUP2 PUSH1 0x1 SHL SWAP2 PUSH1 0x0 NOT SWAP1 PUSH1 0x3 SHL SHR NOT AND OR PUSH1 0x1 SSTORE JUMPDEST PUSH1 0x40 DUP1 MLOAD DUP1 SWAP3 PUSH1 0x20 DUP3 MSTORE PUSH3 0x170 DUP2 MLOAD DUP1 SWAP3 DUP2 PUSH1 0x20 DUP7 ADD MSTORE PUSH1 0x20 DUP7 DUP7 ADD SWAP2 ADD PUSH3 0x4A7 JUMP JUMPDEST PUSH1 0x1F ADD PUSH1 0x1F NOT AND DUP2 ADD SUB ADD SWAP1 LOG2 PUSH1 0x1 PUSH1 0x1 PUSH1 0xA0 SHL SUB SWAP4 DUP5 AND DUP1 ISZERO PUSH3 0x2FA JUMPI TIMESTAMP DUP3 GT ISZERO PUSH3 0x2B5 JUMPI PUSH2 0x2710 DUP4 GT PUSH3 0x270 JUMPI PUSH1 0xC0 MSTORE PUSH1 0x2 SSTORE PUSH1 0x3 SSTORE DUP2 PUSH1 0x1 DUP1 PUSH1 0xA0 SHL SUB NOT SWAP4 AND DUP4 PUSH1 0x4 SLOAD AND OR PUSH1 0x4 SSTORE AND SWAP1 PUSH1 0x5 SLOAD AND OR PUSH1 0x5 SSTORE PUSH1 0x40 MLOAD PUSH2 0x1159 SWAP1 DUP2 PUSH3 0x4CD DUP3 CODECOPY PUSH1 0x80 MLOAD DUP2 DUP2 DUP2 PUSH1 0x45 ADD MSTORE DUP2 DUP2 PUSH2 0x238 ADD MSTORE DUP2 DUP2 PUSH2 0x32D ADD MSTORE DUP2 DUP2 PUSH2 0x446 ADD MSTORE DUP2 DUP2 PUSH2 0x6FC ADD MSTORE DUP2 DUP2 PUSH2 0x94B ADD MSTORE DUP2 DUP2 PUSH2 0xBC1 ADD MSTORE PUSH2 0xF76 ADD MSTORE PUSH1 0xA0 MLOAD DUP2 DUP2 DUP2 PUSH1 0x8F ADD MSTORE DUP2 DUP2 PUSH2 0x281 ADD MSTORE DUP2 DUP2 PUSH2 0x487 ADD MSTORE DUP2 DUP2 PUSH2 0x77D ADD MSTORE DUP2 DUP2 PUSH2 0x98C ADD MSTORE DUP2 DUP2 PUSH2 0xB79 ADD MSTORE DUP2 DUP2 PUSH2 0xCB9 ADD MSTORE PUSH2 0xF41 ADD MSTORE PUSH1 0xC0 MLOAD DUP2 DUP2 DUP2 PUSH2 0x1A9 ADD MSTORE DUP2 DUP2 PUSH2 0x402 ADD MSTORE DUP2 DUP2 PUSH2 0x87B ADD MSTORE DUP2 DUP2 PUSH2 0xC23 ADD MSTORE PUSH2 0xE5F ADD MSTORE RETURN JUMPDEST PUSH1 0x40 MLOAD PUSH3 0x461BCD PUSH1 0xE5 SHL DUP2 MSTORE PUSH1 0x20 PUSH1 0x4 DUP3 ADD MSTORE PUSH1 0x14 PUSH1 0x24 DUP3 ADD MSTORE PUSH32 0x496E76616C696420626173697320706F696E7473000000000000000000000000 PUSH1 0x44 DUP3 ADD MSTORE PUSH1 0x64 SWAP1 REVERT JUMPDEST PUSH1 0x40 MLOAD PUSH3 0x461BCD PUSH1 0xE5 SHL DUP2 MSTORE PUSH1 0x20 PUSH1 0x4 DUP3 ADD MSTORE PUSH1 0x1D PUSH1 0x24 DUP3 ADD MSTORE PUSH32 0x556E6C6F636B2074696D65206D75737420626520696E20667574757265000000 PUSH1 0x44 DUP3 ADD MSTORE PUSH1 0x64 SWAP1 REVERT JUMPDEST PUSH1 0x40 MLOAD PUSH3 0x461BCD PUSH1 0xE5 SHL DUP2 MSTORE PUSH1 0x20 PUSH1 0x4 DUP3 ADD MSTORE PUSH1 0x15 PUSH1 0x24 DUP3 ADD MSTORE PUSH32 0x496E76616C696420746F6B656E20616464726573730000000000000000000000 PUSH1 0x44 DUP3 ADD MSTORE PUSH1 0x64 SWAP1 REVERT JUMPDEST SWAP1 POP DUP3 ADD MLOAD CODESIZE PUSH3 0x136 JUMP JUMPDEST PUSH1 0x1 PUSH1 0x0 MSTORE PUSH1 0x20 PUSH1 0x0 KECCAK256 SWAP1 PUSH1 0x0 JUMPDEST PUSH1 0x1F NOT DUP5 AND DUP2 LT PUSH3 0x3B1 JUMPI POP SWAP2 PUSH1 0x1 SWAP2 PUSH1 0x0 DUP1 MLOAD PUSH1 0x20 PUSH3 0x1626 DUP4 CODECOPY DUP2 MLOAD SWAP2 MSTORE SWAP5 SWAP4 DUP3 PUSH1 0x1F NOT DUP2 AND LT PUSH3 0x397 JUMPI JUMPDEST POP POP DUP2 SHL ADD PUSH1 0x1 SSTORE PUSH3 0x14B JUMP JUMPDEST DUP5 ADD MLOAD PUSH1 0x0 NOT PUSH1 0xF8 DUP5 PUSH1 0x3 SHL AND SHR NOT AND SWAP1 SSTORE CODESIZE DUP1 PUSH3 0x389 JUMP JUMPDEST SWAP1 SWAP2 PUSH1 0x20 PUSH1 0x1 DUP2 SWAP3 DUP6 DUP9 ADD MLOAD DUP2 SSTORE ADD SWAP4 ADD SWAP2 ADD PUSH3 0x359 JUMP JUMPDEST PUSH1 0x1 PUSH1 0x0 MSTORE PUSH32 0xB10E2D527612073B26EECDFD717E6A320CF44B4AFAC2B0732D9FCBE2B7FA0CF6 PUSH1 0x1F DUP4 ADD PUSH1 0x5 SHR DUP2 ADD PUSH1 0x20 DUP5 LT PUSH3 0x428 JUMPI JUMPDEST PUSH1 0x1F DUP4 ADD PUSH1 0x5 SHR DUP3 ADD DUP2 LT PUSH3 0x41B JUMPI POP POP PUSH3 0x10A JUMP JUMPDEST PUSH1 0x0 DUP2 SSTORE PUSH1 0x1 ADD PUSH3 0x403 JUMP JUMPDEST POP DUP1 PUSH3 0x403 JUMP JUMPDEST PUSH4 0x4E487B71 PUSH1 0xE0 SHL PUSH1 0x0 MSTORE PUSH1 0x22 PUSH1 0x4 MSTORE PUSH1 0x24 PUSH1 0x0 REVERT JUMPDEST SWAP1 PUSH1 0x7F AND SWAP1 PUSH3 0xF6 JUMP JUMPDEST PUSH4 0x4E487B71 PUSH1 0xE0 SHL PUSH1 0x0 MSTORE PUSH1 0x41 PUSH1 0x4 MSTORE PUSH1 0x24 PUSH1 0x0 REVERT JUMPDEST PUSH1 0x0 DUP1 REVERT JUMPDEST PUSH1 0x40 MLOAD SWAP2 SWAP1 PUSH1 0x1F ADD PUSH1 0x1F NOT AND DUP3 ADD PUSH1 0x1 PUSH1 0x1 PUSH1 0x40 SHL SUB DUP2 GT DUP4 DUP3 LT OR PUSH3 0x451 JUMPI PUSH1 0x40 MSTORE JUMP JUMPDEST MLOAD SWAP1 PUSH1 0x1 PUSH1 0x1 PUSH1 0xA0 SHL SUB DUP3 AND DUP3 SUB PUSH3 0x467 JUMPI JUMP JUMPDEST PUSH1 0x0 JUMPDEST DUP4 DUP2 LT PUSH3 0x4BB JUMPI POP POP PUSH1 0x0 SWAP2 ADD MSTORE JUMP JUMPDEST DUP2 DUP2 ADD MLOAD DUP4 DUP3 ADD MSTORE PUSH1 0x20 ADD PUSH3 0x4AA JUMP INVALID PUSH1 0x80 PUSH1 0x40 DUP2 DUP2 MSTORE PUSH1 0x4 SWAP2 DUP3 CALLDATASIZE LT ISZERO PUSH2 0xDC JUMPI JUMPDEST POP CALLDATASIZE ISZERO PUSH2 0x1E JUMPI PUSH1 0x0 DUP1 REVERT JUMPDEST CALLVALUE PUSH2 0x25 JUMPI STOP JUMPDEST DUP1 MLOAD CALLVALUE DUP2 MSTORE TIMESTAMP PUSH1 0x20 DUP3 ADD MSTORE PUSH1 0x0 DUP1 MLOAD PUSH1 0x20 PUSH2 0x1104 DUP4 CODECOPY DUP2 MLOAD SWAP2 MSTORE DUP3 CALLER SWAP3 LOG2 PUSH32 0x0 PUSH1 0x1 PUSH1 0x1 PUSH1 0xA0 SHL SUB AND SWAP2 DUP3 EXTCODESIZE ISZERO PUSH2 0xD7 JUMPI PUSH1 0x0 SWAP3 PUSH1 0x24 DUP5 SWAP3 DUP5 MLOAD SWAP6 DUP7 SWAP4 DUP5 SWAP3 PUSH4 0x2B9343DB PUSH1 0xE1 SHL DUP5 MSTORE PUSH32 0x0 SWAP1 DUP5 ADD MSTORE GAS CALL SWAP1 DUP2 ISZERO PUSH2 0xCD JUMPI POP PUSH2 0xC2 JUMPI STOP JUMPDEST PUSH2 0xCB SWAP1 PUSH2 0xEE6 JUMP JUMPDEST STOP JUMPDEST MLOAD RETURNDATASIZE PUSH1 0x0 DUP3 RETURNDATACOPY RETURNDATASIZE SWAP1 REVERT JUMPDEST PUSH1 0x0 DUP1 REVERT JUMPDEST PUSH1 0x0 SWAP1 DUP2 CALLDATALOAD PUSH1 0xE0 SHR SWAP1 DUP2 PUSH4 0x1E1D114 EQ PUSH2 0xE34 JUMPI POP DUP1 PUSH4 0x178EA6AD EQ PUSH2 0xB9C JUMPI DUP1 PUSH4 0x17D70F7C EQ PUSH2 0xB61 JUMPI DUP1 PUSH4 0x38AF3EED EQ PUSH2 0xB38 JUMPI DUP1 PUSH4 0x3CCFD60B EQ PUSH2 0x82C JUMPI DUP1 PUSH4 0x5CDD1009 EQ PUSH2 0x6D3 JUMPI DUP1 PUSH4 0x61D027B3 EQ PUSH2 0x6A7 JUMPI DUP1 PUSH4 0x70740AAB EQ PUSH2 0x565 JUMPI DUP1 PUSH4 0x8DA5CB5B EQ PUSH2 0x537 JUMPI DUP1 PUSH4 0xAA082A9D EQ PUSH2 0x518 JUMPI DUP1 PUSH4 0xB6B55F25 EQ PUSH2 0x379 JUMPI DUP1 PUSH4 0xC1A287E2 EQ PUSH2 0x35C JUMPI DUP1 PUSH4 0xC45A0155 EQ PUSH2 0x318 JUMPI DUP1 PUSH4 0xD0E30DB0 EQ PUSH2 0x1FB JUMPI DUP1 PUSH4 0xECFAD9FD EQ PUSH2 0x1DC JUMPI PUSH4 0xFC0C546A SUB PUSH2 0x12 JUMPI SWAP1 CALLVALUE PUSH2 0x1D8 JUMPI DUP2 PUSH1 0x3 NOT CALLDATASIZE ADD SLT PUSH2 0x1D8 JUMPI MLOAD PUSH32 0x0 PUSH1 0x1 PUSH1 0x1 PUSH1 0xA0 SHL SUB AND DUP2 MSTORE PUSH1 0x20 SWAP1 RETURN JUMPDEST POP DUP1 REVERT JUMPDEST POP SWAP1 CALLVALUE PUSH2 0x1D8 JUMPI DUP2 PUSH1 0x3 NOT CALLDATASIZE ADD SLT PUSH2 0x1D8 JUMPI PUSH1 0x20 SWAP1 PUSH1 0x3 SLOAD SWAP1 MLOAD SWAP1 DUP2 MSTORE RETURN JUMPDEST POP DUP3 DUP2 PUSH1 0x3 NOT CALLDATASIZE ADD SLT PUSH2 0x1D8 JUMPI PUSH2 0x210 PUSH2 0xFF4 JUMP JUMPDEST CALLVALUE ISZERO PUSH2 0x2E0 JUMPI DUP3 DUP3 SWAP4 MLOAD CALLVALUE DUP2 MSTORE TIMESTAMP PUSH1 0x20 DUP3 ADD MSTORE PUSH1 0x0 DUP1 MLOAD PUSH1 0x20 PUSH2 0x1104 DUP4 CODECOPY DUP2 MLOAD SWAP2 MSTORE DUP3 CALLER SWAP3 LOG2 PUSH32 0x0 PUSH1 0x1 PUSH1 0x1 PUSH1 0xA0 SHL SUB AND SWAP2 DUP3 EXTCODESIZE ISZERO PUSH2 0x2DB JUMPI DUP4 SWAP3 PUSH1 0x24 DUP5 SWAP3 DUP5 MLOAD SWAP6 DUP7 SWAP4 DUP5 SWAP3 PUSH4 0x2B9343DB PUSH1 0xE1 SHL DUP5 MSTORE PUSH32 0x0 SWAP1 DUP5 ADD MSTORE GAS CALL SWAP1 DUP2 ISZERO PUSH2 0x2D2 JUMPI POP PUSH2 0x2BB JUMPI JUMPDEST POP PUSH1 0x1 SWAP1 SSTORE DUP1 RETURN JUMPDEST PUSH2 0x2C4 SWAP1 PUSH2 0xEE6 JUMP JUMPDEST PUSH2 0x2CF JUMPI DUP1 DUP3 PUSH2 0x2B3 JUMP JUMPDEST DUP1 REVERT JUMPDEST MLOAD RETURNDATASIZE DUP5 DUP3 RETURNDATACOPY RETURNDATASIZE SWAP1 REVERT JUMPDEST POP POP POP REVERT JUMPDEST PUSH1 0x64 SWAP1 PUSH1 0x20 DUP5 MLOAD SWAP2 PUSH3 0x461BCD PUSH1 0xE5 SHL DUP4 MSTORE DUP3 ADD MSTORE PUSH1 0x12 PUSH1 0x24 DUP3 ADD MSTORE PUSH18 0x416D6F756E74206D757374206265203E203 PUSH1 0x74 SHL PUSH1 0x44 DUP3 ADD MSTORE REVERT JUMPDEST POP SWAP1 CALLVALUE PUSH2 0x1D8 JUMPI DUP2 PUSH1 0x3 NOT CALLDATASIZE ADD SLT PUSH2 0x1D8 JUMPI MLOAD PUSH32 0x0 PUSH1 0x1 PUSH1 0x1 PUSH1 0xA0 SHL SUB AND DUP2 MSTORE PUSH1 0x20 SWAP1 RETURN JUMPDEST POP SWAP1 CALLVALUE PUSH2 0x1D8 JUMPI DUP2 PUSH1 0x3 NOT CALLDATASIZE ADD SLT PUSH2 0x1D8 JUMPI PUSH1 0x20 SWAP1 MLOAD PUSH2 0x12C DUP2 MSTORE RETURN JUMPDEST POP DUP3 CALLVALUE PUSH2 0x1D8 JUMPI PUSH1 0x20 CALLDATASIZE PUSH1 0x3 NOT ADD SLT PUSH2 0x1D8 JUMPI DUP1 CALLDATALOAD SWAP3 PUSH2 0x397 PUSH2 0xF32 JUMP JUMPDEST PUSH1 0x1 PUSH1 0x1 PUSH1 0xA0 SHL SUB SWAP1 PUSH2 0x3AD SWAP1 DUP3 AND CALLER EQ PUSH2 0x1017 JUMP JUMPDEST PUSH2 0x3B5 PUSH2 0xFF4 JUMP JUMPDEST DUP5 ISZERO PUSH2 0x4D5 JUMPI DUP2 MLOAD PUSH4 0x23B872DD PUSH1 0xE0 SHL PUSH1 0x20 DUP3 ADD MSTORE CALLER PUSH1 0x24 DUP3 ADD MSTORE ADDRESS PUSH1 0x44 DUP3 ADD MSTORE PUSH1 0x64 DUP1 DUP3 ADD DUP8 SWAP1 MSTORE DUP2 MSTORE SWAP5 PUSH1 0xA0 DUP7 ADD PUSH8 0xFFFFFFFFFFFFFFFF DUP2 GT DUP8 DUP3 LT OR PUSH2 0x4C0 JUMPI DUP6 SWAP7 PUSH2 0x426 SWAP2 DUP6 MSTORE PUSH32 0x0 PUSH2 0x1055 JUMP JUMPDEST DUP3 MLOAD SWAP1 DUP2 MSTORE TIMESTAMP PUSH1 0x20 DUP3 ADD MSTORE PUSH1 0x0 DUP1 MLOAD PUSH1 0x20 PUSH2 0x1104 DUP4 CODECOPY DUP2 MLOAD SWAP2 MSTORE DUP4 CALLER SWAP3 LOG2 PUSH32 0x0 AND SWAP2 DUP3 EXTCODESIZE ISZERO PUSH2 0x2DB JUMPI DUP4 SWAP3 PUSH1 0x24 DUP5 SWAP3 DUP5 MLOAD SWAP6 DUP7 SWAP4 DUP5 SWAP3 PUSH4 0x2B9343DB PUSH1 0xE1 SHL DUP5 MSTORE PUSH32 0x0 SWAP1 DUP5 ADD MSTORE GAS CALL SWAP1 DUP2 ISZERO PUSH2 0x2D2 JUMPI POP PUSH2 0x2BB JUMPI POP PUSH1 0x1 SWAP1 SSTORE DUP1 RETURN JUMPDEST PUSH1 0x41 DUP6 PUSH4 0x4E487B71 PUSH1 0xE0 SHL PUSH1 0x0 MSTORE MSTORE PUSH1 0x24 PUSH1 0x0 REVERT JUMPDEST DUP2 MLOAD PUSH3 0x461BCD PUSH1 0xE5 SHL DUP2 MSTORE PUSH1 0x20 DUP2 DUP6 ADD MSTORE PUSH1 0x1D PUSH1 0x24 DUP3 ADD MSTORE PUSH32 0x416D6F756E74206D7573742062652067726561746572207468616E2030000000 PUSH1 0x44 DUP3 ADD MSTORE PUSH1 0x64 SWAP1 REVERT JUMPDEST POP SWAP1 CALLVALUE PUSH2 0x1D8 JUMPI DUP2 PUSH1 0x3 NOT CALLDATASIZE ADD SLT PUSH2 0x1D8 JUMPI PUSH1 0x20 SWAP1 PUSH1 0x2 SLOAD SWAP1 MLOAD SWAP1 DUP2 MSTORE RETURN JUMPDEST POP SWAP1 CALLVALUE PUSH2 0x1D8 JUMPI DUP2 PUSH1 0x3 NOT CALLDATASIZE ADD SLT PUSH2 0x1D8 JUMPI PUSH1 0x20 SWAP1 PUSH2 0x554 PUSH2 0xF32 JUMP JUMPDEST SWAP1 MLOAD PUSH1 0x1 PUSH1 0x1 PUSH1 0xA0 SHL SUB SWAP1 SWAP2 AND DUP2 MSTORE RETURN JUMPDEST POP CALLVALUE PUSH2 0x2CF JUMPI DUP1 PUSH1 0x3 NOT CALLDATASIZE ADD SLT PUSH2 0x2CF JUMPI DUP2 MLOAD SWAP1 DUP1 PUSH1 0x1 DUP1 SLOAD SWAP1 DUP2 DUP2 SHR SWAP2 DUP2 DUP2 AND DUP1 ISZERO PUSH2 0x69D JUMPI JUMPDEST PUSH1 0x20 SWAP9 DUP10 DUP6 LT DUP3 EQ PUSH2 0x68A JUMPI POP SWAP2 DUP4 SWAP2 DUP10 SWAP6 SWAP4 DUP9 SWAP6 DUP7 MSTORE SWAP1 DUP2 PUSH1 0x0 EQ PUSH2 0x669 JUMPI POP PUSH1 0x1 EQ PUSH2 0x60E JUMPI JUMPDEST POP POP PUSH2 0x5C8 SWAP3 POP SWAP6 SWAP4 SWAP3 SWAP6 SUB DUP3 PUSH2 0xF10 JUMP JUMPDEST DUP3 MLOAD SWAP4 DUP3 DUP6 SWAP4 DUP5 MSTORE DUP3 MLOAD SWAP3 DUP4 DUP3 DUP7 ADD MSTORE DUP3 JUMPDEST DUP5 DUP2 LT PUSH2 0x5F8 JUMPI POP POP POP DUP3 DUP3 ADD DUP5 ADD MSTORE PUSH1 0x1F ADD PUSH1 0x1F NOT AND DUP2 ADD SUB ADD SWAP1 RETURN JUMPDEST DUP2 DUP2 ADD DUP4 ADD MLOAD DUP9 DUP3 ADD DUP9 ADD MSTORE DUP8 SWAP6 POP DUP3 ADD PUSH2 0x5DA JUMP JUMPDEST DUP1 DUP7 MSTORE PUSH32 0xB10E2D527612073B26EECDFD717E6A320CF44B4AFAC2B0732D9FCBE2B7FA0CF6 SWAP5 SWAP3 POP DUP6 SWAP2 SWAP1 JUMPDEST DUP2 DUP4 LT PUSH2 0x651 JUMPI POP DUP9 SWAP5 POP POP DUP3 ADD ADD PUSH2 0x5C8 CODESIZE PUSH2 0x5B6 JUMP JUMPDEST DUP6 SLOAD DUP9 DUP5 ADD DUP6 ADD MSTORE SWAP5 DUP6 ADD SWAP5 DUP8 SWAP5 POP SWAP2 DUP4 ADD SWAP2 PUSH2 0x639 JUMP JUMPDEST SWAP2 POP POP PUSH2 0x5C8 SWAP5 SWAP3 POP PUSH1 0xFF NOT AND DUP3 DUP5 ADD MSTORE ISZERO ISZERO PUSH1 0x5 SHL DUP3 ADD ADD DUP7 SWAP3 CODESIZE PUSH2 0x5B6 JUMP JUMPDEST PUSH4 0x4E487B71 PUSH1 0xE0 SHL DUP8 MSTORE PUSH1 0x22 SWAP1 MSTORE PUSH1 0x24 DUP7 REVERT JUMPDEST SWAP3 PUSH1 0x7F AND SWAP3 PUSH2 0x58D JUMP JUMPDEST POP SWAP2 CALLVALUE PUSH2 0x6CF JUMPI DUP3 PUSH1 0x3 NOT CALLDATASIZE ADD SLT PUSH2 0x6CF JUMPI SLOAD SWAP1 MLOAD PUSH1 0x1 PUSH1 0x1 PUSH1 0xA0 SHL SUB SWAP1 SWAP2 AND DUP2 MSTORE PUSH1 0x20 SWAP2 POP RETURN JUMPDEST DUP3 DUP1 REVERT JUMPDEST POP SWAP1 CALLVALUE PUSH2 0x1D8 JUMPI PUSH1 0x20 CALLDATASIZE PUSH1 0x3 NOT ADD SLT PUSH2 0x1D8 JUMPI DUP3 CALLDATALOAD SWAP1 PUSH2 0x6F1 PUSH2 0xFF4 JUMP JUMPDEST PUSH1 0x1 PUSH1 0x1 PUSH1 0xA0 SHL SUB SWAP4 PUSH32 0x0 DUP6 AND SWAP3 CALLER DUP5 SWAP1 SUB PUSH2 0x7FA JUMPI DUP1 ISZERO PUSH2 0x7CA JUMPI PUSH1 0x0 DUP1 MLOAD PUSH1 0x20 PUSH2 0x1104 DUP4 CODECOPY DUP2 MLOAD SWAP2 MSTORE DUP4 DUP7 SWAP8 PUSH2 0x746 PUSH2 0xF32 JUMP JUMPDEST DUP3 MLOAD SWAP5 DUP6 MSTORE TIMESTAMP PUSH1 0x20 DUP7 ADD MSTORE AND SWAP3 LOG2 PUSH2 0x75C PUSH2 0xF32 JUMP JUMPDEST POP DUP3 EXTCODESIZE ISZERO PUSH2 0x2DB JUMPI DUP4 SWAP3 PUSH1 0x24 DUP5 SWAP3 DUP5 MLOAD SWAP6 DUP7 SWAP4 DUP5 SWAP3 PUSH4 0x2B9343DB PUSH1 0xE1 SHL DUP5 MSTORE PUSH32 0x0 SWAP1 DUP5 ADD MSTORE GAS CALL SWAP1 DUP2 ISZERO PUSH2 0x2D2 JUMPI POP PUSH2 0x7B6 JUMPI POP PUSH1 0x1 SWAP1 SSTORE DUP1 RETURN JUMPDEST PUSH2 0x7BF SWAP1 PUSH2 0xEE6 JUMP JUMPDEST PUSH2 0x2CF JUMPI DUP1 CODESIZE PUSH2 0x2B3 JUMP JUMPDEST POP PUSH1 0x20 PUSH1 0x64 SWAP3 MLOAD SWAP2 PUSH3 0x461BCD PUSH1 0xE5 SHL DUP4 MSTORE DUP3 ADD MSTORE PUSH1 0xA PUSH1 0x24 DUP3 ADD MSTORE PUSH10 0x416D6F756E74203E203 PUSH1 0xB4 SHL PUSH1 0x44 DUP3 ADD MSTORE REVERT JUMPDEST POP PUSH1 0x20 PUSH1 0x64 SWAP3 MLOAD SWAP2 PUSH3 0x461BCD PUSH1 0xE5 SHL DUP4 MSTORE DUP3 ADD MSTORE PUSH1 0xC PUSH1 0x24 DUP3 ADD MSTORE PUSH12 0x4F6E6C7920466163746F7279 PUSH1 0xA0 SHL PUSH1 0x44 DUP3 ADD MSTORE REVERT JUMPDEST POP DUP3 CALLVALUE PUSH2 0x1D8 JUMPI DUP2 PUSH1 0x3 NOT CALLDATASIZE ADD SLT PUSH2 0x1D8 JUMPI PUSH2 0x846 PUSH2 0xF32 JUMP JUMPDEST PUSH1 0x1 PUSH1 0x1 PUSH1 0xA0 SHL SUB SWAP4 SWAP1 PUSH2 0x85D SWAP1 DUP6 AND CALLER EQ PUSH2 0x1017 JUMP JUMPDEST PUSH2 0x865 PUSH2 0xFF4 JUMP JUMPDEST DUP1 MLOAD PUSH4 0x70A08231 PUSH1 0xE0 SHL DUP2 MSTORE ADDRESS DUP4 DUP3 ADD MSTORE SWAP4 PUSH1 0x20 PUSH32 0x0 DUP2 DUP8 PUSH1 0x24 DUP2 DUP7 DUP6 AND GAS STATICCALL SWAP7 DUP8 ISZERO PUSH2 0xB2E JUMPI DUP7 SWAP8 PUSH2 0xAFF JUMPI JUMPDEST POP DUP7 ISZERO PUSH2 0xAC5 JUMPI PUSH1 0x2 SLOAD TIMESTAMP LT PUSH2 0x9C5 JUMPI DUP7 SWAP2 PUSH2 0x8F2 DUP8 SWAP9 PUSH32 0x779C86999FB727CA861D0288AA11ED4104347721C571E4F0DA5172AFB607D885 SWAP4 CALLER SWAP1 PUSH2 0x10B1 JUMP JUMPDEST DUP5 MLOAD DUP4 DUP2 MSTORE TIMESTAMP DUP3 DUP3 ADD MSTORE PUSH1 0x60 DUP7 DUP3 ADD MSTORE PUSH1 0x8 PUSH1 0x60 DUP3 ADD MSTORE PUSH8 0x4D41545552495459 PUSH1 0xC0 SHL PUSH1 0x80 DUP3 ADD MSTORE PUSH32 0x62116A798BB58CC967874BEA4D771DE2F9AEEC6C64189FF2E5A551072F3106F9 PUSH1 0xA0 CALLER SWAP3 LOG2 DUP5 MLOAD SWAP3 DUP4 MSTORE CALLER SWAP3 LOG2 JUMPDEST PUSH32 0x0 AND SWAP2 DUP3 EXTCODESIZE ISZERO PUSH2 0x2DB JUMPI DUP4 SWAP3 PUSH1 0x24 DUP5 SWAP3 DUP5 MLOAD SWAP6 DUP7 SWAP4 DUP5 SWAP3 PUSH4 0x5C6E0E27 PUSH1 0xE0 SHL DUP5 MSTORE PUSH32 0x0 SWAP1 DUP5 ADD MSTORE GAS CALL SWAP1 DUP2 ISZERO PUSH2 0x2D2 JUMPI POP PUSH2 0x2BB JUMPI POP PUSH1 0x1 SWAP1 SSTORE DUP1 RETURN JUMPDEST SWAP1 PUSH1 0x3 SLOAD DUP1 DUP9 MUL SWAP1 DUP9 DUP3 DIV SUB PUSH2 0xAB2 JUMPI PUSH2 0x2710 SWAP1 DIV SWAP1 DUP2 DUP9 SUB SWAP3 DUP9 DUP5 GT PUSH2 0xA9F JUMPI DUP4 DUP4 DUP10 SWAP11 DUP2 PUSH2 0xA8C JUMPI JUMPDEST SUB PUSH2 0xA7A JUMPI JUMPDEST POP POP DUP5 MLOAD DUP4 DUP2 MSTORE TIMESTAMP DUP3 DUP3 ADD MSTORE PUSH1 0x60 DUP7 DUP3 ADD MSTORE PUSH1 0xA PUSH1 0x60 DUP3 ADD MSTORE PUSH10 0x115054931657D1561255 PUSH1 0xB2 SHL PUSH1 0x80 DUP3 ADD MSTORE PUSH32 0x62116A798BB58CC967874BEA4D771DE2F9AEEC6C64189FF2E5A551072F3106F9 PUSH1 0xA0 CALLER SWAP3 LOG2 DUP5 MLOAD SWAP3 DUP4 MSTORE DUP3 ADD MSTORE PUSH32 0x1670585E36568EDE58D159518CE92CAD99F75AD41C7D8281DF3DD4EAA0C855D0 DUP4 CALLER SWAP3 LOG2 PUSH2 0x949 JUMP JUMPDEST PUSH2 0xA85 SWAP2 CALLER SWAP1 PUSH2 0x10B1 JUMP JUMPDEST DUP9 DUP4 PUSH2 0x9F6 JUMP JUMPDEST PUSH2 0xA9A DUP3 DUP10 DUP13 SLOAD AND DUP7 PUSH2 0x10B1 JUMP JUMPDEST PUSH2 0x9F0 JUMP JUMPDEST PUSH4 0x4E487B71 PUSH1 0xE0 SHL DUP9 MSTORE PUSH1 0x11 DUP8 MSTORE PUSH1 0x24 DUP9 REVERT JUMPDEST PUSH4 0x4E487B71 PUSH1 0xE0 SHL DUP8 MSTORE PUSH1 0x11 DUP7 MSTORE PUSH1 0x24 DUP8 REVERT JUMPDEST DUP4 MLOAD PUSH3 0x461BCD PUSH1 0xE5 SHL DUP2 MSTORE DUP1 DUP7 ADD DUP4 SWAP1 MSTORE PUSH1 0x14 PUSH1 0x24 DUP3 ADD MSTORE PUSH20 0x4E6F2066756E647320746F207769746864726177 PUSH1 0x60 SHL PUSH1 0x44 DUP3 ADD MSTORE PUSH1 0x64 SWAP1 REVERT JUMPDEST SWAP1 SWAP7 POP DUP2 DUP2 DUP2 RETURNDATASIZE DUP4 GT PUSH2 0xB27 JUMPI JUMPDEST PUSH2 0xB17 DUP2 DUP4 PUSH2 0xF10 JUMP JUMPDEST DUP2 ADD SUB SLT PUSH2 0xD7 JUMPI MLOAD SWAP6 DUP8 PUSH2 0x8B2 JUMP JUMPDEST POP RETURNDATASIZE PUSH2 0xB0D JUMP JUMPDEST DUP5 MLOAD RETURNDATASIZE DUP9 DUP3 RETURNDATACOPY RETURNDATASIZE SWAP1 REVERT JUMPDEST POP SWAP1 CALLVALUE PUSH2 0x1D8 JUMPI DUP2 PUSH1 0x3 NOT CALLDATASIZE ADD SLT PUSH2 0x1D8 JUMPI PUSH1 0x5 SLOAD SWAP1 MLOAD PUSH1 0x1 PUSH1 0x1 PUSH1 0xA0 SHL SUB SWAP1 SWAP2 AND DUP2 MSTORE PUSH1 0x20 SWAP1 RETURN JUMPDEST POP SWAP1 CALLVALUE PUSH2 0x1D8 JUMPI DUP2 PUSH1 0x3 NOT CALLDATASIZE ADD SLT PUSH2 0x1D8 JUMPI PUSH1 0x20 SWAP1 MLOAD PUSH32 0x0 DUP2 MSTORE RETURN JUMPDEST POP SWAP1 CALLVALUE PUSH2 0x1D8 JUMPI DUP2 PUSH1 0x3 NOT CALLDATASIZE ADD SLT PUSH2 0x1D8 JUMPI PUSH2 0xBB6 PUSH2 0xFF4 JUMP JUMPDEST PUSH1 0x1 PUSH1 0x1 PUSH1 0xA0 SHL SUB SWAP3 PUSH32 0x0 DUP5 AND CALLER DUP2 SWAP1 SUB PUSH2 0xDFC JUMPI DUP5 PUSH1 0x5 SLOAD AND DUP1 ISZERO PUSH2 0xDC4 JUMPI PUSH1 0x2 SLOAD PUSH2 0x12C DUP2 ADD DUP1 SWAP2 GT PUSH2 0xDB1 JUMPI TIMESTAMP GT ISZERO PUSH2 0xD76 JUMPI DUP4 MLOAD PUSH4 0x70A08231 PUSH1 0xE0 SHL DUP2 MSTORE ADDRESS DUP5 DUP3 ADD MSTORE PUSH1 0x20 SWAP7 SWAP1 SWAP2 PUSH32 0x0 DUP9 DUP5 PUSH1 0x24 DUP2 DUP7 DUP6 AND GAS STATICCALL SWAP4 DUP5 ISZERO PUSH2 0xD6C JUMPI DUP9 SWAP5 PUSH2 0xD39 JUMPI JUMPDEST POP DUP4 ISZERO PUSH2 0xD02 JUMPI SWAP2 PUSH2 0xC90 DUP5 DUP10 SWAP11 SWAP4 PUSH32 0x735E2EF7D759ED5EDC5B5CFD70BD63F00EDDD61E652119B1825287362957AD59 SWAP6 PUSH2 0x10B1 JUMP JUMPDEST PUSH1 0x5 SLOAD AND SWAP3 DUP7 MLOAD SWAP1 DUP2 MSTORE LOG2 DUP1 EXTCODESIZE ISZERO PUSH2 0x2DB JUMPI PUSH1 0x24 DUP5 SWAP3 DUP5 MLOAD SWAP6 DUP7 SWAP4 DUP5 SWAP3 PUSH4 0x5C6E0E27 PUSH1 0xE0 SHL DUP5 MSTORE PUSH32 0x0 SWAP1 DUP5 ADD MSTORE GAS CALL SWAP1 DUP2 ISZERO PUSH2 0x2D2 JUMPI POP PUSH2 0xCF3 JUMPI JUMPDEST POP PUSH1 0x1 DUP2 SSTORE DUP1 RETURN JUMPDEST PUSH2 0xCFC SWAP1 PUSH2 0xEE6 JUMP JUMPDEST CODESIZE PUSH2 0xCEB JUMP JUMPDEST DUP7 MLOAD PUSH3 0x461BCD PUSH1 0xE5 SHL DUP2 MSTORE DUP1 DUP8 ADD DUP11 SWAP1 MSTORE PUSH1 0x11 PUSH1 0x24 DUP3 ADD MSTORE PUSH17 0x4E6F2066756E647320746F20636C61696D PUSH1 0x78 SHL PUSH1 0x44 DUP3 ADD MSTORE PUSH1 0x64 SWAP1 REVERT JUMPDEST SWAP1 SWAP4 POP DUP9 DUP2 DUP2 RETURNDATASIZE DUP4 GT PUSH2 0xD65 JUMPI JUMPDEST PUSH2 0xD51 DUP2 DUP4 PUSH2 0xF10 JUMP JUMPDEST DUP2 ADD SUB SLT PUSH2 0xD61 JUMPI MLOAD SWAP3 CODESIZE PUSH2 0xC5A JUMP JUMPDEST DUP8 DUP1 REVERT JUMPDEST POP RETURNDATASIZE PUSH2 0xD47 JUMP JUMPDEST DUP8 MLOAD RETURNDATASIZE DUP11 DUP3 RETURNDATACOPY RETURNDATASIZE SWAP1 REVERT JUMPDEST DUP4 MLOAD PUSH3 0x461BCD PUSH1 0xE5 SHL DUP2 MSTORE PUSH1 0x20 DUP2 DUP6 ADD MSTORE PUSH1 0x15 PUSH1 0x24 DUP3 ADD MSTORE PUSH21 0x23B930B1B2903832B934B7B2103737BA1037BB32B9 PUSH1 0x59 SHL PUSH1 0x44 DUP3 ADD MSTORE PUSH1 0x64 SWAP1 REVERT JUMPDEST PUSH4 0x4E487B71 PUSH1 0xE0 SHL DUP7 MSTORE PUSH1 0x11 DUP5 MSTORE PUSH1 0x24 DUP7 REVERT JUMPDEST DUP4 MLOAD PUSH3 0x461BCD PUSH1 0xE5 SHL DUP2 MSTORE PUSH1 0x20 DUP2 DUP6 ADD MSTORE PUSH1 0x12 PUSH1 0x24 DUP3 ADD MSTORE PUSH18 0x139BC818995B99599A58DA585C9E481CD95D PUSH1 0x72 SHL PUSH1 0x44 DUP3 ADD MSTORE PUSH1 0x64 SWAP1 REVERT JUMPDEST POP PUSH1 0x20 PUSH1 0x64 SWAP3 MLOAD SWAP2 PUSH3 0x461BCD PUSH1 0xE5 SHL DUP4 MSTORE DUP3 ADD MSTORE PUSH1 0x12 PUSH1 0x24 DUP3 ADD MSTORE PUSH18 0x27B7363C903330B1BA37B93C9030B236B4B7 PUSH1 0x71 SHL PUSH1 0x44 DUP3 ADD MSTORE REVERT JUMPDEST SWAP1 POP DUP3 DUP5 CALLVALUE PUSH2 0xEE2 JUMPI DUP4 PUSH1 0x3 NOT CALLDATASIZE ADD SLT PUSH2 0xEE2 JUMPI PUSH4 0x70A08231 PUSH1 0xE0 SHL DUP4 MSTORE ADDRESS SWAP1 DUP4 ADD MSTORE PUSH1 0x20 DUP3 PUSH1 0x24 DUP2 PUSH32 0x0 PUSH1 0x1 PUSH1 0x1 PUSH1 0xA0 SHL SUB AND GAS STATICCALL SWAP2 DUP3 ISZERO PUSH2 0xED8 JUMPI DUP4 SWAP3 PUSH2 0xEA1 JUMPI JUMPDEST PUSH1 0x20 DUP4 DUP4 MLOAD SWAP1 DUP2 MSTORE RETURN JUMPDEST SWAP1 SWAP2 POP PUSH1 0x20 DUP2 RETURNDATASIZE DUP3 GT PUSH2 0xED0 JUMPI JUMPDEST DUP2 PUSH2 0xEBC PUSH1 0x20 SWAP4 DUP4 PUSH2 0xF10 JUMP JUMPDEST DUP2 ADD SUB SLT PUSH2 0x6CF JUMPI PUSH1 0x20 SWAP3 POP MLOAD SWAP1 DUP4 PUSH2 0xE97 JUMP JUMPDEST RETURNDATASIZE SWAP2 POP PUSH2 0xEAF JUMP JUMPDEST DUP2 MLOAD RETURNDATASIZE DUP6 DUP3 RETURNDATACOPY RETURNDATASIZE SWAP1 REVERT JUMPDEST DUP4 DUP1 REVERT JUMPDEST PUSH8 0xFFFFFFFFFFFFFFFF DUP2 GT PUSH2 0xEFA JUMPI PUSH1 0x40 MSTORE JUMP JUMPDEST PUSH4 0x4E487B71 PUSH1 0xE0 SHL PUSH1 0x0 MSTORE PUSH1 0x41 PUSH1 0x4 MSTORE PUSH1 0x24 PUSH1 0x0 REVERT JUMPDEST SWAP1 PUSH1 0x1F DUP1 NOT SWAP2 ADD AND DUP2 ADD SWAP1 DUP2 LT PUSH8 0xFFFFFFFFFFFFFFFF DUP3 GT OR PUSH2 0xEFA JUMPI PUSH1 0x40 MSTORE JUMP JUMPDEST PUSH1 0x40 MLOAD PUSH4 0x31A9108F PUSH1 0xE1 SHL DUP2 MSTORE PUSH32 0x0 PUSH1 0x4 DUP3 ADD MSTORE PUSH1 0x1 PUSH1 0x1 PUSH1 0xA0 SHL SUB SWAP1 PUSH1 0x20 DUP2 PUSH1 0x24 DUP2 PUSH32 0x0 DUP7 AND GAS STATICCALL SWAP1 DUP2 ISZERO PUSH2 0xFE8 JUMPI PUSH1 0x0 SWAP2 PUSH2 0xFAE JUMPI JUMPDEST POP SWAP1 POP SWAP1 JUMP JUMPDEST PUSH1 0x20 DUP2 RETURNDATASIZE DUP3 GT PUSH2 0xFE0 JUMPI JUMPDEST DUP2 PUSH2 0xFC6 PUSH1 0x20 SWAP4 DUP4 PUSH2 0xF10 JUMP JUMPDEST DUP2 ADD SUB SLT PUSH2 0x1D8 JUMPI MLOAD SWAP2 DUP3 AND DUP3 SUB PUSH2 0x2CF JUMPI POP DUP1 CODESIZE PUSH2 0xFA8 JUMP JUMPDEST RETURNDATASIZE SWAP2 POP PUSH2 0xFB9 JUMP JUMPDEST PUSH1 0x40 MLOAD RETURNDATASIZE PUSH1 0x0 DUP3 RETURNDATACOPY RETURNDATASIZE SWAP1 REVERT JUMPDEST PUSH1 0x2 PUSH1 0x0 SLOAD EQ PUSH2 0x1005 JUMPI PUSH1 0x2 PUSH1 0x0 SSTORE JUMP JUMPDEST PUSH1 0x40 MLOAD PUSH4 0x3EE5AEB5 PUSH1 0xE0 SHL DUP2 MSTORE PUSH1 0x4 SWAP1 REVERT JUMPDEST ISZERO PUSH2 0x101E JUMPI JUMP JUMPDEST PUSH1 0x40 MLOAD PUSH3 0x461BCD PUSH1 0xE5 SHL DUP2 MSTORE PUSH1 0x20 PUSH1 0x4 DUP3 ADD MSTORE PUSH1 0xF PUSH1 0x24 DUP3 ADD MSTORE PUSH15 0x2737BA103B30BAB63A1037BBB732B9 PUSH1 0x89 SHL PUSH1 0x44 DUP3 ADD MSTORE PUSH1 0x64 SWAP1 REVERT JUMPDEST SWAP1 PUSH1 0x0 PUSH1 0x20 SWAP2 DUP3 DUP2 MLOAD SWAP2 ADD DUP3 DUP6 GAS CALL ISZERO PUSH2 0xFE8 JUMPI PUSH1 0x0 MLOAD RETURNDATASIZE PUSH2 0x10A8 JUMPI POP PUSH1 0x1 PUSH1 0x1 PUSH1 0xA0 SHL SUB DUP2 AND EXTCODESIZE ISZERO JUMPDEST PUSH2 0x1086 JUMPI POP JUMP JUMPDEST PUSH1 0x40 MLOAD PUSH4 0x5274AFE7 PUSH1 0xE0 SHL DUP2 MSTORE PUSH1 0x1 PUSH1 0x1 PUSH1 0xA0 SHL SUB SWAP1 SWAP2 AND PUSH1 0x4 DUP3 ADD MSTORE PUSH1 0x24 SWAP1 REVERT JUMPDEST PUSH1 0x1 EQ ISZERO PUSH2 0x107F JUMP JUMPDEST PUSH1 0x40 MLOAD PUSH4 0xA9059CBB PUSH1 0xE0 SHL PUSH1 0x20 DUP3 ADD MSTORE PUSH1 0x1 PUSH1 0x1 PUSH1 0xA0 SHL SUB SWAP1 SWAP3 AND PUSH1 0x24 DUP4 ADD MSTORE PUSH1 0x44 DUP1 DUP4 ADD SWAP4 SWAP1 SWAP4 MSTORE SWAP2 DUP2 MSTORE PUSH1 0x80 DUP2 ADD SWAP2 PUSH8 0xFFFFFFFFFFFFFFFF DUP4 GT DUP3 DUP5 LT OR PUSH2 0xEFA JUMPI PUSH2 0x1101 SWAP3 PUSH1 0x40 MSTORE PUSH2 0x1055 JUMP JUMPDEST JUMP INVALID PUSH20 0xA19DD210F1A7F902193214C0EE91DD35EE5B4D92 0xC 0xBA DUP14 MLOAD SWAP15 0xCA PUSH6 0xA7B488CAA264 PUSH10 0x70667358221220319BFB SWAP14 PUSH12 0xA7B7E531D2A6D8AE9E59E8D BASEFEE 0xE0 PUSH26 0xA47C7B449EE5E9BF43C2484064736F6C63430008140033EC48E1 KECCAK256 SHR 0x49 0xEF DUP2 0xC2 SELFBALANCE REVERT 0xD 0xAA POP EXTCODESIZE 0xBD 0xD 0xEA 0xDD 0x1F 0xAF GASPRICE LOG1 PUSH2 0xF60C 0xD5 DIV 0xDE 0xBF 0xE6 0xCA "},"methodIdentifiers":{"GRACE_PERIOD()":"c1a287e2","beneficiary()":"38af3eed","claimByBeneficiary()":"178ea6ad","deposit()":"d0e30db0","deposit(uint256)":"b6b55f25","depositFromFactory(uint256)":"5cdd1009","factory()":"c45a0155","owner()":"8da5cb5b","penaltyBps()":"ecfad9fd","purpose()":"70740aab","token()":"fc0c546a","tokenId()":"17d70f7c","totalAssets()":"01e1d114","treasury()":"61d027b3","unlockTimestamp()":"aa082a9d","withdraw()":"3ccfd60b"}}}}}