{"contracts/VaultFactory.sol":{"VaultFactory":{"abi":[{"inputs":[{"internalType":"address","name":"_usdtToken","type":"address"},{"internalType":"address","name":"_kUsdtToken","type":"address"},{"internalType":"address","name":"_protocolTreasury","type":"address"}],"stateMutability":"nonpayable","type":"constructor"},{"inputs":[{"internalType":"address","name":"token","type":"address"}],"name":"SafeERC20FailedOperation","type":"error"},{"anonymous":false,"inputs":[{"indexed":true,"internalType":"address","name":"vaultAddress","type":"address"},{"indexed":true,"internalType":"address","name":"owner","type":"address"},{"indexed":false,"internalType":"string","name":"purpose","type":"string"},{"indexed":false,"internalType":"uint256","name":"unlockTime","type":"uint256"}],"name":"PersonalVaultCreated","type":"event"},{"inputs":[{"internalType":"uint256","name":"","type":"uint256"}],"name":"allVaults","outputs":[{"internalType":"address","name":"","type":"address"}],"stateMutability":"view","type":"function"},{"inputs":[{"internalType":"string","name":"_purpose","type":"string"},{"internalType":"uint256","name":"_unlockTimestamp","type":"uint256"},{"internalType":"uint256","name":"_penaltyBps","type":"uint256"},{"internalType":"uint256","name":"_initialDeposit","type":"uint256"}],"name":"createPersonalVault","outputs":[{"internalType":"address","name":"","type":"address"}],"stateMutability":"nonpayable","type":"function"},{"inputs":[],"name":"getAllVaults","outputs":[{"internalType":"address[]","name":"","type":"address[]"}],"stateMutability":"view","type":"function"},{"inputs":[{"internalType":"address","name":"_user","type":"address"}],"name":"getUserVaults","outputs":[{"internalType":"address[]","name":"","type":"address[]"}],"stateMutability":"view","type":"function"},{"inputs":[{"internalType":"address","name":"","type":"address"}],"name":"isVault","outputs":[{"internalType":"bool","name":"","type":"bool"}],"stateMutability":"view","type":"function"},{"inputs":[],"name":"kUsdtToken","outputs":[{"internalType":"address","name":"","type":"address"}],"stateMutability":"view","type":"function"},{"inputs":[],"name":"protocolTreasury","outputs":[{"internalType":"address","name":"","type":"address"}],"stateMutability":"view","type":"function"},{"inputs":[],"name":"usdtToken","outputs":[{"internalType":"address","name":"","type":"address"}],"stateMutability":"view","type":"function"},{"inputs":[{"internalType":"address","name":"","type":"address"},{"internalType":"uint256","name":"","type":"uint256"}],"name":"userVaults","outputs":[{"internalType":"address","name":"","type":"address"}],"stateMutability":"view","type":"function"}],"evm":{"bytecode":{"linkReferences":{},"object":"60c06040523480156200001157600080fd5b506040516200422d3803806200422d8339818101604052810190620000379190620002a9565b600073ffffffffffffffffffffffffffffffffffffffff168373ffffffffffffffffffffffffffffffffffffffff1603620000a9576040517f08c379a0000000000000000000000000000000000000000000000000000000008152600401620000a09062000366565b60405180910390fd5b600073ffffffffffffffffffffffffffffffffffffffff168273ffffffffffffffffffffffffffffffffffffffff16036200011b576040517f08c379a00000000000000000000000000000000000000000000000000000000081526004016200011290620003d8565b60405180910390fd5b600073ffffffffffffffffffffffffffffffffffffffff168173ffffffffffffffffffffffffffffffffffffffff16036200018d576040517f08c379a000000000000000000000000000000000000000000000000000000000815260040162000184906200044a565b60405180910390fd5b8273ffffffffffffffffffffffffffffffffffffffff1660808173ffffffffffffffffffffffffffffffffffffffff16815250508173ffffffffffffffffffffffffffffffffffffffff1660a08173ffffffffffffffffffffffffffffffffffffffff168152505080600360006101000a81548173ffffffffffffffffffffffffffffffffffffffff021916908373ffffffffffffffffffffffffffffffffffffffff1602179055505050506200046c565b600080fd5b600073ffffffffffffffffffffffffffffffffffffffff82169050919050565b6000620002718262000244565b9050919050565b620002838162000264565b81146200028f57600080fd5b50565b600081519050620002a38162000278565b92915050565b600080600060608486031215620002c557620002c46200023f565b5b6000620002d58682870162000292565b9350506020620002e88682870162000292565b9250506040620002fb8682870162000292565b9150509250925092565b600082825260208201905092915050565b7f496e76616c696420555344542061646472657373000000000000000000000000600082015250565b60006200034e60148362000305565b91506200035b8262000316565b602082019050919050565b6000602082019050818103600083015262000381816200033f565b9050919050565b7f496e76616c6964206b5553445420616464726573730000000000000000000000600082015250565b6000620003c060158362000305565b9150620003cd8262000388565b602082019050919050565b60006020820190508181036000830152620003f381620003b1565b9050919050565b7f496e76616c696420747265617375727920616464726573730000000000000000600082015250565b60006200043260188362000305565b91506200043f82620003fa565b602082019050919050565b60006020820190508181036000830152620004658162000423565b9050919050565b60805160a051613d86620004a7600039600081816103c601526104dd0152600081816103a2015281816104bc01526106d50152613d866000f3fe60806040523480156200001157600080fd5b5060043610620000a05760003560e01c80639c841fef116200006f5780639c841fef1462000155578063a98ad46c146200018b578063d2497f5d14620001ad578063e7f3c69c14620001cf578063fef28369146200020557620000a0565b8063652b9b4114620000a5578063803db96d14620000db5780639094a91e14620000fd57806397331bf91462000133575b600080fd5b620000c36004803603810190620000bd9190620009a9565b6200023b565b604051620000d29190620009f8565b60405180910390f35b620000e56200025b565b604051620000f4919062000a26565b60405180910390f35b6200011b600480360381019062000115919062000a7e565b62000281565b6040516200012a919062000a26565b60405180910390f35b6200013d620002c1565b6040516200014c919062000b7e565b60405180910390f35b6200017360048036038101906200016d919062000ba2565b62000351565b60405162000182919062000a26565b60405180910390f35b62000195620003a0565b604051620001a4919062000a26565b60405180910390f35b620001b7620003c4565b604051620001c6919062000a26565b60405180910390f35b620001ed6004803603810190620001e79190620009a9565b620003e8565b604051620001fc919062000b7e565b60405180910390f35b6200022360048036038101906200021d919062000d4b565b620004b7565b60405162000232919062000a26565b60405180910390f35b60016020528060005260406000206000915054906101000a900460ff1681565b600360009054906101000a900473ffffffffffffffffffffffffffffffffffffffff1681565b600081815481106200029257600080fd5b906000526020600020016000915054906101000a900473ffffffffffffffffffffffffffffffffffffffff1681565b606060008054806020026020016040519081016040528092919081815260200182805480156200034757602002820191906000526020600020905b8160009054906101000a900473ffffffffffffffffffffffffffffffffffffffff1673ffffffffffffffffffffffffffffffffffffffff1681526020019060010190808311620002fc575b5050505050905090565b600260205281600052604060002081815481106200036e57600080fd5b906000526020600020016000915091509054906101000a900473ffffffffffffffffffffffffffffffffffffffff1681565b7f000000000000000000000000000000000000000000000000000000000000000081565b7f000000000000000000000000000000000000000000000000000000000000000081565b6060600260008373ffffffffffffffffffffffffffffffffffffffff1673ffffffffffffffffffffffffffffffffffffffff168152602001908152602001600020805480602002602001604051908101604052809291908181526020018280548015620004ab57602002820191906000526020600020905b8160009054906101000a900473ffffffffffffffffffffffffffffffffffffffff1673ffffffffffffffffffffffffffffffffffffffff168152602001906001019080831162000460575b50505050509050919050565b6000807f00000000000000000000000000000000000000000000000000000000000000007f000000000000000000000000000000000000000000000000000000000000000087338888600360009054906101000a900473ffffffffffffffffffffffffffffffffffffffff16604051620005319062000922565b62000543979695949392919062000e76565b604051809103906000f08015801562000560573d6000803e3d6000fd5b50905060008190506000819080600181540180825580915050600190039060005260206000200160009091909190916101000a81548173ffffffffffffffffffffffffffffffffffffffff021916908373ffffffffffffffffffffffffffffffffffffffff160217905550600260003373ffffffffffffffffffffffffffffffffffffffff1673ffffffffffffffffffffffffffffffffffffffff168152602001908152602001600020819080600181540180825580915050600190039060005260206000200160009091909190916101000a81548173ffffffffffffffffffffffffffffffffffffffff021916908373ffffffffffffffffffffffffffffffffffffffff16021790555060018060008373ffffffffffffffffffffffffffffffffffffffff1673ffffffffffffffffffffffffffffffffffffffff16815260200190815260200160002060006101000a81548160ff02191690831515021790555060008411156200077e576200071b3382867f000000000000000000000000000000000000000000000000000000000000000073ffffffffffffffffffffffffffffffffffffffff16620007f4909392919063ffffffff16565b8173ffffffffffffffffffffffffffffffffffffffff1663e037f8896040518163ffffffff1660e01b8152600401600060405180830381600087803b1580156200076457600080fd5b505af115801562000779573d6000803e3d6000fd5b505050505b3373ffffffffffffffffffffffffffffffffffffffff168173ffffffffffffffffffffffffffffffffffffffff167fc4f7fa668c5793a6dc998932be750cf209d49c6f9ca3b9390e35d685cdfc59718989604051620007df92919062000efa565b60405180910390a38092505050949350505050565b62000874848573ffffffffffffffffffffffffffffffffffffffff166323b872dd8686866040516024016200082c9392919062000f2e565b604051602081830303815290604052915060e01b6020820180517bffffffffffffffffffffffffffffffffffffffffffffffffffffffff83818316178352505050506200087a565b50505050565b600080602060008451602086016000885af1806200089e576040513d6000823e3d81fd5b3d925060005191505060008214620008bb576001811415620008d7565b60008473ffffffffffffffffffffffffffffffffffffffff163b145b156200091c57836040517f5274afe700000000000000000000000000000000000000000000000000000000815260040162000913919062000a26565b60405180910390fd5b50505050565b612de58062000f6c83390190565b6000604051905090565b600080fd5b600080fd5b600073ffffffffffffffffffffffffffffffffffffffff82169050919050565b6000620009718262000944565b9050919050565b620009838162000964565b81146200098f57600080fd5b50565b600081359050620009a38162000978565b92915050565b600060208284031215620009c257620009c16200093a565b5b6000620009d28482850162000992565b91505092915050565b60008115159050919050565b620009f281620009db565b82525050565b600060208201905062000a0f6000830184620009e7565b92915050565b62000a208162000964565b82525050565b600060208201905062000a3d600083018462000a15565b92915050565b6000819050919050565b62000a588162000a43565b811462000a6457600080fd5b50565b60008135905062000a788162000a4d565b92915050565b60006020828403121562000a975762000a966200093a565b5b600062000aa78482850162000a67565b91505092915050565b600081519050919050565b600082825260208201905092915050565b6000819050602082019050919050565b62000ae78162000964565b82525050565b600062000afb838362000adc565b60208301905092915050565b6000602082019050919050565b600062000b218262000ab0565b62000b2d818562000abb565b935062000b3a8362000acc565b8060005b8381101562000b7157815162000b55888262000aed565b975062000b628362000b07565b92505060018101905062000b3e565b5085935050505092915050565b6000602082019050818103600083015262000b9a818462000b14565b905092915050565b6000806040838503121562000bbc5762000bbb6200093a565b5b600062000bcc8582860162000992565b925050602062000bdf8582860162000a67565b9150509250929050565b600080fd5b600080fd5b6000601f19601f8301169050919050565b7f4e487b7100000000000000000000000000000000000000000000000000000000600052604160045260246000fd5b62000c3e8262000bf3565b810181811067ffffffffffffffff8211171562000c605762000c5f62000c04565b5b80604052505050565b600062000c7562000930565b905062000c83828262000c33565b919050565b600067ffffffffffffffff82111562000ca65762000ca562000c04565b5b62000cb18262000bf3565b9050602081019050919050565b82818337600083830152505050565b600062000ce462000cde8462000c88565b62000c69565b90508281526020810184848401111562000d035762000d0262000bee565b5b62000d1084828562000cbe565b509392505050565b600082601f83011262000d305762000d2f62000be9565b5b813562000d4284826020860162000ccd565b91505092915050565b6000806000806080858703121562000d685762000d676200093a565b5b600085013567ffffffffffffffff81111562000d895762000d886200093f565b5b62000d978782880162000d18565b945050602062000daa8782880162000a67565b935050604062000dbd8782880162000a67565b925050606062000dd08782880162000a67565b91505092959194509250565b600081519050919050565b600082825260208201905092915050565b60005b8381101562000e1857808201518184015260208101905062000dfb565b60008484015250505050565b600062000e318262000ddc565b62000e3d818562000de7565b935062000e4f81856020860162000df8565b62000e5a8162000bf3565b840191505092915050565b62000e708162000a43565b82525050565b600060e08201905062000e8d600083018a62000a15565b62000e9c602083018962000a15565b818103604083015262000eb0818862000e24565b905062000ec1606083018762000a15565b62000ed0608083018662000e65565b62000edf60a083018562000e65565b62000eee60c083018462000a15565b98975050505050505050565b6000604082019050818103600083015262000f16818562000e24565b905062000f27602083018462000e65565b9392505050565b600060608201905062000f45600083018662000a15565b62000f54602083018562000a15565b62000f63604083018462000e65565b94935050505056fe60e06040523480156200001157600080fd5b5060405162002de538038062002de5833981810160405281019062000037919062000675565b848480600073ffffffffffffffffffffffffffffffffffffffff168173ffffffffffffffffffffffffffffffffffffffff1603620000af5760006040517f1e4fbdf7000000000000000000000000000000000000000000000000000000008152600401620000a6919062000758565b60405180910390fd5b620000c0816200037e60201b60201c565b50600180819055508160029081620000d99190620009b6565b507f897cb1f7a5aced02f0fe4e37d9268d7509e5620fe53f2bfe685120bcb0c13a30826040516200010b919062000aef565b60405180910390a15050600073ffffffffffffffffffffffffffffffffffffffff168773ffffffffffffffffffffffffffffffffffffffff160362000187576040517f08c379a00000000000000000000000000000000000000000000000000000000081526004016200017e9062000b63565b60405180910390fd5b600073ffffffffffffffffffffffffffffffffffffffff168673ffffffffffffffffffffffffffffffffffffffff1603620001f9576040517f08c379a0000000000000000000000000000000000000000000000000000000008152600401620001f09062000bd5565b60405180910390fd5b4283116200023e576040517f08c379a0000000000000000000000000000000000000000000000000000000008152600401620002359062000c47565b60405180910390fd5b61271082111562000286576040517f08c379a00000000000000000000000000000000000000000000000000000000081526004016200027d9062000cb9565b60405180910390fd5b8673ffffffffffffffffffffffffffffffffffffffff1660808173ffffffffffffffffffffffffffffffffffffffff16815250508573ffffffffffffffffffffffffffffffffffffffff1660a08173ffffffffffffffffffffffffffffffffffffffff16815250503373ffffffffffffffffffffffffffffffffffffffff1660c08173ffffffffffffffffffffffffffffffffffffffff1681525050826003819055508160048190555080600560006101000a81548173ffffffffffffffffffffffffffffffffffffffff021916908373ffffffffffffffffffffffffffffffffffffffff1602179055505050505050505062000cdb565b60008060009054906101000a900473ffffffffffffffffffffffffffffffffffffffff169050816000806101000a81548173ffffffffffffffffffffffffffffffffffffffff021916908373ffffffffffffffffffffffffffffffffffffffff1602179055508173ffffffffffffffffffffffffffffffffffffffff168173ffffffffffffffffffffffffffffffffffffffff167f8be0079c531659141344cd1fd0a4f28419497f9722a3daafe3b4186f6b6457e060405160405180910390a35050565b6000604051905090565b600080fd5b600080fd5b600073ffffffffffffffffffffffffffffffffffffffff82169050919050565b6000620004838262000456565b9050919050565b620004958162000476565b8114620004a157600080fd5b50565b600081519050620004b5816200048a565b92915050565b600080fd5b600080fd5b6000601f19601f8301169050919050565b7f4e487b7100000000000000000000000000000000000000000000000000000000600052604160045260246000fd5b6200051082620004c5565b810181811067ffffffffffffffff82111715620005325762000531620004d6565b5b80604052505050565b60006200054762000442565b905062000555828262000505565b919050565b600067ffffffffffffffff821115620005785762000577620004d6565b5b6200058382620004c5565b9050602081019050919050565b60005b83811015620005b057808201518184015260208101905062000593565b60008484015250505050565b6000620005d3620005cd846200055a565b6200053b565b905082815260208101848484011115620005f257620005f1620004c0565b5b620005ff84828562000590565b509392505050565b600082601f8301126200061f576200061e620004bb565b5b815162000631848260208601620005bc565b91505092915050565b6000819050919050565b6200064f816200063a565b81146200065b57600080fd5b50565b6000815190506200066f8162000644565b92915050565b600080600080600080600060e0888a0312156200069757620006966200044c565b5b6000620006a78a828b01620004a4565b9750506020620006ba8a828b01620004a4565b965050604088015167ffffffffffffffff811115620006de57620006dd62000451565b5b620006ec8a828b0162000607565b9550506060620006ff8a828b01620004a4565b9450506080620007128a828b016200065e565b93505060a0620007258a828b016200065e565b92505060c0620007388a828b01620004a4565b91505092959891949750929550565b620007528162000476565b82525050565b60006020820190506200076f600083018462000747565b92915050565b600081519050919050565b7f4e487b7100000000000000000000000000000000000000000000000000000000600052602260045260246000fd5b60006002820490506001821680620007c857607f821691505b602082108103620007de57620007dd62000780565b5b50919050565b60008190508160005260206000209050919050565b60006020601f8301049050919050565b600082821b905092915050565b600060088302620008487fffffffffffffffffffffffffffffffffffffffffffffffffffffffffffffffff8262000809565b62000854868362000809565b95508019841693508086168417925050509392505050565b6000819050919050565b600062000897620008916200088b846200063a565b6200086c565b6200063a565b9050919050565b6000819050919050565b620008b38362000876565b620008cb620008c2826200089e565b84845462000816565b825550505050565b600090565b620008e2620008d3565b620008ef818484620008a8565b505050565b5b8181101562000917576200090b600082620008d8565b600181019050620008f5565b5050565b601f82111562000966576200093081620007e4565b6200093b84620007f9565b810160208510156200094b578190505b620009636200095a85620007f9565b830182620008f4565b50505b505050565b600082821c905092915050565b60006200098b600019846008026200096b565b1980831691505092915050565b6000620009a6838362000978565b9150826002028217905092915050565b620009c18262000775565b67ffffffffffffffff811115620009dd57620009dc620004d6565b5b620009e98254620007af565b620009f68282856200091b565b600060209050601f83116001811462000a2e576000841562000a19578287015190505b62000a25858262000998565b86555062000a95565b601f19841662000a3e86620007e4565b60005b8281101562000a685784890151825560018201915060208501945060208101905062000a41565b8683101562000a88578489015162000a84601f89168262000978565b8355505b6001600288020188555050505b505050505050565b600082825260208201905092915050565b600062000abb8262000775565b62000ac7818562000a9d565b935062000ad981856020860162000590565b62000ae481620004c5565b840191505092915050565b6000602082019050818103600083015262000b0b818462000aae565b905092915050565b7f496e76616c696420746f6b656e20616464726573730000000000000000000000600082015250565b600062000b4b60158362000a9d565b915062000b588262000b13565b602082019050919050565b6000602082019050818103600083015262000b7e8162000b3c565b9050919050565b7f496e76616c6964206b546f6b656e206164647265737300000000000000000000600082015250565b600062000bbd60168362000a9d565b915062000bca8262000b85565b602082019050919050565b6000602082019050818103600083015262000bf08162000bae565b9050919050565b7f556e6c6f636b2074696d65206d75737420626520696e20667574757265000000600082015250565b600062000c2f601d8362000a9d565b915062000c3c8262000bf7565b602082019050919050565b6000602082019050818103600083015262000c628162000c20565b9050919050565b7f496e76616c696420626173697320706f696e7473000000000000000000000000600082015250565b600062000ca160148362000a9d565b915062000cae8262000c69565b602082019050919050565b6000602082019050818103600083015262000cd48162000c92565b9050919050565b60805160a05160c05161205c62000d8960003960008181610ebc0152610f8f0152600081816103bf0152818161045d015281816105140152818161054a0152818161062d015281816106cb01528181610cf001528181610d750152818161115301526111d80152600081816107a901528181610853015281816109af01528181610a0401528181610c5401528181610cb40152818161101f015281816111170152611343015261205c6000f3fe6080604052600436106100f75760003560e01c8063b6b55f251161008a578063e037f88911610059578063e037f88914610320578063ecfad9fd14610337578063f2fde38b14610362578063fc0c546a1461038b57610162565b8063b6b55f2514610297578063ba5d3078146102c0578063c45a0155146102eb578063d0e30db01461031657610162565b806370740aab116100c657806370740aab146101ff578063715018a61461022a5780638da5cb5b14610241578063aa082a9d1461026c57610162565b806301e1d11414610167578063223c19f9146101925780633ccfd60b146101bd57806361d027b3146101d457610162565b36610162576000341115610160573373ffffffffffffffffffffffffffffffffffffffff167f73a19dd210f1a7f902193214c0ee91dd35ee5b4d920cba8d519eca65a7b488ca344260405161014d9291906116c3565b60405180910390a261015f33346103b6565b5b005b600080fd5b34801561017357600080fd5b5061017c6103ba565b60405161018991906116ec565b60405180910390f35b34801561019e57600080fd5b506101a7610512565b6040516101b49190611786565b60405180910390f35b3480156101c957600080fd5b506101d2610536565b005b3480156101e057600080fd5b506101e9610b02565b6040516101f691906117c2565b60405180910390f35b34801561020b57600080fd5b50610214610b28565b604051610221919061186d565b60405180910390f35b34801561023657600080fd5b5061023f610bb6565b005b34801561024d57600080fd5b50610256610bca565b60405161026391906117c2565b60405180910390f35b34801561027857600080fd5b50610281610bf3565b60405161028e91906116ec565b60405180910390f35b3480156102a357600080fd5b506102be60048036038101906102b991906118c0565b610bf9565b005b3480156102cc57600080fd5b506102d5610eb4565b6040516102e291906116ec565b60405180910390f35b3480156102f757600080fd5b50610300610eba565b60405161030d91906117c2565b60405180910390f35b61031e610ede565b005b34801561032c57600080fd5b50610335610f8d565b005b34801561034357600080fd5b5061034c6112b5565b60405161035991906116ec565b60405180910390f35b34801561036e57600080fd5b5061038960048036038101906103849190611919565b6112bb565b005b34801561039757600080fd5b506103a0611341565b6040516103ad9190611967565b60405180910390f35b5050565b6000807f000000000000000000000000000000000000000000000000000000000000000073ffffffffffffffffffffffffffffffffffffffff166370a08231306040518263ffffffff1660e01b815260040161041691906117c2565b602060405180830381865afa158015610433573d6000803e3d6000fd5b505050506040513d601f19601f820116820180604052508101906104579190611997565b905060007f000000000000000000000000000000000000000000000000000000000000000073ffffffffffffffffffffffffffffffffffffffff1663182df0f56040518163ffffffff1660e01b8152600401602060405180830381865afa1580156104c6573d6000803e3d6000fd5b505050506040513d601f19601f820116820180604052508101906104ea9190611997565b9050670de0b6b3a7640000818361050191906119f3565b61050b9190611a64565b9250505090565b7f000000000000000000000000000000000000000000000000000000000000000081565b61053e611365565b6105466113ec565b60007f000000000000000000000000000000000000000000000000000000000000000073ffffffffffffffffffffffffffffffffffffffff16633af9e669306040518263ffffffff1660e01b81526004016105a191906117c2565b6020604051808303816000875af11580156105c0573d6000803e3d6000fd5b505050506040513d601f19601f820116820180604052508101906105e49190611997565b905060008111610629576040517f08c379a000000000000000000000000000000000000000000000000000000000815260040161062090611ae1565b60405180910390fd5b60007f000000000000000000000000000000000000000000000000000000000000000073ffffffffffffffffffffffffffffffffffffffff166370a08231306040518263ffffffff1660e01b815260040161068491906117c2565b602060405180830381865afa1580156106a1573d6000803e3d6000fd5b505050506040513d601f19601f820116820180604052508101906106c59190611997565b905060007f000000000000000000000000000000000000000000000000000000000000000073ffffffffffffffffffffffffffffffffffffffff1663db006a75836040518263ffffffff1660e01b815260040161072291906116ec565b6020604051808303816000875af1158015610741573d6000803e3d6000fd5b505050506040513d601f19601f820116820180604052508101906107659190611997565b146107a5576040517f08c379a000000000000000000000000000000000000000000000000000000000815260040161079c90611b4d565b60405180910390fd5b60007f000000000000000000000000000000000000000000000000000000000000000073ffffffffffffffffffffffffffffffffffffffff166370a08231306040518263ffffffff1660e01b815260040161080091906117c2565b602060405180830381865afa15801561081d573d6000803e3d6000fd5b505050506040513d601f19601f820116820180604052508101906108419190611997565b9050600354421061093a5761089733827f000000000000000000000000000000000000000000000000000000000000000073ffffffffffffffffffffffffffffffffffffffff166114329092919063ffffffff16565b3373ffffffffffffffffffffffffffffffffffffffff167f62116a798bb58cc967874bea4d771de2f9aeec6c64189ff2e5a551072f3106f982426040516108df929190611bb9565b60405180910390a23373ffffffffffffffffffffffffffffffffffffffff167f779c86999fb727ca861d0288aa11ed4104347721c571e4f0da5172afb607d8858260405161092d91906116ec565b60405180910390a2610aed565b600061271060045460065461094f91906119f3565b6109599190611a64565b905060008160065461096b9190611bf5565b90506000818461097b9190611bf5565b905060008111156109f4576109f3600560009054906101000a900473ffffffffffffffffffffffffffffffffffffffff16827f000000000000000000000000000000000000000000000000000000000000000073ffffffffffffffffffffffffffffffffffffffff166114329092919063ffffffff16565b5b6000821115610a4957610a4833837f000000000000000000000000000000000000000000000000000000000000000073ffffffffffffffffffffffffffffffffffffffff166114329092919063ffffffff16565b5b3373ffffffffffffffffffffffffffffffffffffffff167f62116a798bb58cc967874bea4d771de2f9aeec6c64189ff2e5a551072f3106f98342604051610a91929190611c75565b60405180910390a23373ffffffffffffffffffffffffffffffffffffffff167f1670585e36568ede58d159518ce92cad99f75ad41c7d8281df3dd4eaa0c855d08385604051610ae19291906116c3565b60405180910390a25050505b6000600681905550505050610b006114b1565b565b600560009054906101000a900473ffffffffffffffffffffffffffffffffffffffff1681565b60028054610b3590611ce0565b80601f0160208091040260200160405190810160405280929190818152602001828054610b6190611ce0565b8015610bae5780601f10610b8357610100808354040283529160200191610bae565b820191906000526020600020905b815481529060010190602001808311610b9157829003601f168201915b505050505081565b610bbe611365565b610bc860006114ba565b565b60008060009054906101000a900473ffffffffffffffffffffffffffffffffffffffff16905090565b60035481565b610c01611365565b610c096113ec565b60008111610c4c576040517f08c379a0000000000000000000000000000000000000000000000000000000008152600401610c4390611d5d565b60405180910390fd5b610c993330837f000000000000000000000000000000000000000000000000000000000000000073ffffffffffffffffffffffffffffffffffffffff1661157e909392919063ffffffff16565b8060066000828254610cab9190611d7d565b925050819055507f000000000000000000000000000000000000000000000000000000000000000073ffffffffffffffffffffffffffffffffffffffff1663095ea7b37f0000000000000000000000000000000000000000000000000000000000000000836040518363ffffffff1660e01b8152600401610d2d929190611db1565b6020604051808303816000875af1158015610d4c573d6000803e3d6000fd5b505050506040513d601f19601f82011682018060405250810190610d709190611e12565b5060007f000000000000000000000000000000000000000000000000000000000000000073ffffffffffffffffffffffffffffffffffffffff1663a0712d68836040518263ffffffff1660e01b8152600401610dcc91906116ec565b6020604051808303816000875af1158015610deb573d6000803e3d6000fd5b505050506040513d601f19601f82011682018060405250810190610e0f9190611997565b14610e4f576040517f08c379a0000000000000000000000000000000000000000000000000000000008152600401610e4690611e8b565b60405180910390fd5b3373ffffffffffffffffffffffffffffffffffffffff167f73a19dd210f1a7f902193214c0ee91dd35ee5b4d920cba8d519eca65a7b488ca8242604051610e979291906116c3565b60405180910390a2610ea933826103b6565b610eb16114b1565b50565b60065481565b7f000000000000000000000000000000000000000000000000000000000000000081565b610ee66113ec565b60003411610f29576040517f08c379a0000000000000000000000000000000000000000000000000000000008152600401610f2090611ef7565b60405180910390fd5b3373ffffffffffffffffffffffffffffffffffffffff167f73a19dd210f1a7f902193214c0ee91dd35ee5b4d920cba8d519eca65a7b488ca3442604051610f719291906116c3565b60405180910390a2610f8333346103b6565b610f8b6114b1565b565b7f000000000000000000000000000000000000000000000000000000000000000073ffffffffffffffffffffffffffffffffffffffff163373ffffffffffffffffffffffffffffffffffffffff161461101b576040517f08c379a000000000000000000000000000000000000000000000000000000000815260040161101290611f63565b60405180910390fd5b60007f000000000000000000000000000000000000000000000000000000000000000073ffffffffffffffffffffffffffffffffffffffff166370a08231306040518263ffffffff1660e01b815260040161107691906117c2565b602060405180830381865afa158015611093573d6000803e3d6000fd5b505050506040513d601f19601f820116820180604052508101906110b79190611997565b9050600081116110fc576040517f08c379a00000000000000000000000000000000000000000000000000000000081526004016110f390611fcf565b60405180910390fd5b806006600082825461110e9190611d7d565b925050819055507f000000000000000000000000000000000000000000000000000000000000000073ffffffffffffffffffffffffffffffffffffffff1663095ea7b37f0000000000000000000000000000000000000000000000000000000000000000836040518363ffffffff1660e01b8152600401611190929190611db1565b6020604051808303816000875af11580156111af573d6000803e3d6000fd5b505050506040513d601f19601f820116820180604052508101906111d39190611e12565b5060007f000000000000000000000000000000000000000000000000000000000000000073ffffffffffffffffffffffffffffffffffffffff1663a0712d68836040518263ffffffff1660e01b815260040161122f91906116ec565b6020604051808303816000875af115801561124e573d6000803e3d6000fd5b505050506040513d601f19601f820116820180604052508101906112729190611997565b146112b2576040517f08c379a00000000000000000000000000000000000000000000000000000000081526004016112a990611e8b565b60405180910390fd5b50565b60045481565b6112c3611365565b600073ffffffffffffffffffffffffffffffffffffffff168173ffffffffffffffffffffffffffffffffffffffff16036113355760006040517f1e4fbdf700000000000000000000000000000000000000000000000000000000815260040161132c91906117c2565b60405180910390fd5b61133e816114ba565b50565b7f000000000000000000000000000000000000000000000000000000000000000081565b61136d611600565b73ffffffffffffffffffffffffffffffffffffffff1661138b610bca565b73ffffffffffffffffffffffffffffffffffffffff16146113ea576113ae611600565b6040517f118cdaa70000000000000000000000000000000000000000000000000000000081526004016113e191906117c2565b60405180910390fd5b565b600260015403611428576040517f3ee5aeb500000000000000000000000000000000000000000000000000000000815260040160405180910390fd5b6002600181905550565b6114ac838473ffffffffffffffffffffffffffffffffffffffff1663a9059cbb8585604051602401611465929190611db1565b604051602081830303815290604052915060e01b6020820180517bffffffffffffffffffffffffffffffffffffffffffffffffffffffff8381831617835250505050611608565b505050565b60018081905550565b60008060009054906101000a900473ffffffffffffffffffffffffffffffffffffffff169050816000806101000a81548173ffffffffffffffffffffffffffffffffffffffff021916908373ffffffffffffffffffffffffffffffffffffffff1602179055508173ffffffffffffffffffffffffffffffffffffffff168173ffffffffffffffffffffffffffffffffffffffff167f8be0079c531659141344cd1fd0a4f28419497f9722a3daafe3b4186f6b6457e060405160405180910390a35050565b6115fa848573ffffffffffffffffffffffffffffffffffffffff166323b872dd8686866040516024016115b393929190611fef565b604051602081830303815290604052915060e01b6020820180517bffffffffffffffffffffffffffffffffffffffffffffffffffffffff8381831617835250505050611608565b50505050565b600033905090565b600080602060008451602086016000885af18061162b576040513d6000823e3d81fd5b3d925060005191505060008214611646576001811415611662565b60008473ffffffffffffffffffffffffffffffffffffffff163b145b156116a457836040517f5274afe700000000000000000000000000000000000000000000000000000000815260040161169b91906117c2565b60405180910390fd5b50505050565b6000819050919050565b6116bd816116aa565b82525050565b60006040820190506116d860008301856116b4565b6116e560208301846116b4565b9392505050565b600060208201905061170160008301846116b4565b92915050565b600073ffffffffffffffffffffffffffffffffffffffff82169050919050565b6000819050919050565b600061174c61174761174284611707565b611727565b611707565b9050919050565b600061175e82611731565b9050919050565b600061177082611753565b9050919050565b61178081611765565b82525050565b600060208201905061179b6000830184611777565b92915050565b60006117ac82611707565b9050919050565b6117bc816117a1565b82525050565b60006020820190506117d760008301846117b3565b92915050565b600081519050919050565b600082825260208201905092915050565b60005b838110156118175780820151818401526020810190506117fc565b60008484015250505050565b6000601f19601f8301169050919050565b600061183f826117dd565b61184981856117e8565b93506118598185602086016117f9565b61186281611823565b840191505092915050565b600060208201905081810360008301526118878184611834565b905092915050565b600080fd5b61189d816116aa565b81146118a857600080fd5b50565b6000813590506118ba81611894565b92915050565b6000602082840312156118d6576118d561188f565b5b60006118e4848285016118ab565b91505092915050565b6118f6816117a1565b811461190157600080fd5b50565b600081359050611913816118ed565b92915050565b60006020828403121561192f5761192e61188f565b5b600061193d84828501611904565b91505092915050565b600061195182611753565b9050919050565b61196181611946565b82525050565b600060208201905061197c6000830184611958565b92915050565b60008151905061199181611894565b92915050565b6000602082840312156119ad576119ac61188f565b5b60006119bb84828501611982565b91505092915050565b7f4e487b7100000000000000000000000000000000000000000000000000000000600052601160045260246000fd5b60006119fe826116aa565b9150611a09836116aa565b9250828202611a17816116aa565b91508282048414831517611a2e57611a2d6119c4565b5b5092915050565b7f4e487b7100000000000000000000000000000000000000000000000000000000600052601260045260246000fd5b6000611a6f826116aa565b9150611a7a836116aa565b925082611a8a57611a89611a35565b5b828204905092915050565b7f4e6f2066756e647320696e207661756c74000000000000000000000000000000600082015250565b6000611acb6011836117e8565b9150611ad682611a95565b602082019050919050565b60006020820190508181036000830152611afa81611abe565b9050919050565b7f4b696e657469632072656465656d206661696c65640000000000000000000000600082015250565b6000611b376015836117e8565b9150611b4282611b01565b602082019050919050565b60006020820190508181036000830152611b6681611b2a565b9050919050565b7f474f414c5f524541434845440000000000000000000000000000000000000000600082015250565b6000611ba3600c836117e8565b9150611bae82611b6d565b602082019050919050565b6000606082019050611bce60008301856116b4565b611bdb60208301846116b4565b8181036040830152611bec81611b96565b90509392505050565b6000611c00826116aa565b9150611c0b836116aa565b9250828203905081811115611c2357611c226119c4565b5b92915050565b7f4541524c595f4558495400000000000000000000000000000000000000000000600082015250565b6000611c5f600a836117e8565b9150611c6a82611c29565b602082019050919050565b6000606082019050611c8a60008301856116b4565b611c9760208301846116b4565b8181036040830152611ca881611c52565b90509392505050565b7f4e487b7100000000000000000000000000000000000000000000000000000000600052602260045260246000fd5b60006002820490506001821680611cf857607f821691505b602082108103611d0b57611d0a611cb1565b5b50919050565b7f416d6f756e74206d7573742062652067726561746572207468616e2030000000600082015250565b6000611d47601d836117e8565b9150611d5282611d11565b602082019050919050565b60006020820190508181036000830152611d7681611d3a565b9050919050565b6000611d88826116aa565b9150611d93836116aa565b9250828201905080821115611dab57611daa6119c4565b5b92915050565b6000604082019050611dc660008301856117b3565b611dd360208301846116b4565b9392505050565b60008115159050919050565b611def81611dda565b8114611dfa57600080fd5b50565b600081519050611e0c81611de6565b92915050565b600060208284031215611e2857611e2761188f565b5b6000611e3684828501611dfd565b91505092915050565b7f4b696e6574696320737570706c79206661696c65640000000000000000000000600082015250565b6000611e756015836117e8565b9150611e8082611e3f565b602082019050919050565b60006020820190508181036000830152611ea481611e68565b9050919050565b7f416d6f756e74206d757374206265203e20300000000000000000000000000000600082015250565b6000611ee16012836117e8565b9150611eec82611eab565b602082019050919050565b60006020820190508181036000830152611f1081611ed4565b9050919050565b7f4f6e6c7920666163746f72790000000000000000000000000000000000000000600082015250565b6000611f4d600c836117e8565b9150611f5882611f17565b602082019050919050565b60006020820190508181036000830152611f7c81611f40565b9050919050565b7f416d6f756e74203e203000000000000000000000000000000000000000000000600082015250565b6000611fb9600a836117e8565b9150611fc482611f83565b602082019050919050565b60006020820190508181036000830152611fe881611fac565b9050919050565b600060608201905061200460008301866117b3565b61201160208301856117b3565b61201e60408301846116b4565b94935050505056fea26469706673582212205785b804ad6e4ef857fe13c7152f78b89c2959b8c498207718995b1307fc78ec64736f6c63430008140033a2646970667358221220ae217bdbad63cf98607f84103f09d0b67c615678918b7c040d3460e4844f3d5d64736f6c63430008140033","opcodes":"PUSH1 0xC0 PUSH1 0x40 MSTORE CALLVALUE DUP1 ISZERO PUSH3 0x11 JUMPI PUSH1 0x0 DUP1 REVERT JUMPDEST POP PUSH1 0x40 MLOAD PUSH3 0x422D CODESIZE SUB DUP1 PUSH3 0x422D DUP4 CODECOPY DUP2 DUP2 ADD PUSH1 0x40 MSTORE DUP2 ADD SWAP1 PUSH3 0x37 SWAP2 SWAP1 PUSH3 0x2A9 JUMP JUMPDEST PUSH1 0x0 PUSH20 0xFFFFFFFFFFFFFFFFFFFFFFFFFFFFFFFFFFFFFFFF AND DUP4 PUSH20 0xFFFFFFFFFFFFFFFFFFFFFFFFFFFFFFFFFFFFFFFF AND SUB PUSH3 0xA9 JUMPI PUSH1 0x40 MLOAD PUSH32 0x8C379A000000000000000000000000000000000000000000000000000000000 DUP2 MSTORE PUSH1 0x4 ADD PUSH3 0xA0 SWAP1 PUSH3 0x366 JUMP JUMPDEST PUSH1 0x40 MLOAD DUP1 SWAP2 SUB SWAP1 REVERT JUMPDEST PUSH1 0x0 PUSH20 0xFFFFFFFFFFFFFFFFFFFFFFFFFFFFFFFFFFFFFFFF AND DUP3 PUSH20 0xFFFFFFFFFFFFFFFFFFFFFFFFFFFFFFFFFFFFFFFF AND SUB PUSH3 0x11B JUMPI PUSH1 0x40 MLOAD PUSH32 0x8C379A000000000000000000000000000000000000000000000000000000000 DUP2 MSTORE PUSH1 0x4 ADD PUSH3 0x112 SWAP1 PUSH3 0x3D8 JUMP JUMPDEST PUSH1 0x40 MLOAD DUP1 SWAP2 SUB SWAP1 REVERT JUMPDEST PUSH1 0x0 PUSH20 0xFFFFFFFFFFFFFFFFFFFFFFFFFFFFFFFFFFFFFFFF AND DUP2 PUSH20 0xFFFFFFFFFFFFFFFFFFFFFFFFFFFFFFFFFFFFFFFF AND SUB PUSH3 0x18D JUMPI PUSH1 0x40 MLOAD PUSH32 0x8C379A000000000000000000000000000000000000000000000000000000000 DUP2 MSTORE PUSH1 0x4 ADD PUSH3 0x184 SWAP1 PUSH3 0x44A JUMP JUMPDEST PUSH1 0x40 MLOAD DUP1 SWAP2 SUB SWAP1 REVERT JUMPDEST DUP3 PUSH20 0xFFFFFFFFFFFFFFFFFFFFFFFFFFFFFFFFFFFFFFFF AND PUSH1 0x80 DUP2 PUSH20 0xFFFFFFFFFFFFFFFFFFFFFFFFFFFFFFFFFFFFFFFF AND DUP2 MSTORE POP POP DUP2 PUSH20 0xFFFFFFFFFFFFFFFFFFFFFFFFFFFFFFFFFFFFFFFF AND PUSH1 0xA0 DUP2 PUSH20 0xFFFFFFFFFFFFFFFFFFFFFFFFFFFFFFFFFFFFFFFF AND DUP2 MSTORE POP POP DUP1 PUSH1 0x3 PUSH1 0x0 PUSH2 0x100 EXP DUP2 SLOAD DUP2 PUSH20 0xFFFFFFFFFFFFFFFFFFFFFFFFFFFFFFFFFFFFFFFF MUL NOT AND SWAP1 DUP4 PUSH20 0xFFFFFFFFFFFFFFFFFFFFFFFFFFFFFFFFFFFFFFFF AND MUL OR SWAP1 SSTORE POP POP POP POP PUSH3 0x46C JUMP JUMPDEST PUSH1 0x0 DUP1 REVERT JUMPDEST PUSH1 0x0 PUSH20 0xFFFFFFFFFFFFFFFFFFFFFFFFFFFFFFFFFFFFFFFF DUP3 AND SWAP1 POP SWAP2 SWAP1 POP JUMP JUMPDEST PUSH1 0x0 PUSH3 0x271 DUP3 PUSH3 0x244 JUMP JUMPDEST SWAP1 POP SWAP2 SWAP1 POP JUMP JUMPDEST PUSH3 0x283 DUP2 PUSH3 0x264 JUMP JUMPDEST DUP2 EQ PUSH3 0x28F JUMPI PUSH1 0x0 DUP1 REVERT JUMPDEST POP JUMP JUMPDEST PUSH1 0x0 DUP2 MLOAD SWAP1 POP PUSH3 0x2A3 DUP2 PUSH3 0x278 JUMP JUMPDEST SWAP3 SWAP2 POP POP JUMP JUMPDEST PUSH1 0x0 DUP1 PUSH1 0x0 PUSH1 0x60 DUP5 DUP7 SUB SLT ISZERO PUSH3 0x2C5 JUMPI PUSH3 0x2C4 PUSH3 0x23F JUMP JUMPDEST JUMPDEST PUSH1 0x0 PUSH3 0x2D5 DUP7 DUP3 DUP8 ADD PUSH3 0x292 JUMP JUMPDEST SWAP4 POP POP PUSH1 0x20 PUSH3 0x2E8 DUP7 DUP3 DUP8 ADD PUSH3 0x292 JUMP JUMPDEST SWAP3 POP POP PUSH1 0x40 PUSH3 0x2FB DUP7 DUP3 DUP8 ADD PUSH3 0x292 JUMP JUMPDEST SWAP2 POP POP SWAP3 POP SWAP3 POP SWAP3 JUMP JUMPDEST PUSH1 0x0 DUP3 DUP3 MSTORE PUSH1 0x20 DUP3 ADD SWAP1 POP SWAP3 SWAP2 POP POP JUMP JUMPDEST PUSH32 0x496E76616C696420555344542061646472657373000000000000000000000000 PUSH1 0x0 DUP3 ADD MSTORE POP JUMP JUMPDEST PUSH1 0x0 PUSH3 0x34E PUSH1 0x14 DUP4 PUSH3 0x305 JUMP JUMPDEST SWAP2 POP PUSH3 0x35B DUP3 PUSH3 0x316 JUMP JUMPDEST PUSH1 0x20 DUP3 ADD SWAP1 POP SWAP2 SWAP1 POP JUMP JUMPDEST PUSH1 0x0 PUSH1 0x20 DUP3 ADD SWAP1 POP DUP2 DUP2 SUB PUSH1 0x0 DUP4 ADD MSTORE PUSH3 0x381 DUP2 PUSH3 0x33F JUMP JUMPDEST SWAP1 POP SWAP2 SWAP1 POP JUMP JUMPDEST PUSH32 0x496E76616C6964206B5553445420616464726573730000000000000000000000 PUSH1 0x0 DUP3 ADD MSTORE POP JUMP JUMPDEST PUSH1 0x0 PUSH3 0x3C0 PUSH1 0x15 DUP4 PUSH3 0x305 JUMP JUMPDEST SWAP2 POP PUSH3 0x3CD DUP3 PUSH3 0x388 JUMP JUMPDEST PUSH1 0x20 DUP3 ADD SWAP1 POP SWAP2 SWAP1 POP JUMP JUMPDEST PUSH1 0x0 PUSH1 0x20 DUP3 ADD SWAP1 POP DUP2 DUP2 SUB PUSH1 0x0 DUP4 ADD MSTORE PUSH3 0x3F3 DUP2 PUSH3 0x3B1 JUMP JUMPDEST SWAP1 POP SWAP2 SWAP1 POP JUMP JUMPDEST PUSH32 0x496E76616C696420747265617375727920616464726573730000000000000000 PUSH1 0x0 DUP3 ADD MSTORE POP JUMP JUMPDEST PUSH1 0x0 PUSH3 0x432 PUSH1 0x18 DUP4 PUSH3 0x305 JUMP JUMPDEST SWAP2 POP PUSH3 0x43F DUP3 PUSH3 0x3FA JUMP JUMPDEST PUSH1 0x20 DUP3 ADD SWAP1 POP SWAP2 SWAP1 POP JUMP JUMPDEST PUSH1 0x0 PUSH1 0x20 DUP3 ADD SWAP1 POP DUP2 DUP2 SUB PUSH1 0x0 DUP4 ADD MSTORE PUSH3 0x465 DUP2 PUSH3 0x423 JUMP JUMPDEST SWAP1 POP SWAP2 SWAP1 POP JUMP JUMPDEST PUSH1 0x80 MLOAD PUSH1 0xA0 MLOAD PUSH2 0x3D86 PUSH3 0x4A7 PUSH1 0x0 CODECOPY PUSH1 0x0 DUP2 DUP2 PUSH2 0x3C6 ADD MSTORE PUSH2 0x4DD ADD MSTORE PUSH1 0x0 DUP2 DUP2 PUSH2 0x3A2 ADD MSTORE DUP2 DUP2 PUSH2 0x4BC ADD MSTORE PUSH2 0x6D5 ADD MSTORE PUSH2 0x3D86 PUSH1 0x0 RETURN INVALID PUSH1 0x80 PUSH1 0x40 MSTORE CALLVALUE DUP1 ISZERO PUSH3 0x11 JUMPI PUSH1 0x0 DUP1 REVERT JUMPDEST POP PUSH1 0x4 CALLDATASIZE LT PUSH3 0xA0 JUMPI PUSH1 0x0 CALLDATALOAD PUSH1 0xE0 SHR DUP1 PUSH4 0x9C841FEF GT PUSH3 0x6F JUMPI DUP1 PUSH4 0x9C841FEF EQ PUSH3 0x155 JUMPI DUP1 PUSH4 0xA98AD46C EQ PUSH3 0x18B JUMPI DUP1 PUSH4 0xD2497F5D EQ PUSH3 0x1AD JUMPI DUP1 PUSH4 0xE7F3C69C EQ PUSH3 0x1CF JUMPI DUP1 PUSH4 0xFEF28369 EQ PUSH3 0x205 JUMPI PUSH3 0xA0 JUMP JUMPDEST DUP1 PUSH4 0x652B9B41 EQ PUSH3 0xA5 JUMPI DUP1 PUSH4 0x803DB96D EQ PUSH3 0xDB JUMPI DUP1 PUSH4 0x9094A91E EQ PUSH3 0xFD JUMPI DUP1 PUSH4 0x97331BF9 EQ PUSH3 0x133 JUMPI JUMPDEST PUSH1 0x0 DUP1 REVERT JUMPDEST PUSH3 0xC3 PUSH1 0x4 DUP1 CALLDATASIZE SUB DUP2 ADD SWAP1 PUSH3 0xBD SWAP2 SWAP1 PUSH3 0x9A9 JUMP JUMPDEST PUSH3 0x23B JUMP JUMPDEST PUSH1 0x40 MLOAD PUSH3 0xD2 SWAP2 SWAP1 PUSH3 0x9F8 JUMP JUMPDEST PUSH1 0x40 MLOAD DUP1 SWAP2 SUB SWAP1 RETURN JUMPDEST PUSH3 0xE5 PUSH3 0x25B JUMP JUMPDEST PUSH1 0x40 MLOAD PUSH3 0xF4 SWAP2 SWAP1 PUSH3 0xA26 JUMP JUMPDEST PUSH1 0x40 MLOAD DUP1 SWAP2 SUB SWAP1 RETURN JUMPDEST PUSH3 0x11B PUSH1 0x4 DUP1 CALLDATASIZE SUB DUP2 ADD SWAP1 PUSH3 0x115 SWAP2 SWAP1 PUSH3 0xA7E JUMP JUMPDEST PUSH3 0x281 JUMP JUMPDEST PUSH1 0x40 MLOAD PUSH3 0x12A SWAP2 SWAP1 PUSH3 0xA26 JUMP JUMPDEST PUSH1 0x40 MLOAD DUP1 SWAP2 SUB SWAP1 RETURN JUMPDEST PUSH3 0x13D PUSH3 0x2C1 JUMP JUMPDEST PUSH1 0x40 MLOAD PUSH3 0x14C SWAP2 SWAP1 PUSH3 0xB7E JUMP JUMPDEST PUSH1 0x40 MLOAD DUP1 SWAP2 SUB SWAP1 RETURN JUMPDEST PUSH3 0x173 PUSH1 0x4 DUP1 CALLDATASIZE SUB DUP2 ADD SWAP1 PUSH3 0x16D SWAP2 SWAP1 PUSH3 0xBA2 JUMP JUMPDEST PUSH3 0x351 JUMP JUMPDEST PUSH1 0x40 MLOAD PUSH3 0x182 SWAP2 SWAP1 PUSH3 0xA26 JUMP JUMPDEST PUSH1 0x40 MLOAD DUP1 SWAP2 SUB SWAP1 RETURN JUMPDEST PUSH3 0x195 PUSH3 0x3A0 JUMP JUMPDEST PUSH1 0x40 MLOAD PUSH3 0x1A4 SWAP2 SWAP1 PUSH3 0xA26 JUMP JUMPDEST PUSH1 0x40 MLOAD DUP1 SWAP2 SUB SWAP1 RETURN JUMPDEST PUSH3 0x1B7 PUSH3 0x3C4 JUMP JUMPDEST PUSH1 0x40 MLOAD PUSH3 0x1C6 SWAP2 SWAP1 PUSH3 0xA26 JUMP JUMPDEST PUSH1 0x40 MLOAD DUP1 SWAP2 SUB SWAP1 RETURN JUMPDEST PUSH3 0x1ED PUSH1 0x4 DUP1 CALLDATASIZE SUB DUP2 ADD SWAP1 PUSH3 0x1E7 SWAP2 SWAP1 PUSH3 0x9A9 JUMP JUMPDEST PUSH3 0x3E8 JUMP JUMPDEST PUSH1 0x40 MLOAD PUSH3 0x1FC SWAP2 SWAP1 PUSH3 0xB7E JUMP JUMPDEST PUSH1 0x40 MLOAD DUP1 SWAP2 SUB SWAP1 RETURN JUMPDEST PUSH3 0x223 PUSH1 0x4 DUP1 CALLDATASIZE SUB DUP2 ADD SWAP1 PUSH3 0x21D SWAP2 SWAP1 PUSH3 0xD4B JUMP JUMPDEST PUSH3 0x4B7 JUMP JUMPDEST PUSH1 0x40 MLOAD PUSH3 0x232 SWAP2 SWAP1 PUSH3 0xA26 JUMP JUMPDEST PUSH1 0x40 MLOAD DUP1 SWAP2 SUB SWAP1 RETURN JUMPDEST PUSH1 0x1 PUSH1 0x20 MSTORE DUP1 PUSH1 0x0 MSTORE PUSH1 0x40 PUSH1 0x0 KECCAK256 PUSH1 0x0 SWAP2 POP SLOAD SWAP1 PUSH2 0x100 EXP SWAP1 DIV PUSH1 0xFF AND DUP2 JUMP JUMPDEST PUSH1 0x3 PUSH1 0x0 SWAP1 SLOAD SWAP1 PUSH2 0x100 EXP SWAP1 DIV PUSH20 0xFFFFFFFFFFFFFFFFFFFFFFFFFFFFFFFFFFFFFFFF AND DUP2 JUMP JUMPDEST PUSH1 0x0 DUP2 DUP2 SLOAD DUP2 LT PUSH3 0x292 JUMPI PUSH1 0x0 DUP1 REVERT JUMPDEST SWAP1 PUSH1 0x0 MSTORE PUSH1 0x20 PUSH1 0x0 KECCAK256 ADD PUSH1 0x0 SWAP2 POP SLOAD SWAP1 PUSH2 0x100 EXP SWAP1 DIV PUSH20 0xFFFFFFFFFFFFFFFFFFFFFFFFFFFFFFFFFFFFFFFF AND DUP2 JUMP JUMPDEST PUSH1 0x60 PUSH1 0x0 DUP1 SLOAD DUP1 PUSH1 0x20 MUL PUSH1 0x20 ADD PUSH1 0x40 MLOAD SWAP1 DUP2 ADD PUSH1 0x40 MSTORE DUP1 SWAP3 SWAP2 SWAP1 DUP2 DUP2 MSTORE PUSH1 0x20 ADD DUP3 DUP1 SLOAD DUP1 ISZERO PUSH3 0x347 JUMPI PUSH1 0x20 MUL DUP3 ADD SWAP2 SWAP1 PUSH1 0x0 MSTORE PUSH1 0x20 PUSH1 0x0 KECCAK256 SWAP1 JUMPDEST DUP2 PUSH1 0x0 SWAP1 SLOAD SWAP1 PUSH2 0x100 EXP SWAP1 DIV PUSH20 0xFFFFFFFFFFFFFFFFFFFFFFFFFFFFFFFFFFFFFFFF AND PUSH20 0xFFFFFFFFFFFFFFFFFFFFFFFFFFFFFFFFFFFFFFFF AND DUP2 MSTORE PUSH1 0x20 ADD SWAP1 PUSH1 0x1 ADD SWAP1 DUP1 DUP4 GT PUSH3 0x2FC JUMPI JUMPDEST POP POP POP POP POP SWAP1 POP SWAP1 JUMP JUMPDEST PUSH1 0x2 PUSH1 0x20 MSTORE DUP2 PUSH1 0x0 MSTORE PUSH1 0x40 PUSH1 0x0 KECCAK256 DUP2 DUP2 SLOAD DUP2 LT PUSH3 0x36E JUMPI PUSH1 0x0 DUP1 REVERT JUMPDEST SWAP1 PUSH1 0x0 MSTORE PUSH1 0x20 PUSH1 0x0 KECCAK256 ADD PUSH1 0x0 SWAP2 POP SWAP2 POP SWAP1 SLOAD SWAP1 PUSH2 0x100 EXP SWAP1 DIV PUSH20 0xFFFFFFFFFFFFFFFFFFFFFFFFFFFFFFFFFFFFFFFF AND DUP2 JUMP JUMPDEST PUSH32 0x0 DUP2 JUMP JUMPDEST PUSH32 0x0 DUP2 JUMP JUMPDEST PUSH1 0x60 PUSH1 0x2 PUSH1 0x0 DUP4 PUSH20 0xFFFFFFFFFFFFFFFFFFFFFFFFFFFFFFFFFFFFFFFF AND PUSH20 0xFFFFFFFFFFFFFFFFFFFFFFFFFFFFFFFFFFFFFFFF AND DUP2 MSTORE PUSH1 0x20 ADD SWAP1 DUP2 MSTORE PUSH1 0x20 ADD PUSH1 0x0 KECCAK256 DUP1 SLOAD DUP1 PUSH1 0x20 MUL PUSH1 0x20 ADD PUSH1 0x40 MLOAD SWAP1 DUP2 ADD PUSH1 0x40 MSTORE DUP1 SWAP3 SWAP2 SWAP1 DUP2 DUP2 MSTORE PUSH1 0x20 ADD DUP3 DUP1 SLOAD DUP1 ISZERO PUSH3 0x4AB JUMPI PUSH1 0x20 MUL DUP3 ADD SWAP2 SWAP1 PUSH1 0x0 MSTORE PUSH1 0x20 PUSH1 0x0 KECCAK256 SWAP1 JUMPDEST DUP2 PUSH1 0x0 SWAP1 SLOAD SWAP1 PUSH2 0x100 EXP SWAP1 DIV PUSH20 0xFFFFFFFFFFFFFFFFFFFFFFFFFFFFFFFFFFFFFFFF AND PUSH20 0xFFFFFFFFFFFFFFFFFFFFFFFFFFFFFFFFFFFFFFFF AND DUP2 MSTORE PUSH1 0x20 ADD SWAP1 PUSH1 0x1 ADD SWAP1 DUP1 DUP4 GT PUSH3 0x460 JUMPI JUMPDEST POP POP POP POP POP SWAP1 POP SWAP2 SWAP1 POP JUMP JUMPDEST PUSH1 0x0 DUP1 PUSH32 0x0 PUSH32 0x0 DUP8 CALLER DUP9 DUP9 PUSH1 0x3 PUSH1 0x0 SWAP1 SLOAD SWAP1 PUSH2 0x100 EXP SWAP1 DIV PUSH20 0xFFFFFFFFFFFFFFFFFFFFFFFFFFFFFFFFFFFFFFFF AND PUSH1 0x40 MLOAD PUSH3 0x531 SWAP1 PUSH3 0x922 JUMP JUMPDEST PUSH3 0x543 SWAP8 SWAP7 SWAP6 SWAP5 SWAP4 SWAP3 SWAP2 SWAP1 PUSH3 0xE76 JUMP JUMPDEST PUSH1 0x40 MLOAD DUP1 SWAP2 SUB SWAP1 PUSH1 0x0 CREATE DUP1 ISZERO DUP1 ISZERO PUSH3 0x560 JUMPI RETURNDATASIZE PUSH1 0x0 DUP1 RETURNDATACOPY RETURNDATASIZE PUSH1 0x0 REVERT JUMPDEST POP SWAP1 POP PUSH1 0x0 DUP2 SWAP1 POP PUSH1 0x0 DUP2 SWAP1 DUP1 PUSH1 0x1 DUP2 SLOAD ADD DUP1 DUP3 SSTORE DUP1 SWAP2 POP POP PUSH1 0x1 SWAP1 SUB SWAP1 PUSH1 0x0 MSTORE PUSH1 0x20 PUSH1 0x0 KECCAK256 ADD PUSH1 0x0 SWAP1 SWAP2 SWAP1 SWAP2 SWAP1 SWAP2 PUSH2 0x100 EXP DUP2 SLOAD DUP2 PUSH20 0xFFFFFFFFFFFFFFFFFFFFFFFFFFFFFFFFFFFFFFFF MUL NOT AND SWAP1 DUP4 PUSH20 0xFFFFFFFFFFFFFFFFFFFFFFFFFFFFFFFFFFFFFFFF AND MUL OR SWAP1 SSTORE POP PUSH1 0x2 PUSH1 0x0 CALLER PUSH20 0xFFFFFFFFFFFFFFFFFFFFFFFFFFFFFFFFFFFFFFFF AND PUSH20 0xFFFFFFFFFFFFFFFFFFFFFFFFFFFFFFFFFFFFFFFF AND DUP2 MSTORE PUSH1 0x20 ADD SWAP1 DUP2 MSTORE PUSH1 0x20 ADD PUSH1 0x0 KECCAK256 DUP2 SWAP1 DUP1 PUSH1 0x1 DUP2 SLOAD ADD DUP1 DUP3 SSTORE DUP1 SWAP2 POP POP PUSH1 0x1 SWAP1 SUB SWAP1 PUSH1 0x0 MSTORE PUSH1 0x20 PUSH1 0x0 KECCAK256 ADD PUSH1 0x0 SWAP1 SWAP2 SWAP1 SWAP2 SWAP1 SWAP2 PUSH2 0x100 EXP DUP2 SLOAD DUP2 PUSH20 0xFFFFFFFFFFFFFFFFFFFFFFFFFFFFFFFFFFFFFFFF MUL NOT AND SWAP1 DUP4 PUSH20 0xFFFFFFFFFFFFFFFFFFFFFFFFFFFFFFFFFFFFFFFF AND MUL OR SWAP1 SSTORE POP PUSH1 0x1 DUP1 PUSH1 0x0 DUP4 PUSH20 0xFFFFFFFFFFFFFFFFFFFFFFFFFFFFFFFFFFFFFFFF AND PUSH20 0xFFFFFFFFFFFFFFFFFFFFFFFFFFFFFFFFFFFFFFFF AND DUP2 MSTORE PUSH1 0x20 ADD SWAP1 DUP2 MSTORE PUSH1 0x20 ADD PUSH1 0x0 KECCAK256 PUSH1 0x0 PUSH2 0x100 EXP DUP2 SLOAD DUP2 PUSH1 0xFF MUL NOT AND SWAP1 DUP4 ISZERO ISZERO MUL OR SWAP1 SSTORE POP PUSH1 0x0 DUP5 GT ISZERO PUSH3 0x77E JUMPI PUSH3 0x71B CALLER DUP3 DUP7 PUSH32 0x0 PUSH20 0xFFFFFFFFFFFFFFFFFFFFFFFFFFFFFFFFFFFFFFFF AND PUSH3 0x7F4 SWAP1 SWAP4 SWAP3 SWAP2 SWAP1 PUSH4 0xFFFFFFFF AND JUMP JUMPDEST DUP2 PUSH20 0xFFFFFFFFFFFFFFFFFFFFFFFFFFFFFFFFFFFFFFFF AND PUSH4 0xE037F889 PUSH1 0x40 MLOAD DUP2 PUSH4 0xFFFFFFFF AND PUSH1 0xE0 SHL DUP2 MSTORE PUSH1 0x4 ADD PUSH1 0x0 PUSH1 0x40 MLOAD DUP1 DUP4 SUB DUP2 PUSH1 0x0 DUP8 DUP1 EXTCODESIZE ISZERO DUP1 ISZERO PUSH3 0x764 JUMPI PUSH1 0x0 DUP1 REVERT JUMPDEST POP GAS CALL ISZERO DUP1 ISZERO PUSH3 0x779 JUMPI RETURNDATASIZE PUSH1 0x0 DUP1 RETURNDATACOPY RETURNDATASIZE PUSH1 0x0 REVERT JUMPDEST POP POP POP POP JUMPDEST CALLER PUSH20 0xFFFFFFFFFFFFFFFFFFFFFFFFFFFFFFFFFFFFFFFF AND DUP2 PUSH20 0xFFFFFFFFFFFFFFFFFFFFFFFFFFFFFFFFFFFFFFFF AND PUSH32 0xC4F7FA668C5793A6DC998932BE750CF209D49C6F9CA3B9390E35D685CDFC5971 DUP10 DUP10 PUSH1 0x40 MLOAD PUSH3 0x7DF SWAP3 SWAP2 SWAP1 PUSH3 0xEFA JUMP JUMPDEST PUSH1 0x40 MLOAD DUP1 SWAP2 SUB SWAP1 LOG3 DUP1 SWAP3 POP POP POP SWAP5 SWAP4 POP POP POP POP JUMP JUMPDEST PUSH3 0x874 DUP5 DUP6 PUSH20 0xFFFFFFFFFFFFFFFFFFFFFFFFFFFFFFFFFFFFFFFF AND PUSH4 0x23B872DD DUP7 DUP7 DUP7 PUSH1 0x40 MLOAD PUSH1 0x24 ADD PUSH3 0x82C SWAP4 SWAP3 SWAP2 SWAP1 PUSH3 0xF2E JUMP JUMPDEST PUSH1 0x40 MLOAD PUSH1 0x20 DUP2 DUP4 SUB SUB DUP2 MSTORE SWAP1 PUSH1 0x40 MSTORE SWAP2 POP PUSH1 0xE0 SHL PUSH1 0x20 DUP3 ADD DUP1 MLOAD PUSH28 0xFFFFFFFFFFFFFFFFFFFFFFFFFFFFFFFFFFFFFFFFFFFFFFFFFFFFFFFF DUP4 DUP2 DUP4 AND OR DUP4 MSTORE POP POP POP POP PUSH3 0x87A JUMP JUMPDEST POP POP POP POP JUMP JUMPDEST PUSH1 0x0 DUP1 PUSH1 0x20 PUSH1 0x0 DUP5 MLOAD PUSH1 0x20 DUP7 ADD PUSH1 0x0 DUP9 GAS CALL DUP1 PUSH3 0x89E JUMPI PUSH1 0x40 MLOAD RETURNDATASIZE PUSH1 0x0 DUP3 RETURNDATACOPY RETURNDATASIZE DUP2 REVERT JUMPDEST RETURNDATASIZE SWAP3 POP PUSH1 0x0 MLOAD SWAP2 POP POP PUSH1 0x0 DUP3 EQ PUSH3 0x8BB JUMPI PUSH1 0x1 DUP2 EQ ISZERO PUSH3 0x8D7 JUMP JUMPDEST PUSH1 0x0 DUP5 PUSH20 0xFFFFFFFFFFFFFFFFFFFFFFFFFFFFFFFFFFFFFFFF AND EXTCODESIZE EQ JUMPDEST ISZERO PUSH3 0x91C JUMPI DUP4 PUSH1 0x40 MLOAD PUSH32 0x5274AFE700000000000000000000000000000000000000000000000000000000 DUP2 MSTORE PUSH1 0x4 ADD PUSH3 0x913 SWAP2 SWAP1 PUSH3 0xA26 JUMP JUMPDEST PUSH1 0x40 MLOAD DUP1 SWAP2 SUB SWAP1 REVERT JUMPDEST POP POP POP POP JUMP JUMPDEST PUSH2 0x2DE5 DUP1 PUSH3 0xF6C DUP4 CODECOPY ADD SWAP1 JUMP JUMPDEST PUSH1 0x0 PUSH1 0x40 MLOAD SWAP1 POP SWAP1 JUMP JUMPDEST PUSH1 0x0 DUP1 REVERT JUMPDEST PUSH1 0x0 DUP1 REVERT JUMPDEST PUSH1 0x0 PUSH20 0xFFFFFFFFFFFFFFFFFFFFFFFFFFFFFFFFFFFFFFFF DUP3 AND SWAP1 POP SWAP2 SWAP1 POP JUMP JUMPDEST PUSH1 0x0 PUSH3 0x971 DUP3 PUSH3 0x944 JUMP JUMPDEST SWAP1 POP SWAP2 SWAP1 POP JUMP JUMPDEST PUSH3 0x983 DUP2 PUSH3 0x964 JUMP JUMPDEST DUP2 EQ PUSH3 0x98F JUMPI PUSH1 0x0 DUP1 REVERT JUMPDEST POP JUMP JUMPDEST PUSH1 0x0 DUP2 CALLDATALOAD SWAP1 POP PUSH3 0x9A3 DUP2 PUSH3 0x978 JUMP JUMPDEST SWAP3 SWAP2 POP POP JUMP JUMPDEST PUSH1 0x0 PUSH1 0x20 DUP3 DUP5 SUB SLT ISZERO PUSH3 0x9C2 JUMPI PUSH3 0x9C1 PUSH3 0x93A JUMP JUMPDEST JUMPDEST PUSH1 0x0 PUSH3 0x9D2 DUP5 DUP3 DUP6 ADD PUSH3 0x992 JUMP JUMPDEST SWAP2 POP POP SWAP3 SWAP2 POP POP JUMP JUMPDEST PUSH1 0x0 DUP2 ISZERO ISZERO SWAP1 POP SWAP2 SWAP1 POP JUMP JUMPDEST PUSH3 0x9F2 DUP2 PUSH3 0x9DB JUMP JUMPDEST DUP3 MSTORE POP POP JUMP JUMPDEST PUSH1 0x0 PUSH1 0x20 DUP3 ADD SWAP1 POP PUSH3 0xA0F PUSH1 0x0 DUP4 ADD DUP5 PUSH3 0x9E7 JUMP JUMPDEST SWAP3 SWAP2 POP POP JUMP JUMPDEST PUSH3 0xA20 DUP2 PUSH3 0x964 JUMP JUMPDEST DUP3 MSTORE POP POP JUMP JUMPDEST PUSH1 0x0 PUSH1 0x20 DUP3 ADD SWAP1 POP PUSH3 0xA3D PUSH1 0x0 DUP4 ADD DUP5 PUSH3 0xA15 JUMP JUMPDEST SWAP3 SWAP2 POP POP JUMP JUMPDEST PUSH1 0x0 DUP2 SWAP1 POP SWAP2 SWAP1 POP JUMP JUMPDEST PUSH3 0xA58 DUP2 PUSH3 0xA43 JUMP JUMPDEST DUP2 EQ PUSH3 0xA64 JUMPI PUSH1 0x0 DUP1 REVERT JUMPDEST POP JUMP JUMPDEST PUSH1 0x0 DUP2 CALLDATALOAD SWAP1 POP PUSH3 0xA78 DUP2 PUSH3 0xA4D JUMP JUMPDEST SWAP3 SWAP2 POP POP JUMP JUMPDEST PUSH1 0x0 PUSH1 0x20 DUP3 DUP5 SUB SLT ISZERO PUSH3 0xA97 JUMPI PUSH3 0xA96 PUSH3 0x93A JUMP JUMPDEST JUMPDEST PUSH1 0x0 PUSH3 0xAA7 DUP5 DUP3 DUP6 ADD PUSH3 0xA67 JUMP JUMPDEST SWAP2 POP POP SWAP3 SWAP2 POP POP JUMP JUMPDEST PUSH1 0x0 DUP2 MLOAD SWAP1 POP SWAP2 SWAP1 POP JUMP JUMPDEST PUSH1 0x0 DUP3 DUP3 MSTORE PUSH1 0x20 DUP3 ADD SWAP1 POP SWAP3 SWAP2 POP POP JUMP JUMPDEST PUSH1 0x0 DUP2 SWAP1 POP PUSH1 0x20 DUP3 ADD SWAP1 POP SWAP2 SWAP1 POP JUMP JUMPDEST PUSH3 0xAE7 DUP2 PUSH3 0x964 JUMP JUMPDEST DUP3 MSTORE POP POP JUMP JUMPDEST PUSH1 0x0 PUSH3 0xAFB DUP4 DUP4 PUSH3 0xADC JUMP JUMPDEST PUSH1 0x20 DUP4 ADD SWAP1 POP SWAP3 SWAP2 POP POP JUMP JUMPDEST PUSH1 0x0 PUSH1 0x20 DUP3 ADD SWAP1 POP SWAP2 SWAP1 POP JUMP JUMPDEST PUSH1 0x0 PUSH3 0xB21 DUP3 PUSH3 0xAB0 JUMP JUMPDEST PUSH3 0xB2D DUP2 DUP6 PUSH3 0xABB JUMP JUMPDEST SWAP4 POP PUSH3 0xB3A DUP4 PUSH3 0xACC JUMP JUMPDEST DUP1 PUSH1 0x0 JUMPDEST DUP4 DUP2 LT ISZERO PUSH3 0xB71 JUMPI DUP2 MLOAD PUSH3 0xB55 DUP9 DUP3 PUSH3 0xAED JUMP JUMPDEST SWAP8 POP PUSH3 0xB62 DUP4 PUSH3 0xB07 JUMP JUMPDEST SWAP3 POP POP PUSH1 0x1 DUP2 ADD SWAP1 POP PUSH3 0xB3E JUMP JUMPDEST POP DUP6 SWAP4 POP POP POP POP SWAP3 SWAP2 POP POP JUMP JUMPDEST PUSH1 0x0 PUSH1 0x20 DUP3 ADD SWAP1 POP DUP2 DUP2 SUB PUSH1 0x0 DUP4 ADD MSTORE PUSH3 0xB9A DUP2 DUP5 PUSH3 0xB14 JUMP JUMPDEST SWAP1 POP SWAP3 SWAP2 POP POP JUMP JUMPDEST PUSH1 0x0 DUP1 PUSH1 0x40 DUP4 DUP6 SUB SLT ISZERO PUSH3 0xBBC JUMPI PUSH3 0xBBB PUSH3 0x93A JUMP JUMPDEST JUMPDEST PUSH1 0x0 PUSH3 0xBCC DUP6 DUP3 DUP7 ADD PUSH3 0x992 JUMP JUMPDEST SWAP3 POP POP PUSH1 0x20 PUSH3 0xBDF DUP6 DUP3 DUP7 ADD PUSH3 0xA67 JUMP JUMPDEST SWAP2 POP POP SWAP3 POP SWAP3 SWAP1 POP JUMP JUMPDEST PUSH1 0x0 DUP1 REVERT JUMPDEST PUSH1 0x0 DUP1 REVERT JUMPDEST PUSH1 0x0 PUSH1 0x1F NOT PUSH1 0x1F DUP4 ADD AND SWAP1 POP SWAP2 SWAP1 POP JUMP JUMPDEST PUSH32 0x4E487B7100000000000000000000000000000000000000000000000000000000 PUSH1 0x0 MSTORE PUSH1 0x41 PUSH1 0x4 MSTORE PUSH1 0x24 PUSH1 0x0 REVERT JUMPDEST PUSH3 0xC3E DUP3 PUSH3 0xBF3 JUMP JUMPDEST DUP2 ADD DUP2 DUP2 LT PUSH8 0xFFFFFFFFFFFFFFFF DUP3 GT OR ISZERO PUSH3 0xC60 JUMPI PUSH3 0xC5F PUSH3 0xC04 JUMP JUMPDEST JUMPDEST DUP1 PUSH1 0x40 MSTORE POP POP POP JUMP JUMPDEST PUSH1 0x0 PUSH3 0xC75 PUSH3 0x930 JUMP JUMPDEST SWAP1 POP PUSH3 0xC83 DUP3 DUP3 PUSH3 0xC33 JUMP JUMPDEST SWAP2 SWAP1 POP JUMP JUMPDEST PUSH1 0x0 PUSH8 0xFFFFFFFFFFFFFFFF DUP3 GT ISZERO PUSH3 0xCA6 JUMPI PUSH3 0xCA5 PUSH3 0xC04 JUMP JUMPDEST JUMPDEST PUSH3 0xCB1 DUP3 PUSH3 0xBF3 JUMP JUMPDEST SWAP1 POP PUSH1 0x20 DUP2 ADD SWAP1 POP SWAP2 SWAP1 POP JUMP JUMPDEST DUP3 DUP2 DUP4 CALLDATACOPY PUSH1 0x0 DUP4 DUP4 ADD MSTORE POP POP POP JUMP JUMPDEST PUSH1 0x0 PUSH3 0xCE4 PUSH3 0xCDE DUP5 PUSH3 0xC88 JUMP JUMPDEST PUSH3 0xC69 JUMP JUMPDEST SWAP1 POP DUP3 DUP2 MSTORE PUSH1 0x20 DUP2 ADD DUP5 DUP5 DUP5 ADD GT ISZERO PUSH3 0xD03 JUMPI PUSH3 0xD02 PUSH3 0xBEE JUMP JUMPDEST JUMPDEST PUSH3 0xD10 DUP5 DUP3 DUP6 PUSH3 0xCBE JUMP JUMPDEST POP SWAP4 SWAP3 POP POP POP JUMP JUMPDEST PUSH1 0x0 DUP3 PUSH1 0x1F DUP4 ADD SLT PUSH3 0xD30 JUMPI PUSH3 0xD2F PUSH3 0xBE9 JUMP JUMPDEST JUMPDEST DUP2 CALLDATALOAD PUSH3 0xD42 DUP5 DUP3 PUSH1 0x20 DUP7 ADD PUSH3 0xCCD JUMP JUMPDEST SWAP2 POP POP SWAP3 SWAP2 POP POP JUMP JUMPDEST PUSH1 0x0 DUP1 PUSH1 0x0 DUP1 PUSH1 0x80 DUP6 DUP8 SUB SLT ISZERO PUSH3 0xD68 JUMPI PUSH3 0xD67 PUSH3 0x93A JUMP JUMPDEST JUMPDEST PUSH1 0x0 DUP6 ADD CALLDATALOAD PUSH8 0xFFFFFFFFFFFFFFFF DUP2 GT ISZERO PUSH3 0xD89 JUMPI PUSH3 0xD88 PUSH3 0x93F JUMP JUMPDEST JUMPDEST PUSH3 0xD97 DUP8 DUP3 DUP9 ADD PUSH3 0xD18 JUMP JUMPDEST SWAP5 POP POP PUSH1 0x20 PUSH3 0xDAA DUP8 DUP3 DUP9 ADD PUSH3 0xA67 JUMP JUMPDEST SWAP4 POP POP PUSH1 0x40 PUSH3 0xDBD DUP8 DUP3 DUP9 ADD PUSH3 0xA67 JUMP JUMPDEST SWAP3 POP POP PUSH1 0x60 PUSH3 0xDD0 DUP8 DUP3 DUP9 ADD PUSH3 0xA67 JUMP JUMPDEST SWAP2 POP POP SWAP3 SWAP6 SWAP2 SWAP5 POP SWAP3 POP JUMP JUMPDEST PUSH1 0x0 DUP2 MLOAD SWAP1 POP SWAP2 SWAP1 POP JUMP JUMPDEST PUSH1 0x0 DUP3 DUP3 MSTORE PUSH1 0x20 DUP3 ADD SWAP1 POP SWAP3 SWAP2 POP POP JUMP JUMPDEST PUSH1 0x0 JUMPDEST DUP4 DUP2 LT ISZERO PUSH3 0xE18 JUMPI DUP1 DUP3 ADD MLOAD DUP2 DUP5 ADD MSTORE PUSH1 0x20 DUP2 ADD SWAP1 POP PUSH3 0xDFB JUMP JUMPDEST PUSH1 0x0 DUP5 DUP5 ADD MSTORE POP POP POP POP JUMP JUMPDEST PUSH1 0x0 PUSH3 0xE31 DUP3 PUSH3 0xDDC JUMP JUMPDEST PUSH3 0xE3D DUP2 DUP6 PUSH3 0xDE7 JUMP JUMPDEST SWAP4 POP PUSH3 0xE4F DUP2 DUP6 PUSH1 0x20 DUP7 ADD PUSH3 0xDF8 JUMP JUMPDEST PUSH3 0xE5A DUP2 PUSH3 0xBF3 JUMP JUMPDEST DUP5 ADD SWAP2 POP POP SWAP3 SWAP2 POP POP JUMP JUMPDEST PUSH3 0xE70 DUP2 PUSH3 0xA43 JUMP JUMPDEST DUP3 MSTORE POP POP JUMP JUMPDEST PUSH1 0x0 PUSH1 0xE0 DUP3 ADD SWAP1 POP PUSH3 0xE8D PUSH1 0x0 DUP4 ADD DUP11 PUSH3 0xA15 JUMP JUMPDEST PUSH3 0xE9C PUSH1 0x20 DUP4 ADD DUP10 PUSH3 0xA15 JUMP JUMPDEST DUP2 DUP2 SUB PUSH1 0x40 DUP4 ADD MSTORE PUSH3 0xEB0 DUP2 DUP9 PUSH3 0xE24 JUMP JUMPDEST SWAP1 POP PUSH3 0xEC1 PUSH1 0x60 DUP4 ADD DUP8 PUSH3 0xA15 JUMP JUMPDEST PUSH3 0xED0 PUSH1 0x80 DUP4 ADD DUP7 PUSH3 0xE65 JUMP JUMPDEST PUSH3 0xEDF PUSH1 0xA0 DUP4 ADD DUP6 PUSH3 0xE65 JUMP JUMPDEST PUSH3 0xEEE PUSH1 0xC0 DUP4 ADD DUP5 PUSH3 0xA15 JUMP JUMPDEST SWAP9 SWAP8 POP POP POP POP POP POP POP POP JUMP JUMPDEST PUSH1 0x0 PUSH1 0x40 DUP3 ADD SWAP1 POP DUP2 DUP2 SUB PUSH1 0x0 DUP4 ADD MSTORE PUSH3 0xF16 DUP2 DUP6 PUSH3 0xE24 JUMP JUMPDEST SWAP1 POP PUSH3 0xF27 PUSH1 0x20 DUP4 ADD DUP5 PUSH3 0xE65 JUMP JUMPDEST SWAP4 SWAP3 POP POP POP JUMP JUMPDEST PUSH1 0x0 PUSH1 0x60 DUP3 ADD SWAP1 POP PUSH3 0xF45 PUSH1 0x0 DUP4 ADD DUP7 PUSH3 0xA15 JUMP JUMPDEST PUSH3 0xF54 PUSH1 0x20 DUP4 ADD DUP6 PUSH3 0xA15 JUMP JUMPDEST PUSH3 0xF63 PUSH1 0x40 DUP4 ADD DUP5 PUSH3 0xE65 JUMP JUMPDEST SWAP5 SWAP4 POP POP POP POP JUMP INVALID PUSH1 0xE0 PUSH1 0x40 MSTORE CALLVALUE DUP1 ISZERO PUSH3 0x11 JUMPI PUSH1 0x0 DUP1 REVERT JUMPDEST POP PUSH1 0x40 MLOAD PUSH3 0x2DE5 CODESIZE SUB DUP1 PUSH3 0x2DE5 DUP4 CODECOPY DUP2 DUP2 ADD PUSH1 0x40 MSTORE DUP2 ADD SWAP1 PUSH3 0x37 SWAP2 SWAP1 PUSH3 0x675 JUMP JUMPDEST DUP5 DUP5 DUP1 PUSH1 0x0 PUSH20 0xFFFFFFFFFFFFFFFFFFFFFFFFFFFFFFFFFFFFFFFF AND DUP2 PUSH20 0xFFFFFFFFFFFFFFFFFFFFFFFFFFFFFFFFFFFFFFFF AND SUB PUSH3 0xAF JUMPI PUSH1 0x0 PUSH1 0x40 MLOAD PUSH32 0x1E4FBDF700000000000000000000000000000000000000000000000000000000 DUP2 MSTORE PUSH1 0x4 ADD PUSH3 0xA6 SWAP2 SWAP1 PUSH3 0x758 JUMP JUMPDEST PUSH1 0x40 MLOAD DUP1 SWAP2 SUB SWAP1 REVERT JUMPDEST PUSH3 0xC0 DUP2 PUSH3 0x37E PUSH1 0x20 SHL PUSH1 0x20 SHR JUMP JUMPDEST POP PUSH1 0x1 DUP1 DUP2 SWAP1 SSTORE POP DUP2 PUSH1 0x2 SWAP1 DUP2 PUSH3 0xD9 SWAP2 SWAP1 PUSH3 0x9B6 JUMP JUMPDEST POP PUSH32 0x897CB1F7A5ACED02F0FE4E37D9268D7509E5620FE53F2BFE685120BCB0C13A30 DUP3 PUSH1 0x40 MLOAD PUSH3 0x10B SWAP2 SWAP1 PUSH3 0xAEF JUMP JUMPDEST PUSH1 0x40 MLOAD DUP1 SWAP2 SUB SWAP1 LOG1 POP POP PUSH1 0x0 PUSH20 0xFFFFFFFFFFFFFFFFFFFFFFFFFFFFFFFFFFFFFFFF AND DUP8 PUSH20 0xFFFFFFFFFFFFFFFFFFFFFFFFFFFFFFFFFFFFFFFF AND SUB PUSH3 0x187 JUMPI PUSH1 0x40 MLOAD PUSH32 0x8C379A000000000000000000000000000000000000000000000000000000000 DUP2 MSTORE PUSH1 0x4 ADD PUSH3 0x17E SWAP1 PUSH3 0xB63 JUMP JUMPDEST PUSH1 0x40 MLOAD DUP1 SWAP2 SUB SWAP1 REVERT JUMPDEST PUSH1 0x0 PUSH20 0xFFFFFFFFFFFFFFFFFFFFFFFFFFFFFFFFFFFFFFFF AND DUP7 PUSH20 0xFFFFFFFFFFFFFFFFFFFFFFFFFFFFFFFFFFFFFFFF AND SUB PUSH3 0x1F9 JUMPI PUSH1 0x40 MLOAD PUSH32 0x8C379A000000000000000000000000000000000000000000000000000000000 DUP2 MSTORE PUSH1 0x4 ADD PUSH3 0x1F0 SWAP1 PUSH3 0xBD5 JUMP JUMPDEST PUSH1 0x40 MLOAD DUP1 SWAP2 SUB SWAP1 REVERT JUMPDEST TIMESTAMP DUP4 GT PUSH3 0x23E JUMPI PUSH1 0x40 MLOAD PUSH32 0x8C379A000000000000000000000000000000000000000000000000000000000 DUP2 MSTORE PUSH1 0x4 ADD PUSH3 0x235 SWAP1 PUSH3 0xC47 JUMP JUMPDEST PUSH1 0x40 MLOAD DUP1 SWAP2 SUB SWAP1 REVERT JUMPDEST PUSH2 0x2710 DUP3 GT ISZERO PUSH3 0x286 JUMPI PUSH1 0x40 MLOAD PUSH32 0x8C379A000000000000000000000000000000000000000000000000000000000 DUP2 MSTORE PUSH1 0x4 ADD PUSH3 0x27D SWAP1 PUSH3 0xCB9 JUMP JUMPDEST PUSH1 0x40 MLOAD DUP1 SWAP2 SUB SWAP1 REVERT JUMPDEST DUP7 PUSH20 0xFFFFFFFFFFFFFFFFFFFFFFFFFFFFFFFFFFFFFFFF AND PUSH1 0x80 DUP2 PUSH20 0xFFFFFFFFFFFFFFFFFFFFFFFFFFFFFFFFFFFFFFFF AND DUP2 MSTORE POP POP DUP6 PUSH20 0xFFFFFFFFFFFFFFFFFFFFFFFFFFFFFFFFFFFFFFFF AND PUSH1 0xA0 DUP2 PUSH20 0xFFFFFFFFFFFFFFFFFFFFFFFFFFFFFFFFFFFFFFFF AND DUP2 MSTORE POP POP CALLER PUSH20 0xFFFFFFFFFFFFFFFFFFFFFFFFFFFFFFFFFFFFFFFF AND PUSH1 0xC0 DUP2 PUSH20 0xFFFFFFFFFFFFFFFFFFFFFFFFFFFFFFFFFFFFFFFF AND DUP2 MSTORE POP POP DUP3 PUSH1 0x3 DUP2 SWAP1 SSTORE POP DUP2 PUSH1 0x4 DUP2 SWAP1 SSTORE POP DUP1 PUSH1 0x5 PUSH1 0x0 PUSH2 0x100 EXP DUP2 SLOAD DUP2 PUSH20 0xFFFFFFFFFFFFFFFFFFFFFFFFFFFFFFFFFFFFFFFF MUL NOT AND SWAP1 DUP4 PUSH20 0xFFFFFFFFFFFFFFFFFFFFFFFFFFFFFFFFFFFFFFFF AND MUL OR SWAP1 SSTORE POP POP POP POP POP POP POP POP PUSH3 0xCDB JUMP JUMPDEST PUSH1 0x0 DUP1 PUSH1 0x0 SWAP1 SLOAD SWAP1 PUSH2 0x100 EXP SWAP1 DIV PUSH20 0xFFFFFFFFFFFFFFFFFFFFFFFFFFFFFFFFFFFFFFFF AND SWAP1 POP DUP2 PUSH1 0x0 DUP1 PUSH2 0x100 EXP DUP2 SLOAD DUP2 PUSH20 0xFFFFFFFFFFFFFFFFFFFFFFFFFFFFFFFFFFFFFFFF MUL NOT AND SWAP1 DUP4 PUSH20 0xFFFFFFFFFFFFFFFFFFFFFFFFFFFFFFFFFFFFFFFF AND MUL OR SWAP1 SSTORE POP DUP2 PUSH20 0xFFFFFFFFFFFFFFFFFFFFFFFFFFFFFFFFFFFFFFFF AND DUP2 PUSH20 0xFFFFFFFFFFFFFFFFFFFFFFFFFFFFFFFFFFFFFFFF AND PUSH32 0x8BE0079C531659141344CD1FD0A4F28419497F9722A3DAAFE3B4186F6B6457E0 PUSH1 0x40 MLOAD PUSH1 0x40 MLOAD DUP1 SWAP2 SUB SWAP1 LOG3 POP POP JUMP JUMPDEST PUSH1 0x0 PUSH1 0x40 MLOAD SWAP1 POP SWAP1 JUMP JUMPDEST PUSH1 0x0 DUP1 REVERT JUMPDEST PUSH1 0x0 DUP1 REVERT JUMPDEST PUSH1 0x0 PUSH20 0xFFFFFFFFFFFFFFFFFFFFFFFFFFFFFFFFFFFFFFFF DUP3 AND SWAP1 POP SWAP2 SWAP1 POP JUMP JUMPDEST PUSH1 0x0 PUSH3 0x483 DUP3 PUSH3 0x456 JUMP JUMPDEST SWAP1 POP SWAP2 SWAP1 POP JUMP JUMPDEST PUSH3 0x495 DUP2 PUSH3 0x476 JUMP JUMPDEST DUP2 EQ PUSH3 0x4A1 JUMPI PUSH1 0x0 DUP1 REVERT JUMPDEST POP JUMP JUMPDEST PUSH1 0x0 DUP2 MLOAD SWAP1 POP PUSH3 0x4B5 DUP2 PUSH3 0x48A JUMP JUMPDEST SWAP3 SWAP2 POP POP JUMP JUMPDEST PUSH1 0x0 DUP1 REVERT JUMPDEST PUSH1 0x0 DUP1 REVERT JUMPDEST PUSH1 0x0 PUSH1 0x1F NOT PUSH1 0x1F DUP4 ADD AND SWAP1 POP SWAP2 SWAP1 POP JUMP JUMPDEST PUSH32 0x4E487B7100000000000000000000000000000000000000000000000000000000 PUSH1 0x0 MSTORE PUSH1 0x41 PUSH1 0x4 MSTORE PUSH1 0x24 PUSH1 0x0 REVERT JUMPDEST PUSH3 0x510 DUP3 PUSH3 0x4C5 JUMP JUMPDEST DUP2 ADD DUP2 DUP2 LT PUSH8 0xFFFFFFFFFFFFFFFF DUP3 GT OR ISZERO PUSH3 0x532 JUMPI PUSH3 0x531 PUSH3 0x4D6 JUMP JUMPDEST JUMPDEST DUP1 PUSH1 0x40 MSTORE POP POP POP JUMP JUMPDEST PUSH1 0x0 PUSH3 0x547 PUSH3 0x442 JUMP JUMPDEST SWAP1 POP PUSH3 0x555 DUP3 DUP3 PUSH3 0x505 JUMP JUMPDEST SWAP2 SWAP1 POP JUMP JUMPDEST PUSH1 0x0 PUSH8 0xFFFFFFFFFFFFFFFF DUP3 GT ISZERO PUSH3 0x578 JUMPI PUSH3 0x577 PUSH3 0x4D6 JUMP JUMPDEST JUMPDEST PUSH3 0x583 DUP3 PUSH3 0x4C5 JUMP JUMPDEST SWAP1 POP PUSH1 0x20 DUP2 ADD SWAP1 POP SWAP2 SWAP1 POP JUMP JUMPDEST PUSH1 0x0 JUMPDEST DUP4 DUP2 LT ISZERO PUSH3 0x5B0 JUMPI DUP1 DUP3 ADD MLOAD DUP2 DUP5 ADD MSTORE PUSH1 0x20 DUP2 ADD SWAP1 POP PUSH3 0x593 JUMP JUMPDEST PUSH1 0x0 DUP5 DUP5 ADD MSTORE POP POP POP POP JUMP JUMPDEST PUSH1 0x0 PUSH3 0x5D3 PUSH3 0x5CD DUP5 PUSH3 0x55A JUMP JUMPDEST PUSH3 0x53B JUMP JUMPDEST SWAP1 POP DUP3 DUP2 MSTORE PUSH1 0x20 DUP2 ADD DUP5 DUP5 DUP5 ADD GT ISZERO PUSH3 0x5F2 JUMPI PUSH3 0x5F1 PUSH3 0x4C0 JUMP JUMPDEST JUMPDEST PUSH3 0x5FF DUP5 DUP3 DUP6 PUSH3 0x590 JUMP JUMPDEST POP SWAP4 SWAP3 POP POP POP JUMP JUMPDEST PUSH1 0x0 DUP3 PUSH1 0x1F DUP4 ADD SLT PUSH3 0x61F JUMPI PUSH3 0x61E PUSH3 0x4BB JUMP JUMPDEST JUMPDEST DUP2 MLOAD PUSH3 0x631 DUP5 DUP3 PUSH1 0x20 DUP7 ADD PUSH3 0x5BC JUMP JUMPDEST SWAP2 POP POP SWAP3 SWAP2 POP POP JUMP JUMPDEST PUSH1 0x0 DUP2 SWAP1 POP SWAP2 SWAP1 POP JUMP JUMPDEST PUSH3 0x64F DUP2 PUSH3 0x63A JUMP JUMPDEST DUP2 EQ PUSH3 0x65B JUMPI PUSH1 0x0 DUP1 REVERT JUMPDEST POP JUMP JUMPDEST PUSH1 0x0 DUP2 MLOAD SWAP1 POP PUSH3 0x66F DUP2 PUSH3 0x644 JUMP JUMPDEST SWAP3 SWAP2 POP POP JUMP JUMPDEST PUSH1 0x0 DUP1 PUSH1 0x0 DUP1 PUSH1 0x0 DUP1 PUSH1 0x0 PUSH1 0xE0 DUP9 DUP11 SUB SLT ISZERO PUSH3 0x697 JUMPI PUSH3 0x696 PUSH3 0x44C JUMP JUMPDEST JUMPDEST PUSH1 0x0 PUSH3 0x6A7 DUP11 DUP3 DUP12 ADD PUSH3 0x4A4 JUMP JUMPDEST SWAP8 POP POP PUSH1 0x20 PUSH3 0x6BA DUP11 DUP3 DUP12 ADD PUSH3 0x4A4 JUMP JUMPDEST SWAP7 POP POP PUSH1 0x40 DUP9 ADD MLOAD PUSH8 0xFFFFFFFFFFFFFFFF DUP2 GT ISZERO PUSH3 0x6DE JUMPI PUSH3 0x6DD PUSH3 0x451 JUMP JUMPDEST JUMPDEST PUSH3 0x6EC DUP11 DUP3 DUP12 ADD PUSH3 0x607 JUMP JUMPDEST SWAP6 POP POP PUSH1 0x60 PUSH3 0x6FF DUP11 DUP3 DUP12 ADD PUSH3 0x4A4 JUMP JUMPDEST SWAP5 POP POP PUSH1 0x80 PUSH3 0x712 DUP11 DUP3 DUP12 ADD PUSH3 0x65E JUMP JUMPDEST SWAP4 POP POP PUSH1 0xA0 PUSH3 0x725 DUP11 DUP3 DUP12 ADD PUSH3 0x65E JUMP JUMPDEST SWAP3 POP POP PUSH1 0xC0 PUSH3 0x738 DUP11 DUP3 DUP12 ADD PUSH3 0x4A4 JUMP JUMPDEST SWAP2 POP POP SWAP3 SWAP6 SWAP9 SWAP2 SWAP5 SWAP8 POP SWAP3 SWAP6 POP JUMP JUMPDEST PUSH3 0x752 DUP2 PUSH3 0x476 JUMP JUMPDEST DUP3 MSTORE POP POP JUMP JUMPDEST PUSH1 0x0 PUSH1 0x20 DUP3 ADD SWAP1 POP PUSH3 0x76F PUSH1 0x0 DUP4 ADD DUP5 PUSH3 0x747 JUMP JUMPDEST SWAP3 SWAP2 POP POP JUMP JUMPDEST PUSH1 0x0 DUP2 MLOAD SWAP1 POP SWAP2 SWAP1 POP JUMP JUMPDEST PUSH32 0x4E487B7100000000000000000000000000000000000000000000000000000000 PUSH1 0x0 MSTORE PUSH1 0x22 PUSH1 0x4 MSTORE PUSH1 0x24 PUSH1 0x0 REVERT JUMPDEST PUSH1 0x0 PUSH1 0x2 DUP3 DIV SWAP1 POP PUSH1 0x1 DUP3 AND DUP1 PUSH3 0x7C8 JUMPI PUSH1 0x7F DUP3 AND SWAP2 POP JUMPDEST PUSH1 0x20 DUP3 LT DUP2 SUB PUSH3 0x7DE JUMPI PUSH3 0x7DD PUSH3 0x780 JUMP JUMPDEST JUMPDEST POP SWAP2 SWAP1 POP JUMP JUMPDEST PUSH1 0x0 DUP2 SWAP1 POP DUP2 PUSH1 0x0 MSTORE PUSH1 0x20 PUSH1 0x0 KECCAK256 SWAP1 POP SWAP2 SWAP1 POP JUMP JUMPDEST PUSH1 0x0 PUSH1 0x20 PUSH1 0x1F DUP4 ADD DIV SWAP1 POP SWAP2 SWAP1 POP JUMP JUMPDEST PUSH1 0x0 DUP3 DUP3 SHL SWAP1 POP SWAP3 SWAP2 POP POP JUMP JUMPDEST PUSH1 0x0 PUSH1 0x8 DUP4 MUL PUSH3 0x848 PUSH32 0xFFFFFFFFFFFFFFFFFFFFFFFFFFFFFFFFFFFFFFFFFFFFFFFFFFFFFFFFFFFFFFFF DUP3 PUSH3 0x809 JUMP JUMPDEST PUSH3 0x854 DUP7 DUP4 PUSH3 0x809 JUMP JUMPDEST SWAP6 POP DUP1 NOT DUP5 AND SWAP4 POP DUP1 DUP7 AND DUP5 OR SWAP3 POP POP POP SWAP4 SWAP3 POP POP POP JUMP JUMPDEST PUSH1 0x0 DUP2 SWAP1 POP SWAP2 SWAP1 POP JUMP JUMPDEST PUSH1 0x0 PUSH3 0x897 PUSH3 0x891 PUSH3 0x88B DUP5 PUSH3 0x63A JUMP JUMPDEST PUSH3 0x86C JUMP JUMPDEST PUSH3 0x63A JUMP JUMPDEST SWAP1 POP SWAP2 SWAP1 POP JUMP JUMPDEST PUSH1 0x0 DUP2 SWAP1 POP SWAP2 SWAP1 POP JUMP JUMPDEST PUSH3 0x8B3 DUP4 PUSH3 0x876 JUMP JUMPDEST PUSH3 0x8CB PUSH3 0x8C2 DUP3 PUSH3 0x89E JUMP JUMPDEST DUP5 DUP5 SLOAD PUSH3 0x816 JUMP JUMPDEST DUP3 SSTORE POP POP POP POP JUMP JUMPDEST PUSH1 0x0 SWAP1 JUMP JUMPDEST PUSH3 0x8E2 PUSH3 0x8D3 JUMP JUMPDEST PUSH3 0x8EF DUP2 DUP5 DUP5 PUSH3 0x8A8 JUMP JUMPDEST POP POP POP JUMP JUMPDEST JUMPDEST DUP2 DUP2 LT ISZERO PUSH3 0x917 JUMPI PUSH3 0x90B PUSH1 0x0 DUP3 PUSH3 0x8D8 JUMP JUMPDEST PUSH1 0x1 DUP2 ADD SWAP1 POP PUSH3 0x8F5 JUMP JUMPDEST POP POP JUMP JUMPDEST PUSH1 0x1F DUP3 GT ISZERO PUSH3 0x966 JUMPI PUSH3 0x930 DUP2 PUSH3 0x7E4 JUMP JUMPDEST PUSH3 0x93B DUP5 PUSH3 0x7F9 JUMP JUMPDEST DUP2 ADD PUSH1 0x20 DUP6 LT ISZERO PUSH3 0x94B JUMPI DUP2 SWAP1 POP JUMPDEST PUSH3 0x963 PUSH3 0x95A DUP6 PUSH3 0x7F9 JUMP JUMPDEST DUP4 ADD DUP3 PUSH3 0x8F4 JUMP JUMPDEST POP POP JUMPDEST POP POP POP JUMP JUMPDEST PUSH1 0x0 DUP3 DUP3 SHR SWAP1 POP SWAP3 SWAP2 POP POP JUMP JUMPDEST PUSH1 0x0 PUSH3 0x98B PUSH1 0x0 NOT DUP5 PUSH1 0x8 MUL PUSH3 0x96B JUMP JUMPDEST NOT DUP1 DUP4 AND SWAP2 POP POP SWAP3 SWAP2 POP POP JUMP JUMPDEST PUSH1 0x0 PUSH3 0x9A6 DUP4 DUP4 PUSH3 0x978 JUMP JUMPDEST SWAP2 POP DUP3 PUSH1 0x2 MUL DUP3 OR SWAP1 POP SWAP3 SWAP2 POP POP JUMP JUMPDEST PUSH3 0x9C1 DUP3 PUSH3 0x775 JUMP JUMPDEST PUSH8 0xFFFFFFFFFFFFFFFF DUP2 GT ISZERO PUSH3 0x9DD JUMPI PUSH3 0x9DC PUSH3 0x4D6 JUMP JUMPDEST JUMPDEST PUSH3 0x9E9 DUP3 SLOAD PUSH3 0x7AF JUMP JUMPDEST PUSH3 0x9F6 DUP3 DUP3 DUP6 PUSH3 0x91B JUMP JUMPDEST PUSH1 0x0 PUSH1 0x20 SWAP1 POP PUSH1 0x1F DUP4 GT PUSH1 0x1 DUP2 EQ PUSH3 0xA2E JUMPI PUSH1 0x0 DUP5 ISZERO PUSH3 0xA19 JUMPI DUP3 DUP8 ADD MLOAD SWAP1 POP JUMPDEST PUSH3 0xA25 DUP6 DUP3 PUSH3 0x998 JUMP JUMPDEST DUP7 SSTORE POP PUSH3 0xA95 JUMP JUMPDEST PUSH1 0x1F NOT DUP5 AND PUSH3 0xA3E DUP7 PUSH3 0x7E4 JUMP JUMPDEST PUSH1 0x0 JUMPDEST DUP3 DUP2 LT ISZERO PUSH3 0xA68 JUMPI DUP5 DUP10 ADD MLOAD DUP3 SSTORE PUSH1 0x1 DUP3 ADD SWAP2 POP PUSH1 0x20 DUP6 ADD SWAP5 POP PUSH1 0x20 DUP2 ADD SWAP1 POP PUSH3 0xA41 JUMP JUMPDEST DUP7 DUP4 LT ISZERO PUSH3 0xA88 JUMPI DUP5 DUP10 ADD MLOAD PUSH3 0xA84 PUSH1 0x1F DUP10 AND DUP3 PUSH3 0x978 JUMP JUMPDEST DUP4 SSTORE POP JUMPDEST PUSH1 0x1 PUSH1 0x2 DUP9 MUL ADD DUP9 SSTORE POP POP POP JUMPDEST POP POP POP POP POP POP JUMP JUMPDEST PUSH1 0x0 DUP3 DUP3 MSTORE PUSH1 0x20 DUP3 ADD SWAP1 POP SWAP3 SWAP2 POP POP JUMP JUMPDEST PUSH1 0x0 PUSH3 0xABB DUP3 PUSH3 0x775 JUMP JUMPDEST PUSH3 0xAC7 DUP2 DUP6 PUSH3 0xA9D JUMP JUMPDEST SWAP4 POP PUSH3 0xAD9 DUP2 DUP6 PUSH1 0x20 DUP7 ADD PUSH3 0x590 JUMP JUMPDEST PUSH3 0xAE4 DUP2 PUSH3 0x4C5 JUMP JUMPDEST DUP5 ADD SWAP2 POP POP SWAP3 SWAP2 POP POP JUMP JUMPDEST PUSH1 0x0 PUSH1 0x20 DUP3 ADD SWAP1 POP DUP2 DUP2 SUB PUSH1 0x0 DUP4 ADD MSTORE PUSH3 0xB0B DUP2 DUP5 PUSH3 0xAAE JUMP JUMPDEST SWAP1 POP SWAP3 SWAP2 POP POP JUMP JUMPDEST PUSH32 0x496E76616C696420746F6B656E20616464726573730000000000000000000000 PUSH1 0x0 DUP3 ADD MSTORE POP JUMP JUMPDEST PUSH1 0x0 PUSH3 0xB4B PUSH1 0x15 DUP4 PUSH3 0xA9D JUMP JUMPDEST SWAP2 POP PUSH3 0xB58 DUP3 PUSH3 0xB13 JUMP JUMPDEST PUSH1 0x20 DUP3 ADD SWAP1 POP SWAP2 SWAP1 POP JUMP JUMPDEST PUSH1 0x0 PUSH1 0x20 DUP3 ADD SWAP1 POP DUP2 DUP2 SUB PUSH1 0x0 DUP4 ADD MSTORE PUSH3 0xB7E DUP2 PUSH3 0xB3C JUMP JUMPDEST SWAP1 POP SWAP2 SWAP1 POP JUMP JUMPDEST PUSH32 0x496E76616C6964206B546F6B656E206164647265737300000000000000000000 PUSH1 0x0 DUP3 ADD MSTORE POP JUMP JUMPDEST PUSH1 0x0 PUSH3 0xBBD PUSH1 0x16 DUP4 PUSH3 0xA9D JUMP JUMPDEST SWAP2 POP PUSH3 0xBCA DUP3 PUSH3 0xB85 JUMP JUMPDEST PUSH1 0x20 DUP3 ADD SWAP1 POP SWAP2 SWAP1 POP JUMP JUMPDEST PUSH1 0x0 PUSH1 0x20 DUP3 ADD SWAP1 POP DUP2 DUP2 SUB PUSH1 0x0 DUP4 ADD MSTORE PUSH3 0xBF0 DUP2 PUSH3 0xBAE JUMP JUMPDEST SWAP1 POP SWAP2 SWAP1 POP JUMP JUMPDEST PUSH32 0x556E6C6F636B2074696D65206D75737420626520696E20667574757265000000 PUSH1 0x0 DUP3 ADD MSTORE POP JUMP JUMPDEST PUSH1 0x0 PUSH3 0xC2F PUSH1 0x1D DUP4 PUSH3 0xA9D JUMP JUMPDEST SWAP2 POP PUSH3 0xC3C DUP3 PUSH3 0xBF7 JUMP JUMPDEST PUSH1 0x20 DUP3 ADD SWAP1 POP SWAP2 SWAP1 POP JUMP JUMPDEST PUSH1 0x0 PUSH1 0x20 DUP3 ADD SWAP1 POP DUP2 DUP2 SUB PUSH1 0x0 DUP4 ADD MSTORE PUSH3 0xC62 DUP2 PUSH3 0xC20 JUMP JUMPDEST SWAP1 POP SWAP2 SWAP1 POP JUMP JUMPDEST PUSH32 0x496E76616C696420626173697320706F696E7473000000000000000000000000 PUSH1 0x0 DUP3 ADD MSTORE POP JUMP JUMPDEST PUSH1 0x0 PUSH3 0xCA1 PUSH1 0x14 DUP4 PUSH3 0xA9D JUMP JUMPDEST SWAP2 POP PUSH3 0xCAE DUP3 PUSH3 0xC69 JUMP JUMPDEST PUSH1 0x20 DUP3 ADD SWAP1 POP SWAP2 SWAP1 POP JUMP JUMPDEST PUSH1 0x0 PUSH1 0x20 DUP3 ADD SWAP1 POP DUP2 DUP2 SUB PUSH1 0x0 DUP4 ADD MSTORE PUSH3 0xCD4 DUP2 PUSH3 0xC92 JUMP JUMPDEST SWAP1 POP SWAP2 SWAP1 POP JUMP JUMPDEST PUSH1 0x80 MLOAD PUSH1 0xA0 MLOAD PUSH1 0xC0 MLOAD PUSH2 0x205C PUSH3 0xD89 PUSH1 0x0 CODECOPY PUSH1 0x0 DUP2 DUP2 PUSH2 0xEBC ADD MSTORE PUSH2 0xF8F ADD MSTORE PUSH1 0x0 DUP2 DUP2 PUSH2 0x3BF ADD MSTORE DUP2 DUP2 PUSH2 0x45D ADD MSTORE DUP2 DUP2 PUSH2 0x514 ADD MSTORE DUP2 DUP2 PUSH2 0x54A ADD MSTORE DUP2 DUP2 PUSH2 0x62D ADD MSTORE DUP2 DUP2 PUSH2 0x6CB ADD MSTORE DUP2 DUP2 PUSH2 0xCF0 ADD MSTORE DUP2 DUP2 PUSH2 0xD75 ADD MSTORE DUP2 DUP2 PUSH2 0x1153 ADD MSTORE PUSH2 0x11D8 ADD MSTORE PUSH1 0x0 DUP2 DUP2 PUSH2 0x7A9 ADD MSTORE DUP2 DUP2 PUSH2 0x853 ADD MSTORE DUP2 DUP2 PUSH2 0x9AF ADD MSTORE DUP2 DUP2 PUSH2 0xA04 ADD MSTORE DUP2 DUP2 PUSH2 0xC54 ADD MSTORE DUP2 DUP2 PUSH2 0xCB4 ADD MSTORE DUP2 DUP2 PUSH2 0x101F ADD MSTORE DUP2 DUP2 PUSH2 0x1117 ADD MSTORE PUSH2 0x1343 ADD MSTORE PUSH2 0x205C PUSH1 0x0 RETURN INVALID PUSH1 0x80 PUSH1 0x40 MSTORE PUSH1 0x4 CALLDATASIZE LT PUSH2 0xF7 JUMPI PUSH1 0x0 CALLDATALOAD PUSH1 0xE0 SHR DUP1 PUSH4 0xB6B55F25 GT PUSH2 0x8A JUMPI DUP1 PUSH4 0xE037F889 GT PUSH2 0x59 JUMPI DUP1 PUSH4 0xE037F889 EQ PUSH2 0x320 JUMPI DUP1 PUSH4 0xECFAD9FD EQ PUSH2 0x337 JUMPI DUP1 PUSH4 0xF2FDE38B EQ PUSH2 0x362 JUMPI DUP1 PUSH4 0xFC0C546A EQ PUSH2 0x38B JUMPI PUSH2 0x162 JUMP JUMPDEST DUP1 PUSH4 0xB6B55F25 EQ PUSH2 0x297 JUMPI DUP1 PUSH4 0xBA5D3078 EQ PUSH2 0x2C0 JUMPI DUP1 PUSH4 0xC45A0155 EQ PUSH2 0x2EB JUMPI DUP1 PUSH4 0xD0E30DB0 EQ PUSH2 0x316 JUMPI PUSH2 0x162 JUMP JUMPDEST DUP1 PUSH4 0x70740AAB GT PUSH2 0xC6 JUMPI DUP1 PUSH4 0x70740AAB EQ PUSH2 0x1FF JUMPI DUP1 PUSH4 0x715018A6 EQ PUSH2 0x22A JUMPI DUP1 PUSH4 0x8DA5CB5B EQ PUSH2 0x241 JUMPI DUP1 PUSH4 0xAA082A9D EQ PUSH2 0x26C JUMPI PUSH2 0x162 JUMP JUMPDEST DUP1 PUSH4 0x1E1D114 EQ PUSH2 0x167 JUMPI DUP1 PUSH4 0x223C19F9 EQ PUSH2 0x192 JUMPI DUP1 PUSH4 0x3CCFD60B EQ PUSH2 0x1BD JUMPI DUP1 PUSH4 0x61D027B3 EQ PUSH2 0x1D4 JUMPI PUSH2 0x162 JUMP JUMPDEST CALLDATASIZE PUSH2 0x162 JUMPI PUSH1 0x0 CALLVALUE GT ISZERO PUSH2 0x160 JUMPI CALLER PUSH20 0xFFFFFFFFFFFFFFFFFFFFFFFFFFFFFFFFFFFFFFFF AND PUSH32 0x73A19DD210F1A7F902193214C0EE91DD35EE5B4D920CBA8D519ECA65A7B488CA CALLVALUE TIMESTAMP PUSH1 0x40 MLOAD PUSH2 0x14D SWAP3 SWAP2 SWAP1 PUSH2 0x16C3 JUMP JUMPDEST PUSH1 0x40 MLOAD DUP1 SWAP2 SUB SWAP1 LOG2 PUSH2 0x15F CALLER CALLVALUE PUSH2 0x3B6 JUMP JUMPDEST JUMPDEST STOP JUMPDEST PUSH1 0x0 DUP1 REVERT JUMPDEST CALLVALUE DUP1 ISZERO PUSH2 0x173 JUMPI PUSH1 0x0 DUP1 REVERT JUMPDEST POP PUSH2 0x17C PUSH2 0x3BA JUMP JUMPDEST PUSH1 0x40 MLOAD PUSH2 0x189 SWAP2 SWAP1 PUSH2 0x16EC JUMP JUMPDEST PUSH1 0x40 MLOAD DUP1 SWAP2 SUB SWAP1 RETURN JUMPDEST CALLVALUE DUP1 ISZERO PUSH2 0x19E JUMPI PUSH1 0x0 DUP1 REVERT JUMPDEST POP PUSH2 0x1A7 PUSH2 0x512 JUMP JUMPDEST PUSH1 0x40 MLOAD PUSH2 0x1B4 SWAP2 SWAP1 PUSH2 0x1786 JUMP JUMPDEST PUSH1 0x40 MLOAD DUP1 SWAP2 SUB SWAP1 RETURN JUMPDEST CALLVALUE DUP1 ISZERO PUSH2 0x1C9 JUMPI PUSH1 0x0 DUP1 REVERT JUMPDEST POP PUSH2 0x1D2 PUSH2 0x536 JUMP JUMPDEST STOP JUMPDEST CALLVALUE DUP1 ISZERO PUSH2 0x1E0 JUMPI PUSH1 0x0 DUP1 REVERT JUMPDEST POP PUSH2 0x1E9 PUSH2 0xB02 JUMP JUMPDEST PUSH1 0x40 MLOAD PUSH2 0x1F6 SWAP2 SWAP1 PUSH2 0x17C2 JUMP JUMPDEST PUSH1 0x40 MLOAD DUP1 SWAP2 SUB SWAP1 RETURN JUMPDEST CALLVALUE DUP1 ISZERO PUSH2 0x20B JUMPI PUSH1 0x0 DUP1 REVERT JUMPDEST POP PUSH2 0x214 PUSH2 0xB28 JUMP JUMPDEST PUSH1 0x40 MLOAD PUSH2 0x221 SWAP2 SWAP1 PUSH2 0x186D JUMP JUMPDEST PUSH1 0x40 MLOAD DUP1 SWAP2 SUB SWAP1 RETURN JUMPDEST CALLVALUE DUP1 ISZERO PUSH2 0x236 JUMPI PUSH1 0x0 DUP1 REVERT JUMPDEST POP PUSH2 0x23F PUSH2 0xBB6 JUMP JUMPDEST STOP JUMPDEST CALLVALUE DUP1 ISZERO PUSH2 0x24D JUMPI PUSH1 0x0 DUP1 REVERT JUMPDEST POP PUSH2 0x256 PUSH2 0xBCA JUMP JUMPDEST PUSH1 0x40 MLOAD PUSH2 0x263 SWAP2 SWAP1 PUSH2 0x17C2 JUMP JUMPDEST PUSH1 0x40 MLOAD DUP1 SWAP2 SUB SWAP1 RETURN JUMPDEST CALLVALUE DUP1 ISZERO PUSH2 0x278 JUMPI PUSH1 0x0 DUP1 REVERT JUMPDEST POP PUSH2 0x281 PUSH2 0xBF3 JUMP JUMPDEST PUSH1 0x40 MLOAD PUSH2 0x28E SWAP2 SWAP1 PUSH2 0x16EC JUMP JUMPDEST PUSH1 0x40 MLOAD DUP1 SWAP2 SUB SWAP1 RETURN JUMPDEST CALLVALUE DUP1 ISZERO PUSH2 0x2A3 JUMPI PUSH1 0x0 DUP1 REVERT JUMPDEST POP PUSH2 0x2BE PUSH1 0x4 DUP1 CALLDATASIZE SUB DUP2 ADD SWAP1 PUSH2 0x2B9 SWAP2 SWAP1 PUSH2 0x18C0 JUMP JUMPDEST PUSH2 0xBF9 JUMP JUMPDEST STOP JUMPDEST CALLVALUE DUP1 ISZERO PUSH2 0x2CC JUMPI PUSH1 0x0 DUP1 REVERT JUMPDEST POP PUSH2 0x2D5 PUSH2 0xEB4 JUMP JUMPDEST PUSH1 0x40 MLOAD PUSH2 0x2E2 SWAP2 SWAP1 PUSH2 0x16EC JUMP JUMPDEST PUSH1 0x40 MLOAD DUP1 SWAP2 SUB SWAP1 RETURN JUMPDEST CALLVALUE DUP1 ISZERO PUSH2 0x2F7 JUMPI PUSH1 0x0 DUP1 REVERT JUMPDEST POP PUSH2 0x300 PUSH2 0xEBA JUMP JUMPDEST PUSH1 0x40 MLOAD PUSH2 0x30D SWAP2 SWAP1 PUSH2 0x17C2 JUMP JUMPDEST PUSH1 0x40 MLOAD DUP1 SWAP2 SUB SWAP1 RETURN JUMPDEST PUSH2 0x31E PUSH2 0xEDE JUMP JUMPDEST STOP JUMPDEST CALLVALUE DUP1 ISZERO PUSH2 0x32C JUMPI PUSH1 0x0 DUP1 REVERT JUMPDEST POP PUSH2 0x335 PUSH2 0xF8D JUMP JUMPDEST STOP JUMPDEST CALLVALUE DUP1 ISZERO PUSH2 0x343 JUMPI PUSH1 0x0 DUP1 REVERT JUMPDEST POP PUSH2 0x34C PUSH2 0x12B5 JUMP JUMPDEST PUSH1 0x40 MLOAD PUSH2 0x359 SWAP2 SWAP1 PUSH2 0x16EC JUMP JUMPDEST PUSH1 0x40 MLOAD DUP1 SWAP2 SUB SWAP1 RETURN JUMPDEST CALLVALUE DUP1 ISZERO PUSH2 0x36E JUMPI PUSH1 0x0 DUP1 REVERT JUMPDEST POP PUSH2 0x389 PUSH1 0x4 DUP1 CALLDATASIZE SUB DUP2 ADD SWAP1 PUSH2 0x384 SWAP2 SWAP1 PUSH2 0x1919 JUMP JUMPDEST PUSH2 0x12BB JUMP JUMPDEST STOP JUMPDEST CALLVALUE DUP1 ISZERO PUSH2 0x397 JUMPI PUSH1 0x0 DUP1 REVERT JUMPDEST POP PUSH2 0x3A0 PUSH2 0x1341 JUMP JUMPDEST PUSH1 0x40 MLOAD PUSH2 0x3AD SWAP2 SWAP1 PUSH2 0x1967 JUMP JUMPDEST PUSH1 0x40 MLOAD DUP1 SWAP2 SUB SWAP1 RETURN JUMPDEST POP POP JUMP JUMPDEST PUSH1 0x0 DUP1 PUSH32 0x0 PUSH20 0xFFFFFFFFFFFFFFFFFFFFFFFFFFFFFFFFFFFFFFFF AND PUSH4 0x70A08231 ADDRESS PUSH1 0x40 MLOAD DUP3 PUSH4 0xFFFFFFFF AND PUSH1 0xE0 SHL DUP2 MSTORE PUSH1 0x4 ADD PUSH2 0x416 SWAP2 SWAP1 PUSH2 0x17C2 JUMP JUMPDEST PUSH1 0x20 PUSH1 0x40 MLOAD DUP1 DUP4 SUB DUP2 DUP7 GAS STATICCALL ISZERO DUP1 ISZERO PUSH2 0x433 JUMPI RETURNDATASIZE PUSH1 0x0 DUP1 RETURNDATACOPY RETURNDATASIZE PUSH1 0x0 REVERT JUMPDEST POP POP POP POP PUSH1 0x40 MLOAD RETURNDATASIZE PUSH1 0x1F NOT PUSH1 0x1F DUP3 ADD AND DUP3 ADD DUP1 PUSH1 0x40 MSTORE POP DUP2 ADD SWAP1 PUSH2 0x457 SWAP2 SWAP1 PUSH2 0x1997 JUMP JUMPDEST SWAP1 POP PUSH1 0x0 PUSH32 0x0 PUSH20 0xFFFFFFFFFFFFFFFFFFFFFFFFFFFFFFFFFFFFFFFF AND PUSH4 0x182DF0F5 PUSH1 0x40 MLOAD DUP2 PUSH4 0xFFFFFFFF AND PUSH1 0xE0 SHL DUP2 MSTORE PUSH1 0x4 ADD PUSH1 0x20 PUSH1 0x40 MLOAD DUP1 DUP4 SUB DUP2 DUP7 GAS STATICCALL ISZERO DUP1 ISZERO PUSH2 0x4C6 JUMPI RETURNDATASIZE PUSH1 0x0 DUP1 RETURNDATACOPY RETURNDATASIZE PUSH1 0x0 REVERT JUMPDEST POP POP POP POP PUSH1 0x40 MLOAD RETURNDATASIZE PUSH1 0x1F NOT PUSH1 0x1F DUP3 ADD AND DUP3 ADD DUP1 PUSH1 0x40 MSTORE POP DUP2 ADD SWAP1 PUSH2 0x4EA SWAP2 SWAP1 PUSH2 0x1997 JUMP JUMPDEST SWAP1 POP PUSH8 0xDE0B6B3A7640000 DUP2 DUP4 PUSH2 0x501 SWAP2 SWAP1 PUSH2 0x19F3 JUMP JUMPDEST PUSH2 0x50B SWAP2 SWAP1 PUSH2 0x1A64 JUMP JUMPDEST SWAP3 POP POP POP SWAP1 JUMP JUMPDEST PUSH32 0x0 DUP2 JUMP JUMPDEST PUSH2 0x53E PUSH2 0x1365 JUMP JUMPDEST PUSH2 0x546 PUSH2 0x13EC JUMP JUMPDEST PUSH1 0x0 PUSH32 0x0 PUSH20 0xFFFFFFFFFFFFFFFFFFFFFFFFFFFFFFFFFFFFFFFF AND PUSH4 0x3AF9E669 ADDRESS PUSH1 0x40 MLOAD DUP3 PUSH4 0xFFFFFFFF AND PUSH1 0xE0 SHL DUP2 MSTORE PUSH1 0x4 ADD PUSH2 0x5A1 SWAP2 SWAP1 PUSH2 0x17C2 JUMP JUMPDEST PUSH1 0x20 PUSH1 0x40 MLOAD DUP1 DUP4 SUB DUP2 PUSH1 0x0 DUP8 GAS CALL ISZERO DUP1 ISZERO PUSH2 0x5C0 JUMPI RETURNDATASIZE PUSH1 0x0 DUP1 RETURNDATACOPY RETURNDATASIZE PUSH1 0x0 REVERT JUMPDEST POP POP POP POP PUSH1 0x40 MLOAD RETURNDATASIZE PUSH1 0x1F NOT PUSH1 0x1F DUP3 ADD AND DUP3 ADD DUP1 PUSH1 0x40 MSTORE POP DUP2 ADD SWAP1 PUSH2 0x5E4 SWAP2 SWAP1 PUSH2 0x1997 JUMP JUMPDEST SWAP1 POP PUSH1 0x0 DUP2 GT PUSH2 0x629 JUMPI PUSH1 0x40 MLOAD PUSH32 0x8C379A000000000000000000000000000000000000000000000000000000000 DUP2 MSTORE PUSH1 0x4 ADD PUSH2 0x620 SWAP1 PUSH2 0x1AE1 JUMP JUMPDEST PUSH1 0x40 MLOAD DUP1 SWAP2 SUB SWAP1 REVERT JUMPDEST PUSH1 0x0 PUSH32 0x0 PUSH20 0xFFFFFFFFFFFFFFFFFFFFFFFFFFFFFFFFFFFFFFFF AND PUSH4 0x70A08231 ADDRESS PUSH1 0x40 MLOAD DUP3 PUSH4 0xFFFFFFFF AND PUSH1 0xE0 SHL DUP2 MSTORE PUSH1 0x4 ADD PUSH2 0x684 SWAP2 SWAP1 PUSH2 0x17C2 JUMP JUMPDEST PUSH1 0x20 PUSH1 0x40 MLOAD DUP1 DUP4 SUB DUP2 DUP7 GAS STATICCALL ISZERO DUP1 ISZERO PUSH2 0x6A1 JUMPI RETURNDATASIZE PUSH1 0x0 DUP1 RETURNDATACOPY RETURNDATASIZE PUSH1 0x0 REVERT JUMPDEST POP POP POP POP PUSH1 0x40 MLOAD RETURNDATASIZE PUSH1 0x1F NOT PUSH1 0x1F DUP3 ADD AND DUP3 ADD DUP1 PUSH1 0x40 MSTORE POP DUP2 ADD SWAP1 PUSH2 0x6C5 SWAP2 SWAP1 PUSH2 0x1997 JUMP JUMPDEST SWAP1 POP PUSH1 0x0 PUSH32 0x0 PUSH20 0xFFFFFFFFFFFFFFFFFFFFFFFFFFFFFFFFFFFFFFFF AND PUSH4 0xDB006A75 DUP4 PUSH1 0x40 MLOAD DUP3 PUSH4 0xFFFFFFFF AND PUSH1 0xE0 SHL DUP2 MSTORE PUSH1 0x4 ADD PUSH2 0x722 SWAP2 SWAP1 PUSH2 0x16EC JUMP JUMPDEST PUSH1 0x20 PUSH1 0x40 MLOAD DUP1 DUP4 SUB DUP2 PUSH1 0x0 DUP8 GAS CALL ISZERO DUP1 ISZERO PUSH2 0x741 JUMPI RETURNDATASIZE PUSH1 0x0 DUP1 RETURNDATACOPY RETURNDATASIZE PUSH1 0x0 REVERT JUMPDEST POP POP POP POP PUSH1 0x40 MLOAD RETURNDATASIZE PUSH1 0x1F NOT PUSH1 0x1F DUP3 ADD AND DUP3 ADD DUP1 PUSH1 0x40 MSTORE POP DUP2 ADD SWAP1 PUSH2 0x765 SWAP2 SWAP1 PUSH2 0x1997 JUMP JUMPDEST EQ PUSH2 0x7A5 JUMPI PUSH1 0x40 MLOAD PUSH32 0x8C379A000000000000000000000000000000000000000000000000000000000 DUP2 MSTORE PUSH1 0x4 ADD PUSH2 0x79C SWAP1 PUSH2 0x1B4D JUMP JUMPDEST PUSH1 0x40 MLOAD DUP1 SWAP2 SUB SWAP1 REVERT JUMPDEST PUSH1 0x0 PUSH32 0x0 PUSH20 0xFFFFFFFFFFFFFFFFFFFFFFFFFFFFFFFFFFFFFFFF AND PUSH4 0x70A08231 ADDRESS PUSH1 0x40 MLOAD DUP3 PUSH4 0xFFFFFFFF AND PUSH1 0xE0 SHL DUP2 MSTORE PUSH1 0x4 ADD PUSH2 0x800 SWAP2 SWAP1 PUSH2 0x17C2 JUMP JUMPDEST PUSH1 0x20 PUSH1 0x40 MLOAD DUP1 DUP4 SUB DUP2 DUP7 GAS STATICCALL ISZERO DUP1 ISZERO PUSH2 0x81D JUMPI RETURNDATASIZE PUSH1 0x0 DUP1 RETURNDATACOPY RETURNDATASIZE PUSH1 0x0 REVERT JUMPDEST POP POP POP POP PUSH1 0x40 MLOAD RETURNDATASIZE PUSH1 0x1F NOT PUSH1 0x1F DUP3 ADD AND DUP3 ADD DUP1 PUSH1 0x40 MSTORE POP DUP2 ADD SWAP1 PUSH2 0x841 SWAP2 SWAP1 PUSH2 0x1997 JUMP JUMPDEST SWAP1 POP PUSH1 0x3 SLOAD TIMESTAMP LT PUSH2 0x93A JUMPI PUSH2 0x897 CALLER DUP3 PUSH32 0x0 PUSH20 0xFFFFFFFFFFFFFFFFFFFFFFFFFFFFFFFFFFFFFFFF AND PUSH2 0x1432 SWAP1 SWAP3 SWAP2 SWAP1 PUSH4 0xFFFFFFFF AND JUMP JUMPDEST CALLER PUSH20 0xFFFFFFFFFFFFFFFFFFFFFFFFFFFFFFFFFFFFFFFF AND PUSH32 0x62116A798BB58CC967874BEA4D771DE2F9AEEC6C64189FF2E5A551072F3106F9 DUP3 TIMESTAMP PUSH1 0x40 MLOAD PUSH2 0x8DF SWAP3 SWAP2 SWAP1 PUSH2 0x1BB9 JUMP JUMPDEST PUSH1 0x40 MLOAD DUP1 SWAP2 SUB SWAP1 LOG2 CALLER PUSH20 0xFFFFFFFFFFFFFFFFFFFFFFFFFFFFFFFFFFFFFFFF AND PUSH32 0x779C86999FB727CA861D0288AA11ED4104347721C571E4F0DA5172AFB607D885 DUP3 PUSH1 0x40 MLOAD PUSH2 0x92D SWAP2 SWAP1 PUSH2 0x16EC JUMP JUMPDEST PUSH1 0x40 MLOAD DUP1 SWAP2 SUB SWAP1 LOG2 PUSH2 0xAED JUMP JUMPDEST PUSH1 0x0 PUSH2 0x2710 PUSH1 0x4 SLOAD PUSH1 0x6 SLOAD PUSH2 0x94F SWAP2 SWAP1 PUSH2 0x19F3 JUMP JUMPDEST PUSH2 0x959 SWAP2 SWAP1 PUSH2 0x1A64 JUMP JUMPDEST SWAP1 POP PUSH1 0x0 DUP2 PUSH1 0x6 SLOAD PUSH2 0x96B SWAP2 SWAP1 PUSH2 0x1BF5 JUMP JUMPDEST SWAP1 POP PUSH1 0x0 DUP2 DUP5 PUSH2 0x97B SWAP2 SWAP1 PUSH2 0x1BF5 JUMP JUMPDEST SWAP1 POP PUSH1 0x0 DUP2 GT ISZERO PUSH2 0x9F4 JUMPI PUSH2 0x9F3 PUSH1 0x5 PUSH1 0x0 SWAP1 SLOAD SWAP1 PUSH2 0x100 EXP SWAP1 DIV PUSH20 0xFFFFFFFFFFFFFFFFFFFFFFFFFFFFFFFFFFFFFFFF AND DUP3 PUSH32 0x0 PUSH20 0xFFFFFFFFFFFFFFFFFFFFFFFFFFFFFFFFFFFFFFFF AND PUSH2 0x1432 SWAP1 SWAP3 SWAP2 SWAP1 PUSH4 0xFFFFFFFF AND JUMP JUMPDEST JUMPDEST PUSH1 0x0 DUP3 GT ISZERO PUSH2 0xA49 JUMPI PUSH2 0xA48 CALLER DUP4 PUSH32 0x0 PUSH20 0xFFFFFFFFFFFFFFFFFFFFFFFFFFFFFFFFFFFFFFFF AND PUSH2 0x1432 SWAP1 SWAP3 SWAP2 SWAP1 PUSH4 0xFFFFFFFF AND JUMP JUMPDEST JUMPDEST CALLER PUSH20 0xFFFFFFFFFFFFFFFFFFFFFFFFFFFFFFFFFFFFFFFF AND PUSH32 0x62116A798BB58CC967874BEA4D771DE2F9AEEC6C64189FF2E5A551072F3106F9 DUP4 TIMESTAMP PUSH1 0x40 MLOAD PUSH2 0xA91 SWAP3 SWAP2 SWAP1 PUSH2 0x1C75 JUMP JUMPDEST PUSH1 0x40 MLOAD DUP1 SWAP2 SUB SWAP1 LOG2 CALLER PUSH20 0xFFFFFFFFFFFFFFFFFFFFFFFFFFFFFFFFFFFFFFFF AND PUSH32 0x1670585E36568EDE58D159518CE92CAD99F75AD41C7D8281DF3DD4EAA0C855D0 DUP4 DUP6 PUSH1 0x40 MLOAD PUSH2 0xAE1 SWAP3 SWAP2 SWAP1 PUSH2 0x16C3 JUMP JUMPDEST PUSH1 0x40 MLOAD DUP1 SWAP2 SUB SWAP1 LOG2 POP POP POP JUMPDEST PUSH1 0x0 PUSH1 0x6 DUP2 SWAP1 SSTORE POP POP POP POP PUSH2 0xB00 PUSH2 0x14B1 JUMP JUMPDEST JUMP JUMPDEST PUSH1 0x5 PUSH1 0x0 SWAP1 SLOAD SWAP1 PUSH2 0x100 EXP SWAP1 DIV PUSH20 0xFFFFFFFFFFFFFFFFFFFFFFFFFFFFFFFFFFFFFFFF AND DUP2 JUMP JUMPDEST PUSH1 0x2 DUP1 SLOAD PUSH2 0xB35 SWAP1 PUSH2 0x1CE0 JUMP JUMPDEST DUP1 PUSH1 0x1F ADD PUSH1 0x20 DUP1 SWAP2 DIV MUL PUSH1 0x20 ADD PUSH1 0x40 MLOAD SWAP1 DUP2 ADD PUSH1 0x40 MSTORE DUP1 SWAP3 SWAP2 SWAP1 DUP2 DUP2 MSTORE PUSH1 0x20 ADD DUP3 DUP1 SLOAD PUSH2 0xB61 SWAP1 PUSH2 0x1CE0 JUMP JUMPDEST DUP1 ISZERO PUSH2 0xBAE JUMPI DUP1 PUSH1 0x1F LT PUSH2 0xB83 JUMPI PUSH2 0x100 DUP1 DUP4 SLOAD DIV MUL DUP4 MSTORE SWAP2 PUSH1 0x20 ADD SWAP2 PUSH2 0xBAE JUMP JUMPDEST DUP3 ADD SWAP2 SWAP1 PUSH1 0x0 MSTORE PUSH1 0x20 PUSH1 0x0 KECCAK256 SWAP1 JUMPDEST DUP2 SLOAD DUP2 MSTORE SWAP1 PUSH1 0x1 ADD SWAP1 PUSH1 0x20 ADD DUP1 DUP4 GT PUSH2 0xB91 JUMPI DUP3 SWAP1 SUB PUSH1 0x1F AND DUP3 ADD SWAP2 JUMPDEST POP POP POP POP POP DUP2 JUMP JUMPDEST PUSH2 0xBBE PUSH2 0x1365 JUMP JUMPDEST PUSH2 0xBC8 PUSH1 0x0 PUSH2 0x14BA JUMP JUMPDEST JUMP JUMPDEST PUSH1 0x0 DUP1 PUSH1 0x0 SWAP1 SLOAD SWAP1 PUSH2 0x100 EXP SWAP1 DIV PUSH20 0xFFFFFFFFFFFFFFFFFFFFFFFFFFFFFFFFFFFFFFFF AND SWAP1 POP SWAP1 JUMP JUMPDEST PUSH1 0x3 SLOAD DUP2 JUMP JUMPDEST PUSH2 0xC01 PUSH2 0x1365 JUMP JUMPDEST PUSH2 0xC09 PUSH2 0x13EC JUMP JUMPDEST PUSH1 0x0 DUP2 GT PUSH2 0xC4C JUMPI PUSH1 0x40 MLOAD PUSH32 0x8C379A000000000000000000000000000000000000000000000000000000000 DUP2 MSTORE PUSH1 0x4 ADD PUSH2 0xC43 SWAP1 PUSH2 0x1D5D JUMP JUMPDEST PUSH1 0x40 MLOAD DUP1 SWAP2 SUB SWAP1 REVERT JUMPDEST PUSH2 0xC99 CALLER ADDRESS DUP4 PUSH32 0x0 PUSH20 0xFFFFFFFFFFFFFFFFFFFFFFFFFFFFFFFFFFFFFFFF AND PUSH2 0x157E SWAP1 SWAP4 SWAP3 SWAP2 SWAP1 PUSH4 0xFFFFFFFF AND JUMP JUMPDEST DUP1 PUSH1 0x6 PUSH1 0x0 DUP3 DUP3 SLOAD PUSH2 0xCAB SWAP2 SWAP1 PUSH2 0x1D7D JUMP JUMPDEST SWAP3 POP POP DUP2 SWAP1 SSTORE POP PUSH32 0x0 PUSH20 0xFFFFFFFFFFFFFFFFFFFFFFFFFFFFFFFFFFFFFFFF AND PUSH4 0x95EA7B3 PUSH32 0x0 DUP4 PUSH1 0x40 MLOAD DUP4 PUSH4 0xFFFFFFFF AND PUSH1 0xE0 SHL DUP2 MSTORE PUSH1 0x4 ADD PUSH2 0xD2D SWAP3 SWAP2 SWAP1 PUSH2 0x1DB1 JUMP JUMPDEST PUSH1 0x20 PUSH1 0x40 MLOAD DUP1 DUP4 SUB DUP2 PUSH1 0x0 DUP8 GAS CALL ISZERO DUP1 ISZERO PUSH2 0xD4C JUMPI RETURNDATASIZE PUSH1 0x0 DUP1 RETURNDATACOPY RETURNDATASIZE PUSH1 0x0 REVERT JUMPDEST POP POP POP POP PUSH1 0x40 MLOAD RETURNDATASIZE PUSH1 0x1F NOT PUSH1 0x1F DUP3 ADD AND DUP3 ADD DUP1 PUSH1 0x40 MSTORE POP DUP2 ADD SWAP1 PUSH2 0xD70 SWAP2 SWAP1 PUSH2 0x1E12 JUMP JUMPDEST POP PUSH1 0x0 PUSH32 0x0 PUSH20 0xFFFFFFFFFFFFFFFFFFFFFFFFFFFFFFFFFFFFFFFF AND PUSH4 0xA0712D68 DUP4 PUSH1 0x40 MLOAD DUP3 PUSH4 0xFFFFFFFF AND PUSH1 0xE0 SHL DUP2 MSTORE PUSH1 0x4 ADD PUSH2 0xDCC SWAP2 SWAP1 PUSH2 0x16EC JUMP JUMPDEST PUSH1 0x20 PUSH1 0x40 MLOAD DUP1 DUP4 SUB DUP2 PUSH1 0x0 DUP8 GAS CALL ISZERO DUP1 ISZERO PUSH2 0xDEB JUMPI RETURNDATASIZE PUSH1 0x0 DUP1 RETURNDATACOPY RETURNDATASIZE PUSH1 0x0 REVERT JUMPDEST POP POP POP POP PUSH1 0x40 MLOAD RETURNDATASIZE PUSH1 0x1F NOT PUSH1 0x1F DUP3 ADD AND DUP3 ADD DUP1 PUSH1 0x40 MSTORE POP DUP2 ADD SWAP1 PUSH2 0xE0F SWAP2 SWAP1 PUSH2 0x1997 JUMP JUMPDEST EQ PUSH2 0xE4F JUMPI PUSH1 0x40 MLOAD PUSH32 0x8C379A000000000000000000000000000000000000000000000000000000000 DUP2 MSTORE PUSH1 0x4 ADD PUSH2 0xE46 SWAP1 PUSH2 0x1E8B JUMP JUMPDEST PUSH1 0x40 MLOAD DUP1 SWAP2 SUB SWAP1 REVERT JUMPDEST CALLER PUSH20 0xFFFFFFFFFFFFFFFFFFFFFFFFFFFFFFFFFFFFFFFF AND PUSH32 0x73A19DD210F1A7F902193214C0EE91DD35EE5B4D920CBA8D519ECA65A7B488CA DUP3 TIMESTAMP PUSH1 0x40 MLOAD PUSH2 0xE97 SWAP3 SWAP2 SWAP1 PUSH2 0x16C3 JUMP JUMPDEST PUSH1 0x40 MLOAD DUP1 SWAP2 SUB SWAP1 LOG2 PUSH2 0xEA9 CALLER DUP3 PUSH2 0x3B6 JUMP JUMPDEST PUSH2 0xEB1 PUSH2 0x14B1 JUMP JUMPDEST POP JUMP JUMPDEST PUSH1 0x6 SLOAD DUP2 JUMP JUMPDEST PUSH32 0x0 DUP2 JUMP JUMPDEST PUSH2 0xEE6 PUSH2 0x13EC JUMP JUMPDEST PUSH1 0x0 CALLVALUE GT PUSH2 0xF29 JUMPI PUSH1 0x40 MLOAD PUSH32 0x8C379A000000000000000000000000000000000000000000000000000000000 DUP2 MSTORE PUSH1 0x4 ADD PUSH2 0xF20 SWAP1 PUSH2 0x1EF7 JUMP JUMPDEST PUSH1 0x40 MLOAD DUP1 SWAP2 SUB SWAP1 REVERT JUMPDEST CALLER PUSH20 0xFFFFFFFFFFFFFFFFFFFFFFFFFFFFFFFFFFFFFFFF AND PUSH32 0x73A19DD210F1A7F902193214C0EE91DD35EE5B4D920CBA8D519ECA65A7B488CA CALLVALUE TIMESTAMP PUSH1 0x40 MLOAD PUSH2 0xF71 SWAP3 SWAP2 SWAP1 PUSH2 0x16C3 JUMP JUMPDEST PUSH1 0x40 MLOAD DUP1 SWAP2 SUB SWAP1 LOG2 PUSH2 0xF83 CALLER CALLVALUE PUSH2 0x3B6 JUMP JUMPDEST PUSH2 0xF8B PUSH2 0x14B1 JUMP JUMPDEST JUMP JUMPDEST PUSH32 0x0 PUSH20 0xFFFFFFFFFFFFFFFFFFFFFFFFFFFFFFFFFFFFFFFF AND CALLER PUSH20 0xFFFFFFFFFFFFFFFFFFFFFFFFFFFFFFFFFFFFFFFF AND EQ PUSH2 0x101B JUMPI PUSH1 0x40 MLOAD PUSH32 0x8C379A000000000000000000000000000000000000000000000000000000000 DUP2 MSTORE PUSH1 0x4 ADD PUSH2 0x1012 SWAP1 PUSH2 0x1F63 JUMP JUMPDEST PUSH1 0x40 MLOAD DUP1 SWAP2 SUB SWAP1 REVERT JUMPDEST PUSH1 0x0 PUSH32 0x0 PUSH20 0xFFFFFFFFFFFFFFFFFFFFFFFFFFFFFFFFFFFFFFFF AND PUSH4 0x70A08231 ADDRESS PUSH1 0x40 MLOAD DUP3 PUSH4 0xFFFFFFFF AND PUSH1 0xE0 SHL DUP2 MSTORE PUSH1 0x4 ADD PUSH2 0x1076 SWAP2 SWAP1 PUSH2 0x17C2 JUMP JUMPDEST PUSH1 0x20 PUSH1 0x40 MLOAD DUP1 DUP4 SUB DUP2 DUP7 GAS STATICCALL ISZERO DUP1 ISZERO PUSH2 0x1093 JUMPI RETURNDATASIZE PUSH1 0x0 DUP1 RETURNDATACOPY RETURNDATASIZE PUSH1 0x0 REVERT JUMPDEST POP POP POP POP PUSH1 0x40 MLOAD RETURNDATASIZE PUSH1 0x1F NOT PUSH1 0x1F DUP3 ADD AND DUP3 ADD DUP1 PUSH1 0x40 MSTORE POP DUP2 ADD SWAP1 PUSH2 0x10B7 SWAP2 SWAP1 PUSH2 0x1997 JUMP JUMPDEST SWAP1 POP PUSH1 0x0 DUP2 GT PUSH2 0x10FC JUMPI PUSH1 0x40 MLOAD PUSH32 0x8C379A000000000000000000000000000000000000000000000000000000000 DUP2 MSTORE PUSH1 0x4 ADD PUSH2 0x10F3 SWAP1 PUSH2 0x1FCF JUMP JUMPDEST PUSH1 0x40 MLOAD DUP1 SWAP2 SUB SWAP1 REVERT JUMPDEST DUP1 PUSH1 0x6 PUSH1 0x0 DUP3 DUP3 SLOAD PUSH2 0x110E SWAP2 SWAP1 PUSH2 0x1D7D JUMP JUMPDEST SWAP3 POP POP DUP2 SWAP1 SSTORE POP PUSH32 0x0 PUSH20 0xFFFFFFFFFFFFFFFFFFFFFFFFFFFFFFFFFFFFFFFF AND PUSH4 0x95EA7B3 PUSH32 0x0 DUP4 PUSH1 0x40 MLOAD DUP4 PUSH4 0xFFFFFFFF AND PUSH1 0xE0 SHL DUP2 MSTORE PUSH1 0x4 ADD PUSH2 0x1190 SWAP3 SWAP2 SWAP1 PUSH2 0x1DB1 JUMP JUMPDEST PUSH1 0x20 PUSH1 0x40 MLOAD DUP1 DUP4 SUB DUP2 PUSH1 0x0 DUP8 GAS CALL ISZERO DUP1 ISZERO PUSH2 0x11AF JUMPI RETURNDATASIZE PUSH1 0x0 DUP1 RETURNDATACOPY RETURNDATASIZE PUSH1 0x0 REVERT JUMPDEST POP POP POP POP PUSH1 0x40 MLOAD RETURNDATASIZE PUSH1 0x1F NOT PUSH1 0x1F DUP3 ADD AND DUP3 ADD DUP1 PUSH1 0x40 MSTORE POP DUP2 ADD SWAP1 PUSH2 0x11D3 SWAP2 SWAP1 PUSH2 0x1E12 JUMP JUMPDEST POP PUSH1 0x0 PUSH32 0x0 PUSH20 0xFFFFFFFFFFFFFFFFFFFFFFFFFFFFFFFFFFFFFFFF AND PUSH4 0xA0712D68 DUP4 PUSH1 0x40 MLOAD DUP3 PUSH4 0xFFFFFFFF AND PUSH1 0xE0 SHL DUP2 MSTORE PUSH1 0x4 ADD PUSH2 0x122F SWAP2 SWAP1 PUSH2 0x16EC JUMP JUMPDEST PUSH1 0x20 PUSH1 0x40 MLOAD DUP1 DUP4 SUB DUP2 PUSH1 0x0 DUP8 GAS CALL ISZERO DUP1 ISZERO PUSH2 0x124E JUMPI RETURNDATASIZE PUSH1 0x0 DUP1 RETURNDATACOPY RETURNDATASIZE PUSH1 0x0 REVERT JUMPDEST POP POP POP POP PUSH1 0x40 MLOAD RETURNDATASIZE PUSH1 0x1F NOT PUSH1 0x1F DUP3 ADD AND DUP3 ADD DUP1 PUSH1 0x40 MSTORE POP DUP2 ADD SWAP1 PUSH2 0x1272 SWAP2 SWAP1 PUSH2 0x1997 JUMP JUMPDEST EQ PUSH2 0x12B2 JUMPI PUSH1 0x40 MLOAD PUSH32 0x8C379A000000000000000000000000000000000000000000000000000000000 DUP2 MSTORE PUSH1 0x4 ADD PUSH2 0x12A9 SWAP1 PUSH2 0x1E8B JUMP JUMPDEST PUSH1 0x40 MLOAD DUP1 SWAP2 SUB SWAP1 REVERT JUMPDEST POP JUMP JUMPDEST PUSH1 0x4 SLOAD DUP2 JUMP JUMPDEST PUSH2 0x12C3 PUSH2 0x1365 JUMP JUMPDEST PUSH1 0x0 PUSH20 0xFFFFFFFFFFFFFFFFFFFFFFFFFFFFFFFFFFFFFFFF AND DUP2 PUSH20 0xFFFFFFFFFFFFFFFFFFFFFFFFFFFFFFFFFFFFFFFF AND SUB PUSH2 0x1335 JUMPI PUSH1 0x0 PUSH1 0x40 MLOAD PUSH32 0x1E4FBDF700000000000000000000000000000000000000000000000000000000 DUP2 MSTORE PUSH1 0x4 ADD PUSH2 0x132C SWAP2 SWAP1 PUSH2 0x17C2 JUMP JUMPDEST PUSH1 0x40 MLOAD DUP1 SWAP2 SUB SWAP1 REVERT JUMPDEST PUSH2 0x133E DUP2 PUSH2 0x14BA JUMP JUMPDEST POP JUMP JUMPDEST PUSH32 0x0 DUP2 JUMP JUMPDEST PUSH2 0x136D PUSH2 0x1600 JUMP JUMPDEST PUSH20 0xFFFFFFFFFFFFFFFFFFFFFFFFFFFFFFFFFFFFFFFF AND PUSH2 0x138B PUSH2 0xBCA JUMP JUMPDEST PUSH20 0xFFFFFFFFFFFFFFFFFFFFFFFFFFFFFFFFFFFFFFFF AND EQ PUSH2 0x13EA JUMPI PUSH2 0x13AE PUSH2 0x1600 JUMP JUMPDEST PUSH1 0x40 MLOAD PUSH32 0x118CDAA700000000000000000000000000000000000000000000000000000000 DUP2 MSTORE PUSH1 0x4 ADD PUSH2 0x13E1 SWAP2 SWAP1 PUSH2 0x17C2 JUMP JUMPDEST PUSH1 0x40 MLOAD DUP1 SWAP2 SUB SWAP1 REVERT JUMPDEST JUMP JUMPDEST PUSH1 0x2 PUSH1 0x1 SLOAD SUB PUSH2 0x1428 JUMPI PUSH1 0x40 MLOAD PUSH32 0x3EE5AEB500000000000000000000000000000000000000000000000000000000 DUP2 MSTORE PUSH1 0x4 ADD PUSH1 0x40 MLOAD DUP1 SWAP2 SUB SWAP1 REVERT JUMPDEST PUSH1 0x2 PUSH1 0x1 DUP2 SWAP1 SSTORE POP JUMP JUMPDEST PUSH2 0x14AC DUP4 DUP5 PUSH20 0xFFFFFFFFFFFFFFFFFFFFFFFFFFFFFFFFFFFFFFFF AND PUSH4 0xA9059CBB DUP6 DUP6 PUSH1 0x40 MLOAD PUSH1 0x24 ADD PUSH2 0x1465 SWAP3 SWAP2 SWAP1 PUSH2 0x1DB1 JUMP JUMPDEST PUSH1 0x40 MLOAD PUSH1 0x20 DUP2 DUP4 SUB SUB DUP2 MSTORE SWAP1 PUSH1 0x40 MSTORE SWAP2 POP PUSH1 0xE0 SHL PUSH1 0x20 DUP3 ADD DUP1 MLOAD PUSH28 0xFFFFFFFFFFFFFFFFFFFFFFFFFFFFFFFFFFFFFFFFFFFFFFFFFFFFFFFF DUP4 DUP2 DUP4 AND OR DUP4 MSTORE POP POP POP POP PUSH2 0x1608 JUMP JUMPDEST POP POP POP JUMP JUMPDEST PUSH1 0x1 DUP1 DUP2 SWAP1 SSTORE POP JUMP JUMPDEST PUSH1 0x0 DUP1 PUSH1 0x0 SWAP1 SLOAD SWAP1 PUSH2 0x100 EXP SWAP1 DIV PUSH20 0xFFFFFFFFFFFFFFFFFFFFFFFFFFFFFFFFFFFFFFFF AND SWAP1 POP DUP2 PUSH1 0x0 DUP1 PUSH2 0x100 EXP DUP2 SLOAD DUP2 PUSH20 0xFFFFFFFFFFFFFFFFFFFFFFFFFFFFFFFFFFFFFFFF MUL NOT AND SWAP1 DUP4 PUSH20 0xFFFFFFFFFFFFFFFFFFFFFFFFFFFFFFFFFFFFFFFF AND MUL OR SWAP1 SSTORE POP DUP2 PUSH20 0xFFFFFFFFFFFFFFFFFFFFFFFFFFFFFFFFFFFFFFFF AND DUP2 PUSH20 0xFFFFFFFFFFFFFFFFFFFFFFFFFFFFFFFFFFFFFFFF AND PUSH32 0x8BE0079C531659141344CD1FD0A4F28419497F9722A3DAAFE3B4186F6B6457E0 PUSH1 0x40 MLOAD PUSH1 0x40 MLOAD DUP1 SWAP2 SUB SWAP1 LOG3 POP POP JUMP JUMPDEST PUSH2 0x15FA DUP5 DUP6 PUSH20 0xFFFFFFFFFFFFFFFFFFFFFFFFFFFFFFFFFFFFFFFF AND PUSH4 0x23B872DD DUP7 DUP7 DUP7 PUSH1 0x40 MLOAD PUSH1 0x24 ADD PUSH2 0x15B3 SWAP4 SWAP3 SWAP2 SWAP1 PUSH2 0x1FEF JUMP JUMPDEST PUSH1 0x40 MLOAD PUSH1 0x20 DUP2 DUP4 SUB SUB DUP2 MSTORE SWAP1 PUSH1 0x40 MSTORE SWAP2 POP PUSH1 0xE0 SHL PUSH1 0x20 DUP3 ADD DUP1 MLOAD PUSH28 0xFFFFFFFFFFFFFFFFFFFFFFFFFFFFFFFFFFFFFFFFFFFFFFFFFFFFFFFF DUP4 DUP2 DUP4 AND OR DUP4 MSTORE POP POP POP POP PUSH2 0x1608 JUMP JUMPDEST POP POP POP POP JUMP JUMPDEST PUSH1 0x0 CALLER SWAP1 POP SWAP1 JUMP JUMPDEST PUSH1 0x0 DUP1 PUSH1 0x20 PUSH1 0x0 DUP5 MLOAD PUSH1 0x20 DUP7 ADD PUSH1 0x0 DUP9 GAS CALL DUP1 PUSH2 0x162B JUMPI PUSH1 0x40 MLOAD RETURNDATASIZE PUSH1 0x0 DUP3 RETURNDATACOPY RETURNDATASIZE DUP2 REVERT JUMPDEST RETURNDATASIZE SWAP3 POP PUSH1 0x0 MLOAD SWAP2 POP POP PUSH1 0x0 DUP3 EQ PUSH2 0x1646 JUMPI PUSH1 0x1 DUP2 EQ ISZERO PUSH2 0x1662 JUMP JUMPDEST PUSH1 0x0 DUP5 PUSH20 0xFFFFFFFFFFFFFFFFFFFFFFFFFFFFFFFFFFFFFFFF AND EXTCODESIZE EQ JUMPDEST ISZERO PUSH2 0x16A4 JUMPI DUP4 PUSH1 0x40 MLOAD PUSH32 0x5274AFE700000000000000000000000000000000000000000000000000000000 DUP2 MSTORE PUSH1 0x4 ADD PUSH2 0x169B SWAP2 SWAP1 PUSH2 0x17C2 JUMP JUMPDEST PUSH1 0x40 MLOAD DUP1 SWAP2 SUB SWAP1 REVERT JUMPDEST POP POP POP POP JUMP JUMPDEST PUSH1 0x0 DUP2 SWAP1 POP SWAP2 SWAP1 POP JUMP JUMPDEST PUSH2 0x16BD DUP2 PUSH2 0x16AA JUMP JUMPDEST DUP3 MSTORE POP POP JUMP JUMPDEST PUSH1 0x0 PUSH1 0x40 DUP3 ADD SWAP1 POP PUSH2 0x16D8 PUSH1 0x0 DUP4 ADD DUP6 PUSH2 0x16B4 JUMP JUMPDEST PUSH2 0x16E5 PUSH1 0x20 DUP4 ADD DUP5 PUSH2 0x16B4 JUMP JUMPDEST SWAP4 SWAP3 POP POP POP JUMP JUMPDEST PUSH1 0x0 PUSH1 0x20 DUP3 ADD SWAP1 POP PUSH2 0x1701 PUSH1 0x0 DUP4 ADD DUP5 PUSH2 0x16B4 JUMP JUMPDEST SWAP3 SWAP2 POP POP JUMP JUMPDEST PUSH1 0x0 PUSH20 0xFFFFFFFFFFFFFFFFFFFFFFFFFFFFFFFFFFFFFFFF DUP3 AND SWAP1 POP SWAP2 SWAP1 POP JUMP JUMPDEST PUSH1 0x0 DUP2 SWAP1 POP SWAP2 SWAP1 POP JUMP JUMPDEST PUSH1 0x0 PUSH2 0x174C PUSH2 0x1747 PUSH2 0x1742 DUP5 PUSH2 0x1707 JUMP JUMPDEST PUSH2 0x1727 JUMP JUMPDEST PUSH2 0x1707 JUMP JUMPDEST SWAP1 POP SWAP2 SWAP1 POP JUMP JUMPDEST PUSH1 0x0 PUSH2 0x175E DUP3 PUSH2 0x1731 JUMP JUMPDEST SWAP1 POP SWAP2 SWAP1 POP JUMP JUMPDEST PUSH1 0x0 PUSH2 0x1770 DUP3 PUSH2 0x1753 JUMP JUMPDEST SWAP1 POP SWAP2 SWAP1 POP JUMP JUMPDEST PUSH2 0x1780 DUP2 PUSH2 0x1765 JUMP JUMPDEST DUP3 MSTORE POP POP JUMP JUMPDEST PUSH1 0x0 PUSH1 0x20 DUP3 ADD SWAP1 POP PUSH2 0x179B PUSH1 0x0 DUP4 ADD DUP5 PUSH2 0x1777 JUMP JUMPDEST SWAP3 SWAP2 POP POP JUMP JUMPDEST PUSH1 0x0 PUSH2 0x17AC DUP3 PUSH2 0x1707 JUMP JUMPDEST SWAP1 POP SWAP2 SWAP1 POP JUMP JUMPDEST PUSH2 0x17BC DUP2 PUSH2 0x17A1 JUMP JUMPDEST DUP3 MSTORE POP POP JUMP JUMPDEST PUSH1 0x0 PUSH1 0x20 DUP3 ADD SWAP1 POP PUSH2 0x17D7 PUSH1 0x0 DUP4 ADD DUP5 PUSH2 0x17B3 JUMP JUMPDEST SWAP3 SWAP2 POP POP JUMP JUMPDEST PUSH1 0x0 DUP2 MLOAD SWAP1 POP SWAP2 SWAP1 POP JUMP JUMPDEST PUSH1 0x0 DUP3 DUP3 MSTORE PUSH1 0x20 DUP3 ADD SWAP1 POP SWAP3 SWAP2 POP POP JUMP JUMPDEST PUSH1 0x0 JUMPDEST DUP4 DUP2 LT ISZERO PUSH2 0x1817 JUMPI DUP1 DUP3 ADD MLOAD DUP2 DUP5 ADD MSTORE PUSH1 0x20 DUP2 ADD SWAP1 POP PUSH2 0x17FC JUMP JUMPDEST PUSH1 0x0 DUP5 DUP5 ADD MSTORE POP POP POP POP JUMP JUMPDEST PUSH1 0x0 PUSH1 0x1F NOT PUSH1 0x1F DUP4 ADD AND SWAP1 POP SWAP2 SWAP1 POP JUMP JUMPDEST PUSH1 0x0 PUSH2 0x183F DUP3 PUSH2 0x17DD JUMP JUMPDEST PUSH2 0x1849 DUP2 DUP6 PUSH2 0x17E8 JUMP JUMPDEST SWAP4 POP PUSH2 0x1859 DUP2 DUP6 PUSH1 0x20 DUP7 ADD PUSH2 0x17F9 JUMP JUMPDEST PUSH2 0x1862 DUP2 PUSH2 0x1823 JUMP JUMPDEST DUP5 ADD SWAP2 POP POP SWAP3 SWAP2 POP POP JUMP JUMPDEST PUSH1 0x0 PUSH1 0x20 DUP3 ADD SWAP1 POP DUP2 DUP2 SUB PUSH1 0x0 DUP4 ADD MSTORE PUSH2 0x1887 DUP2 DUP5 PUSH2 0x1834 JUMP JUMPDEST SWAP1 POP SWAP3 SWAP2 POP POP JUMP JUMPDEST PUSH1 0x0 DUP1 REVERT JUMPDEST PUSH2 0x189D DUP2 PUSH2 0x16AA JUMP JUMPDEST DUP2 EQ PUSH2 0x18A8 JUMPI PUSH1 0x0 DUP1 REVERT JUMPDEST POP JUMP JUMPDEST PUSH1 0x0 DUP2 CALLDATALOAD SWAP1 POP PUSH2 0x18BA DUP2 PUSH2 0x1894 JUMP JUMPDEST SWAP3 SWAP2 POP POP JUMP JUMPDEST PUSH1 0x0 PUSH1 0x20 DUP3 DUP5 SUB SLT ISZERO PUSH2 0x18D6 JUMPI PUSH2 0x18D5 PUSH2 0x188F JUMP JUMPDEST JUMPDEST PUSH1 0x0 PUSH2 0x18E4 DUP5 DUP3 DUP6 ADD PUSH2 0x18AB JUMP JUMPDEST SWAP2 POP POP SWAP3 SWAP2 POP POP JUMP JUMPDEST PUSH2 0x18F6 DUP2 PUSH2 0x17A1 JUMP JUMPDEST DUP2 EQ PUSH2 0x1901 JUMPI PUSH1 0x0 DUP1 REVERT JUMPDEST POP JUMP JUMPDEST PUSH1 0x0 DUP2 CALLDATALOAD SWAP1 POP PUSH2 0x1913 DUP2 PUSH2 0x18ED JUMP JUMPDEST SWAP3 SWAP2 POP POP JUMP JUMPDEST PUSH1 0x0 PUSH1 0x20 DUP3 DUP5 SUB SLT ISZERO PUSH2 0x192F JUMPI PUSH2 0x192E PUSH2 0x188F JUMP JUMPDEST JUMPDEST PUSH1 0x0 PUSH2 0x193D DUP5 DUP3 DUP6 ADD PUSH2 0x1904 JUMP JUMPDEST SWAP2 POP POP SWAP3 SWAP2 POP POP JUMP JUMPDEST PUSH1 0x0 PUSH2 0x1951 DUP3 PUSH2 0x1753 JUMP JUMPDEST SWAP1 POP SWAP2 SWAP1 POP JUMP JUMPDEST PUSH2 0x1961 DUP2 PUSH2 0x1946 JUMP JUMPDEST DUP3 MSTORE POP POP JUMP JUMPDEST PUSH1 0x0 PUSH1 0x20 DUP3 ADD SWAP1 POP PUSH2 0x197C PUSH1 0x0 DUP4 ADD DUP5 PUSH2 0x1958 JUMP JUMPDEST SWAP3 SWAP2 POP POP JUMP JUMPDEST PUSH1 0x0 DUP2 MLOAD SWAP1 POP PUSH2 0x1991 DUP2 PUSH2 0x1894 JUMP JUMPDEST SWAP3 SWAP2 POP POP JUMP JUMPDEST PUSH1 0x0 PUSH1 0x20 DUP3 DUP5 SUB SLT ISZERO PUSH2 0x19AD JUMPI PUSH2 0x19AC PUSH2 0x188F JUMP JUMPDEST JUMPDEST PUSH1 0x0 PUSH2 0x19BB DUP5 DUP3 DUP6 ADD PUSH2 0x1982 JUMP JUMPDEST SWAP2 POP POP SWAP3 SWAP2 POP POP JUMP JUMPDEST PUSH32 0x4E487B7100000000000000000000000000000000000000000000000000000000 PUSH1 0x0 MSTORE PUSH1 0x11 PUSH1 0x4 MSTORE PUSH1 0x24 PUSH1 0x0 REVERT JUMPDEST PUSH1 0x0 PUSH2 0x19FE DUP3 PUSH2 0x16AA JUMP JUMPDEST SWAP2 POP PUSH2 0x1A09 DUP4 PUSH2 0x16AA JUMP JUMPDEST SWAP3 POP DUP3 DUP3 MUL PUSH2 0x1A17 DUP2 PUSH2 0x16AA JUMP JUMPDEST SWAP2 POP DUP3 DUP3 DIV DUP5 EQ DUP4 ISZERO OR PUSH2 0x1A2E JUMPI PUSH2 0x1A2D PUSH2 0x19C4 JUMP JUMPDEST JUMPDEST POP SWAP3 SWAP2 POP POP JUMP JUMPDEST PUSH32 0x4E487B7100000000000000000000000000000000000000000000000000000000 PUSH1 0x0 MSTORE PUSH1 0x12 PUSH1 0x4 MSTORE PUSH1 0x24 PUSH1 0x0 REVERT JUMPDEST PUSH1 0x0 PUSH2 0x1A6F DUP3 PUSH2 0x16AA JUMP JUMPDEST SWAP2 POP PUSH2 0x1A7A DUP4 PUSH2 0x16AA JUMP JUMPDEST SWAP3 POP DUP3 PUSH2 0x1A8A JUMPI PUSH2 0x1A89 PUSH2 0x1A35 JUMP JUMPDEST JUMPDEST DUP3 DUP3 DIV SWAP1 POP SWAP3 SWAP2 POP POP JUMP JUMPDEST PUSH32 0x4E6F2066756E647320696E207661756C74000000000000000000000000000000 PUSH1 0x0 DUP3 ADD MSTORE POP JUMP JUMPDEST PUSH1 0x0 PUSH2 0x1ACB PUSH1 0x11 DUP4 PUSH2 0x17E8 JUMP JUMPDEST SWAP2 POP PUSH2 0x1AD6 DUP3 PUSH2 0x1A95 JUMP JUMPDEST PUSH1 0x20 DUP3 ADD SWAP1 POP SWAP2 SWAP1 POP JUMP JUMPDEST PUSH1 0x0 PUSH1 0x20 DUP3 ADD SWAP1 POP DUP2 DUP2 SUB PUSH1 0x0 DUP4 ADD MSTORE PUSH2 0x1AFA DUP2 PUSH2 0x1ABE JUMP JUMPDEST SWAP1 POP SWAP2 SWAP1 POP JUMP JUMPDEST PUSH32 0x4B696E657469632072656465656D206661696C65640000000000000000000000 PUSH1 0x0 DUP3 ADD MSTORE POP JUMP JUMPDEST PUSH1 0x0 PUSH2 0x1B37 PUSH1 0x15 DUP4 PUSH2 0x17E8 JUMP JUMPDEST SWAP2 POP PUSH2 0x1B42 DUP3 PUSH2 0x1B01 JUMP JUMPDEST PUSH1 0x20 DUP3 ADD SWAP1 POP SWAP2 SWAP1 POP JUMP JUMPDEST PUSH1 0x0 PUSH1 0x20 DUP3 ADD SWAP1 POP DUP2 DUP2 SUB PUSH1 0x0 DUP4 ADD MSTORE PUSH2 0x1B66 DUP2 PUSH2 0x1B2A JUMP JUMPDEST SWAP1 POP SWAP2 SWAP1 POP JUMP JUMPDEST PUSH32 0x474F414C5F524541434845440000000000000000000000000000000000000000 PUSH1 0x0 DUP3 ADD MSTORE POP JUMP JUMPDEST PUSH1 0x0 PUSH2 0x1BA3 PUSH1 0xC DUP4 PUSH2 0x17E8 JUMP JUMPDEST SWAP2 POP PUSH2 0x1BAE DUP3 PUSH2 0x1B6D JUMP JUMPDEST PUSH1 0x20 DUP3 ADD SWAP1 POP SWAP2 SWAP1 POP JUMP JUMPDEST PUSH1 0x0 PUSH1 0x60 DUP3 ADD SWAP1 POP PUSH2 0x1BCE PUSH1 0x0 DUP4 ADD DUP6 PUSH2 0x16B4 JUMP JUMPDEST PUSH2 0x1BDB PUSH1 0x20 DUP4 ADD DUP5 PUSH2 0x16B4 JUMP JUMPDEST DUP2 DUP2 SUB PUSH1 0x40 DUP4 ADD MSTORE PUSH2 0x1BEC DUP2 PUSH2 0x1B96 JUMP JUMPDEST SWAP1 POP SWAP4 SWAP3 POP POP POP JUMP JUMPDEST PUSH1 0x0 PUSH2 0x1C00 DUP3 PUSH2 0x16AA JUMP JUMPDEST SWAP2 POP PUSH2 0x1C0B DUP4 PUSH2 0x16AA JUMP JUMPDEST SWAP3 POP DUP3 DUP3 SUB SWAP1 POP DUP2 DUP2 GT ISZERO PUSH2 0x1C23 JUMPI PUSH2 0x1C22 PUSH2 0x19C4 JUMP JUMPDEST JUMPDEST SWAP3 SWAP2 POP POP JUMP JUMPDEST PUSH32 0x4541524C595F4558495400000000000000000000000000000000000000000000 PUSH1 0x0 DUP3 ADD MSTORE POP JUMP JUMPDEST PUSH1 0x0 PUSH2 0x1C5F PUSH1 0xA DUP4 PUSH2 0x17E8 JUMP JUMPDEST SWAP2 POP PUSH2 0x1C6A DUP3 PUSH2 0x1C29 JUMP JUMPDEST PUSH1 0x20 DUP3 ADD SWAP1 POP SWAP2 SWAP1 POP JUMP JUMPDEST PUSH1 0x0 PUSH1 0x60 DUP3 ADD SWAP1 POP PUSH2 0x1C8A PUSH1 0x0 DUP4 ADD DUP6 PUSH2 0x16B4 JUMP JUMPDEST PUSH2 0x1C97 PUSH1 0x20 DUP4 ADD DUP5 PUSH2 0x16B4 JUMP JUMPDEST DUP2 DUP2 SUB PUSH1 0x40 DUP4 ADD MSTORE PUSH2 0x1CA8 DUP2 PUSH2 0x1C52 JUMP JUMPDEST SWAP1 POP SWAP4 SWAP3 POP POP POP JUMP JUMPDEST PUSH32 0x4E487B7100000000000000000000000000000000000000000000000000000000 PUSH1 0x0 MSTORE PUSH1 0x22 PUSH1 0x4 MSTORE PUSH1 0x24 PUSH1 0x0 REVERT JUMPDEST PUSH1 0x0 PUSH1 0x2 DUP3 DIV SWAP1 POP PUSH1 0x1 DUP3 AND DUP1 PUSH2 0x1CF8 JUMPI PUSH1 0x7F DUP3 AND SWAP2 POP JUMPDEST PUSH1 0x20 DUP3 LT DUP2 SUB PUSH2 0x1D0B JUMPI PUSH2 0x1D0A PUSH2 0x1CB1 JUMP JUMPDEST JUMPDEST POP SWAP2 SWAP1 POP JUMP JUMPDEST PUSH32 0x416D6F756E74206D7573742062652067726561746572207468616E2030000000 PUSH1 0x0 DUP3 ADD MSTORE POP JUMP JUMPDEST PUSH1 0x0 PUSH2 0x1D47 PUSH1 0x1D DUP4 PUSH2 0x17E8 JUMP JUMPDEST SWAP2 POP PUSH2 0x1D52 DUP3 PUSH2 0x1D11 JUMP JUMPDEST PUSH1 0x20 DUP3 ADD SWAP1 POP SWAP2 SWAP1 POP JUMP JUMPDEST PUSH1 0x0 PUSH1 0x20 DUP3 ADD SWAP1 POP DUP2 DUP2 SUB PUSH1 0x0 DUP4 ADD MSTORE PUSH2 0x1D76 DUP2 PUSH2 0x1D3A JUMP JUMPDEST SWAP1 POP SWAP2 SWAP1 POP JUMP JUMPDEST PUSH1 0x0 PUSH2 0x1D88 DUP3 PUSH2 0x16AA JUMP JUMPDEST SWAP2 POP PUSH2 0x1D93 DUP4 PUSH2 0x16AA JUMP JUMPDEST SWAP3 POP DUP3 DUP3 ADD SWAP1 POP DUP1 DUP3 GT ISZERO PUSH2 0x1DAB JUMPI PUSH2 0x1DAA PUSH2 0x19C4 JUMP JUMPDEST JUMPDEST SWAP3 SWAP2 POP POP JUMP JUMPDEST PUSH1 0x0 PUSH1 0x40 DUP3 ADD SWAP1 POP PUSH2 0x1DC6 PUSH1 0x0 DUP4 ADD DUP6 PUSH2 0x17B3 JUMP JUMPDEST PUSH2 0x1DD3 PUSH1 0x20 DUP4 ADD DUP5 PUSH2 0x16B4 JUMP JUMPDEST SWAP4 SWAP3 POP POP POP JUMP JUMPDEST PUSH1 0x0 DUP2 ISZERO ISZERO SWAP1 POP SWAP2 SWAP1 POP JUMP JUMPDEST PUSH2 0x1DEF DUP2 PUSH2 0x1DDA JUMP JUMPDEST DUP2 EQ PUSH2 0x1DFA JUMPI PUSH1 0x0 DUP1 REVERT JUMPDEST POP JUMP JUMPDEST PUSH1 0x0 DUP2 MLOAD SWAP1 POP PUSH2 0x1E0C DUP2 PUSH2 0x1DE6 JUMP JUMPDEST SWAP3 SWAP2 POP POP JUMP JUMPDEST PUSH1 0x0 PUSH1 0x20 DUP3 DUP5 SUB SLT ISZERO PUSH2 0x1E28 JUMPI PUSH2 0x1E27 PUSH2 0x188F JUMP JUMPDEST JUMPDEST PUSH1 0x0 PUSH2 0x1E36 DUP5 DUP3 DUP6 ADD PUSH2 0x1DFD JUMP JUMPDEST SWAP2 POP POP SWAP3 SWAP2 POP POP JUMP JUMPDEST PUSH32 0x4B696E6574696320737570706C79206661696C65640000000000000000000000 PUSH1 0x0 DUP3 ADD MSTORE POP JUMP JUMPDEST PUSH1 0x0 PUSH2 0x1E75 PUSH1 0x15 DUP4 PUSH2 0x17E8 JUMP JUMPDEST SWAP2 POP PUSH2 0x1E80 DUP3 PUSH2 0x1E3F JUMP JUMPDEST PUSH1 0x20 DUP3 ADD SWAP1 POP SWAP2 SWAP1 POP JUMP JUMPDEST PUSH1 0x0 PUSH1 0x20 DUP3 ADD SWAP1 POP DUP2 DUP2 SUB PUSH1 0x0 DUP4 ADD MSTORE PUSH2 0x1EA4 DUP2 PUSH2 0x1E68 JUMP JUMPDEST SWAP1 POP SWAP2 SWAP1 POP JUMP JUMPDEST PUSH32 0x416D6F756E74206D757374206265203E20300000000000000000000000000000 PUSH1 0x0 DUP3 ADD MSTORE POP JUMP JUMPDEST PUSH1 0x0 PUSH2 0x1EE1 PUSH1 0x12 DUP4 PUSH2 0x17E8 JUMP JUMPDEST SWAP2 POP PUSH2 0x1EEC DUP3 PUSH2 0x1EAB JUMP JUMPDEST PUSH1 0x20 DUP3 ADD SWAP1 POP SWAP2 SWAP1 POP JUMP JUMPDEST PUSH1 0x0 PUSH1 0x20 DUP3 ADD SWAP1 POP DUP2 DUP2 SUB PUSH1 0x0 DUP4 ADD MSTORE PUSH2 0x1F10 DUP2 PUSH2 0x1ED4 JUMP JUMPDEST SWAP1 POP SWAP2 SWAP1 POP JUMP JUMPDEST PUSH32 0x4F6E6C7920666163746F72790000000000000000000000000000000000000000 PUSH1 0x0 DUP3 ADD MSTORE POP JUMP JUMPDEST PUSH1 0x0 PUSH2 0x1F4D PUSH1 0xC DUP4 PUSH2 0x17E8 JUMP JUMPDEST SWAP2 POP PUSH2 0x1F58 DUP3 PUSH2 0x1F17 JUMP JUMPDEST PUSH1 0x20 DUP3 ADD SWAP1 POP SWAP2 SWAP1 POP JUMP JUMPDEST PUSH1 0x0 PUSH1 0x20 DUP3 ADD SWAP1 POP DUP2 DUP2 SUB PUSH1 0x0 DUP4 ADD MSTORE PUSH2 0x1F7C DUP2 PUSH2 0x1F40 JUMP JUMPDEST SWAP1 POP SWAP2 SWAP1 POP JUMP JUMPDEST PUSH32 0x416D6F756E74203E203000000000000000000000000000000000000000000000 PUSH1 0x0 DUP3 ADD MSTORE POP JUMP JUMPDEST PUSH1 0x0 PUSH2 0x1FB9 PUSH1 0xA DUP4 PUSH2 0x17E8 JUMP JUMPDEST SWAP2 POP PUSH2 0x1FC4 DUP3 PUSH2 0x1F83 JUMP JUMPDEST PUSH1 0x20 DUP3 ADD SWAP1 POP SWAP2 SWAP1 POP JUMP JUMPDEST PUSH1 0x0 PUSH1 0x20 DUP3 ADD SWAP1 POP DUP2 DUP2 SUB PUSH1 0x0 DUP4 ADD MSTORE PUSH2 0x1FE8 DUP2 PUSH2 0x1FAC JUMP JUMPDEST SWAP1 POP SWAP2 SWAP1 POP JUMP JUMPDEST PUSH1 0x0 PUSH1 0x60 DUP3 ADD SWAP1 POP PUSH2 0x2004 PUSH1 0x0 DUP4 ADD DUP7 PUSH2 0x17B3 JUMP JUMPDEST PUSH2 0x2011 PUSH1 0x20 DUP4 ADD DUP6 PUSH2 0x17B3 JUMP JUMPDEST PUSH2 0x201E PUSH1 0x40 DUP4 ADD DUP5 PUSH2 0x16B4 JUMP JUMPDEST SWAP5 SWAP4 POP POP POP POP JUMP INVALID LOG2 PUSH5 0x6970667358 0x22 SLT KECCAK256 JUMPI DUP6 0xB8 DIV 0xAD PUSH15 0x4EF857FE13C7152F78B89C2959B8C4 SWAP9 KECCAK256 PUSH24 0x18995B1307FC78EC64736F6C63430008140033A264697066 PUSH20 0x58221220AE217BDBAD63CF98607F84103F09D0B6 PUSH29 0x615678918B7C040D3460E4844F3D5D64736F6C63430008140033000000 "},"methodIdentifiers":{"allVaults(uint256)":"9094a91e","createPersonalVault(string,uint256,uint256,uint256)":"fef28369","getAllVaults()":"97331bf9","getUserVaults(address)":"e7f3c69c","isVault(address)":"652b9b41","kUsdtToken()":"d2497f5d","protocolTreasury()":"803db96d","usdtToken()":"a98ad46c","userVaults(address,uint256)":"9c841fef"}}}}}