{
  "_format": "hh-sol-artifact-1",
  "contractName": "PersonalVault",
  "sourceName": "contracts/PersonalVault.sol",
  "abi": [
    {
      "inputs": [
        {
          "internalType": "address",
          "name": "_token",
          "type": "address"
        },
        {
          "internalType": "string",
          "name": "_purpose",
          "type": "string"
        },
        {
          "internalType": "address",
          "name": "_owner",
          "type": "address"
        },
        {
          "internalType": "uint256",
          "name": "_unlockTimestamp",
          "type": "uint256"
        },
        {
          "internalType": "uint256",
          "name": "_penaltyBps",
          "type": "uint256"
        },
        {
          "internalType": "address",
          "name": "_treasury",
          "type": "address"
        },
        {
          "internalType": "address",
          "name": "_beneficiary",
          "type": "address"
        }
      ],
      "stateMutability": "nonpayable",
      "type": "constructor"
    },
    {
      "inputs": [
        {
          "internalType": "address",
          "name": "owner",
          "type": "address"
        }
      ],
      "name": "OwnableInvalidOwner",
      "type": "error"
    },
    {
      "inputs": [
        {
          "internalType": "address",
          "name": "account",
          "type": "address"
        }
      ],
      "name": "OwnableUnauthorizedAccount",
      "type": "error"
    },
    {
      "inputs": [],
      "name": "ReentrancyGuardReentrantCall",
      "type": "error"
    },
    {
      "inputs": [
        {
          "internalType": "address",
          "name": "token",
          "type": "address"
        }
      ],
      "name": "SafeERC20FailedOperation",
      "type": "error"
    },
    {
      "anonymous": false,
      "inputs": [
        {
          "indexed": true,
          "internalType": "address",
          "name": "beneficiary",
          "type": "address"
        },
        {
          "indexed": false,
          "internalType": "uint256",
          "name": "amount",
          "type": "uint256"
        }
      ],
      "name": "BeneficiaryClaimed",
      "type": "event"
    },
    {
      "anonymous": false,
      "inputs": [
        {
          "indexed": true,
          "internalType": "address",
          "name": "user",
          "type": "address"
        },
        {
          "indexed": false,
          "internalType": "uint256",
          "name": "amount",
          "type": "uint256"
        },
        {
          "indexed": false,
          "internalType": "uint256",
          "name": "timestamp",
          "type": "uint256"
        }
      ],
      "name": "Deposited",
      "type": "event"
    },
    {
      "anonymous": false,
      "inputs": [
        {
          "indexed": true,
          "internalType": "address",
          "name": "user",
          "type": "address"
        },
        {
          "indexed": false,
          "internalType": "uint256",
          "name": "amountWithdraw",
          "type": "uint256"
        },
        {
          "indexed": false,
          "internalType": "uint256",
          "name": "penaltyPaid",
          "type": "uint256"
        }
      ],
      "name": "EarlyWithdrawal",
      "type": "event"
    },
    {
      "anonymous": false,
      "inputs": [
        {
          "indexed": true,
          "internalType": "address",
          "name": "user",
          "type": "address"
        },
        {
          "indexed": false,
          "internalType": "uint256",
          "name": "amount",
          "type": "uint256"
        }
      ],
      "name": "FullWithdrawal",
      "type": "event"
    },
    {
      "anonymous": false,
      "inputs": [
        {
          "indexed": true,
          "internalType": "address",
          "name": "previousOwner",
          "type": "address"
        },
        {
          "indexed": true,
          "internalType": "address",
          "name": "newOwner",
          "type": "address"
        }
      ],
      "name": "OwnershipTransferred",
      "type": "event"
    },
    {
      "anonymous": false,
      "inputs": [
        {
          "indexed": false,
          "internalType": "string",
          "name": "purpose",
          "type": "string"
        }
      ],
      "name": "VaultInitialized",
      "type": "event"
    },
    {
      "anonymous": false,
      "inputs": [
        {
          "indexed": true,
          "internalType": "address",
          "name": "user",
          "type": "address"
        },
        {
          "indexed": false,
          "internalType": "uint256",
          "name": "amount",
          "type": "uint256"
        },
        {
          "indexed": false,
          "internalType": "uint256",
          "name": "timestamp",
          "type": "uint256"
        },
        {
          "indexed": false,
          "internalType": "string",
          "name": "typeOfWithdrawal",
          "type": "string"
        }
      ],
      "name": "Withdrawn",
      "type": "event"
    },
    {
      "inputs": [],
      "name": "GRACE_PERIOD",
      "outputs": [
        {
          "internalType": "uint256",
          "name": "",
          "type": "uint256"
        }
      ],
      "stateMutability": "view",
      "type": "function"
    },
    {
      "inputs": [],
      "name": "beneficiary",
      "outputs": [
        {
          "internalType": "address",
          "name": "",
          "type": "address"
        }
      ],
      "stateMutability": "view",
      "type": "function"
    },
    {
      "inputs": [],
      "name": "claimByBeneficiary",
      "outputs": [],
      "stateMutability": "nonpayable",
      "type": "function"
    },
    {
      "inputs": [
        {
          "internalType": "uint256",
          "name": "amount",
          "type": "uint256"
        }
      ],
      "name": "deposit",
      "outputs": [],
      "stateMutability": "nonpayable",
      "type": "function"
    },
    {
      "inputs": [],
      "name": "deposit",
      "outputs": [],
      "stateMutability": "payable",
      "type": "function"
    },
    {
      "inputs": [
        {
          "internalType": "uint256",
          "name": "amount",
          "type": "uint256"
        }
      ],
      "name": "depositFromFactory",
      "outputs": [],
      "stateMutability": "nonpayable",
      "type": "function"
    },
    {
      "inputs": [],
      "name": "factory",
      "outputs": [
        {
          "internalType": "address",
          "name": "",
          "type": "address"
        }
      ],
      "stateMutability": "view",
      "type": "function"
    },
    {
      "inputs": [],
      "name": "owner",
      "outputs": [
        {
          "internalType": "address",
          "name": "",
          "type": "address"
        }
      ],
      "stateMutability": "view",
      "type": "function"
    },
    {
      "inputs": [],
      "name": "penaltyBps",
      "outputs": [
        {
          "internalType": "uint256",
          "name": "",
          "type": "uint256"
        }
      ],
      "stateMutability": "view",
      "type": "function"
    },
    {
      "inputs": [],
      "name": "purpose",
      "outputs": [
        {
          "internalType": "string",
          "name": "",
          "type": "string"
        }
      ],
      "stateMutability": "view",
      "type": "function"
    },
    {
      "inputs": [],
      "name": "renounceOwnership",
      "outputs": [],
      "stateMutability": "nonpayable",
      "type": "function"
    },
    {
      "inputs": [],
      "name": "token",
      "outputs": [
        {
          "internalType": "contract IERC20",
          "name": "",
          "type": "address"
        }
      ],
      "stateMutability": "view",
      "type": "function"
    },
    {
      "inputs": [],
      "name": "totalAssets",
      "outputs": [
        {
          "internalType": "uint256",
          "name": "",
          "type": "uint256"
        }
      ],
      "stateMutability": "view",
      "type": "function"
    },
    {
      "inputs": [
        {
          "internalType": "address",
          "name": "newOwner",
          "type": "address"
        }
      ],
      "name": "transferOwnership",
      "outputs": [],
      "stateMutability": "nonpayable",
      "type": "function"
    },
    {
      "inputs": [],
      "name": "treasury",
      "outputs": [
        {
          "internalType": "address",
          "name": "",
          "type": "address"
        }
      ],
      "stateMutability": "view",
      "type": "function"
    },
    {
      "inputs": [],
      "name": "unlockTimestamp",
      "outputs": [
        {
          "internalType": "uint256",
          "name": "",
          "type": "uint256"
        }
      ],
      "stateMutability": "view",
      "type": "function"
    },
    {
      "inputs": [],
      "name": "withdraw",
      "outputs": [],
      "stateMutability": "nonpayable",
      "type": "function"
    },
    {
      "stateMutability": "payable",
      "type": "receive"
    }
  ],
  "bytecode": "0x60a06040523480156200001157600080fd5b50604051620029f1380380620029f183398181016040528101906200003791906200061d565b858580600073ffffffffffffffffffffffffffffffffffffffff168173ffffffffffffffffffffffffffffffffffffffff1603620000af5760006040517f1e4fbdf7000000000000000000000000000000000000000000000000000000008152600401620000a6919062000700565b60405180910390fd5b620000c0816200032660201b60201c565b50600180819055508160029081620000d991906200095e565b507f897cb1f7a5aced02f0fe4e37d9268d7509e5620fe53f2bfe685120bcb0c13a30826040516200010b919062000a97565b60405180910390a15050600073ffffffffffffffffffffffffffffffffffffffff168773ffffffffffffffffffffffffffffffffffffffff160362000187576040517f08c379a00000000000000000000000000000000000000000000000000000000081526004016200017e9062000b0b565b60405180910390fd5b428411620001cc576040517f08c379a0000000000000000000000000000000000000000000000000000000008152600401620001c39062000b7d565b60405180910390fd5b61271083111562000214576040517f08c379a00000000000000000000000000000000000000000000000000000000081526004016200020b9062000bef565b60405180910390fd5b8673ffffffffffffffffffffffffffffffffffffffff1660808173ffffffffffffffffffffffffffffffffffffffff1681525050836003819055508260048190555081600560006101000a81548173ffffffffffffffffffffffffffffffffffffffff021916908373ffffffffffffffffffffffffffffffffffffffff16021790555080600660006101000a81548173ffffffffffffffffffffffffffffffffffffffff021916908373ffffffffffffffffffffffffffffffffffffffff16021790555033600760006101000a81548173ffffffffffffffffffffffffffffffffffffffff021916908373ffffffffffffffffffffffffffffffffffffffff1602179055505050505050505062000c11565b60008060009054906101000a900473ffffffffffffffffffffffffffffffffffffffff169050816000806101000a81548173ffffffffffffffffffffffffffffffffffffffff021916908373ffffffffffffffffffffffffffffffffffffffff1602179055508173ffffffffffffffffffffffffffffffffffffffff168173ffffffffffffffffffffffffffffffffffffffff167f8be0079c531659141344cd1fd0a4f28419497f9722a3daafe3b4186f6b6457e060405160405180910390a35050565b6000604051905090565b600080fd5b600080fd5b600073ffffffffffffffffffffffffffffffffffffffff82169050919050565b60006200042b82620003fe565b9050919050565b6200043d816200041e565b81146200044957600080fd5b50565b6000815190506200045d8162000432565b92915050565b600080fd5b600080fd5b6000601f19601f8301169050919050565b7f4e487b7100000000000000000000000000000000000000000000000000000000600052604160045260246000fd5b620004b8826200046d565b810181811067ffffffffffffffff82111715620004da57620004d96200047e565b5b80604052505050565b6000620004ef620003ea565b9050620004fd8282620004ad565b919050565b600067ffffffffffffffff82111562000520576200051f6200047e565b5b6200052b826200046d565b9050602081019050919050565b60005b83811015620005585780820151818401526020810190506200053b565b60008484015250505050565b60006200057b620005758462000502565b620004e3565b9050828152602081018484840111156200059a576200059962000468565b5b620005a784828562000538565b509392505050565b600082601f830112620005c757620005c662000463565b5b8151620005d984826020860162000564565b91505092915050565b6000819050919050565b620005f781620005e2565b81146200060357600080fd5b50565b6000815190506200061781620005ec565b92915050565b600080600080600080600060e0888a0312156200063f576200063e620003f4565b5b60006200064f8a828b016200044c565b975050602088015167ffffffffffffffff811115620006735762000672620003f9565b5b620006818a828b01620005af565b9650506040620006948a828b016200044c565b9550506060620006a78a828b0162000606565b9450506080620006ba8a828b0162000606565b93505060a0620006cd8a828b016200044c565b92505060c0620006e08a828b016200044c565b91505092959891949750929550565b620006fa816200041e565b82525050565b6000602082019050620007176000830184620006ef565b92915050565b600081519050919050565b7f4e487b7100000000000000000000000000000000000000000000000000000000600052602260045260246000fd5b600060028204905060018216806200077057607f821691505b60208210810362000786576200078562000728565b5b50919050565b60008190508160005260206000209050919050565b60006020601f8301049050919050565b600082821b905092915050565b600060088302620007f07fffffffffffffffffffffffffffffffffffffffffffffffffffffffffffffffff82620007b1565b620007fc8683620007b1565b95508019841693508086168417925050509392505050565b6000819050919050565b60006200083f620008396200083384620005e2565b62000814565b620005e2565b9050919050565b6000819050919050565b6200085b836200081e565b620008736200086a8262000846565b848454620007be565b825550505050565b600090565b6200088a6200087b565b6200089781848462000850565b505050565b5b81811015620008bf57620008b360008262000880565b6001810190506200089d565b5050565b601f8211156200090e57620008d8816200078c565b620008e384620007a1565b81016020851015620008f3578190505b6200090b6200090285620007a1565b8301826200089c565b50505b505050565b600082821c905092915050565b6000620009336000198460080262000913565b1980831691505092915050565b60006200094e838362000920565b9150826002028217905092915050565b62000969826200071d565b67ffffffffffffffff8111156200098557620009846200047e565b5b62000991825462000757565b6200099e828285620008c3565b600060209050601f831160018114620009d65760008415620009c1578287015190505b620009cd858262000940565b86555062000a3d565b601f198416620009e6866200078c565b60005b8281101562000a1057848901518255600182019150602085019450602081019050620009e9565b8683101562000a30578489015162000a2c601f89168262000920565b8355505b6001600288020188555050505b505050505050565b600082825260208201905092915050565b600062000a63826200071d565b62000a6f818562000a45565b935062000a8181856020860162000538565b62000a8c816200046d565b840191505092915050565b6000602082019050818103600083015262000ab3818462000a56565b905092915050565b7f496e76616c696420746f6b656e20616464726573730000000000000000000000600082015250565b600062000af360158362000a45565b915062000b008262000abb565b602082019050919050565b6000602082019050818103600083015262000b268162000ae4565b9050919050565b7f556e6c6f636b2074696d65206d75737420626520696e20667574757265000000600082015250565b600062000b65601d8362000a45565b915062000b728262000b2d565b602082019050919050565b6000602082019050818103600083015262000b988162000b56565b9050919050565b7f496e76616c696420626173697320706f696e7473000000000000000000000000600082015250565b600062000bd760148362000a45565b915062000be48262000b9f565b602082019050919050565b6000602082019050818103600083015262000c0a8162000bc8565b9050919050565b608051611d8c62000c65600039600081816103f20152818161060d015281816107130152818161080c015281816108f901528181610a4101528181610a9601528181610e29015261103c0152611d8c6000f3fe6080604052600436106101025760003560e01c80638da5cb5b11610095578063c45a015511610064578063c45a015514610336578063d0e30db014610361578063ecfad9fd1461036b578063f2fde38b14610396578063fc0c546a146103bf5761016d565b80638da5cb5b1461028c578063aa082a9d146102b7578063b6b55f25146102e2578063c1a287e21461030b5761016d565b80635cdd1009116100d15780635cdd1009146101f657806361d027b31461021f57806370740aab1461024a578063715018a6146102755761016d565b806301e1d11414610172578063178ea6ad1461019d57806338af3eed146101b45780633ccfd60b146101df5761016d565b3661016d57600034111561016b573373ffffffffffffffffffffffffffffffffffffffff167f73a19dd210f1a7f902193214c0ee91dd35ee5b4d920cba8d519eca65a7b488ca34426040516101589291906113bc565b60405180910390a261016a33346103ea565b5b005b600080fd5b34801561017e57600080fd5b506101876103ee565b60405161019491906113e5565b60405180910390f35b3480156101a957600080fd5b506101b261048f565b005b3480156101c057600080fd5b506101c96107d2565b6040516101d69190611441565b60405180910390f35b3480156101eb57600080fd5b506101f46107f8565b005b34801561020257600080fd5b5061021d6004803603810190610218919061148d565b610b89565b005b34801561022b57600080fd5b50610234610cd7565b6040516102419190611441565b60405180910390f35b34801561025657600080fd5b5061025f610cfd565b60405161026c919061154a565b60405180910390f35b34801561028157600080fd5b5061028a610d8b565b005b34801561029857600080fd5b506102a1610d9f565b6040516102ae9190611441565b60405180910390f35b3480156102c357600080fd5b506102cc610dc8565b6040516102d991906113e5565b60405180910390f35b3480156102ee57600080fd5b506103096004803603810190610304919061148d565b610dce565b005b34801561031757600080fd5b50610320610ed3565b60405161032d91906113e5565b60405180910390f35b34801561034257600080fd5b5061034b610ed9565b6040516103589190611441565b60405180910390f35b610369610eff565b005b34801561037757600080fd5b50610380610fae565b60405161038d91906113e5565b60405180910390f35b3480156103a257600080fd5b506103bd60048036038101906103b89190611598565b610fb4565b005b3480156103cb57600080fd5b506103d461103a565b6040516103e19190611624565b60405180910390f35b5050565b60007f000000000000000000000000000000000000000000000000000000000000000073ffffffffffffffffffffffffffffffffffffffff166370a08231306040518263ffffffff1660e01b81526004016104499190611441565b602060405180830381865afa158015610466573d6000803e3d6000fd5b505050506040513d601f19601f8201168201806040525081019061048a9190611654565b905090565b61049761105e565b600760009054906101000a900473ffffffffffffffffffffffffffffffffffffffff1673ffffffffffffffffffffffffffffffffffffffff163373ffffffffffffffffffffffffffffffffffffffff1614610527576040517f08c379a000000000000000000000000000000000000000000000000000000000815260040161051e906116cd565b60405180910390fd5b600073ffffffffffffffffffffffffffffffffffffffff16600660009054906101000a900473ffffffffffffffffffffffffffffffffffffffff1673ffffffffffffffffffffffffffffffffffffffff16036105b8576040517f08c379a00000000000000000000000000000000000000000000000000000000081526004016105af90611739565b60405180910390fd5b61012c6003546105c89190611788565b4211610609576040517f08c379a000000000000000000000000000000000000000000000000000000000815260040161060090611808565b60405180910390fd5b60007f000000000000000000000000000000000000000000000000000000000000000073ffffffffffffffffffffffffffffffffffffffff166370a08231306040518263ffffffff1660e01b81526004016106649190611441565b602060405180830381865afa158015610681573d6000803e3d6000fd5b505050506040513d601f19601f820116820180604052508101906106a59190611654565b9050600081116106ea576040517f08c379a00000000000000000000000000000000000000000000000000000000081526004016106e190611874565b60405180910390fd5b610757600660009054906101000a900473ffffffffffffffffffffffffffffffffffffffff16827f000000000000000000000000000000000000000000000000000000000000000073ffffffffffffffffffffffffffffffffffffffff166110a49092919063ffffffff16565b600660009054906101000a900473ffffffffffffffffffffffffffffffffffffffff1673ffffffffffffffffffffffffffffffffffffffff167f735e2ef7d759ed5edc5b5cfd70bd63f00eddd61e652119b1825287362957ad59826040516107bf91906113e5565b60405180910390a2506107d0611123565b565b600660009054906101000a900473ffffffffffffffffffffffffffffffffffffffff1681565b61080061112c565b61080861105e565b60007f000000000000000000000000000000000000000000000000000000000000000073ffffffffffffffffffffffffffffffffffffffff166370a08231306040518263ffffffff1660e01b81526004016108639190611441565b602060405180830381865afa158015610880573d6000803e3d6000fd5b505050506040513d601f19601f820116820180604052508101906108a49190611654565b9050600081116108e9576040517f08c379a00000000000000000000000000000000000000000000000000000000081526004016108e0906118e0565b60405180910390fd5b60035442106109e05761093d33827f000000000000000000000000000000000000000000000000000000000000000073ffffffffffffffffffffffffffffffffffffffff166110a49092919063ffffffff16565b3373ffffffffffffffffffffffffffffffffffffffff167f62116a798bb58cc967874bea4d771de2f9aeec6c64189ff2e5a551072f3106f9824260405161098592919061194c565b60405180910390a23373ffffffffffffffffffffffffffffffffffffffff167f779c86999fb727ca861d0288aa11ed4104347721c571e4f0da5172afb607d885826040516109d391906113e5565b60405180910390a2610b7e565b6000612710600454836109f39190611988565b6109fd91906119f9565b905060008183610a0d9190611a2a565b90506000821115610a8657610a85600560009054906101000a900473ffffffffffffffffffffffffffffffffffffffff16837f000000000000000000000000000000000000000000000000000000000000000073ffffffffffffffffffffffffffffffffffffffff166110a49092919063ffffffff16565b5b6000811115610adb57610ada33827f000000000000000000000000000000000000000000000000000000000000000073ffffffffffffffffffffffffffffffffffffffff166110a49092919063ffffffff16565b5b3373ffffffffffffffffffffffffffffffffffffffff167f62116a798bb58cc967874bea4d771de2f9aeec6c64189ff2e5a551072f3106f98242604051610b23929190611aaa565b60405180910390a23373ffffffffffffffffffffffffffffffffffffffff167f1670585e36568ede58d159518ce92cad99f75ad41c7d8281df3dd4eaa0c855d08284604051610b739291906113bc565b60405180910390a250505b50610b87611123565b565b610b9161105e565b600760009054906101000a900473ffffffffffffffffffffffffffffffffffffffff1673ffffffffffffffffffffffffffffffffffffffff163373ffffffffffffffffffffffffffffffffffffffff1614610c21576040517f08c379a0000000000000000000000000000000000000000000000000000000008152600401610c1890611b32565b60405180910390fd5b60008111610c64576040517f08c379a0000000000000000000000000000000000000000000000000000000008152600401610c5b90611b9e565b60405180910390fd5b610c6c610d9f565b73ffffffffffffffffffffffffffffffffffffffff167f73a19dd210f1a7f902193214c0ee91dd35ee5b4d920cba8d519eca65a7b488ca8242604051610cb39291906113bc565b60405180910390a2610ccc610cc6610d9f565b826103ea565b610cd4611123565b50565b600560009054906101000a900473ffffffffffffffffffffffffffffffffffffffff1681565b60028054610d0a90611bed565b80601f0160208091040260200160405190810160405280929190818152602001828054610d3690611bed565b8015610d835780601f10610d5857610100808354040283529160200191610d83565b820191906000526020600020905b815481529060010190602001808311610d6657829003601f168201915b505050505081565b610d9361112c565b610d9d60006111b3565b565b60008060009054906101000a900473ffffffffffffffffffffffffffffffffffffffff16905090565b60035481565b610dd661112c565b610dde61105e565b60008111610e21576040517f08c379a0000000000000000000000000000000000000000000000000000000008152600401610e1890611c6a565b60405180910390fd5b610e6e3330837f000000000000000000000000000000000000000000000000000000000000000073ffffffffffffffffffffffffffffffffffffffff16611277909392919063ffffffff16565b3373ffffffffffffffffffffffffffffffffffffffff167f73a19dd210f1a7f902193214c0ee91dd35ee5b4d920cba8d519eca65a7b488ca8242604051610eb69291906113bc565b60405180910390a2610ec833826103ea565b610ed0611123565b50565b61012c81565b600760009054906101000a900473ffffffffffffffffffffffffffffffffffffffff1681565b610f0761105e565b60003411610f4a576040517f08c379a0000000000000000000000000000000000000000000000000000000008152600401610f4190611cd6565b60405180910390fd5b3373ffffffffffffffffffffffffffffffffffffffff167f73a19dd210f1a7f902193214c0ee91dd35ee5b4d920cba8d519eca65a7b488ca3442604051610f929291906113bc565b60405180910390a2610fa433346103ea565b610fac611123565b565b60045481565b610fbc61112c565b600073ffffffffffffffffffffffffffffffffffffffff168173ffffffffffffffffffffffffffffffffffffffff160361102e5760006040517f1e4fbdf70000000000000000000000000000000000000000000000000000000081526004016110259190611441565b60405180910390fd5b611037816111b3565b50565b7f000000000000000000000000000000000000000000000000000000000000000081565b60026001540361109a576040517f3ee5aeb500000000000000000000000000000000000000000000000000000000815260040160405180910390fd5b6002600181905550565b61111e838473ffffffffffffffffffffffffffffffffffffffff1663a9059cbb85856040516024016110d7929190611cf6565b604051602081830303815290604052915060e01b6020820180517bffffffffffffffffffffffffffffffffffffffffffffffffffffffff83818316178352505050506112f9565b505050565b60018081905550565b61113461139b565b73ffffffffffffffffffffffffffffffffffffffff16611152610d9f565b73ffffffffffffffffffffffffffffffffffffffff16146111b15761117561139b565b6040517f118cdaa70000000000000000000000000000000000000000000000000000000081526004016111a89190611441565b60405180910390fd5b565b60008060009054906101000a900473ffffffffffffffffffffffffffffffffffffffff169050816000806101000a81548173ffffffffffffffffffffffffffffffffffffffff021916908373ffffffffffffffffffffffffffffffffffffffff1602179055508173ffffffffffffffffffffffffffffffffffffffff168173ffffffffffffffffffffffffffffffffffffffff167f8be0079c531659141344cd1fd0a4f28419497f9722a3daafe3b4186f6b6457e060405160405180910390a35050565b6112f3848573ffffffffffffffffffffffffffffffffffffffff166323b872dd8686866040516024016112ac93929190611d1f565b604051602081830303815290604052915060e01b6020820180517bffffffffffffffffffffffffffffffffffffffffffffffffffffffff83818316178352505050506112f9565b50505050565b600080602060008451602086016000885af18061131c576040513d6000823e3d81fd5b3d925060005191505060008214611337576001811415611353565b60008473ffffffffffffffffffffffffffffffffffffffff163b145b1561139557836040517f5274afe700000000000000000000000000000000000000000000000000000000815260040161138c9190611441565b60405180910390fd5b50505050565b600033905090565b6000819050919050565b6113b6816113a3565b82525050565b60006040820190506113d160008301856113ad565b6113de60208301846113ad565b9392505050565b60006020820190506113fa60008301846113ad565b92915050565b600073ffffffffffffffffffffffffffffffffffffffff82169050919050565b600061142b82611400565b9050919050565b61143b81611420565b82525050565b60006020820190506114566000830184611432565b92915050565b600080fd5b61146a816113a3565b811461147557600080fd5b50565b60008135905061148781611461565b92915050565b6000602082840312156114a3576114a261145c565b5b60006114b184828501611478565b91505092915050565b600081519050919050565b600082825260208201905092915050565b60005b838110156114f45780820151818401526020810190506114d9565b60008484015250505050565b6000601f19601f8301169050919050565b600061151c826114ba565b61152681856114c5565b93506115368185602086016114d6565b61153f81611500565b840191505092915050565b600060208201905081810360008301526115648184611511565b905092915050565b61157581611420565b811461158057600080fd5b50565b6000813590506115928161156c565b92915050565b6000602082840312156115ae576115ad61145c565b5b60006115bc84828501611583565b91505092915050565b6000819050919050565b60006115ea6115e56115e084611400565b6115c5565b611400565b9050919050565b60006115fc826115cf565b9050919050565b600061160e826115f1565b9050919050565b61161e81611603565b82525050565b60006020820190506116396000830184611615565b92915050565b60008151905061164e81611461565b92915050565b60006020828403121561166a5761166961145c565b5b60006116788482850161163f565b91505092915050565b7f4f6e6c7920666163746f72792061646d696e0000000000000000000000000000600082015250565b60006116b76012836114c5565b91506116c282611681565b602082019050919050565b600060208201905081810360008301526116e6816116aa565b9050919050565b7f4e6f2062656e6566696369617279207365740000000000000000000000000000600082015250565b60006117236012836114c5565b915061172e826116ed565b602082019050919050565b6000602082019050818103600083015261175281611716565b9050919050565b7f4e487b7100000000000000000000000000000000000000000000000000000000600052601160045260246000fd5b6000611793826113a3565b915061179e836113a3565b92508282019050808211156117b6576117b5611759565b5b92915050565b7f477261636520706572696f64206e6f74206f7665720000000000000000000000600082015250565b60006117f26015836114c5565b91506117fd826117bc565b602082019050919050565b60006020820190508181036000830152611821816117e5565b9050919050565b7f4e6f2066756e647320746f20636c61696d000000000000000000000000000000600082015250565b600061185e6011836114c5565b915061186982611828565b602082019050919050565b6000602082019050818103600083015261188d81611851565b9050919050565b7f4e6f2066756e647320746f207769746864726177000000000000000000000000600082015250565b60006118ca6014836114c5565b91506118d582611894565b602082019050919050565b600060208201905081810360008301526118f9816118bd565b9050919050565b7f4d41545552495459000000000000000000000000000000000000000000000000600082015250565b60006119366008836114c5565b915061194182611900565b602082019050919050565b600060608201905061196160008301856113ad565b61196e60208301846113ad565b818103604083015261197f81611929565b90509392505050565b6000611993826113a3565b915061199e836113a3565b92508282026119ac816113a3565b915082820484148315176119c3576119c2611759565b5b5092915050565b7f4e487b7100000000000000000000000000000000000000000000000000000000600052601260045260246000fd5b6000611a04826113a3565b9150611a0f836113a3565b925082611a1f57611a1e6119ca565b5b828204905092915050565b6000611a35826113a3565b9150611a40836113a3565b9250828203905081811115611a5857611a57611759565b5b92915050565b7f4541524c595f4558495400000000000000000000000000000000000000000000600082015250565b6000611a94600a836114c5565b9150611a9f82611a5e565b602082019050919050565b6000606082019050611abf60008301856113ad565b611acc60208301846113ad565b8181036040830152611add81611a87565b90509392505050565b7f4f6e6c7920466163746f72790000000000000000000000000000000000000000600082015250565b6000611b1c600c836114c5565b9150611b2782611ae6565b602082019050919050565b60006020820190508181036000830152611b4b81611b0f565b9050919050565b7f416d6f756e74203e203000000000000000000000000000000000000000000000600082015250565b6000611b88600a836114c5565b9150611b9382611b52565b602082019050919050565b60006020820190508181036000830152611bb781611b7b565b9050919050565b7f4e487b7100000000000000000000000000000000000000000000000000000000600052602260045260246000fd5b60006002820490506001821680611c0557607f821691505b602082108103611c1857611c17611bbe565b5b50919050565b7f416d6f756e74206d7573742062652067726561746572207468616e2030000000600082015250565b6000611c54601d836114c5565b9150611c5f82611c1e565b602082019050919050565b60006020820190508181036000830152611c8381611c47565b9050919050565b7f416d6f756e74206d757374206265203e20300000000000000000000000000000600082015250565b6000611cc06012836114c5565b9150611ccb82611c8a565b602082019050919050565b60006020820190508181036000830152611cef81611cb3565b9050919050565b6000604082019050611d0b6000830185611432565b611d1860208301846113ad565b9392505050565b6000606082019050611d346000830186611432565b611d416020830185611432565b611d4e60408301846113ad565b94935050505056fea2646970667358221220034cebf01ee61bbd503b7d7205a25d019dc3723883dbfa5a578f30f004449bfd64736f6c63430008140033",
  "linkReferences": {},
  "deployedLinkReferences": {}
}