{
  "_format": "hh-sol-artifact-1",
  "contractName": "PersonalVault",
  "sourceName": "contracts/PersonalVault.sol",
  "abi": [
    {
      "inputs": [
        {
          "internalType": "address",
          "name": "_token",
          "type": "address"
        },
        {
          "internalType": "string",
          "name": "_purpose",
          "type": "string"
        },
        {
          "internalType": "address",
          "name": "_owner",
          "type": "address"
        },
        {
          "internalType": "uint256",
          "name": "_unlockTimestamp",
          "type": "uint256"
        },
        {
          "internalType": "uint256",
          "name": "_penaltyBps",
          "type": "uint256"
        },
        {
          "internalType": "address",
          "name": "_treasury",
          "type": "address"
        },
        {
          "internalType": "address",
          "name": "_beneficiary",
          "type": "address"
        }
      ],
      "stateMutability": "nonpayable",
      "type": "constructor"
    },
    {
      "inputs": [
        {
          "internalType": "address",
          "name": "owner",
          "type": "address"
        }
      ],
      "name": "OwnableInvalidOwner",
      "type": "error"
    },
    {
      "inputs": [
        {
          "internalType": "address",
          "name": "account",
          "type": "address"
        }
      ],
      "name": "OwnableUnauthorizedAccount",
      "type": "error"
    },
    {
      "inputs": [],
      "name": "ReentrancyGuardReentrantCall",
      "type": "error"
    },
    {
      "inputs": [
        {
          "internalType": "address",
          "name": "token",
          "type": "address"
        }
      ],
      "name": "SafeERC20FailedOperation",
      "type": "error"
    },
    {
      "anonymous": false,
      "inputs": [
        {
          "indexed": true,
          "internalType": "address",
          "name": "beneficiary",
          "type": "address"
        },
        {
          "indexed": false,
          "internalType": "uint256",
          "name": "amount",
          "type": "uint256"
        }
      ],
      "name": "BeneficiaryClaimed",
      "type": "event"
    },
    {
      "anonymous": false,
      "inputs": [
        {
          "indexed": true,
          "internalType": "address",
          "name": "user",
          "type": "address"
        },
        {
          "indexed": false,
          "internalType": "uint256",
          "name": "amount",
          "type": "uint256"
        },
        {
          "indexed": false,
          "internalType": "uint256",
          "name": "timestamp",
          "type": "uint256"
        }
      ],
      "name": "Deposited",
      "type": "event"
    },
    {
      "anonymous": false,
      "inputs": [
        {
          "indexed": true,
          "internalType": "address",
          "name": "user",
          "type": "address"
        },
        {
          "indexed": false,
          "internalType": "uint256",
          "name": "amountWithdraw",
          "type": "uint256"
        },
        {
          "indexed": false,
          "internalType": "uint256",
          "name": "penaltyPaid",
          "type": "uint256"
        }
      ],
      "name": "EarlyWithdrawal",
      "type": "event"
    },
    {
      "anonymous": false,
      "inputs": [
        {
          "indexed": true,
          "internalType": "address",
          "name": "user",
          "type": "address"
        },
        {
          "indexed": false,
          "internalType": "uint256",
          "name": "amount",
          "type": "uint256"
        }
      ],
      "name": "FullWithdrawal",
      "type": "event"
    },
    {
      "anonymous": false,
      "inputs": [
        {
          "indexed": true,
          "internalType": "address",
          "name": "previousOwner",
          "type": "address"
        },
        {
          "indexed": true,
          "internalType": "address",
          "name": "newOwner",
          "type": "address"
        }
      ],
      "name": "OwnershipTransferred",
      "type": "event"
    },
    {
      "anonymous": false,
      "inputs": [
        {
          "indexed": false,
          "internalType": "string",
          "name": "purpose",
          "type": "string"
        }
      ],
      "name": "VaultInitialized",
      "type": "event"
    },
    {
      "anonymous": false,
      "inputs": [
        {
          "indexed": true,
          "internalType": "address",
          "name": "user",
          "type": "address"
        },
        {
          "indexed": false,
          "internalType": "uint256",
          "name": "amount",
          "type": "uint256"
        },
        {
          "indexed": false,
          "internalType": "uint256",
          "name": "timestamp",
          "type": "uint256"
        },
        {
          "indexed": false,
          "internalType": "string",
          "name": "typeOfWithdrawal",
          "type": "string"
        }
      ],
      "name": "Withdrawn",
      "type": "event"
    },
    {
      "inputs": [],
      "name": "GRACE_PERIOD",
      "outputs": [
        {
          "internalType": "uint256",
          "name": "",
          "type": "uint256"
        }
      ],
      "stateMutability": "view",
      "type": "function"
    },
    {
      "inputs": [],
      "name": "beneficiary",
      "outputs": [
        {
          "internalType": "address",
          "name": "",
          "type": "address"
        }
      ],
      "stateMutability": "view",
      "type": "function"
    },
    {
      "inputs": [],
      "name": "claimByBeneficiary",
      "outputs": [],
      "stateMutability": "nonpayable",
      "type": "function"
    },
    {
      "inputs": [
        {
          "internalType": "uint256",
          "name": "amount",
          "type": "uint256"
        }
      ],
      "name": "deposit",
      "outputs": [],
      "stateMutability": "nonpayable",
      "type": "function"
    },
    {
      "inputs": [],
      "name": "deposit",
      "outputs": [],
      "stateMutability": "payable",
      "type": "function"
    },
    {
      "inputs": [],
      "name": "factory",
      "outputs": [
        {
          "internalType": "address",
          "name": "",
          "type": "address"
        }
      ],
      "stateMutability": "view",
      "type": "function"
    },
    {
      "inputs": [],
      "name": "owner",
      "outputs": [
        {
          "internalType": "address",
          "name": "",
          "type": "address"
        }
      ],
      "stateMutability": "view",
      "type": "function"
    },
    {
      "inputs": [],
      "name": "penaltyBps",
      "outputs": [
        {
          "internalType": "uint256",
          "name": "",
          "type": "uint256"
        }
      ],
      "stateMutability": "view",
      "type": "function"
    },
    {
      "inputs": [],
      "name": "purpose",
      "outputs": [
        {
          "internalType": "string",
          "name": "",
          "type": "string"
        }
      ],
      "stateMutability": "view",
      "type": "function"
    },
    {
      "inputs": [],
      "name": "renounceOwnership",
      "outputs": [],
      "stateMutability": "nonpayable",
      "type": "function"
    },
    {
      "inputs": [],
      "name": "token",
      "outputs": [
        {
          "internalType": "contract IERC20",
          "name": "",
          "type": "address"
        }
      ],
      "stateMutability": "view",
      "type": "function"
    },
    {
      "inputs": [],
      "name": "totalAssets",
      "outputs": [
        {
          "internalType": "uint256",
          "name": "",
          "type": "uint256"
        }
      ],
      "stateMutability": "view",
      "type": "function"
    },
    {
      "inputs": [
        {
          "internalType": "address",
          "name": "newOwner",
          "type": "address"
        }
      ],
      "name": "transferOwnership",
      "outputs": [],
      "stateMutability": "nonpayable",
      "type": "function"
    },
    {
      "inputs": [],
      "name": "treasury",
      "outputs": [
        {
          "internalType": "address",
          "name": "",
          "type": "address"
        }
      ],
      "stateMutability": "view",
      "type": "function"
    },
    {
      "inputs": [],
      "name": "unlockTimestamp",
      "outputs": [
        {
          "internalType": "uint256",
          "name": "",
          "type": "uint256"
        }
      ],
      "stateMutability": "view",
      "type": "function"
    },
    {
      "inputs": [],
      "name": "withdraw",
      "outputs": [],
      "stateMutability": "nonpayable",
      "type": "function"
    },
    {
      "stateMutability": "payable",
      "type": "receive"
    }
  ],
  "bytecode": "0x60a06040523480156200001157600080fd5b50604051620027973803806200279783398181016040528101906200003791906200061d565b858580600073ffffffffffffffffffffffffffffffffffffffff168173ffffffffffffffffffffffffffffffffffffffff1603620000af5760006040517f1e4fbdf7000000000000000000000000000000000000000000000000000000008152600401620000a6919062000700565b60405180910390fd5b620000c0816200032660201b60201c565b50600180819055508160029081620000d991906200095e565b507f897cb1f7a5aced02f0fe4e37d9268d7509e5620fe53f2bfe685120bcb0c13a30826040516200010b919062000a97565b60405180910390a15050600073ffffffffffffffffffffffffffffffffffffffff168773ffffffffffffffffffffffffffffffffffffffff160362000187576040517f08c379a00000000000000000000000000000000000000000000000000000000081526004016200017e9062000b0b565b60405180910390fd5b428411620001cc576040517f08c379a0000000000000000000000000000000000000000000000000000000008152600401620001c39062000b7d565b60405180910390fd5b61271083111562000214576040517f08c379a00000000000000000000000000000000000000000000000000000000081526004016200020b9062000bef565b60405180910390fd5b8673ffffffffffffffffffffffffffffffffffffffff1660808173ffffffffffffffffffffffffffffffffffffffff1681525050836003819055508260048190555081600560006101000a81548173ffffffffffffffffffffffffffffffffffffffff021916908373ffffffffffffffffffffffffffffffffffffffff16021790555080600660006101000a81548173ffffffffffffffffffffffffffffffffffffffff021916908373ffffffffffffffffffffffffffffffffffffffff16021790555033600760006101000a81548173ffffffffffffffffffffffffffffffffffffffff021916908373ffffffffffffffffffffffffffffffffffffffff1602179055505050505050505062000c11565b60008060009054906101000a900473ffffffffffffffffffffffffffffffffffffffff169050816000806101000a81548173ffffffffffffffffffffffffffffffffffffffff021916908373ffffffffffffffffffffffffffffffffffffffff1602179055508173ffffffffffffffffffffffffffffffffffffffff168173ffffffffffffffffffffffffffffffffffffffff167f8be0079c531659141344cd1fd0a4f28419497f9722a3daafe3b4186f6b6457e060405160405180910390a35050565b6000604051905090565b600080fd5b600080fd5b600073ffffffffffffffffffffffffffffffffffffffff82169050919050565b60006200042b82620003fe565b9050919050565b6200043d816200041e565b81146200044957600080fd5b50565b6000815190506200045d8162000432565b92915050565b600080fd5b600080fd5b6000601f19601f8301169050919050565b7f4e487b7100000000000000000000000000000000000000000000000000000000600052604160045260246000fd5b620004b8826200046d565b810181811067ffffffffffffffff82111715620004da57620004d96200047e565b5b80604052505050565b6000620004ef620003ea565b9050620004fd8282620004ad565b919050565b600067ffffffffffffffff82111562000520576200051f6200047e565b5b6200052b826200046d565b9050602081019050919050565b60005b83811015620005585780820151818401526020810190506200053b565b60008484015250505050565b60006200057b620005758462000502565b620004e3565b9050828152602081018484840111156200059a576200059962000468565b5b620005a784828562000538565b509392505050565b600082601f830112620005c757620005c662000463565b5b8151620005d984826020860162000564565b91505092915050565b6000819050919050565b620005f781620005e2565b81146200060357600080fd5b50565b6000815190506200061781620005ec565b92915050565b600080600080600080600060e0888a0312156200063f576200063e620003f4565b5b60006200064f8a828b016200044c565b975050602088015167ffffffffffffffff811115620006735762000672620003f9565b5b620006818a828b01620005af565b9650506040620006948a828b016200044c565b9550506060620006a78a828b0162000606565b9450506080620006ba8a828b0162000606565b93505060a0620006cd8a828b016200044c565b92505060c0620006e08a828b016200044c565b91505092959891949750929550565b620006fa816200041e565b82525050565b6000602082019050620007176000830184620006ef565b92915050565b600081519050919050565b7f4e487b7100000000000000000000000000000000000000000000000000000000600052602260045260246000fd5b600060028204905060018216806200077057607f821691505b60208210810362000786576200078562000728565b5b50919050565b60008190508160005260206000209050919050565b60006020601f8301049050919050565b600082821b905092915050565b600060088302620007f07fffffffffffffffffffffffffffffffffffffffffffffffffffffffffffffffff82620007b1565b620007fc8683620007b1565b95508019841693508086168417925050509392505050565b6000819050919050565b60006200083f620008396200083384620005e2565b62000814565b620005e2565b9050919050565b6000819050919050565b6200085b836200081e565b620008736200086a8262000846565b848454620007be565b825550505050565b600090565b6200088a6200087b565b6200089781848462000850565b505050565b5b81811015620008bf57620008b360008262000880565b6001810190506200089d565b5050565b601f8211156200090e57620008d8816200078c565b620008e384620007a1565b81016020851015620008f3578190505b6200090b6200090285620007a1565b8301826200089c565b50505b505050565b600082821c905092915050565b6000620009336000198460080262000913565b1980831691505092915050565b60006200094e838362000920565b9150826002028217905092915050565b62000969826200071d565b67ffffffffffffffff8111156200098557620009846200047e565b5b62000991825462000757565b6200099e828285620008c3565b600060209050601f831160018114620009d65760008415620009c1578287015190505b620009cd858262000940565b86555062000a3d565b601f198416620009e6866200078c565b60005b8281101562000a1057848901518255600182019150602085019450602081019050620009e9565b8683101562000a30578489015162000a2c601f89168262000920565b8355505b6001600288020188555050505b505050505050565b600082825260208201905092915050565b600062000a63826200071d565b62000a6f818562000a45565b935062000a8181856020860162000538565b62000a8c816200046d565b840191505092915050565b6000602082019050818103600083015262000ab3818462000a56565b905092915050565b7f496e76616c696420746f6b656e20616464726573730000000000000000000000600082015250565b600062000af360158362000a45565b915062000b008262000abb565b602082019050919050565b6000602082019050818103600083015262000b268162000ae4565b9050919050565b7f556e6c6f636b2074696d65206d75737420626520696e20667574757265000000600082015250565b600062000b65601d8362000a45565b915062000b728262000b2d565b602082019050919050565b6000602082019050818103600083015262000b988162000b56565b9050919050565b7f496e76616c696420626173697320706f696e7473000000000000000000000000600082015250565b600062000bd760148362000a45565b915062000be48262000b9f565b602082019050919050565b6000602082019050818103600083015262000c0a8162000bc8565b9050919050565b608051611b3262000c65600039600081816103be015281816105d9015281816106df015281816107d8015281816108c501528181610a0d01528181610a6201528181610ca70152610eba0152611b326000f3fe6080604052600436106100f75760003560e01c8063aa082a9d1161008a578063d0e30db011610059578063d0e30db01461032d578063ecfad9fd14610337578063f2fde38b14610362578063fc0c546a1461038b57610162565b8063aa082a9d14610283578063b6b55f25146102ae578063c1a287e2146102d7578063c45a01551461030257610162565b806361d027b3116100c657806361d027b3146101eb57806370740aab14610216578063715018a6146102415780638da5cb5b1461025857610162565b806301e1d11414610167578063178ea6ad1461019257806338af3eed146101a95780633ccfd60b146101d457610162565b36610162576000341115610160573373ffffffffffffffffffffffffffffffffffffffff167f73a19dd210f1a7f902193214c0ee91dd35ee5b4d920cba8d519eca65a7b488ca344260405161014d92919061123a565b60405180910390a261015f33346103b6565b5b005b600080fd5b34801561017357600080fd5b5061017c6103ba565b6040516101899190611263565b60405180910390f35b34801561019e57600080fd5b506101a761045b565b005b3480156101b557600080fd5b506101be61079e565b6040516101cb91906112bf565b60405180910390f35b3480156101e057600080fd5b506101e96107c4565b005b3480156101f757600080fd5b50610200610b55565b60405161020d91906112bf565b60405180910390f35b34801561022257600080fd5b5061022b610b7b565b604051610238919061136a565b60405180910390f35b34801561024d57600080fd5b50610256610c09565b005b34801561026457600080fd5b5061026d610c1d565b60405161027a91906112bf565b60405180910390f35b34801561028f57600080fd5b50610298610c46565b6040516102a59190611263565b60405180910390f35b3480156102ba57600080fd5b506102d560048036038101906102d091906113bd565b610c4c565b005b3480156102e357600080fd5b506102ec610d51565b6040516102f99190611263565b60405180910390f35b34801561030e57600080fd5b50610317610d57565b60405161032491906112bf565b60405180910390f35b610335610d7d565b005b34801561034357600080fd5b5061034c610e2c565b6040516103599190611263565b60405180910390f35b34801561036e57600080fd5b5061038960048036038101906103849190611416565b610e32565b005b34801561039757600080fd5b506103a0610eb8565b6040516103ad91906114a2565b60405180910390f35b5050565b60007f000000000000000000000000000000000000000000000000000000000000000073ffffffffffffffffffffffffffffffffffffffff166370a08231306040518263ffffffff1660e01b815260040161041591906112bf565b602060405180830381865afa158015610432573d6000803e3d6000fd5b505050506040513d601f19601f8201168201806040525081019061045691906114d2565b905090565b610463610edc565b600760009054906101000a900473ffffffffffffffffffffffffffffffffffffffff1673ffffffffffffffffffffffffffffffffffffffff163373ffffffffffffffffffffffffffffffffffffffff16146104f3576040517f08c379a00000000000000000000000000000000000000000000000000000000081526004016104ea9061154b565b60405180910390fd5b600073ffffffffffffffffffffffffffffffffffffffff16600660009054906101000a900473ffffffffffffffffffffffffffffffffffffffff1673ffffffffffffffffffffffffffffffffffffffff1603610584576040517f08c379a000000000000000000000000000000000000000000000000000000000815260040161057b906115b7565b60405180910390fd5b61012c6003546105949190611606565b42116105d5576040517f08c379a00000000000000000000000000000000000000000000000000000000081526004016105cc90611686565b60405180910390fd5b60007f000000000000000000000000000000000000000000000000000000000000000073ffffffffffffffffffffffffffffffffffffffff166370a08231306040518263ffffffff1660e01b815260040161063091906112bf565b602060405180830381865afa15801561064d573d6000803e3d6000fd5b505050506040513d601f19601f8201168201806040525081019061067191906114d2565b9050600081116106b6576040517f08c379a00000000000000000000000000000000000000000000000000000000081526004016106ad906116f2565b60405180910390fd5b610723600660009054906101000a900473ffffffffffffffffffffffffffffffffffffffff16827f000000000000000000000000000000000000000000000000000000000000000073ffffffffffffffffffffffffffffffffffffffff16610f229092919063ffffffff16565b600660009054906101000a900473ffffffffffffffffffffffffffffffffffffffff1673ffffffffffffffffffffffffffffffffffffffff167f735e2ef7d759ed5edc5b5cfd70bd63f00eddd61e652119b1825287362957ad598260405161078b9190611263565b60405180910390a25061079c610fa1565b565b600660009054906101000a900473ffffffffffffffffffffffffffffffffffffffff1681565b6107cc610faa565b6107d4610edc565b60007f000000000000000000000000000000000000000000000000000000000000000073ffffffffffffffffffffffffffffffffffffffff166370a08231306040518263ffffffff1660e01b815260040161082f91906112bf565b602060405180830381865afa15801561084c573d6000803e3d6000fd5b505050506040513d601f19601f8201168201806040525081019061087091906114d2565b9050600081116108b5576040517f08c379a00000000000000000000000000000000000000000000000000000000081526004016108ac9061175e565b60405180910390fd5b60035442106109ac5761090933827f000000000000000000000000000000000000000000000000000000000000000073ffffffffffffffffffffffffffffffffffffffff16610f229092919063ffffffff16565b3373ffffffffffffffffffffffffffffffffffffffff167f62116a798bb58cc967874bea4d771de2f9aeec6c64189ff2e5a551072f3106f982426040516109519291906117ca565b60405180910390a23373ffffffffffffffffffffffffffffffffffffffff167f779c86999fb727ca861d0288aa11ed4104347721c571e4f0da5172afb607d8858260405161099f9190611263565b60405180910390a2610b4a565b6000612710600454836109bf9190611806565b6109c99190611877565b9050600081836109d991906118a8565b90506000821115610a5257610a51600560009054906101000a900473ffffffffffffffffffffffffffffffffffffffff16837f000000000000000000000000000000000000000000000000000000000000000073ffffffffffffffffffffffffffffffffffffffff16610f229092919063ffffffff16565b5b6000811115610aa757610aa633827f000000000000000000000000000000000000000000000000000000000000000073ffffffffffffffffffffffffffffffffffffffff16610f229092919063ffffffff16565b5b3373ffffffffffffffffffffffffffffffffffffffff167f62116a798bb58cc967874bea4d771de2f9aeec6c64189ff2e5a551072f3106f98242604051610aef929190611928565b60405180910390a23373ffffffffffffffffffffffffffffffffffffffff167f1670585e36568ede58d159518ce92cad99f75ad41c7d8281df3dd4eaa0c855d08284604051610b3f92919061123a565b60405180910390a250505b50610b53610fa1565b565b600560009054906101000a900473ffffffffffffffffffffffffffffffffffffffff1681565b60028054610b8890611993565b80601f0160208091040260200160405190810160405280929190818152602001828054610bb490611993565b8015610c015780601f10610bd657610100808354040283529160200191610c01565b820191906000526020600020905b815481529060010190602001808311610be457829003601f168201915b505050505081565b610c11610faa565b610c1b6000611031565b565b60008060009054906101000a900473ffffffffffffffffffffffffffffffffffffffff16905090565b60035481565b610c54610faa565b610c5c610edc565b60008111610c9f576040517f08c379a0000000000000000000000000000000000000000000000000000000008152600401610c9690611a10565b60405180910390fd5b610cec3330837f000000000000000000000000000000000000000000000000000000000000000073ffffffffffffffffffffffffffffffffffffffff166110f5909392919063ffffffff16565b3373ffffffffffffffffffffffffffffffffffffffff167f73a19dd210f1a7f902193214c0ee91dd35ee5b4d920cba8d519eca65a7b488ca8242604051610d3492919061123a565b60405180910390a2610d4633826103b6565b610d4e610fa1565b50565b61012c81565b600760009054906101000a900473ffffffffffffffffffffffffffffffffffffffff1681565b610d85610edc565b60003411610dc8576040517f08c379a0000000000000000000000000000000000000000000000000000000008152600401610dbf90611a7c565b60405180910390fd5b3373ffffffffffffffffffffffffffffffffffffffff167f73a19dd210f1a7f902193214c0ee91dd35ee5b4d920cba8d519eca65a7b488ca3442604051610e1092919061123a565b60405180910390a2610e2233346103b6565b610e2a610fa1565b565b60045481565b610e3a610faa565b600073ffffffffffffffffffffffffffffffffffffffff168173ffffffffffffffffffffffffffffffffffffffff1603610eac5760006040517f1e4fbdf7000000000000000000000000000000000000000000000000000000008152600401610ea391906112bf565b60405180910390fd5b610eb581611031565b50565b7f000000000000000000000000000000000000000000000000000000000000000081565b600260015403610f18576040517f3ee5aeb500000000000000000000000000000000000000000000000000000000815260040160405180910390fd5b6002600181905550565b610f9c838473ffffffffffffffffffffffffffffffffffffffff1663a9059cbb8585604051602401610f55929190611a9c565b604051602081830303815290604052915060e01b6020820180517bffffffffffffffffffffffffffffffffffffffffffffffffffffffff8381831617835250505050611177565b505050565b60018081905550565b610fb2611219565b73ffffffffffffffffffffffffffffffffffffffff16610fd0610c1d565b73ffffffffffffffffffffffffffffffffffffffff161461102f57610ff3611219565b6040517f118cdaa700000000000000000000000000000000000000000000000000000000815260040161102691906112bf565b60405180910390fd5b565b60008060009054906101000a900473ffffffffffffffffffffffffffffffffffffffff169050816000806101000a81548173ffffffffffffffffffffffffffffffffffffffff021916908373ffffffffffffffffffffffffffffffffffffffff1602179055508173ffffffffffffffffffffffffffffffffffffffff168173ffffffffffffffffffffffffffffffffffffffff167f8be0079c531659141344cd1fd0a4f28419497f9722a3daafe3b4186f6b6457e060405160405180910390a35050565b611171848573ffffffffffffffffffffffffffffffffffffffff166323b872dd86868660405160240161112a93929190611ac5565b604051602081830303815290604052915060e01b6020820180517bffffffffffffffffffffffffffffffffffffffffffffffffffffffff8381831617835250505050611177565b50505050565b600080602060008451602086016000885af18061119a576040513d6000823e3d81fd5b3d9250600051915050600082146111b55760018114156111d1565b60008473ffffffffffffffffffffffffffffffffffffffff163b145b1561121357836040517f5274afe700000000000000000000000000000000000000000000000000000000815260040161120a91906112bf565b60405180910390fd5b50505050565b600033905090565b6000819050919050565b61123481611221565b82525050565b600060408201905061124f600083018561122b565b61125c602083018461122b565b9392505050565b6000602082019050611278600083018461122b565b92915050565b600073ffffffffffffffffffffffffffffffffffffffff82169050919050565b60006112a98261127e565b9050919050565b6112b98161129e565b82525050565b60006020820190506112d460008301846112b0565b92915050565b600081519050919050565b600082825260208201905092915050565b60005b838110156113145780820151818401526020810190506112f9565b60008484015250505050565b6000601f19601f8301169050919050565b600061133c826112da565b61134681856112e5565b93506113568185602086016112f6565b61135f81611320565b840191505092915050565b600060208201905081810360008301526113848184611331565b905092915050565b600080fd5b61139a81611221565b81146113a557600080fd5b50565b6000813590506113b781611391565b92915050565b6000602082840312156113d3576113d261138c565b5b60006113e1848285016113a8565b91505092915050565b6113f38161129e565b81146113fe57600080fd5b50565b600081359050611410816113ea565b92915050565b60006020828403121561142c5761142b61138c565b5b600061143a84828501611401565b91505092915050565b6000819050919050565b600061146861146361145e8461127e565b611443565b61127e565b9050919050565b600061147a8261144d565b9050919050565b600061148c8261146f565b9050919050565b61149c81611481565b82525050565b60006020820190506114b76000830184611493565b92915050565b6000815190506114cc81611391565b92915050565b6000602082840312156114e8576114e761138c565b5b60006114f6848285016114bd565b91505092915050565b7f4f6e6c7920666163746f72792061646d696e0000000000000000000000000000600082015250565b60006115356012836112e5565b9150611540826114ff565b602082019050919050565b6000602082019050818103600083015261156481611528565b9050919050565b7f4e6f2062656e6566696369617279207365740000000000000000000000000000600082015250565b60006115a16012836112e5565b91506115ac8261156b565b602082019050919050565b600060208201905081810360008301526115d081611594565b9050919050565b7f4e487b7100000000000000000000000000000000000000000000000000000000600052601160045260246000fd5b600061161182611221565b915061161c83611221565b9250828201905080821115611634576116336115d7565b5b92915050565b7f477261636520706572696f64206e6f74206f7665720000000000000000000000600082015250565b60006116706015836112e5565b915061167b8261163a565b602082019050919050565b6000602082019050818103600083015261169f81611663565b9050919050565b7f4e6f2066756e647320746f20636c61696d000000000000000000000000000000600082015250565b60006116dc6011836112e5565b91506116e7826116a6565b602082019050919050565b6000602082019050818103600083015261170b816116cf565b9050919050565b7f4e6f2066756e647320746f207769746864726177000000000000000000000000600082015250565b60006117486014836112e5565b915061175382611712565b602082019050919050565b600060208201905081810360008301526117778161173b565b9050919050565b7f4d41545552495459000000000000000000000000000000000000000000000000600082015250565b60006117b46008836112e5565b91506117bf8261177e565b602082019050919050565b60006060820190506117df600083018561122b565b6117ec602083018461122b565b81810360408301526117fd816117a7565b90509392505050565b600061181182611221565b915061181c83611221565b925082820261182a81611221565b91508282048414831517611841576118406115d7565b5b5092915050565b7f4e487b7100000000000000000000000000000000000000000000000000000000600052601260045260246000fd5b600061188282611221565b915061188d83611221565b92508261189d5761189c611848565b5b828204905092915050565b60006118b382611221565b91506118be83611221565b92508282039050818111156118d6576118d56115d7565b5b92915050565b7f4541524c595f4558495400000000000000000000000000000000000000000000600082015250565b6000611912600a836112e5565b915061191d826118dc565b602082019050919050565b600060608201905061193d600083018561122b565b61194a602083018461122b565b818103604083015261195b81611905565b90509392505050565b7f4e487b7100000000000000000000000000000000000000000000000000000000600052602260045260246000fd5b600060028204905060018216806119ab57607f821691505b6020821081036119be576119bd611964565b5b50919050565b7f416d6f756e74206d7573742062652067726561746572207468616e2030000000600082015250565b60006119fa601d836112e5565b9150611a05826119c4565b602082019050919050565b60006020820190508181036000830152611a29816119ed565b9050919050565b7f416d6f756e74206d757374206265203e20300000000000000000000000000000600082015250565b6000611a666012836112e5565b9150611a7182611a30565b602082019050919050565b60006020820190508181036000830152611a9581611a59565b9050919050565b6000604082019050611ab160008301856112b0565b611abe602083018461122b565b9392505050565b6000606082019050611ada60008301866112b0565b611ae760208301856112b0565b611af4604083018461122b565b94935050505056fea26469706673582212201651a846d4206946c0f749bc6f84ae675883a1e30d87e252faf16008d3316a8264736f6c63430008140033",
  "linkReferences": {},
  "deployedLinkReferences": {}
}