{
  "_format": "hh-sol-artifact-1",
  "contractName": "PersonalVault",
  "sourceName": "contracts/PersonalVault.sol",
  "abi": [
    {
      "inputs": [
        {
          "internalType": "address",
          "name": "_token",
          "type": "address"
        },
        {
          "internalType": "string",
          "name": "_purpose",
          "type": "string"
        },
        {
          "internalType": "uint256",
          "name": "_tokenId",
          "type": "uint256"
        },
        {
          "internalType": "uint256",
          "name": "_unlockTimestamp",
          "type": "uint256"
        },
        {
          "internalType": "uint256",
          "name": "_penaltyBps",
          "type": "uint256"
        },
        {
          "internalType": "address",
          "name": "_treasury",
          "type": "address"
        },
        {
          "internalType": "address",
          "name": "_beneficiary",
          "type": "address"
        }
      ],
      "stateMutability": "nonpayable",
      "type": "constructor"
    },
    {
      "inputs": [],
      "name": "ReentrancyGuardReentrantCall",
      "type": "error"
    },
    {
      "inputs": [
        {
          "internalType": "address",
          "name": "token",
          "type": "address"
        }
      ],
      "name": "SafeERC20FailedOperation",
      "type": "error"
    },
    {
      "anonymous": false,
      "inputs": [
        {
          "indexed": true,
          "internalType": "address",
          "name": "beneficiary",
          "type": "address"
        },
        {
          "indexed": false,
          "internalType": "uint256",
          "name": "amount",
          "type": "uint256"
        }
      ],
      "name": "BeneficiaryClaimed",
      "type": "event"
    },
    {
      "anonymous": false,
      "inputs": [
        {
          "indexed": true,
          "internalType": "address",
          "name": "user",
          "type": "address"
        },
        {
          "indexed": false,
          "internalType": "uint256",
          "name": "amount",
          "type": "uint256"
        },
        {
          "indexed": false,
          "internalType": "uint256",
          "name": "timestamp",
          "type": "uint256"
        }
      ],
      "name": "Deposited",
      "type": "event"
    },
    {
      "anonymous": false,
      "inputs": [
        {
          "indexed": true,
          "internalType": "address",
          "name": "user",
          "type": "address"
        },
        {
          "indexed": false,
          "internalType": "uint256",
          "name": "amountWithdraw",
          "type": "uint256"
        },
        {
          "indexed": false,
          "internalType": "uint256",
          "name": "penaltyPaid",
          "type": "uint256"
        }
      ],
      "name": "EarlyWithdrawal",
      "type": "event"
    },
    {
      "anonymous": false,
      "inputs": [
        {
          "indexed": true,
          "internalType": "address",
          "name": "user",
          "type": "address"
        },
        {
          "indexed": false,
          "internalType": "uint256",
          "name": "amount",
          "type": "uint256"
        }
      ],
      "name": "FullWithdrawal",
      "type": "event"
    },
    {
      "anonymous": false,
      "inputs": [
        {
          "indexed": false,
          "internalType": "string",
          "name": "purpose",
          "type": "string"
        },
        {
          "indexed": true,
          "internalType": "uint256",
          "name": "tokenId",
          "type": "uint256"
        }
      ],
      "name": "VaultInitialized",
      "type": "event"
    },
    {
      "anonymous": false,
      "inputs": [
        {
          "indexed": true,
          "internalType": "address",
          "name": "user",
          "type": "address"
        },
        {
          "indexed": false,
          "internalType": "uint256",
          "name": "amount",
          "type": "uint256"
        },
        {
          "indexed": false,
          "internalType": "uint256",
          "name": "timestamp",
          "type": "uint256"
        },
        {
          "indexed": false,
          "internalType": "string",
          "name": "typeOfWithdrawal",
          "type": "string"
        }
      ],
      "name": "Withdrawn",
      "type": "event"
    },
    {
      "inputs": [],
      "name": "GRACE_PERIOD",
      "outputs": [
        {
          "internalType": "uint256",
          "name": "",
          "type": "uint256"
        }
      ],
      "stateMutability": "view",
      "type": "function"
    },
    {
      "inputs": [],
      "name": "beneficiary",
      "outputs": [
        {
          "internalType": "address",
          "name": "",
          "type": "address"
        }
      ],
      "stateMutability": "view",
      "type": "function"
    },
    {
      "inputs": [],
      "name": "claimByBeneficiary",
      "outputs": [],
      "stateMutability": "nonpayable",
      "type": "function"
    },
    {
      "inputs": [
        {
          "internalType": "uint256",
          "name": "amount",
          "type": "uint256"
        }
      ],
      "name": "deposit",
      "outputs": [],
      "stateMutability": "nonpayable",
      "type": "function"
    },
    {
      "inputs": [],
      "name": "deposit",
      "outputs": [],
      "stateMutability": "payable",
      "type": "function"
    },
    {
      "inputs": [
        {
          "internalType": "uint256",
          "name": "amount",
          "type": "uint256"
        }
      ],
      "name": "depositFromFactory",
      "outputs": [],
      "stateMutability": "nonpayable",
      "type": "function"
    },
    {
      "inputs": [],
      "name": "factory",
      "outputs": [
        {
          "internalType": "address",
          "name": "",
          "type": "address"
        }
      ],
      "stateMutability": "view",
      "type": "function"
    },
    {
      "inputs": [],
      "name": "owner",
      "outputs": [
        {
          "internalType": "address",
          "name": "",
          "type": "address"
        }
      ],
      "stateMutability": "view",
      "type": "function"
    },
    {
      "inputs": [],
      "name": "penaltyBps",
      "outputs": [
        {
          "internalType": "uint256",
          "name": "",
          "type": "uint256"
        }
      ],
      "stateMutability": "view",
      "type": "function"
    },
    {
      "inputs": [],
      "name": "purpose",
      "outputs": [
        {
          "internalType": "string",
          "name": "",
          "type": "string"
        }
      ],
      "stateMutability": "view",
      "type": "function"
    },
    {
      "inputs": [],
      "name": "token",
      "outputs": [
        {
          "internalType": "contract IERC20",
          "name": "",
          "type": "address"
        }
      ],
      "stateMutability": "view",
      "type": "function"
    },
    {
      "inputs": [],
      "name": "tokenId",
      "outputs": [
        {
          "internalType": "uint256",
          "name": "",
          "type": "uint256"
        }
      ],
      "stateMutability": "view",
      "type": "function"
    },
    {
      "inputs": [],
      "name": "totalAssets",
      "outputs": [
        {
          "internalType": "uint256",
          "name": "",
          "type": "uint256"
        }
      ],
      "stateMutability": "view",
      "type": "function"
    },
    {
      "inputs": [],
      "name": "treasury",
      "outputs": [
        {
          "internalType": "address",
          "name": "",
          "type": "address"
        }
      ],
      "stateMutability": "view",
      "type": "function"
    },
    {
      "inputs": [],
      "name": "unlockTimestamp",
      "outputs": [
        {
          "internalType": "uint256",
          "name": "",
          "type": "uint256"
        }
      ],
      "stateMutability": "view",
      "type": "function"
    },
    {
      "inputs": [],
      "name": "withdraw",
      "outputs": [],
      "stateMutability": "nonpayable",
      "type": "function"
    },
    {
      "stateMutability": "payable",
      "type": "receive"
    }
  ],
  "bytecode": "0x60e060405234620004675762001646803803806200001d816200046c565b928339810160e0828203126200046757620000388262000492565b602083015190916001600160401b03918281116200046757840181601f820112156200046757805183811162000451576200007d601f8201601f19166020016200046c565b928184526020828401011162000467576200009f9160208085019101620004a7565b6040840151606085015190608086015192620000cc60c0620000c460a08a0162000492565b980162000492565b946001600055336080528260a05281519081116200045157600154600181811c9116801562000446575b60208210146200043057601f8111620003ca575b506020601f82116001146200034b5790806000805160206200162683398151915293926000916200033f575b508160011b916000199060031b1c1916176001555b60408051809260208252620001708151809281602086015260208686019101620004a7565b601f01601f19168101030190a26001600160a01b039384168015620002fa5742821115620002b5576127108311620002705760c0526002556003558160018060a01b03199316836004541617600455169060055416176005556040516111599081620004cd82396080518181816045015281816102380152818161032d01528181610446015281816106fc0152818161094b01528181610bc10152610f76015260a051818181608f01528181610281015281816104870152818161077d0152818161098c01528181610b7901528181610cb90152610f41015260c0518181816101a9015281816104020152818161087b01528181610c230152610e5f0152f35b60405162461bcd60e51b815260206004820152601460248201527f496e76616c696420626173697320706f696e74730000000000000000000000006044820152606490fd5b60405162461bcd60e51b815260206004820152601d60248201527f556e6c6f636b2074696d65206d75737420626520696e206675747572650000006044820152606490fd5b60405162461bcd60e51b815260206004820152601560248201527f496e76616c696420746f6b656e206164647265737300000000000000000000006044820152606490fd5b90508201513862000136565b600160005260206000209060005b601f1984168110620003b157509160019160008051602062001626833981519152949382601f1981161062000397575b5050811b016001556200014b565b84015160001960f88460031b161c19169055388062000389565b9091602060018192858801518155019301910162000359565b60016000527fb10e2d527612073b26eecdfd717e6a320cf44b4afac2b0732d9fcbe2b7fa0cf6601f830160051c81016020841062000428575b601f830160051c820181106200041b5750506200010a565b6000815560010162000403565b508062000403565b634e487b7160e01b600052602260045260246000fd5b90607f1690620000f6565b634e487b7160e01b600052604160045260246000fd5b600080fd5b6040519190601f01601f191682016001600160401b038111838210176200045157604052565b51906001600160a01b03821682036200046757565b60005b838110620004bb5750506000910152565b8181015183820152602001620004aa56fe60806040818152600491823610156100dc575b50361561001e57600080fd5b3461002557005b8051348152426020820152600080516020611104833981519152823392a27f00000000000000000000000000000000000000000000000000000000000000006001600160a01b031691823b156100d7576000926024849284519586938492632b9343db60e11b84527f0000000000000000000000000000000000000000000000000000000000000000908401525af19081156100cd57506100c257005b6100cb90610ee6565b005b513d6000823e3d90fd5b600080fd5b600090813560e01c90816301e1d11414610e3457508063178ea6ad14610b9c57806317d70f7c14610b6157806338af3eed14610b385780633ccfd60b1461082c5780635cdd1009146106d357806361d027b3146106a757806370740aab146105655780638da5cb5b14610537578063aa082a9d14610518578063b6b55f2514610379578063c1a287e21461035c578063c45a015514610318578063d0e30db0146101fb578063ecfad9fd146101dc5763fc0c546a036100125790346101d857816003193601126101d857517f00000000000000000000000000000000000000000000000000000000000000006001600160a01b03168152602090f35b5080fd5b5090346101d857816003193601126101d8576020906003549051908152f35b5082816003193601126101d857610210610ff4565b34156102e05782829351348152426020820152600080516020611104833981519152823392a27f00000000000000000000000000000000000000000000000000000000000000006001600160a01b031691823b156102db5783926024849284519586938492632b9343db60e11b84527f0000000000000000000000000000000000000000000000000000000000000000908401525af19081156102d257506102bb575b506001905580f35b6102c490610ee6565b6102cf5780826102b3565b80fd5b513d84823e3d90fd5b505050fd5b606490602084519162461bcd60e51b835282015260126024820152710416d6f756e74206d757374206265203e20360741b6044820152fd5b5090346101d857816003193601126101d857517f00000000000000000000000000000000000000000000000000000000000000006001600160a01b03168152602090f35b5090346101d857816003193601126101d8576020905161012c8152f35b5082346101d85760203660031901126101d857803592610397610f32565b6001600160a01b03906103ad9082163314611017565b6103b5610ff4565b84156104d55781516323b872dd60e01b6020820152336024820152306044820152606480820187905281529460a0860167ffffffffffffffff8111878210176104c05785966104269185527f0000000000000000000000000000000000000000000000000000000000000000611055565b8251908152426020820152600080516020611104833981519152833392a27f00000000000000000000000000000000000000000000000000000000000000001691823b156102db5783926024849284519586938492632b9343db60e11b84527f0000000000000000000000000000000000000000000000000000000000000000908401525af19081156102d257506102bb57506001905580f35b604185634e487b7160e01b6000525260246000fd5b815162461bcd60e51b8152602081850152601d60248201527f416d6f756e74206d7573742062652067726561746572207468616e20300000006044820152606490fd5b5090346101d857816003193601126101d8576020906002549051908152f35b5090346101d857816003193601126101d857602090610554610f32565b90516001600160a01b039091168152f35b50346102cf57806003193601126102cf5781519080600180549081811c91818116801561069d575b602098898510821461068a5750918391899593889586529081600014610669575060011461060e575b50506105c89250959392950382610f10565b82519382859384528251928382860152825b8481106105f857505050828201840152601f01601f19168101030190f35b81810183015188820188015287955082016105da565b8086527fb10e2d527612073b26eecdfd717e6a320cf44b4afac2b0732d9fcbe2b7fa0cf69492508591905b8183106106515750889450508201016105c8386105b6565b85548884018501529485019487945091830191610639565b9150506105c894925060ff191682840152151560051b8201018692386105b6565b634e487b7160e01b875260229052602486fd5b92607f169261058d565b5091346106cf57826003193601126106cf575490516001600160a01b03909116815260209150f35b8280fd5b5090346101d85760203660031901126101d8578235906106f1610ff4565b6001600160a01b03937f0000000000000000000000000000000000000000000000000000000000000000851692338490036107fa5780156107ca57600080516020611104833981519152838697610746610f32565b82519485524260208601521692a261075c610f32565b50823b156102db5783926024849284519586938492632b9343db60e11b84527f0000000000000000000000000000000000000000000000000000000000000000908401525af19081156102d257506107b657506001905580f35b6107bf90610ee6565b6102cf5780386102b3565b506020606492519162461bcd60e51b8352820152600a6024820152690416d6f756e74203e20360b41b6044820152fd5b506020606492519162461bcd60e51b8352820152600c60248201526b4f6e6c7920466163746f727960a01b6044820152fd5b5082346101d857816003193601126101d857610846610f32565b6001600160a01b03939061085d9085163314611017565b610865610ff4565b80516370a0823160e01b815230838201529360207f000000000000000000000000000000000000000000000000000000000000000081876024818685165afa968715610b2e578697610aff575b508615610ac55760025442106109c55786916108f287987f779c86999fb727ca861d0288aa11ed4104347721c571e4f0da5172afb607d8859333906110b1565b8451838152428282015260608682015260086060820152674d4154555249545960c01b60808201527f62116a798bb58cc967874bea4d771de2f9aeec6c64189ff2e5a551072f3106f960a03392a284519283523392a25b7f00000000000000000000000000000000000000000000000000000000000000001691823b156102db5783926024849284519586938492635c6e0e2760e01b84527f0000000000000000000000000000000000000000000000000000000000000000908401525af19081156102d257506102bb57506001905580f35b906003548088029088820403610ab25761271090049081880392888411610a9f578383899a81610a8c575b03610a7a575b505084518381524282820152606086820152600a606082015269115054931657d156125560b21b60808201527f62116a798bb58cc967874bea4d771de2f9aeec6c64189ff2e5a551072f3106f960a03392a284519283528201527f1670585e36568ede58d159518ce92cad99f75ad41c7d8281df3dd4eaa0c855d0833392a2610949565b610a859133906110b1565b88836109f6565b610a9a82898c5416866110b1565b6109f0565b634e487b7160e01b885260118752602488fd5b634e487b7160e01b875260118652602487fd5b835162461bcd60e51b815280860183905260146024820152734e6f2066756e647320746f20776974686472617760601b6044820152606490fd5b9096508181813d8311610b27575b610b178183610f10565b810103126100d7575195876108b2565b503d610b0d565b84513d88823e3d90fd5b5090346101d857816003193601126101d85760055490516001600160a01b039091168152602090f35b5090346101d857816003193601126101d857602090517f00000000000000000000000000000000000000000000000000000000000000008152f35b5090346101d857816003193601126101d857610bb6610ff4565b6001600160a01b03927f0000000000000000000000000000000000000000000000000000000000000000841633819003610dfc5784600554168015610dc45760025461012c8101809111610db157421115610d765783516370a0823160e01b8152308482015260209690917f000000000000000000000000000000000000000000000000000000000000000088846024818685165afa938415610d6c578894610d39575b508315610d025791610c9084899a937f735e2ef7d759ed5edc5b5cfd70bd63f00eddd61e652119b1825287362957ad59956110b1565b60055416928651908152a2803b156102db576024849284519586938492635c6e0e2760e01b84527f0000000000000000000000000000000000000000000000000000000000000000908401525af19081156102d25750610cf3575b506001815580f35b610cfc90610ee6565b38610ceb565b865162461bcd60e51b81528087018a905260116024820152704e6f2066756e647320746f20636c61696d60781b6044820152606490fd5b9093508881813d8311610d65575b610d518183610f10565b81010312610d6157519238610c5a565b8780fd5b503d610d47565b87513d8a823e3d90fd5b835162461bcd60e51b8152602081850152601560248201527423b930b1b2903832b934b7b2103737ba1037bb32b960591b6044820152606490fd5b634e487b7160e01b865260118452602486fd5b835162461bcd60e51b81526020818501526012602482015271139bc818995b99599a58da585c9e481cd95d60721b6044820152606490fd5b506020606492519162461bcd60e51b8352820152601260248201527127b7363c903330b1ba37b93c9030b236b4b760711b6044820152fd5b9050828434610ee25783600319360112610ee2576370a0823160e01b835230908301526020826024817f00000000000000000000000000000000000000000000000000000000000000006001600160a01b03165afa918215610ed8578392610ea1575b6020838351908152f35b9091506020813d8211610ed0575b81610ebc60209383610f10565b810103126106cf5760209250519083610e97565b3d9150610eaf565b81513d85823e3d90fd5b8380fd5b67ffffffffffffffff8111610efa57604052565b634e487b7160e01b600052604160045260246000fd5b90601f8019910116810190811067ffffffffffffffff821117610efa57604052565b6040516331a9108f60e11b81527f000000000000000000000000000000000000000000000000000000000000000060048201526001600160a01b03906020816024817f000000000000000000000000000000000000000000000000000000000000000086165afa908115610fe857600091610fae575b50905090565b6020813d8211610fe0575b81610fc660209383610f10565b810103126101d8575191821682036102cf57508038610fa8565b3d9150610fb9565b6040513d6000823e3d90fd5b600260005414611005576002600055565b604051633ee5aeb560e01b8152600490fd5b1561101e57565b60405162461bcd60e51b815260206004820152600f60248201526e2737ba103b30bab63a1037bbb732b960891b6044820152606490fd5b906000602091828151910182855af115610fe8576000513d6110a857506001600160a01b0381163b155b6110865750565b604051635274afe760e01b81526001600160a01b039091166004820152602490fd5b6001141561107f565b60405163a9059cbb60e01b60208201526001600160a01b039092166024830152604480830193909352918152608081019167ffffffffffffffff831182841017610efa5761110192604052611055565b56fe73a19dd210f1a7f902193214c0ee91dd35ee5b4d920cba8d519eca65a7b488caa2646970667358221220319bfb9d6b0a7b7e531d2a6d8ae9e59e8d48e079a47c7b449ee5e9bf43c2484064736f6c63430008140033ec48e1201c49ef81c247fd0daa503bbd0deadd1faf3aa161f60cd504debfe6ca",
  "linkReferences": {},
  "deployedLinkReferences": {}
}