{
  "_format": "hh-sol-artifact-1",
  "contractName": "PersonalVault",
  "sourceName": "contracts/PersonalVault.sol",
  "abi": [
    {
      "inputs": [
        {
          "internalType": "address",
          "name": "_token",
          "type": "address"
        },
        {
          "internalType": "string",
          "name": "_purpose",
          "type": "string"
        },
        {
          "internalType": "address",
          "name": "_owner",
          "type": "address"
        },
        {
          "internalType": "uint256",
          "name": "_unlockTimestamp",
          "type": "uint256"
        },
        {
          "internalType": "uint256",
          "name": "_penaltyBps",
          "type": "uint256"
        },
        {
          "internalType": "address",
          "name": "_treasury",
          "type": "address"
        }
      ],
      "stateMutability": "nonpayable",
      "type": "constructor"
    },
    {
      "inputs": [
        {
          "internalType": "address",
          "name": "owner",
          "type": "address"
        }
      ],
      "name": "OwnableInvalidOwner",
      "type": "error"
    },
    {
      "inputs": [
        {
          "internalType": "address",
          "name": "account",
          "type": "address"
        }
      ],
      "name": "OwnableUnauthorizedAccount",
      "type": "error"
    },
    {
      "inputs": [],
      "name": "ReentrancyGuardReentrantCall",
      "type": "error"
    },
    {
      "inputs": [
        {
          "internalType": "address",
          "name": "token",
          "type": "address"
        }
      ],
      "name": "SafeERC20FailedOperation",
      "type": "error"
    },
    {
      "anonymous": false,
      "inputs": [
        {
          "indexed": true,
          "internalType": "address",
          "name": "user",
          "type": "address"
        },
        {
          "indexed": false,
          "internalType": "uint256",
          "name": "amount",
          "type": "uint256"
        },
        {
          "indexed": false,
          "internalType": "uint256",
          "name": "timestamp",
          "type": "uint256"
        }
      ],
      "name": "Deposited",
      "type": "event"
    },
    {
      "anonymous": false,
      "inputs": [
        {
          "indexed": true,
          "internalType": "address",
          "name": "user",
          "type": "address"
        },
        {
          "indexed": false,
          "internalType": "uint256",
          "name": "amountWithdraw",
          "type": "uint256"
        },
        {
          "indexed": false,
          "internalType": "uint256",
          "name": "penaltyPaid",
          "type": "uint256"
        }
      ],
      "name": "EarlyWithdrawal",
      "type": "event"
    },
    {
      "anonymous": false,
      "inputs": [
        {
          "indexed": true,
          "internalType": "address",
          "name": "user",
          "type": "address"
        },
        {
          "indexed": false,
          "internalType": "uint256",
          "name": "amount",
          "type": "uint256"
        }
      ],
      "name": "FullWithdrawal",
      "type": "event"
    },
    {
      "anonymous": false,
      "inputs": [
        {
          "indexed": true,
          "internalType": "address",
          "name": "previousOwner",
          "type": "address"
        },
        {
          "indexed": true,
          "internalType": "address",
          "name": "newOwner",
          "type": "address"
        }
      ],
      "name": "OwnershipTransferred",
      "type": "event"
    },
    {
      "anonymous": false,
      "inputs": [
        {
          "indexed": false,
          "internalType": "string",
          "name": "purpose",
          "type": "string"
        }
      ],
      "name": "VaultInitialized",
      "type": "event"
    },
    {
      "anonymous": false,
      "inputs": [
        {
          "indexed": true,
          "internalType": "address",
          "name": "user",
          "type": "address"
        },
        {
          "indexed": false,
          "internalType": "uint256",
          "name": "amount",
          "type": "uint256"
        },
        {
          "indexed": false,
          "internalType": "uint256",
          "name": "timestamp",
          "type": "uint256"
        },
        {
          "indexed": false,
          "internalType": "string",
          "name": "typeOfWithdrawal",
          "type": "string"
        }
      ],
      "name": "Withdrawn",
      "type": "event"
    },
    {
      "inputs": [
        {
          "internalType": "uint256",
          "name": "amount",
          "type": "uint256"
        }
      ],
      "name": "deposit",
      "outputs": [],
      "stateMutability": "nonpayable",
      "type": "function"
    },
    {
      "inputs": [],
      "name": "deposit",
      "outputs": [],
      "stateMutability": "payable",
      "type": "function"
    },
    {
      "inputs": [],
      "name": "owner",
      "outputs": [
        {
          "internalType": "address",
          "name": "",
          "type": "address"
        }
      ],
      "stateMutability": "view",
      "type": "function"
    },
    {
      "inputs": [],
      "name": "penaltyBps",
      "outputs": [
        {
          "internalType": "uint256",
          "name": "",
          "type": "uint256"
        }
      ],
      "stateMutability": "view",
      "type": "function"
    },
    {
      "inputs": [],
      "name": "purpose",
      "outputs": [
        {
          "internalType": "string",
          "name": "",
          "type": "string"
        }
      ],
      "stateMutability": "view",
      "type": "function"
    },
    {
      "inputs": [],
      "name": "renounceOwnership",
      "outputs": [],
      "stateMutability": "nonpayable",
      "type": "function"
    },
    {
      "inputs": [],
      "name": "token",
      "outputs": [
        {
          "internalType": "contract IERC20",
          "name": "",
          "type": "address"
        }
      ],
      "stateMutability": "view",
      "type": "function"
    },
    {
      "inputs": [],
      "name": "totalAssets",
      "outputs": [
        {
          "internalType": "uint256",
          "name": "",
          "type": "uint256"
        }
      ],
      "stateMutability": "view",
      "type": "function"
    },
    {
      "inputs": [
        {
          "internalType": "address",
          "name": "newOwner",
          "type": "address"
        }
      ],
      "name": "transferOwnership",
      "outputs": [],
      "stateMutability": "nonpayable",
      "type": "function"
    },
    {
      "inputs": [],
      "name": "treasury",
      "outputs": [
        {
          "internalType": "address",
          "name": "",
          "type": "address"
        }
      ],
      "stateMutability": "view",
      "type": "function"
    },
    {
      "inputs": [],
      "name": "unlockTimestamp",
      "outputs": [
        {
          "internalType": "uint256",
          "name": "",
          "type": "uint256"
        }
      ],
      "stateMutability": "view",
      "type": "function"
    },
    {
      "inputs": [],
      "name": "withdraw",
      "outputs": [],
      "stateMutability": "nonpayable",
      "type": "function"
    },
    {
      "stateMutability": "payable",
      "type": "receive"
    }
  ],
  "bytecode": "0x60a06040523480156200001157600080fd5b50604051620020923803806200209283398181016040528101906200003791906200059a565b848480600073ffffffffffffffffffffffffffffffffffffffff168173ffffffffffffffffffffffffffffffffffffffff1603620000af5760006040517f1e4fbdf7000000000000000000000000000000000000000000000000000000008152600401620000a6919062000666565b60405180910390fd5b620000c081620002a360201b60201c565b50600180819055508160029081620000d99190620008c4565b507f897cb1f7a5aced02f0fe4e37d9268d7509e5620fe53f2bfe685120bcb0c13a30826040516200010b9190620009fd565b60405180910390a15050600073ffffffffffffffffffffffffffffffffffffffff168673ffffffffffffffffffffffffffffffffffffffff160362000187576040517f08c379a00000000000000000000000000000000000000000000000000000000081526004016200017e9062000a71565b60405180910390fd5b428311620001cc576040517f08c379a0000000000000000000000000000000000000000000000000000000008152600401620001c39062000ae3565b60405180910390fd5b61271082111562000214576040517f08c379a00000000000000000000000000000000000000000000000000000000081526004016200020b9062000b55565b60405180910390fd5b8573ffffffffffffffffffffffffffffffffffffffff1660808173ffffffffffffffffffffffffffffffffffffffff1681525050826003819055508160048190555080600560006101000a81548173ffffffffffffffffffffffffffffffffffffffff021916908373ffffffffffffffffffffffffffffffffffffffff16021790555050505050505062000b77565b60008060009054906101000a900473ffffffffffffffffffffffffffffffffffffffff169050816000806101000a81548173ffffffffffffffffffffffffffffffffffffffff021916908373ffffffffffffffffffffffffffffffffffffffff1602179055508173ffffffffffffffffffffffffffffffffffffffff168173ffffffffffffffffffffffffffffffffffffffff167f8be0079c531659141344cd1fd0a4f28419497f9722a3daafe3b4186f6b6457e060405160405180910390a35050565b6000604051905090565b600080fd5b600080fd5b600073ffffffffffffffffffffffffffffffffffffffff82169050919050565b6000620003a8826200037b565b9050919050565b620003ba816200039b565b8114620003c657600080fd5b50565b600081519050620003da81620003af565b92915050565b600080fd5b600080fd5b6000601f19601f8301169050919050565b7f4e487b7100000000000000000000000000000000000000000000000000000000600052604160045260246000fd5b6200043582620003ea565b810181811067ffffffffffffffff82111715620004575762000456620003fb565b5b80604052505050565b60006200046c62000367565b90506200047a82826200042a565b919050565b600067ffffffffffffffff8211156200049d576200049c620003fb565b5b620004a882620003ea565b9050602081019050919050565b60005b83811015620004d5578082015181840152602081019050620004b8565b60008484015250505050565b6000620004f8620004f2846200047f565b62000460565b905082815260208101848484011115620005175762000516620003e5565b5b62000524848285620004b5565b509392505050565b600082601f830112620005445762000543620003e0565b5b815162000556848260208601620004e1565b91505092915050565b6000819050919050565b62000574816200055f565b81146200058057600080fd5b50565b600081519050620005948162000569565b92915050565b60008060008060008060c08789031215620005ba57620005b962000371565b5b6000620005ca89828a01620003c9565b965050602087015167ffffffffffffffff811115620005ee57620005ed62000376565b5b620005fc89828a016200052c565b95505060406200060f89828a01620003c9565b94505060606200062289828a0162000583565b93505060806200063589828a0162000583565b92505060a06200064889828a01620003c9565b9150509295509295509295565b62000660816200039b565b82525050565b60006020820190506200067d600083018462000655565b92915050565b600081519050919050565b7f4e487b7100000000000000000000000000000000000000000000000000000000600052602260045260246000fd5b60006002820490506001821680620006d657607f821691505b602082108103620006ec57620006eb6200068e565b5b50919050565b60008190508160005260206000209050919050565b60006020601f8301049050919050565b600082821b905092915050565b600060088302620007567fffffffffffffffffffffffffffffffffffffffffffffffffffffffffffffffff8262000717565b62000762868362000717565b95508019841693508086168417925050509392505050565b6000819050919050565b6000620007a56200079f62000799846200055f565b6200077a565b6200055f565b9050919050565b6000819050919050565b620007c18362000784565b620007d9620007d082620007ac565b84845462000724565b825550505050565b600090565b620007f0620007e1565b620007fd818484620007b6565b505050565b5b81811015620008255762000819600082620007e6565b60018101905062000803565b5050565b601f82111562000874576200083e81620006f2565b620008498462000707565b8101602085101562000859578190505b62000871620008688562000707565b83018262000802565b50505b505050565b600082821c905092915050565b6000620008996000198460080262000879565b1980831691505092915050565b6000620008b4838362000886565b9150826002028217905092915050565b620008cf8262000683565b67ffffffffffffffff811115620008eb57620008ea620003fb565b5b620008f78254620006bd565b6200090482828562000829565b600060209050601f8311600181146200093c576000841562000927578287015190505b620009338582620008a6565b865550620009a3565b601f1984166200094c86620006f2565b60005b8281101562000976578489015182556001820191506020850194506020810190506200094f565b8683101562000996578489015162000992601f89168262000886565b8355505b6001600288020188555050505b505050505050565b600082825260208201905092915050565b6000620009c98262000683565b620009d58185620009ab565b9350620009e7818560208601620004b5565b620009f281620003ea565b840191505092915050565b6000602082019050818103600083015262000a198184620009bc565b905092915050565b7f496e76616c696420746f6b656e20616464726573730000000000000000000000600082015250565b600062000a59601583620009ab565b915062000a668262000a21565b602082019050919050565b6000602082019050818103600083015262000a8c8162000a4a565b9050919050565b7f556e6c6f636b2074696d65206d75737420626520696e20667574757265000000600082015250565b600062000acb601d83620009ab565b915062000ad88262000a93565b602082019050919050565b6000602082019050818103600083015262000afe8162000abc565b9050919050565b7f496e76616c696420626173697320706f696e7473000000000000000000000000600082015250565b600062000b3d601483620009ab565b915062000b4a8262000b05565b602082019050919050565b6000602082019050818103600083015262000b708162000b2e565b9050919050565b6080516114d562000bbd600039600081816102da0152818161038b01528181610478015281816105c0015281816106150152818161085a0152610a4101526114d56000f3fe6080604052600436106100ab5760003560e01c8063aa082a9d11610064578063aa082a9d146101f5578063b6b55f2514610220578063d0e30db014610249578063ecfad9fd14610253578063f2fde38b1461027e578063fc0c546a146102a757610116565b806301e1d1141461011b5780633ccfd60b1461014657806361d027b31461015d57806370740aab14610188578063715018a6146101b35780638da5cb5b146101ca57610116565b36610116576000341115610114573373ffffffffffffffffffffffffffffffffffffffff167f73a19dd210f1a7f902193214c0ee91dd35ee5b4d920cba8d519eca65a7b488ca3442604051610101929190610dc1565b60405180910390a261011333346102d2565b5b005b600080fd5b34801561012757600080fd5b506101306102d6565b60405161013d9190610dea565b60405180910390f35b34801561015257600080fd5b5061015b610377565b005b34801561016957600080fd5b50610172610708565b60405161017f9190610e46565b60405180910390f35b34801561019457600080fd5b5061019d61072e565b6040516101aa9190610ef1565b60405180910390f35b3480156101bf57600080fd5b506101c86107bc565b005b3480156101d657600080fd5b506101df6107d0565b6040516101ec9190610e46565b60405180910390f35b34801561020157600080fd5b5061020a6107f9565b6040516102179190610dea565b60405180910390f35b34801561022c57600080fd5b5061024760048036038101906102429190610f44565b6107ff565b005b610251610904565b005b34801561025f57600080fd5b506102686109b3565b6040516102759190610dea565b60405180910390f35b34801561028a57600080fd5b506102a560048036038101906102a09190610f9d565b6109b9565b005b3480156102b357600080fd5b506102bc610a3f565b6040516102c99190611029565b60405180910390f35b5050565b60007f000000000000000000000000000000000000000000000000000000000000000073ffffffffffffffffffffffffffffffffffffffff166370a08231306040518263ffffffff1660e01b81526004016103319190610e46565b602060405180830381865afa15801561034e573d6000803e3d6000fd5b505050506040513d601f19601f820116820180604052508101906103729190611059565b905090565b61037f610a63565b610387610aea565b60007f000000000000000000000000000000000000000000000000000000000000000073ffffffffffffffffffffffffffffffffffffffff166370a08231306040518263ffffffff1660e01b81526004016103e29190610e46565b602060405180830381865afa1580156103ff573d6000803e3d6000fd5b505050506040513d601f19601f820116820180604052508101906104239190611059565b905060008111610468576040517f08c379a000000000000000000000000000000000000000000000000000000000815260040161045f906110d2565b60405180910390fd5b600354421061055f576104bc33827f000000000000000000000000000000000000000000000000000000000000000073ffffffffffffffffffffffffffffffffffffffff16610b309092919063ffffffff16565b3373ffffffffffffffffffffffffffffffffffffffff167f62116a798bb58cc967874bea4d771de2f9aeec6c64189ff2e5a551072f3106f9824260405161050492919061113e565b60405180910390a23373ffffffffffffffffffffffffffffffffffffffff167f779c86999fb727ca861d0288aa11ed4104347721c571e4f0da5172afb607d885826040516105529190610dea565b60405180910390a26106fd565b60006127106004548361057291906111a9565b61057c919061121a565b90506000818361058c919061124b565b9050600082111561060557610604600560009054906101000a900473ffffffffffffffffffffffffffffffffffffffff16837f000000000000000000000000000000000000000000000000000000000000000073ffffffffffffffffffffffffffffffffffffffff16610b309092919063ffffffff16565b5b600081111561065a5761065933827f000000000000000000000000000000000000000000000000000000000000000073ffffffffffffffffffffffffffffffffffffffff16610b309092919063ffffffff16565b5b3373ffffffffffffffffffffffffffffffffffffffff167f62116a798bb58cc967874bea4d771de2f9aeec6c64189ff2e5a551072f3106f982426040516106a29291906112cb565b60405180910390a23373ffffffffffffffffffffffffffffffffffffffff167f1670585e36568ede58d159518ce92cad99f75ad41c7d8281df3dd4eaa0c855d082846040516106f2929190610dc1565b60405180910390a250505b50610706610baf565b565b600560009054906101000a900473ffffffffffffffffffffffffffffffffffffffff1681565b6002805461073b90611336565b80601f016020809104026020016040519081016040528092919081815260200182805461076790611336565b80156107b45780601f10610789576101008083540402835291602001916107b4565b820191906000526020600020905b81548152906001019060200180831161079757829003601f168201915b505050505081565b6107c4610a63565b6107ce6000610bb8565b565b60008060009054906101000a900473ffffffffffffffffffffffffffffffffffffffff16905090565b60035481565b610807610a63565b61080f610aea565b60008111610852576040517f08c379a0000000000000000000000000000000000000000000000000000000008152600401610849906113b3565b60405180910390fd5b61089f3330837f000000000000000000000000000000000000000000000000000000000000000073ffffffffffffffffffffffffffffffffffffffff16610c7c909392919063ffffffff16565b3373ffffffffffffffffffffffffffffffffffffffff167f73a19dd210f1a7f902193214c0ee91dd35ee5b4d920cba8d519eca65a7b488ca82426040516108e7929190610dc1565b60405180910390a26108f933826102d2565b610901610baf565b50565b61090c610aea565b6000341161094f576040517f08c379a00000000000000000000000000000000000000000000000000000000081526004016109469061141f565b60405180910390fd5b3373ffffffffffffffffffffffffffffffffffffffff167f73a19dd210f1a7f902193214c0ee91dd35ee5b4d920cba8d519eca65a7b488ca3442604051610997929190610dc1565b60405180910390a26109a933346102d2565b6109b1610baf565b565b60045481565b6109c1610a63565b600073ffffffffffffffffffffffffffffffffffffffff168173ffffffffffffffffffffffffffffffffffffffff1603610a335760006040517f1e4fbdf7000000000000000000000000000000000000000000000000000000008152600401610a2a9190610e46565b60405180910390fd5b610a3c81610bb8565b50565b7f000000000000000000000000000000000000000000000000000000000000000081565b610a6b610cfe565b73ffffffffffffffffffffffffffffffffffffffff16610a896107d0565b73ffffffffffffffffffffffffffffffffffffffff1614610ae857610aac610cfe565b6040517f118cdaa7000000000000000000000000000000000000000000000000000000008152600401610adf9190610e46565b60405180910390fd5b565b600260015403610b26576040517f3ee5aeb500000000000000000000000000000000000000000000000000000000815260040160405180910390fd5b6002600181905550565b610baa838473ffffffffffffffffffffffffffffffffffffffff1663a9059cbb8585604051602401610b6392919061143f565b604051602081830303815290604052915060e01b6020820180517bffffffffffffffffffffffffffffffffffffffffffffffffffffffff8381831617835250505050610d06565b505050565b60018081905550565b60008060009054906101000a900473ffffffffffffffffffffffffffffffffffffffff169050816000806101000a81548173ffffffffffffffffffffffffffffffffffffffff021916908373ffffffffffffffffffffffffffffffffffffffff1602179055508173ffffffffffffffffffffffffffffffffffffffff168173ffffffffffffffffffffffffffffffffffffffff167f8be0079c531659141344cd1fd0a4f28419497f9722a3daafe3b4186f6b6457e060405160405180910390a35050565b610cf8848573ffffffffffffffffffffffffffffffffffffffff166323b872dd868686604051602401610cb193929190611468565b604051602081830303815290604052915060e01b6020820180517bffffffffffffffffffffffffffffffffffffffffffffffffffffffff8381831617835250505050610d06565b50505050565b600033905090565b600080602060008451602086016000885af180610d29576040513d6000823e3d81fd5b3d925060005191505060008214610d44576001811415610d60565b60008473ffffffffffffffffffffffffffffffffffffffff163b145b15610da257836040517f5274afe7000000000000000000000000000000000000000000000000000000008152600401610d999190610e46565b60405180910390fd5b50505050565b6000819050919050565b610dbb81610da8565b82525050565b6000604082019050610dd66000830185610db2565b610de36020830184610db2565b9392505050565b6000602082019050610dff6000830184610db2565b92915050565b600073ffffffffffffffffffffffffffffffffffffffff82169050919050565b6000610e3082610e05565b9050919050565b610e4081610e25565b82525050565b6000602082019050610e5b6000830184610e37565b92915050565b600081519050919050565b600082825260208201905092915050565b60005b83811015610e9b578082015181840152602081019050610e80565b60008484015250505050565b6000601f19601f8301169050919050565b6000610ec382610e61565b610ecd8185610e6c565b9350610edd818560208601610e7d565b610ee681610ea7565b840191505092915050565b60006020820190508181036000830152610f0b8184610eb8565b905092915050565b600080fd5b610f2181610da8565b8114610f2c57600080fd5b50565b600081359050610f3e81610f18565b92915050565b600060208284031215610f5a57610f59610f13565b5b6000610f6884828501610f2f565b91505092915050565b610f7a81610e25565b8114610f8557600080fd5b50565b600081359050610f9781610f71565b92915050565b600060208284031215610fb357610fb2610f13565b5b6000610fc184828501610f88565b91505092915050565b6000819050919050565b6000610fef610fea610fe584610e05565b610fca565b610e05565b9050919050565b600061100182610fd4565b9050919050565b600061101382610ff6565b9050919050565b61102381611008565b82525050565b600060208201905061103e600083018461101a565b92915050565b60008151905061105381610f18565b92915050565b60006020828403121561106f5761106e610f13565b5b600061107d84828501611044565b91505092915050565b7f4e6f2066756e647320746f207769746864726177000000000000000000000000600082015250565b60006110bc601483610e6c565b91506110c782611086565b602082019050919050565b600060208201905081810360008301526110eb816110af565b9050919050565b7f4d41545552495459000000000000000000000000000000000000000000000000600082015250565b6000611128600883610e6c565b9150611133826110f2565b602082019050919050565b60006060820190506111536000830185610db2565b6111606020830184610db2565b81810360408301526111718161111b565b90509392505050565b7f4e487b7100000000000000000000000000000000000000000000000000000000600052601160045260246000fd5b60006111b482610da8565b91506111bf83610da8565b92508282026111cd81610da8565b915082820484148315176111e4576111e361117a565b5b5092915050565b7f4e487b7100000000000000000000000000000000000000000000000000000000600052601260045260246000fd5b600061122582610da8565b915061123083610da8565b9250826112405761123f6111eb565b5b828204905092915050565b600061125682610da8565b915061126183610da8565b92508282039050818111156112795761127861117a565b5b92915050565b7f4541524c595f4558495400000000000000000000000000000000000000000000600082015250565b60006112b5600a83610e6c565b91506112c08261127f565b602082019050919050565b60006060820190506112e06000830185610db2565b6112ed6020830184610db2565b81810360408301526112fe816112a8565b90509392505050565b7f4e487b7100000000000000000000000000000000000000000000000000000000600052602260045260246000fd5b6000600282049050600182168061134e57607f821691505b60208210810361136157611360611307565b5b50919050565b7f416d6f756e74206d7573742062652067726561746572207468616e2030000000600082015250565b600061139d601d83610e6c565b91506113a882611367565b602082019050919050565b600060208201905081810360008301526113cc81611390565b9050919050565b7f416d6f756e74206d757374206265203e20300000000000000000000000000000600082015250565b6000611409601283610e6c565b9150611414826113d3565b602082019050919050565b60006020820190508181036000830152611438816113fc565b9050919050565b60006040820190506114546000830185610e37565b6114616020830184610db2565b9392505050565b600060608201905061147d6000830186610e37565b61148a6020830185610e37565b6114976040830184610db2565b94935050505056fea2646970667358221220eef3ea804974e56c8dc9458a78c5f8a2263291bccc2795b7bbb824a8806523c064736f6c63430008140033",
  "linkReferences": {},
  "deployedLinkReferences": {}
}