{
  "_format": "hh-sol-artifact-1",
  "contractName": "PersonalVault",
  "sourceName": "contracts/PersonalVault.sol",
  "abi": [
    {
      "inputs": [
        {
          "internalType": "address",
          "name": "_token",
          "type": "address"
        },
        {
          "internalType": "address",
          "name": "_kToken",
          "type": "address"
        },
        {
          "internalType": "string",
          "name": "_purpose",
          "type": "string"
        },
        {
          "internalType": "address",
          "name": "_owner",
          "type": "address"
        },
        {
          "internalType": "uint256",
          "name": "_unlockTimestamp",
          "type": "uint256"
        },
        {
          "internalType": "uint256",
          "name": "_penaltyBps",
          "type": "uint256"
        },
        {
          "internalType": "address",
          "name": "_treasury",
          "type": "address"
        }
      ],
      "stateMutability": "nonpayable",
      "type": "constructor"
    },
    {
      "inputs": [
        {
          "internalType": "address",
          "name": "owner",
          "type": "address"
        }
      ],
      "name": "OwnableInvalidOwner",
      "type": "error"
    },
    {
      "inputs": [
        {
          "internalType": "address",
          "name": "account",
          "type": "address"
        }
      ],
      "name": "OwnableUnauthorizedAccount",
      "type": "error"
    },
    {
      "inputs": [],
      "name": "ReentrancyGuardReentrantCall",
      "type": "error"
    },
    {
      "inputs": [
        {
          "internalType": "address",
          "name": "token",
          "type": "address"
        }
      ],
      "name": "SafeERC20FailedOperation",
      "type": "error"
    },
    {
      "anonymous": false,
      "inputs": [
        {
          "indexed": true,
          "internalType": "address",
          "name": "user",
          "type": "address"
        },
        {
          "indexed": false,
          "internalType": "uint256",
          "name": "amount",
          "type": "uint256"
        },
        {
          "indexed": false,
          "internalType": "uint256",
          "name": "timestamp",
          "type": "uint256"
        }
      ],
      "name": "Deposited",
      "type": "event"
    },
    {
      "anonymous": false,
      "inputs": [
        {
          "indexed": true,
          "internalType": "address",
          "name": "user",
          "type": "address"
        },
        {
          "indexed": false,
          "internalType": "uint256",
          "name": "amountWithdraw",
          "type": "uint256"
        },
        {
          "indexed": false,
          "internalType": "uint256",
          "name": "penaltyPaid",
          "type": "uint256"
        }
      ],
      "name": "EarlyWithdrawal",
      "type": "event"
    },
    {
      "anonymous": false,
      "inputs": [
        {
          "indexed": true,
          "internalType": "address",
          "name": "user",
          "type": "address"
        },
        {
          "indexed": false,
          "internalType": "uint256",
          "name": "amount",
          "type": "uint256"
        }
      ],
      "name": "FullWithdrawal",
      "type": "event"
    },
    {
      "anonymous": false,
      "inputs": [
        {
          "indexed": true,
          "internalType": "address",
          "name": "previousOwner",
          "type": "address"
        },
        {
          "indexed": true,
          "internalType": "address",
          "name": "newOwner",
          "type": "address"
        }
      ],
      "name": "OwnershipTransferred",
      "type": "event"
    },
    {
      "anonymous": false,
      "inputs": [
        {
          "indexed": false,
          "internalType": "string",
          "name": "purpose",
          "type": "string"
        }
      ],
      "name": "VaultInitialized",
      "type": "event"
    },
    {
      "anonymous": false,
      "inputs": [
        {
          "indexed": true,
          "internalType": "address",
          "name": "user",
          "type": "address"
        },
        {
          "indexed": false,
          "internalType": "uint256",
          "name": "amount",
          "type": "uint256"
        },
        {
          "indexed": false,
          "internalType": "uint256",
          "name": "timestamp",
          "type": "uint256"
        },
        {
          "indexed": false,
          "internalType": "string",
          "name": "typeOfWithdrawal",
          "type": "string"
        }
      ],
      "name": "Withdrawn",
      "type": "event"
    },
    {
      "inputs": [
        {
          "internalType": "uint256",
          "name": "amount",
          "type": "uint256"
        }
      ],
      "name": "deposit",
      "outputs": [],
      "stateMutability": "nonpayable",
      "type": "function"
    },
    {
      "inputs": [],
      "name": "deposit",
      "outputs": [],
      "stateMutability": "payable",
      "type": "function"
    },
    {
      "inputs": [],
      "name": "factory",
      "outputs": [
        {
          "internalType": "address",
          "name": "",
          "type": "address"
        }
      ],
      "stateMutability": "view",
      "type": "function"
    },
    {
      "inputs": [],
      "name": "initialDeposit",
      "outputs": [],
      "stateMutability": "nonpayable",
      "type": "function"
    },
    {
      "inputs": [],
      "name": "kToken",
      "outputs": [
        {
          "internalType": "contract IKToken",
          "name": "",
          "type": "address"
        }
      ],
      "stateMutability": "view",
      "type": "function"
    },
    {
      "inputs": [],
      "name": "owner",
      "outputs": [
        {
          "internalType": "address",
          "name": "",
          "type": "address"
        }
      ],
      "stateMutability": "view",
      "type": "function"
    },
    {
      "inputs": [],
      "name": "penaltyBps",
      "outputs": [
        {
          "internalType": "uint256",
          "name": "",
          "type": "uint256"
        }
      ],
      "stateMutability": "view",
      "type": "function"
    },
    {
      "inputs": [],
      "name": "principal",
      "outputs": [
        {
          "internalType": "uint256",
          "name": "",
          "type": "uint256"
        }
      ],
      "stateMutability": "view",
      "type": "function"
    },
    {
      "inputs": [],
      "name": "purpose",
      "outputs": [
        {
          "internalType": "string",
          "name": "",
          "type": "string"
        }
      ],
      "stateMutability": "view",
      "type": "function"
    },
    {
      "inputs": [],
      "name": "renounceOwnership",
      "outputs": [],
      "stateMutability": "nonpayable",
      "type": "function"
    },
    {
      "inputs": [],
      "name": "token",
      "outputs": [
        {
          "internalType": "contract IERC20",
          "name": "",
          "type": "address"
        }
      ],
      "stateMutability": "view",
      "type": "function"
    },
    {
      "inputs": [],
      "name": "totalAssets",
      "outputs": [
        {
          "internalType": "uint256",
          "name": "",
          "type": "uint256"
        }
      ],
      "stateMutability": "view",
      "type": "function"
    },
    {
      "inputs": [
        {
          "internalType": "address",
          "name": "newOwner",
          "type": "address"
        }
      ],
      "name": "transferOwnership",
      "outputs": [],
      "stateMutability": "nonpayable",
      "type": "function"
    },
    {
      "inputs": [],
      "name": "treasury",
      "outputs": [
        {
          "internalType": "address",
          "name": "",
          "type": "address"
        }
      ],
      "stateMutability": "view",
      "type": "function"
    },
    {
      "inputs": [],
      "name": "unlockTimestamp",
      "outputs": [
        {
          "internalType": "uint256",
          "name": "",
          "type": "uint256"
        }
      ],
      "stateMutability": "view",
      "type": "function"
    },
    {
      "inputs": [],
      "name": "withdraw",
      "outputs": [],
      "stateMutability": "nonpayable",
      "type": "function"
    },
    {
      "stateMutability": "payable",
      "type": "receive"
    }
  ],
  "bytecode": "0x60e06040523480156200001157600080fd5b5060405162002de538038062002de5833981810160405281019062000037919062000675565b848480600073ffffffffffffffffffffffffffffffffffffffff168173ffffffffffffffffffffffffffffffffffffffff1603620000af5760006040517f1e4fbdf7000000000000000000000000000000000000000000000000000000008152600401620000a6919062000758565b60405180910390fd5b620000c0816200037e60201b60201c565b50600180819055508160029081620000d99190620009b6565b507f897cb1f7a5aced02f0fe4e37d9268d7509e5620fe53f2bfe685120bcb0c13a30826040516200010b919062000aef565b60405180910390a15050600073ffffffffffffffffffffffffffffffffffffffff168773ffffffffffffffffffffffffffffffffffffffff160362000187576040517f08c379a00000000000000000000000000000000000000000000000000000000081526004016200017e9062000b63565b60405180910390fd5b600073ffffffffffffffffffffffffffffffffffffffff168673ffffffffffffffffffffffffffffffffffffffff1603620001f9576040517f08c379a0000000000000000000000000000000000000000000000000000000008152600401620001f09062000bd5565b60405180910390fd5b4283116200023e576040517f08c379a0000000000000000000000000000000000000000000000000000000008152600401620002359062000c47565b60405180910390fd5b61271082111562000286576040517f08c379a00000000000000000000000000000000000000000000000000000000081526004016200027d9062000cb9565b60405180910390fd5b8673ffffffffffffffffffffffffffffffffffffffff1660808173ffffffffffffffffffffffffffffffffffffffff16815250508573ffffffffffffffffffffffffffffffffffffffff1660a08173ffffffffffffffffffffffffffffffffffffffff16815250503373ffffffffffffffffffffffffffffffffffffffff1660c08173ffffffffffffffffffffffffffffffffffffffff1681525050826003819055508160048190555080600560006101000a81548173ffffffffffffffffffffffffffffffffffffffff021916908373ffffffffffffffffffffffffffffffffffffffff1602179055505050505050505062000cdb565b60008060009054906101000a900473ffffffffffffffffffffffffffffffffffffffff169050816000806101000a81548173ffffffffffffffffffffffffffffffffffffffff021916908373ffffffffffffffffffffffffffffffffffffffff1602179055508173ffffffffffffffffffffffffffffffffffffffff168173ffffffffffffffffffffffffffffffffffffffff167f8be0079c531659141344cd1fd0a4f28419497f9722a3daafe3b4186f6b6457e060405160405180910390a35050565b6000604051905090565b600080fd5b600080fd5b600073ffffffffffffffffffffffffffffffffffffffff82169050919050565b6000620004838262000456565b9050919050565b620004958162000476565b8114620004a157600080fd5b50565b600081519050620004b5816200048a565b92915050565b600080fd5b600080fd5b6000601f19601f8301169050919050565b7f4e487b7100000000000000000000000000000000000000000000000000000000600052604160045260246000fd5b6200051082620004c5565b810181811067ffffffffffffffff82111715620005325762000531620004d6565b5b80604052505050565b60006200054762000442565b905062000555828262000505565b919050565b600067ffffffffffffffff821115620005785762000577620004d6565b5b6200058382620004c5565b9050602081019050919050565b60005b83811015620005b057808201518184015260208101905062000593565b60008484015250505050565b6000620005d3620005cd846200055a565b6200053b565b905082815260208101848484011115620005f257620005f1620004c0565b5b620005ff84828562000590565b509392505050565b600082601f8301126200061f576200061e620004bb565b5b815162000631848260208601620005bc565b91505092915050565b6000819050919050565b6200064f816200063a565b81146200065b57600080fd5b50565b6000815190506200066f8162000644565b92915050565b600080600080600080600060e0888a0312156200069757620006966200044c565b5b6000620006a78a828b01620004a4565b9750506020620006ba8a828b01620004a4565b965050604088015167ffffffffffffffff811115620006de57620006dd62000451565b5b620006ec8a828b0162000607565b9550506060620006ff8a828b01620004a4565b9450506080620007128a828b016200065e565b93505060a0620007258a828b016200065e565b92505060c0620007388a828b01620004a4565b91505092959891949750929550565b620007528162000476565b82525050565b60006020820190506200076f600083018462000747565b92915050565b600081519050919050565b7f4e487b7100000000000000000000000000000000000000000000000000000000600052602260045260246000fd5b60006002820490506001821680620007c857607f821691505b602082108103620007de57620007dd62000780565b5b50919050565b60008190508160005260206000209050919050565b60006020601f8301049050919050565b600082821b905092915050565b600060088302620008487fffffffffffffffffffffffffffffffffffffffffffffffffffffffffffffffff8262000809565b62000854868362000809565b95508019841693508086168417925050509392505050565b6000819050919050565b600062000897620008916200088b846200063a565b6200086c565b6200063a565b9050919050565b6000819050919050565b620008b38362000876565b620008cb620008c2826200089e565b84845462000816565b825550505050565b600090565b620008e2620008d3565b620008ef818484620008a8565b505050565b5b8181101562000917576200090b600082620008d8565b600181019050620008f5565b5050565b601f82111562000966576200093081620007e4565b6200093b84620007f9565b810160208510156200094b578190505b620009636200095a85620007f9565b830182620008f4565b50505b505050565b600082821c905092915050565b60006200098b600019846008026200096b565b1980831691505092915050565b6000620009a6838362000978565b9150826002028217905092915050565b620009c18262000775565b67ffffffffffffffff811115620009dd57620009dc620004d6565b5b620009e98254620007af565b620009f68282856200091b565b600060209050601f83116001811462000a2e576000841562000a19578287015190505b62000a25858262000998565b86555062000a95565b601f19841662000a3e86620007e4565b60005b8281101562000a685784890151825560018201915060208501945060208101905062000a41565b8683101562000a88578489015162000a84601f89168262000978565b8355505b6001600288020188555050505b505050505050565b600082825260208201905092915050565b600062000abb8262000775565b62000ac7818562000a9d565b935062000ad981856020860162000590565b62000ae481620004c5565b840191505092915050565b6000602082019050818103600083015262000b0b818462000aae565b905092915050565b7f496e76616c696420746f6b656e20616464726573730000000000000000000000600082015250565b600062000b4b60158362000a9d565b915062000b588262000b13565b602082019050919050565b6000602082019050818103600083015262000b7e8162000b3c565b9050919050565b7f496e76616c6964206b546f6b656e206164647265737300000000000000000000600082015250565b600062000bbd60168362000a9d565b915062000bca8262000b85565b602082019050919050565b6000602082019050818103600083015262000bf08162000bae565b9050919050565b7f556e6c6f636b2074696d65206d75737420626520696e20667574757265000000600082015250565b600062000c2f601d8362000a9d565b915062000c3c8262000bf7565b602082019050919050565b6000602082019050818103600083015262000c628162000c20565b9050919050565b7f496e76616c696420626173697320706f696e7473000000000000000000000000600082015250565b600062000ca160148362000a9d565b915062000cae8262000c69565b602082019050919050565b6000602082019050818103600083015262000cd48162000c92565b9050919050565b60805160a05160c05161205c62000d8960003960008181610ebc0152610f8f0152600081816103bf0152818161045d015281816105140152818161054a0152818161062d015281816106cb01528181610cf001528181610d750152818161115301526111d80152600081816107a901528181610853015281816109af01528181610a0401528181610c5401528181610cb40152818161101f015281816111170152611343015261205c6000f3fe6080604052600436106100f75760003560e01c8063b6b55f251161008a578063e037f88911610059578063e037f88914610320578063ecfad9fd14610337578063f2fde38b14610362578063fc0c546a1461038b57610162565b8063b6b55f2514610297578063ba5d3078146102c0578063c45a0155146102eb578063d0e30db01461031657610162565b806370740aab116100c657806370740aab146101ff578063715018a61461022a5780638da5cb5b14610241578063aa082a9d1461026c57610162565b806301e1d11414610167578063223c19f9146101925780633ccfd60b146101bd57806361d027b3146101d457610162565b36610162576000341115610160573373ffffffffffffffffffffffffffffffffffffffff167f73a19dd210f1a7f902193214c0ee91dd35ee5b4d920cba8d519eca65a7b488ca344260405161014d9291906116c3565b60405180910390a261015f33346103b6565b5b005b600080fd5b34801561017357600080fd5b5061017c6103ba565b60405161018991906116ec565b60405180910390f35b34801561019e57600080fd5b506101a7610512565b6040516101b49190611786565b60405180910390f35b3480156101c957600080fd5b506101d2610536565b005b3480156101e057600080fd5b506101e9610b02565b6040516101f691906117c2565b60405180910390f35b34801561020b57600080fd5b50610214610b28565b604051610221919061186d565b60405180910390f35b34801561023657600080fd5b5061023f610bb6565b005b34801561024d57600080fd5b50610256610bca565b60405161026391906117c2565b60405180910390f35b34801561027857600080fd5b50610281610bf3565b60405161028e91906116ec565b60405180910390f35b3480156102a357600080fd5b506102be60048036038101906102b991906118c0565b610bf9565b005b3480156102cc57600080fd5b506102d5610eb4565b6040516102e291906116ec565b60405180910390f35b3480156102f757600080fd5b50610300610eba565b60405161030d91906117c2565b60405180910390f35b61031e610ede565b005b34801561032c57600080fd5b50610335610f8d565b005b34801561034357600080fd5b5061034c6112b5565b60405161035991906116ec565b60405180910390f35b34801561036e57600080fd5b5061038960048036038101906103849190611919565b6112bb565b005b34801561039757600080fd5b506103a0611341565b6040516103ad9190611967565b60405180910390f35b5050565b6000807f000000000000000000000000000000000000000000000000000000000000000073ffffffffffffffffffffffffffffffffffffffff166370a08231306040518263ffffffff1660e01b815260040161041691906117c2565b602060405180830381865afa158015610433573d6000803e3d6000fd5b505050506040513d601f19601f820116820180604052508101906104579190611997565b905060007f000000000000000000000000000000000000000000000000000000000000000073ffffffffffffffffffffffffffffffffffffffff1663182df0f56040518163ffffffff1660e01b8152600401602060405180830381865afa1580156104c6573d6000803e3d6000fd5b505050506040513d601f19601f820116820180604052508101906104ea9190611997565b9050670de0b6b3a7640000818361050191906119f3565b61050b9190611a64565b9250505090565b7f000000000000000000000000000000000000000000000000000000000000000081565b61053e611365565b6105466113ec565b60007f000000000000000000000000000000000000000000000000000000000000000073ffffffffffffffffffffffffffffffffffffffff16633af9e669306040518263ffffffff1660e01b81526004016105a191906117c2565b6020604051808303816000875af11580156105c0573d6000803e3d6000fd5b505050506040513d601f19601f820116820180604052508101906105e49190611997565b905060008111610629576040517f08c379a000000000000000000000000000000000000000000000000000000000815260040161062090611ae1565b60405180910390fd5b60007f000000000000000000000000000000000000000000000000000000000000000073ffffffffffffffffffffffffffffffffffffffff166370a08231306040518263ffffffff1660e01b815260040161068491906117c2565b602060405180830381865afa1580156106a1573d6000803e3d6000fd5b505050506040513d601f19601f820116820180604052508101906106c59190611997565b905060007f000000000000000000000000000000000000000000000000000000000000000073ffffffffffffffffffffffffffffffffffffffff1663db006a75836040518263ffffffff1660e01b815260040161072291906116ec565b6020604051808303816000875af1158015610741573d6000803e3d6000fd5b505050506040513d601f19601f820116820180604052508101906107659190611997565b146107a5576040517f08c379a000000000000000000000000000000000000000000000000000000000815260040161079c90611b4d565b60405180910390fd5b60007f000000000000000000000000000000000000000000000000000000000000000073ffffffffffffffffffffffffffffffffffffffff166370a08231306040518263ffffffff1660e01b815260040161080091906117c2565b602060405180830381865afa15801561081d573d6000803e3d6000fd5b505050506040513d601f19601f820116820180604052508101906108419190611997565b9050600354421061093a5761089733827f000000000000000000000000000000000000000000000000000000000000000073ffffffffffffffffffffffffffffffffffffffff166114329092919063ffffffff16565b3373ffffffffffffffffffffffffffffffffffffffff167f62116a798bb58cc967874bea4d771de2f9aeec6c64189ff2e5a551072f3106f982426040516108df929190611bb9565b60405180910390a23373ffffffffffffffffffffffffffffffffffffffff167f779c86999fb727ca861d0288aa11ed4104347721c571e4f0da5172afb607d8858260405161092d91906116ec565b60405180910390a2610aed565b600061271060045460065461094f91906119f3565b6109599190611a64565b905060008160065461096b9190611bf5565b90506000818461097b9190611bf5565b905060008111156109f4576109f3600560009054906101000a900473ffffffffffffffffffffffffffffffffffffffff16827f000000000000000000000000000000000000000000000000000000000000000073ffffffffffffffffffffffffffffffffffffffff166114329092919063ffffffff16565b5b6000821115610a4957610a4833837f000000000000000000000000000000000000000000000000000000000000000073ffffffffffffffffffffffffffffffffffffffff166114329092919063ffffffff16565b5b3373ffffffffffffffffffffffffffffffffffffffff167f62116a798bb58cc967874bea4d771de2f9aeec6c64189ff2e5a551072f3106f98342604051610a91929190611c75565b60405180910390a23373ffffffffffffffffffffffffffffffffffffffff167f1670585e36568ede58d159518ce92cad99f75ad41c7d8281df3dd4eaa0c855d08385604051610ae19291906116c3565b60405180910390a25050505b6000600681905550505050610b006114b1565b565b600560009054906101000a900473ffffffffffffffffffffffffffffffffffffffff1681565b60028054610b3590611ce0565b80601f0160208091040260200160405190810160405280929190818152602001828054610b6190611ce0565b8015610bae5780601f10610b8357610100808354040283529160200191610bae565b820191906000526020600020905b815481529060010190602001808311610b9157829003601f168201915b505050505081565b610bbe611365565b610bc860006114ba565b565b60008060009054906101000a900473ffffffffffffffffffffffffffffffffffffffff16905090565b60035481565b610c01611365565b610c096113ec565b60008111610c4c576040517f08c379a0000000000000000000000000000000000000000000000000000000008152600401610c4390611d5d565b60405180910390fd5b610c993330837f000000000000000000000000000000000000000000000000000000000000000073ffffffffffffffffffffffffffffffffffffffff1661157e909392919063ffffffff16565b8060066000828254610cab9190611d7d565b925050819055507f000000000000000000000000000000000000000000000000000000000000000073ffffffffffffffffffffffffffffffffffffffff1663095ea7b37f0000000000000000000000000000000000000000000000000000000000000000836040518363ffffffff1660e01b8152600401610d2d929190611db1565b6020604051808303816000875af1158015610d4c573d6000803e3d6000fd5b505050506040513d601f19601f82011682018060405250810190610d709190611e12565b5060007f000000000000000000000000000000000000000000000000000000000000000073ffffffffffffffffffffffffffffffffffffffff1663a0712d68836040518263ffffffff1660e01b8152600401610dcc91906116ec565b6020604051808303816000875af1158015610deb573d6000803e3d6000fd5b505050506040513d601f19601f82011682018060405250810190610e0f9190611997565b14610e4f576040517f08c379a0000000000000000000000000000000000000000000000000000000008152600401610e4690611e8b565b60405180910390fd5b3373ffffffffffffffffffffffffffffffffffffffff167f73a19dd210f1a7f902193214c0ee91dd35ee5b4d920cba8d519eca65a7b488ca8242604051610e979291906116c3565b60405180910390a2610ea933826103b6565b610eb16114b1565b50565b60065481565b7f000000000000000000000000000000000000000000000000000000000000000081565b610ee66113ec565b60003411610f29576040517f08c379a0000000000000000000000000000000000000000000000000000000008152600401610f2090611ef7565b60405180910390fd5b3373ffffffffffffffffffffffffffffffffffffffff167f73a19dd210f1a7f902193214c0ee91dd35ee5b4d920cba8d519eca65a7b488ca3442604051610f719291906116c3565b60405180910390a2610f8333346103b6565b610f8b6114b1565b565b7f000000000000000000000000000000000000000000000000000000000000000073ffffffffffffffffffffffffffffffffffffffff163373ffffffffffffffffffffffffffffffffffffffff161461101b576040517f08c379a000000000000000000000000000000000000000000000000000000000815260040161101290611f63565b60405180910390fd5b60007f000000000000000000000000000000000000000000000000000000000000000073ffffffffffffffffffffffffffffffffffffffff166370a08231306040518263ffffffff1660e01b815260040161107691906117c2565b602060405180830381865afa158015611093573d6000803e3d6000fd5b505050506040513d601f19601f820116820180604052508101906110b79190611997565b9050600081116110fc576040517f08c379a00000000000000000000000000000000000000000000000000000000081526004016110f390611fcf565b60405180910390fd5b806006600082825461110e9190611d7d565b925050819055507f000000000000000000000000000000000000000000000000000000000000000073ffffffffffffffffffffffffffffffffffffffff1663095ea7b37f0000000000000000000000000000000000000000000000000000000000000000836040518363ffffffff1660e01b8152600401611190929190611db1565b6020604051808303816000875af11580156111af573d6000803e3d6000fd5b505050506040513d601f19601f820116820180604052508101906111d39190611e12565b5060007f000000000000000000000000000000000000000000000000000000000000000073ffffffffffffffffffffffffffffffffffffffff1663a0712d68836040518263ffffffff1660e01b815260040161122f91906116ec565b6020604051808303816000875af115801561124e573d6000803e3d6000fd5b505050506040513d601f19601f820116820180604052508101906112729190611997565b146112b2576040517f08c379a00000000000000000000000000000000000000000000000000000000081526004016112a990611e8b565b60405180910390fd5b50565b60045481565b6112c3611365565b600073ffffffffffffffffffffffffffffffffffffffff168173ffffffffffffffffffffffffffffffffffffffff16036113355760006040517f1e4fbdf700000000000000000000000000000000000000000000000000000000815260040161132c91906117c2565b60405180910390fd5b61133e816114ba565b50565b7f000000000000000000000000000000000000000000000000000000000000000081565b61136d611600565b73ffffffffffffffffffffffffffffffffffffffff1661138b610bca565b73ffffffffffffffffffffffffffffffffffffffff16146113ea576113ae611600565b6040517f118cdaa70000000000000000000000000000000000000000000000000000000081526004016113e191906117c2565b60405180910390fd5b565b600260015403611428576040517f3ee5aeb500000000000000000000000000000000000000000000000000000000815260040160405180910390fd5b6002600181905550565b6114ac838473ffffffffffffffffffffffffffffffffffffffff1663a9059cbb8585604051602401611465929190611db1565b604051602081830303815290604052915060e01b6020820180517bffffffffffffffffffffffffffffffffffffffffffffffffffffffff8381831617835250505050611608565b505050565b60018081905550565b60008060009054906101000a900473ffffffffffffffffffffffffffffffffffffffff169050816000806101000a81548173ffffffffffffffffffffffffffffffffffffffff021916908373ffffffffffffffffffffffffffffffffffffffff1602179055508173ffffffffffffffffffffffffffffffffffffffff168173ffffffffffffffffffffffffffffffffffffffff167f8be0079c531659141344cd1fd0a4f28419497f9722a3daafe3b4186f6b6457e060405160405180910390a35050565b6115fa848573ffffffffffffffffffffffffffffffffffffffff166323b872dd8686866040516024016115b393929190611fef565b604051602081830303815290604052915060e01b6020820180517bffffffffffffffffffffffffffffffffffffffffffffffffffffffff8381831617835250505050611608565b50505050565b600033905090565b600080602060008451602086016000885af18061162b576040513d6000823e3d81fd5b3d925060005191505060008214611646576001811415611662565b60008473ffffffffffffffffffffffffffffffffffffffff163b145b156116a457836040517f5274afe700000000000000000000000000000000000000000000000000000000815260040161169b91906117c2565b60405180910390fd5b50505050565b6000819050919050565b6116bd816116aa565b82525050565b60006040820190506116d860008301856116b4565b6116e560208301846116b4565b9392505050565b600060208201905061170160008301846116b4565b92915050565b600073ffffffffffffffffffffffffffffffffffffffff82169050919050565b6000819050919050565b600061174c61174761174284611707565b611727565b611707565b9050919050565b600061175e82611731565b9050919050565b600061177082611753565b9050919050565b61178081611765565b82525050565b600060208201905061179b6000830184611777565b92915050565b60006117ac82611707565b9050919050565b6117bc816117a1565b82525050565b60006020820190506117d760008301846117b3565b92915050565b600081519050919050565b600082825260208201905092915050565b60005b838110156118175780820151818401526020810190506117fc565b60008484015250505050565b6000601f19601f8301169050919050565b600061183f826117dd565b61184981856117e8565b93506118598185602086016117f9565b61186281611823565b840191505092915050565b600060208201905081810360008301526118878184611834565b905092915050565b600080fd5b61189d816116aa565b81146118a857600080fd5b50565b6000813590506118ba81611894565b92915050565b6000602082840312156118d6576118d561188f565b5b60006118e4848285016118ab565b91505092915050565b6118f6816117a1565b811461190157600080fd5b50565b600081359050611913816118ed565b92915050565b60006020828403121561192f5761192e61188f565b5b600061193d84828501611904565b91505092915050565b600061195182611753565b9050919050565b61196181611946565b82525050565b600060208201905061197c6000830184611958565b92915050565b60008151905061199181611894565b92915050565b6000602082840312156119ad576119ac61188f565b5b60006119bb84828501611982565b91505092915050565b7f4e487b7100000000000000000000000000000000000000000000000000000000600052601160045260246000fd5b60006119fe826116aa565b9150611a09836116aa565b9250828202611a17816116aa565b91508282048414831517611a2e57611a2d6119c4565b5b5092915050565b7f4e487b7100000000000000000000000000000000000000000000000000000000600052601260045260246000fd5b6000611a6f826116aa565b9150611a7a836116aa565b925082611a8a57611a89611a35565b5b828204905092915050565b7f4e6f2066756e647320696e207661756c74000000000000000000000000000000600082015250565b6000611acb6011836117e8565b9150611ad682611a95565b602082019050919050565b60006020820190508181036000830152611afa81611abe565b9050919050565b7f4b696e657469632072656465656d206661696c65640000000000000000000000600082015250565b6000611b376015836117e8565b9150611b4282611b01565b602082019050919050565b60006020820190508181036000830152611b6681611b2a565b9050919050565b7f474f414c5f524541434845440000000000000000000000000000000000000000600082015250565b6000611ba3600c836117e8565b9150611bae82611b6d565b602082019050919050565b6000606082019050611bce60008301856116b4565b611bdb60208301846116b4565b8181036040830152611bec81611b96565b90509392505050565b6000611c00826116aa565b9150611c0b836116aa565b9250828203905081811115611c2357611c226119c4565b5b92915050565b7f4541524c595f4558495400000000000000000000000000000000000000000000600082015250565b6000611c5f600a836117e8565b9150611c6a82611c29565b602082019050919050565b6000606082019050611c8a60008301856116b4565b611c9760208301846116b4565b8181036040830152611ca881611c52565b90509392505050565b7f4e487b7100000000000000000000000000000000000000000000000000000000600052602260045260246000fd5b60006002820490506001821680611cf857607f821691505b602082108103611d0b57611d0a611cb1565b5b50919050565b7f416d6f756e74206d7573742062652067726561746572207468616e2030000000600082015250565b6000611d47601d836117e8565b9150611d5282611d11565b602082019050919050565b60006020820190508181036000830152611d7681611d3a565b9050919050565b6000611d88826116aa565b9150611d93836116aa565b9250828201905080821115611dab57611daa6119c4565b5b92915050565b6000604082019050611dc660008301856117b3565b611dd360208301846116b4565b9392505050565b60008115159050919050565b611def81611dda565b8114611dfa57600080fd5b50565b600081519050611e0c81611de6565b92915050565b600060208284031215611e2857611e2761188f565b5b6000611e3684828501611dfd565b91505092915050565b7f4b696e6574696320737570706c79206661696c65640000000000000000000000600082015250565b6000611e756015836117e8565b9150611e8082611e3f565b602082019050919050565b60006020820190508181036000830152611ea481611e68565b9050919050565b7f416d6f756e74206d757374206265203e20300000000000000000000000000000600082015250565b6000611ee16012836117e8565b9150611eec82611eab565b602082019050919050565b60006020820190508181036000830152611f1081611ed4565b9050919050565b7f4f6e6c7920666163746f72790000000000000000000000000000000000000000600082015250565b6000611f4d600c836117e8565b9150611f5882611f17565b602082019050919050565b60006020820190508181036000830152611f7c81611f40565b9050919050565b7f416d6f756e74203e203000000000000000000000000000000000000000000000600082015250565b6000611fb9600a836117e8565b9150611fc482611f83565b602082019050919050565b60006020820190508181036000830152611fe881611fac565b9050919050565b600060608201905061200460008301866117b3565b61201160208301856117b3565b61201e60408301846116b4565b94935050505056fea26469706673582212205785b804ad6e4ef857fe13c7152f78b89c2959b8c498207718995b1307fc78ec64736f6c63430008140033",
  "linkReferences": {},
  "deployedLinkReferences": {}
}