{
  "_format": "hh-sol-artifact-1",
  "contractName": "VaultFactory",
  "sourceName": "contracts/VaultFactory.sol",
  "abi": [
    {
      "inputs": [
        {
          "internalType": "address",
          "name": "_usdtToken",
          "type": "address"
        },
        {
          "internalType": "address",
          "name": "_protocolTreasury",
          "type": "address"
        }
      ],
      "stateMutability": "nonpayable",
      "type": "constructor"
    },
    {
      "inputs": [
        {
          "internalType": "address",
          "name": "token",
          "type": "address"
        }
      ],
      "name": "SafeERC20FailedOperation",
      "type": "error"
    },
    {
      "anonymous": false,
      "inputs": [
        {
          "indexed": true,
          "internalType": "address",
          "name": "vaultAddress",
          "type": "address"
        },
        {
          "indexed": true,
          "internalType": "address",
          "name": "owner",
          "type": "address"
        },
        {
          "indexed": false,
          "internalType": "string",
          "name": "purpose",
          "type": "string"
        },
        {
          "indexed": false,
          "internalType": "uint256",
          "name": "unlockTime",
          "type": "uint256"
        }
      ],
      "name": "PersonalVaultCreated",
      "type": "event"
    },
    {
      "inputs": [
        {
          "internalType": "uint256",
          "name": "",
          "type": "uint256"
        }
      ],
      "name": "allVaults",
      "outputs": [
        {
          "internalType": "address",
          "name": "",
          "type": "address"
        }
      ],
      "stateMutability": "view",
      "type": "function"
    },
    {
      "inputs": [
        {
          "internalType": "string",
          "name": "_purpose",
          "type": "string"
        },
        {
          "internalType": "uint256",
          "name": "_unlockTimestamp",
          "type": "uint256"
        },
        {
          "internalType": "uint256",
          "name": "_penaltyBps",
          "type": "uint256"
        },
        {
          "internalType": "uint256",
          "name": "_initialDeposit",
          "type": "uint256"
        }
      ],
      "name": "createPersonalVault",
      "outputs": [
        {
          "internalType": "address",
          "name": "",
          "type": "address"
        }
      ],
      "stateMutability": "nonpayable",
      "type": "function"
    },
    {
      "inputs": [],
      "name": "getAllVaults",
      "outputs": [
        {
          "internalType": "address[]",
          "name": "",
          "type": "address[]"
        }
      ],
      "stateMutability": "view",
      "type": "function"
    },
    {
      "inputs": [
        {
          "internalType": "address",
          "name": "_user",
          "type": "address"
        }
      ],
      "name": "getUserVaults",
      "outputs": [
        {
          "internalType": "address[]",
          "name": "",
          "type": "address[]"
        }
      ],
      "stateMutability": "view",
      "type": "function"
    },
    {
      "inputs": [
        {
          "internalType": "address",
          "name": "",
          "type": "address"
        }
      ],
      "name": "isVault",
      "outputs": [
        {
          "internalType": "bool",
          "name": "",
          "type": "bool"
        }
      ],
      "stateMutability": "view",
      "type": "function"
    },
    {
      "inputs": [],
      "name": "protocolTreasury",
      "outputs": [
        {
          "internalType": "address",
          "name": "",
          "type": "address"
        }
      ],
      "stateMutability": "view",
      "type": "function"
    },
    {
      "inputs": [],
      "name": "usdtToken",
      "outputs": [
        {
          "internalType": "address",
          "name": "",
          "type": "address"
        }
      ],
      "stateMutability": "view",
      "type": "function"
    },
    {
      "inputs": [
        {
          "internalType": "address",
          "name": "",
          "type": "address"
        },
        {
          "internalType": "uint256",
          "name": "",
          "type": "uint256"
        }
      ],
      "name": "userVaults",
      "outputs": [
        {
          "internalType": "address",
          "name": "",
          "type": "address"
        }
      ],
      "stateMutability": "view",
      "type": "function"
    }
  ],
  "bytecode": "0x60a06040523480156200001157600080fd5b50604051620032b5380380620032b5833981810160405281019062000037919062000202565b600073ffffffffffffffffffffffffffffffffffffffff168273ffffffffffffffffffffffffffffffffffffffff1603620000a9576040517f08c379a0000000000000000000000000000000000000000000000000000000008152600401620000a090620002aa565b60405180910390fd5b600073ffffffffffffffffffffffffffffffffffffffff168173ffffffffffffffffffffffffffffffffffffffff16036200011b576040517f08c379a000000000000000000000000000000000000000000000000000000000815260040162000112906200031c565b60405180910390fd5b8173ffffffffffffffffffffffffffffffffffffffff1660808173ffffffffffffffffffffffffffffffffffffffff168152505080600360006101000a81548173ffffffffffffffffffffffffffffffffffffffff021916908373ffffffffffffffffffffffffffffffffffffffff16021790555050506200033e565b600080fd5b600073ffffffffffffffffffffffffffffffffffffffff82169050919050565b6000620001ca826200019d565b9050919050565b620001dc81620001bd565b8114620001e857600080fd5b50565b600081519050620001fc81620001d1565b92915050565b600080604083850312156200021c576200021b62000198565b5b60006200022c85828601620001eb565b92505060206200023f85828601620001eb565b9150509250929050565b600082825260208201905092915050565b7f496e76616c696420555344542061646472657373000000000000000000000000600082015250565b60006200029260148362000249565b91506200029f826200025a565b602082019050919050565b60006020820190508181036000830152620002c58162000283565b9050919050565b7f496e76616c696420747265617375727920616464726573730000000000000000600082015250565b60006200030460188362000249565b91506200031182620002cc565b602082019050919050565b600060208201905081810360008301526200033781620002f5565b9050919050565b608051612f4d62000368600039600081816103740152818161046a01526106610152612f4d6000f3fe60806040523480156200001157600080fd5b5060043610620000945760003560e01c80639c841fef11620000635780639c841fef1462000149578063a98ad46c146200017f578063e7f3c69c14620001a1578063fef2836914620001d75762000094565b8063652b9b411462000099578063803db96d14620000cf5780639094a91e14620000f157806397331bf91462000127575b600080fd5b620000b76004803603810190620000b19190620008d3565b6200020d565b604051620000c6919062000922565b60405180910390f35b620000d96200022d565b604051620000e8919062000950565b60405180910390f35b6200010f6004803603810190620001099190620009a8565b62000253565b6040516200011e919062000950565b60405180910390f35b6200013162000293565b60405162000140919062000aa8565b60405180910390f35b62000167600480360381019062000161919062000acc565b62000323565b60405162000176919062000950565b60405180910390f35b6200018962000372565b60405162000198919062000950565b60405180910390f35b620001bf6004803603810190620001b99190620008d3565b62000396565b604051620001ce919062000aa8565b60405180910390f35b620001f56004803603810190620001ef919062000c75565b62000465565b60405162000204919062000950565b60405180910390f35b60016020528060005260406000206000915054906101000a900460ff1681565b600360009054906101000a900473ffffffffffffffffffffffffffffffffffffffff1681565b600081815481106200026457600080fd5b906000526020600020016000915054906101000a900473ffffffffffffffffffffffffffffffffffffffff1681565b606060008054806020026020016040519081016040528092919081815260200182805480156200031957602002820191906000526020600020905b8160009054906101000a900473ffffffffffffffffffffffffffffffffffffffff1673ffffffffffffffffffffffffffffffffffffffff1681526020019060010190808311620002ce575b5050505050905090565b600260205281600052604060002081815481106200034057600080fd5b906000526020600020016000915091509054906101000a900473ffffffffffffffffffffffffffffffffffffffff1681565b7f000000000000000000000000000000000000000000000000000000000000000081565b6060600260008373ffffffffffffffffffffffffffffffffffffffff1673ffffffffffffffffffffffffffffffffffffffff1681526020019081526020016000208054806020026020016040519081016040528092919081815260200182805480156200045957602002820191906000526020600020905b8160009054906101000a900473ffffffffffffffffffffffffffffffffffffffff1673ffffffffffffffffffffffffffffffffffffffff16815260200190600101908083116200040e575b50505050509050919050565b6000807f000000000000000000000000000000000000000000000000000000000000000086338787600360009054906101000a900473ffffffffffffffffffffffffffffffffffffffff16604051620004be906200084c565b620004cf9695949392919062000da0565b604051809103906000f080158015620004ec573d6000803e3d6000fd5b50905060008190506000819080600181540180825580915050600190039060005260206000200160009091909190916101000a81548173ffffffffffffffffffffffffffffffffffffffff021916908373ffffffffffffffffffffffffffffffffffffffff160217905550600260003373ffffffffffffffffffffffffffffffffffffffff1673ffffffffffffffffffffffffffffffffffffffff168152602001908152602001600020819080600181540180825580915050600190039060005260206000200160009091909190916101000a81548173ffffffffffffffffffffffffffffffffffffffff021916908373ffffffffffffffffffffffffffffffffffffffff16021790555060018060008373ffffffffffffffffffffffffffffffffffffffff1673ffffffffffffffffffffffffffffffffffffffff16815260200190815260200160002060006101000a81548160ff0219169083151502179055506000841115620006a857620006a73382867f000000000000000000000000000000000000000000000000000000000000000073ffffffffffffffffffffffffffffffffffffffff166200071e909392919063ffffffff16565b5b3373ffffffffffffffffffffffffffffffffffffffff168173ffffffffffffffffffffffffffffffffffffffff167fc4f7fa668c5793a6dc998932be750cf209d49c6f9ca3b9390e35d685cdfc597189896040516200070992919062000e14565b60405180910390a38092505050949350505050565b6200079e848573ffffffffffffffffffffffffffffffffffffffff166323b872dd868686604051602401620007569392919062000e48565b604051602081830303815290604052915060e01b6020820180517bffffffffffffffffffffffffffffffffffffffffffffffffffffffff8381831617835250505050620007a4565b50505050565b600080602060008451602086016000885af180620007c8576040513d6000823e3d81fd5b3d925060005191505060008214620007e557600181141562000801565b60008473ffffffffffffffffffffffffffffffffffffffff163b145b156200084657836040517f5274afe70000000000000000000000000000000000000000000000000000000081526004016200083d919062000950565b60405180910390fd5b50505050565b6120928062000e8683390190565b6000604051905090565b600080fd5b600080fd5b600073ffffffffffffffffffffffffffffffffffffffff82169050919050565b60006200089b826200086e565b9050919050565b620008ad816200088e565b8114620008b957600080fd5b50565b600081359050620008cd81620008a2565b92915050565b600060208284031215620008ec57620008eb62000864565b5b6000620008fc84828501620008bc565b91505092915050565b60008115159050919050565b6200091c8162000905565b82525050565b600060208201905062000939600083018462000911565b92915050565b6200094a816200088e565b82525050565b60006020820190506200096760008301846200093f565b92915050565b6000819050919050565b62000982816200096d565b81146200098e57600080fd5b50565b600081359050620009a28162000977565b92915050565b600060208284031215620009c157620009c062000864565b5b6000620009d18482850162000991565b91505092915050565b600081519050919050565b600082825260208201905092915050565b6000819050602082019050919050565b62000a11816200088e565b82525050565b600062000a25838362000a06565b60208301905092915050565b6000602082019050919050565b600062000a4b82620009da565b62000a578185620009e5565b935062000a6483620009f6565b8060005b8381101562000a9b57815162000a7f888262000a17565b975062000a8c8362000a31565b92505060018101905062000a68565b5085935050505092915050565b6000602082019050818103600083015262000ac4818462000a3e565b905092915050565b6000806040838503121562000ae65762000ae562000864565b5b600062000af685828601620008bc565b925050602062000b098582860162000991565b9150509250929050565b600080fd5b600080fd5b6000601f19601f8301169050919050565b7f4e487b7100000000000000000000000000000000000000000000000000000000600052604160045260246000fd5b62000b688262000b1d565b810181811067ffffffffffffffff8211171562000b8a5762000b8962000b2e565b5b80604052505050565b600062000b9f6200085a565b905062000bad828262000b5d565b919050565b600067ffffffffffffffff82111562000bd05762000bcf62000b2e565b5b62000bdb8262000b1d565b9050602081019050919050565b82818337600083830152505050565b600062000c0e62000c088462000bb2565b62000b93565b90508281526020810184848401111562000c2d5762000c2c62000b18565b5b62000c3a84828562000be8565b509392505050565b600082601f83011262000c5a5762000c5962000b13565b5b813562000c6c84826020860162000bf7565b91505092915050565b6000806000806080858703121562000c925762000c9162000864565b5b600085013567ffffffffffffffff81111562000cb35762000cb262000869565b5b62000cc18782880162000c42565b945050602062000cd48782880162000991565b935050604062000ce78782880162000991565b925050606062000cfa8782880162000991565b91505092959194509250565b600081519050919050565b600082825260208201905092915050565b60005b8381101562000d4257808201518184015260208101905062000d25565b60008484015250505050565b600062000d5b8262000d06565b62000d67818562000d11565b935062000d7981856020860162000d22565b62000d848162000b1d565b840191505092915050565b62000d9a816200096d565b82525050565b600060c08201905062000db760008301896200093f565b818103602083015262000dcb818862000d4e565b905062000ddc60408301876200093f565b62000deb606083018662000d8f565b62000dfa608083018562000d8f565b62000e0960a08301846200093f565b979650505050505050565b6000604082019050818103600083015262000e30818562000d4e565b905062000e41602083018462000d8f565b9392505050565b600060608201905062000e5f60008301866200093f565b62000e6e60208301856200093f565b62000e7d604083018462000d8f565b94935050505056fe60a06040523480156200001157600080fd5b50604051620020923803806200209283398181016040528101906200003791906200059a565b848480600073ffffffffffffffffffffffffffffffffffffffff168173ffffffffffffffffffffffffffffffffffffffff1603620000af5760006040517f1e4fbdf7000000000000000000000000000000000000000000000000000000008152600401620000a6919062000666565b60405180910390fd5b620000c081620002a360201b60201c565b50600180819055508160029081620000d99190620008c4565b507f897cb1f7a5aced02f0fe4e37d9268d7509e5620fe53f2bfe685120bcb0c13a30826040516200010b9190620009fd565b60405180910390a15050600073ffffffffffffffffffffffffffffffffffffffff168673ffffffffffffffffffffffffffffffffffffffff160362000187576040517f08c379a00000000000000000000000000000000000000000000000000000000081526004016200017e9062000a71565b60405180910390fd5b428311620001cc576040517f08c379a0000000000000000000000000000000000000000000000000000000008152600401620001c39062000ae3565b60405180910390fd5b61271082111562000214576040517f08c379a00000000000000000000000000000000000000000000000000000000081526004016200020b9062000b55565b60405180910390fd5b8573ffffffffffffffffffffffffffffffffffffffff1660808173ffffffffffffffffffffffffffffffffffffffff1681525050826003819055508160048190555080600560006101000a81548173ffffffffffffffffffffffffffffffffffffffff021916908373ffffffffffffffffffffffffffffffffffffffff16021790555050505050505062000b77565b60008060009054906101000a900473ffffffffffffffffffffffffffffffffffffffff169050816000806101000a81548173ffffffffffffffffffffffffffffffffffffffff021916908373ffffffffffffffffffffffffffffffffffffffff1602179055508173ffffffffffffffffffffffffffffffffffffffff168173ffffffffffffffffffffffffffffffffffffffff167f8be0079c531659141344cd1fd0a4f28419497f9722a3daafe3b4186f6b6457e060405160405180910390a35050565b6000604051905090565b600080fd5b600080fd5b600073ffffffffffffffffffffffffffffffffffffffff82169050919050565b6000620003a8826200037b565b9050919050565b620003ba816200039b565b8114620003c657600080fd5b50565b600081519050620003da81620003af565b92915050565b600080fd5b600080fd5b6000601f19601f8301169050919050565b7f4e487b7100000000000000000000000000000000000000000000000000000000600052604160045260246000fd5b6200043582620003ea565b810181811067ffffffffffffffff82111715620004575762000456620003fb565b5b80604052505050565b60006200046c62000367565b90506200047a82826200042a565b919050565b600067ffffffffffffffff8211156200049d576200049c620003fb565b5b620004a882620003ea565b9050602081019050919050565b60005b83811015620004d5578082015181840152602081019050620004b8565b60008484015250505050565b6000620004f8620004f2846200047f565b62000460565b905082815260208101848484011115620005175762000516620003e5565b5b62000524848285620004b5565b509392505050565b600082601f830112620005445762000543620003e0565b5b815162000556848260208601620004e1565b91505092915050565b6000819050919050565b62000574816200055f565b81146200058057600080fd5b50565b600081519050620005948162000569565b92915050565b60008060008060008060c08789031215620005ba57620005b962000371565b5b6000620005ca89828a01620003c9565b965050602087015167ffffffffffffffff811115620005ee57620005ed62000376565b5b620005fc89828a016200052c565b95505060406200060f89828a01620003c9565b94505060606200062289828a0162000583565b93505060806200063589828a0162000583565b92505060a06200064889828a01620003c9565b9150509295509295509295565b62000660816200039b565b82525050565b60006020820190506200067d600083018462000655565b92915050565b600081519050919050565b7f4e487b7100000000000000000000000000000000000000000000000000000000600052602260045260246000fd5b60006002820490506001821680620006d657607f821691505b602082108103620006ec57620006eb6200068e565b5b50919050565b60008190508160005260206000209050919050565b60006020601f8301049050919050565b600082821b905092915050565b600060088302620007567fffffffffffffffffffffffffffffffffffffffffffffffffffffffffffffffff8262000717565b62000762868362000717565b95508019841693508086168417925050509392505050565b6000819050919050565b6000620007a56200079f62000799846200055f565b6200077a565b6200055f565b9050919050565b6000819050919050565b620007c18362000784565b620007d9620007d082620007ac565b84845462000724565b825550505050565b600090565b620007f0620007e1565b620007fd818484620007b6565b505050565b5b81811015620008255762000819600082620007e6565b60018101905062000803565b5050565b601f82111562000874576200083e81620006f2565b620008498462000707565b8101602085101562000859578190505b62000871620008688562000707565b83018262000802565b50505b505050565b600082821c905092915050565b6000620008996000198460080262000879565b1980831691505092915050565b6000620008b4838362000886565b9150826002028217905092915050565b620008cf8262000683565b67ffffffffffffffff811115620008eb57620008ea620003fb565b5b620008f78254620006bd565b6200090482828562000829565b600060209050601f8311600181146200093c576000841562000927578287015190505b620009338582620008a6565b865550620009a3565b601f1984166200094c86620006f2565b60005b8281101562000976578489015182556001820191506020850194506020810190506200094f565b8683101562000996578489015162000992601f89168262000886565b8355505b6001600288020188555050505b505050505050565b600082825260208201905092915050565b6000620009c98262000683565b620009d58185620009ab565b9350620009e7818560208601620004b5565b620009f281620003ea565b840191505092915050565b6000602082019050818103600083015262000a198184620009bc565b905092915050565b7f496e76616c696420746f6b656e20616464726573730000000000000000000000600082015250565b600062000a59601583620009ab565b915062000a668262000a21565b602082019050919050565b6000602082019050818103600083015262000a8c8162000a4a565b9050919050565b7f556e6c6f636b2074696d65206d75737420626520696e20667574757265000000600082015250565b600062000acb601d83620009ab565b915062000ad88262000a93565b602082019050919050565b6000602082019050818103600083015262000afe8162000abc565b9050919050565b7f496e76616c696420626173697320706f696e7473000000000000000000000000600082015250565b600062000b3d601483620009ab565b915062000b4a8262000b05565b602082019050919050565b6000602082019050818103600083015262000b708162000b2e565b9050919050565b6080516114d562000bbd600039600081816102da0152818161038b01528181610478015281816105c0015281816106150152818161085a0152610a4101526114d56000f3fe6080604052600436106100ab5760003560e01c8063aa082a9d11610064578063aa082a9d146101f5578063b6b55f2514610220578063d0e30db014610249578063ecfad9fd14610253578063f2fde38b1461027e578063fc0c546a146102a757610116565b806301e1d1141461011b5780633ccfd60b1461014657806361d027b31461015d57806370740aab14610188578063715018a6146101b35780638da5cb5b146101ca57610116565b36610116576000341115610114573373ffffffffffffffffffffffffffffffffffffffff167f73a19dd210f1a7f902193214c0ee91dd35ee5b4d920cba8d519eca65a7b488ca3442604051610101929190610dc1565b60405180910390a261011333346102d2565b5b005b600080fd5b34801561012757600080fd5b506101306102d6565b60405161013d9190610dea565b60405180910390f35b34801561015257600080fd5b5061015b610377565b005b34801561016957600080fd5b50610172610708565b60405161017f9190610e46565b60405180910390f35b34801561019457600080fd5b5061019d61072e565b6040516101aa9190610ef1565b60405180910390f35b3480156101bf57600080fd5b506101c86107bc565b005b3480156101d657600080fd5b506101df6107d0565b6040516101ec9190610e46565b60405180910390f35b34801561020157600080fd5b5061020a6107f9565b6040516102179190610dea565b60405180910390f35b34801561022c57600080fd5b5061024760048036038101906102429190610f44565b6107ff565b005b610251610904565b005b34801561025f57600080fd5b506102686109b3565b6040516102759190610dea565b60405180910390f35b34801561028a57600080fd5b506102a560048036038101906102a09190610f9d565b6109b9565b005b3480156102b357600080fd5b506102bc610a3f565b6040516102c99190611029565b60405180910390f35b5050565b60007f000000000000000000000000000000000000000000000000000000000000000073ffffffffffffffffffffffffffffffffffffffff166370a08231306040518263ffffffff1660e01b81526004016103319190610e46565b602060405180830381865afa15801561034e573d6000803e3d6000fd5b505050506040513d601f19601f820116820180604052508101906103729190611059565b905090565b61037f610a63565b610387610aea565b60007f000000000000000000000000000000000000000000000000000000000000000073ffffffffffffffffffffffffffffffffffffffff166370a08231306040518263ffffffff1660e01b81526004016103e29190610e46565b602060405180830381865afa1580156103ff573d6000803e3d6000fd5b505050506040513d601f19601f820116820180604052508101906104239190611059565b905060008111610468576040517f08c379a000000000000000000000000000000000000000000000000000000000815260040161045f906110d2565b60405180910390fd5b600354421061055f576104bc33827f000000000000000000000000000000000000000000000000000000000000000073ffffffffffffffffffffffffffffffffffffffff16610b309092919063ffffffff16565b3373ffffffffffffffffffffffffffffffffffffffff167f62116a798bb58cc967874bea4d771de2f9aeec6c64189ff2e5a551072f3106f9824260405161050492919061113e565b60405180910390a23373ffffffffffffffffffffffffffffffffffffffff167f779c86999fb727ca861d0288aa11ed4104347721c571e4f0da5172afb607d885826040516105529190610dea565b60405180910390a26106fd565b60006127106004548361057291906111a9565b61057c919061121a565b90506000818361058c919061124b565b9050600082111561060557610604600560009054906101000a900473ffffffffffffffffffffffffffffffffffffffff16837f000000000000000000000000000000000000000000000000000000000000000073ffffffffffffffffffffffffffffffffffffffff16610b309092919063ffffffff16565b5b600081111561065a5761065933827f000000000000000000000000000000000000000000000000000000000000000073ffffffffffffffffffffffffffffffffffffffff16610b309092919063ffffffff16565b5b3373ffffffffffffffffffffffffffffffffffffffff167f62116a798bb58cc967874bea4d771de2f9aeec6c64189ff2e5a551072f3106f982426040516106a29291906112cb565b60405180910390a23373ffffffffffffffffffffffffffffffffffffffff167f1670585e36568ede58d159518ce92cad99f75ad41c7d8281df3dd4eaa0c855d082846040516106f2929190610dc1565b60405180910390a250505b50610706610baf565b565b600560009054906101000a900473ffffffffffffffffffffffffffffffffffffffff1681565b6002805461073b90611336565b80601f016020809104026020016040519081016040528092919081815260200182805461076790611336565b80156107b45780601f10610789576101008083540402835291602001916107b4565b820191906000526020600020905b81548152906001019060200180831161079757829003601f168201915b505050505081565b6107c4610a63565b6107ce6000610bb8565b565b60008060009054906101000a900473ffffffffffffffffffffffffffffffffffffffff16905090565b60035481565b610807610a63565b61080f610aea565b60008111610852576040517f08c379a0000000000000000000000000000000000000000000000000000000008152600401610849906113b3565b60405180910390fd5b61089f3330837f000000000000000000000000000000000000000000000000000000000000000073ffffffffffffffffffffffffffffffffffffffff16610c7c909392919063ffffffff16565b3373ffffffffffffffffffffffffffffffffffffffff167f73a19dd210f1a7f902193214c0ee91dd35ee5b4d920cba8d519eca65a7b488ca82426040516108e7929190610dc1565b60405180910390a26108f933826102d2565b610901610baf565b50565b61090c610aea565b6000341161094f576040517f08c379a00000000000000000000000000000000000000000000000000000000081526004016109469061141f565b60405180910390fd5b3373ffffffffffffffffffffffffffffffffffffffff167f73a19dd210f1a7f902193214c0ee91dd35ee5b4d920cba8d519eca65a7b488ca3442604051610997929190610dc1565b60405180910390a26109a933346102d2565b6109b1610baf565b565b60045481565b6109c1610a63565b600073ffffffffffffffffffffffffffffffffffffffff168173ffffffffffffffffffffffffffffffffffffffff1603610a335760006040517f1e4fbdf7000000000000000000000000000000000000000000000000000000008152600401610a2a9190610e46565b60405180910390fd5b610a3c81610bb8565b50565b7f000000000000000000000000000000000000000000000000000000000000000081565b610a6b610cfe565b73ffffffffffffffffffffffffffffffffffffffff16610a896107d0565b73ffffffffffffffffffffffffffffffffffffffff1614610ae857610aac610cfe565b6040517f118cdaa7000000000000000000000000000000000000000000000000000000008152600401610adf9190610e46565b60405180910390fd5b565b600260015403610b26576040517f3ee5aeb500000000000000000000000000000000000000000000000000000000815260040160405180910390fd5b6002600181905550565b610baa838473ffffffffffffffffffffffffffffffffffffffff1663a9059cbb8585604051602401610b6392919061143f565b604051602081830303815290604052915060e01b6020820180517bffffffffffffffffffffffffffffffffffffffffffffffffffffffff8381831617835250505050610d06565b505050565b60018081905550565b60008060009054906101000a900473ffffffffffffffffffffffffffffffffffffffff169050816000806101000a81548173ffffffffffffffffffffffffffffffffffffffff021916908373ffffffffffffffffffffffffffffffffffffffff1602179055508173ffffffffffffffffffffffffffffffffffffffff168173ffffffffffffffffffffffffffffffffffffffff167f8be0079c531659141344cd1fd0a4f28419497f9722a3daafe3b4186f6b6457e060405160405180910390a35050565b610cf8848573ffffffffffffffffffffffffffffffffffffffff166323b872dd868686604051602401610cb193929190611468565b604051602081830303815290604052915060e01b6020820180517bffffffffffffffffffffffffffffffffffffffffffffffffffffffff8381831617835250505050610d06565b50505050565b600033905090565b600080602060008451602086016000885af180610d29576040513d6000823e3d81fd5b3d925060005191505060008214610d44576001811415610d60565b60008473ffffffffffffffffffffffffffffffffffffffff163b145b15610da257836040517f5274afe7000000000000000000000000000000000000000000000000000000008152600401610d999190610e46565b60405180910390fd5b50505050565b6000819050919050565b610dbb81610da8565b82525050565b6000604082019050610dd66000830185610db2565b610de36020830184610db2565b9392505050565b6000602082019050610dff6000830184610db2565b92915050565b600073ffffffffffffffffffffffffffffffffffffffff82169050919050565b6000610e3082610e05565b9050919050565b610e4081610e25565b82525050565b6000602082019050610e5b6000830184610e37565b92915050565b600081519050919050565b600082825260208201905092915050565b60005b83811015610e9b578082015181840152602081019050610e80565b60008484015250505050565b6000601f19601f8301169050919050565b6000610ec382610e61565b610ecd8185610e6c565b9350610edd818560208601610e7d565b610ee681610ea7565b840191505092915050565b60006020820190508181036000830152610f0b8184610eb8565b905092915050565b600080fd5b610f2181610da8565b8114610f2c57600080fd5b50565b600081359050610f3e81610f18565b92915050565b600060208284031215610f5a57610f59610f13565b5b6000610f6884828501610f2f565b91505092915050565b610f7a81610e25565b8114610f8557600080fd5b50565b600081359050610f9781610f71565b92915050565b600060208284031215610fb357610fb2610f13565b5b6000610fc184828501610f88565b91505092915050565b6000819050919050565b6000610fef610fea610fe584610e05565b610fca565b610e05565b9050919050565b600061100182610fd4565b9050919050565b600061101382610ff6565b9050919050565b61102381611008565b82525050565b600060208201905061103e600083018461101a565b92915050565b60008151905061105381610f18565b92915050565b60006020828403121561106f5761106e610f13565b5b600061107d84828501611044565b91505092915050565b7f4e6f2066756e647320746f207769746864726177000000000000000000000000600082015250565b60006110bc601483610e6c565b91506110c782611086565b602082019050919050565b600060208201905081810360008301526110eb816110af565b9050919050565b7f4d41545552495459000000000000000000000000000000000000000000000000600082015250565b6000611128600883610e6c565b9150611133826110f2565b602082019050919050565b60006060820190506111536000830185610db2565b6111606020830184610db2565b81810360408301526111718161111b565b90509392505050565b7f4e487b7100000000000000000000000000000000000000000000000000000000600052601160045260246000fd5b60006111b482610da8565b91506111bf83610da8565b92508282026111cd81610da8565b915082820484148315176111e4576111e361117a565b5b5092915050565b7f4e487b7100000000000000000000000000000000000000000000000000000000600052601260045260246000fd5b600061122582610da8565b915061123083610da8565b9250826112405761123f6111eb565b5b828204905092915050565b600061125682610da8565b915061126183610da8565b92508282039050818111156112795761127861117a565b5b92915050565b7f4541524c595f4558495400000000000000000000000000000000000000000000600082015250565b60006112b5600a83610e6c565b91506112c08261127f565b602082019050919050565b60006060820190506112e06000830185610db2565b6112ed6020830184610db2565b81810360408301526112fe816112a8565b90509392505050565b7f4e487b7100000000000000000000000000000000000000000000000000000000600052602260045260246000fd5b6000600282049050600182168061134e57607f821691505b60208210810361136157611360611307565b5b50919050565b7f416d6f756e74206d7573742062652067726561746572207468616e2030000000600082015250565b600061139d601d83610e6c565b91506113a882611367565b602082019050919050565b600060208201905081810360008301526113cc81611390565b9050919050565b7f416d6f756e74206d757374206265203e20300000000000000000000000000000600082015250565b6000611409601283610e6c565b9150611414826113d3565b602082019050919050565b60006020820190508181036000830152611438816113fc565b9050919050565b60006040820190506114546000830185610e37565b6114616020830184610db2565b9392505050565b600060608201905061147d6000830186610e37565b61148a6020830185610e37565b6114976040830184610db2565b94935050505056fea2646970667358221220eef3ea804974e56c8dc9458a78c5f8a2263291bccc2795b7bbb824a8806523c064736f6c63430008140033a2646970667358221220580a9863b70e6a52d595a68ea24f651b4030b28641ff40c1a18e34479dcca9e864736f6c63430008140033",
  "linkReferences": {},
  "deployedLinkReferences": {}
}