{
  "_format": "hh-sol-artifact-1",
  "contractName": "VaultFactory",
  "sourceName": "contracts/VaultFactory.sol",
  "abi": [
    {
      "inputs": [
        {
          "internalType": "address",
          "name": "_protocolTreasury",
          "type": "address"
        }
      ],
      "stateMutability": "nonpayable",
      "type": "constructor"
    },
    {
      "anonymous": false,
      "inputs": [
        {
          "indexed": true,
          "internalType": "address",
          "name": "vaultAddress",
          "type": "address"
        },
        {
          "indexed": true,
          "internalType": "address",
          "name": "creator",
          "type": "address"
        },
        {
          "indexed": false,
          "internalType": "string",
          "name": "purpose",
          "type": "string"
        },
        {
          "indexed": false,
          "internalType": "uint256",
          "name": "memberCount",
          "type": "uint256"
        }
      ],
      "name": "GroupVaultCreated",
      "type": "event"
    },
    {
      "anonymous": false,
      "inputs": [
        {
          "indexed": true,
          "internalType": "address",
          "name": "vaultAddress",
          "type": "address"
        },
        {
          "indexed": true,
          "internalType": "address",
          "name": "owner",
          "type": "address"
        },
        {
          "indexed": false,
          "internalType": "string",
          "name": "purpose",
          "type": "string"
        },
        {
          "indexed": false,
          "internalType": "uint256",
          "name": "unlockTime",
          "type": "uint256"
        }
      ],
      "name": "PersonalVaultCreated",
      "type": "event"
    },
    {
      "inputs": [
        {
          "internalType": "uint256",
          "name": "",
          "type": "uint256"
        }
      ],
      "name": "allVaults",
      "outputs": [
        {
          "internalType": "address",
          "name": "",
          "type": "address"
        }
      ],
      "stateMutability": "view",
      "type": "function"
    },
    {
      "inputs": [
        {
          "internalType": "string",
          "name": "_purpose",
          "type": "string"
        },
        {
          "internalType": "address[]",
          "name": "_initialMembers",
          "type": "address[]"
        },
        {
          "internalType": "uint256",
          "name": "_approvalThreshold",
          "type": "uint256"
        }
      ],
      "name": "createGroupVault",
      "outputs": [
        {
          "internalType": "address",
          "name": "",
          "type": "address"
        }
      ],
      "stateMutability": "payable",
      "type": "function"
    },
    {
      "inputs": [
        {
          "internalType": "string",
          "name": "_purpose",
          "type": "string"
        },
        {
          "internalType": "uint256",
          "name": "_unlockTimestamp",
          "type": "uint256"
        },
        {
          "internalType": "uint256",
          "name": "_penaltyBps",
          "type": "uint256"
        }
      ],
      "name": "createPersonalVault",
      "outputs": [
        {
          "internalType": "address",
          "name": "",
          "type": "address"
        }
      ],
      "stateMutability": "payable",
      "type": "function"
    },
    {
      "inputs": [],
      "name": "getAllVaults",
      "outputs": [
        {
          "internalType": "address[]",
          "name": "",
          "type": "address[]"
        }
      ],
      "stateMutability": "view",
      "type": "function"
    },
    {
      "inputs": [
        {
          "internalType": "address",
          "name": "_user",
          "type": "address"
        }
      ],
      "name": "getUserVaults",
      "outputs": [
        {
          "internalType": "address[]",
          "name": "",
          "type": "address[]"
        }
      ],
      "stateMutability": "view",
      "type": "function"
    },
    {
      "inputs": [
        {
          "internalType": "address",
          "name": "",
          "type": "address"
        }
      ],
      "name": "isVault",
      "outputs": [
        {
          "internalType": "bool",
          "name": "",
          "type": "bool"
        }
      ],
      "stateMutability": "view",
      "type": "function"
    },
    {
      "inputs": [],
      "name": "protocolTreasury",
      "outputs": [
        {
          "internalType": "address",
          "name": "",
          "type": "address"
        }
      ],
      "stateMutability": "view",
      "type": "function"
    },
    {
      "inputs": [
        {
          "internalType": "address",
          "name": "",
          "type": "address"
        },
        {
          "internalType": "uint256",
          "name": "",
          "type": "uint256"
        }
      ],
      "name": "userVaults",
      "outputs": [
        {
          "internalType": "address",
          "name": "",
          "type": "address"
        }
      ],
      "stateMutability": "view",
      "type": "function"
    }
  ],
  "bytecode": "0x60806040523480156200001157600080fd5b506040516200557c3803806200557c8339818101604052810190620000379190620000e9565b80600360006101000a81548173ffffffffffffffffffffffffffffffffffffffff021916908373ffffffffffffffffffffffffffffffffffffffff160217905550506200011b565b600080fd5b600073ffffffffffffffffffffffffffffffffffffffff82169050919050565b6000620000b18262000084565b9050919050565b620000c381620000a4565b8114620000cf57600080fd5b50565b600081519050620000e381620000b8565b92915050565b6000602082840312156200010257620001016200007f565b5b60006200011284828501620000d2565b91505092915050565b615451806200012b6000396000f3fe608060405260043610620000865760003560e01c80639c841fef11620000555780639c841fef1462000173578063d6e8c92914620001b7578063e7f3c69c14620001ed578063f944100c14620002315762000086565b8063652b9b41146200008b578063803db96d14620000cf5780639094a91e14620000ff57806397331bf91462000143575b600080fd5b3480156200009857600080fd5b50620000b76004803603810190620000b1919062000b42565b62000267565b604051620000c6919062000b91565b60405180910390f35b348015620000dc57600080fd5b50620000e762000287565b604051620000f6919062000bbf565b60405180910390f35b3480156200010c57600080fd5b506200012b600480360381019062000125919062000c17565b620002ad565b6040516200013a919062000bbf565b60405180910390f35b3480156200015057600080fd5b506200015b620002ed565b6040516200016a919062000d17565b60405180910390f35b3480156200018057600080fd5b506200019f600480360381019062000199919062000d3b565b6200037d565b604051620001ae919062000bbf565b60405180910390f35b620001d56004803603810190620001cf919062000ee4565b620003cc565b604051620001e4919062000bbf565b60405180910390f35b348015620001fa57600080fd5b5062000219600480360381019062000213919062000b42565b620006c7565b60405162000228919062000d17565b60405180910390f35b6200024f60048036038101906200024991906200103a565b62000796565b6040516200025e919062000bbf565b60405180910390f35b60016020528060005260406000206000915054906101000a900460ff1681565b600360009054906101000a900473ffffffffffffffffffffffffffffffffffffffff1681565b60008181548110620002be57600080fd5b906000526020600020016000915054906101000a900473ffffffffffffffffffffffffffffffffffffffff1681565b606060008054806020026020016040519081016040528092919081815260200182805480156200037357602002820191906000526020600020905b8160009054906101000a900473ffffffffffffffffffffffffffffffffffffffff1673ffffffffffffffffffffffffffffffffffffffff168152602001906001019080831162000328575b5050505050905090565b600260205281600052604060002081815481106200039a57600080fd5b906000526020600020016000915091509054906101000a900473ffffffffffffffffffffffffffffffffffffffff1681565b60008084338585600360009054906101000a900473ffffffffffffffffffffffffffffffffffffffff16604051620004049062000aad565b620004149594939291906200116e565b604051809103906000f08015801562000431573d6000803e3d6000fd5b50905060008190506000341115620004f85760008173ffffffffffffffffffffffffffffffffffffffff16346040516200046b9062001207565b60006040518083038185875af1925050503d8060008114620004aa576040519150601f19603f3d011682016040523d82523d6000602084013e620004af565b606091505b5050905080620004f6576040517f08c379a0000000000000000000000000000000000000000000000000000000008152600401620004ed9062001294565b60405180910390fd5b505b6000819080600181540180825580915050600190039060005260206000200160009091909190916101000a81548173ffffffffffffffffffffffffffffffffffffffff021916908373ffffffffffffffffffffffffffffffffffffffff160217905550600260003373ffffffffffffffffffffffffffffffffffffffff1673ffffffffffffffffffffffffffffffffffffffff168152602001908152602001600020819080600181540180825580915050600190039060005260206000200160009091909190916101000a81548173ffffffffffffffffffffffffffffffffffffffff021916908373ffffffffffffffffffffffffffffffffffffffff16021790555060018060008373ffffffffffffffffffffffffffffffffffffffff1673ffffffffffffffffffffffffffffffffffffffff16815260200190815260200160002060006101000a81548160ff0219169083151502179055503373ffffffffffffffffffffffffffffffffffffffff168173ffffffffffffffffffffffffffffffffffffffff167fc4f7fa668c5793a6dc998932be750cf209d49c6f9ca3b9390e35d685cdfc59718888604051620006b3929190620012b6565b60405180910390a380925050509392505050565b6060600260008373ffffffffffffffffffffffffffffffffffffffff1673ffffffffffffffffffffffffffffffffffffffff1681526020019081526020016000208054806020026020016040519081016040528092919081815260200182805480156200078a57602002820191906000526020600020905b8160009054906101000a900473ffffffffffffffffffffffffffffffffffffffff1673ffffffffffffffffffffffffffffffffffffffff16815260200190600101908083116200073f575b50505050509050919050565b600080848484604051620007aa9062000abb565b620007b893929190620012ea565b604051809103906000f080158015620007d5573d6000803e3d6000fd5b509050600081905060003411156200089c5760008173ffffffffffffffffffffffffffffffffffffffff16346040516200080f9062001207565b60006040518083038185875af1925050503d80600081146200084e576040519150601f19603f3d011682016040523d82523d6000602084013e62000853565b606091505b50509050806200089a576040517f08c379a0000000000000000000000000000000000000000000000000000000008152600401620008919062001294565b60405180910390fd5b505b6000819080600181540180825580915050600190039060005260206000200160009091909190916101000a81548173ffffffffffffffffffffffffffffffffffffffff021916908373ffffffffffffffffffffffffffffffffffffffff16021790555060005b8551811015620009df576002600087838151811062000926576200092562001335565b5b602002602001015173ffffffffffffffffffffffffffffffffffffffff1673ffffffffffffffffffffffffffffffffffffffff168152602001908152602001600020829080600181540180825580915050600190039060005260206000200160009091909190916101000a81548173ffffffffffffffffffffffffffffffffffffffff021916908373ffffffffffffffffffffffffffffffffffffffff1602179055508080620009d69062001393565b91505062000902565b5060018060008373ffffffffffffffffffffffffffffffffffffffff1673ffffffffffffffffffffffffffffffffffffffff16815260200190815260200160002060006101000a81548160ff0219169083151502179055503373ffffffffffffffffffffffffffffffffffffffff168173ffffffffffffffffffffffffffffffffffffffff167fa63f219c7a97048d6ab07e69666edff1f3f6486c0344c9a11d3fac2c20db597588885160405162000a99929190620012b6565b60405180910390a380925050509392505050565b61198680620013e183390190565b6126b58062002d6783390190565b6000604051905090565b600080fd5b600080fd5b600073ffffffffffffffffffffffffffffffffffffffff82169050919050565b600062000b0a8262000add565b9050919050565b62000b1c8162000afd565b811462000b2857600080fd5b50565b60008135905062000b3c8162000b11565b92915050565b60006020828403121562000b5b5762000b5a62000ad3565b5b600062000b6b8482850162000b2b565b91505092915050565b60008115159050919050565b62000b8b8162000b74565b82525050565b600060208201905062000ba8600083018462000b80565b92915050565b62000bb98162000afd565b82525050565b600060208201905062000bd6600083018462000bae565b92915050565b6000819050919050565b62000bf18162000bdc565b811462000bfd57600080fd5b50565b60008135905062000c118162000be6565b92915050565b60006020828403121562000c305762000c2f62000ad3565b5b600062000c408482850162000c00565b91505092915050565b600081519050919050565b600082825260208201905092915050565b6000819050602082019050919050565b62000c808162000afd565b82525050565b600062000c94838362000c75565b60208301905092915050565b6000602082019050919050565b600062000cba8262000c49565b62000cc6818562000c54565b935062000cd38362000c65565b8060005b8381101562000d0a57815162000cee888262000c86565b975062000cfb8362000ca0565b92505060018101905062000cd7565b5085935050505092915050565b6000602082019050818103600083015262000d33818462000cad565b905092915050565b6000806040838503121562000d555762000d5462000ad3565b5b600062000d658582860162000b2b565b925050602062000d788582860162000c00565b9150509250929050565b600080fd5b600080fd5b6000601f19601f8301169050919050565b7f4e487b7100000000000000000000000000000000000000000000000000000000600052604160045260246000fd5b62000dd78262000d8c565b810181811067ffffffffffffffff8211171562000df95762000df862000d9d565b5b80604052505050565b600062000e0e62000ac9565b905062000e1c828262000dcc565b919050565b600067ffffffffffffffff82111562000e3f5762000e3e62000d9d565b5b62000e4a8262000d8c565b9050602081019050919050565b82818337600083830152505050565b600062000e7d62000e778462000e21565b62000e02565b90508281526020810184848401111562000e9c5762000e9b62000d87565b5b62000ea984828562000e57565b509392505050565b600082601f83011262000ec95762000ec862000d82565b5b813562000edb84826020860162000e66565b91505092915050565b60008060006060848603121562000f005762000eff62000ad3565b5b600084013567ffffffffffffffff81111562000f215762000f2062000ad8565b5b62000f2f8682870162000eb1565b935050602062000f428682870162000c00565b925050604062000f558682870162000c00565b9150509250925092565b600067ffffffffffffffff82111562000f7d5762000f7c62000d9d565b5b602082029050602081019050919050565b600080fd5b600062000faa62000fa48462000f5f565b62000e02565b9050808382526020820190506020840283018581111562000fd05762000fcf62000f8e565b5b835b8181101562000ffd578062000fe8888262000b2b565b84526020840193505060208101905062000fd2565b5050509392505050565b600082601f8301126200101f576200101e62000d82565b5b81356200103184826020860162000f93565b91505092915050565b60008060006060848603121562001056576200105562000ad3565b5b600084013567ffffffffffffffff81111562001077576200107662000ad8565b5b620010858682870162000eb1565b935050602084013567ffffffffffffffff811115620010a957620010a862000ad8565b5b620010b78682870162001007565b9250506040620010ca8682870162000c00565b9150509250925092565b600081519050919050565b600082825260208201905092915050565b60005b8381101562001110578082015181840152602081019050620010f3565b60008484015250505050565b60006200112982620010d4565b620011358185620010df565b935062001147818560208601620010f0565b620011528162000d8c565b840191505092915050565b620011688162000bdc565b82525050565b600060a08201905081810360008301526200118a81886200111c565b90506200119b602083018762000bae565b620011aa60408301866200115d565b620011b960608301856200115d565b620011c8608083018462000bae565b9695505050505050565b600081905092915050565b50565b6000620011ef600083620011d2565b9150620011fc82620011dd565b600082019050919050565b60006200121482620011e0565b9150819050919050565b7f4661696c656420746f20666f727761726420696e697469616c206465706f736960008201527f7400000000000000000000000000000000000000000000000000000000000000602082015250565b60006200127c602183620010df565b915062001289826200121e565b604082019050919050565b60006020820190508181036000830152620012af816200126d565b9050919050565b60006040820190508181036000830152620012d281856200111c565b9050620012e360208301846200115d565b9392505050565b600060608201905081810360008301526200130681866200111c565b905081810360208301526200131c818562000cad565b90506200132d60408301846200115d565b949350505050565b7f4e487b7100000000000000000000000000000000000000000000000000000000600052603260045260246000fd5b7f4e487b7100000000000000000000000000000000000000000000000000000000600052601160045260246000fd5b6000620013a08262000bdc565b91507fffffffffffffffffffffffffffffffffffffffffffffffffffffffffffffffff8203620013d557620013d462001364565b5b60018201905091905056fe60806040523480156200001157600080fd5b5060405162001986380380620019868339818101604052810190620000379190620004f3565b848480600073ffffffffffffffffffffffffffffffffffffffff168173ffffffffffffffffffffffffffffffffffffffff1603620000af5760006040517f1e4fbdf7000000000000000000000000000000000000000000000000000000008152600401620000a69190620005ab565b60405180910390fd5b620000c081620001fc60201b60201c565b50600180819055508160029081620000d9919062000809565b507f897cb1f7a5aced02f0fe4e37d9268d7509e5620fe53f2bfe685120bcb0c13a30826040516200010b919062000942565b60405180910390a150504283116200015a576040517f08c379a00000000000000000000000000000000000000000000000000000000081526004016200015190620009b6565b60405180910390fd5b612710821115620001a2576040517f08c379a0000000000000000000000000000000000000000000000000000000008152600401620001999062000a28565b60405180910390fd5b826003819055508160048190555080600560006101000a81548173ffffffffffffffffffffffffffffffffffffffff021916908373ffffffffffffffffffffffffffffffffffffffff160217905550505050505062000a4a565b60008060009054906101000a900473ffffffffffffffffffffffffffffffffffffffff169050816000806101000a81548173ffffffffffffffffffffffffffffffffffffffff021916908373ffffffffffffffffffffffffffffffffffffffff1602179055508173ffffffffffffffffffffffffffffffffffffffff168173ffffffffffffffffffffffffffffffffffffffff167f8be0079c531659141344cd1fd0a4f28419497f9722a3daafe3b4186f6b6457e060405160405180910390a35050565b6000604051905090565b600080fd5b600080fd5b600080fd5b600080fd5b6000601f19601f8301169050919050565b7f4e487b7100000000000000000000000000000000000000000000000000000000600052604160045260246000fd5b6200032982620002de565b810181811067ffffffffffffffff821117156200034b576200034a620002ef565b5b80604052505050565b600062000360620002c0565b90506200036e82826200031e565b919050565b600067ffffffffffffffff821115620003915762000390620002ef565b5b6200039c82620002de565b9050602081019050919050565b60005b83811015620003c9578082015181840152602081019050620003ac565b60008484015250505050565b6000620003ec620003e68462000373565b62000354565b9050828152602081018484840111156200040b576200040a620002d9565b5b62000418848285620003a9565b509392505050565b600082601f830112620004385762000437620002d4565b5b81516200044a848260208601620003d5565b91505092915050565b600073ffffffffffffffffffffffffffffffffffffffff82169050919050565b6000620004808262000453565b9050919050565b620004928162000473565b81146200049e57600080fd5b50565b600081519050620004b28162000487565b92915050565b6000819050919050565b620004cd81620004b8565b8114620004d957600080fd5b50565b600081519050620004ed81620004c2565b92915050565b600080600080600060a08688031215620005125762000511620002ca565b5b600086015167ffffffffffffffff811115620005335762000532620002cf565b5b620005418882890162000420565b95505060206200055488828901620004a1565b94505060406200056788828901620004dc565b93505060606200057a88828901620004dc565b92505060806200058d88828901620004a1565b9150509295509295909350565b620005a58162000473565b82525050565b6000602082019050620005c260008301846200059a565b92915050565b600081519050919050565b7f4e487b7100000000000000000000000000000000000000000000000000000000600052602260045260246000fd5b600060028204905060018216806200061b57607f821691505b602082108103620006315762000630620005d3565b5b50919050565b60008190508160005260206000209050919050565b60006020601f8301049050919050565b600082821b905092915050565b6000600883026200069b7fffffffffffffffffffffffffffffffffffffffffffffffffffffffffffffffff826200065c565b620006a786836200065c565b95508019841693508086168417925050509392505050565b6000819050919050565b6000620006ea620006e4620006de84620004b8565b620006bf565b620004b8565b9050919050565b6000819050919050565b6200070683620006c9565b6200071e6200071582620006f1565b84845462000669565b825550505050565b600090565b6200073562000726565b62000742818484620006fb565b505050565b5b818110156200076a576200075e6000826200072b565b60018101905062000748565b5050565b601f821115620007b957620007838162000637565b6200078e846200064c565b810160208510156200079e578190505b620007b6620007ad856200064c565b83018262000747565b50505b505050565b600082821c905092915050565b6000620007de60001984600802620007be565b1980831691505092915050565b6000620007f98383620007cb565b9150826002028217905092915050565b6200081482620005c8565b67ffffffffffffffff81111562000830576200082f620002ef565b5b6200083c825462000602565b620008498282856200076e565b600060209050601f8311600181146200088157600084156200086c578287015190505b620008788582620007eb565b865550620008e8565b601f198416620008918662000637565b60005b82811015620008bb5784890151825560018201915060208501945060208101905062000894565b86831015620008db5784890151620008d7601f891682620007cb565b8355505b6001600288020188555050505b505050505050565b600082825260208201905092915050565b60006200090e82620005c8565b6200091a8185620008f0565b93506200092c818560208601620003a9565b6200093781620002de565b840191505092915050565b600060208201905081810360008301526200095e818462000901565b905092915050565b7f556e6c6f636b2074696d65206d75737420626520696e20667574757265000000600082015250565b60006200099e601d83620008f0565b9150620009ab8262000966565b602082019050919050565b60006020820190508181036000830152620009d1816200098f565b9050919050565b7f496e76616c696420626173697320706f696e7473000000000000000000000000600082015250565b600062000a10601483620008f0565b915062000a1d82620009d8565b602082019050919050565b6000602082019050818103600083015262000a438162000a01565b9050919050565b610f2c8062000a5a6000396000f3fe6080604052600436106100955760003560e01c80638da5cb5b116100595780638da5cb5b146101b4578063aa082a9d146101df578063d0e30db01461020a578063ecfad9fd14610214578063f2fde38b1461023f57610100565b806301e1d114146101055780633ccfd60b1461013057806361d027b31461014757806370740aab14610172578063715018a61461019d57610100565b366101005760003411156100fe573373ffffffffffffffffffffffffffffffffffffffff167f73a19dd210f1a7f902193214c0ee91dd35ee5b4d920cba8d519eca65a7b488ca34426040516100eb929190610947565b60405180910390a26100fd3334610268565b5b005b600080fd5b34801561011157600080fd5b5061011a61026c565b6040516101279190610970565b60405180910390f35b34801561013c57600080fd5b50610145610274565b005b34801561015357600080fd5b5061015c6104a9565b60405161016991906109cc565b60405180910390f35b34801561017e57600080fd5b506101876104cf565b6040516101949190610a77565b60405180910390f35b3480156101a957600080fd5b506101b261055d565b005b3480156101c057600080fd5b506101c9610571565b6040516101d691906109cc565b60405180910390f35b3480156101eb57600080fd5b506101f461059a565b6040516102019190610970565b60405180910390f35b6102126105a0565b005b34801561022057600080fd5b5061022961064f565b6040516102369190610970565b60405180910390f35b34801561024b57600080fd5b5061026660048036038101906102619190610aca565b610655565b005b5050565b600047905090565b61027c6106db565b610284610762565b6000479050600081116102cc576040517f08c379a00000000000000000000000000000000000000000000000000000000081526004016102c390610b43565b60405180910390fd5b6003544210610382576102df33826107a8565b3373ffffffffffffffffffffffffffffffffffffffff167f62116a798bb58cc967874bea4d771de2f9aeec6c64189ff2e5a551072f3106f98242604051610327929190610baf565b60405180910390a23373ffffffffffffffffffffffffffffffffffffffff167f779c86999fb727ca861d0288aa11ed4104347721c571e4f0da5172afb607d885826040516103759190610970565b60405180910390a261049e565b6000612710600454836103959190610c1a565b61039f9190610c8b565b9050600081836103af9190610cbc565b905060008211156103e7576103e6600560009054906101000a900473ffffffffffffffffffffffffffffffffffffffff16836107a8565b5b60008111156103fb576103fa33826107a8565b5b3373ffffffffffffffffffffffffffffffffffffffff167f62116a798bb58cc967874bea4d771de2f9aeec6c64189ff2e5a551072f3106f98242604051610443929190610d3c565b60405180910390a23373ffffffffffffffffffffffffffffffffffffffff167f1670585e36568ede58d159518ce92cad99f75ad41c7d8281df3dd4eaa0c855d08284604051610493929190610947565b60405180910390a250505b506104a7610859565b565b600560009054906101000a900473ffffffffffffffffffffffffffffffffffffffff1681565b600280546104dc90610da7565b80601f016020809104026020016040519081016040528092919081815260200182805461050890610da7565b80156105555780601f1061052a57610100808354040283529160200191610555565b820191906000526020600020905b81548152906001019060200180831161053857829003601f168201915b505050505081565b6105656106db565b61056f6000610862565b565b60008060009054906101000a900473ffffffffffffffffffffffffffffffffffffffff16905090565b60035481565b6105a8610762565b600034116105eb576040517f08c379a00000000000000000000000000000000000000000000000000000000081526004016105e290610e24565b60405180910390fd5b3373ffffffffffffffffffffffffffffffffffffffff167f73a19dd210f1a7f902193214c0ee91dd35ee5b4d920cba8d519eca65a7b488ca3442604051610633929190610947565b60405180910390a26106453334610268565b61064d610859565b565b60045481565b61065d6106db565b600073ffffffffffffffffffffffffffffffffffffffff168173ffffffffffffffffffffffffffffffffffffffff16036106cf5760006040517f1e4fbdf70000000000000000000000000000000000000000000000000000000081526004016106c691906109cc565b60405180910390fd5b6106d881610862565b50565b6106e3610926565b73ffffffffffffffffffffffffffffffffffffffff16610701610571565b73ffffffffffffffffffffffffffffffffffffffff161461076057610724610926565b6040517f118cdaa700000000000000000000000000000000000000000000000000000000815260040161075791906109cc565b60405180910390fd5b565b60026001540361079e576040517f3ee5aeb500000000000000000000000000000000000000000000000000000000815260040160405180910390fd5b6002600181905550565b60008273ffffffffffffffffffffffffffffffffffffffff16826040516107ce90610e75565b60006040518083038185875af1925050503d806000811461080b576040519150601f19603f3d011682016040523d82523d6000602084013e610810565b606091505b5050905080610854576040517f08c379a000000000000000000000000000000000000000000000000000000000815260040161084b90610ed6565b60405180910390fd5b505050565b60018081905550565b60008060009054906101000a900473ffffffffffffffffffffffffffffffffffffffff169050816000806101000a81548173ffffffffffffffffffffffffffffffffffffffff021916908373ffffffffffffffffffffffffffffffffffffffff1602179055508173ffffffffffffffffffffffffffffffffffffffff168173ffffffffffffffffffffffffffffffffffffffff167f8be0079c531659141344cd1fd0a4f28419497f9722a3daafe3b4186f6b6457e060405160405180910390a35050565b600033905090565b6000819050919050565b6109418161092e565b82525050565b600060408201905061095c6000830185610938565b6109696020830184610938565b9392505050565b60006020820190506109856000830184610938565b92915050565b600073ffffffffffffffffffffffffffffffffffffffff82169050919050565b60006109b68261098b565b9050919050565b6109c6816109ab565b82525050565b60006020820190506109e160008301846109bd565b92915050565b600081519050919050565b600082825260208201905092915050565b60005b83811015610a21578082015181840152602081019050610a06565b60008484015250505050565b6000601f19601f8301169050919050565b6000610a49826109e7565b610a5381856109f2565b9350610a63818560208601610a03565b610a6c81610a2d565b840191505092915050565b60006020820190508181036000830152610a918184610a3e565b905092915050565b600080fd5b610aa7816109ab565b8114610ab257600080fd5b50565b600081359050610ac481610a9e565b92915050565b600060208284031215610ae057610adf610a99565b5b6000610aee84828501610ab5565b91505092915050565b7f4e6f2066756e647320746f207769746864726177000000000000000000000000600082015250565b6000610b2d6014836109f2565b9150610b3882610af7565b602082019050919050565b60006020820190508181036000830152610b5c81610b20565b9050919050565b7f4d41545552495459000000000000000000000000000000000000000000000000600082015250565b6000610b996008836109f2565b9150610ba482610b63565b602082019050919050565b6000606082019050610bc46000830185610938565b610bd16020830184610938565b8181036040830152610be281610b8c565b90509392505050565b7f4e487b7100000000000000000000000000000000000000000000000000000000600052601160045260246000fd5b6000610c258261092e565b9150610c308361092e565b9250828202610c3e8161092e565b91508282048414831517610c5557610c54610beb565b5b5092915050565b7f4e487b7100000000000000000000000000000000000000000000000000000000600052601260045260246000fd5b6000610c968261092e565b9150610ca18361092e565b925082610cb157610cb0610c5c565b5b828204905092915050565b6000610cc78261092e565b9150610cd28361092e565b9250828203905081811115610cea57610ce9610beb565b5b92915050565b7f4541524c595f4558495400000000000000000000000000000000000000000000600082015250565b6000610d26600a836109f2565b9150610d3182610cf0565b602082019050919050565b6000606082019050610d516000830185610938565b610d5e6020830184610938565b8181036040830152610d6f81610d19565b90509392505050565b7f4e487b7100000000000000000000000000000000000000000000000000000000600052602260045260246000fd5b60006002820490506001821680610dbf57607f821691505b602082108103610dd257610dd1610d78565b5b50919050565b7f416d6f756e74206d757374206265203e20300000000000000000000000000000600082015250565b6000610e0e6012836109f2565b9150610e1982610dd8565b602082019050919050565b60006020820190508181036000830152610e3d81610e01565b9050919050565b600081905092915050565b50565b6000610e5f600083610e44565b9150610e6a82610e4f565b600082019050919050565b6000610e8082610e52565b9150819050919050565b7f4e6174697665207472616e73666572206661696c656400000000000000000000600082015250565b6000610ec06016836109f2565b9150610ecb82610e8a565b602082019050919050565b60006020820190508181036000830152610eef81610eb3565b905091905056fea26469706673582212207a9bb1d6f3eff68d8622fcead1043337515111c86022a907ca3bee38312f31a364736f6c6343000814003360806040523480156200001157600080fd5b50604051620026b5380380620026b58339818101604052810190620000379190620006c4565b823380600073ffffffffffffffffffffffffffffffffffffffff168173ffffffffffffffffffffffffffffffffffffffff1603620000af5760006040517f1e4fbdf7000000000000000000000000000000000000000000000000000000008152600401620000a691906200076f565b60405180910390fd5b620000c081620002f260201b60201c565b50600180819055508160029081620000d99190620009cd565b507f897cb1f7a5aced02f0fe4e37d9268d7509e5620fe53f2bfe685120bcb0c13a30826040516200010b919062000b06565b60405180910390a1505060008111801562000127575081518111155b62000169576040517f08c379a0000000000000000000000000000000000000000000000000000000008152600401620001609062000b7a565b60405180910390fd5b60005b8251811015620002e15760016003600085848151811062000192576200019162000b9c565b5b602002602001015173ffffffffffffffffffffffffffffffffffffffff1673ffffffffffffffffffffffffffffffffffffffff16815260200190815260200160002060006101000a81548160ff021916908315150217905550600483828151811062000203576200020262000b9c565b5b60200260200101519080600181540180825580915050600190039060005260206000200160009091909190916101000a81548173ffffffffffffffffffffffffffffffffffffffff021916908373ffffffffffffffffffffffffffffffffffffffff16021790555082818151811062000281576200028062000b9c565b5b602002602001015173ffffffffffffffffffffffffffffffffffffffff167fb251eb052afc73ffd02ffe85ad79990a8b3fed60d76dbc2fa2fdd7123dffd91460405160405180910390a28080620002d89062000bfa565b9150506200016c565b508060058190555050505062000c47565b60008060009054906101000a900473ffffffffffffffffffffffffffffffffffffffff169050816000806101000a81548173ffffffffffffffffffffffffffffffffffffffff021916908373ffffffffffffffffffffffffffffffffffffffff1602179055508173ffffffffffffffffffffffffffffffffffffffff168173ffffffffffffffffffffffffffffffffffffffff167f8be0079c531659141344cd1fd0a4f28419497f9722a3daafe3b4186f6b6457e060405160405180910390a35050565b6000604051905090565b600080fd5b600080fd5b600080fd5b600080fd5b6000601f19601f8301169050919050565b7f4e487b7100000000000000000000000000000000000000000000000000000000600052604160045260246000fd5b6200041f82620003d4565b810181811067ffffffffffffffff82111715620004415762000440620003e5565b5b80604052505050565b600062000456620003b6565b905062000464828262000414565b919050565b600067ffffffffffffffff821115620004875762000486620003e5565b5b6200049282620003d4565b9050602081019050919050565b60005b83811015620004bf578082015181840152602081019050620004a2565b60008484015250505050565b6000620004e2620004dc8462000469565b6200044a565b905082815260208101848484011115620005015762000500620003cf565b5b6200050e8482856200049f565b509392505050565b600082601f8301126200052e576200052d620003ca565b5b815162000540848260208601620004cb565b91505092915050565b600067ffffffffffffffff821115620005675762000566620003e5565b5b602082029050602081019050919050565b600080fd5b600073ffffffffffffffffffffffffffffffffffffffff82169050919050565b6000620005aa826200057d565b9050919050565b620005bc816200059d565b8114620005c857600080fd5b50565b600081519050620005dc81620005b1565b92915050565b6000620005f9620005f38462000549565b6200044a565b905080838252602082019050602084028301858111156200061f576200061e62000578565b5b835b818110156200064c5780620006378882620005cb565b84526020840193505060208101905062000621565b5050509392505050565b600082601f8301126200066e576200066d620003ca565b5b815162000680848260208601620005e2565b91505092915050565b6000819050919050565b6200069e8162000689565b8114620006aa57600080fd5b50565b600081519050620006be8162000693565b92915050565b600080600060608486031215620006e057620006df620003c0565b5b600084015167ffffffffffffffff811115620007015762000700620003c5565b5b6200070f8682870162000516565b935050602084015167ffffffffffffffff811115620007335762000732620003c5565b5b620007418682870162000656565b92505060406200075486828701620006ad565b9150509250925092565b62000769816200059d565b82525050565b60006020820190506200078660008301846200075e565b92915050565b600081519050919050565b7f4e487b7100000000000000000000000000000000000000000000000000000000600052602260045260246000fd5b60006002820490506001821680620007df57607f821691505b602082108103620007f557620007f462000797565b5b50919050565b60008190508160005260206000209050919050565b60006020601f8301049050919050565b600082821b905092915050565b6000600883026200085f7fffffffffffffffffffffffffffffffffffffffffffffffffffffffffffffffff8262000820565b6200086b868362000820565b95508019841693508086168417925050509392505050565b6000819050919050565b6000620008ae620008a8620008a28462000689565b62000883565b62000689565b9050919050565b6000819050919050565b620008ca836200088d565b620008e2620008d982620008b5565b8484546200082d565b825550505050565b600090565b620008f9620008ea565b62000906818484620008bf565b505050565b5b818110156200092e5762000922600082620008ef565b6001810190506200090c565b5050565b601f8211156200097d576200094781620007fb565b620009528462000810565b8101602085101562000962578190505b6200097a620009718562000810565b8301826200090b565b50505b505050565b600082821c905092915050565b6000620009a26000198460080262000982565b1980831691505092915050565b6000620009bd83836200098f565b9150826002028217905092915050565b620009d8826200078c565b67ffffffffffffffff811115620009f457620009f3620003e5565b5b62000a008254620007c6565b62000a0d82828562000932565b600060209050601f83116001811462000a45576000841562000a30578287015190505b62000a3c8582620009af565b86555062000aac565b601f19841662000a5586620007fb565b60005b8281101562000a7f5784890151825560018201915060208501945060208101905062000a58565b8683101562000a9f578489015162000a9b601f8916826200098f565b8355505b6001600288020188555050505b505050505050565b600082825260208201905092915050565b600062000ad2826200078c565b62000ade818562000ab4565b935062000af08185602086016200049f565b62000afb81620003d4565b840191505092915050565b6000602082019050818103600083015262000b22818462000ac5565b905092915050565b7f496e76616c6964207468726573686f6c64000000000000000000000000000000600082015250565b600062000b6260118362000ab4565b915062000b6f8262000b2a565b602082019050919050565b6000602082019050818103600083015262000b958162000b53565b9050919050565b7f4e487b7100000000000000000000000000000000000000000000000000000000600052603260045260246000fd5b7f4e487b7100000000000000000000000000000000000000000000000000000000600052601160045260246000fd5b600062000c078262000689565b91507fffffffffffffffffffffffffffffffffffffffffffffffffffffffffffffffff820362000c3c5762000c3b62000bcb565b5b600182019050919050565b611a5e8062000c576000396000f3fe6080604052600436106100e15760003560e01c80638da5cb5b1161007f578063cca5a8b211610059578063cca5a8b214610323578063d0e30db01461034c578063da35c66414610356578063f2fde38b146103815761014c565b80638da5cb5b14610290578063997072f7146102bb578063a230c524146102e65761014c565b80635daf08ca116100bb5780635daf08ca146101e657806370740aab14610223578063715018a61461024e5780637d0eef61146102655761014c565b80630121b93f14610151578063013cf08b1461017a57806301e1d114146101bb5761014c565b3661014c57600034111561014a573373ffffffffffffffffffffffffffffffffffffffff167f73a19dd210f1a7f902193214c0ee91dd35ee5b4d920cba8d519eca65a7b488ca3442604051610137929190610f29565b60405180910390a261014933346103aa565b5b005b600080fd5b34801561015d57600080fd5b5061017860048036038101906101739190610f88565b6103ae565b005b34801561018657600080fd5b506101a1600480360381019061019c9190610f88565b6105f9565b6040516101b29594939291906110a1565b60405180910390f35b3480156101c757600080fd5b506101d06106e4565b6040516101dd91906110fb565b60405180910390f35b3480156101f257600080fd5b5061020d60048036038101906102089190610f88565b6106ec565b60405161021a9190611116565b60405180910390f35b34801561022f57600080fd5b5061023861072b565b6040516102459190611131565b60405180910390f35b34801561025a57600080fd5b506102636107b9565b005b34801561027157600080fd5b5061027a6107cd565b60405161028791906110fb565b60405180910390f35b34801561029c57600080fd5b506102a56107d3565b6040516102b29190611116565b60405180910390f35b3480156102c757600080fd5b506102d06107fc565b6040516102dd91906110fb565b60405180910390f35b3480156102f257600080fd5b5061030d6004803603810190610308919061117f565b610809565b60405161031a91906111ac565b60405180910390f35b34801561032f57600080fd5b5061034a6004803603810190610345919061122c565b610829565b005b6103546109fe565b005b34801561036257600080fd5b5061036b610aad565b60405161037891906110fb565b60405180910390f35b34801561038d57600080fd5b506103a860048036038101906103a3919061117f565b610ab3565b005b5050565b600360003373ffffffffffffffffffffffffffffffffffffffff1673ffffffffffffffffffffffffffffffffffffffff16815260200190815260200160002060009054906101000a900460ff1661043a576040517f08c379a0000000000000000000000000000000000000000000000000000000008152600401610431906112ec565b60405180910390fd5b60006006600083815260200190815260200160002090508060040160009054906101000a900460ff16156104a3576040517f08c379a000000000000000000000000000000000000000000000000000000000815260040161049a90611358565b60405180910390fd5b8060050160003373ffffffffffffffffffffffffffffffffffffffff1673ffffffffffffffffffffffffffffffffffffffff16815260200190815260200160002060009054906101000a900460ff1615610532576040517f08c379a0000000000000000000000000000000000000000000000000000000008152600401610529906113c4565b60405180910390fd5b60018160050160003373ffffffffffffffffffffffffffffffffffffffff1673ffffffffffffffffffffffffffffffffffffffff16815260200190815260200160002060006101000a81548160ff0219169083151502179055508060030160008154809291906105a190611413565b9190505550817f34647120636ce03d739347e28e9d1bdd34fd03d066ae60439fb1be2721ad16cd336040516105d69190611116565b60405180910390a26005548160030154106105f5576105f482610b39565b5b5050565b60066020528060005260406000206000915090508060000160009054906101000a900473ffffffffffffffffffffffffffffffffffffffff16908060010154908060020180546106489061148a565b80601f01602080910402602001604051908101604052809291908181526020018280546106749061148a565b80156106c15780601f10610696576101008083540402835291602001916106c1565b820191906000526020600020905b8154815290600101906020018083116106a457829003601f168201915b5050505050908060030154908060040160009054906101000a900460ff16905085565b600047905090565b600481815481106106fc57600080fd5b906000526020600020016000915054906101000a900473ffffffffffffffffffffffffffffffffffffffff1681565b600280546107389061148a565b80601f01602080910402602001604051908101604052809291908181526020018280546107649061148a565b80156107b15780601f10610786576101008083540402835291602001916107b1565b820191906000526020600020905b81548152906001019060200180831161079457829003601f168201915b505050505081565b6107c1610d6e565b6107cb6000610df5565b565b60055481565b60008060009054906101000a900473ffffffffffffffffffffffffffffffffffffffff16905090565b6000600480549050905090565b60036020528060005260406000206000915054906101000a900460ff1681565b600360003373ffffffffffffffffffffffffffffffffffffffff1673ffffffffffffffffffffffffffffffffffffffff16815260200190815260200160002060009054906101000a900460ff166108b5576040517f08c379a00000000000000000000000000000000000000000000000000000000081526004016108ac906112ec565b60405180910390fd5b6108bd6106e4565b8311156108ff576040517f08c379a00000000000000000000000000000000000000000000000000000000081526004016108f690611507565b60405180910390fd5b60006007600081548092919061091490611413565b9190505590506000600660008381526020019081526020016000209050858160000160006101000a81548173ffffffffffffffffffffffffffffffffffffffff021916908373ffffffffffffffffffffffffffffffffffffffff160217905550848160010181905550838382600201918261099092919061170d565b5060008160040160006101000a81548160ff02191690831515021790555060008160030181905550817f85b1e5bd1e58840265c40582ff09f8cbfab823e041a824467b654a99b5156d39878787876040516109ee9493929190611819565b60405180910390a2505050505050565b610a06610eb9565b60003411610a49576040517f08c379a0000000000000000000000000000000000000000000000000000000008152600401610a40906118a5565b60405180910390fd5b3373ffffffffffffffffffffffffffffffffffffffff167f73a19dd210f1a7f902193214c0ee91dd35ee5b4d920cba8d519eca65a7b488ca3442604051610a91929190610f29565b60405180910390a2610aa333346103aa565b610aab610eff565b565b60075481565b610abb610d6e565b600073ffffffffffffffffffffffffffffffffffffffff168173ffffffffffffffffffffffffffffffffffffffff1603610b2d5760006040517f1e4fbdf7000000000000000000000000000000000000000000000000000000008152600401610b249190611116565b60405180910390fd5b610b3681610df5565b50565b6000600660008381526020019081526020016000209050610b586106e4565b81600101541115610b9e576040517f08c379a0000000000000000000000000000000000000000000000000000000008152600401610b9590611507565b60405180910390fd5b60018160040160006101000a81548160ff02191690831515021790555060008160000160009054906101000a900473ffffffffffffffffffffffffffffffffffffffff1673ffffffffffffffffffffffffffffffffffffffff168260010154604051610c09906118f6565b60006040518083038185875af1925050503d8060008114610c46576040519150601f19603f3d011682016040523d82523d6000602084013e610c4b565b606091505b5050905080610c8f576040517f08c379a0000000000000000000000000000000000000000000000000000000008152600401610c8690611957565b60405180910390fd5b827f3b7c90df35b419337cff0919fe91849006607bb66c4373623f06f9d48c1ebb988360000160009054906101000a900473ffffffffffffffffffffffffffffffffffffffff168460010154604051610ce9929190611977565b60405180910390a28160000160009054906101000a900473ffffffffffffffffffffffffffffffffffffffff1673ffffffffffffffffffffffffffffffffffffffff167f62116a798bb58cc967874bea4d771de2f9aeec6c64189ff2e5a551072f3106f9836001015442604051610d619291906119ec565b60405180910390a2505050565b610d76610f08565b73ffffffffffffffffffffffffffffffffffffffff16610d946107d3565b73ffffffffffffffffffffffffffffffffffffffff1614610df357610db7610f08565b6040517f118cdaa7000000000000000000000000000000000000000000000000000000008152600401610dea9190611116565b60405180910390fd5b565b60008060009054906101000a900473ffffffffffffffffffffffffffffffffffffffff169050816000806101000a81548173ffffffffffffffffffffffffffffffffffffffff021916908373ffffffffffffffffffffffffffffffffffffffff1602179055508173ffffffffffffffffffffffffffffffffffffffff168173ffffffffffffffffffffffffffffffffffffffff167f8be0079c531659141344cd1fd0a4f28419497f9722a3daafe3b4186f6b6457e060405160405180910390a35050565b600260015403610ef5576040517f3ee5aeb500000000000000000000000000000000000000000000000000000000815260040160405180910390fd5b6002600181905550565b60018081905550565b600033905090565b6000819050919050565b610f2381610f10565b82525050565b6000604082019050610f3e6000830185610f1a565b610f4b6020830184610f1a565b9392505050565b600080fd5b600080fd5b610f6581610f10565b8114610f7057600080fd5b50565b600081359050610f8281610f5c565b92915050565b600060208284031215610f9e57610f9d610f52565b5b6000610fac84828501610f73565b91505092915050565b600073ffffffffffffffffffffffffffffffffffffffff82169050919050565b6000610fe082610fb5565b9050919050565b610ff081610fd5565b82525050565b600081519050919050565b600082825260208201905092915050565b60005b83811015611030578082015181840152602081019050611015565b60008484015250505050565b6000601f19601f8301169050919050565b600061105882610ff6565b6110628185611001565b9350611072818560208601611012565b61107b8161103c565b840191505092915050565b60008115159050919050565b61109b81611086565b82525050565b600060a0820190506110b66000830188610fe7565b6110c36020830187610f1a565b81810360408301526110d5818661104d565b90506110e46060830185610f1a565b6110f16080830184611092565b9695505050505050565b60006020820190506111106000830184610f1a565b92915050565b600060208201905061112b6000830184610fe7565b92915050565b6000602082019050818103600083015261114b818461104d565b905092915050565b61115c81610fd5565b811461116757600080fd5b50565b60008135905061117981611153565b92915050565b60006020828403121561119557611194610f52565b5b60006111a38482850161116a565b91505092915050565b60006020820190506111c16000830184611092565b92915050565b600080fd5b600080fd5b600080fd5b60008083601f8401126111ec576111eb6111c7565b5b8235905067ffffffffffffffff811115611209576112086111cc565b5b602083019150836001820283011115611225576112246111d1565b5b9250929050565b6000806000806060858703121561124657611245610f52565b5b60006112548782880161116a565b945050602061126587828801610f73565b935050604085013567ffffffffffffffff81111561128657611285610f57565b5b611292878288016111d6565b925092505092959194509250565b7f4e6f742061206d656d6265720000000000000000000000000000000000000000600082015250565b60006112d6600c83611001565b91506112e1826112a0565b602082019050919050565b60006020820190508181036000830152611305816112c9565b9050919050565b7f416c726561647920657865637574656400000000000000000000000000000000600082015250565b6000611342601083611001565b915061134d8261130c565b602082019050919050565b6000602082019050818103600083015261137181611335565b9050919050565b7f416c726561647920766f74656400000000000000000000000000000000000000600082015250565b60006113ae600d83611001565b91506113b982611378565b602082019050919050565b600060208201905081810360008301526113dd816113a1565b9050919050565b7f4e487b7100000000000000000000000000000000000000000000000000000000600052601160045260246000fd5b600061141e82610f10565b91507fffffffffffffffffffffffffffffffffffffffffffffffffffffffffffffffff82036114505761144f6113e4565b5b600182019050919050565b7f4e487b7100000000000000000000000000000000000000000000000000000000600052602260045260246000fd5b600060028204905060018216806114a257607f821691505b6020821081036114b5576114b461145b565b5b50919050565b7f496e73756666696369656e742066756e64730000000000000000000000000000600082015250565b60006114f1601283611001565b91506114fc826114bb565b602082019050919050565b60006020820190508181036000830152611520816114e4565b9050919050565b600082905092915050565b7f4e487b7100000000000000000000000000000000000000000000000000000000600052604160045260246000fd5b60008190508160005260206000209050919050565b60006020601f8301049050919050565b600082821b905092915050565b6000600883026115c37fffffffffffffffffffffffffffffffffffffffffffffffffffffffffffffffff82611586565b6115cd8683611586565b95508019841693508086168417925050509392505050565b6000819050919050565b600061160a61160561160084610f10565b6115e5565b610f10565b9050919050565b6000819050919050565b611624836115ef565b61163861163082611611565b848454611593565b825550505050565b600090565b61164d611640565b61165881848461161b565b505050565b5b8181101561167c57611671600082611645565b60018101905061165e565b5050565b601f8211156116c15761169281611561565b61169b84611576565b810160208510156116aa578190505b6116be6116b685611576565b83018261165d565b50505b505050565b600082821c905092915050565b60006116e4600019846008026116c6565b1980831691505092915050565b60006116fd83836116d3565b9150826002028217905092915050565b6117178383611527565b67ffffffffffffffff8111156117305761172f611532565b5b61173a825461148a565b611745828285611680565b6000601f8311600181146117745760008415611762578287013590505b61176c85826116f1565b8655506117d4565b601f19841661178286611561565b60005b828110156117aa57848901358255600182019150602085019450602081019050611785565b868310156117c757848901356117c3601f8916826116d3565b8355505b6001600288020188555050505b50505050505050565b82818337600083830152505050565b60006117f88385611001565b93506118058385846117dd565b61180e8361103c565b840190509392505050565b600060608201905061182e6000830187610fe7565b61183b6020830186610f1a565b818103604083015261184e8184866117ec565b905095945050505050565b7f416d6f756e74206d757374206265203e20300000000000000000000000000000600082015250565b600061188f601283611001565b915061189a82611859565b602082019050919050565b600060208201905081810360008301526118be81611882565b9050919050565b600081905092915050565b50565b60006118e06000836118c5565b91506118eb826118d0565b600082019050919050565b6000611901826118d3565b9150819050919050565b7f5472616e73666572206661696c65640000000000000000000000000000000000600082015250565b6000611941600f83611001565b915061194c8261190b565b602082019050919050565b6000602082019050818103600083015261197081611934565b9050919050565b600060408201905061198c6000830185610fe7565b6119996020830184610f1a565b9392505050565b7f47524f55505f5041594f55540000000000000000000000000000000000000000600082015250565b60006119d6600c83611001565b91506119e1826119a0565b602082019050919050565b6000606082019050611a016000830185610f1a565b611a0e6020830184610f1a565b8181036040830152611a1f816119c9565b9050939250505056fea2646970667358221220054c2d8c5f535cc89e77d8b91d690ce5103e805708d917682239899531fa6f0f64736f6c63430008140033a2646970667358221220c7f3cc6bde3c4f35e1d33042be1cef974e45f339bd4a3c186752545c165952cd64736f6c63430008140033",
  "linkReferences": {},
  "deployedLinkReferences": {}
}