{
  "_format": "hh-sol-artifact-1",
  "contractName": "VaultFactory",
  "sourceName": "contracts/VaultFactory.sol",
  "abi": [
    {
      "inputs": [
        {
          "internalType": "address",
          "name": "_usdtToken",
          "type": "address"
        },
        {
          "internalType": "address",
          "name": "_protocolTreasury",
          "type": "address"
        },
        {
          "internalType": "address",
          "name": "_metadata",
          "type": "address"
        }
      ],
      "stateMutability": "nonpayable",
      "type": "constructor"
    },
    {
      "inputs": [
        {
          "internalType": "uint256",
          "name": "numerator",
          "type": "uint256"
        },
        {
          "internalType": "uint256",
          "name": "denominator",
          "type": "uint256"
        }
      ],
      "name": "ERC2981InvalidDefaultRoyalty",
      "type": "error"
    },
    {
      "inputs": [
        {
          "internalType": "address",
          "name": "receiver",
          "type": "address"
        }
      ],
      "name": "ERC2981InvalidDefaultRoyaltyReceiver",
      "type": "error"
    },
    {
      "inputs": [
        {
          "internalType": "uint256",
          "name": "tokenId",
          "type": "uint256"
        },
        {
          "internalType": "uint256",
          "name": "numerator",
          "type": "uint256"
        },
        {
          "internalType": "uint256",
          "name": "denominator",
          "type": "uint256"
        }
      ],
      "name": "ERC2981InvalidTokenRoyalty",
      "type": "error"
    },
    {
      "inputs": [
        {
          "internalType": "uint256",
          "name": "tokenId",
          "type": "uint256"
        },
        {
          "internalType": "address",
          "name": "receiver",
          "type": "address"
        }
      ],
      "name": "ERC2981InvalidTokenRoyaltyReceiver",
      "type": "error"
    },
    {
      "inputs": [
        {
          "internalType": "address",
          "name": "sender",
          "type": "address"
        },
        {
          "internalType": "uint256",
          "name": "tokenId",
          "type": "uint256"
        },
        {
          "internalType": "address",
          "name": "owner",
          "type": "address"
        }
      ],
      "name": "ERC721IncorrectOwner",
      "type": "error"
    },
    {
      "inputs": [
        {
          "internalType": "address",
          "name": "operator",
          "type": "address"
        },
        {
          "internalType": "uint256",
          "name": "tokenId",
          "type": "uint256"
        }
      ],
      "name": "ERC721InsufficientApproval",
      "type": "error"
    },
    {
      "inputs": [
        {
          "internalType": "address",
          "name": "approver",
          "type": "address"
        }
      ],
      "name": "ERC721InvalidApprover",
      "type": "error"
    },
    {
      "inputs": [
        {
          "internalType": "address",
          "name": "operator",
          "type": "address"
        }
      ],
      "name": "ERC721InvalidOperator",
      "type": "error"
    },
    {
      "inputs": [
        {
          "internalType": "address",
          "name": "owner",
          "type": "address"
        }
      ],
      "name": "ERC721InvalidOwner",
      "type": "error"
    },
    {
      "inputs": [
        {
          "internalType": "address",
          "name": "receiver",
          "type": "address"
        }
      ],
      "name": "ERC721InvalidReceiver",
      "type": "error"
    },
    {
      "inputs": [
        {
          "internalType": "address",
          "name": "sender",
          "type": "address"
        }
      ],
      "name": "ERC721InvalidSender",
      "type": "error"
    },
    {
      "inputs": [
        {
          "internalType": "uint256",
          "name": "tokenId",
          "type": "uint256"
        }
      ],
      "name": "ERC721NonexistentToken",
      "type": "error"
    },
    {
      "inputs": [
        {
          "internalType": "address",
          "name": "owner",
          "type": "address"
        }
      ],
      "name": "OwnableInvalidOwner",
      "type": "error"
    },
    {
      "inputs": [
        {
          "internalType": "address",
          "name": "account",
          "type": "address"
        }
      ],
      "name": "OwnableUnauthorizedAccount",
      "type": "error"
    },
    {
      "inputs": [
        {
          "internalType": "address",
          "name": "token",
          "type": "address"
        }
      ],
      "name": "SafeERC20FailedOperation",
      "type": "error"
    },
    {
      "anonymous": false,
      "inputs": [
        {
          "indexed": true,
          "internalType": "address",
          "name": "owner",
          "type": "address"
        },
        {
          "indexed": true,
          "internalType": "address",
          "name": "approved",
          "type": "address"
        },
        {
          "indexed": true,
          "internalType": "uint256",
          "name": "tokenId",
          "type": "uint256"
        }
      ],
      "name": "Approval",
      "type": "event"
    },
    {
      "anonymous": false,
      "inputs": [
        {
          "indexed": true,
          "internalType": "address",
          "name": "owner",
          "type": "address"
        },
        {
          "indexed": true,
          "internalType": "address",
          "name": "operator",
          "type": "address"
        },
        {
          "indexed": false,
          "internalType": "bool",
          "name": "approved",
          "type": "bool"
        }
      ],
      "name": "ApprovalForAll",
      "type": "event"
    },
    {
      "anonymous": false,
      "inputs": [
        {
          "indexed": true,
          "internalType": "address",
          "name": "previousOwner",
          "type": "address"
        },
        {
          "indexed": true,
          "internalType": "address",
          "name": "newOwner",
          "type": "address"
        }
      ],
      "name": "OwnershipTransferred",
      "type": "event"
    },
    {
      "anonymous": false,
      "inputs": [
        {
          "indexed": true,
          "internalType": "address",
          "name": "vaultAddress",
          "type": "address"
        },
        {
          "indexed": true,
          "internalType": "address",
          "name": "owner",
          "type": "address"
        },
        {
          "indexed": true,
          "internalType": "uint256",
          "name": "tokenId",
          "type": "uint256"
        },
        {
          "indexed": false,
          "internalType": "string",
          "name": "purpose",
          "type": "string"
        },
        {
          "indexed": false,
          "internalType": "uint256",
          "name": "unlockTime",
          "type": "uint256"
        }
      ],
      "name": "PersonalVaultCreated",
      "type": "event"
    },
    {
      "anonymous": false,
      "inputs": [
        {
          "indexed": true,
          "internalType": "address",
          "name": "from",
          "type": "address"
        },
        {
          "indexed": true,
          "internalType": "address",
          "name": "to",
          "type": "address"
        },
        {
          "indexed": true,
          "internalType": "uint256",
          "name": "tokenId",
          "type": "uint256"
        }
      ],
      "name": "Transfer",
      "type": "event"
    },
    {
      "inputs": [
        {
          "internalType": "uint256",
          "name": "",
          "type": "uint256"
        }
      ],
      "name": "allVaults",
      "outputs": [
        {
          "internalType": "address",
          "name": "",
          "type": "address"
        }
      ],
      "stateMutability": "view",
      "type": "function"
    },
    {
      "inputs": [
        {
          "internalType": "address",
          "name": "to",
          "type": "address"
        },
        {
          "internalType": "uint256",
          "name": "tokenId",
          "type": "uint256"
        }
      ],
      "name": "approve",
      "outputs": [],
      "stateMutability": "nonpayable",
      "type": "function"
    },
    {
      "inputs": [
        {
          "internalType": "address",
          "name": "owner",
          "type": "address"
        }
      ],
      "name": "balanceOf",
      "outputs": [
        {
          "internalType": "uint256",
          "name": "",
          "type": "uint256"
        }
      ],
      "stateMutability": "view",
      "type": "function"
    },
    {
      "inputs": [
        {
          "internalType": "uint256",
          "name": "tokenId",
          "type": "uint256"
        }
      ],
      "name": "burnVaultNFT",
      "outputs": [],
      "stateMutability": "nonpayable",
      "type": "function"
    },
    {
      "inputs": [
        {
          "internalType": "string",
          "name": "_purpose",
          "type": "string"
        },
        {
          "internalType": "uint256",
          "name": "_unlockTimestamp",
          "type": "uint256"
        },
        {
          "internalType": "uint256",
          "name": "_penaltyBps",
          "type": "uint256"
        },
        {
          "internalType": "uint256",
          "name": "_initialDeposit",
          "type": "uint256"
        },
        {
          "internalType": "address",
          "name": "_beneficiary",
          "type": "address"
        }
      ],
      "name": "createPersonalVault",
      "outputs": [
        {
          "internalType": "address",
          "name": "",
          "type": "address"
        }
      ],
      "stateMutability": "nonpayable",
      "type": "function"
    },
    {
      "inputs": [
        {
          "internalType": "address",
          "name": "_vault",
          "type": "address"
        },
        {
          "internalType": "uint256",
          "name": "_amount",
          "type": "uint256"
        }
      ],
      "name": "executeAutoDeposit",
      "outputs": [],
      "stateMutability": "nonpayable",
      "type": "function"
    },
    {
      "inputs": [],
      "name": "getAllVaults",
      "outputs": [
        {
          "internalType": "address[]",
          "name": "",
          "type": "address[]"
        }
      ],
      "stateMutability": "view",
      "type": "function"
    },
    {
      "inputs": [
        {
          "internalType": "uint256",
          "name": "tokenId",
          "type": "uint256"
        }
      ],
      "name": "getApproved",
      "outputs": [
        {
          "internalType": "address",
          "name": "",
          "type": "address"
        }
      ],
      "stateMutability": "view",
      "type": "function"
    },
    {
      "inputs": [
        {
          "internalType": "address",
          "name": "_user",
          "type": "address"
        }
      ],
      "name": "getUserVaults",
      "outputs": [
        {
          "internalType": "address[]",
          "name": "",
          "type": "address[]"
        }
      ],
      "stateMutability": "view",
      "type": "function"
    },
    {
      "inputs": [
        {
          "internalType": "address",
          "name": "owner",
          "type": "address"
        },
        {
          "internalType": "address",
          "name": "operator",
          "type": "address"
        }
      ],
      "name": "isApprovedForAll",
      "outputs": [
        {
          "internalType": "bool",
          "name": "",
          "type": "bool"
        }
      ],
      "stateMutability": "view",
      "type": "function"
    },
    {
      "inputs": [
        {
          "internalType": "address",
          "name": "",
          "type": "address"
        }
      ],
      "name": "isVault",
      "outputs": [
        {
          "internalType": "bool",
          "name": "",
          "type": "bool"
        }
      ],
      "stateMutability": "view",
      "type": "function"
    },
    {
      "inputs": [
        {
          "internalType": "uint256",
          "name": "",
          "type": "uint256"
        }
      ],
      "name": "lastUpdate",
      "outputs": [
        {
          "internalType": "uint256",
          "name": "",
          "type": "uint256"
        }
      ],
      "stateMutability": "view",
      "type": "function"
    },
    {
      "inputs": [],
      "name": "metadataGenerator",
      "outputs": [
        {
          "internalType": "address",
          "name": "",
          "type": "address"
        }
      ],
      "stateMutability": "view",
      "type": "function"
    },
    {
      "inputs": [],
      "name": "name",
      "outputs": [
        {
          "internalType": "string",
          "name": "",
          "type": "string"
        }
      ],
      "stateMutability": "view",
      "type": "function"
    },
    {
      "inputs": [
        {
          "internalType": "uint256",
          "name": "_tokenId",
          "type": "uint256"
        }
      ],
      "name": "notifyUpdate",
      "outputs": [],
      "stateMutability": "nonpayable",
      "type": "function"
    },
    {
      "inputs": [],
      "name": "owner",
      "outputs": [
        {
          "internalType": "address",
          "name": "",
          "type": "address"
        }
      ],
      "stateMutability": "view",
      "type": "function"
    },
    {
      "inputs": [
        {
          "internalType": "uint256",
          "name": "tokenId",
          "type": "uint256"
        }
      ],
      "name": "ownerOf",
      "outputs": [
        {
          "internalType": "address",
          "name": "",
          "type": "address"
        }
      ],
      "stateMutability": "view",
      "type": "function"
    },
    {
      "inputs": [],
      "name": "protocolTreasury",
      "outputs": [
        {
          "internalType": "address",
          "name": "",
          "type": "address"
        }
      ],
      "stateMutability": "view",
      "type": "function"
    },
    {
      "inputs": [],
      "name": "renounceOwnership",
      "outputs": [],
      "stateMutability": "nonpayable",
      "type": "function"
    },
    {
      "inputs": [
        {
          "internalType": "uint256",
          "name": "tokenId",
          "type": "uint256"
        },
        {
          "internalType": "uint256",
          "name": "salePrice",
          "type": "uint256"
        }
      ],
      "name": "royaltyInfo",
      "outputs": [
        {
          "internalType": "address",
          "name": "receiver",
          "type": "address"
        },
        {
          "internalType": "uint256",
          "name": "amount",
          "type": "uint256"
        }
      ],
      "stateMutability": "view",
      "type": "function"
    },
    {
      "inputs": [
        {
          "internalType": "address",
          "name": "from",
          "type": "address"
        },
        {
          "internalType": "address",
          "name": "to",
          "type": "address"
        },
        {
          "internalType": "uint256",
          "name": "tokenId",
          "type": "uint256"
        }
      ],
      "name": "safeTransferFrom",
      "outputs": [],
      "stateMutability": "nonpayable",
      "type": "function"
    },
    {
      "inputs": [
        {
          "internalType": "address",
          "name": "from",
          "type": "address"
        },
        {
          "internalType": "address",
          "name": "to",
          "type": "address"
        },
        {
          "internalType": "uint256",
          "name": "tokenId",
          "type": "uint256"
        },
        {
          "internalType": "bytes",
          "name": "data",
          "type": "bytes"
        }
      ],
      "name": "safeTransferFrom",
      "outputs": [],
      "stateMutability": "nonpayable",
      "type": "function"
    },
    {
      "inputs": [
        {
          "internalType": "address",
          "name": "operator",
          "type": "address"
        },
        {
          "internalType": "bool",
          "name": "approved",
          "type": "bool"
        }
      ],
      "name": "setApprovalForAll",
      "outputs": [],
      "stateMutability": "nonpayable",
      "type": "function"
    },
    {
      "inputs": [
        {
          "internalType": "bytes4",
          "name": "interfaceId",
          "type": "bytes4"
        }
      ],
      "name": "supportsInterface",
      "outputs": [
        {
          "internalType": "bool",
          "name": "",
          "type": "bool"
        }
      ],
      "stateMutability": "view",
      "type": "function"
    },
    {
      "inputs": [],
      "name": "symbol",
      "outputs": [
        {
          "internalType": "string",
          "name": "",
          "type": "string"
        }
      ],
      "stateMutability": "view",
      "type": "function"
    },
    {
      "inputs": [
        {
          "internalType": "uint256",
          "name": "tokenId",
          "type": "uint256"
        }
      ],
      "name": "tokenURI",
      "outputs": [
        {
          "internalType": "string",
          "name": "",
          "type": "string"
        }
      ],
      "stateMutability": "view",
      "type": "function"
    },
    {
      "inputs": [
        {
          "internalType": "address",
          "name": "from",
          "type": "address"
        },
        {
          "internalType": "address",
          "name": "to",
          "type": "address"
        },
        {
          "internalType": "uint256",
          "name": "tokenId",
          "type": "uint256"
        }
      ],
      "name": "transferFrom",
      "outputs": [],
      "stateMutability": "nonpayable",
      "type": "function"
    },
    {
      "inputs": [
        {
          "internalType": "address",
          "name": "newOwner",
          "type": "address"
        }
      ],
      "name": "transferOwnership",
      "outputs": [],
      "stateMutability": "nonpayable",
      "type": "function"
    },
    {
      "inputs": [
        {
          "internalType": "address",
          "name": "_vault",
          "type": "address"
        }
      ],
      "name": "triggerBeneficiaryClaim",
      "outputs": [],
      "stateMutability": "nonpayable",
      "type": "function"
    },
    {
      "inputs": [
        {
          "internalType": "address",
          "name": "_newMetadata",
          "type": "address"
        }
      ],
      "name": "updateMetadataGenerator",
      "outputs": [],
      "stateMutability": "nonpayable",
      "type": "function"
    },
    {
      "inputs": [],
      "name": "usdtToken",
      "outputs": [
        {
          "internalType": "address",
          "name": "",
          "type": "address"
        }
      ],
      "stateMutability": "view",
      "type": "function"
    },
    {
      "inputs": [
        {
          "internalType": "address",
          "name": "",
          "type": "address"
        },
        {
          "internalType": "uint256",
          "name": "",
          "type": "uint256"
        }
      ],
      "name": "userVaults",
      "outputs": [
        {
          "internalType": "address",
          "name": "",
          "type": "address"
        }
      ],
      "stateMutability": "view",
      "type": "function"
    },
    {
      "inputs": [
        {
          "internalType": "uint256",
          "name": "",
          "type": "uint256"
        }
      ],
      "name": "vaultAddress",
      "outputs": [
        {
          "internalType": "address",
          "name": "",
          "type": "address"
        }
      ],
      "stateMutability": "view",
      "type": "function"
    }
  ],
  "bytecode": "0x60a0346200050257601f1962003da638819003601f81810184168501946001600160401b0393919290918287108588111762000259578160609284926040998a528339810103126200050257620000568162000527565b9060209262000074876200006c86850162000527565b930162000527565b956200007f62000507565b91601383527f5361766971756520536176696e6773204e46540000000000000000000000000086840152620000b362000507565b926005845264534156495160d81b87850152805188811162000259576002546001928382811c92168015620004f7575b8a8310146200040d578185849311620004a0575b5089908583116001146200043a576000926200042e575b5050600019600383901b1c191690821b176002555b835191888311620002595760039485548381811c9116801562000423575b8a8210146200040d57828111620003c2575b50889184116001146200035d578394509083929160009462000351575b50501b9160001990841b1c19161790555b33156200033957600880546001600160a01b031980821633908117909355885190936001600160a01b0393909284167f8be0079c531659141344cd1fd0a4f28419497f9722a3daafe3b4186f6b6457e0600080a382851615620002f757508116958615620002b357169182156200026f5760805284816009541617600955600a541617600a5583518481019281841090841117620002595791845282825260fa910152607d60a11b176000555161386990816200053d82396080518181816105ea01528181610ea7015281816110f9015261145a0152f35b634e487b7160e01b600052604160045260246000fd5b865162461bcd60e51b815260048101859052601860248201527f496e76616c6964206d65746164617461206164647265737300000000000000006044820152606490fd5b875162461bcd60e51b815260048101869052601860248201527f496e76616c6964207472656173757279206164647265737300000000000000006044820152606490fd5b62461bcd60e51b815260048101869052601460248201527f496e76616c6964205553445420616464726573730000000000000000000000006044820152606490fd5b8551631e4fbdf760e01b815260006004820152602490fd5b01519250388062000170565b91938316918560005283896000209360005b8b88838310620003aa575050501062000391575b505050811b01905562000181565b015160001983861b60f8161c1916905538808062000383565b8686015188559096019594850194879350016200036f565b86600052896000208380870160051c8201928c881062000403575b0160051c019084905b828110620003f657505062000153565b60008155018490620003e6565b92508192620003dd565b634e487b7160e01b600052602260045260246000fd5b90607f169062000141565b0151905038806200010e565b90868594169160026000528b6000209260005b8d8282106200048957505084116200046f575b505050811b0160025562000123565b015160001960f88460031b161c1916905538808062000460565b83850151865588979095019493840193016200044d565b9091506002600052896000208580850160051c8201928c8610620004ed575b918691869594930160051c01915b828110620004dd575050620000f7565b60008155859450869101620004cd565b92508192620004bf565b91607f1691620000e3565b600080fd5b60408051919082016001600160401b038111838210176200025957604052565b51906001600160a01b0382168203620005025756fe60808060405260043610156200001457600080fd5b600090813560e01c90816301ffc9a714620019ac5750806306fdde0314620018dd578063081812fc146200189c578063095ea7b314620017ae5780630bc5dec41462001782578063194f5d9f14620017135780631a598ccc146200168e57806323b872dd14620016715780632a55205a14620015c857806339d4ce89146200159d57806342842e0e14620015675780634626836514620013d757806349f411b71462000e005780634be4e91f1462000dcb578063572687b61462000d555780635c6e0e271462000aba5780636352211e1462000a85578063652b9b411462000a4257806370a0823114620009e5578063715018a61462000983578063803db96d14620009585780638da5cb5b146200092d5780639094a91e14620008ce57806395d89b4114620007b057806397331bf9146200072a5780639c841fef14620006c8578063a22cb4651462000619578063a98ad46c14620005d2578063b88d4fde1462000550578063c87b56dd1462000332578063e7f3c69c146200029c578063e985e9c514620002425763f2fde38b14620001ae57600080fd5b346200023f5760203660031901126200023f57620001cb62001a88565b620001d562001bfb565b6001600160a01b039081169081156200022657600854826001600160601b0360a01b821617600855167f8be0079c531659141344cd1fd0a4f28419497f9722a3daafe3b4186f6b6457e0600080a380f35b604051631e4fbdf760e01b815260048101849052602490fd5b80fd5b50346200023f5760403660031901126200023f576200026062001a88565b60406200026c62001a9f565b9260018060a01b0380931681526007602052209116600052602052602060ff604060002054166040519015158152f35b50346200023f576020806003193601126200032e576001600160a01b039182620002c562001a88565b168152600f82526040812092604051908193808654938481520195845280842093915b8383106200031457620003108662000303818a038262001b20565b6040519182918262001bb5565b0390f35b8454811687529581019560019485019490920191620002e8565b5080fd5b50346200023f576020806003193601126200032e57600435620003558162001ef9565b50808352600d825260408084205490516370740aab60e01b81526001600160a01b03918216929185918281600481885afa9081156200054557839162000527575b506040516278744560e21b8152938685600481895afa948515620004e15787908596620004ec575b5060405163aa082a9d60e01b81529596869060049082905afa948515620004e15784956200049e575b50839495816200042c9552600e8852604086205493600a541693604051978896879586956327dd4aa560e11b8752600487015260a0602487015260a486019062001a61565b9260448501526064840152608483015203915afa9283156200049257809362000468575b50506200031060405192828493845283019062001a61565b620004899293503d8091833e62000480818362001b20565b81019062002181565b90388062000450565b604051903d90823e3d90fd5b87809296508195503d8311620004d9575b620004bb818362001b20565b81010312620004d45786936200042c93519493620003e7565b600080fd5b503d620004af565b6040513d86823e3d90fd5b945090945083813d83116200051f575b62000508818362001b20565b81010312620004d4576004938688945195620003be565b503d620004fc565b6200053e91503d8085833e62000480818362001b20565b3862000396565b6040513d85823e3d90fd5b50346200023f5760803660031901126200023f576200056e62001a88565b6200057862001a9f565b906044356064359267ffffffffffffffff8411620005ce5736602385011215620005ce57620005b6620005cb94369060248160040135910162001b60565b92620005c483838362001c28565b3362001f35565b80f35b8480fd5b50346200023f57806003193601126200023f576040517f00000000000000000000000000000000000000000000000000000000000000006001600160a01b03168152602090f35b50346200023f5760403660031901126200023f576200063762001a88565b60243590811515809203620006c4576001600160a01b0316908115620006ab5733835260076020526040832082600052602052604060002060ff1981541660ff83161790556040519081527f17307eab39ab6107e8899845ad3d59bd9653f200f220920489ca2b5937696c3160203392a380f35b604051630b61174360e31b815260048101839052602490fd5b8280fd5b50346200023f5760403660031901126200023f57620006e662001a88565b6001600160a01b039081168252600f60205260408220805460243593908410156200023f57506020926200071a9162001b9c565b9190546040519260031b1c168152f35b50346200023f57806003193601126200023f57604051600b80548083529083526020808301937f0175b7a638427703f0dbe7bb9bbf987a2551717b34e79f33b5b1008d1fa01db992915b8282106200078f576200031085620003038189038262001b20565b83546001600160a01b03168652948501946001938401939091019062000774565b50346200023f57806003193601126200023f57604051908060035491600183811c92818516948515620008c3575b6020958686108114620008af578588528794939291879082156200088b5750506001146200082d575b5050620008179250038362001b20565b6200031060405192828493845283019062001a61565b90859250600382527fc2575a0e9e593c00f959f8c92f12db2869c3395a3b0502d05e2516446f71f85b5b85831062000872575050620008179350820101388062000807565b8054838901850152879450869390920191810162000857565b92509350506200081794915060ff191682840152151560051b820101388062000807565b634e487b7160e01b83526022600452602483fd5b93607f1693620007de565b50346200023f5760203660031901126200023f57600435600b548110156200032e57600b6000527f0175b7a638427703f0dbe7bb9bbf987a2551717b34e79f33b5b1008d1fa01db901546040516001600160a01b039091168152602090f35b50346200023f57806003193601126200023f576008546040516001600160a01b039091168152602090f35b50346200023f57806003193601126200023f576009546040516001600160a01b039091168152602090f35b50346200023f57806003193601126200023f57620009a062001bfb565b600880546001600160a01b031981169091556000906001600160a01b03167f8be0079c531659141344cd1fd0a4f28419497f9722a3daafe3b4186f6b6457e08280a380f35b50346200023f5760203660031901126200023f576001600160a01b0362000a0b62001a88565b16801562000a29578160409160209352600583522054604051908152f35b6040516322718ad960e21b815260048101839052602490fd5b50346200023f5760203660031901126200023f5760209060ff906040906001600160a01b0362000a7162001a88565b168152600c84522054166040519015158152f35b50346200023f5760203660031901126200023f57602062000aa860043562001ef9565b6040516001600160a01b039091168152f35b50346200023f576020806003193601126200032e57600435808352600d825260408320546001600160a01b0392908316913383900362000d1057806000526004825283604060002054169283158015958662000cdc575b83600052600485526040600020956001600160601b0360a01b96878154169055846000827fddf252ad1be2c89b69c2b068fc378daa952ba7f163c4a11628f55a4df523b3ef8280a4600d865281604060002054169762000bb9575b505090919293945062000ba05790600d92918552600c82526040852060ff1981541690558452526040822090815416905580f35b604051637e27328960e01b815260048101839052602490fd5b600052600f855260406000209060005b82548082101562000ccc5782908a62000be3848762001b9c565b939054600394851b1c161462000c0657505062000c009062002098565b62000bc9565b909293949596979899506000199384820191821162000cb65762000c619362000c3462000c42938862001b9c565b9054911b1c16918562001b9c565b90919082549060031b9160018060a01b03809116831b921b1916179055565b8154801562000ca057019062000c9162000c7c838362001b9c565b81549060018060a01b039060031b1b19169055565b555b9084939291388062000b6c565b634e487b7160e01b600052603160045260246000fd5b634e487b7160e01b600052601160045260246000fd5b5050505090919293945062000c93565b60008481526006602052604080822080546001600160a01b0319169055878252600587529020805460001901905562000b11565b60405162461bcd60e51b815260048101839052601b60248201527f4f6e6c79207661756c742063616e206275726e20697473204e465400000000006044820152606490fd5b50346200023f5760203660031901126200023f57600435808252600d60205260408220546001600160a01b0316330362000d99578152600e60205242604082205580f35b60405162461bcd60e51b815260206004820152600a60248201526913db9b1e481d985d5b1d60b21b6044820152606490fd5b50346200023f5760203660031901126200023f576020906004358152600d8252604060018060a01b0391205416604051908152f35b50346200023f5760a03660031901126200023f5767ffffffffffffffff906004358281116200032e57366023820112156200032e5762000e4b90369060248160040135910162001b60565b6084356001600160a01b0381169190829003620004d4576010549162000e718362002098565b6010556009546040516001600160a01b039190911695909161164680840192831184841017620013c35790839291620021ee84397f00000000000000000000000000000000000000000000000000000000000000006001600160a01b0316825260e06020830181905260c09062000eeb9084018762001a61565b92876040820152602435998a6060830152604435608083015260a08201520152039084f09283156200049257600b54600160401b811015620013ad576001810180600b558110156200139757600b6000527f0175b7a638427703f0dbe7bb9bbf987a2551717b34e79f33b5b1008d1fa01db90180546001600160a01b0386166001600160a01b03199182168117909255848352600d602090815260408085208054841685179055928452600c9052818320805460ff191660011790559051919062000fb68362001b03565b81835233156200137e576000858152600460205260409020546001600160a01b0316908162001346575b33600052600560205260406000206001815401905585600052600460205260406000209033908254161790558433827fddf252ad1be2c89b69c2b068fc378daa952ba7f163c4a11628f55a4df523b3ef600080a4600d6020526040600020546001600160a01b03168162001269575b620010689033600052600f6020526040600020620020a8565b620012515750333b62001126575b5060209360643580620010e4575b506200109c6040519260408452604084019062001a61565b90858301527fe4f1945b022cc1d9d36482c2ee2225ba599106deebb0863a97248011337cd36b33928060018060a01b038716930390a46040516001600160a01b039091168152f35b6200111f906001600160a01b038681169033907f000000000000000000000000000000000000000000000000000000000000000016620020d1565b3862001084565b6040516020818062001162630a85bd0160e11b958683523360048401526000602484015288604484015260806064840152608483019062001a61565b03816000335af1809160009162001207575b5090620011d7573d15620011cf573d6200118e8162001b43565b906200119e604051928362001b20565b81523d6000602083013e5b80519081620011ca57604051633250574960e11b8152336004820152602490fd5b602001fd5b6060620011a9565b6001600160e01b03191603620011ef57602062001076565b604051633250574960e11b8152336004820152602490fd5b6020813d60201162001248575b81620012236020938362001b20565b810103126200032e5751906001600160e01b0319821682036200023f57503862001174565b3d915062001214565b602490604051906339e3563760e11b82526004820152fd5b95949392919080600052600f602052604060002060005b81548082101562001332578962001298838562001b9c565b905460039291831b1c6001600160a01b031614620012c3575050620012bd9062002098565b62001280565b909394959697989992916000199485810190811162000cb6576200130792620012f162000c42928662001b9c565b9054911b1c6001600160a01b0316918462001b9c565b805492831562000ca057620010689301906200132862000c7c838362001b9c565b555b90506200104f565b50505090919293949562001068906200132a565b600086815260066020526040902080546001600160a01b03191690558160005260056020526040600020600019815401905562000fe0565b604051633250574960e11b815260048101839052602490fd5b634e487b7160e01b600052603260045260246000fd5b634e487b7160e01b600052604160045260246000fd5b634e487b7160e01b87526041600452602487fd5b50346200023f5760403660031901126200023f57620013f562001a88565b906024356200140362001bfb565b60018060a01b039081841691828452602094600c865260ff604086205416156200152d57948495604051638da5cb5b60e01b81528281600481895afa908115620015225785938892620014d8575b505062001480937f000000000000000000000000000000000000000000000000000000000000000016620020d1565b813b15620014d4578291602483926040519485938492635cdd100960e01b845260048401525af18015620014c957620014b65750f35b620014c19062001aee565b6200023f5780f35b6040513d84823e3d90fd5b5050fd5b819394508092503d83116200151a575b620014f4818362001b20565b8101031262001516575190828216820362001516578391620014803862001451565b8580fd5b503d620014e8565b6040513d89823e3d90fd5b60405162461bcd60e51b8152600481018790526012602482015271139bdd0818481cde5cdd195b481d985d5b1d60721b6044820152606490fd5b50346200023f57620005cb6200157d3662001ab6565b90604051926200158d8462001b03565b858452620005c483838362001c28565b50346200023f57806003193601126200023f57600a546040516001600160a01b039091168152602090f35b50346200023f5760403660031901126200023f576024356004358252600160205260408220549160018060a01b038084169360a01c90841562001657575b506001600160601b031691828102928184041490151715620016435750604080516001600160a01b03939093168352612710909104602083015290f35b634e487b7160e01b81526011600452602490fd5b8254908116945060a01c90506001600160601b0362001606565b50346200023f57620005cb620016873662001ab6565b9162001c28565b50346200023f5760203660031901126200023f57620016ac62001a88565b620016b662001bfb565b6001600160a01b03168015620016dc576001600160601b0360a01b600a541617600a5580f35b60405162461bcd60e51b815260206004820152600f60248201526e496e76616c6964206164647265737360881b6044820152606490fd5b50346200023f5760203660031901126200023f57806200173262001a88565b6200173c62001bfb565b6001600160a01b0316803b156200177f57819060046040518094819363178ea6ad60e01b83525af18015620014c95762001774575080f35b620005cb9062001aee565b50fd5b50346200023f5760203660031901126200023f5760406020916004358152600e83522054604051908152f35b50346200023f5760403660031901126200023f57620017cc62001a88565b602435620017da8162001ef9565b3315158062001888575b806200185c575b62001844576001600160a01b039283169282918491167f8c5be1e5ebec7d5bd14f71427d1e84f3dd0314c0f7b2291e5b200ac8c7c3b9258680a4825260066020526040822080546001600160a01b031916909117905580f35b60405163a9fbf51f60e01b8152336004820152602490fd5b506001600160a01b038116845260076020908152604080862033875290915284205460ff1615620017eb565b506001600160a01b038116331415620017e4565b50346200023f5760203660031901126200023f57602090600435620018c18162001ef9565b50815260068252604060018060a01b0391205416604051908152f35b50346200023f57806003193601126200023f57604051908060025491600183811c92818516948515620019a1575b6020958686108114620008af578588528794939291879082156200088b57505060011462001943575050620008179250038362001b20565b90859250600282527f405787fa12a823e0f2b7631cc41b3ba8828b3321ca811111fa75cd3aa3bb5ace5b85831062001988575050620008179350820101388062000807565b805483890185015287945086939092019181016200196d565b93607f16936200190b565b9050346200032e5760203660031901126200032e5760043563ffffffff60e01b8116809103620006c457602092506380ac58cd60e01b811490811562001a2a575b8115620019fc575b5015158152f35b63152a902d60e11b81149150811562001a18575b5038620019f5565b6301ffc9a760e01b1490503862001a10565b635b5e139f60e01b81149150620019ed565b60005b83811062001a505750506000910152565b818101518382015260200162001a3f565b9060209162001a7c8151809281855285808601910162001a3c565b601f01601f1916010190565b600435906001600160a01b0382168203620004d457565b602435906001600160a01b0382168203620004d457565b6060906003190112620004d4576001600160a01b03906004358281168103620004d457916024359081168103620004d4579060443590565b67ffffffffffffffff8111620013ad57604052565b6020810190811067ffffffffffffffff821117620013ad57604052565b90601f8019910116810190811067ffffffffffffffff821117620013ad57604052565b67ffffffffffffffff8111620013ad57601f01601f191660200190565b92919262001b6e8262001b43565b9162001b7e604051938462001b20565b829481845281830111620004d4578281602093846000960137010152565b8054821015620013975760005260206000200190600090565b6020908160408183019282815285518094520193019160005b82811062001bdd575050505090565b83516001600160a01b03168552938101939281019260010162001bce565b6008546001600160a01b0316330362001c1057565b60405163118cdaa760e01b8152336004820152602490fd5b6001600160a01b0391821692831562001ee057600091818352600493602091858352604092828487205416953315158062001e46575b50861515918262001e12575b898252600581528582208054600190810190915587835289825286832080546001600160a01b0319168c1790559987818a7fddf252ad1be2c89b69c2b068fc378daa952ba7f163c4a11628f55a4df523b3ef8680a4600d82528587842054169362001d1c575b869798999a508291600f9162001cec96979894525220620020a8565b169081840362001cfd575050505050565b516364283d7b60e01b8152938401526024830152604482015260649150fd5b888352600f8252868320838c5b62001d37575b505062001cd0565b81548082101562001e0b57888762001d50848662001b9c565b929054600393841b1c161462001d7457505062001d6d9062002098565b8c62001d29565b9092939495969798999a9b9c9d506000199283810190811162001df8578a62001da8939262000c3462000c42938862001b9c565b8154801562001de55792600f928a959262001cec989795019062001dd162000c7c838362001b9c565b55918c9b9a99508193949897965062001d2f565b634e487b7160e01b865260318d52602486fd5b634e487b7160e01b885260118f52602488fd5b5062001d2f565b600087815260066020526040902080546001600160a01b031916905587825260058152858220805460001901905562001c6a565b8062001e9b575b1562001e5a573862001c5e565b8588868962001e7857916024925191637e27328960e01b8352820152fd5b5163177e802f60e01b815233918101918252602082019290925281906040010390fd5b50338714801562001ec3575b8062001e4d575085815260068252338486832054161462001e4d565b5086815260078252848120338252825260ff858220541662001ea7565b604051633250574960e11b815260006004820152602490fd5b6000818152600460205260409020546001600160a01b031690811562001f1d575090565b60249060405190637e27328960e01b82526004820152fd5b90939192833b62001f48575b5050505050565b604051630a85bd0160e11b8082526001600160a01b03938416600483015295831660248201526044810191909152608060648201529492169260209291859062001f9790608483019062001a61565b039483816000978189895af18691816200204d575b5062002015575050503d6000146200200b573d62001fca8162001b43565b9062001fda604051928362001b20565b81528093823d92013e5b825192836200200657604051633250574960e11b815260048101849052602490fd5b019050fd5b6060925062001fe4565b919450915063ffffffff60e01b1603620020355750388080808062001f41565b60249060405190633250574960e11b82526004820152fd5b9091508481813d831162002090575b62002068818362001b20565b810103126200208c57516001600160e01b0319811681036200208c57903862001fac565b8680fd5b503d6200205c565b600019811462000cb65760010190565b90815491600160401b831015620013ad578262000c42916001620020cf9501815562001b9c565b565b6040516323b872dd60e01b602082019081526001600160a01b039384166024830152938316604482015260648082019590955293845292909160a082019067ffffffffffffffff821183831017620013ad57602092600092604052519082865af11562002175576000513d6200216b57508082163b155b62002151575050565b604051635274afe760e01b81529116600482015260249150fd5b6001141562002148565b6040513d6000823e3d90fd5b602081830312620004d45780519067ffffffffffffffff8211620004d4570181601f82011215620004d4578051620021b98162001b43565b92620021c9604051948562001b20565b81845260208284010111620004d457620021ea916020808501910162001a3c565b9056fe60e060405234620004675762001646803803806200001d816200046c565b928339810160e0828203126200046757620000388262000492565b602083015190916001600160401b03918281116200046757840181601f820112156200046757805183811162000451576200007d601f8201601f19166020016200046c565b928184526020828401011162000467576200009f9160208085019101620004a7565b6040840151606085015190608086015192620000cc60c0620000c460a08a0162000492565b980162000492565b946001600055336080528260a05281519081116200045157600154600181811c9116801562000446575b60208210146200043057601f8111620003ca575b506020601f82116001146200034b5790806000805160206200162683398151915293926000916200033f575b508160011b916000199060031b1c1916176001555b60408051809260208252620001708151809281602086015260208686019101620004a7565b601f01601f19168101030190a26001600160a01b039384168015620002fa5742821115620002b5576127108311620002705760c0526002556003558160018060a01b03199316836004541617600455169060055416176005556040516111599081620004cd82396080518181816045015281816102380152818161032d01528181610446015281816106fc0152818161094b01528181610bc10152610f76015260a051818181608f01528181610281015281816104870152818161077d0152818161098c01528181610b7901528181610cb90152610f41015260c0518181816101a9015281816104020152818161087b01528181610c230152610e5f0152f35b60405162461bcd60e51b815260206004820152601460248201527f496e76616c696420626173697320706f696e74730000000000000000000000006044820152606490fd5b60405162461bcd60e51b815260206004820152601d60248201527f556e6c6f636b2074696d65206d75737420626520696e206675747572650000006044820152606490fd5b60405162461bcd60e51b815260206004820152601560248201527f496e76616c696420746f6b656e206164647265737300000000000000000000006044820152606490fd5b90508201513862000136565b600160005260206000209060005b601f1984168110620003b157509160019160008051602062001626833981519152949382601f1981161062000397575b5050811b016001556200014b565b84015160001960f88460031b161c19169055388062000389565b9091602060018192858801518155019301910162000359565b60016000527fb10e2d527612073b26eecdfd717e6a320cf44b4afac2b0732d9fcbe2b7fa0cf6601f830160051c81016020841062000428575b601f830160051c820181106200041b5750506200010a565b6000815560010162000403565b508062000403565b634e487b7160e01b600052602260045260246000fd5b90607f1690620000f6565b634e487b7160e01b600052604160045260246000fd5b600080fd5b6040519190601f01601f191682016001600160401b038111838210176200045157604052565b51906001600160a01b03821682036200046757565b60005b838110620004bb5750506000910152565b8181015183820152602001620004aa56fe60806040818152600491823610156100dc575b50361561001e57600080fd5b3461002557005b8051348152426020820152600080516020611104833981519152823392a27f00000000000000000000000000000000000000000000000000000000000000006001600160a01b031691823b156100d7576000926024849284519586938492632b9343db60e11b84527f0000000000000000000000000000000000000000000000000000000000000000908401525af19081156100cd57506100c257005b6100cb90610ee6565b005b513d6000823e3d90fd5b600080fd5b600090813560e01c90816301e1d11414610e3457508063178ea6ad14610b9c57806317d70f7c14610b6157806338af3eed14610b385780633ccfd60b1461082c5780635cdd1009146106d357806361d027b3146106a757806370740aab146105655780638da5cb5b14610537578063aa082a9d14610518578063b6b55f2514610379578063c1a287e21461035c578063c45a015514610318578063d0e30db0146101fb578063ecfad9fd146101dc5763fc0c546a036100125790346101d857816003193601126101d857517f00000000000000000000000000000000000000000000000000000000000000006001600160a01b03168152602090f35b5080fd5b5090346101d857816003193601126101d8576020906003549051908152f35b5082816003193601126101d857610210610ff4565b34156102e05782829351348152426020820152600080516020611104833981519152823392a27f00000000000000000000000000000000000000000000000000000000000000006001600160a01b031691823b156102db5783926024849284519586938492632b9343db60e11b84527f0000000000000000000000000000000000000000000000000000000000000000908401525af19081156102d257506102bb575b506001905580f35b6102c490610ee6565b6102cf5780826102b3565b80fd5b513d84823e3d90fd5b505050fd5b606490602084519162461bcd60e51b835282015260126024820152710416d6f756e74206d757374206265203e20360741b6044820152fd5b5090346101d857816003193601126101d857517f00000000000000000000000000000000000000000000000000000000000000006001600160a01b03168152602090f35b5090346101d857816003193601126101d8576020905161012c8152f35b5082346101d85760203660031901126101d857803592610397610f32565b6001600160a01b03906103ad9082163314611017565b6103b5610ff4565b84156104d55781516323b872dd60e01b6020820152336024820152306044820152606480820187905281529460a0860167ffffffffffffffff8111878210176104c05785966104269185527f0000000000000000000000000000000000000000000000000000000000000000611055565b8251908152426020820152600080516020611104833981519152833392a27f00000000000000000000000000000000000000000000000000000000000000001691823b156102db5783926024849284519586938492632b9343db60e11b84527f0000000000000000000000000000000000000000000000000000000000000000908401525af19081156102d257506102bb57506001905580f35b604185634e487b7160e01b6000525260246000fd5b815162461bcd60e51b8152602081850152601d60248201527f416d6f756e74206d7573742062652067726561746572207468616e20300000006044820152606490fd5b5090346101d857816003193601126101d8576020906002549051908152f35b5090346101d857816003193601126101d857602090610554610f32565b90516001600160a01b039091168152f35b50346102cf57806003193601126102cf5781519080600180549081811c91818116801561069d575b602098898510821461068a5750918391899593889586529081600014610669575060011461060e575b50506105c89250959392950382610f10565b82519382859384528251928382860152825b8481106105f857505050828201840152601f01601f19168101030190f35b81810183015188820188015287955082016105da565b8086527fb10e2d527612073b26eecdfd717e6a320cf44b4afac2b0732d9fcbe2b7fa0cf69492508591905b8183106106515750889450508201016105c8386105b6565b85548884018501529485019487945091830191610639565b9150506105c894925060ff191682840152151560051b8201018692386105b6565b634e487b7160e01b875260229052602486fd5b92607f169261058d565b5091346106cf57826003193601126106cf575490516001600160a01b03909116815260209150f35b8280fd5b5090346101d85760203660031901126101d8578235906106f1610ff4565b6001600160a01b03937f0000000000000000000000000000000000000000000000000000000000000000851692338490036107fa5780156107ca57600080516020611104833981519152838697610746610f32565b82519485524260208601521692a261075c610f32565b50823b156102db5783926024849284519586938492632b9343db60e11b84527f0000000000000000000000000000000000000000000000000000000000000000908401525af19081156102d257506107b657506001905580f35b6107bf90610ee6565b6102cf5780386102b3565b506020606492519162461bcd60e51b8352820152600a6024820152690416d6f756e74203e20360b41b6044820152fd5b506020606492519162461bcd60e51b8352820152600c60248201526b4f6e6c7920466163746f727960a01b6044820152fd5b5082346101d857816003193601126101d857610846610f32565b6001600160a01b03939061085d9085163314611017565b610865610ff4565b80516370a0823160e01b815230838201529360207f000000000000000000000000000000000000000000000000000000000000000081876024818685165afa968715610b2e578697610aff575b508615610ac55760025442106109c55786916108f287987f779c86999fb727ca861d0288aa11ed4104347721c571e4f0da5172afb607d8859333906110b1565b8451838152428282015260608682015260086060820152674d4154555249545960c01b60808201527f62116a798bb58cc967874bea4d771de2f9aeec6c64189ff2e5a551072f3106f960a03392a284519283523392a25b7f00000000000000000000000000000000000000000000000000000000000000001691823b156102db5783926024849284519586938492635c6e0e2760e01b84527f0000000000000000000000000000000000000000000000000000000000000000908401525af19081156102d257506102bb57506001905580f35b906003548088029088820403610ab25761271090049081880392888411610a9f578383899a81610a8c575b03610a7a575b505084518381524282820152606086820152600a606082015269115054931657d156125560b21b60808201527f62116a798bb58cc967874bea4d771de2f9aeec6c64189ff2e5a551072f3106f960a03392a284519283528201527f1670585e36568ede58d159518ce92cad99f75ad41c7d8281df3dd4eaa0c855d0833392a2610949565b610a859133906110b1565b88836109f6565b610a9a82898c5416866110b1565b6109f0565b634e487b7160e01b885260118752602488fd5b634e487b7160e01b875260118652602487fd5b835162461bcd60e51b815280860183905260146024820152734e6f2066756e647320746f20776974686472617760601b6044820152606490fd5b9096508181813d8311610b27575b610b178183610f10565b810103126100d7575195876108b2565b503d610b0d565b84513d88823e3d90fd5b5090346101d857816003193601126101d85760055490516001600160a01b039091168152602090f35b5090346101d857816003193601126101d857602090517f00000000000000000000000000000000000000000000000000000000000000008152f35b5090346101d857816003193601126101d857610bb6610ff4565b6001600160a01b03927f0000000000000000000000000000000000000000000000000000000000000000841633819003610dfc5784600554168015610dc45760025461012c8101809111610db157421115610d765783516370a0823160e01b8152308482015260209690917f000000000000000000000000000000000000000000000000000000000000000088846024818685165afa938415610d6c578894610d39575b508315610d025791610c9084899a937f735e2ef7d759ed5edc5b5cfd70bd63f00eddd61e652119b1825287362957ad59956110b1565b60055416928651908152a2803b156102db576024849284519586938492635c6e0e2760e01b84527f0000000000000000000000000000000000000000000000000000000000000000908401525af19081156102d25750610cf3575b506001815580f35b610cfc90610ee6565b38610ceb565b865162461bcd60e51b81528087018a905260116024820152704e6f2066756e647320746f20636c61696d60781b6044820152606490fd5b9093508881813d8311610d65575b610d518183610f10565b81010312610d6157519238610c5a565b8780fd5b503d610d47565b87513d8a823e3d90fd5b835162461bcd60e51b8152602081850152601560248201527423b930b1b2903832b934b7b2103737ba1037bb32b960591b6044820152606490fd5b634e487b7160e01b865260118452602486fd5b835162461bcd60e51b81526020818501526012602482015271139bc818995b99599a58da585c9e481cd95d60721b6044820152606490fd5b506020606492519162461bcd60e51b8352820152601260248201527127b7363c903330b1ba37b93c9030b236b4b760711b6044820152fd5b9050828434610ee25783600319360112610ee2576370a0823160e01b835230908301526020826024817f00000000000000000000000000000000000000000000000000000000000000006001600160a01b03165afa918215610ed8578392610ea1575b6020838351908152f35b9091506020813d8211610ed0575b81610ebc60209383610f10565b810103126106cf5760209250519083610e97565b3d9150610eaf565b81513d85823e3d90fd5b8380fd5b67ffffffffffffffff8111610efa57604052565b634e487b7160e01b600052604160045260246000fd5b90601f8019910116810190811067ffffffffffffffff821117610efa57604052565b6040516331a9108f60e11b81527f000000000000000000000000000000000000000000000000000000000000000060048201526001600160a01b03906020816024817f000000000000000000000000000000000000000000000000000000000000000086165afa908115610fe857600091610fae575b50905090565b6020813d8211610fe0575b81610fc660209383610f10565b810103126101d8575191821682036102cf57508038610fa8565b3d9150610fb9565b6040513d6000823e3d90fd5b600260005414611005576002600055565b604051633ee5aeb560e01b8152600490fd5b1561101e57565b60405162461bcd60e51b815260206004820152600f60248201526e2737ba103b30bab63a1037bbb732b960891b6044820152606490fd5b906000602091828151910182855af115610fe8576000513d6110a857506001600160a01b0381163b155b6110865750565b604051635274afe760e01b81526001600160a01b039091166004820152602490fd5b6001141561107f565b60405163a9059cbb60e01b60208201526001600160a01b039092166024830152604480830193909352918152608081019167ffffffffffffffff831182841017610efa5761110192604052611055565b56fe73a19dd210f1a7f902193214c0ee91dd35ee5b4d920cba8d519eca65a7b488caa2646970667358221220319bfb9d6b0a7b7e531d2a6d8ae9e59e8d48e079a47c7b449ee5e9bf43c2484064736f6c63430008140033ec48e1201c49ef81c247fd0daa503bbd0deadd1faf3aa161f60cd504debfe6caa2646970667358221220c6cc66158d07e270981b5fe320c1554e43421123c51dbec2daeff3ae40ed974464736f6c63430008140033",
  "linkReferences": {},
  "deployedLinkReferences": {}
}