{
  "_format": "hh-sol-artifact-1",
  "contractName": "VaultFactory",
  "sourceName": "contracts/VaultFactory.sol",
  "abi": [
    {
      "inputs": [
        {
          "internalType": "address",
          "name": "_usdtToken",
          "type": "address"
        },
        {
          "internalType": "address",
          "name": "_protocolTreasury",
          "type": "address"
        }
      ],
      "stateMutability": "nonpayable",
      "type": "constructor"
    },
    {
      "inputs": [
        {
          "internalType": "address",
          "name": "owner",
          "type": "address"
        }
      ],
      "name": "OwnableInvalidOwner",
      "type": "error"
    },
    {
      "inputs": [
        {
          "internalType": "address",
          "name": "account",
          "type": "address"
        }
      ],
      "name": "OwnableUnauthorizedAccount",
      "type": "error"
    },
    {
      "inputs": [
        {
          "internalType": "address",
          "name": "token",
          "type": "address"
        }
      ],
      "name": "SafeERC20FailedOperation",
      "type": "error"
    },
    {
      "anonymous": false,
      "inputs": [
        {
          "indexed": true,
          "internalType": "address",
          "name": "previousOwner",
          "type": "address"
        },
        {
          "indexed": true,
          "internalType": "address",
          "name": "newOwner",
          "type": "address"
        }
      ],
      "name": "OwnershipTransferred",
      "type": "event"
    },
    {
      "anonymous": false,
      "inputs": [
        {
          "indexed": true,
          "internalType": "address",
          "name": "vaultAddress",
          "type": "address"
        },
        {
          "indexed": true,
          "internalType": "address",
          "name": "owner",
          "type": "address"
        },
        {
          "indexed": false,
          "internalType": "string",
          "name": "purpose",
          "type": "string"
        },
        {
          "indexed": false,
          "internalType": "uint256",
          "name": "unlockTime",
          "type": "uint256"
        },
        {
          "indexed": false,
          "internalType": "address",
          "name": "beneficiary",
          "type": "address"
        }
      ],
      "name": "PersonalVaultCreated",
      "type": "event"
    },
    {
      "inputs": [
        {
          "internalType": "uint256",
          "name": "",
          "type": "uint256"
        }
      ],
      "name": "allVaults",
      "outputs": [
        {
          "internalType": "address",
          "name": "",
          "type": "address"
        }
      ],
      "stateMutability": "view",
      "type": "function"
    },
    {
      "inputs": [
        {
          "internalType": "string",
          "name": "_purpose",
          "type": "string"
        },
        {
          "internalType": "uint256",
          "name": "_unlockTimestamp",
          "type": "uint256"
        },
        {
          "internalType": "uint256",
          "name": "_penaltyBps",
          "type": "uint256"
        },
        {
          "internalType": "uint256",
          "name": "_initialDeposit",
          "type": "uint256"
        },
        {
          "internalType": "address",
          "name": "_beneficiary",
          "type": "address"
        }
      ],
      "name": "createPersonalVault",
      "outputs": [
        {
          "internalType": "address",
          "name": "",
          "type": "address"
        }
      ],
      "stateMutability": "nonpayable",
      "type": "function"
    },
    {
      "inputs": [
        {
          "internalType": "address",
          "name": "_vault",
          "type": "address"
        },
        {
          "internalType": "uint256",
          "name": "_amount",
          "type": "uint256"
        }
      ],
      "name": "executeAutoDeposit",
      "outputs": [],
      "stateMutability": "nonpayable",
      "type": "function"
    },
    {
      "inputs": [],
      "name": "getAllVaults",
      "outputs": [
        {
          "internalType": "address[]",
          "name": "",
          "type": "address[]"
        }
      ],
      "stateMutability": "view",
      "type": "function"
    },
    {
      "inputs": [
        {
          "internalType": "address",
          "name": "_user",
          "type": "address"
        }
      ],
      "name": "getUserVaults",
      "outputs": [
        {
          "internalType": "address[]",
          "name": "",
          "type": "address[]"
        }
      ],
      "stateMutability": "view",
      "type": "function"
    },
    {
      "inputs": [
        {
          "internalType": "address",
          "name": "",
          "type": "address"
        }
      ],
      "name": "isVault",
      "outputs": [
        {
          "internalType": "bool",
          "name": "",
          "type": "bool"
        }
      ],
      "stateMutability": "view",
      "type": "function"
    },
    {
      "inputs": [],
      "name": "owner",
      "outputs": [
        {
          "internalType": "address",
          "name": "",
          "type": "address"
        }
      ],
      "stateMutability": "view",
      "type": "function"
    },
    {
      "inputs": [],
      "name": "protocolTreasury",
      "outputs": [
        {
          "internalType": "address",
          "name": "",
          "type": "address"
        }
      ],
      "stateMutability": "view",
      "type": "function"
    },
    {
      "inputs": [],
      "name": "renounceOwnership",
      "outputs": [],
      "stateMutability": "nonpayable",
      "type": "function"
    },
    {
      "inputs": [
        {
          "internalType": "address",
          "name": "newOwner",
          "type": "address"
        }
      ],
      "name": "transferOwnership",
      "outputs": [],
      "stateMutability": "nonpayable",
      "type": "function"
    },
    {
      "inputs": [
        {
          "internalType": "address",
          "name": "_vault",
          "type": "address"
        }
      ],
      "name": "triggerBeneficiaryClaim",
      "outputs": [],
      "stateMutability": "nonpayable",
      "type": "function"
    },
    {
      "inputs": [],
      "name": "usdtToken",
      "outputs": [
        {
          "internalType": "address",
          "name": "",
          "type": "address"
        }
      ],
      "stateMutability": "view",
      "type": "function"
    },
    {
      "inputs": [
        {
          "internalType": "address",
          "name": "",
          "type": "address"
        },
        {
          "internalType": "uint256",
          "name": "",
          "type": "uint256"
        }
      ],
      "name": "userVaults",
      "outputs": [
        {
          "internalType": "address",
          "name": "",
          "type": "address"
        }
      ],
      "stateMutability": "view",
      "type": "function"
    }
  ],
  "bytecode": "0x60a06040523480156200001157600080fd5b50604051620043f0380380620043f083398181016040528101906200003791906200034e565b33600073ffffffffffffffffffffffffffffffffffffffff168173ffffffffffffffffffffffffffffffffffffffff1603620000ad5760006040517f1e4fbdf7000000000000000000000000000000000000000000000000000000008152600401620000a49190620003a6565b60405180910390fd5b620000be816200022060201b60201c565b50600073ffffffffffffffffffffffffffffffffffffffff168273ffffffffffffffffffffffffffffffffffffffff160362000131576040517f08c379a0000000000000000000000000000000000000000000000000000000008152600401620001289062000424565b60405180910390fd5b600073ffffffffffffffffffffffffffffffffffffffff168173ffffffffffffffffffffffffffffffffffffffff1603620001a3576040517f08c379a00000000000000000000000000000000000000000000000000000000081526004016200019a9062000496565b60405180910390fd5b8173ffffffffffffffffffffffffffffffffffffffff1660808173ffffffffffffffffffffffffffffffffffffffff168152505080600460006101000a81548173ffffffffffffffffffffffffffffffffffffffff021916908373ffffffffffffffffffffffffffffffffffffffff1602179055505050620004b8565b60008060009054906101000a900473ffffffffffffffffffffffffffffffffffffffff169050816000806101000a81548173ffffffffffffffffffffffffffffffffffffffff021916908373ffffffffffffffffffffffffffffffffffffffff1602179055508173ffffffffffffffffffffffffffffffffffffffff168173ffffffffffffffffffffffffffffffffffffffff167f8be0079c531659141344cd1fd0a4f28419497f9722a3daafe3b4186f6b6457e060405160405180910390a35050565b600080fd5b600073ffffffffffffffffffffffffffffffffffffffff82169050919050565b60006200031682620002e9565b9050919050565b620003288162000309565b81146200033457600080fd5b50565b60008151905062000348816200031d565b92915050565b60008060408385031215620003685762000367620002e4565b5b6000620003788582860162000337565b92505060206200038b8582860162000337565b9150509250929050565b620003a08162000309565b82525050565b6000602082019050620003bd600083018462000395565b92915050565b600082825260208201905092915050565b7f496e76616c696420555344542061646472657373000000000000000000000000600082015250565b60006200040c601483620003c3565b91506200041982620003d4565b602082019050919050565b600060208201905081810360008301526200043f81620003fd565b9050919050565b7f496e76616c696420747265617375727920616464726573730000000000000000600082015250565b60006200047e601883620003c3565b91506200048b8262000446565b602082019050919050565b60006020820190508181036000830152620004b1816200046f565b9050919050565b608051613f07620004e9600039600081816104700152818161052f0152818161072901526109910152613f076000f3fe60806040523480156200001157600080fd5b5060043610620000e25760003560e01c80638da5cb5b11620000995780639c841fef116200006f5780639c841fef146200023b578063a98ad46c1462000271578063e7f3c69c1462000293578063f2fde38b14620002c957620000e2565b80638da5cb5b14620001c15780639094a91e14620001e357806397331bf9146200021957620000e2565b8063194f5d9f14620000e757806346268365146200010757806349f411b71462000127578063652b9b41146200015d578063715018a61462000193578063803db96d146200019f575b600080fd5b620001056004803603810190620000ff919062000e20565b620002e9565b005b6200012560048036038101906200011f919062000e8d565b62000358565b005b6200014560048036038101906200013f919062001036565b6200052a565b604051620001549190620010ee565b60405180910390f35b6200017b600480360381019062000175919062000e20565b620007e9565b6040516200018a919062001128565b60405180910390f35b6200019d62000809565b005b620001a962000821565b604051620001b89190620010ee565b60405180910390f35b620001cb62000847565b604051620001da9190620010ee565b60405180910390f35b620002016004803603810190620001fb919062001145565b62000870565b604051620002109190620010ee565b60405180910390f35b62000223620008b0565b60405162000232919062001245565b60405180910390f35b62000259600480360381019062000253919062000e8d565b62000940565b604051620002689190620010ee565b60405180910390f35b6200027b6200098f565b6040516200028a9190620010ee565b60405180910390f35b620002b16004803603810190620002ab919062000e20565b620009b3565b604051620002c0919062001245565b60405180910390f35b620002e76004803603810190620002e1919062000e20565b62000a82565b005b620002f362000b0f565b8073ffffffffffffffffffffffffffffffffffffffff1663178ea6ad6040518163ffffffff1660e01b8152600401600060405180830381600087803b1580156200033c57600080fd5b505af115801562000351573d6000803e3d6000fd5b5050505050565b6200036262000b0f565b600260008373ffffffffffffffffffffffffffffffffffffffff1673ffffffffffffffffffffffffffffffffffffffff16815260200190815260200160002060009054906101000a900460ff16620003f1576040517f08c379a0000000000000000000000000000000000000000000000000000000008152600401620003e890620012ca565b60405180910390fd5b60008273ffffffffffffffffffffffffffffffffffffffff16638da5cb5b6040518163ffffffff1660e01b8152600401602060405180830381865afa1580156200043f573d6000803e3d6000fd5b505050506040513d601f19601f8201168201806040525081019062000465919062001303565b9050620004b68184847f000000000000000000000000000000000000000000000000000000000000000073ffffffffffffffffffffffffffffffffffffffff1662000b9f909392919063ffffffff16565b8273ffffffffffffffffffffffffffffffffffffffff16635cdd1009836040518263ffffffff1660e01b8152600401620004f1919062001346565b600060405180830381600087803b1580156200050c57600080fd5b505af115801562000521573d6000803e3d6000fd5b50505050505050565b6000807f000000000000000000000000000000000000000000000000000000000000000087338888600460009054906101000a900473ffffffffffffffffffffffffffffffffffffffff1688604051620005849062000d99565b620005969796959493929190620013db565b604051809103906000f080158015620005b3573d6000803e3d6000fd5b50905060008190506001819080600181540180825580915050600190039060005260206000200160009091909190916101000a81548173ffffffffffffffffffffffffffffffffffffffff021916908373ffffffffffffffffffffffffffffffffffffffff160217905550600360003373ffffffffffffffffffffffffffffffffffffffff1673ffffffffffffffffffffffffffffffffffffffff168152602001908152602001600020819080600181540180825580915050600190039060005260206000200160009091909190916101000a81548173ffffffffffffffffffffffffffffffffffffffff021916908373ffffffffffffffffffffffffffffffffffffffff1602179055506001600260008373ffffffffffffffffffffffffffffffffffffffff1673ffffffffffffffffffffffffffffffffffffffff16815260200190815260200160002060006101000a81548160ff021916908315150217905550600085111562000770576200076f3382877f000000000000000000000000000000000000000000000000000000000000000073ffffffffffffffffffffffffffffffffffffffff1662000b9f909392919063ffffffff16565b5b3373ffffffffffffffffffffffffffffffffffffffff168173ffffffffffffffffffffffffffffffffffffffff167f46ed3d6eaa5f6e67e292486771fc9f083379b67f6249091e95734c951a427e858a8a88604051620007d3939291906200145f565b60405180910390a3809250505095945050505050565b60026020528060005260406000206000915054906101000a900460ff1681565b6200081362000b0f565b6200081f600062000c25565b565b600460009054906101000a900473ffffffffffffffffffffffffffffffffffffffff1681565b60008060009054906101000a900473ffffffffffffffffffffffffffffffffffffffff16905090565b600181815481106200088157600080fd5b906000526020600020016000915054906101000a900473ffffffffffffffffffffffffffffffffffffffff1681565b606060018054806020026020016040519081016040528092919081815260200182805480156200093657602002820191906000526020600020905b8160009054906101000a900473ffffffffffffffffffffffffffffffffffffffff1673ffffffffffffffffffffffffffffffffffffffff1681526020019060010190808311620008eb575b5050505050905090565b600360205281600052604060002081815481106200095d57600080fd5b906000526020600020016000915091509054906101000a900473ffffffffffffffffffffffffffffffffffffffff1681565b7f000000000000000000000000000000000000000000000000000000000000000081565b6060600360008373ffffffffffffffffffffffffffffffffffffffff1673ffffffffffffffffffffffffffffffffffffffff16815260200190815260200160002080548060200260200160405190810160405280929190818152602001828054801562000a7657602002820191906000526020600020905b8160009054906101000a900473ffffffffffffffffffffffffffffffffffffffff1673ffffffffffffffffffffffffffffffffffffffff168152602001906001019080831162000a2b575b50505050509050919050565b62000a8c62000b0f565b600073ffffffffffffffffffffffffffffffffffffffff168173ffffffffffffffffffffffffffffffffffffffff160362000b015760006040517f1e4fbdf700000000000000000000000000000000000000000000000000000000815260040162000af89190620010ee565b60405180910390fd5b62000b0c8162000c25565b50565b62000b1962000ce9565b73ffffffffffffffffffffffffffffffffffffffff1662000b3962000847565b73ffffffffffffffffffffffffffffffffffffffff161462000b9d5762000b5f62000ce9565b6040517f118cdaa700000000000000000000000000000000000000000000000000000000815260040162000b949190620010ee565b60405180910390fd5b565b62000c1f848573ffffffffffffffffffffffffffffffffffffffff166323b872dd86868660405160240162000bd793929190620014a3565b604051602081830303815290604052915060e01b6020820180517bffffffffffffffffffffffffffffffffffffffffffffffffffffffff838183161783525050505062000cf1565b50505050565b60008060009054906101000a900473ffffffffffffffffffffffffffffffffffffffff169050816000806101000a81548173ffffffffffffffffffffffffffffffffffffffff021916908373ffffffffffffffffffffffffffffffffffffffff1602179055508173ffffffffffffffffffffffffffffffffffffffff168173ffffffffffffffffffffffffffffffffffffffff167f8be0079c531659141344cd1fd0a4f28419497f9722a3daafe3b4186f6b6457e060405160405180910390a35050565b600033905090565b600080602060008451602086016000885af18062000d15576040513d6000823e3d81fd5b3d92506000519150506000821462000d3257600181141562000d4e565b60008473ffffffffffffffffffffffffffffffffffffffff163b145b1562000d9357836040517f5274afe700000000000000000000000000000000000000000000000000000000815260040162000d8a9190620010ee565b60405180910390fd5b50505050565b6129f180620014e183390190565b6000604051905090565b600080fd5b600080fd5b600073ffffffffffffffffffffffffffffffffffffffff82169050919050565b600062000de88262000dbb565b9050919050565b62000dfa8162000ddb565b811462000e0657600080fd5b50565b60008135905062000e1a8162000def565b92915050565b60006020828403121562000e395762000e3862000db1565b5b600062000e498482850162000e09565b91505092915050565b6000819050919050565b62000e678162000e52565b811462000e7357600080fd5b50565b60008135905062000e878162000e5c565b92915050565b6000806040838503121562000ea75762000ea662000db1565b5b600062000eb78582860162000e09565b925050602062000eca8582860162000e76565b9150509250929050565b600080fd5b600080fd5b6000601f19601f8301169050919050565b7f4e487b7100000000000000000000000000000000000000000000000000000000600052604160045260246000fd5b62000f298262000ede565b810181811067ffffffffffffffff8211171562000f4b5762000f4a62000eef565b5b80604052505050565b600062000f6062000da7565b905062000f6e828262000f1e565b919050565b600067ffffffffffffffff82111562000f915762000f9062000eef565b5b62000f9c8262000ede565b9050602081019050919050565b82818337600083830152505050565b600062000fcf62000fc98462000f73565b62000f54565b90508281526020810184848401111562000fee5762000fed62000ed9565b5b62000ffb84828562000fa9565b509392505050565b600082601f8301126200101b576200101a62000ed4565b5b81356200102d84826020860162000fb8565b91505092915050565b600080600080600060a0868803121562001055576200105462000db1565b5b600086013567ffffffffffffffff81111562001076576200107562000db6565b5b620010848882890162001003565b9550506020620010978882890162000e76565b9450506040620010aa8882890162000e76565b9350506060620010bd8882890162000e76565b9250506080620010d08882890162000e09565b9150509295509295909350565b620010e88162000ddb565b82525050565b6000602082019050620011056000830184620010dd565b92915050565b60008115159050919050565b62001122816200110b565b82525050565b60006020820190506200113f600083018462001117565b92915050565b6000602082840312156200115e576200115d62000db1565b5b60006200116e8482850162000e76565b91505092915050565b600081519050919050565b600082825260208201905092915050565b6000819050602082019050919050565b620011ae8162000ddb565b82525050565b6000620011c28383620011a3565b60208301905092915050565b6000602082019050919050565b6000620011e88262001177565b620011f4818562001182565b9350620012018362001193565b8060005b83811015620012385781516200121c8882620011b4565b97506200122983620011ce565b92505060018101905062001205565b5085935050505092915050565b60006020820190508181036000830152620012618184620011db565b905092915050565b600082825260208201905092915050565b7f4e6f7420612073797374656d207661756c740000000000000000000000000000600082015250565b6000620012b260128362001269565b9150620012bf826200127a565b602082019050919050565b60006020820190508181036000830152620012e581620012a3565b9050919050565b600081519050620012fd8162000def565b92915050565b6000602082840312156200131c576200131b62000db1565b5b60006200132c84828501620012ec565b91505092915050565b620013408162000e52565b82525050565b60006020820190506200135d600083018462001335565b92915050565b600081519050919050565b60005b838110156200138e57808201518184015260208101905062001371565b60008484015250505050565b6000620013a78262001363565b620013b3818562001269565b9350620013c58185602086016200136e565b620013d08162000ede565b840191505092915050565b600060e082019050620013f2600083018a620010dd565b81810360208301526200140681896200139a565b9050620014176040830188620010dd565b62001426606083018762001335565b62001435608083018662001335565b6200144460a0830185620010dd565b6200145360c0830184620010dd565b98975050505050505050565b600060608201905081810360008301526200147b81866200139a565b90506200148c602083018562001335565b6200149b6040830184620010dd565b949350505050565b6000606082019050620014ba6000830186620010dd565b620014c96020830185620010dd565b620014d8604083018462001335565b94935050505056fe60a06040523480156200001157600080fd5b50604051620029f1380380620029f183398181016040528101906200003791906200061d565b858580600073ffffffffffffffffffffffffffffffffffffffff168173ffffffffffffffffffffffffffffffffffffffff1603620000af5760006040517f1e4fbdf7000000000000000000000000000000000000000000000000000000008152600401620000a6919062000700565b60405180910390fd5b620000c0816200032660201b60201c565b50600180819055508160029081620000d991906200095e565b507f897cb1f7a5aced02f0fe4e37d9268d7509e5620fe53f2bfe685120bcb0c13a30826040516200010b919062000a97565b60405180910390a15050600073ffffffffffffffffffffffffffffffffffffffff168773ffffffffffffffffffffffffffffffffffffffff160362000187576040517f08c379a00000000000000000000000000000000000000000000000000000000081526004016200017e9062000b0b565b60405180910390fd5b428411620001cc576040517f08c379a0000000000000000000000000000000000000000000000000000000008152600401620001c39062000b7d565b60405180910390fd5b61271083111562000214576040517f08c379a00000000000000000000000000000000000000000000000000000000081526004016200020b9062000bef565b60405180910390fd5b8673ffffffffffffffffffffffffffffffffffffffff1660808173ffffffffffffffffffffffffffffffffffffffff1681525050836003819055508260048190555081600560006101000a81548173ffffffffffffffffffffffffffffffffffffffff021916908373ffffffffffffffffffffffffffffffffffffffff16021790555080600660006101000a81548173ffffffffffffffffffffffffffffffffffffffff021916908373ffffffffffffffffffffffffffffffffffffffff16021790555033600760006101000a81548173ffffffffffffffffffffffffffffffffffffffff021916908373ffffffffffffffffffffffffffffffffffffffff1602179055505050505050505062000c11565b60008060009054906101000a900473ffffffffffffffffffffffffffffffffffffffff169050816000806101000a81548173ffffffffffffffffffffffffffffffffffffffff021916908373ffffffffffffffffffffffffffffffffffffffff1602179055508173ffffffffffffffffffffffffffffffffffffffff168173ffffffffffffffffffffffffffffffffffffffff167f8be0079c531659141344cd1fd0a4f28419497f9722a3daafe3b4186f6b6457e060405160405180910390a35050565b6000604051905090565b600080fd5b600080fd5b600073ffffffffffffffffffffffffffffffffffffffff82169050919050565b60006200042b82620003fe565b9050919050565b6200043d816200041e565b81146200044957600080fd5b50565b6000815190506200045d8162000432565b92915050565b600080fd5b600080fd5b6000601f19601f8301169050919050565b7f4e487b7100000000000000000000000000000000000000000000000000000000600052604160045260246000fd5b620004b8826200046d565b810181811067ffffffffffffffff82111715620004da57620004d96200047e565b5b80604052505050565b6000620004ef620003ea565b9050620004fd8282620004ad565b919050565b600067ffffffffffffffff82111562000520576200051f6200047e565b5b6200052b826200046d565b9050602081019050919050565b60005b83811015620005585780820151818401526020810190506200053b565b60008484015250505050565b60006200057b620005758462000502565b620004e3565b9050828152602081018484840111156200059a576200059962000468565b5b620005a784828562000538565b509392505050565b600082601f830112620005c757620005c662000463565b5b8151620005d984826020860162000564565b91505092915050565b6000819050919050565b620005f781620005e2565b81146200060357600080fd5b50565b6000815190506200061781620005ec565b92915050565b600080600080600080600060e0888a0312156200063f576200063e620003f4565b5b60006200064f8a828b016200044c565b975050602088015167ffffffffffffffff811115620006735762000672620003f9565b5b620006818a828b01620005af565b9650506040620006948a828b016200044c565b9550506060620006a78a828b0162000606565b9450506080620006ba8a828b0162000606565b93505060a0620006cd8a828b016200044c565b92505060c0620006e08a828b016200044c565b91505092959891949750929550565b620006fa816200041e565b82525050565b6000602082019050620007176000830184620006ef565b92915050565b600081519050919050565b7f4e487b7100000000000000000000000000000000000000000000000000000000600052602260045260246000fd5b600060028204905060018216806200077057607f821691505b60208210810362000786576200078562000728565b5b50919050565b60008190508160005260206000209050919050565b60006020601f8301049050919050565b600082821b905092915050565b600060088302620007f07fffffffffffffffffffffffffffffffffffffffffffffffffffffffffffffffff82620007b1565b620007fc8683620007b1565b95508019841693508086168417925050509392505050565b6000819050919050565b60006200083f620008396200083384620005e2565b62000814565b620005e2565b9050919050565b6000819050919050565b6200085b836200081e565b620008736200086a8262000846565b848454620007be565b825550505050565b600090565b6200088a6200087b565b6200089781848462000850565b505050565b5b81811015620008bf57620008b360008262000880565b6001810190506200089d565b5050565b601f8211156200090e57620008d8816200078c565b620008e384620007a1565b81016020851015620008f3578190505b6200090b6200090285620007a1565b8301826200089c565b50505b505050565b600082821c905092915050565b6000620009336000198460080262000913565b1980831691505092915050565b60006200094e838362000920565b9150826002028217905092915050565b62000969826200071d565b67ffffffffffffffff8111156200098557620009846200047e565b5b62000991825462000757565b6200099e828285620008c3565b600060209050601f831160018114620009d65760008415620009c1578287015190505b620009cd858262000940565b86555062000a3d565b601f198416620009e6866200078c565b60005b8281101562000a1057848901518255600182019150602085019450602081019050620009e9565b8683101562000a30578489015162000a2c601f89168262000920565b8355505b6001600288020188555050505b505050505050565b600082825260208201905092915050565b600062000a63826200071d565b62000a6f818562000a45565b935062000a8181856020860162000538565b62000a8c816200046d565b840191505092915050565b6000602082019050818103600083015262000ab3818462000a56565b905092915050565b7f496e76616c696420746f6b656e20616464726573730000000000000000000000600082015250565b600062000af360158362000a45565b915062000b008262000abb565b602082019050919050565b6000602082019050818103600083015262000b268162000ae4565b9050919050565b7f556e6c6f636b2074696d65206d75737420626520696e20667574757265000000600082015250565b600062000b65601d8362000a45565b915062000b728262000b2d565b602082019050919050565b6000602082019050818103600083015262000b988162000b56565b9050919050565b7f496e76616c696420626173697320706f696e7473000000000000000000000000600082015250565b600062000bd760148362000a45565b915062000be48262000b9f565b602082019050919050565b6000602082019050818103600083015262000c0a8162000bc8565b9050919050565b608051611d8c62000c65600039600081816103f20152818161060d015281816107130152818161080c015281816108f901528181610a4101528181610a9601528181610e29015261103c0152611d8c6000f3fe6080604052600436106101025760003560e01c80638da5cb5b11610095578063c45a015511610064578063c45a015514610336578063d0e30db014610361578063ecfad9fd1461036b578063f2fde38b14610396578063fc0c546a146103bf5761016d565b80638da5cb5b1461028c578063aa082a9d146102b7578063b6b55f25146102e2578063c1a287e21461030b5761016d565b80635cdd1009116100d15780635cdd1009146101f657806361d027b31461021f57806370740aab1461024a578063715018a6146102755761016d565b806301e1d11414610172578063178ea6ad1461019d57806338af3eed146101b45780633ccfd60b146101df5761016d565b3661016d57600034111561016b573373ffffffffffffffffffffffffffffffffffffffff167f73a19dd210f1a7f902193214c0ee91dd35ee5b4d920cba8d519eca65a7b488ca34426040516101589291906113bc565b60405180910390a261016a33346103ea565b5b005b600080fd5b34801561017e57600080fd5b506101876103ee565b60405161019491906113e5565b60405180910390f35b3480156101a957600080fd5b506101b261048f565b005b3480156101c057600080fd5b506101c96107d2565b6040516101d69190611441565b60405180910390f35b3480156101eb57600080fd5b506101f46107f8565b005b34801561020257600080fd5b5061021d6004803603810190610218919061148d565b610b89565b005b34801561022b57600080fd5b50610234610cd7565b6040516102419190611441565b60405180910390f35b34801561025657600080fd5b5061025f610cfd565b60405161026c919061154a565b60405180910390f35b34801561028157600080fd5b5061028a610d8b565b005b34801561029857600080fd5b506102a1610d9f565b6040516102ae9190611441565b60405180910390f35b3480156102c357600080fd5b506102cc610dc8565b6040516102d991906113e5565b60405180910390f35b3480156102ee57600080fd5b506103096004803603810190610304919061148d565b610dce565b005b34801561031757600080fd5b50610320610ed3565b60405161032d91906113e5565b60405180910390f35b34801561034257600080fd5b5061034b610ed9565b6040516103589190611441565b60405180910390f35b610369610eff565b005b34801561037757600080fd5b50610380610fae565b60405161038d91906113e5565b60405180910390f35b3480156103a257600080fd5b506103bd60048036038101906103b89190611598565b610fb4565b005b3480156103cb57600080fd5b506103d461103a565b6040516103e19190611624565b60405180910390f35b5050565b60007f000000000000000000000000000000000000000000000000000000000000000073ffffffffffffffffffffffffffffffffffffffff166370a08231306040518263ffffffff1660e01b81526004016104499190611441565b602060405180830381865afa158015610466573d6000803e3d6000fd5b505050506040513d601f19601f8201168201806040525081019061048a9190611654565b905090565b61049761105e565b600760009054906101000a900473ffffffffffffffffffffffffffffffffffffffff1673ffffffffffffffffffffffffffffffffffffffff163373ffffffffffffffffffffffffffffffffffffffff1614610527576040517f08c379a000000000000000000000000000000000000000000000000000000000815260040161051e906116cd565b60405180910390fd5b600073ffffffffffffffffffffffffffffffffffffffff16600660009054906101000a900473ffffffffffffffffffffffffffffffffffffffff1673ffffffffffffffffffffffffffffffffffffffff16036105b8576040517f08c379a00000000000000000000000000000000000000000000000000000000081526004016105af90611739565b60405180910390fd5b61012c6003546105c89190611788565b4211610609576040517f08c379a000000000000000000000000000000000000000000000000000000000815260040161060090611808565b60405180910390fd5b60007f000000000000000000000000000000000000000000000000000000000000000073ffffffffffffffffffffffffffffffffffffffff166370a08231306040518263ffffffff1660e01b81526004016106649190611441565b602060405180830381865afa158015610681573d6000803e3d6000fd5b505050506040513d601f19601f820116820180604052508101906106a59190611654565b9050600081116106ea576040517f08c379a00000000000000000000000000000000000000000000000000000000081526004016106e190611874565b60405180910390fd5b610757600660009054906101000a900473ffffffffffffffffffffffffffffffffffffffff16827f000000000000000000000000000000000000000000000000000000000000000073ffffffffffffffffffffffffffffffffffffffff166110a49092919063ffffffff16565b600660009054906101000a900473ffffffffffffffffffffffffffffffffffffffff1673ffffffffffffffffffffffffffffffffffffffff167f735e2ef7d759ed5edc5b5cfd70bd63f00eddd61e652119b1825287362957ad59826040516107bf91906113e5565b60405180910390a2506107d0611123565b565b600660009054906101000a900473ffffffffffffffffffffffffffffffffffffffff1681565b61080061112c565b61080861105e565b60007f000000000000000000000000000000000000000000000000000000000000000073ffffffffffffffffffffffffffffffffffffffff166370a08231306040518263ffffffff1660e01b81526004016108639190611441565b602060405180830381865afa158015610880573d6000803e3d6000fd5b505050506040513d601f19601f820116820180604052508101906108a49190611654565b9050600081116108e9576040517f08c379a00000000000000000000000000000000000000000000000000000000081526004016108e0906118e0565b60405180910390fd5b60035442106109e05761093d33827f000000000000000000000000000000000000000000000000000000000000000073ffffffffffffffffffffffffffffffffffffffff166110a49092919063ffffffff16565b3373ffffffffffffffffffffffffffffffffffffffff167f62116a798bb58cc967874bea4d771de2f9aeec6c64189ff2e5a551072f3106f9824260405161098592919061194c565b60405180910390a23373ffffffffffffffffffffffffffffffffffffffff167f779c86999fb727ca861d0288aa11ed4104347721c571e4f0da5172afb607d885826040516109d391906113e5565b60405180910390a2610b7e565b6000612710600454836109f39190611988565b6109fd91906119f9565b905060008183610a0d9190611a2a565b90506000821115610a8657610a85600560009054906101000a900473ffffffffffffffffffffffffffffffffffffffff16837f000000000000000000000000000000000000000000000000000000000000000073ffffffffffffffffffffffffffffffffffffffff166110a49092919063ffffffff16565b5b6000811115610adb57610ada33827f000000000000000000000000000000000000000000000000000000000000000073ffffffffffffffffffffffffffffffffffffffff166110a49092919063ffffffff16565b5b3373ffffffffffffffffffffffffffffffffffffffff167f62116a798bb58cc967874bea4d771de2f9aeec6c64189ff2e5a551072f3106f98242604051610b23929190611aaa565b60405180910390a23373ffffffffffffffffffffffffffffffffffffffff167f1670585e36568ede58d159518ce92cad99f75ad41c7d8281df3dd4eaa0c855d08284604051610b739291906113bc565b60405180910390a250505b50610b87611123565b565b610b9161105e565b600760009054906101000a900473ffffffffffffffffffffffffffffffffffffffff1673ffffffffffffffffffffffffffffffffffffffff163373ffffffffffffffffffffffffffffffffffffffff1614610c21576040517f08c379a0000000000000000000000000000000000000000000000000000000008152600401610c1890611b32565b60405180910390fd5b60008111610c64576040517f08c379a0000000000000000000000000000000000000000000000000000000008152600401610c5b90611b9e565b60405180910390fd5b610c6c610d9f565b73ffffffffffffffffffffffffffffffffffffffff167f73a19dd210f1a7f902193214c0ee91dd35ee5b4d920cba8d519eca65a7b488ca8242604051610cb39291906113bc565b60405180910390a2610ccc610cc6610d9f565b826103ea565b610cd4611123565b50565b600560009054906101000a900473ffffffffffffffffffffffffffffffffffffffff1681565b60028054610d0a90611bed565b80601f0160208091040260200160405190810160405280929190818152602001828054610d3690611bed565b8015610d835780601f10610d5857610100808354040283529160200191610d83565b820191906000526020600020905b815481529060010190602001808311610d6657829003601f168201915b505050505081565b610d9361112c565b610d9d60006111b3565b565b60008060009054906101000a900473ffffffffffffffffffffffffffffffffffffffff16905090565b60035481565b610dd661112c565b610dde61105e565b60008111610e21576040517f08c379a0000000000000000000000000000000000000000000000000000000008152600401610e1890611c6a565b60405180910390fd5b610e6e3330837f000000000000000000000000000000000000000000000000000000000000000073ffffffffffffffffffffffffffffffffffffffff16611277909392919063ffffffff16565b3373ffffffffffffffffffffffffffffffffffffffff167f73a19dd210f1a7f902193214c0ee91dd35ee5b4d920cba8d519eca65a7b488ca8242604051610eb69291906113bc565b60405180910390a2610ec833826103ea565b610ed0611123565b50565b61012c81565b600760009054906101000a900473ffffffffffffffffffffffffffffffffffffffff1681565b610f0761105e565b60003411610f4a576040517f08c379a0000000000000000000000000000000000000000000000000000000008152600401610f4190611cd6565b60405180910390fd5b3373ffffffffffffffffffffffffffffffffffffffff167f73a19dd210f1a7f902193214c0ee91dd35ee5b4d920cba8d519eca65a7b488ca3442604051610f929291906113bc565b60405180910390a2610fa433346103ea565b610fac611123565b565b60045481565b610fbc61112c565b600073ffffffffffffffffffffffffffffffffffffffff168173ffffffffffffffffffffffffffffffffffffffff160361102e5760006040517f1e4fbdf70000000000000000000000000000000000000000000000000000000081526004016110259190611441565b60405180910390fd5b611037816111b3565b50565b7f000000000000000000000000000000000000000000000000000000000000000081565b60026001540361109a576040517f3ee5aeb500000000000000000000000000000000000000000000000000000000815260040160405180910390fd5b6002600181905550565b61111e838473ffffffffffffffffffffffffffffffffffffffff1663a9059cbb85856040516024016110d7929190611cf6565b604051602081830303815290604052915060e01b6020820180517bffffffffffffffffffffffffffffffffffffffffffffffffffffffff83818316178352505050506112f9565b505050565b60018081905550565b61113461139b565b73ffffffffffffffffffffffffffffffffffffffff16611152610d9f565b73ffffffffffffffffffffffffffffffffffffffff16146111b15761117561139b565b6040517f118cdaa70000000000000000000000000000000000000000000000000000000081526004016111a89190611441565b60405180910390fd5b565b60008060009054906101000a900473ffffffffffffffffffffffffffffffffffffffff169050816000806101000a81548173ffffffffffffffffffffffffffffffffffffffff021916908373ffffffffffffffffffffffffffffffffffffffff1602179055508173ffffffffffffffffffffffffffffffffffffffff168173ffffffffffffffffffffffffffffffffffffffff167f8be0079c531659141344cd1fd0a4f28419497f9722a3daafe3b4186f6b6457e060405160405180910390a35050565b6112f3848573ffffffffffffffffffffffffffffffffffffffff166323b872dd8686866040516024016112ac93929190611d1f565b604051602081830303815290604052915060e01b6020820180517bffffffffffffffffffffffffffffffffffffffffffffffffffffffff83818316178352505050506112f9565b50505050565b600080602060008451602086016000885af18061131c576040513d6000823e3d81fd5b3d925060005191505060008214611337576001811415611353565b60008473ffffffffffffffffffffffffffffffffffffffff163b145b1561139557836040517f5274afe700000000000000000000000000000000000000000000000000000000815260040161138c9190611441565b60405180910390fd5b50505050565b600033905090565b6000819050919050565b6113b6816113a3565b82525050565b60006040820190506113d160008301856113ad565b6113de60208301846113ad565b9392505050565b60006020820190506113fa60008301846113ad565b92915050565b600073ffffffffffffffffffffffffffffffffffffffff82169050919050565b600061142b82611400565b9050919050565b61143b81611420565b82525050565b60006020820190506114566000830184611432565b92915050565b600080fd5b61146a816113a3565b811461147557600080fd5b50565b60008135905061148781611461565b92915050565b6000602082840312156114a3576114a261145c565b5b60006114b184828501611478565b91505092915050565b600081519050919050565b600082825260208201905092915050565b60005b838110156114f45780820151818401526020810190506114d9565b60008484015250505050565b6000601f19601f8301169050919050565b600061151c826114ba565b61152681856114c5565b93506115368185602086016114d6565b61153f81611500565b840191505092915050565b600060208201905081810360008301526115648184611511565b905092915050565b61157581611420565b811461158057600080fd5b50565b6000813590506115928161156c565b92915050565b6000602082840312156115ae576115ad61145c565b5b60006115bc84828501611583565b91505092915050565b6000819050919050565b60006115ea6115e56115e084611400565b6115c5565b611400565b9050919050565b60006115fc826115cf565b9050919050565b600061160e826115f1565b9050919050565b61161e81611603565b82525050565b60006020820190506116396000830184611615565b92915050565b60008151905061164e81611461565b92915050565b60006020828403121561166a5761166961145c565b5b60006116788482850161163f565b91505092915050565b7f4f6e6c7920666163746f72792061646d696e0000000000000000000000000000600082015250565b60006116b76012836114c5565b91506116c282611681565b602082019050919050565b600060208201905081810360008301526116e6816116aa565b9050919050565b7f4e6f2062656e6566696369617279207365740000000000000000000000000000600082015250565b60006117236012836114c5565b915061172e826116ed565b602082019050919050565b6000602082019050818103600083015261175281611716565b9050919050565b7f4e487b7100000000000000000000000000000000000000000000000000000000600052601160045260246000fd5b6000611793826113a3565b915061179e836113a3565b92508282019050808211156117b6576117b5611759565b5b92915050565b7f477261636520706572696f64206e6f74206f7665720000000000000000000000600082015250565b60006117f26015836114c5565b91506117fd826117bc565b602082019050919050565b60006020820190508181036000830152611821816117e5565b9050919050565b7f4e6f2066756e647320746f20636c61696d000000000000000000000000000000600082015250565b600061185e6011836114c5565b915061186982611828565b602082019050919050565b6000602082019050818103600083015261188d81611851565b9050919050565b7f4e6f2066756e647320746f207769746864726177000000000000000000000000600082015250565b60006118ca6014836114c5565b91506118d582611894565b602082019050919050565b600060208201905081810360008301526118f9816118bd565b9050919050565b7f4d41545552495459000000000000000000000000000000000000000000000000600082015250565b60006119366008836114c5565b915061194182611900565b602082019050919050565b600060608201905061196160008301856113ad565b61196e60208301846113ad565b818103604083015261197f81611929565b90509392505050565b6000611993826113a3565b915061199e836113a3565b92508282026119ac816113a3565b915082820484148315176119c3576119c2611759565b5b5092915050565b7f4e487b7100000000000000000000000000000000000000000000000000000000600052601260045260246000fd5b6000611a04826113a3565b9150611a0f836113a3565b925082611a1f57611a1e6119ca565b5b828204905092915050565b6000611a35826113a3565b9150611a40836113a3565b9250828203905081811115611a5857611a57611759565b5b92915050565b7f4541524c595f4558495400000000000000000000000000000000000000000000600082015250565b6000611a94600a836114c5565b9150611a9f82611a5e565b602082019050919050565b6000606082019050611abf60008301856113ad565b611acc60208301846113ad565b8181036040830152611add81611a87565b90509392505050565b7f4f6e6c7920466163746f72790000000000000000000000000000000000000000600082015250565b6000611b1c600c836114c5565b9150611b2782611ae6565b602082019050919050565b60006020820190508181036000830152611b4b81611b0f565b9050919050565b7f416d6f756e74203e203000000000000000000000000000000000000000000000600082015250565b6000611b88600a836114c5565b9150611b9382611b52565b602082019050919050565b60006020820190508181036000830152611bb781611b7b565b9050919050565b7f4e487b7100000000000000000000000000000000000000000000000000000000600052602260045260246000fd5b60006002820490506001821680611c0557607f821691505b602082108103611c1857611c17611bbe565b5b50919050565b7f416d6f756e74206d7573742062652067726561746572207468616e2030000000600082015250565b6000611c54601d836114c5565b9150611c5f82611c1e565b602082019050919050565b60006020820190508181036000830152611c8381611c47565b9050919050565b7f416d6f756e74206d757374206265203e20300000000000000000000000000000600082015250565b6000611cc06012836114c5565b9150611ccb82611c8a565b602082019050919050565b60006020820190508181036000830152611cef81611cb3565b9050919050565b6000604082019050611d0b6000830185611432565b611d1860208301846113ad565b9392505050565b6000606082019050611d346000830186611432565b611d416020830185611432565b611d4e60408301846113ad565b94935050505056fea2646970667358221220034cebf01ee61bbd503b7d7205a25d019dc3723883dbfa5a578f30f004449bfd64736f6c63430008140033a2646970667358221220ad108be14b03695b116742e4fcbc88e22bc6b4c8d230b1991b6211dd4b50ec9a64736f6c63430008140033",
  "linkReferences": {},
  "deployedLinkReferences": {}
}