{
  "_format": "hh-sol-artifact-1",
  "contractName": "VaultFactory",
  "sourceName": "contracts/VaultFactory.sol",
  "abi": [
    {
      "inputs": [
        {
          "internalType": "address",
          "name": "_usdtToken",
          "type": "address"
        },
        {
          "internalType": "address",
          "name": "_protocolTreasury",
          "type": "address"
        }
      ],
      "stateMutability": "nonpayable",
      "type": "constructor"
    },
    {
      "inputs": [
        {
          "internalType": "address",
          "name": "owner",
          "type": "address"
        }
      ],
      "name": "OwnableInvalidOwner",
      "type": "error"
    },
    {
      "inputs": [
        {
          "internalType": "address",
          "name": "account",
          "type": "address"
        }
      ],
      "name": "OwnableUnauthorizedAccount",
      "type": "error"
    },
    {
      "inputs": [
        {
          "internalType": "address",
          "name": "token",
          "type": "address"
        }
      ],
      "name": "SafeERC20FailedOperation",
      "type": "error"
    },
    {
      "anonymous": false,
      "inputs": [
        {
          "indexed": true,
          "internalType": "address",
          "name": "previousOwner",
          "type": "address"
        },
        {
          "indexed": true,
          "internalType": "address",
          "name": "newOwner",
          "type": "address"
        }
      ],
      "name": "OwnershipTransferred",
      "type": "event"
    },
    {
      "anonymous": false,
      "inputs": [
        {
          "indexed": true,
          "internalType": "address",
          "name": "vaultAddress",
          "type": "address"
        },
        {
          "indexed": true,
          "internalType": "address",
          "name": "owner",
          "type": "address"
        },
        {
          "indexed": false,
          "internalType": "string",
          "name": "purpose",
          "type": "string"
        },
        {
          "indexed": false,
          "internalType": "uint256",
          "name": "unlockTime",
          "type": "uint256"
        },
        {
          "indexed": false,
          "internalType": "address",
          "name": "beneficiary",
          "type": "address"
        }
      ],
      "name": "PersonalVaultCreated",
      "type": "event"
    },
    {
      "inputs": [
        {
          "internalType": "uint256",
          "name": "",
          "type": "uint256"
        }
      ],
      "name": "allVaults",
      "outputs": [
        {
          "internalType": "address",
          "name": "",
          "type": "address"
        }
      ],
      "stateMutability": "view",
      "type": "function"
    },
    {
      "inputs": [
        {
          "internalType": "string",
          "name": "_purpose",
          "type": "string"
        },
        {
          "internalType": "uint256",
          "name": "_unlockTimestamp",
          "type": "uint256"
        },
        {
          "internalType": "uint256",
          "name": "_penaltyBps",
          "type": "uint256"
        },
        {
          "internalType": "uint256",
          "name": "_initialDeposit",
          "type": "uint256"
        },
        {
          "internalType": "address",
          "name": "_beneficiary",
          "type": "address"
        }
      ],
      "name": "createPersonalVault",
      "outputs": [
        {
          "internalType": "address",
          "name": "",
          "type": "address"
        }
      ],
      "stateMutability": "nonpayable",
      "type": "function"
    },
    {
      "inputs": [],
      "name": "getAllVaults",
      "outputs": [
        {
          "internalType": "address[]",
          "name": "",
          "type": "address[]"
        }
      ],
      "stateMutability": "view",
      "type": "function"
    },
    {
      "inputs": [
        {
          "internalType": "address",
          "name": "_user",
          "type": "address"
        }
      ],
      "name": "getUserVaults",
      "outputs": [
        {
          "internalType": "address[]",
          "name": "",
          "type": "address[]"
        }
      ],
      "stateMutability": "view",
      "type": "function"
    },
    {
      "inputs": [
        {
          "internalType": "address",
          "name": "",
          "type": "address"
        }
      ],
      "name": "isVault",
      "outputs": [
        {
          "internalType": "bool",
          "name": "",
          "type": "bool"
        }
      ],
      "stateMutability": "view",
      "type": "function"
    },
    {
      "inputs": [],
      "name": "owner",
      "outputs": [
        {
          "internalType": "address",
          "name": "",
          "type": "address"
        }
      ],
      "stateMutability": "view",
      "type": "function"
    },
    {
      "inputs": [],
      "name": "protocolTreasury",
      "outputs": [
        {
          "internalType": "address",
          "name": "",
          "type": "address"
        }
      ],
      "stateMutability": "view",
      "type": "function"
    },
    {
      "inputs": [],
      "name": "renounceOwnership",
      "outputs": [],
      "stateMutability": "nonpayable",
      "type": "function"
    },
    {
      "inputs": [
        {
          "internalType": "address",
          "name": "newOwner",
          "type": "address"
        }
      ],
      "name": "transferOwnership",
      "outputs": [],
      "stateMutability": "nonpayable",
      "type": "function"
    },
    {
      "inputs": [
        {
          "internalType": "address",
          "name": "_vault",
          "type": "address"
        }
      ],
      "name": "triggerBeneficiaryClaim",
      "outputs": [],
      "stateMutability": "nonpayable",
      "type": "function"
    },
    {
      "inputs": [],
      "name": "usdtToken",
      "outputs": [
        {
          "internalType": "address",
          "name": "",
          "type": "address"
        }
      ],
      "stateMutability": "view",
      "type": "function"
    },
    {
      "inputs": [
        {
          "internalType": "address",
          "name": "",
          "type": "address"
        },
        {
          "internalType": "uint256",
          "name": "",
          "type": "uint256"
        }
      ],
      "name": "userVaults",
      "outputs": [
        {
          "internalType": "address",
          "name": "",
          "type": "address"
        }
      ],
      "stateMutability": "view",
      "type": "function"
    }
  ],
  "bytecode": "0x60a06040523480156200001157600080fd5b5060405162003ea738038062003ea783398181016040528101906200003791906200034e565b33600073ffffffffffffffffffffffffffffffffffffffff168173ffffffffffffffffffffffffffffffffffffffff1603620000ad5760006040517f1e4fbdf7000000000000000000000000000000000000000000000000000000008152600401620000a49190620003a6565b60405180910390fd5b620000be816200022060201b60201c565b50600073ffffffffffffffffffffffffffffffffffffffff168273ffffffffffffffffffffffffffffffffffffffff160362000131576040517f08c379a0000000000000000000000000000000000000000000000000000000008152600401620001289062000424565b60405180910390fd5b600073ffffffffffffffffffffffffffffffffffffffff168173ffffffffffffffffffffffffffffffffffffffff1603620001a3576040517f08c379a00000000000000000000000000000000000000000000000000000000081526004016200019a9062000496565b60405180910390fd5b8173ffffffffffffffffffffffffffffffffffffffff1660808173ffffffffffffffffffffffffffffffffffffffff168152505080600460006101000a81548173ffffffffffffffffffffffffffffffffffffffff021916908373ffffffffffffffffffffffffffffffffffffffff1602179055505050620004b8565b60008060009054906101000a900473ffffffffffffffffffffffffffffffffffffffff169050816000806101000a81548173ffffffffffffffffffffffffffffffffffffffff021916908373ffffffffffffffffffffffffffffffffffffffff1602179055508173ffffffffffffffffffffffffffffffffffffffff168173ffffffffffffffffffffffffffffffffffffffff167f8be0079c531659141344cd1fd0a4f28419497f9722a3daafe3b4186f6b6457e060405160405180910390a35050565b600080fd5b600073ffffffffffffffffffffffffffffffffffffffff82169050919050565b60006200031682620002e9565b9050919050565b620003288162000309565b81146200033457600080fd5b50565b60008151905062000348816200031d565b92915050565b60008060408385031215620003685762000367620002e4565b5b6000620003788582860162000337565b92505060206200038b8582860162000337565b9150509250929050565b620003a08162000309565b82525050565b6000602082019050620003bd600083018462000395565b92915050565b600082825260208201905092915050565b7f496e76616c696420555344542061646472657373000000000000000000000000600082015250565b60006200040c601483620003c3565b91506200041982620003d4565b602082019050919050565b600060208201905081810360008301526200043f81620003fd565b9050919050565b7f496e76616c696420747265617375727920616464726573730000000000000000600082015250565b60006200047e601883620003c3565b91506200048b8262000446565b602082019050919050565b60006020820190508181036000830152620004b1816200046f565b9050919050565b6080516139c5620004e26000396000818161031f01528181610519015261078101526139c56000f3fe60806040523480156200001157600080fd5b5060043610620000c45760003560e01c80639094a91e116200007b5780639094a91e14620001a557806397331bf914620001db5780639c841fef14620001fd578063a98ad46c1462000233578063e7f3c69c1462000255578063f2fde38b146200028b57620000c4565b8063194f5d9f14620000c957806349f411b714620000e9578063652b9b41146200011f578063715018a61462000155578063803db96d14620001615780638da5cb5b1462000183575b600080fd5b620000e76004803603810190620000e1919062000c10565b620002ab565b005b62000107600480360381019062000101919062000ddf565b6200031a565b60405162000116919062000e97565b60405180910390f35b6200013d600480360381019062000137919062000c10565b620005d9565b6040516200014c919062000ed1565b60405180910390f35b6200015f620005f9565b005b6200016b62000611565b6040516200017a919062000e97565b60405180910390f35b6200018d62000637565b6040516200019c919062000e97565b60405180910390f35b620001c36004803603810190620001bd919062000eee565b62000660565b604051620001d2919062000e97565b60405180910390f35b620001e5620006a0565b604051620001f4919062000fee565b60405180910390f35b6200021b600480360381019062000215919062001012565b62000730565b6040516200022a919062000e97565b60405180910390f35b6200023d6200077f565b6040516200024c919062000e97565b60405180910390f35b6200027360048036038101906200026d919062000c10565b620007a3565b60405162000282919062000fee565b60405180910390f35b620002a96004803603810190620002a3919062000c10565b62000872565b005b620002b5620008ff565b8073ffffffffffffffffffffffffffffffffffffffff1663178ea6ad6040518163ffffffff1660e01b8152600401600060405180830381600087803b158015620002fe57600080fd5b505af115801562000313573d6000803e3d6000fd5b5050505050565b6000807f000000000000000000000000000000000000000000000000000000000000000087338888600460009054906101000a900473ffffffffffffffffffffffffffffffffffffffff1688604051620003749062000b89565b620003869796959493929190620010f3565b604051809103906000f080158015620003a3573d6000803e3d6000fd5b50905060008190506001819080600181540180825580915050600190039060005260206000200160009091909190916101000a81548173ffffffffffffffffffffffffffffffffffffffff021916908373ffffffffffffffffffffffffffffffffffffffff160217905550600360003373ffffffffffffffffffffffffffffffffffffffff1673ffffffffffffffffffffffffffffffffffffffff168152602001908152602001600020819080600181540180825580915050600190039060005260206000200160009091909190916101000a81548173ffffffffffffffffffffffffffffffffffffffff021916908373ffffffffffffffffffffffffffffffffffffffff1602179055506001600260008373ffffffffffffffffffffffffffffffffffffffff1673ffffffffffffffffffffffffffffffffffffffff16815260200190815260200160002060006101000a81548160ff021916908315150217905550600085111562000560576200055f3382877f000000000000000000000000000000000000000000000000000000000000000073ffffffffffffffffffffffffffffffffffffffff166200098f909392919063ffffffff16565b5b3373ffffffffffffffffffffffffffffffffffffffff168173ffffffffffffffffffffffffffffffffffffffff167f46ed3d6eaa5f6e67e292486771fc9f083379b67f6249091e95734c951a427e858a8a88604051620005c39392919062001177565b60405180910390a3809250505095945050505050565b60026020528060005260406000206000915054906101000a900460ff1681565b62000603620008ff565b6200060f600062000a15565b565b600460009054906101000a900473ffffffffffffffffffffffffffffffffffffffff1681565b60008060009054906101000a900473ffffffffffffffffffffffffffffffffffffffff16905090565b600181815481106200067157600080fd5b906000526020600020016000915054906101000a900473ffffffffffffffffffffffffffffffffffffffff1681565b606060018054806020026020016040519081016040528092919081815260200182805480156200072657602002820191906000526020600020905b8160009054906101000a900473ffffffffffffffffffffffffffffffffffffffff1673ffffffffffffffffffffffffffffffffffffffff1681526020019060010190808311620006db575b5050505050905090565b600360205281600052604060002081815481106200074d57600080fd5b906000526020600020016000915091509054906101000a900473ffffffffffffffffffffffffffffffffffffffff1681565b7f000000000000000000000000000000000000000000000000000000000000000081565b6060600360008373ffffffffffffffffffffffffffffffffffffffff1673ffffffffffffffffffffffffffffffffffffffff1681526020019081526020016000208054806020026020016040519081016040528092919081815260200182805480156200086657602002820191906000526020600020905b8160009054906101000a900473ffffffffffffffffffffffffffffffffffffffff1673ffffffffffffffffffffffffffffffffffffffff16815260200190600101908083116200081b575b50505050509050919050565b6200087c620008ff565b600073ffffffffffffffffffffffffffffffffffffffff168173ffffffffffffffffffffffffffffffffffffffff1603620008f15760006040517f1e4fbdf7000000000000000000000000000000000000000000000000000000008152600401620008e8919062000e97565b60405180910390fd5b620008fc8162000a15565b50565b6200090962000ad9565b73ffffffffffffffffffffffffffffffffffffffff166200092962000637565b73ffffffffffffffffffffffffffffffffffffffff16146200098d576200094f62000ad9565b6040517f118cdaa700000000000000000000000000000000000000000000000000000000815260040162000984919062000e97565b60405180910390fd5b565b62000a0f848573ffffffffffffffffffffffffffffffffffffffff166323b872dd868686604051602401620009c793929190620011bb565b604051602081830303815290604052915060e01b6020820180517bffffffffffffffffffffffffffffffffffffffffffffffffffffffff838183161783525050505062000ae1565b50505050565b60008060009054906101000a900473ffffffffffffffffffffffffffffffffffffffff169050816000806101000a81548173ffffffffffffffffffffffffffffffffffffffff021916908373ffffffffffffffffffffffffffffffffffffffff1602179055508173ffffffffffffffffffffffffffffffffffffffff168173ffffffffffffffffffffffffffffffffffffffff167f8be0079c531659141344cd1fd0a4f28419497f9722a3daafe3b4186f6b6457e060405160405180910390a35050565b600033905090565b600080602060008451602086016000885af18062000b05576040513d6000823e3d81fd5b3d92506000519150506000821462000b2257600181141562000b3e565b60008473ffffffffffffffffffffffffffffffffffffffff163b145b1562000b8357836040517f5274afe700000000000000000000000000000000000000000000000000000000815260040162000b7a919062000e97565b60405180910390fd5b50505050565b61279780620011f983390190565b6000604051905090565b600080fd5b600080fd5b600073ffffffffffffffffffffffffffffffffffffffff82169050919050565b600062000bd88262000bab565b9050919050565b62000bea8162000bcb565b811462000bf657600080fd5b50565b60008135905062000c0a8162000bdf565b92915050565b60006020828403121562000c295762000c2862000ba1565b5b600062000c398482850162000bf9565b91505092915050565b600080fd5b600080fd5b6000601f19601f8301169050919050565b7f4e487b7100000000000000000000000000000000000000000000000000000000600052604160045260246000fd5b62000c978262000c4c565b810181811067ffffffffffffffff8211171562000cb95762000cb862000c5d565b5b80604052505050565b600062000cce62000b97565b905062000cdc828262000c8c565b919050565b600067ffffffffffffffff82111562000cff5762000cfe62000c5d565b5b62000d0a8262000c4c565b9050602081019050919050565b82818337600083830152505050565b600062000d3d62000d378462000ce1565b62000cc2565b90508281526020810184848401111562000d5c5762000d5b62000c47565b5b62000d6984828562000d17565b509392505050565b600082601f83011262000d895762000d8862000c42565b5b813562000d9b84826020860162000d26565b91505092915050565b6000819050919050565b62000db98162000da4565b811462000dc557600080fd5b50565b60008135905062000dd98162000dae565b92915050565b600080600080600060a0868803121562000dfe5762000dfd62000ba1565b5b600086013567ffffffffffffffff81111562000e1f5762000e1e62000ba6565b5b62000e2d8882890162000d71565b955050602062000e408882890162000dc8565b945050604062000e538882890162000dc8565b935050606062000e668882890162000dc8565b925050608062000e798882890162000bf9565b9150509295509295909350565b62000e918162000bcb565b82525050565b600060208201905062000eae600083018462000e86565b92915050565b60008115159050919050565b62000ecb8162000eb4565b82525050565b600060208201905062000ee8600083018462000ec0565b92915050565b60006020828403121562000f075762000f0662000ba1565b5b600062000f178482850162000dc8565b91505092915050565b600081519050919050565b600082825260208201905092915050565b6000819050602082019050919050565b62000f578162000bcb565b82525050565b600062000f6b838362000f4c565b60208301905092915050565b6000602082019050919050565b600062000f918262000f20565b62000f9d818562000f2b565b935062000faa8362000f3c565b8060005b8381101562000fe157815162000fc5888262000f5d565b975062000fd28362000f77565b92505060018101905062000fae565b5085935050505092915050565b600060208201905081810360008301526200100a818462000f84565b905092915050565b600080604083850312156200102c576200102b62000ba1565b5b60006200103c8582860162000bf9565b92505060206200104f8582860162000dc8565b9150509250929050565b600081519050919050565b600082825260208201905092915050565b60005b838110156200109557808201518184015260208101905062001078565b60008484015250505050565b6000620010ae8262001059565b620010ba818562001064565b9350620010cc81856020860162001075565b620010d78162000c4c565b840191505092915050565b620010ed8162000da4565b82525050565b600060e0820190506200110a600083018a62000e86565b81810360208301526200111e8189620010a1565b90506200112f604083018862000e86565b6200113e6060830187620010e2565b6200114d6080830186620010e2565b6200115c60a083018562000e86565b6200116b60c083018462000e86565b98975050505050505050565b60006060820190508181036000830152620011938186620010a1565b9050620011a46020830185620010e2565b620011b3604083018462000e86565b949350505050565b6000606082019050620011d2600083018662000e86565b620011e1602083018562000e86565b620011f06040830184620010e2565b94935050505056fe60a06040523480156200001157600080fd5b50604051620027973803806200279783398181016040528101906200003791906200061d565b858580600073ffffffffffffffffffffffffffffffffffffffff168173ffffffffffffffffffffffffffffffffffffffff1603620000af5760006040517f1e4fbdf7000000000000000000000000000000000000000000000000000000008152600401620000a6919062000700565b60405180910390fd5b620000c0816200032660201b60201c565b50600180819055508160029081620000d991906200095e565b507f897cb1f7a5aced02f0fe4e37d9268d7509e5620fe53f2bfe685120bcb0c13a30826040516200010b919062000a97565b60405180910390a15050600073ffffffffffffffffffffffffffffffffffffffff168773ffffffffffffffffffffffffffffffffffffffff160362000187576040517f08c379a00000000000000000000000000000000000000000000000000000000081526004016200017e9062000b0b565b60405180910390fd5b428411620001cc576040517f08c379a0000000000000000000000000000000000000000000000000000000008152600401620001c39062000b7d565b60405180910390fd5b61271083111562000214576040517f08c379a00000000000000000000000000000000000000000000000000000000081526004016200020b9062000bef565b60405180910390fd5b8673ffffffffffffffffffffffffffffffffffffffff1660808173ffffffffffffffffffffffffffffffffffffffff1681525050836003819055508260048190555081600560006101000a81548173ffffffffffffffffffffffffffffffffffffffff021916908373ffffffffffffffffffffffffffffffffffffffff16021790555080600660006101000a81548173ffffffffffffffffffffffffffffffffffffffff021916908373ffffffffffffffffffffffffffffffffffffffff16021790555033600760006101000a81548173ffffffffffffffffffffffffffffffffffffffff021916908373ffffffffffffffffffffffffffffffffffffffff1602179055505050505050505062000c11565b60008060009054906101000a900473ffffffffffffffffffffffffffffffffffffffff169050816000806101000a81548173ffffffffffffffffffffffffffffffffffffffff021916908373ffffffffffffffffffffffffffffffffffffffff1602179055508173ffffffffffffffffffffffffffffffffffffffff168173ffffffffffffffffffffffffffffffffffffffff167f8be0079c531659141344cd1fd0a4f28419497f9722a3daafe3b4186f6b6457e060405160405180910390a35050565b6000604051905090565b600080fd5b600080fd5b600073ffffffffffffffffffffffffffffffffffffffff82169050919050565b60006200042b82620003fe565b9050919050565b6200043d816200041e565b81146200044957600080fd5b50565b6000815190506200045d8162000432565b92915050565b600080fd5b600080fd5b6000601f19601f8301169050919050565b7f4e487b7100000000000000000000000000000000000000000000000000000000600052604160045260246000fd5b620004b8826200046d565b810181811067ffffffffffffffff82111715620004da57620004d96200047e565b5b80604052505050565b6000620004ef620003ea565b9050620004fd8282620004ad565b919050565b600067ffffffffffffffff82111562000520576200051f6200047e565b5b6200052b826200046d565b9050602081019050919050565b60005b83811015620005585780820151818401526020810190506200053b565b60008484015250505050565b60006200057b620005758462000502565b620004e3565b9050828152602081018484840111156200059a576200059962000468565b5b620005a784828562000538565b509392505050565b600082601f830112620005c757620005c662000463565b5b8151620005d984826020860162000564565b91505092915050565b6000819050919050565b620005f781620005e2565b81146200060357600080fd5b50565b6000815190506200061781620005ec565b92915050565b600080600080600080600060e0888a0312156200063f576200063e620003f4565b5b60006200064f8a828b016200044c565b975050602088015167ffffffffffffffff811115620006735762000672620003f9565b5b620006818a828b01620005af565b9650506040620006948a828b016200044c565b9550506060620006a78a828b0162000606565b9450506080620006ba8a828b0162000606565b93505060a0620006cd8a828b016200044c565b92505060c0620006e08a828b016200044c565b91505092959891949750929550565b620006fa816200041e565b82525050565b6000602082019050620007176000830184620006ef565b92915050565b600081519050919050565b7f4e487b7100000000000000000000000000000000000000000000000000000000600052602260045260246000fd5b600060028204905060018216806200077057607f821691505b60208210810362000786576200078562000728565b5b50919050565b60008190508160005260206000209050919050565b60006020601f8301049050919050565b600082821b905092915050565b600060088302620007f07fffffffffffffffffffffffffffffffffffffffffffffffffffffffffffffffff82620007b1565b620007fc8683620007b1565b95508019841693508086168417925050509392505050565b6000819050919050565b60006200083f620008396200083384620005e2565b62000814565b620005e2565b9050919050565b6000819050919050565b6200085b836200081e565b620008736200086a8262000846565b848454620007be565b825550505050565b600090565b6200088a6200087b565b6200089781848462000850565b505050565b5b81811015620008bf57620008b360008262000880565b6001810190506200089d565b5050565b601f8211156200090e57620008d8816200078c565b620008e384620007a1565b81016020851015620008f3578190505b6200090b6200090285620007a1565b8301826200089c565b50505b505050565b600082821c905092915050565b6000620009336000198460080262000913565b1980831691505092915050565b60006200094e838362000920565b9150826002028217905092915050565b62000969826200071d565b67ffffffffffffffff8111156200098557620009846200047e565b5b62000991825462000757565b6200099e828285620008c3565b600060209050601f831160018114620009d65760008415620009c1578287015190505b620009cd858262000940565b86555062000a3d565b601f198416620009e6866200078c565b60005b8281101562000a1057848901518255600182019150602085019450602081019050620009e9565b8683101562000a30578489015162000a2c601f89168262000920565b8355505b6001600288020188555050505b505050505050565b600082825260208201905092915050565b600062000a63826200071d565b62000a6f818562000a45565b935062000a8181856020860162000538565b62000a8c816200046d565b840191505092915050565b6000602082019050818103600083015262000ab3818462000a56565b905092915050565b7f496e76616c696420746f6b656e20616464726573730000000000000000000000600082015250565b600062000af360158362000a45565b915062000b008262000abb565b602082019050919050565b6000602082019050818103600083015262000b268162000ae4565b9050919050565b7f556e6c6f636b2074696d65206d75737420626520696e20667574757265000000600082015250565b600062000b65601d8362000a45565b915062000b728262000b2d565b602082019050919050565b6000602082019050818103600083015262000b988162000b56565b9050919050565b7f496e76616c696420626173697320706f696e7473000000000000000000000000600082015250565b600062000bd760148362000a45565b915062000be48262000b9f565b602082019050919050565b6000602082019050818103600083015262000c0a8162000bc8565b9050919050565b608051611b3262000c65600039600081816103be015281816105d9015281816106df015281816107d8015281816108c501528181610a0d01528181610a6201528181610ca70152610eba0152611b326000f3fe6080604052600436106100f75760003560e01c8063aa082a9d1161008a578063d0e30db011610059578063d0e30db01461032d578063ecfad9fd14610337578063f2fde38b14610362578063fc0c546a1461038b57610162565b8063aa082a9d14610283578063b6b55f25146102ae578063c1a287e2146102d7578063c45a01551461030257610162565b806361d027b3116100c657806361d027b3146101eb57806370740aab14610216578063715018a6146102415780638da5cb5b1461025857610162565b806301e1d11414610167578063178ea6ad1461019257806338af3eed146101a95780633ccfd60b146101d457610162565b36610162576000341115610160573373ffffffffffffffffffffffffffffffffffffffff167f73a19dd210f1a7f902193214c0ee91dd35ee5b4d920cba8d519eca65a7b488ca344260405161014d92919061123a565b60405180910390a261015f33346103b6565b5b005b600080fd5b34801561017357600080fd5b5061017c6103ba565b6040516101899190611263565b60405180910390f35b34801561019e57600080fd5b506101a761045b565b005b3480156101b557600080fd5b506101be61079e565b6040516101cb91906112bf565b60405180910390f35b3480156101e057600080fd5b506101e96107c4565b005b3480156101f757600080fd5b50610200610b55565b60405161020d91906112bf565b60405180910390f35b34801561022257600080fd5b5061022b610b7b565b604051610238919061136a565b60405180910390f35b34801561024d57600080fd5b50610256610c09565b005b34801561026457600080fd5b5061026d610c1d565b60405161027a91906112bf565b60405180910390f35b34801561028f57600080fd5b50610298610c46565b6040516102a59190611263565b60405180910390f35b3480156102ba57600080fd5b506102d560048036038101906102d091906113bd565b610c4c565b005b3480156102e357600080fd5b506102ec610d51565b6040516102f99190611263565b60405180910390f35b34801561030e57600080fd5b50610317610d57565b60405161032491906112bf565b60405180910390f35b610335610d7d565b005b34801561034357600080fd5b5061034c610e2c565b6040516103599190611263565b60405180910390f35b34801561036e57600080fd5b5061038960048036038101906103849190611416565b610e32565b005b34801561039757600080fd5b506103a0610eb8565b6040516103ad91906114a2565b60405180910390f35b5050565b60007f000000000000000000000000000000000000000000000000000000000000000073ffffffffffffffffffffffffffffffffffffffff166370a08231306040518263ffffffff1660e01b815260040161041591906112bf565b602060405180830381865afa158015610432573d6000803e3d6000fd5b505050506040513d601f19601f8201168201806040525081019061045691906114d2565b905090565b610463610edc565b600760009054906101000a900473ffffffffffffffffffffffffffffffffffffffff1673ffffffffffffffffffffffffffffffffffffffff163373ffffffffffffffffffffffffffffffffffffffff16146104f3576040517f08c379a00000000000000000000000000000000000000000000000000000000081526004016104ea9061154b565b60405180910390fd5b600073ffffffffffffffffffffffffffffffffffffffff16600660009054906101000a900473ffffffffffffffffffffffffffffffffffffffff1673ffffffffffffffffffffffffffffffffffffffff1603610584576040517f08c379a000000000000000000000000000000000000000000000000000000000815260040161057b906115b7565b60405180910390fd5b61012c6003546105949190611606565b42116105d5576040517f08c379a00000000000000000000000000000000000000000000000000000000081526004016105cc90611686565b60405180910390fd5b60007f000000000000000000000000000000000000000000000000000000000000000073ffffffffffffffffffffffffffffffffffffffff166370a08231306040518263ffffffff1660e01b815260040161063091906112bf565b602060405180830381865afa15801561064d573d6000803e3d6000fd5b505050506040513d601f19601f8201168201806040525081019061067191906114d2565b9050600081116106b6576040517f08c379a00000000000000000000000000000000000000000000000000000000081526004016106ad906116f2565b60405180910390fd5b610723600660009054906101000a900473ffffffffffffffffffffffffffffffffffffffff16827f000000000000000000000000000000000000000000000000000000000000000073ffffffffffffffffffffffffffffffffffffffff16610f229092919063ffffffff16565b600660009054906101000a900473ffffffffffffffffffffffffffffffffffffffff1673ffffffffffffffffffffffffffffffffffffffff167f735e2ef7d759ed5edc5b5cfd70bd63f00eddd61e652119b1825287362957ad598260405161078b9190611263565b60405180910390a25061079c610fa1565b565b600660009054906101000a900473ffffffffffffffffffffffffffffffffffffffff1681565b6107cc610faa565b6107d4610edc565b60007f000000000000000000000000000000000000000000000000000000000000000073ffffffffffffffffffffffffffffffffffffffff166370a08231306040518263ffffffff1660e01b815260040161082f91906112bf565b602060405180830381865afa15801561084c573d6000803e3d6000fd5b505050506040513d601f19601f8201168201806040525081019061087091906114d2565b9050600081116108b5576040517f08c379a00000000000000000000000000000000000000000000000000000000081526004016108ac9061175e565b60405180910390fd5b60035442106109ac5761090933827f000000000000000000000000000000000000000000000000000000000000000073ffffffffffffffffffffffffffffffffffffffff16610f229092919063ffffffff16565b3373ffffffffffffffffffffffffffffffffffffffff167f62116a798bb58cc967874bea4d771de2f9aeec6c64189ff2e5a551072f3106f982426040516109519291906117ca565b60405180910390a23373ffffffffffffffffffffffffffffffffffffffff167f779c86999fb727ca861d0288aa11ed4104347721c571e4f0da5172afb607d8858260405161099f9190611263565b60405180910390a2610b4a565b6000612710600454836109bf9190611806565b6109c99190611877565b9050600081836109d991906118a8565b90506000821115610a5257610a51600560009054906101000a900473ffffffffffffffffffffffffffffffffffffffff16837f000000000000000000000000000000000000000000000000000000000000000073ffffffffffffffffffffffffffffffffffffffff16610f229092919063ffffffff16565b5b6000811115610aa757610aa633827f000000000000000000000000000000000000000000000000000000000000000073ffffffffffffffffffffffffffffffffffffffff16610f229092919063ffffffff16565b5b3373ffffffffffffffffffffffffffffffffffffffff167f62116a798bb58cc967874bea4d771de2f9aeec6c64189ff2e5a551072f3106f98242604051610aef929190611928565b60405180910390a23373ffffffffffffffffffffffffffffffffffffffff167f1670585e36568ede58d159518ce92cad99f75ad41c7d8281df3dd4eaa0c855d08284604051610b3f92919061123a565b60405180910390a250505b50610b53610fa1565b565b600560009054906101000a900473ffffffffffffffffffffffffffffffffffffffff1681565b60028054610b8890611993565b80601f0160208091040260200160405190810160405280929190818152602001828054610bb490611993565b8015610c015780601f10610bd657610100808354040283529160200191610c01565b820191906000526020600020905b815481529060010190602001808311610be457829003601f168201915b505050505081565b610c11610faa565b610c1b6000611031565b565b60008060009054906101000a900473ffffffffffffffffffffffffffffffffffffffff16905090565b60035481565b610c54610faa565b610c5c610edc565b60008111610c9f576040517f08c379a0000000000000000000000000000000000000000000000000000000008152600401610c9690611a10565b60405180910390fd5b610cec3330837f000000000000000000000000000000000000000000000000000000000000000073ffffffffffffffffffffffffffffffffffffffff166110f5909392919063ffffffff16565b3373ffffffffffffffffffffffffffffffffffffffff167f73a19dd210f1a7f902193214c0ee91dd35ee5b4d920cba8d519eca65a7b488ca8242604051610d3492919061123a565b60405180910390a2610d4633826103b6565b610d4e610fa1565b50565b61012c81565b600760009054906101000a900473ffffffffffffffffffffffffffffffffffffffff1681565b610d85610edc565b60003411610dc8576040517f08c379a0000000000000000000000000000000000000000000000000000000008152600401610dbf90611a7c565b60405180910390fd5b3373ffffffffffffffffffffffffffffffffffffffff167f73a19dd210f1a7f902193214c0ee91dd35ee5b4d920cba8d519eca65a7b488ca3442604051610e1092919061123a565b60405180910390a2610e2233346103b6565b610e2a610fa1565b565b60045481565b610e3a610faa565b600073ffffffffffffffffffffffffffffffffffffffff168173ffffffffffffffffffffffffffffffffffffffff1603610eac5760006040517f1e4fbdf7000000000000000000000000000000000000000000000000000000008152600401610ea391906112bf565b60405180910390fd5b610eb581611031565b50565b7f000000000000000000000000000000000000000000000000000000000000000081565b600260015403610f18576040517f3ee5aeb500000000000000000000000000000000000000000000000000000000815260040160405180910390fd5b6002600181905550565b610f9c838473ffffffffffffffffffffffffffffffffffffffff1663a9059cbb8585604051602401610f55929190611a9c565b604051602081830303815290604052915060e01b6020820180517bffffffffffffffffffffffffffffffffffffffffffffffffffffffff8381831617835250505050611177565b505050565b60018081905550565b610fb2611219565b73ffffffffffffffffffffffffffffffffffffffff16610fd0610c1d565b73ffffffffffffffffffffffffffffffffffffffff161461102f57610ff3611219565b6040517f118cdaa700000000000000000000000000000000000000000000000000000000815260040161102691906112bf565b60405180910390fd5b565b60008060009054906101000a900473ffffffffffffffffffffffffffffffffffffffff169050816000806101000a81548173ffffffffffffffffffffffffffffffffffffffff021916908373ffffffffffffffffffffffffffffffffffffffff1602179055508173ffffffffffffffffffffffffffffffffffffffff168173ffffffffffffffffffffffffffffffffffffffff167f8be0079c531659141344cd1fd0a4f28419497f9722a3daafe3b4186f6b6457e060405160405180910390a35050565b611171848573ffffffffffffffffffffffffffffffffffffffff166323b872dd86868660405160240161112a93929190611ac5565b604051602081830303815290604052915060e01b6020820180517bffffffffffffffffffffffffffffffffffffffffffffffffffffffff8381831617835250505050611177565b50505050565b600080602060008451602086016000885af18061119a576040513d6000823e3d81fd5b3d9250600051915050600082146111b55760018114156111d1565b60008473ffffffffffffffffffffffffffffffffffffffff163b145b1561121357836040517f5274afe700000000000000000000000000000000000000000000000000000000815260040161120a91906112bf565b60405180910390fd5b50505050565b600033905090565b6000819050919050565b61123481611221565b82525050565b600060408201905061124f600083018561122b565b61125c602083018461122b565b9392505050565b6000602082019050611278600083018461122b565b92915050565b600073ffffffffffffffffffffffffffffffffffffffff82169050919050565b60006112a98261127e565b9050919050565b6112b98161129e565b82525050565b60006020820190506112d460008301846112b0565b92915050565b600081519050919050565b600082825260208201905092915050565b60005b838110156113145780820151818401526020810190506112f9565b60008484015250505050565b6000601f19601f8301169050919050565b600061133c826112da565b61134681856112e5565b93506113568185602086016112f6565b61135f81611320565b840191505092915050565b600060208201905081810360008301526113848184611331565b905092915050565b600080fd5b61139a81611221565b81146113a557600080fd5b50565b6000813590506113b781611391565b92915050565b6000602082840312156113d3576113d261138c565b5b60006113e1848285016113a8565b91505092915050565b6113f38161129e565b81146113fe57600080fd5b50565b600081359050611410816113ea565b92915050565b60006020828403121561142c5761142b61138c565b5b600061143a84828501611401565b91505092915050565b6000819050919050565b600061146861146361145e8461127e565b611443565b61127e565b9050919050565b600061147a8261144d565b9050919050565b600061148c8261146f565b9050919050565b61149c81611481565b82525050565b60006020820190506114b76000830184611493565b92915050565b6000815190506114cc81611391565b92915050565b6000602082840312156114e8576114e761138c565b5b60006114f6848285016114bd565b91505092915050565b7f4f6e6c7920666163746f72792061646d696e0000000000000000000000000000600082015250565b60006115356012836112e5565b9150611540826114ff565b602082019050919050565b6000602082019050818103600083015261156481611528565b9050919050565b7f4e6f2062656e6566696369617279207365740000000000000000000000000000600082015250565b60006115a16012836112e5565b91506115ac8261156b565b602082019050919050565b600060208201905081810360008301526115d081611594565b9050919050565b7f4e487b7100000000000000000000000000000000000000000000000000000000600052601160045260246000fd5b600061161182611221565b915061161c83611221565b9250828201905080821115611634576116336115d7565b5b92915050565b7f477261636520706572696f64206e6f74206f7665720000000000000000000000600082015250565b60006116706015836112e5565b915061167b8261163a565b602082019050919050565b6000602082019050818103600083015261169f81611663565b9050919050565b7f4e6f2066756e647320746f20636c61696d000000000000000000000000000000600082015250565b60006116dc6011836112e5565b91506116e7826116a6565b602082019050919050565b6000602082019050818103600083015261170b816116cf565b9050919050565b7f4e6f2066756e647320746f207769746864726177000000000000000000000000600082015250565b60006117486014836112e5565b915061175382611712565b602082019050919050565b600060208201905081810360008301526117778161173b565b9050919050565b7f4d41545552495459000000000000000000000000000000000000000000000000600082015250565b60006117b46008836112e5565b91506117bf8261177e565b602082019050919050565b60006060820190506117df600083018561122b565b6117ec602083018461122b565b81810360408301526117fd816117a7565b90509392505050565b600061181182611221565b915061181c83611221565b925082820261182a81611221565b91508282048414831517611841576118406115d7565b5b5092915050565b7f4e487b7100000000000000000000000000000000000000000000000000000000600052601260045260246000fd5b600061188282611221565b915061188d83611221565b92508261189d5761189c611848565b5b828204905092915050565b60006118b382611221565b91506118be83611221565b92508282039050818111156118d6576118d56115d7565b5b92915050565b7f4541524c595f4558495400000000000000000000000000000000000000000000600082015250565b6000611912600a836112e5565b915061191d826118dc565b602082019050919050565b600060608201905061193d600083018561122b565b61194a602083018461122b565b818103604083015261195b81611905565b90509392505050565b7f4e487b7100000000000000000000000000000000000000000000000000000000600052602260045260246000fd5b600060028204905060018216806119ab57607f821691505b6020821081036119be576119bd611964565b5b50919050565b7f416d6f756e74206d7573742062652067726561746572207468616e2030000000600082015250565b60006119fa601d836112e5565b9150611a05826119c4565b602082019050919050565b60006020820190508181036000830152611a29816119ed565b9050919050565b7f416d6f756e74206d757374206265203e20300000000000000000000000000000600082015250565b6000611a666012836112e5565b9150611a7182611a30565b602082019050919050565b60006020820190508181036000830152611a9581611a59565b9050919050565b6000604082019050611ab160008301856112b0565b611abe602083018461122b565b9392505050565b6000606082019050611ada60008301866112b0565b611ae760208301856112b0565b611af4604083018461122b565b94935050505056fea26469706673582212201651a846d4206946c0f749bc6f84ae675883a1e30d87e252faf16008d3316a8264736f6c63430008140033a2646970667358221220b439c6ec058fd688d993db3cdf696b67677a52807a03cbf589fbc02f4626758e64736f6c63430008140033",
  "linkReferences": {},
  "deployedLinkReferences": {}
}