{
  "_format": "hh-sol-artifact-1",
  "contractName": "KineticVaultFactory",
  "sourceName": "contracts/KineticVaultFactory.sol",
  "abi": [
    {
      "inputs": [
        {
          "internalType": "address",
          "name": "_token",
          "type": "address"
        },
        {
          "internalType": "address",
          "name": "_kToken",
          "type": "address"
        },
        {
          "internalType": "address",
          "name": "_protocolTreasury",
          "type": "address"
        }
      ],
      "stateMutability": "nonpayable",
      "type": "constructor"
    },
    {
      "inputs": [
        {
          "internalType": "address",
          "name": "owner",
          "type": "address"
        }
      ],
      "name": "OwnableInvalidOwner",
      "type": "error"
    },
    {
      "inputs": [
        {
          "internalType": "address",
          "name": "account",
          "type": "address"
        }
      ],
      "name": "OwnableUnauthorizedAccount",
      "type": "error"
    },
    {
      "inputs": [
        {
          "internalType": "address",
          "name": "token",
          "type": "address"
        }
      ],
      "name": "SafeERC20FailedOperation",
      "type": "error"
    },
    {
      "anonymous": false,
      "inputs": [
        {
          "indexed": true,
          "internalType": "address",
          "name": "vaultAddress",
          "type": "address"
        },
        {
          "indexed": true,
          "internalType": "address",
          "name": "owner",
          "type": "address"
        },
        {
          "indexed": false,
          "internalType": "string",
          "name": "purpose",
          "type": "string"
        },
        {
          "indexed": false,
          "internalType": "uint256",
          "name": "unlockTime",
          "type": "uint256"
        },
        {
          "indexed": false,
          "internalType": "uint256",
          "name": "initialDeposit",
          "type": "uint256"
        }
      ],
      "name": "KineticVaultCreated",
      "type": "event"
    },
    {
      "anonymous": false,
      "inputs": [
        {
          "indexed": true,
          "internalType": "address",
          "name": "previousOwner",
          "type": "address"
        },
        {
          "indexed": true,
          "internalType": "address",
          "name": "newOwner",
          "type": "address"
        }
      ],
      "name": "OwnershipTransferred",
      "type": "event"
    },
    {
      "inputs": [
        {
          "internalType": "uint256",
          "name": "",
          "type": "uint256"
        }
      ],
      "name": "allVaults",
      "outputs": [
        {
          "internalType": "address",
          "name": "",
          "type": "address"
        }
      ],
      "stateMutability": "view",
      "type": "function"
    },
    {
      "inputs": [
        {
          "internalType": "string",
          "name": "_purpose",
          "type": "string"
        },
        {
          "internalType": "uint256",
          "name": "_unlockTimestamp",
          "type": "uint256"
        },
        {
          "internalType": "uint256",
          "name": "_penaltyBps",
          "type": "uint256"
        },
        {
          "internalType": "uint256",
          "name": "_bonusSplitBps",
          "type": "uint256"
        },
        {
          "internalType": "uint256",
          "name": "_initialDeposit",
          "type": "uint256"
        }
      ],
      "name": "createKineticVault",
      "outputs": [
        {
          "internalType": "address",
          "name": "",
          "type": "address"
        }
      ],
      "stateMutability": "nonpayable",
      "type": "function"
    },
    {
      "inputs": [
        {
          "internalType": "address",
          "name": "_user",
          "type": "address"
        }
      ],
      "name": "getUserVaults",
      "outputs": [
        {
          "internalType": "address[]",
          "name": "",
          "type": "address[]"
        }
      ],
      "stateMutability": "view",
      "type": "function"
    },
    {
      "inputs": [
        {
          "internalType": "address",
          "name": "",
          "type": "address"
        }
      ],
      "name": "isVault",
      "outputs": [
        {
          "internalType": "bool",
          "name": "",
          "type": "bool"
        }
      ],
      "stateMutability": "view",
      "type": "function"
    },
    {
      "inputs": [],
      "name": "kToken",
      "outputs": [
        {
          "internalType": "address",
          "name": "",
          "type": "address"
        }
      ],
      "stateMutability": "view",
      "type": "function"
    },
    {
      "inputs": [],
      "name": "owner",
      "outputs": [
        {
          "internalType": "address",
          "name": "",
          "type": "address"
        }
      ],
      "stateMutability": "view",
      "type": "function"
    },
    {
      "inputs": [],
      "name": "protocolTreasury",
      "outputs": [
        {
          "internalType": "address",
          "name": "",
          "type": "address"
        }
      ],
      "stateMutability": "view",
      "type": "function"
    },
    {
      "inputs": [],
      "name": "renounceOwnership",
      "outputs": [],
      "stateMutability": "nonpayable",
      "type": "function"
    },
    {
      "inputs": [],
      "name": "token",
      "outputs": [
        {
          "internalType": "address",
          "name": "",
          "type": "address"
        }
      ],
      "stateMutability": "view",
      "type": "function"
    },
    {
      "inputs": [
        {
          "internalType": "address",
          "name": "newOwner",
          "type": "address"
        }
      ],
      "name": "transferOwnership",
      "outputs": [],
      "stateMutability": "nonpayable",
      "type": "function"
    },
    {
      "inputs": [
        {
          "internalType": "address",
          "name": "",
          "type": "address"
        },
        {
          "internalType": "uint256",
          "name": "",
          "type": "uint256"
        }
      ],
      "name": "userVaults",
      "outputs": [
        {
          "internalType": "address",
          "name": "",
          "type": "address"
        }
      ],
      "stateMutability": "view",
      "type": "function"
    }
  ],
  "bytecode": "0x60c06040523480156200001157600080fd5b5060405162003d3138038062003d3183398181016040528101906200003791906200029f565b33600073ffffffffffffffffffffffffffffffffffffffff168173ffffffffffffffffffffffffffffffffffffffff1603620000ad5760006040517f1e4fbdf7000000000000000000000000000000000000000000000000000000008152600401620000a491906200030c565b60405180910390fd5b620000be816200017160201b60201c565b508273ffffffffffffffffffffffffffffffffffffffff1660808173ffffffffffffffffffffffffffffffffffffffff16815250508173ffffffffffffffffffffffffffffffffffffffff1660a08173ffffffffffffffffffffffffffffffffffffffff168152505080600160006101000a81548173ffffffffffffffffffffffffffffffffffffffff021916908373ffffffffffffffffffffffffffffffffffffffff16021790555050505062000329565b60008060009054906101000a900473ffffffffffffffffffffffffffffffffffffffff169050816000806101000a81548173ffffffffffffffffffffffffffffffffffffffff021916908373ffffffffffffffffffffffffffffffffffffffff1602179055508173ffffffffffffffffffffffffffffffffffffffff168173ffffffffffffffffffffffffffffffffffffffff167f8be0079c531659141344cd1fd0a4f28419497f9722a3daafe3b4186f6b6457e060405160405180910390a35050565b600080fd5b600073ffffffffffffffffffffffffffffffffffffffff82169050919050565b600062000267826200023a565b9050919050565b62000279816200025a565b81146200028557600080fd5b50565b60008151905062000299816200026e565b92915050565b600080600060608486031215620002bb57620002ba62000235565b5b6000620002cb8682870162000288565b9350506020620002de8682870162000288565b9250506040620002f18682870162000288565b9150509250925092565b62000306816200025a565b82525050565b6000602082019050620003236000830184620002fb565b92915050565b60805160a0516139cd62000364600039600081816102a501526105d1015260008181610284015281816104a0015261086701526139cd6000f3fe60806040523480156200001157600080fd5b5060043610620000b85760003560e01c80638da5cb5b116200007b5780638da5cb5b14620001795780639094a91e146200019b5780639c841fef14620001d1578063e7f3c69c1462000207578063f2fde38b146200023d578063fc0c546a146200025d57620000b8565b8063216ef8f214620000bd578063223c19f914620000f3578063652b9b411462000115578063715018a6146200014b578063803db96d1462000157575b600080fd5b620000db6004803603810190620000d5919062000cd2565b6200027f565b604051620000ea919062000dbe565b60405180910390f35b620000fd620005cf565b6040516200010c919062000dbe565b60405180910390f35b6200013360048036038101906200012d919062000e0c565b620005f3565b60405162000142919062000e5b565b60405180910390f35b6200015562000613565b005b620001616200062b565b60405162000170919062000dbe565b60405180910390f35b6200018362000651565b60405162000192919062000dbe565b60405180910390f35b620001b96004803603810190620001b3919062000e78565b6200067a565b604051620001c8919062000dbe565b60405180910390f35b620001ef6004803603810190620001e9919062000eaa565b620006ba565b604051620001fe919062000dbe565b60405180910390f35b6200022560048036038101906200021f919062000e0c565b62000709565b60405162000234919062000fbf565b60405180910390f35b6200025b600480360381019062000255919062000e0c565b620007d8565b005b6200026762000865565b60405162000276919062000dbe565b60405180910390f35b6000807f00000000000000000000000000000000000000000000000000000000000000007f00000000000000000000000000000000000000000000000000000000000000008833898989600160009054906101000a900473ffffffffffffffffffffffffffffffffffffffff16604051620002fa9062000b13565b6200030d9897969594939291906200107d565b604051809103906000f0801580156200032a573d6000803e3d6000fd5b50905060008190506002819080600181540180825580915050600190039060005260206000200160009091909190916101000a81548173ffffffffffffffffffffffffffffffffffffffff021916908373ffffffffffffffffffffffffffffffffffffffff160217905550600460003373ffffffffffffffffffffffffffffffffffffffff1673ffffffffffffffffffffffffffffffffffffffff168152602001908152602001600020819080600181540180825580915050600190039060005260206000200160009091909190916101000a81548173ffffffffffffffffffffffffffffffffffffffff021916908373ffffffffffffffffffffffffffffffffffffffff1602179055506001600360008373ffffffffffffffffffffffffffffffffffffffff1673ffffffffffffffffffffffffffffffffffffffff16815260200190815260200160002060006101000a81548160ff02191690831515021790555060008411156200055657620004e63382867f000000000000000000000000000000000000000000000000000000000000000073ffffffffffffffffffffffffffffffffffffffff1662000889909392919063ffffffff16565b8173ffffffffffffffffffffffffffffffffffffffff1663ecd65bfc856040518263ffffffff1660e01b815260040162000521919062001112565b600060405180830381600087803b1580156200053c57600080fd5b505af115801562000551573d6000803e3d6000fd5b505050505b3373ffffffffffffffffffffffffffffffffffffffff168173ffffffffffffffffffffffffffffffffffffffff167f5525592b779bedc10162e4523c2fda161a71620cd06631d9d9105ee0ead902d68a8a88604051620005b9939291906200112f565b60405180910390a3809250505095945050505050565b7f000000000000000000000000000000000000000000000000000000000000000081565b60036020528060005260406000206000915054906101000a900460ff1681565b6200061d6200090f565b6200062960006200099f565b565b600160009054906101000a900473ffffffffffffffffffffffffffffffffffffffff1681565b60008060009054906101000a900473ffffffffffffffffffffffffffffffffffffffff16905090565b600281815481106200068b57600080fd5b906000526020600020016000915054906101000a900473ffffffffffffffffffffffffffffffffffffffff1681565b60046020528160005260406000208181548110620006d757600080fd5b906000526020600020016000915091509054906101000a900473ffffffffffffffffffffffffffffffffffffffff1681565b6060600460008373ffffffffffffffffffffffffffffffffffffffff1673ffffffffffffffffffffffffffffffffffffffff168152602001908152602001600020805480602002602001604051908101604052809291908181526020018280548015620007cc57602002820191906000526020600020905b8160009054906101000a900473ffffffffffffffffffffffffffffffffffffffff1673ffffffffffffffffffffffffffffffffffffffff168152602001906001019080831162000781575b50505050509050919050565b620007e26200090f565b600073ffffffffffffffffffffffffffffffffffffffff168173ffffffffffffffffffffffffffffffffffffffff1603620008575760006040517f1e4fbdf70000000000000000000000000000000000000000000000000000000081526004016200084e919062000dbe565b60405180910390fd5b62000862816200099f565b50565b7f000000000000000000000000000000000000000000000000000000000000000081565b62000909848573ffffffffffffffffffffffffffffffffffffffff166323b872dd868686604051602401620008c19392919062001173565b604051602081830303815290604052915060e01b6020820180517bffffffffffffffffffffffffffffffffffffffffffffffffffffffff838183161783525050505062000a63565b50505050565b6200091962000b0b565b73ffffffffffffffffffffffffffffffffffffffff166200093962000651565b73ffffffffffffffffffffffffffffffffffffffff16146200099d576200095f62000b0b565b6040517f118cdaa700000000000000000000000000000000000000000000000000000000815260040162000994919062000dbe565b60405180910390fd5b565b60008060009054906101000a900473ffffffffffffffffffffffffffffffffffffffff169050816000806101000a81548173ffffffffffffffffffffffffffffffffffffffff021916908373ffffffffffffffffffffffffffffffffffffffff1602179055508173ffffffffffffffffffffffffffffffffffffffff168173ffffffffffffffffffffffffffffffffffffffff167f8be0079c531659141344cd1fd0a4f28419497f9722a3daafe3b4186f6b6457e060405160405180910390a35050565b600080602060008451602086016000885af18062000a87576040513d6000823e3d81fd5b3d92506000519150506000821462000aa457600181141562000ac0565b60008473ffffffffffffffffffffffffffffffffffffffff163b145b1562000b0557836040517f5274afe700000000000000000000000000000000000000000000000000000000815260040162000afc919062000dbe565b60405180910390fd5b50505050565b600033905090565b6127e780620011b183390190565b6000604051905090565b600080fd5b600080fd5b600080fd5b600080fd5b6000601f19601f8301169050919050565b7f4e487b7100000000000000000000000000000000000000000000000000000000600052604160045260246000fd5b62000b8a8262000b3f565b810181811067ffffffffffffffff8211171562000bac5762000bab62000b50565b5b80604052505050565b600062000bc162000b21565b905062000bcf828262000b7f565b919050565b600067ffffffffffffffff82111562000bf25762000bf162000b50565b5b62000bfd8262000b3f565b9050602081019050919050565b82818337600083830152505050565b600062000c3062000c2a8462000bd4565b62000bb5565b90508281526020810184848401111562000c4f5762000c4e62000b3a565b5b62000c5c84828562000c0a565b509392505050565b600082601f83011262000c7c5762000c7b62000b35565b5b813562000c8e84826020860162000c19565b91505092915050565b6000819050919050565b62000cac8162000c97565b811462000cb857600080fd5b50565b60008135905062000ccc8162000ca1565b92915050565b600080600080600060a0868803121562000cf15762000cf062000b2b565b5b600086013567ffffffffffffffff81111562000d125762000d1162000b30565b5b62000d208882890162000c64565b955050602062000d338882890162000cbb565b945050604062000d468882890162000cbb565b935050606062000d598882890162000cbb565b925050608062000d6c8882890162000cbb565b9150509295509295909350565b600073ffffffffffffffffffffffffffffffffffffffff82169050919050565b600062000da68262000d79565b9050919050565b62000db88162000d99565b82525050565b600060208201905062000dd5600083018462000dad565b92915050565b62000de68162000d99565b811462000df257600080fd5b50565b60008135905062000e068162000ddb565b92915050565b60006020828403121562000e255762000e2462000b2b565b5b600062000e358482850162000df5565b91505092915050565b60008115159050919050565b62000e558162000e3e565b82525050565b600060208201905062000e72600083018462000e4a565b92915050565b60006020828403121562000e915762000e9062000b2b565b5b600062000ea18482850162000cbb565b91505092915050565b6000806040838503121562000ec45762000ec362000b2b565b5b600062000ed48582860162000df5565b925050602062000ee78582860162000cbb565b9150509250929050565b600081519050919050565b600082825260208201905092915050565b6000819050602082019050919050565b62000f288162000d99565b82525050565b600062000f3c838362000f1d565b60208301905092915050565b6000602082019050919050565b600062000f628262000ef1565b62000f6e818562000efc565b935062000f7b8362000f0d565b8060005b8381101562000fb257815162000f96888262000f2e565b975062000fa38362000f48565b92505060018101905062000f7f565b5085935050505092915050565b6000602082019050818103600083015262000fdb818462000f55565b905092915050565b600081519050919050565b600082825260208201905092915050565b60005b838110156200101f57808201518184015260208101905062001002565b60008484015250505050565b6000620010388262000fe3565b62001044818562000fee565b93506200105681856020860162000fff565b620010618162000b3f565b840191505092915050565b620010778162000c97565b82525050565b60006101008201905062001095600083018b62000dad565b620010a4602083018a62000dad565b8181036040830152620010b881896200102b565b9050620010c9606083018862000dad565b620010d860808301876200106c565b620010e760a08301866200106c565b620010f660c08301856200106c565b6200110560e083018462000dad565b9998505050505050505050565b60006020820190506200112960008301846200106c565b92915050565b600060608201905081810360008301526200114b81866200102b565b90506200115c60208301856200106c565b6200116b60408301846200106c565b949350505050565b60006060820190506200118a600083018662000dad565b62001199602083018562000dad565b620011a860408301846200106c565b94935050505056fe60c06040523480156200001157600080fd5b50604051620027e7380380620027e7833981810160405281019062000037919062000519565b858580600073ffffffffffffffffffffffffffffffffffffffff168173ffffffffffffffffffffffffffffffffffffffff1603620000af5760006040517f1e4fbdf7000000000000000000000000000000000000000000000000000000008152600401620000a6919062000612565b60405180910390fd5b620000c0816200022260201b60201c565b50600180819055508160029081620000d9919062000870565b507f897cb1f7a5aced02f0fe4e37d9268d7509e5620fe53f2bfe685120bcb0c13a30826040516200010b9190620009a9565b60405180910390a150508773ffffffffffffffffffffffffffffffffffffffff1660808173ffffffffffffffffffffffffffffffffffffffff16815250508673ffffffffffffffffffffffffffffffffffffffff1660a08173ffffffffffffffffffffffffffffffffffffffff168152505083600381905550826005819055508160068190555080600760006101000a81548173ffffffffffffffffffffffffffffffffffffffff021916908373ffffffffffffffffffffffffffffffffffffffff16021790555033600860006101000a81548173ffffffffffffffffffffffffffffffffffffffff021916908373ffffffffffffffffffffffffffffffffffffffff1602179055505050505050505050620009cd565b60008060009054906101000a900473ffffffffffffffffffffffffffffffffffffffff169050816000806101000a81548173ffffffffffffffffffffffffffffffffffffffff021916908373ffffffffffffffffffffffffffffffffffffffff1602179055508173ffffffffffffffffffffffffffffffffffffffff168173ffffffffffffffffffffffffffffffffffffffff167f8be0079c531659141344cd1fd0a4f28419497f9722a3daafe3b4186f6b6457e060405160405180910390a35050565b6000604051905090565b600080fd5b600080fd5b600073ffffffffffffffffffffffffffffffffffffffff82169050919050565b60006200032782620002fa565b9050919050565b62000339816200031a565b81146200034557600080fd5b50565b60008151905062000359816200032e565b92915050565b600080fd5b600080fd5b6000601f19601f8301169050919050565b7f4e487b7100000000000000000000000000000000000000000000000000000000600052604160045260246000fd5b620003b48262000369565b810181811067ffffffffffffffff82111715620003d657620003d56200037a565b5b80604052505050565b6000620003eb620002e6565b9050620003f98282620003a9565b919050565b600067ffffffffffffffff8211156200041c576200041b6200037a565b5b620004278262000369565b9050602081019050919050565b60005b838110156200045457808201518184015260208101905062000437565b60008484015250505050565b6000620004776200047184620003fe565b620003df565b90508281526020810184848401111562000496576200049562000364565b5b620004a384828562000434565b509392505050565b600082601f830112620004c357620004c26200035f565b5b8151620004d584826020860162000460565b91505092915050565b6000819050919050565b620004f381620004de565b8114620004ff57600080fd5b50565b6000815190506200051381620004e8565b92915050565b600080600080600080600080610100898b0312156200053d576200053c620002f0565b5b60006200054d8b828c0162000348565b9850506020620005608b828c0162000348565b975050604089015167ffffffffffffffff811115620005845762000583620002f5565b5b620005928b828c01620004ab565b9650506060620005a58b828c0162000348565b9550506080620005b88b828c0162000502565b94505060a0620005cb8b828c0162000502565b93505060c0620005de8b828c0162000502565b92505060e0620005f18b828c0162000348565b9150509295985092959890939650565b6200060c816200031a565b82525050565b600060208201905062000629600083018462000601565b92915050565b600081519050919050565b7f4e487b7100000000000000000000000000000000000000000000000000000000600052602260045260246000fd5b600060028204905060018216806200068257607f821691505b6020821081036200069857620006976200063a565b5b50919050565b60008190508160005260206000209050919050565b60006020601f8301049050919050565b600082821b905092915050565b600060088302620007027fffffffffffffffffffffffffffffffffffffffffffffffffffffffffffffffff82620006c3565b6200070e8683620006c3565b95508019841693508086168417925050509392505050565b6000819050919050565b6000620007516200074b6200074584620004de565b62000726565b620004de565b9050919050565b6000819050919050565b6200076d8362000730565b620007856200077c8262000758565b848454620006d0565b825550505050565b600090565b6200079c6200078d565b620007a981848462000762565b505050565b5b81811015620007d157620007c560008262000792565b600181019050620007af565b5050565b601f8211156200082057620007ea816200069e565b620007f584620006b3565b8101602085101562000805578190505b6200081d6200081485620006b3565b830182620007ae565b50505b505050565b600082821c905092915050565b6000620008456000198460080262000825565b1980831691505092915050565b600062000860838362000832565b9150826002028217905092915050565b6200087b826200062f565b67ffffffffffffffff8111156200089757620008966200037a565b5b620008a3825462000669565b620008b0828285620007d5565b600060209050601f831160018114620008e85760008415620008d3578287015190505b620008df858262000852565b8655506200094f565b601f198416620008f8866200069e565b60005b828110156200092257848901518255600182019150602085019450602081019050620008fb565b868310156200094257848901516200093e601f89168262000832565b8355505b6001600288020188555050505b505050505050565b600082825260208201905092915050565b600062000975826200062f565b62000981818562000957565b93506200099381856020860162000434565b6200099e8162000369565b840191505092915050565b60006020820190508181036000830152620009c5818462000968565b905092915050565b60805160a051611dae62000a396000396000818161040e01528181610444015281816105270152818161109301526110fd01526000818161068d015281816106e601528181610854015281816108a901528181610b7301528181610dd101526110b50152611dae6000f3fe6080604052600436106101025760003560e01c8063aa082a9d11610095578063ecd65bfc11610064578063ecd65bfc1461032b578063ecfad9fd14610354578063f0f2d5f51461037f578063f2fde38b146103aa578063fc0c546a146103d35761016d565b8063aa082a9d146102a2578063b6b55f25146102cd578063c45a0155146102f6578063d0e30db0146103215761016d565b806370740aab116100d157806370740aab1461020a578063715018a6146102355780638da5cb5b1461024c578063a83e53ac146102775761016d565b806301e1d11414610172578063223c19f91461019d5780633ccfd60b146101c857806361d027b3146101df5761016d565b3661016d57600034111561016b573373ffffffffffffffffffffffffffffffffffffffff167f73a19dd210f1a7f902193214c0ee91dd35ee5b4d920cba8d519eca65a7b488ca3442604051610158929190611482565b60405180910390a261016a33346103fe565b5b005b600080fd5b34801561017e57600080fd5b50610187610402565b60405161019491906114ab565b60405180910390f35b3480156101a957600080fd5b506101b261040c565b6040516101bf9190611545565b60405180910390f35b3480156101d457600080fd5b506101dd610430565b005b3480156101eb57600080fd5b506101f4610956565b6040516102019190611581565b60405180910390f35b34801561021657600080fd5b5061021f61097c565b60405161022c919061162c565b60405180910390f35b34801561024157600080fd5b5061024a610a0a565b005b34801561025857600080fd5b50610261610a1e565b60405161026e9190611581565b60405180910390f35b34801561028357600080fd5b5061028c610a47565b60405161029991906114ab565b60405180910390f35b3480156102ae57600080fd5b506102b7610a4d565b6040516102c491906114ab565b60405180910390f35b3480156102d957600080fd5b506102f460048036038101906102ef919061167f565b610a53565b005b34801561030257600080fd5b5061030b610bcc565b6040516103189190611581565b60405180910390f35b610329610bf2565b005b34801561033757600080fd5b50610352600480360381019061034d919061167f565b610ca1565b005b34801561036057600080fd5b50610369610d3d565b60405161037691906114ab565b60405180910390f35b34801561038b57600080fd5b50610394610d43565b6040516103a191906114ab565b60405180910390f35b3480156103b657600080fd5b506103d160048036038101906103cc91906116d8565b610d49565b005b3480156103df57600080fd5b506103e8610dcf565b6040516103f59190611726565b60405180910390f35b5050565b6000600454905090565b7f000000000000000000000000000000000000000000000000000000000000000081565b610438610df3565b610440610e7a565b60007f000000000000000000000000000000000000000000000000000000000000000073ffffffffffffffffffffffffffffffffffffffff16633af9e669306040518263ffffffff1660e01b815260040161049b9190611581565b6020604051808303816000875af11580156104ba573d6000803e3d6000fd5b505050506040513d601f19601f820116820180604052508101906104de9190611756565b905060008111610523576040517f08c379a000000000000000000000000000000000000000000000000000000000815260040161051a906117cf565b60405180910390fd5b60007f000000000000000000000000000000000000000000000000000000000000000073ffffffffffffffffffffffffffffffffffffffff1663852a12e3836040518263ffffffff1660e01b815260040161057e91906114ab565b6020604051808303816000875af115801561059d573d6000803e3d6000fd5b505050506040513d601f19601f820116820180604052508101906105c19190611756565b905060008114610606576040517f08c379a00000000000000000000000000000000000000000000000000000000081526004016105fd9061183b565b60405180910390fd5b60035442106107df57600060045483111561062c5760045483610629919061188a565b90505b60006127106006548361063f91906118be565b610649919061192f565b905060008183610659919061188a565b905060008111156106d2576106d1600760009054906101000a900473ffffffffffffffffffffffffffffffffffffffff16827f000000000000000000000000000000000000000000000000000000000000000073ffffffffffffffffffffffffffffffffffffffff16610ec09092919063ffffffff16565b5b61072a33836004546106e49190611960565b7f000000000000000000000000000000000000000000000000000000000000000073ffffffffffffffffffffffffffffffffffffffff16610ec09092919063ffffffff16565b3373ffffffffffffffffffffffffffffffffffffffff167f62116a798bb58cc967874bea4d771de2f9aeec6c64189ff2e5a551072f3106f9836004546107709190611960565b4260405161077f9291906119e0565b60405180910390a23373ffffffffffffffffffffffffffffffffffffffff167f31ac691a3632651f46ed3bc23d80d3181ee11d9a0e15eab8f01eb0a5133274e383836040516107cf929190611482565b60405180910390a2505050610942565b60006127106005546004546107f491906118be565b6107fe919061192f565b9050600081600454610810919061188a565b905060008185610820919061188a565b9050600081111561089957610898600760009054906101000a900473ffffffffffffffffffffffffffffffffffffffff16827f000000000000000000000000000000000000000000000000000000000000000073ffffffffffffffffffffffffffffffffffffffff16610ec09092919063ffffffff16565b5b60008211156108ee576108ed33837f000000000000000000000000000000000000000000000000000000000000000073ffffffffffffffffffffffffffffffffffffffff16610ec09092919063ffffffff16565b5b3373ffffffffffffffffffffffffffffffffffffffff167f62116a798bb58cc967874bea4d771de2f9aeec6c64189ff2e5a551072f3106f98342604051610936929190611a68565b60405180910390a25050505b60006004819055505050610954610f3f565b565b600760009054906101000a900473ffffffffffffffffffffffffffffffffffffffff1681565b6002805461098990611ad3565b80601f01602080910402602001604051908101604052809291908181526020018280546109b590611ad3565b8015610a025780601f106109d757610100808354040283529160200191610a02565b820191906000526020600020905b8154815290600101906020018083116109e557829003601f168201915b505050505081565b610a12610df3565b610a1c6000610f48565b565b60008060009054906101000a900473ffffffffffffffffffffffffffffffffffffffff16905090565b60045481565b60035481565b610a5b610e7a565b610a63610a1e565b73ffffffffffffffffffffffffffffffffffffffff163373ffffffffffffffffffffffffffffffffffffffff161480610ae95750600860009054906101000a900473ffffffffffffffffffffffffffffffffffffffff1673ffffffffffffffffffffffffffffffffffffffff163373ffffffffffffffffffffffffffffffffffffffff16145b610b28576040517f08c379a0000000000000000000000000000000000000000000000000000000008152600401610b1f90611b50565b60405180910390fd5b60008111610b6b576040517f08c379a0000000000000000000000000000000000000000000000000000000008152600401610b6290611bbc565b60405180910390fd5b610bb83330837f000000000000000000000000000000000000000000000000000000000000000073ffffffffffffffffffffffffffffffffffffffff1661100c909392919063ffffffff16565b610bc18161108e565b610bc9610f3f565b50565b600860009054906101000a900473ffffffffffffffffffffffffffffffffffffffff1681565b610bfa610e7a565b60003411610c3d576040517f08c379a0000000000000000000000000000000000000000000000000000000008152600401610c3490611bbc565b60405180910390fd5b3373ffffffffffffffffffffffffffffffffffffffff167f73a19dd210f1a7f902193214c0ee91dd35ee5b4d920cba8d519eca65a7b488ca3442604051610c85929190611482565b60405180910390a2610c9733346103fe565b610c9f610f3f565b565b600860009054906101000a900473ffffffffffffffffffffffffffffffffffffffff1673ffffffffffffffffffffffffffffffffffffffff163373ffffffffffffffffffffffffffffffffffffffff1614610d31576040517f08c379a0000000000000000000000000000000000000000000000000000000008152600401610d2890611c28565b60405180910390fd5b610d3a8161108e565b50565b60055481565b60065481565b610d51610df3565b600073ffffffffffffffffffffffffffffffffffffffff168173ffffffffffffffffffffffffffffffffffffffff1603610dc35760006040517f1e4fbdf7000000000000000000000000000000000000000000000000000000008152600401610dba9190611581565b60405180910390fd5b610dcc81610f48565b50565b7f000000000000000000000000000000000000000000000000000000000000000081565b610dfb611250565b73ffffffffffffffffffffffffffffffffffffffff16610e19610a1e565b73ffffffffffffffffffffffffffffffffffffffff1614610e7857610e3c611250565b6040517f118cdaa7000000000000000000000000000000000000000000000000000000008152600401610e6f9190611581565b60405180910390fd5b565b600260015403610eb6576040517f3ee5aeb500000000000000000000000000000000000000000000000000000000815260040160405180910390fd5b6002600181905550565b610f3a838473ffffffffffffffffffffffffffffffffffffffff1663a9059cbb8585604051602401610ef3929190611c48565b604051602081830303815290604052915060e01b6020820180517bffffffffffffffffffffffffffffffffffffffffffffffffffffffff8381831617835250505050611258565b505050565b60018081905550565b60008060009054906101000a900473ffffffffffffffffffffffffffffffffffffffff169050816000806101000a81548173ffffffffffffffffffffffffffffffffffffffff021916908373ffffffffffffffffffffffffffffffffffffffff1602179055508173ffffffffffffffffffffffffffffffffffffffff168173ffffffffffffffffffffffffffffffffffffffff167f8be0079c531659141344cd1fd0a4f28419497f9722a3daafe3b4186f6b6457e060405160405180910390a35050565b611088848573ffffffffffffffffffffffffffffffffffffffff166323b872dd86868660405160240161104193929190611c71565b604051602081830303815290604052915060e01b6020820180517bffffffffffffffffffffffffffffffffffffffffffffffffffffffff8381831617835250505050611258565b50505050565b6110f97f0000000000000000000000000000000000000000000000000000000000000000827f000000000000000000000000000000000000000000000000000000000000000073ffffffffffffffffffffffffffffffffffffffff166112fa9092919063ffffffff16565b60007f000000000000000000000000000000000000000000000000000000000000000073ffffffffffffffffffffffffffffffffffffffff1663a0712d68836040518263ffffffff1660e01b815260040161115491906114ab565b6020604051808303816000875af1158015611173573d6000803e3d6000fd5b505050506040513d601f19601f820116820180604052508101906111979190611756565b9050600081146111dc576040517f08c379a00000000000000000000000000000000000000000000000000000000081526004016111d390611cf4565b60405180910390fd5b81600460008282546111ee9190611960565b925050819055506111fd610a1e565b73ffffffffffffffffffffffffffffffffffffffff167f73a19dd210f1a7f902193214c0ee91dd35ee5b4d920cba8d519eca65a7b488ca8342604051611244929190611482565b60405180910390a25050565b600033905090565b600080602060008451602086016000885af18061127b576040513d6000823e3d81fd5b3d9250600051915050600082146112965760018114156112b2565b60008473ffffffffffffffffffffffffffffffffffffffff163b145b156112f457836040517f5274afe70000000000000000000000000000000000000000000000000000000081526004016112eb9190611581565b60405180910390fd5b50505050565b60008373ffffffffffffffffffffffffffffffffffffffff1663095ea7b3848460405160240161132b929190611c48565b604051602081830303815290604052915060e01b6020820180517bffffffffffffffffffffffffffffffffffffffffffffffffffffffff838183161783525050505090506113798482611409565b611403576113f8848573ffffffffffffffffffffffffffffffffffffffff1663095ea7b38660006040516024016113b1929190611d4f565b604051602081830303815290604052915060e01b6020820180517bffffffffffffffffffffffffffffffffffffffffffffffffffffffff8381831617835250505050611258565b6114028482611258565b5b50505050565b6000806000806020600086516020880160008a5af192503d9150600051905082801561145e575060008214611441576001811461145d565b60008673ffffffffffffffffffffffffffffffffffffffff163b115b5b935050505092915050565b6000819050919050565b61147c81611469565b82525050565b60006040820190506114976000830185611473565b6114a46020830184611473565b9392505050565b60006020820190506114c06000830184611473565b92915050565b600073ffffffffffffffffffffffffffffffffffffffff82169050919050565b6000819050919050565b600061150b611506611501846114c6565b6114e6565b6114c6565b9050919050565b600061151d826114f0565b9050919050565b600061152f82611512565b9050919050565b61153f81611524565b82525050565b600060208201905061155a6000830184611536565b92915050565b600061156b826114c6565b9050919050565b61157b81611560565b82525050565b60006020820190506115966000830184611572565b92915050565b600081519050919050565b600082825260208201905092915050565b60005b838110156115d65780820151818401526020810190506115bb565b60008484015250505050565b6000601f19601f8301169050919050565b60006115fe8261159c565b61160881856115a7565b93506116188185602086016115b8565b611621816115e2565b840191505092915050565b6000602082019050818103600083015261164681846115f3565b905092915050565b600080fd5b61165c81611469565b811461166757600080fd5b50565b60008135905061167981611653565b92915050565b6000602082840312156116955761169461164e565b5b60006116a38482850161166a565b91505092915050565b6116b581611560565b81146116c057600080fd5b50565b6000813590506116d2816116ac565b92915050565b6000602082840312156116ee576116ed61164e565b5b60006116fc848285016116c3565b91505092915050565b600061171082611512565b9050919050565b61172081611705565b82525050565b600060208201905061173b6000830184611717565b92915050565b60008151905061175081611653565b92915050565b60006020828403121561176c5761176b61164e565b5b600061177a84828501611741565b91505092915050565b7f4e6f2066756e6473000000000000000000000000000000000000000000000000600082015250565b60006117b96008836115a7565b91506117c482611783565b602082019050919050565b600060208201905081810360008301526117e8816117ac565b9050919050565b7f4b696e657469632072656465656d206661696c65640000000000000000000000600082015250565b60006118256015836115a7565b9150611830826117ef565b602082019050919050565b6000602082019050818103600083015261185481611818565b9050919050565b7f4e487b7100000000000000000000000000000000000000000000000000000000600052601160045260246000fd5b600061189582611469565b91506118a083611469565b92508282039050818111156118b8576118b761185b565b5b92915050565b60006118c982611469565b91506118d483611469565b92508282026118e281611469565b915082820484148315176118f9576118f861185b565b5b5092915050565b7f4e487b7100000000000000000000000000000000000000000000000000000000600052601260045260246000fd5b600061193a82611469565b915061194583611469565b92508261195557611954611900565b5b828204905092915050565b600061196b82611469565b915061197683611469565b925082820190508082111561198e5761198d61185b565b5b92915050565b7f4d415455524954595f574954485f424f4e555300000000000000000000000000600082015250565b60006119ca6013836115a7565b91506119d582611994565b602082019050919050565b60006060820190506119f56000830185611473565b611a026020830184611473565b8181036040830152611a13816119bd565b90509392505050565b7f4541524c595f455849545f4e4f5f424f4e555300000000000000000000000000600082015250565b6000611a526013836115a7565b9150611a5d82611a1c565b602082019050919050565b6000606082019050611a7d6000830185611473565b611a8a6020830184611473565b8181036040830152611a9b81611a45565b90509392505050565b7f4e487b7100000000000000000000000000000000000000000000000000000000600052602260045260246000fd5b60006002820490506001821680611aeb57607f821691505b602082108103611afe57611afd611aa4565b5b50919050565b7f556e617574686f72697a65640000000000000000000000000000000000000000600082015250565b6000611b3a600c836115a7565b9150611b4582611b04565b602082019050919050565b60006020820190508181036000830152611b6981611b2d565b9050919050565b7f416d6f756e74206d757374206265203e20300000000000000000000000000000600082015250565b6000611ba66012836115a7565b9150611bb182611b70565b602082019050919050565b60006020820190508181036000830152611bd581611b99565b9050919050565b7f4f6e6c7920466163746f72790000000000000000000000000000000000000000600082015250565b6000611c12600c836115a7565b9150611c1d82611bdc565b602082019050919050565b60006020820190508181036000830152611c4181611c05565b9050919050565b6000604082019050611c5d6000830185611572565b611c6a6020830184611473565b9392505050565b6000606082019050611c866000830186611572565b611c936020830185611572565b611ca06040830184611473565b949350505050565b7f4b696e65746963206d696e74206661696c656400000000000000000000000000600082015250565b6000611cde6013836115a7565b9150611ce982611ca8565b602082019050919050565b60006020820190508181036000830152611d0d81611cd1565b9050919050565b6000819050919050565b6000611d39611d34611d2f84611d14565b6114e6565b611469565b9050919050565b611d4981611d1e565b82525050565b6000604082019050611d646000830185611572565b611d716020830184611d40565b939250505056fea264697066735822122089aae1c6018df209fdd5823db8bbc21a99ae9bcc5fde6d7787f942c20f67ca2364736f6c63430008140033a26469706673582212208e924bec9c73e1a6d292af8bbf2e9972361e61358a151b2d893d216e0b1480f064736f6c63430008140033",
  "linkReferences": {},
  "deployedLinkReferences": {}
}