{
  "_format": "hh-sol-artifact-1",
  "contractName": "GroupVault",
  "sourceName": "contracts/GroupVault.sol",
  "abi": [
    {
      "inputs": [
        {
          "internalType": "string",
          "name": "_purpose",
          "type": "string"
        },
        {
          "internalType": "address[]",
          "name": "_initialMembers",
          "type": "address[]"
        },
        {
          "internalType": "uint256",
          "name": "_approvalThreshold",
          "type": "uint256"
        }
      ],
      "stateMutability": "nonpayable",
      "type": "constructor"
    },
    {
      "inputs": [
        {
          "internalType": "address",
          "name": "owner",
          "type": "address"
        }
      ],
      "name": "OwnableInvalidOwner",
      "type": "error"
    },
    {
      "inputs": [
        {
          "internalType": "address",
          "name": "account",
          "type": "address"
        }
      ],
      "name": "OwnableUnauthorizedAccount",
      "type": "error"
    },
    {
      "inputs": [],
      "name": "ReentrancyGuardReentrantCall",
      "type": "error"
    },
    {
      "anonymous": false,
      "inputs": [
        {
          "indexed": true,
          "internalType": "address",
          "name": "user",
          "type": "address"
        },
        {
          "indexed": false,
          "internalType": "uint256",
          "name": "amount",
          "type": "uint256"
        },
        {
          "indexed": false,
          "internalType": "uint256",
          "name": "timestamp",
          "type": "uint256"
        }
      ],
      "name": "Deposited",
      "type": "event"
    },
    {
      "anonymous": false,
      "inputs": [
        {
          "indexed": true,
          "internalType": "address",
          "name": "member",
          "type": "address"
        }
      ],
      "name": "MemberAdded",
      "type": "event"
    },
    {
      "anonymous": false,
      "inputs": [
        {
          "indexed": true,
          "internalType": "address",
          "name": "previousOwner",
          "type": "address"
        },
        {
          "indexed": true,
          "internalType": "address",
          "name": "newOwner",
          "type": "address"
        }
      ],
      "name": "OwnershipTransferred",
      "type": "event"
    },
    {
      "anonymous": false,
      "inputs": [
        {
          "indexed": true,
          "internalType": "uint256",
          "name": "id",
          "type": "uint256"
        },
        {
          "indexed": false,
          "internalType": "address",
          "name": "recipient",
          "type": "address"
        },
        {
          "indexed": false,
          "internalType": "uint256",
          "name": "amount",
          "type": "uint256"
        },
        {
          "indexed": false,
          "internalType": "string",
          "name": "desc",
          "type": "string"
        }
      ],
      "name": "ProposalCreated",
      "type": "event"
    },
    {
      "anonymous": false,
      "inputs": [
        {
          "indexed": true,
          "internalType": "uint256",
          "name": "id",
          "type": "uint256"
        },
        {
          "indexed": false,
          "internalType": "address",
          "name": "recipient",
          "type": "address"
        },
        {
          "indexed": false,
          "internalType": "uint256",
          "name": "amount",
          "type": "uint256"
        }
      ],
      "name": "ProposalExecuted",
      "type": "event"
    },
    {
      "anonymous": false,
      "inputs": [
        {
          "indexed": true,
          "internalType": "uint256",
          "name": "id",
          "type": "uint256"
        },
        {
          "indexed": false,
          "internalType": "address",
          "name": "voter",
          "type": "address"
        }
      ],
      "name": "ProposalVoted",
      "type": "event"
    },
    {
      "anonymous": false,
      "inputs": [
        {
          "indexed": false,
          "internalType": "string",
          "name": "purpose",
          "type": "string"
        }
      ],
      "name": "VaultInitialized",
      "type": "event"
    },
    {
      "anonymous": false,
      "inputs": [
        {
          "indexed": true,
          "internalType": "address",
          "name": "user",
          "type": "address"
        },
        {
          "indexed": false,
          "internalType": "uint256",
          "name": "amount",
          "type": "uint256"
        },
        {
          "indexed": false,
          "internalType": "uint256",
          "name": "timestamp",
          "type": "uint256"
        },
        {
          "indexed": false,
          "internalType": "string",
          "name": "typeOfWithdrawal",
          "type": "string"
        }
      ],
      "name": "Withdrawn",
      "type": "event"
    },
    {
      "inputs": [],
      "name": "approvalThreshold",
      "outputs": [
        {
          "internalType": "uint256",
          "name": "",
          "type": "uint256"
        }
      ],
      "stateMutability": "view",
      "type": "function"
    },
    {
      "inputs": [
        {
          "internalType": "address",
          "name": "_recipient",
          "type": "address"
        },
        {
          "internalType": "uint256",
          "name": "_amount",
          "type": "uint256"
        },
        {
          "internalType": "string",
          "name": "_description",
          "type": "string"
        }
      ],
      "name": "createProposal",
      "outputs": [],
      "stateMutability": "nonpayable",
      "type": "function"
    },
    {
      "inputs": [],
      "name": "deposit",
      "outputs": [],
      "stateMutability": "payable",
      "type": "function"
    },
    {
      "inputs": [],
      "name": "getMemberCount",
      "outputs": [
        {
          "internalType": "uint256",
          "name": "",
          "type": "uint256"
        }
      ],
      "stateMutability": "view",
      "type": "function"
    },
    {
      "inputs": [
        {
          "internalType": "address",
          "name": "",
          "type": "address"
        }
      ],
      "name": "isMember",
      "outputs": [
        {
          "internalType": "bool",
          "name": "",
          "type": "bool"
        }
      ],
      "stateMutability": "view",
      "type": "function"
    },
    {
      "inputs": [
        {
          "internalType": "uint256",
          "name": "",
          "type": "uint256"
        }
      ],
      "name": "members",
      "outputs": [
        {
          "internalType": "address",
          "name": "",
          "type": "address"
        }
      ],
      "stateMutability": "view",
      "type": "function"
    },
    {
      "inputs": [],
      "name": "owner",
      "outputs": [
        {
          "internalType": "address",
          "name": "",
          "type": "address"
        }
      ],
      "stateMutability": "view",
      "type": "function"
    },
    {
      "inputs": [],
      "name": "proposalCount",
      "outputs": [
        {
          "internalType": "uint256",
          "name": "",
          "type": "uint256"
        }
      ],
      "stateMutability": "view",
      "type": "function"
    },
    {
      "inputs": [
        {
          "internalType": "uint256",
          "name": "",
          "type": "uint256"
        }
      ],
      "name": "proposals",
      "outputs": [
        {
          "internalType": "address",
          "name": "recipient",
          "type": "address"
        },
        {
          "internalType": "uint256",
          "name": "amount",
          "type": "uint256"
        },
        {
          "internalType": "string",
          "name": "description",
          "type": "string"
        },
        {
          "internalType": "uint256",
          "name": "approvals",
          "type": "uint256"
        },
        {
          "internalType": "bool",
          "name": "executed",
          "type": "bool"
        }
      ],
      "stateMutability": "view",
      "type": "function"
    },
    {
      "inputs": [],
      "name": "purpose",
      "outputs": [
        {
          "internalType": "string",
          "name": "",
          "type": "string"
        }
      ],
      "stateMutability": "view",
      "type": "function"
    },
    {
      "inputs": [],
      "name": "renounceOwnership",
      "outputs": [],
      "stateMutability": "nonpayable",
      "type": "function"
    },
    {
      "inputs": [],
      "name": "totalAssets",
      "outputs": [
        {
          "internalType": "uint256",
          "name": "",
          "type": "uint256"
        }
      ],
      "stateMutability": "view",
      "type": "function"
    },
    {
      "inputs": [
        {
          "internalType": "address",
          "name": "newOwner",
          "type": "address"
        }
      ],
      "name": "transferOwnership",
      "outputs": [],
      "stateMutability": "nonpayable",
      "type": "function"
    },
    {
      "inputs": [
        {
          "internalType": "uint256",
          "name": "_proposalId",
          "type": "uint256"
        }
      ],
      "name": "vote",
      "outputs": [],
      "stateMutability": "nonpayable",
      "type": "function"
    },
    {
      "stateMutability": "payable",
      "type": "receive"
    }
  ],
  "bytecode": "0x60806040523480156200001157600080fd5b50604051620026b5380380620026b58339818101604052810190620000379190620006c4565b823380600073ffffffffffffffffffffffffffffffffffffffff168173ffffffffffffffffffffffffffffffffffffffff1603620000af5760006040517f1e4fbdf7000000000000000000000000000000000000000000000000000000008152600401620000a691906200076f565b60405180910390fd5b620000c081620002f260201b60201c565b50600180819055508160029081620000d99190620009cd565b507f897cb1f7a5aced02f0fe4e37d9268d7509e5620fe53f2bfe685120bcb0c13a30826040516200010b919062000b06565b60405180910390a1505060008111801562000127575081518111155b62000169576040517f08c379a0000000000000000000000000000000000000000000000000000000008152600401620001609062000b7a565b60405180910390fd5b60005b8251811015620002e15760016003600085848151811062000192576200019162000b9c565b5b602002602001015173ffffffffffffffffffffffffffffffffffffffff1673ffffffffffffffffffffffffffffffffffffffff16815260200190815260200160002060006101000a81548160ff021916908315150217905550600483828151811062000203576200020262000b9c565b5b60200260200101519080600181540180825580915050600190039060005260206000200160009091909190916101000a81548173ffffffffffffffffffffffffffffffffffffffff021916908373ffffffffffffffffffffffffffffffffffffffff16021790555082818151811062000281576200028062000b9c565b5b602002602001015173ffffffffffffffffffffffffffffffffffffffff167fb251eb052afc73ffd02ffe85ad79990a8b3fed60d76dbc2fa2fdd7123dffd91460405160405180910390a28080620002d89062000bfa565b9150506200016c565b508060058190555050505062000c47565b60008060009054906101000a900473ffffffffffffffffffffffffffffffffffffffff169050816000806101000a81548173ffffffffffffffffffffffffffffffffffffffff021916908373ffffffffffffffffffffffffffffffffffffffff1602179055508173ffffffffffffffffffffffffffffffffffffffff168173ffffffffffffffffffffffffffffffffffffffff167f8be0079c531659141344cd1fd0a4f28419497f9722a3daafe3b4186f6b6457e060405160405180910390a35050565b6000604051905090565b600080fd5b600080fd5b600080fd5b600080fd5b6000601f19601f8301169050919050565b7f4e487b7100000000000000000000000000000000000000000000000000000000600052604160045260246000fd5b6200041f82620003d4565b810181811067ffffffffffffffff82111715620004415762000440620003e5565b5b80604052505050565b600062000456620003b6565b905062000464828262000414565b919050565b600067ffffffffffffffff821115620004875762000486620003e5565b5b6200049282620003d4565b9050602081019050919050565b60005b83811015620004bf578082015181840152602081019050620004a2565b60008484015250505050565b6000620004e2620004dc8462000469565b6200044a565b905082815260208101848484011115620005015762000500620003cf565b5b6200050e8482856200049f565b509392505050565b600082601f8301126200052e576200052d620003ca565b5b815162000540848260208601620004cb565b91505092915050565b600067ffffffffffffffff821115620005675762000566620003e5565b5b602082029050602081019050919050565b600080fd5b600073ffffffffffffffffffffffffffffffffffffffff82169050919050565b6000620005aa826200057d565b9050919050565b620005bc816200059d565b8114620005c857600080fd5b50565b600081519050620005dc81620005b1565b92915050565b6000620005f9620005f38462000549565b6200044a565b905080838252602082019050602084028301858111156200061f576200061e62000578565b5b835b818110156200064c5780620006378882620005cb565b84526020840193505060208101905062000621565b5050509392505050565b600082601f8301126200066e576200066d620003ca565b5b815162000680848260208601620005e2565b91505092915050565b6000819050919050565b6200069e8162000689565b8114620006aa57600080fd5b50565b600081519050620006be8162000693565b92915050565b600080600060608486031215620006e057620006df620003c0565b5b600084015167ffffffffffffffff811115620007015762000700620003c5565b5b6200070f8682870162000516565b935050602084015167ffffffffffffffff811115620007335762000732620003c5565b5b620007418682870162000656565b92505060406200075486828701620006ad565b9150509250925092565b62000769816200059d565b82525050565b60006020820190506200078660008301846200075e565b92915050565b600081519050919050565b7f4e487b7100000000000000000000000000000000000000000000000000000000600052602260045260246000fd5b60006002820490506001821680620007df57607f821691505b602082108103620007f557620007f462000797565b5b50919050565b60008190508160005260206000209050919050565b60006020601f8301049050919050565b600082821b905092915050565b6000600883026200085f7fffffffffffffffffffffffffffffffffffffffffffffffffffffffffffffffff8262000820565b6200086b868362000820565b95508019841693508086168417925050509392505050565b6000819050919050565b6000620008ae620008a8620008a28462000689565b62000883565b62000689565b9050919050565b6000819050919050565b620008ca836200088d565b620008e2620008d982620008b5565b8484546200082d565b825550505050565b600090565b620008f9620008ea565b62000906818484620008bf565b505050565b5b818110156200092e5762000922600082620008ef565b6001810190506200090c565b5050565b601f8211156200097d576200094781620007fb565b620009528462000810565b8101602085101562000962578190505b6200097a620009718562000810565b8301826200090b565b50505b505050565b600082821c905092915050565b6000620009a26000198460080262000982565b1980831691505092915050565b6000620009bd83836200098f565b9150826002028217905092915050565b620009d8826200078c565b67ffffffffffffffff811115620009f457620009f3620003e5565b5b62000a008254620007c6565b62000a0d82828562000932565b600060209050601f83116001811462000a45576000841562000a30578287015190505b62000a3c8582620009af565b86555062000aac565b601f19841662000a5586620007fb565b60005b8281101562000a7f5784890151825560018201915060208501945060208101905062000a58565b8683101562000a9f578489015162000a9b601f8916826200098f565b8355505b6001600288020188555050505b505050505050565b600082825260208201905092915050565b600062000ad2826200078c565b62000ade818562000ab4565b935062000af08185602086016200049f565b62000afb81620003d4565b840191505092915050565b6000602082019050818103600083015262000b22818462000ac5565b905092915050565b7f496e76616c6964207468726573686f6c64000000000000000000000000000000600082015250565b600062000b6260118362000ab4565b915062000b6f8262000b2a565b602082019050919050565b6000602082019050818103600083015262000b958162000b53565b9050919050565b7f4e487b7100000000000000000000000000000000000000000000000000000000600052603260045260246000fd5b7f4e487b7100000000000000000000000000000000000000000000000000000000600052601160045260246000fd5b600062000c078262000689565b91507fffffffffffffffffffffffffffffffffffffffffffffffffffffffffffffffff820362000c3c5762000c3b62000bcb565b5b600182019050919050565b611a5e8062000c576000396000f3fe6080604052600436106100e15760003560e01c80638da5cb5b1161007f578063cca5a8b211610059578063cca5a8b214610323578063d0e30db01461034c578063da35c66414610356578063f2fde38b146103815761014c565b80638da5cb5b14610290578063997072f7146102bb578063a230c524146102e65761014c565b80635daf08ca116100bb5780635daf08ca146101e657806370740aab14610223578063715018a61461024e5780637d0eef61146102655761014c565b80630121b93f14610151578063013cf08b1461017a57806301e1d114146101bb5761014c565b3661014c57600034111561014a573373ffffffffffffffffffffffffffffffffffffffff167f73a19dd210f1a7f902193214c0ee91dd35ee5b4d920cba8d519eca65a7b488ca3442604051610137929190610f29565b60405180910390a261014933346103aa565b5b005b600080fd5b34801561015d57600080fd5b5061017860048036038101906101739190610f88565b6103ae565b005b34801561018657600080fd5b506101a1600480360381019061019c9190610f88565b6105f9565b6040516101b29594939291906110a1565b60405180910390f35b3480156101c757600080fd5b506101d06106e4565b6040516101dd91906110fb565b60405180910390f35b3480156101f257600080fd5b5061020d60048036038101906102089190610f88565b6106ec565b60405161021a9190611116565b60405180910390f35b34801561022f57600080fd5b5061023861072b565b6040516102459190611131565b60405180910390f35b34801561025a57600080fd5b506102636107b9565b005b34801561027157600080fd5b5061027a6107cd565b60405161028791906110fb565b60405180910390f35b34801561029c57600080fd5b506102a56107d3565b6040516102b29190611116565b60405180910390f35b3480156102c757600080fd5b506102d06107fc565b6040516102dd91906110fb565b60405180910390f35b3480156102f257600080fd5b5061030d6004803603810190610308919061117f565b610809565b60405161031a91906111ac565b60405180910390f35b34801561032f57600080fd5b5061034a6004803603810190610345919061122c565b610829565b005b6103546109fe565b005b34801561036257600080fd5b5061036b610aad565b60405161037891906110fb565b60405180910390f35b34801561038d57600080fd5b506103a860048036038101906103a3919061117f565b610ab3565b005b5050565b600360003373ffffffffffffffffffffffffffffffffffffffff1673ffffffffffffffffffffffffffffffffffffffff16815260200190815260200160002060009054906101000a900460ff1661043a576040517f08c379a0000000000000000000000000000000000000000000000000000000008152600401610431906112ec565b60405180910390fd5b60006006600083815260200190815260200160002090508060040160009054906101000a900460ff16156104a3576040517f08c379a000000000000000000000000000000000000000000000000000000000815260040161049a90611358565b60405180910390fd5b8060050160003373ffffffffffffffffffffffffffffffffffffffff1673ffffffffffffffffffffffffffffffffffffffff16815260200190815260200160002060009054906101000a900460ff1615610532576040517f08c379a0000000000000000000000000000000000000000000000000000000008152600401610529906113c4565b60405180910390fd5b60018160050160003373ffffffffffffffffffffffffffffffffffffffff1673ffffffffffffffffffffffffffffffffffffffff16815260200190815260200160002060006101000a81548160ff0219169083151502179055508060030160008154809291906105a190611413565b9190505550817f34647120636ce03d739347e28e9d1bdd34fd03d066ae60439fb1be2721ad16cd336040516105d69190611116565b60405180910390a26005548160030154106105f5576105f482610b39565b5b5050565b60066020528060005260406000206000915090508060000160009054906101000a900473ffffffffffffffffffffffffffffffffffffffff16908060010154908060020180546106489061148a565b80601f01602080910402602001604051908101604052809291908181526020018280546106749061148a565b80156106c15780601f10610696576101008083540402835291602001916106c1565b820191906000526020600020905b8154815290600101906020018083116106a457829003601f168201915b5050505050908060030154908060040160009054906101000a900460ff16905085565b600047905090565b600481815481106106fc57600080fd5b906000526020600020016000915054906101000a900473ffffffffffffffffffffffffffffffffffffffff1681565b600280546107389061148a565b80601f01602080910402602001604051908101604052809291908181526020018280546107649061148a565b80156107b15780601f10610786576101008083540402835291602001916107b1565b820191906000526020600020905b81548152906001019060200180831161079457829003601f168201915b505050505081565b6107c1610d6e565b6107cb6000610df5565b565b60055481565b60008060009054906101000a900473ffffffffffffffffffffffffffffffffffffffff16905090565b6000600480549050905090565b60036020528060005260406000206000915054906101000a900460ff1681565b600360003373ffffffffffffffffffffffffffffffffffffffff1673ffffffffffffffffffffffffffffffffffffffff16815260200190815260200160002060009054906101000a900460ff166108b5576040517f08c379a00000000000000000000000000000000000000000000000000000000081526004016108ac906112ec565b60405180910390fd5b6108bd6106e4565b8311156108ff576040517f08c379a00000000000000000000000000000000000000000000000000000000081526004016108f690611507565b60405180910390fd5b60006007600081548092919061091490611413565b9190505590506000600660008381526020019081526020016000209050858160000160006101000a81548173ffffffffffffffffffffffffffffffffffffffff021916908373ffffffffffffffffffffffffffffffffffffffff160217905550848160010181905550838382600201918261099092919061170d565b5060008160040160006101000a81548160ff02191690831515021790555060008160030181905550817f85b1e5bd1e58840265c40582ff09f8cbfab823e041a824467b654a99b5156d39878787876040516109ee9493929190611819565b60405180910390a2505050505050565b610a06610eb9565b60003411610a49576040517f08c379a0000000000000000000000000000000000000000000000000000000008152600401610a40906118a5565b60405180910390fd5b3373ffffffffffffffffffffffffffffffffffffffff167f73a19dd210f1a7f902193214c0ee91dd35ee5b4d920cba8d519eca65a7b488ca3442604051610a91929190610f29565b60405180910390a2610aa333346103aa565b610aab610eff565b565b60075481565b610abb610d6e565b600073ffffffffffffffffffffffffffffffffffffffff168173ffffffffffffffffffffffffffffffffffffffff1603610b2d5760006040517f1e4fbdf7000000000000000000000000000000000000000000000000000000008152600401610b249190611116565b60405180910390fd5b610b3681610df5565b50565b6000600660008381526020019081526020016000209050610b586106e4565b81600101541115610b9e576040517f08c379a0000000000000000000000000000000000000000000000000000000008152600401610b9590611507565b60405180910390fd5b60018160040160006101000a81548160ff02191690831515021790555060008160000160009054906101000a900473ffffffffffffffffffffffffffffffffffffffff1673ffffffffffffffffffffffffffffffffffffffff168260010154604051610c09906118f6565b60006040518083038185875af1925050503d8060008114610c46576040519150601f19603f3d011682016040523d82523d6000602084013e610c4b565b606091505b5050905080610c8f576040517f08c379a0000000000000000000000000000000000000000000000000000000008152600401610c8690611957565b60405180910390fd5b827f3b7c90df35b419337cff0919fe91849006607bb66c4373623f06f9d48c1ebb988360000160009054906101000a900473ffffffffffffffffffffffffffffffffffffffff168460010154604051610ce9929190611977565b60405180910390a28160000160009054906101000a900473ffffffffffffffffffffffffffffffffffffffff1673ffffffffffffffffffffffffffffffffffffffff167f62116a798bb58cc967874bea4d771de2f9aeec6c64189ff2e5a551072f3106f9836001015442604051610d619291906119ec565b60405180910390a2505050565b610d76610f08565b73ffffffffffffffffffffffffffffffffffffffff16610d946107d3565b73ffffffffffffffffffffffffffffffffffffffff1614610df357610db7610f08565b6040517f118cdaa7000000000000000000000000000000000000000000000000000000008152600401610dea9190611116565b60405180910390fd5b565b60008060009054906101000a900473ffffffffffffffffffffffffffffffffffffffff169050816000806101000a81548173ffffffffffffffffffffffffffffffffffffffff021916908373ffffffffffffffffffffffffffffffffffffffff1602179055508173ffffffffffffffffffffffffffffffffffffffff168173ffffffffffffffffffffffffffffffffffffffff167f8be0079c531659141344cd1fd0a4f28419497f9722a3daafe3b4186f6b6457e060405160405180910390a35050565b600260015403610ef5576040517f3ee5aeb500000000000000000000000000000000000000000000000000000000815260040160405180910390fd5b6002600181905550565b60018081905550565b600033905090565b6000819050919050565b610f2381610f10565b82525050565b6000604082019050610f3e6000830185610f1a565b610f4b6020830184610f1a565b9392505050565b600080fd5b600080fd5b610f6581610f10565b8114610f7057600080fd5b50565b600081359050610f8281610f5c565b92915050565b600060208284031215610f9e57610f9d610f52565b5b6000610fac84828501610f73565b91505092915050565b600073ffffffffffffffffffffffffffffffffffffffff82169050919050565b6000610fe082610fb5565b9050919050565b610ff081610fd5565b82525050565b600081519050919050565b600082825260208201905092915050565b60005b83811015611030578082015181840152602081019050611015565b60008484015250505050565b6000601f19601f8301169050919050565b600061105882610ff6565b6110628185611001565b9350611072818560208601611012565b61107b8161103c565b840191505092915050565b60008115159050919050565b61109b81611086565b82525050565b600060a0820190506110b66000830188610fe7565b6110c36020830187610f1a565b81810360408301526110d5818661104d565b90506110e46060830185610f1a565b6110f16080830184611092565b9695505050505050565b60006020820190506111106000830184610f1a565b92915050565b600060208201905061112b6000830184610fe7565b92915050565b6000602082019050818103600083015261114b818461104d565b905092915050565b61115c81610fd5565b811461116757600080fd5b50565b60008135905061117981611153565b92915050565b60006020828403121561119557611194610f52565b5b60006111a38482850161116a565b91505092915050565b60006020820190506111c16000830184611092565b92915050565b600080fd5b600080fd5b600080fd5b60008083601f8401126111ec576111eb6111c7565b5b8235905067ffffffffffffffff811115611209576112086111cc565b5b602083019150836001820283011115611225576112246111d1565b5b9250929050565b6000806000806060858703121561124657611245610f52565b5b60006112548782880161116a565b945050602061126587828801610f73565b935050604085013567ffffffffffffffff81111561128657611285610f57565b5b611292878288016111d6565b925092505092959194509250565b7f4e6f742061206d656d6265720000000000000000000000000000000000000000600082015250565b60006112d6600c83611001565b91506112e1826112a0565b602082019050919050565b60006020820190508181036000830152611305816112c9565b9050919050565b7f416c726561647920657865637574656400000000000000000000000000000000600082015250565b6000611342601083611001565b915061134d8261130c565b602082019050919050565b6000602082019050818103600083015261137181611335565b9050919050565b7f416c726561647920766f74656400000000000000000000000000000000000000600082015250565b60006113ae600d83611001565b91506113b982611378565b602082019050919050565b600060208201905081810360008301526113dd816113a1565b9050919050565b7f4e487b7100000000000000000000000000000000000000000000000000000000600052601160045260246000fd5b600061141e82610f10565b91507fffffffffffffffffffffffffffffffffffffffffffffffffffffffffffffffff82036114505761144f6113e4565b5b600182019050919050565b7f4e487b7100000000000000000000000000000000000000000000000000000000600052602260045260246000fd5b600060028204905060018216806114a257607f821691505b6020821081036114b5576114b461145b565b5b50919050565b7f496e73756666696369656e742066756e64730000000000000000000000000000600082015250565b60006114f1601283611001565b91506114fc826114bb565b602082019050919050565b60006020820190508181036000830152611520816114e4565b9050919050565b600082905092915050565b7f4e487b7100000000000000000000000000000000000000000000000000000000600052604160045260246000fd5b60008190508160005260206000209050919050565b60006020601f8301049050919050565b600082821b905092915050565b6000600883026115c37fffffffffffffffffffffffffffffffffffffffffffffffffffffffffffffffff82611586565b6115cd8683611586565b95508019841693508086168417925050509392505050565b6000819050919050565b600061160a61160561160084610f10565b6115e5565b610f10565b9050919050565b6000819050919050565b611624836115ef565b61163861163082611611565b848454611593565b825550505050565b600090565b61164d611640565b61165881848461161b565b505050565b5b8181101561167c57611671600082611645565b60018101905061165e565b5050565b601f8211156116c15761169281611561565b61169b84611576565b810160208510156116aa578190505b6116be6116b685611576565b83018261165d565b50505b505050565b600082821c905092915050565b60006116e4600019846008026116c6565b1980831691505092915050565b60006116fd83836116d3565b9150826002028217905092915050565b6117178383611527565b67ffffffffffffffff8111156117305761172f611532565b5b61173a825461148a565b611745828285611680565b6000601f8311600181146117745760008415611762578287013590505b61176c85826116f1565b8655506117d4565b601f19841661178286611561565b60005b828110156117aa57848901358255600182019150602085019450602081019050611785565b868310156117c757848901356117c3601f8916826116d3565b8355505b6001600288020188555050505b50505050505050565b82818337600083830152505050565b60006117f88385611001565b93506118058385846117dd565b61180e8361103c565b840190509392505050565b600060608201905061182e6000830187610fe7565b61183b6020830186610f1a565b818103604083015261184e8184866117ec565b905095945050505050565b7f416d6f756e74206d757374206265203e20300000000000000000000000000000600082015250565b600061188f601283611001565b915061189a82611859565b602082019050919050565b600060208201905081810360008301526118be81611882565b9050919050565b600081905092915050565b50565b60006118e06000836118c5565b91506118eb826118d0565b600082019050919050565b6000611901826118d3565b9150819050919050565b7f5472616e73666572206661696c65640000000000000000000000000000000000600082015250565b6000611941600f83611001565b915061194c8261190b565b602082019050919050565b6000602082019050818103600083015261197081611934565b9050919050565b600060408201905061198c6000830185610fe7565b6119996020830184610f1a565b9392505050565b7f47524f55505f5041594f55540000000000000000000000000000000000000000600082015250565b60006119d6600c83611001565b91506119e1826119a0565b602082019050919050565b6000606082019050611a016000830185610f1a565b611a0e6020830184610f1a565b8181036040830152611a1f816119c9565b9050939250505056fea2646970667358221220054c2d8c5f535cc89e77d8b91d690ce5103e805708d917682239899531fa6f0f64736f6c63430008140033",
  "linkReferences": {},
  "deployedLinkReferences": {}
}