{
  "_format": "hh-sol-artifact-1",
  "contractName": "VaultMetadata",
  "sourceName": "contracts/VaultMetadata.sol",
  "abi": [
    {
      "inputs": [
        {
          "internalType": "uint256",
          "name": "tokenId",
          "type": "uint256"
        },
        {
          "internalType": "string",
          "name": "purpose",
          "type": "string"
        },
        {
          "internalType": "uint256",
          "name": "balance",
          "type": "uint256"
        },
        {
          "internalType": "uint256",
          "name": "unlockTimestamp",
          "type": "uint256"
        },
        {
          "internalType": "uint256",
          "name": "lastUpdated",
          "type": "uint256"
        }
      ],
      "name": "generateTokenURI",
      "outputs": [
        {
          "internalType": "string",
          "name": "",
          "type": "string"
        }
      ],
      "stateMutability": "pure",
      "type": "function"
    }
  ],
  "bytecode": "0x6080806040523461001657611537908161001c8239f35b600080fdfe60406080815260048036101561001457600080fd5b600091823560e01c634fba954a1461002b57600080fd5b346111955760a036600319011261119557602492833567ffffffffffffffff94858211611195573660238301121561119557818501359461006b866111ed565b90610078865192836111cb565b8682523683888601011161119157846020888199868387019801883784010152604435829860148451116110c3575b50620f4240916100c8612710848404946100c08661138a565b94060461138a565b8135926100d48461138a565b9860643597620151808904620afa6c81018091116110b15762023ab180820491818302908315928483041483171561109f5761014897969594939291610119916114cd565b9161013661012b6105b48504856114cd565b618eac85049061122c565b61016d98899162023ab08604906114cd565b049161019080830292830414171561108d57610164908261122c565b96818102908104820361108d5781606461018961019193610197969560021c9061122c565b9104906114cd565b906114cd565b918260050260058104840361105857600281018091116110585760999004928360990260998104850361107b576002810180911161107b579060056101dd9204906114cd565b926001840180941161105857600a811015611069576003810180911161105857965b600288111561102a575b505050928c9d928d9c9d9261021f8f979661138a565b956102299061138a565b926102339061138a565b928751938491868084018a819b51928391019161024f92611209565b830190602f60f81b918289820152815191828a6021840192019161027292611209565b0190602182015281519182886022840192019161028e92611209565b01036002810184526022016102a390846111cb565b86519c8d978589017f3c73766720786d6c6e733d22687474703a2f2f7777772e77332e6f72672f3230905288017f30302f73766722207072657365727665417370656374526174696f3d22784d699052606088017f6e594d696e206d656574222076696577426f783d223020302035303020353030905261111f60f11b908160808a015260828901651e3232b3399f60d11b9052608889017f3c6c696e6561724772616469656e742069643d22636172644772616422207831905260a889017f3d223025222079313d223025222078323d2231303025222079323d223130302590528160c88a015260ca89017f3c73746f70206f66667365743d22302522207374796c653d2273746f702d636f905260ea89017f6c6f723a233145314234423b73746f702d6f7061636974793a3122202f3e0000905261010889017f3c73746f70206f66667365743d223130302522207374796c653d2273746f702d905261012889017f636f6c6f723a233138313831423b73746f702d6f7061636974793a3122202f3e90526101488901701e17b634b732b0b923b930b234b2b73a1f60791b905261015989017f3c66696c7465722069643d22676c6f772220783d222d3230252220793d222d32905261017989017f3025222077696474683d223134302522206865696768743d2231343025223e00905261019889017f3c6665476175737369616e426c757220696e3d22536f7572636547726170686990526101b889017f632220737464446576696174696f6e3d22323522202f3e00000000000000000090526101cf8901681e17b334b63a32b91f60b91b90526101d88901661e17b232b3399f60c91b90526101df89017f3c726563742077696474683d2235303022206865696768743d2235303022206690526f34b6361e9111981c981c98211110179f60811b6101ff8a015261020f89017f3c656c6c697073652063783d22343030222063793d22313530222072783d2231905261022f89017f3530222072793d22313030222066696c6c3d222345363230353822206f706163905261024f89017f6974793d22302e3135222066696c7465723d2275726c2823676c6f772922202f905261026f8901601f60f91b905261027089017f3c656c6c697073652063783d22313030222063793d22343030222072783d2231905261029089017f3030222072793d223830222066696c6c3d222345363230353822206f7061636990526102b089017f74793d22302e31222066696c7465723d2275726c2823676c6f772922202f3e0090527f3c7265637420783d2236302220793d223730222077696474683d223338302220806102cf8b01526102ef8a017f6865696768743d22333730222072783d223430222066696c6c3d2275726c2823905261030f8a017f63617264477261642922207374726f6b653d22776869746522207374726f6b6590527016b7b830b1b4ba3c9e911817189110179f60791b61032f8b01526103408a015261036089017f6865696768743d22333730222072783d223430222066696c6c3d227768697465905272111037b830b1b4ba3c9e91181718199110179f60691b6103808a015261039389017f3c7465787420783d223130302220793d22313138222066696c6c3d227768697490527f652220666f6e742d66616d696c793d2256657264616e612c2073616e732d736592836103b38b01526103d38a017f7269662220666f6e742d73697a653d2233302220666f6e742d7765696768743d90526103f38a017f2239303022206c65747465722d73706163696e673d2231223e53415649515545905289661e17ba32bc3a1f60c91b809981958261041385015261041a84017f3c7465787420783d223130302220793d22313336222066696c6c3d227768697490528761043a85015261045a84017f7269662220666f6e742d73697a653d2231302220666f6e742d7765696768743d905261047a84017f22626f6c6422206f7061636974793d22302e3622206c65747465722d73706163905261049a84017f696e673d2232223e50524f54454354494e4720594f5552204655545552453c2f90526104ba8401643a32bc3a1f60d91b90526104bf84017f3c7465787420783d223130302220793d22323030222066696c6c3d227768697490526104df84017f652220666f6e742d66616d696c793d2247656f726769612c207365726966222090526104ff84017f666f6e742d73697a653d2233322220666f6e742d7765696768743d22626f6c64905261051f840152805190818b61052180960192019161092b92611209565b8c01918201527f3c7465787420783d223130302220793d22323632222066696c6c3d227768697461052882015261054881018590527f7269662220666f6e742d73697a653d22313122206f7061636974793d22302e356105688201527f2220666f6e742d7765696768743d22626f6c64223e43555252454e5420434f4d6105888201526d26a4aa26a2a72a1e17ba32bc3a1f60911b6105a88201527f3c7465787420783d223130302220793d22333035222066696c6c3d22234536326105b68201527f3035382220666f6e742d66616d696c793d2256657264616e612c2073616e732d6105d68201527f73657269662220666f6e742d73697a653d2233382220666f6e742d77656967686105f6820152673a1e911c9818111f60c11b610616820152815161061e92909190610a67908390858401908c01611209565b01908101601760f91b905284519061061f958289888401920191610a8a92611209565b019384016c102aa9a22a181e17ba32bc3a1f60991b905261062c84017f3c7265637420783d2238302220793d22333535222077696474683d2233343022905261064c84017f206865696768743d2231222066696c6c3d22776869746522206f7061636974799052681e911817189110179f60b91b61066c85015261067584017f3c7465787420783d223130302220793d22333832222066696c6c3d22776869749052826106958501527f7269662220666f6e742d73697a653d2231322220666f6e742d7765696768743d93846106b58201526106d581017f22626f6c6422206f7061636974793d22302e36223e4e465420230000000000009052815191826106ef98898401920191610b9b92611209565b01948501526106f684017f3c7465787420783d223338302220793d22333832222066696c6c3d2277686974905261071684015261073683015261075682017f22626f6c6422206f7061636974793d22302e362220746578742d616e63686f7290526f01e9132b732111f26a0aa2aa922a99d160851b61077683015251906107869382858301610c2992611209565b019182015261078d8101651e17b9bb339f60d11b9052036107738101875261079301610c5590876111cb565b610c5e9061138a565b92875194610c6b86611199565b8886527f4142434445464748494a4b4c4d4e4f505152535455565758595a6162636465669687898801527f6768696a6b6c6d6e6f707172737475767778797a303132333435363738392b2f96878b820152610cc591611281565b92610ccf9061138a565b91610cd99061138a565b92610ce560843561138a565b948a51998a978189017f7b226e616d65223a202253617669717565205661756c742023000000000000009052805190818360398c01920191610d2692611209565b6201116160ed1b6039918a019182018190527f226465736372697074696f6e223a202241207072656d69756d20736176696e67603c8301526b039903b30bab63a103337b9160a51b605c8301528351909491610d86826068830189611209565b0190630171116160e51b6068830152606c82017f22696d616765223a2022646174613a696d6167652f7376672b786d6c3b6261739052608c820163194d8d0b60e21b90528051809360908401920191610dde92611209565b019160908301526e2261747472696275746573223a205b60881b609383015260a282017f7b2274726169745f74797065223a2022476f616c222c202276616c7565223a209052601160f91b60c283015251918260c38301610e3e92611209565b0190630113e96160e51b908160c384015260c783017f7b2274726169745f74797065223a202242616c616e6365222c202276616c7565905263111d101160e11b928360e7820152815191828d60eb8401920191610e9a92611209565b019060eb82015260ef81017f7b2274726169745f74797065223a20224d61747572697479222c202264697370905261010f81017f6c61795f74797065223a202264617465222c202276616c7565223a2000000000905282519061012b93828c868401920191610f0892611209565b019182016203e96160ed1b905261012e82017f7b2274726169745f74797065223a202256657273696f6e222c202276616c7565905261014e82015281519061015292828a858401920191610f5b92611209565b019061227d60f01b908201526101548101615d7d60f01b9052036101368101845261015601610f8a90846111cb565b835191610f9683611199565b8483528583015283820152610faa91611281565b9181519081818101947f646174613a6170706c69636174696f6e2f6a736f6e3b6261736536342c00000086528051908184603d8501920191610feb92611209565b810103601d81018352603d0161100190836111cb565b82519384928284525180928401528184840161101c92611209565b601f01601f19168101030190f35b6001879497018094116110485750919491508390508261021f610209565b634e487b7160e01b825260119052fd5b50634e487b7160e01b815260118752fd5b600819810190811161105857966101ff565b5050634e487b7160e01b815260118752fd5b634e487b7160e01b8552601189528385fd5b634e487b7160e01b8652601189528486fd5b50634e487b7160e01b82526011855290fd5b87519199508188019081118282101761117f579088918852600c8082528282019083368337885b8181106111305750506111299160239161110e8b5195869351928391850190611209565b81016217171760e91b8c8201520360038101845201826111cb565b97386100a7565b92935090916001600160f81b031961114882886114da565b5116891a61115682866114da565b53600019811461116d57600101908a9392916110ea565b634e487b7160e01b8952601185528689fd5b634e487b7160e01b8752604183528487fd5b8480fd5b8280fd5b6060810190811067ffffffffffffffff8211176111b557604052565b634e487b7160e01b600052604160045260246000fd5b90601f8019910116810190811067ffffffffffffffff8211176111b557604052565b67ffffffffffffffff81116111b557601f01601f191660200190565b60005b83811061121c5750506000910152565b818101518382015260200161120c565b9190820180921161123957565b634e487b7160e01b600052601160045260246000fd5b90611259826111ed565b61126660405191826111cb565b8281528092611277601f19916111ed565b0190602036910137565b805115611364578051600291828201809211611239576003918290046001600160fe1b0381168103611239576112ba908495941b61124f565b936020850193829183518401906020820192835194600085525b838110611313575050505052510680600114611300576002146112f5575090565b603d90600019015390565b50603d9081600019820153600119015390565b87600491999293949901918251600190603f9082828260121c16880101518453828282600c1c16880101518385015382828260061c16880101518885015316850101518982015301979291906112d4565b50506040516020810181811067ffffffffffffffff8211176111b5576040526000815290565b806000917a184f03e93ff9f4daa797ed6e38ed64bf6a1f010000000000000000808210156114bf575b506d04ee2d6d415b85acef8100000000808310156114b0575b50662386f26fc10000808310156114a1575b506305f5e10080831015611492575b5061271080831015611483575b506064821015611473575b600a80921015611469575b60019081602161142182870161124f565b95860101905b611433575b5050505090565b600019019083906f181899199a1a9b1b9c1cb0b131b232b360811b8282061a83530491821561146457919082611427565b61142c565b9160010191611410565b9190606460029104910191611405565b600491939204910191386113fa565b600891939204910191386113ed565b601091939204910191386113de565b602091939204910191386113cc565b6040935081049150386113b3565b9190820391821161123957565b9081518110156114eb570160200190565b634e487b7160e01b600052603260045260246000fdfea2646970667358221220b215ab0c64077d89984bb452a77f993ab1c66ee77cdc43f72cf73bb919aa9f9964736f6c63430008140033",
  "linkReferences": {},
  "deployedLinkReferences": {}
}